S017000044635F73756374696F6E5F70756D702E73726563E1
S11300000C94180F0C94370F0C94370F0C94370F73
S11300100C94370F0C94370F0C94370F0C94370F44
S11300200C94370F0C94370F0C94370F0C94370F34
S11300300C94370F0C94BE190C94370F0C94370F93
S11300400C94370F0C94370F0C94370F0C94370F14
S11300500C94370F0C94370F0C94370F0C94370F04
S11300600C94370F0C94370F0C94370F0C94370FF4
S11300700C94370F0C9435260C94F4190C94370F08
S11300800C94370F0C94370F0C94A1250C94370F54
S11300900C94370F0C94370F0C94370F0C94370FC4
S11300A00C94370F0C94370F0C94370F0C94370FB4
S11300B00C94370F0C94B9260C94370F0C94370F0B
S11300C00C94370F0C94370F0C94370F0C94370F94
S11300D00C94370F0C94370F0C94370F0C94370F84
S11300E00C94370F0C94370F000000000000000040
S11300F000000000000000000000000000000000FC
S1130100FE3F3FDFEFF7F306FF7FBFDFEFF7FB862E
S1130110C36186030C061BC6C36186030C061BC69B
S1130120C36186030C061BE6C36186030C061B66CB
S1130130FF7F86030FC7FB76FE7F86030FC7F33668
S1130140C06186030C07833EC06186030C06C31E90
S1130150C06186030C06631EC06186030C06330E61
S1130160C06186030FF61B0EC06186030FF60B06F3
S1130170000000000000000000000000000000007B
S1130180000000000000000000000000000000006B
S1130190000000000000000000000000000000005B
S11301A0000000000000000000000000000000004B
S11301B0000000000000000000000000000000003B
S11301C0000000000000000000000000000000002B
S11301D0000000000000000000000000000000001B
S11301E0000000000000000000000000000000000B
S11301F03F1F8FE7E7F9F9807FBFDFEFF7FBFD8053
S113020061B0D80C30C30D806030D80C00C30D80B1
S11302106030D80C00C30D806030D80C00C30D8052
S11302207F3FDF8C00C3FD803FBF9F8C00C3FD80F8
S113023001B0180C00C30D8001B0180C00C30D8070
S113024001B0180C00C30D8061B0180C30C30D80D0
S11302507FB01FEFF7FB0DFE3F300FE7E7FB0DFE0E
S1130260000000000000000000000000000000008A
S1130270000000000000000000000000000000007A
S1130280000000000000000000000000000000006A
S1130290000000000000000000000000000000005A
S11302A0000000000000000000000000000000004A
S11302B0000000000000000000000000000000003A
S11302C0000000000000000000000000000000002A
S11302D0003FD8303FDC30061E30061E30061F308B
S11302E0061B30061BB00619B00619F00618F006F6
S11302F018F00618703FD8703FD830000000000096
S113030000000000000000000000000000000000E9
S113031000000000000000000000000000000000D9
S113032000000000000000000000000000000000C9
S1130330000000000000000000003F9837FBFCFCB8
S1130340C1803FD837FBFDFEE18030D830C06186E4
S1130350F18030D830C06186F18030D830C06186F9
S1130360F98030D830C06186D9803F9830C061862A
S1130370DD803F9830C06186CD8030D830C0618642
S1130380CF8030D830C06186C78030D830C0618615
S1130390C78030D830C06186C3803FDFF0C061FEC3
S11303A0C3803F8FE0C060FCC180000000000000FB
S11303B00000000000000000000000000000000039
S11303C00000000000000000000000000000000029
S11303D00000000000000000000000000000000019
S11303E00000000000000000000000000000000009
S11303F000000000000000000000000000000000F9
S113040000000000000000000000000000000000E8
S113041000000000000000000000000000000000D8
S1130420000000007F3F9FE7E3F07FBFDFEFF7F8B6
S113043061B0D80C361861B0D80C060061B0D80C85
S1130440060061B0D80C06007FBFDF8FE7F07F3F66
S11304509F87F7F8603C1800301860361800301891
S11304606033180030186031980C36186030DFEFB4
S1130470F7F860305FEFE3F00000000000000000D8
S1130480000000000000000000003FFC007FFE00B0
S1130490FFFF00FFFF00F00F00F00F00F00F00F06F
S11304A00F00F00F00F00F00F00F00F00F00F00F3E
S11304B000F00F00F00F00F00F00F00F00F00F003D
S11304C0F00F00F00F00FFFF00FFFF007FFE003F72
S11304D0FC0003F00007F0000FF0000FF0000FF035
S11304E0000FF0000FF00001F00001F00001F00037
S11304F001F00001F00001F00001F00001F0000142
S1130500F00001F00001F00001F00001F0000FFE26
S1130510000FFE000FFE000FFE003FFC007FFE00F8
S1130520FFFF00FFFF00F00F00F00F00000F0000BE
S11305300F00000F00000F003FFF007FFF00FFFED1
S113054000FFFC00F00000F00000F00000F00000EC
S1130550F00000F00000FFFF00FFFF007FFF003FFE
S1130560FF003FFC007FFE00FFFF00FFFF00F00FD5
S113057000F00F00000F00000F00000F00000F003C
S11305801FFF001FFF001FFF001FFF00000F0000E0
S11305900F00000F00000F00F00F00F00F00FFFF2E
S11305A000FFFF007FFE003FFC00007C0000FC0019
S11305B000FC0001FC0003FC0003FC0007FC000F2E
S11305C0FC000FBC001F3C003F3C003E3C007C3C58
S11305D000FC3C00F83C00FFFF00FFFF00FFFF00B1
S11305E0FFFF00003C00003C00003C00003C000019
S11305F03C00FFFF00FFFF00FFFF00FFFF00F000D3
S113060000F00000F00000F00000FFFC00FFFE001E
S11306107FFF003FFF00000F00000F00000F0000ED
S11306200F00000F00F00F00F00F00F00F00FFFFAD
S113063000FFFF007FFE003FFC003FFC007FFE0048
S1130640FFFF00FFFF00F00F00F00F00F00000F0CC
S11306500000F00000F00000FFFC00FFFE00FFFFC0
S113066000FFFF00F00F00F00F00F00F00F00F008C
S1130670F00F00F00F00FFFF00FFFF007FFE003FC0
S1130680FC00FFFF00FFFF00FFFF00FFFF00F01F63
S113069000F01F00F03F00003E00003E00007C0020
S11306A0007C0000FC0000F80000F80001F00001EC
S11306B0F00003F00003E00003E00007C00007C0FF
S11306C0000FC0000F80000F80003FFC007FFE0081
S11306D0FFFF00FFFF00F00F00F00F00F00F00F02D
S11306E00F00F00F00F00F007FFE003FFC003FFC06
S11306F0007FFE00F00F00F00F00F00F00F00F007D
S1130700F00F00F00F00FFFF00FFFF007FFE003F2F
S1130710FC003FFC007FFE00FFFF00FFFF00F00F26
S113072000F00F00F00F00F00F00F00F00F00F00CA
S1130730FFFF00FFFF007FFF003FFF00000F0000EE
S11307400F00000F00F00F00F00F00F00F00FFFF8C
S113075000FFFF007FFE003FFC00000000000000DF
S11307600000000000001F986C183FD86E1830D8A5
S11307706F1830D86F1830D86F9830D86D983FD82C
S11307806DD83F986CD83C186CD836186C783318F0
S11307906C7831986C3830DFEC38304FCC3800004E
S11307A00000000000000000000000000000000045
S11307B00000000000000000000000000000000035
S11307C00000000000000000000000000000000025
S11307D00000000000000000000000000000000015
S11307E0000000007F9F9FE7E6007FBFDFEFF60079
S11307F00C30C30C36000C30C30C36000C30C30C68
S113080036000C30C30C36000C30C30FF6000C302D
S1130810C30FF6000C30C30C36000C30C30C36008A
S11308200C30C30C36000C30C30C36000C3FC30C28
S113083037F80C1F830C37F800000000000000009C
S113084000000000000000000000000000000000A4
S11308500000000000000000000000000000000094
S11308600000000000000000000000000000000084
S11308700000000000000000000000000000000074
S11308800000000000000000000000000000000064
S1130890000000000000000030CFCC33F1F830DF5E
S11308A0EC37FBFC30D86C361B0C30D86C361B0094
S11308B030D86C361B0030D86C361B003FD86C37F0
S11308C0FBF83FD86C37F1FC30D86C37800C30D84B
S11308D06C36C00C30D86C36600C30D86C36330CA7
S11308E030DFEFF61BFC30CFC7E609F8000000004C
S11308F000000000000000000000000000000000F4
S113090000000000000000000000000000000000E3
S113091000000000000000000000000000000000D3
S113092000000000000000000000000000000000C3
S113093000000000000000000000000000000000B3
S113094000000000000000000000000000000000A3
S113095000003F1FCFCC37F9F9FE7FBFDFEC37FB38
S1130960FDFE61B0186C30C30D806030186C30C36C
S113097001806030186C30C301806030186C30C363
S113098001807F3F1FEC30C301F83FBF1FCE70C30F
S113099001F801B01E0E70C3018001B01B07E0C353
S11309A0018001B01987E0C3018061B018C3C0C3DE
S11309B00D807FBFD863C7FBFDFE3F1FD82187F999
S11309C0F9FE00000000000000000000000000002C
S11309D00000000000000000000000000000000013
S11309E00000000000000000000000000000000003
S11309F000000000000000000000000000000000F3
S1130A0000000000000000000000000000000000E2
S1130A1000000000000000000000000000000000D2
S1130A200000000000000000000007FFFF80001F1E
S1130A30FFFFE0003FFFFFF0007FFFFFF8007FFFB4
S1130A40FFF800FFFFFFFC00FFFFFFFC00FFFFFFBC
S1130A50FC00FFE01FFC00FFC00FFC00FF8007FC50
S1130A6000FF8007FC00FF8007FC00FF8007FC00FC
S1130A70FF8007FC00FF8007FC00FF8007FC00FFED
S1130A808007FC00FF8007FC00FF8007FC00FF805C
S1130A9007FC00FF8007FC00FF8007FC00FF8007C5
S1130AA0FC00FF8007FC00FF8007FC00FF8007FCC0
S1130AB000FF8007FC00FF8007FC00FF8007FC00AC
S1130AC0FF8007FC00FF8007FC00FF8007FC00FF9D
S1130AD08007FC00FF8007FC00FF8007FC00FF800C
S1130AE007FC00FF8007FC00FF8007FC00FFC00F2D
S1130AF0FC00FFE01FFC00FFFFFFFC00FFFFFFFC0A
S1130B0000FFFFFFFC007FFFFFF8007FFFFFF800FE
S1130B103FFFFFF0001FFFFFE00007FFFF80000022
S1130B2003FE00000007FE0000000FFE0000000F9F
S1130B30FE0000001FFE0000003FFE0000007FFEDC
S1130B40000000FFFE000001FFFE000003FFFE00A6
S1130B500007FFFE000007FFFE000007FFFE000085
S1130B6007FFFE000007FBFE000007F3FE0000077E
S1130B70E3FE000007C3FE00000783FE0000070336
S1130B80FE00000003FE00000003FE00000003FE60
S1130B9000000003FE00000003FE00000003FE004E
S1130BA0000003FE00000003FE00000003FE00003E
S1130BB00003FE00000003FE00000003FE0000002E
S1130BC003FE00000003FE00000003FE000000031B
S1130BD0FE00000003FE00000003FE00000003FE10
S1130BE000000003FE00000003FE00000FFFFFFFF3
S1130BF0000FFFFFFF000FFFFFFF000FFFFFFF00CD
S1130C000FFFFFFF000FFFFFFF000FFFFFFF000FAD
S1130C10FFFFFF00000FFF8000003FFFE000007FA8
S1130C20FFF80000FFFFFC0001FFFFFE0003FFFFD1
S1130C30FF0007FFFFFF8007FFFFFFC00FFC03FF5C
S1130C40C00FF801FFE01FF000FFE01FF0007FE09D
S1130C501FF0007FE01FF0007FE01FF0007FE01F27
S1130C60F0007FE0000000FFE0000001FFC0000092
S1130C7003FFC0000007FFC000000FFF8000001F3B
S1130C80FF0000003FFF0000007FFE000000FFFCAB
S1130C90000001FFF8000003FFF0000007FFE00080
S1130CA0000FFFC000001FFF8000003FFF00000096
S1130CB07FFE000000FFFC000001FFF8000003FFBE
S1130CC0F0000007FFE000000FFFC000001FFF80DE
S1130CD000001FFF0000003FFE0000003FFC00007A
S1130CE0003FFFFFFFE03FFFFFFFE03FFFFFFFE0AC
S1130CF03FFFFFFFE03FFFFFFFE03FFFFFFFE03F5D
S1130D00FFFFFFE03FFFFFFFE0003FFFC00000FFE9
S1130D10FFF00001FFFFF80003FFFFFE0007FFFFE5
S1130D20FF000FFFFFFF800FFFFFFFC00FF001FF69
S1130D30C00FC000FFC00FC0007FC00FC0007FC045
S1130D400F80003FC00000003FC00000003FC00013
S1130D5000003FC00000003FC00000007FC0000052
S1130D60007FC0000000FFC0000003FFC0003FFF81
S1130D70FF80007FFFFF00007FFFFC00007FFFF08B
S1130D8000007FFFFF00007FFFFF80007FFFFFC0A8
S1130D90003FFFFFC0000003FFC0000001FFC000D0
S1130DA000007FC00000007FC00000003FC00000C2
S1130DB0003FC00000003FC00000003FC000000032
S1130DC03FC00F80003FC00FC0007FC00FC0007F36
S1130DD0C00FC000FFC00FF001FFC00FFFFFFF8076
S1130DE00FFFFFFF0007FFFFFF0003FFFFFE0001EF
S1130DF0FFFFFC0000FFFFF000003FFFC000000009
S1130E0003FE00000007FE0000000FFE0000001FAC
S1130E10FE0000003FFE0000007FFE000000FFFE19
S1130E20000001FFFE000003FFFE000007FFFE00BC
S1130E30000FFFFE00001FFDFE00003FF9FE000052
S1130E407FF1FE0000FFE1FE0001FFC1FE0003FF91
S1130E5081FE0007FF01FE000FFE01FE001FFC01E2
S1130E60FE003FF801FE007FF001FE00FFE001FEFE
S1130E7000FFC001FE00FFFFFFFFE0FFFFFFFFE0F8
S1130E80FFFFFFFFE0FFFFFFFFE0FFFFFFFFE0FFCB
S1130E90FFFFFFE0FFFFFFFFE0000001FE00000096
S1130EA001FE00000001FE00000001FE0000000140
S1130EB0FE00000001FE00000001FE00000001FE33
S1130EC000000001FE00000001FE00000001FE0021
S1130ED0000001FE00000001FE00000001FE000011
S1130EE00001FE00000001FE00000001FE00000001
S1130EF001FE001FFFFFFFC03FFFFFFFC03FFFFFDA
S1130F00FFC03FFFFFFFC03FFFFFFFC03FFFFFFFEA
S1130F10C03FFFFFFFC03FFFFFFFC03FFFFFFFC019
S1130F203FE00000003FE00000003FE00000003F21
S1130F30E00000003FE00000003FE00000003FE070
S1130F400000003FE00000003FE3FFFC003FE7FF3C
S1130F50FE003FEFFFFF003FFFFFFF803FFFFFFF6B
S1130F60C03FFFFFFFE03FFFFFFFE03FFFFFFFF059
S1130F703FFC007FF03FF0003FF83FE0001FF80027
S1130F8000000FF800000007F800000007F8000058
S1130F900007F800000007F800000007F800000050
S1130FA007F83FE00007F83FE00007F83FE0000FD4
S1130FB0F83FF0001FF83FF0003FF83FF8007FF8DB
S1130FC03FFFFFFFF03FFFFFFFF03FFFFFFFE01F8A
S1130FD0FFFFFFC00FFFFFFF8007FFFFFF0003FFBE
S1130FE0FFFE0001FFFFFC0001FFFF800003FFFF85
S1130FF0E0000FFFFFF8001FFFFFFC003FFFFFFEB4
S1131000003FFFFFFF007FFFFFFF007FFFFFFF00A8
S1131010FFF003FF00FFE001FF00FFC001FF00FF3E
S11310208000FF00FF80007F00FF80007F00FF80C2
S1131030000000FF80000000FF80000000FF80002F
S11310400000FF80000000FF80000000FF9FFE0002
S113105000FFBFFF8000FFFFFFE000FFFFFFF00085
S1131060FFFFFFF800FFFFFFFC00FFFFFFFE00FF94
S1131070FFFFFE00FFFFFFFF00FFE003FF00FFC0D4
S113108001FF00FFC001FF00FF8000FF00FF8000A0
S1131090FF00FF8000FF00FF8000FF00FF8000FFD3
S11310A000FF8000FF00FF8001FF00FFC001FF0080
S11310B0FFE003FF00FFFFFFFF00FFFFFFFF00FF54
S11310C0FFFFFF007FFFFFFE007FFFFFFE003FFFEB
S11310D0FFFC001FFFFFF8000FFFFFF0003FFFFFC2
S11310E0FF803FFFFFFF803FFFFFFF803FFFFFFFC9
S11310F0803FFFFFFF803FFFFFFF803FFFFFFF8038
S11311003FFFFFFF803FFFFFFF80000007FF8000DD
S11311100007FF80000007FF8000000FFF000000B1
S11311200FFF0000001FFE0000001FFE0000001F54
S1131130FE0000003FFC0000003FFC0000007FF8C0
S11311400000007FF80000007FF8000000FFF000BE
S11311500000FFF0000001FFE0000001FFE00000DC
S113116001FFE0000003FFC0000003FFC000000710
S1131170FF80000007FF80000007FF8000000FFFD2
S11311800000000FFF0000001FFE0000001FFE0013
S113119000001FFE0000003FFC0000003FFC0000B8
S11311A0007FF80000007FF80000007FF8000000D6
S11311B0FFF0000000FFF0000001FFE0000001FF6D
S11311C0E0000001FFE0000003FFC0000003FFC0D7
S11311D0000001FFFFC00007FFFFF0000FFFFFF852
S11311E0001FFFFFFC003FFFFFFE007FFFFFFF002B
S11311F07FFFFFFF007FFFFFFF00FFFFFFFF80FF78
S1131200E003FF80FFC001FF80FF8000FF80FF003C
S1131210007F80FF00007F80FF00007F80FF0000D0
S11312207F80FF00007F80FF00007F80FF8000FF41
S113123080FFC001FF80FFE003FF807FFFFFFF000E
S11312407FFFFFFF003FFFFFFE001FFFFFFC003F8B
S1131250FFFFFE007FFFFFFF007FFFFFFF00FFFF98
S1131260FFFF80FFE003FF80FFC001FF80FF8000DD
S1131270FF80FF00007F80FF00007F80FF00007F71
S113128080FF00007F80FF00007F80FF00007F80E0
S1131290FF8000FF80FFC001FF80FFE003FF807F2D
S11312A0FFFFFF007FFFFFFF007FFFFFFF003FFF07
S11312B0FFFE001FFFFFFC000FFFFFF80007FFFF0A
S11312C0F00001FFFFC00007FFFF80001FFFFFE0E9
S11312D0003FFFFFF0007FFFFFF8007FFFFFF800F3
S11312E0FFFFFFFC00FFFFFFFC00FFFFFFFC00FF10
S11312F0E01FFC00FFC00FFC00FF8007FC00FF8024
S113130007FC00FF8007FC00FF8007FC00FF80074C
S1131310FC00FF8007FC00FF8007FC00FFC00FFCFF
S113132000FFE01FFC00FFFFFFFC00FFFFFFFC00CD
S1131330FFFFFFFC007FFFFFFC007FFFFFFC003F7F
S1131340FFFFFC001FFFFFFC0007FFFFFC00000085
S113135007FC00000007FC00000007FC0000000779
S1131360FC00000007FC00000007FC00000007FC74
S113137000000007FC00FF8007FC00FF8007FC0062
S1131380FF8007FC00FF8007FC00FFC00FFC00FF8C
S1131390E01FFC00FFFFFFFC00FFFFFFFC00FFFF5E
S11313A0FFFC007FFFFFF8007FFFFFF8003FFFFF17
S11313B0F0001FFFFFE00007FFFF800001FFFF8038
S11313C00003FFFFE0000FFFFFF8001FFFFFFC001A
S11313D03FFFFFFE003FFFFFFF007FFFFFFF007F97
S11313E0FFFFFF00FFF003FF00FFE001FF00FFC06D
S11313F001FF00FF8000FF00FF80007F00FF8000EE
S11314007F00FF80000000FF80000000FF800000DC
S113141000FF80000000FF80000000FF800000004B
S1131420FF9FFE0000FFBFFF8000FFFFFFE000FF03
S1131430FFFFF000FFFFFFF800FFFFFFFC00FFFFCE
S1131440FFFE00FFFFFFFE00FFFFFFFF00FFE003C2
S1131450FF00FFC001FF00FFC001FF00FF8000FF8D
S113146000FF8000FF00FF8000FF00FF8000FF00FE
S1131470FF8000FF00FF8000FF00FF8001FF00FFEE
S1131480C001FF00FFE003FF00FFFFFFFF00FFFFBD
S1131490FFFF00FFFFFFFF007FFFFFFE007FFFFF56
S11314A0FE003FFFFFFC001FFFFFF8000FFFFFF0EF
S11314B0001FFFFFFFC03FFFFFFFC03FFFFFFFC054
S11314C03FFFFFFFC03FFFFFFFC03FFFFFFFC03FE5
S11314D0FFFFFFC03FFFFFFFC03FFFFFFFC03FE034
S11314E00000003FE00000003FE00000003FE0009B
S11314F000003FE00000003FE00000003FE000008B
S1131500003FE00000003FE3FFFC003FE7FFFE0078
S11315103FEFFFFF003FFFFFFF803FFFFFFFC03FA4
S1131520FFFFFFE03FFFFFFFE03FFFFFFFF03FFC57
S1131530007FF03FF0003FF83FE0001FF80000009C
S11315400FF800000007F800000007F8000000078B
S1131550F800000007F800000007F800000007F892
S11315603FE00007F83FE00007F83FE0000FF83FD6
S1131570F0001FF83FF0003FF83FF8007FF83FFF0E
S1131580FFFFF03FFFFFFFF03FFFFFFFE01FFFFF04
S1131590FFC00FFFFFFF8007FFFFFF0003FFFFFEF9
S11315A00001FFFFFC00000003FE00000007FE0036
S11315B000000FFE0000001FFE0000003FFE0000C0
S11315C0007FFE000000FFFE000001FFFE0000039C
S11315D0FFFE000007FFFE00000FFFFE00001FFDDE
S11315E0FE00003FF9FE00007FF1FE0000FFE1FE77
S11315F00001FFC1FE0003FF81FE0007FF01FE00A2
S11316000FFE01FE001FFC01FE003FF801FE007FFB
S1131610F001FE00FFE001FE00FFC001FE00FFFF3D
S1131620FFFFE0FFFFFFFFE0FFFFFFFFE0FFFFFF23
S1131630FFE0FFFFFFFFE0FFFFFFFFE0FFFFFFFF13
S1131640E0000001FE00000001FE00000001FE00B9
S1131650000001FE00000001FE00000001FE000089
S11316600001FE00000001FE00000001FE00000079
S113167001FE00000001FE00000001FE0000000168
S1131680FE00000001FE00000001FE00000001FE5B
S113169000000001FE00000001FE00003FFFC0004A
S11316A000FFFFF00001FFFFF80003FFFFFE00074B
S11316B0FFFFFF000FFFFFFF800FFFFFFFC00FF0D2
S11316C001FFC00FC000FFC00FC0007FC00FC000EB
S11316D07FC00F80003FC00000003FC00000003FFB
S11316E0C00000003FC00000003FC00000007FC0F9
S11316F00000007FC0000000FFC0000003FFC00026
S11317003FFFFF80007FFFFF00007FFFFC00007FA2
S1131710FFF000007FFFFF00007FFFFF80007FFFDE
S1131720FFC0003FFFFFC0000003FFC0000001FF37
S1131730C00000007FC00000007FC00000003FC068
S11317400000003FC00000003FC00000003FC00098
S113175000003FC00F80003FC00FC0007FC00FC01B
S1131760007FC00FC000FFC00FF001FFC00FFFFFDC
S1131770FF800FFFFFFF0007FFFFFF0003FFFFFED7
S11317800001FFFFFC0000FFFFF000003FFFC0006E
S1131790000FFF8000003FFFE000007FFFF8000023
S11317A0FFFFFC0001FFFFFE0003FFFFFF0007FF38
S11317B0FFFF8007FFFFFFC00FFC03FFC00FF8010E
S11317C0FFE01FF000FFE01FF0007FE01FF0007F4C
S11317D0E01FF0007FE01FF0007FE01FF0007FE0DB
S11317E0000000FFE0000001FFC0000003FFC00094
S11317F00007FFC000000FFF8000001FFF00000073
S11318003FFF0000007FFE000000FFFC000001FF1E
S1131810F8000003FFF0000007FFE000000FFFC026
S113182000001FFF8000003FFF0000007FFE00005B
S113183000FFFC000001FFF8000003FFF0000007B8
S1131840FFE000000FFFC000001FFF8000001FFF2B
S11318500000003FFE0000003FFC0000003FFFFFCF
S1131860FFE03FFFFFFFE03FFFFFFFE03FFFFFFF21
S1131870E03FFFFFFFE03FFFFFFFE03FFFFFFFE030
S11318803FFFFFFFE007FFFF80001FFFFFE0003F77
S1131890FFFFF0007FFFFFF8007FFFFFF800FFFF6E
S11318A0FFFC00FFFFFFFC00FFFFFFFC00FFE01F49
S11318B0FC00FFC00FFC00FF8007FC00FF8007FC5A
S11318C000FF8007FC00FF8007FC00FF8007FC008E
S11318D0FF8007FC00FF8007FC00FF8007FC00FF7F
S11318E08007FC00FF8007FC00FF8007FC00FF80EE
S11318F007FC00FF8007FC00FF8007FC00FF800757
S1131900FC00FF8007FC00FF8007FC00FF8007FC51
S113191000FF8007FC00FF8007FC00FF8007FC003D
S1131920FF8007FC00FF8007FC00FF8007FC00FF2E
S11319308007FC00FF8007FC00FF8007FC00FF809D
S113194007FC00FF8007FC00FFC00FFC00FFE01F46
S1131950FC00FFFFFFFC00FFFFFFFC00FFFFFFFC9C
S1131960007FFFFFF8007FFFFFF8003FFFFFF0005C
S11319701FFFFFE00007FFFF8000000000000000E1
S113198000000000000000000006000000000F80BE
S11319900000000FC000000017F00000000BFC0066
S11319A0000005F90000003AF38000003D7FBC0010
S11319B0003EBF3800001F5E7800000FAFFC00003F
S11319C007C7FE000003E3FF100007F1FFF0000F5C
S11319D0FAFFE0000FFD7FC0000F3EBF80000F1E26
S11319E05F00000F0E2E00003FFFFFF0003FFFFFDF
S11319F0F0000000000000018000000003E000008F
S1131A000003F000000005FC00000002FF000000DD
S1131A10017E4000000EBCE000000F5FEF00000FED
S1131A20AFCE000007D79E000003EBFF000001F1DA
S1131A30FF800000F8FFC40001FC7FFC0003FEBF30
S1131A40F80007FF5FF0000FCFAFE0000F8797C0EB
S1131A50000F038B80000F000500000F0002000040
S1131A603FFFFFF0003FFFFFF000006000000000B8
S1131A70F800000000FC000000017F00000000BF2F
S1131A80C00000005F900000002F3800000E17FB1C
S1131A90C0000F0BF380000F85E7800007C2FFC072
S1131AA00003E07FE00001F03FF10000F81FFF00B9
S1131AB001FC2FFE0003FE17FC0007FF0BF8000FCC
S1131AC0CF85F0000F8782E0000F038140000F00F4
S1131AD00080000F000000003FFFFFF0003FFFFF09
S1131AE0F000C000000000C000000000C0000000C2
S1131AF000C000000000C7E39C0000CFE7FE000028
S1131B00CC66660000CC66660000CFE6660000CFB7
S1131B10E6660000CC06660000CC066600000C00F9
S1131B200000000C000000000C0000000000000099
S1131B30000000000000000000F000000000E000D1
S1131B40000001C0000000018000000003FC000050
S1131B500007F800000000700000000060000000B2
S1131B6000C0000000018000001C030000003E00D3
S1131B70000000633FF00F00637FF81F8063C0180C
S1131B8031806380186180630038C300631FFF865F
S1131B9000631FFF0C0063000018006300003000A6
S1131BA063FFFFE00063FFFFC0003E000000001C75
S1131BB0000000007E7E7E7E00001819FC000000FC
S1131BC0001C39FE000000001E7986000000001E83
S1131BD07986000000001BD9863D80000019998693
S1131BE07F8000001999FE638000001819FC618051
S1131BF000001819806180000018198061800000BD
S1131C00181980638000001819807F80000018195B
S1131C10803D800000000000000000000000030C74
S1131C200000003E1CE30C7C3E007F3FF30CFE7F73
S1131C3000C333330CC66300C033330C066300C0E7
S1131C403333FC0E6300C03333FC1C6300C03333F6
S1131C500C386300C033330C706300C333330CE0BF
S1131C6063007F33330CFE7F003E33330CFE3E00B3
S1131C7000000000000000000000C6000073873868
S1131C80C60300FFCFFCC63F00CCCCCCFE7F00CC0B
S1131C90CCCCFE6300CCCCCCC66300CCCCCCC67F11
S1131CA000CCCCCCC63F00CCCCCCC603000000009A
S1131CB0000300000000006300000000007F00003B
S1131CC00000003E0071C92F7839888A29284845C8
S1131CD0888A29284845488A292F484548F22928CE
S1131CE0784528822928604528822928504518816A
S1131CF0C6CF4839183F8000781E00007FC00078A6
S1131D001E0000FFE000781E0000FFE000381C0009
S1131D1000E0E0003C3C0000E0E0003C3C0000E06F
S1131D20E0003C3C0000E0E0003C3C0000E0E0005F
S1131D301E787F00E0E1FE1E78FF80FFE3FF1E783F
S1131D40FF80FFE3FF1E78E380FFE3FF0E70E38074
S1131D50FFE3870FF0E380E0E3870FF0E380E0E345
S1131D60870FF0E380E0E3FF07E0FFE0E0E3FE0736
S1131D70E0FFE0E0E1C007E07EE00001C000000019
S1131D80000001FF000000000003FF8000000000CD
S1131D9003FF800000000003838000000000038331
S1131DA080000000000383800000000003FF800027
S1131DB000000003FF800000000001FF000000009D
S1131DC000000000000000001E0000003F000000B2
S1131DD03F0000007380000061800000E1C000004B
S1131DE0C0C00001C0E00001806000039C700003DB
S1131DF03E3000077F3800060718000E071C000C51
S1131E007F8C001C3FCE00181FE6003801F700301D
S1131E1000F30070007B8060003980E00019C0C0CE
S1131E200000C0C00000C0FFFFFFC07FFFFF8000B4
S1131E3011241FBECFEFCDBFDFE7DEBF12E4A0E069
S1131E40B0E4E8ECF8E500E00BBF02C007900D92A7
S1131E50AE34B107D9F722E4AEE4B2E401C01D9276
S1131E60AE3CB207E1F70E94FD260C94622C0C9460
S1131E700000E0E4F4E020812D7F208320812160B4
S1131E802083BC0180E090E00E946F2820E030E0D5
S1131E9040E851E40E9426299B01AC0160E07BE10B
S1131EA087EB9EE40E94C72720E030E040E05FE338
S1131EB00E9456270E944028E0E2F8E0608771877C
S1131EC08681806C868308959091240895FFFCCFC9
S1131ED08093220808950F931F93CF93DF938C016F
S1131EE0C0E0D0E007C0F801EC0FFD1F80810E9424
S1131EF0640F2196F80101900020E9F73197E01B67
S1131F00F10BCE17DF0778F38AE00E94640FDF91AC
S1131F10CF911F910F910895E0E0F4E080818068F3
S1131F208083A4E0B4E08C9180688C93808180618C
S1131F308083808180648083E0E4F9E08081806331
S1131F4080838081816080838C9180688C930895E4
S1131F5080934409809143098823E4F70895DC01C0
S1131F6020E030E00CC0FD01E20FF31F908190935C
S1131F704409909143099923E4F72F5F3F4F462F7B
S1131F8050E0241735077CF30895E0E0F9E0808100
S1131F908F7E80838081837F808380818D7F808317
S1131FA00895E0E0F9E087E6868381E08583838114
S1131FB08A6083838381816083830895CF93DF93D1
S1131FC0C82FD62F809105098370833089F482E568
S1131FD090E40E946B0F20E63AEE01C09C018091D0
S1131FE005098370833021F4C9010197232BB1F7CC
S1131FF085E080930509DD2341F08C2F90E0880F64
S1132000991F81608093070904C08C2F880F8093E7
S1132010070980E69AEE2091050924FF06C0209165
S1132020050926FD02C00197B1F7892B21F48CE53F
S113203090E40E946B0F8091050982FF04C084E63E
S113204090E40E946B0FDF91CF91089585E880930F
S1132050A000E0E0F6E081E082838083089581E0DF
S113206080930A0608958093C642809308060E94CE
S11320702F1080910D0680FFFCCF80911006909167
S11320801106089580E895E20E94390F0E94C50F59
S11320900E94D10F61E088E70E94DE0F0895CF927D
S11320A0DF92EF92FF92CF93DF9385E10E9433108A
S11320B06C01E12CF12CC0E0D0E00CC085E10E9461
S11320C03310C80ED91EE11CF11CF694E794D79482
S11320D0C7942196C233D1058CF3C701B6010E947F
S11320E06F2823E333E343E550E40E94262920E0EC
S11320F030E040E859E30E94262920E030E040E443
S11321005FE30E94C72720E030E040E05FE30E94E5
S1132110552729E838E848E85EE30E94C72720E00D
S113212030E0A9010E945627DF91CF91FF90EF90F4
S1132130DF90CF9008950E944F100895CF92DF92C0
S1132140EF92FF921F93CF93DF93182F0E949B105F
S11321506B017C01C0E0D0E011C00E949B109B0188
S1132160AC01C701B6010E94562720E030E040E0F0
S11321705FE30E9426296B017C012196812F90E068
S11321800197C817D9074CF32FE03CED4EE452E415
S1132190C701B6010E942629DF91CF911F91FF90BC
S11321A0EF90DF90CF900895E0E0F4E080818068C4
S11321B08083E0E2F4E0808180618083E0E4F4E005
S11321C08081806280830895CF93DF93E0E2F4E01E
S11321D0248120612483C0E0D4E02C812F772C83D8
S11321E00E94AF0F8C8180688C83DF91CF9108951A
S11321F0CF93DF93E0E2F4E0948190619483C0E0B4
S1132200D4E09C819F779C830E94A80F8C818F7758
S11322108C83DF91CF9108950F931F93CF93DF9316
S1132220C0E2D4E09C819F7E9C8300E014E0F8012E
S113223094819F7794830E94A80FF8018481806819
S113224084838C8180618C83DF91CF911F910F9166
S113225008950F931F93CF93DF93C0E2D4E09C8142
S11322609F7E9C8300E014E0F80194819F7794831F
S11322700E94A80FF8018481806884838C81806126
S11322808C83DF91CF911F910F910895CF93982F55
S11322909F70C82FC295CF70C067892F80660E9437
S11322A029118C2F0E942911CF910895CF93C82F03
S11322B0C295CF70C0618F700E9429118C2F0E942B
S11322C02911CF9108950F931F93CF93DF93062F76
S11322D0122FD8E1D80FC8E1C40F8D2F0E945611D8
S11322E0802F0E94461184EF0E940C118D2F0E94B2
S11322F0291186EF0E940C118C2F0E94291187EF5F
S11323000E940C11812F0E94291188EF0E940C1148
S1132310DF91CF911F910F910895CF93DF932FE910
S11323204FE460E080E00E946311C0E0D0E004C0AC
S113233080E00E94F8102196C11584E6D807C4F302
S1132340DF91CF910895E0E0F4E084818F77848376
S1132350E0E2F4E0848180618483E0E4F4E0848159
S11323608F7D84832FEF88EF95E12150804090404A
S1132370E1F700C000008481806284832FEF8EE93E
S113238094E2215080409040E1F700C0000088EBC7
S11323900E940C1180E10E94291182EE0E940C110E
S11323A02FEF85EA9EE0215080409040E1F700C085
S11323B000008BEE0E940C1181E80E940C118BE44A
S11323C00E940C118BE20E940C1184EC0E940C11EF
S11323D089E80E940C1184E20E940C1182EA0E9496
S11323E00C1181EF0E940C118FE90E94291184E8DD
S11323F00E940C1182EF0E940C1180E00E942911AE
S113240083EF0E940C1182E30E94291180E40E9450
S11324100C1180E50E940C1181ED0E940C1186EDD7
S11324200E940C1188EC0E940C1185E00E940C1192
S113243088ED0E940C110E948D118DEA0E940C11EE
S113244008952F923F924F925F926F927F928F9254
S11324509F92AF92BF92CF92DF92EF92FF920F932F
S11324601F93CF93DF93CDB7DEB76197CDBFDEBFA8
S11324708F836C871A012B87902E2DB73EB72E873A
S11324803F878BEA089F812D112486958A8790E0E7
S1132490DC01AA0FBB1FAD83BE836D01BB0FEE0829
S11324A0FF0800E010E0412C512C320109831A830B
S11324B09D864601570189C0EDB7FEB7E887F987C5
S11324C02DB73EB78D819E81281B390B2DBF3EBF92
S11324D0ADB7BEB71196AB83BC83AD0180E090E08D
S11324E005C0FA01E80FF91F108201968C01092E2C
S11324F0000C220B330B081519052A053B058CF338
S113250060E070E030E020E0ED843DC0F101E40DD6
S1132510F51DF490BFEF4B1A5B0A6B0A7B0A87E048
S113252090E02DC0EF2DF0E0082E02C0F595E79560
S11325300A94E2F7E0FF1DC0E32FF0E0E88BF98B8B
S11325408F01040F151FD801CC90A22FB0E0AA0F61
S1132550BB1FA95EBF4BDC90DC28F801D082E88960
S1132560F9893196E40FF51F10811196AC91A12BD6
S1132570A0832F5F233010F03E5F20E00197992362
S11325808CF66F5F7F4F8E2D86958695869590E0AD
S1132590681779070CF4BACF6C85F9816F0F262F71
S11325A04A853F81430F832F0E9463116D817E8191
S11325B08B819C810E94E410888599858DBF9EBF84
S11325C0A981BA811196A983BA83BB858B2F90E028
S11325D0E981FA81E817F9070CF46ECF2E853F855F
S11325E02DBF3EBF6196CDBFDEBFDF91CF911F915E
S11325F00F91FF90EF90DF90CF90BF90AF909F909E
S11326008F907F906F905F904F903F902F900895A0
S11326102F923F924F925F926F927F928F929F92EE
S1132620AF92BF92CF92DF92EF92FF920F931F93DC
S1132630CF93DF93CDB7DEB76297CDBFDEBFA82EB1
S1132640688B4A01322E2DB73EB7298B3A8B202E48
S1132650269426942694222D30E0A32DB0E00E94E7
S1132660E8299B01AC01AE2DB0E00E94F7292B01B3
S11326703C018BEA089F012D112406950D87802FBC
S113268090E0DC01AA0FBB1FAE87BF87CD01092EE6
S1132690000CAA0BBB0B8F839887A987BA8700E02D
S11326A010E08FC0ADB7BEB7AB87BC87EDB7FEB740
S11326B02F813885E21BF30BEDBFFEBF8DB79EB7AC
S11326C001968D839E83AC0180E090E049825A821A
S11326D06B827C82322D232D2F80388449845A8446
S11326E005C0FA01E80FF91F108201966C01092E4A
S11326F0000CEE08FF08C214D304E404F50488F3C4
S113270049805A806B807C80232E322E60E070E0FA
S113271030E020E03CC0F401E40DF51DD4909FEFBF
S1132720491A590A690A790A87E090E02CC0ED2D0C
S1132730F0E0082E02C0F595E7950A94E2F7E0FF71
S11327401CC0A32FB0E0A983BA837D01E40EF51E5B
S1132750F701B080A22FB0E0AA0FBB1FA95EBF4B48
S1132760CC90CB28C082E981FA813196E40FF51F21
S1132770F0801196AC91AF29A0832F5F233010F025
S11327803E5F20E00197992394F66F5F7F4F822D7F
S113279090E0681779070CF4BECF6889600F262F84
S11327A04D854A0D8A2D0E9463116E857F858D812A
S11327B09E810E94E4102B853C852DBF3EBF0F5F98
S11327C01F4F832D90E0081719070CF46BCF8989EC
S11327D09A898DBF9EBF6296CDBFDEBFDF91CF9138
S11327E01F910F91FF90EF90DF90CF90BF90AF902B
S11327F09F908F907F906F905F904F903F902F901D
S11328000895FF920F931F93CF93DF93F62EC22F59
S1132810002381F0D42FD81B0E946311C0E007C0AD
S11328208FEF0E94F8108FEF0E94F810CF5FCD1742
S1132830B8F313C00E9463110C2F10E00F19110993
S1132840C0E0D0E007C08FEF0E94F81080E00E9443
S1132850F8102196C017D107B0F3DF91CF911F91E3
S11328600F91FF900895FF920F931F93CF93DF93DF
S1132870F62EC22F002381F0D42FD81B0E9463119F
S1132880C0E007C08FEF0E94F8108FEF0E94F8108D
S1132890CF5FCD17B8F313C00E9463110C2F10E063
S11328A00F191109C0E0D0E007C088EF0E94F810AA
S11328B080E00E94F8102196C017D107B0F3DF9191
S11328C0CF911F910F91FF900895DF92EF92FF92A5
S11328D00F931F93CF93DF93F82ED62EE42E022F5F
S11328E0061B842F90E08F19910963E070E00E9429
S11328F09329D62F10E013C0612F6D0D262F4E2D76
S11329008F2D0E946311C0E007C08FEF0E94F81062
S11329108FEF0E94F810CF5FCD17B8F31F5F101729
S113292058F3DF91CF911F910F91FF90EF90DF90BB
S11329300895DF92EF92FF920F931F93CF93DF934B
S1132940F82ED62EE42E022F061BD42FD81B10E00F
S113295013C0612F6D0D262F4E2D8F2D0E946311F4
S1132960C0E007C080E00E94F81080E00E94F810E8
S1132970CF5FCD17B8F31F5F101758F3DF91CF91D6
S11329801F910F91FF90EF90DF900895A0EAB4E0BB
S11329908C91877F8C9353968C9153978160539637
S11329A08C935397E0E8F4E080818D7F8083818964
S11329B08260818B80818B7F808382898260828B1D
S11329C08C918B7F8C9352968C9152978260529605
S11329D08C9380818E7F808380898260808BE0E409
S11329E0F4E0808184608083E0E2F4E080818062AE
S11329F080830895809189428823B9F081E080938F
S1132A007D42809116408F5F80931640843018F089
S1132A1081E080931640809116408150833018F0F5
S1132A2081E080931640109289420895882369F1C9
S1132A30E0E8F4E0848188608483E0E0FAE0808167
S1132A4081608083809155429091564280A791A7DE
S1132A5081E080935B428091A2429091A342A09135
S1132A60A442B091A54280938B4290938C42A09350
S1132A708D42B0938E4280916A428823C1F081E0F6
S1132A8080931440109269420895811110C0E0E8C7
S1132A90F4E08481877F8483E0E0FAE080818160D0
S1132AA0808310A611A610925B421092874208956B
S1132AB0809186428823C9F18FEA90E40E946B0FCB
S1132AC08091874281110AC080915542909156426B
S1132AD08093280A9093290A892B01F51092874242
S1132AE010926D42109271421092704210926142A3
S1132AF010926242109263421092644210926C42AD
S1132B0010926B4210926542109266421092674294
S1132B101092684280E00E94161505C081E08093FF
S1132B2087420E941615109286420895CF92DF9232
S1132B30EF92FF920E949E106B017C016093BE4253
S1132B407093BF428093C0429093C14220E030E032
S1132B50A9010E94C22788234CF41092BE4210920D
S1132B60BF421092C0421092C14216C020E030E031
S1132B7048E454E4C701B6010E942129181664F4FC
S1132B8080E090E0A8E4B4E48093BE429093BF4216
S1132B90A093C042B093C14280911640823049F163
S1132BA0833009F478C0813009F0AAC080E090E055
S1132BB0AAE7B5E48093AA429093AB42A093AC42B7
S1132BC0B093AD4220E030E048EC52E46091BE4264
S1132BD07091BF428091C0429091C1420E942629C7
S1132BE06093AE427093AF428093B0429093B142EF
S1132BF0ACC06091BE427091BF428091C04290913E
S1132C00C14229E134E04EEA5FE30E942629609341
S1132C10BA427093BB428093BC429093BD420F2E44
S1132C20C12CF0E8DF2EFBE3EF2EF5E4FF2EF02DB0
S1132C30C092AA42D092AB42E092AC42F092AD4232
S1132C4024E333EF47E854E40E942129181664F47E
S1132C5084E393EFA7E8B4E48093BA429093BB4231
S1132C60A093BC42B093BD4220E030E048EC52E473
S1132C706091BA427091BB428091BC429091BD4236
S1132C800E9426296093AE427093AF428093B04273
S1132C909093B1425AC06091BE427091BF428091FC
S1132CA0C0429091C14226E73EE64AE55CE30E94B9
S1132CB026296093B6427093B7428093B8429093AA
S1132CC0B9420F2EC12CD12CF8E4EF2EF3E4FF2EE1
S1132CD0F02DC092AA42D092AB42E092AC42F09264
S1132CE0AD4220E030E048EC52E40E942629609393
S1132CF0AE427093AF428093B0429093B14225C0EC
S1132D0081E08093164080E090E0AAE7B5E48093E8
S1132D10AA429093AB42A093AC42B093AD4220E060
S1132D2030E048EC52E46091BE427091BF42809121
S1132D30C0429091C1420E9426296093AE42709392
S1132D40AF428093B0429093B142FF90EF90DF90F6
S1132D50CF9008958091480483FF03C081E080935D
S1132D6072420895E0E4F4E08481806184832FEF6B
S1132D708EE994E2215080409040E1F700C00000C9
S1132D8084818F7E84832FEF8EE994E221508040EA
S1132D909040E1F700C000000E9442100895E0E472
S1132DA0F4E080818F77808387898160878B80813D
S1132DB0877F808383898160838B08950E94CF16E7
S1132DC08091480483FF04C081E080937242089597
S1132DD010927242089580916F428823B1F08091DD
S1132DE0480483FF09C081E080937242E0E2F4E08A
S1132DF084818160848307C010927242E0E2F4E02F
S1132E0084818E7F848310926F42809172428823E2
S1132E1029F0E0E2F4E094819160948308950F93A3
S1132E201F9380917142882309F440C090916D42B0
S1132E3091113CC090916E42911138C090917042B2
S1132E409923A1F190916C42923080F14091A24279
S1132E505091A3426091A4427091A54200916142B5
S1132E60109162422091634230916442401B510BA5
S1132E70620B730B483E534061057105B8F481E061
S1132E800E94161581E080936D4210927142109257
S1132E907042109261421092624210926342109208
S1132EA0644210926C4280938742C2C0882369F1C5
S1132EB090917042992349F190916D42992329F19F
S1132EC080E00E94161510926D4210927142109289
S1132ED070421092614210926242109263421092C8
S1132EE0644210926C421092874280916B42882314
S1132EF009F49EC010926B42109265421092664291
S1132F00109267421092684293C08823A1F1909175
S1132F106D42911130C090916E4291112CC09091EC
S1132F206C42911128C090917042911124C040913B
S1132F30A2425091A3426091A4427091A542009193
S1132F406142109162422091634230916442401B7D
S1132F50510B620B730B493E53406105710558F0E8
S1132F6081E00E94161581E080936E4210926942BE
S1132F70809387425DC090917042992301F1209122
S1132F806E422223E1F020916C422223C1F0882377
S1132F90B1F080E00E94161510926E4210927042B9
S1132FA01092714210926C421092614210926242ED
S1132FB010926342109264421092874239C0811188
S1132FC006C0911104C080916C42882389F18091DC
S1132FD06D4281112DC080916E42811129C0809172
S1132FE0A2429091A342A091A442B091A5424091E3
S1132FF06142509162426091634270916442841BC9
S1133000950BA60BB70B893E9340A105B10580F043
S113301010926D4210926142109262421092634289
S113302010926442109271421092704210926C425B
S11330301F910F9108954F925F926F927F928F929A
S11330409F92AF92BF92CF92DF92EF92FF928091C4
S11330506A42882309F4D8C080916D42811104C06A
S1133060809187428823D1F080916B42811116C0F0
S113307081E080936B428091A2429091A342A091FF
S1133080A442B091A5428093654290936642A09376
S11330906742B093684210926942B6C080916B4215
S11330A08823E1F14091A2425091A3426091A4424D
S11330B07091A542C0906542D0906642E09067420C
S11330C0F09068424C195D096E097F0941345747F5
S11330D06B41710518F180E00E94161510926B4245
S11330E010926542109266421092674210926842B2
S11330F010926D42109261421092624210926342A9
S113310010926442109271421092704210926C427A
S113311081E0809369421092874276C0882309F443
S113312073C0C090A242D090A342E090A442F09019
S1133130A54240906542509066426090674270900C
S11331406842D701C60184199509A609B7098034D4
S11331509747AB41B10508F057C08090AE429090BC
S1133160AF42A090B042B090B142A50194016091E9
S1133170B2427091B3428091B4429091B5420E94A0
S113318055270E9439289B01772324F422273327CB
S1133190261B370BB901330F880B990B0E9471283A
S11331A02091AA423091AB424091AC425091AD4241
S11331B00E94212918166CF4C414D504E604F704FB
S11331C041F0C0926542D0926642E0926742F0922A
S11331D068428091A6429091A742A091A842B091E2
S11331E0A942C81AD90AEA0AFB0A89EEC81683E07A
S11331F0D806E104F10440F08092B2429092B342C6
S1133200A092B442B092B542FF90EF90DF90CF907D
S1133210BF90AF909F908F907F906F905F904F90F2
S1133220089580917142882359F081E00E94161517
S1133230109271421092694281E08093874208950E
S113324080917042882339F080E00E941615109214
S113325070421092874208950E94EB16882359F019
S113326080918A42882319F00E940F1708958111D2
S113327002C00E94111908950E9426100895CF9348
S1133280C0E018C082E00E94331040917E42509109
S11332907F426091804270918142480F591F611DA5
S11332A0711D40937E4250937F426093804270939D
S11332B08142CF5FC43130F32C2F30E040E050E046
S11332C060917E4270917F428091804290918142D0
S11332D00E94A72920937E4230937F4240938042EC
S11332E050938142CA01B9010E946F2823E333E35A
S11332F043E550E40E94262920E036EF4FE157E4ED
S11333000E94C727609382427093834280938442D1
S11333109093854260E070E0CB01CF9108958FEBEC
S11333209DE580931C0B90931D0BE1E1FBE08081F4
S11333308083E5E1FBE0808181608083E0E1FBE064
S113334080818160808308958FEB9DE580932C0BB1
S113335090932D0BE1E2FBE080818083E5E2FBE0CA
S1133360808181608083E0E2FBE0808181608083F2
S113337008950E948F190E94A41908951F920F9214
S11333800FB60F9211240BB60F928F939F93AF93A6
S1133390BF93EF93FF938091160B80FF18C0809129
S11333A0A2429091A342A091A442B091A542019659
S11333B0A11DB11D8093A2429093A342A093A44265
S11333C0B093A542E6E1FBE0808181608083FF91B8
S11333D0EF91BF91AF919F918F910F900BBE0F9082
S11333E00FBE0F901F9018951F920F920FB60F9259
S11333F011240BB60F920F931F932F933F934F9368
S11334005F936F937F938F939F93AF93BF93EF9348
S1133410FF9340919E4250919F426091A0427091CF
S1133420A1424F5F5F4F6F4F7F4F40939E42509337
S11334309F426093A0427093A14280919A429091DE
S11334409B42A0919C42B0919D420196A11DB11D49
S113345080939A4290939B42A0939C42B0939D4246
S1133460009196421091974220919842309199424E
S11334700F5F1F4F2F4F3F4F009396421093974279
S11334802093984230939942493E53406105710517
S113349058F021E02093914210929E4210929F4254
S11334A01092A0421092A142893C9105A105B10558
S11334B058F081E08093904210929A4210929B427D
S11334C010929C4210929D42E6E2FBE08081816072
S11334D08083FF91EF91BF91AF919F918F917F91E5
S11334E06F915F914F913F912F911F910F910F9089
S11334F00BBE0F900FBE0F901F901895109289422B
S113350010926A421092864210928A421092884225
S113351008951092504210925142109252421092C9
S113352053421092544208950F9380918842882305
S113353009F4E7C1809108408F5F8093084086308A
S113354018F081E08093084080910840833009F4AA
S1133550B6C030F4813059F0823009F45CC0ABC19C
S1133560843009F400C1853009F451C1A4C18091AB
S11335708742811104C080915B42882359F0E0E0C6
S1133580FAE08081816080838091114090911240A3
S113359080A791A78EEA90E18093794290937A4232
S11335A080911140909112408093554290935642DD
S11335B080911340811113C080915F4290916042C9
S11335C08093554290935642E0E0FAE08081816016
S11335D0808380915F429091604280A791A70E946E
S11335E0891A81E08093544208E221E340E957E1DB
S11335F068E285E30E94211221E345E858E168E28C
S113360082E40E9421122FE042EE5AE16FE582E447
S11336100E94211273C180918742811104C080915C
S11336205B42882359F0E0E0FAE080818160808386
S113363080910F409091104080A791A78CEC90E16D
S11336408093794290937A4280910F4090911040F8
S1133650809355429093564280911340811113C038
S113366080915F429091604280935542909356427C
S1133670E0E0FAE080818160808380915F429091F4
S1133680604280A791A70E94891A81E080935342E7
S113369008E221E34BE956E168E285E30E94211246
S11336A021E345E858E168E282E40E9421122FE018
S11336B042EE5AE16FE582E40E9421121FC180911B
S11336C08742811104C080915B42882359F0E0E075
S11336D0FAE080818160808380910D4090910E405A
S11336E080A791A78CEC90E18093794290937A42E1
S11336F080910D4090910E40809355429093564294
S113370080911340811113C080915F429091604277
S11337108093554290935642E0E0FAE080818160C4
S1133720808380915F429091604280A791A70E941C
S1133730891A81E08093524208E221E346EA55E186
S113374068E285E30E94211221E345E858E168E23A
S113375082E40E9421122FE042EE5AE16FE582E4F6
S11337600E942112CBC080918742811104C08091B4
S11337705B42882359F0E0E0FAE080818160808335
S113378080910B4090910C4080A791A783E091E138
S11337908093794290937A4280910B4090910C40AF
S11337A0809355429093564280911340811113C0E7
S11337B080915F429091604280935542909356422B
S11337C0E0E0FAE080818160808380915F429091A3
S11337D0604280A791A70E94891A81E08093514298
S11337E008E221E341EB54E168E285E30E942112FF
S11337F021E345E858E168E282E40E9421122FE0C7
S113380042EE5AE16FE582E40E94211277C0809172
S11338108742811104C080915B42882359F0E0E023
S1133820FAE08081816080838091094090910A4010
S113383080A791A786E291E18093794290937A429E
S11338408091094090910A4080935542909356424A
S113385080911340811113C080915F429091604226
S11338608093554290935642E0E0FAE08081816073
S1133870808380915F429091604280A791A70E94CB
S1133880891A81E08093504208E221E34CEB53E132
S113389068E285E30E94211221E345E858E168E2E9
S11338A082E40E9421122FE042EE5AE16FE582E4A5
S11338B00E94211223C08091114090911240809364
S11338C05542909356420E94891A81E08093544253
S11338D008E221E340E957E168E285E30E9421120E
S11338E021E345E858E168E282E40E9421122FE0D6
S11338F042EE5AE16FE582E40E942112109288425E
S1133900FDC0882309F4FAC08091874281110DC05B
S113391080915B42811109C080916A42811105C086
S113392080918A42882309F4E9C0809108408F5F1E
S113393080930840863018F081E08093084080919D
S11339400840833009F451C028F4813051F08230AA
S113395051F1B1C0843009F46AC0853009F489C0DA
S1133960AAC0E0E0FAE08081816080838091114008
S11339709091124080A791A708E221E340E957E122
S113398068E285E30E94211221E345E858E168E2F8
S113399082E40E9421122FE042EE5AE16FE582E4B4
S11339A00E942112A9C0E0E0FAE080818160808356
S11339B080910F409091104080A791A708E221E3E5
S11339C04BE956E168E285E30E94211221E345E8D0
S11339D058E168E282E40E9421122FE042EE5AE1AB
S11339E06FE582E40E94211287C0E0E0FAE0808162
S11339F08160808380910D4090910E4080A791A7B3
S1133A0008E221E346EA55E168E285E30E942112D7
S1133A1021E345E858E168E282E40E9421122FE0A4
S1133A2042EE5AE16FE582E40E94211265C0E0E0B3
S1133A30FAE080818160808380910B4090910C40FA
S1133A4080A791A708E221E341EB54E168E285E312
S1133A500E94211221E345E858E168E282E40E94D1
S1133A6021122FE042EE5AE16FE582E40E94211216
S1133A7043C0E0E0FAE08081816080838091094066
S1133A8090910A4080A791A708E221E34CEB53E10F
S1133A9068E285E30E94211221E345E858E168E2E7
S1133AA082E40E9421122FE042EE5AE16FE582E4A3
S1133AB00E94211221C08091114090911240809364
S1133AC055429093564281E08093544208E221E3A8
S1133AD04BE956E16AE285E30E94211221E345E8BD
S1133AE058E168E282E40E9421122FE042EE5AE19A
S1133AF06FE582E40E942112109288420F9108958A
S1133B000E94FA140E9458150E94941A089581E0A4
S1133B10809378428093774208950E94871D809114
S1133B20C242882321F08091C342811104C00E94C3
S1133B30D4100E94A31108958091154090911640CD
S1133B40891749F081E0809378428093764280938C
S1133B507742909315409091754280916A429817EC
S1133B6029F08093754281E08093144080919142C2
S1133B70882381F081E08093784280918A42811188
S1133B8004C080917342811103C081E08093744228
S1133B901092914280919042882329F081E0809391
S1133BA076421092904208950F932AE044E060E038
S1133BB080E00E94991408E32EE145EF5CE162E3A2
S1133BC08EE10E94211200E328E045EC5CE164E60A
S1133BD08FE10E9421120F9108950F932EE146E088
S1133BE060E080E00E94651401E02EE14FE46EE1A4
S1133BF080E00E9433142DE14FE46DE180E00E94E7
S1133C00331400E022E743E36FE183E30E943314BB
S1133C1001E022E74FE462E780E00E94331423E7E7
S1133C204FE463E780E00E9433140F9108950F93EB
S1133C3000E02EE940E060E080E00E94011401E031
S1133C4020E04FE460E080E00E94331421E04FE480
S1133C5061E080E00E94331400E02EE94FE460E06C
S1133C608FE40E94011401E02FE94FE46FE980E042
S1133C700E9433142EE94FE46EE980E00E9433146D
S1133C800F910895EF92FF920F931F93CF93DF93B9
S1133C90C82FD62F6091BE427091BF428091C0421E
S1133CA09091C1420E9439289B012F3E82E038073F
S1133CB044F01092BE421092BF421092C042109241
S1133CC0C142EAE0F0E0C901BF010E949329182F24
S1133CD0CB01BF010E949329F82EC90164E670E06C
S1133CE00E949329E62E08E221E34AE25AE06D2F6E
S1133CF08C2F0E940813EF2C21E34AE25AE06D2F27
S1133D008DE08C0F0E940813E12E21E34AE25AE071
S1133D106D2F8AE18C0F0E940813809177428823CB
S1133D2051F002E32DE047E75CE16FE58FE10E948B
S1133D30211210927742DF91CF911F910F91FF9042
S1133D40EF900895DF92EF92FF920F931F93CF931A
S1133D50DF93C82FD62F6091BA427091BB428091F5
S1133D60BC429091BD420E9439289B012F3E82E0C3
S1133D70380744F01092BA421092BB421092BC42EF
S1133D801092BD42EAE0F0E0C901BF010E9493290C
S1133D90182FCB01BF010E949329F82EC90164E6B4
S1133DA070E00E949329CB01BF010E949329D82E71
S1133DB0C90168EE73E00E949329E62E08E221E32C
S1133DC04AE25AE06D2F8C2F0E940813ED2C21E358
S1133DD04AE25AE06D2F8CE08C0F0E940813EF2CFE
S1133DE021E34AE25AE06D2F88E18C0F0E94081308
S1133DF0E12E21E34AE25AE06D2F84E28C0F0E9407
S1133E00081380917742882351F009E32DE04CE1B7
S1133E105CE16FE58FE10E94211210927742DF91FD
S1133E20CF911F910F91FF90EF90DF900895EF9243
S1133E30FF920F931F93CF93DF93182FF62E609169
S1133E40B6427091B7428091B8429091B9420E94B3
S1133E503928EB01072E000C880B990B0E9471285E
S1133E602AE037ED4FE151E40E942129181644F469
S1133E701092B6421092B7421092B8421092B942D0
S1133E80CE016AE070E00E949329D62FC82FE12C5E
S1133E9008E221E34AE25AE06F2D812F0E940813C1
S1133EA009E026E044EB5BE165E580E10E94211234
S1133EB0ED2E08E221E34AE25AE06F2D8DE0810FF6
S1133EC00E940813EC2E21E34AE25AE06F2D8AE1A6
S1133ED0810F0E94081380917742882351F009E3EF
S1133EE02EE04AEB5BE16FE58FE10E942112109214
S1133EF07742DF91CF911F910F91FF90EF9008953A
S1133F000F931F93CF93DF93C0E0D0E009C02AE062
S1133F1030E040E050E00E94C929CA01B90121966D
S1133F208B019C01075F1F4F2F4F3F4F033111053A
S1133F302105310560F7CE010196DF91CF911F91E4
S1133F400F9108952F923F924F925F926F927F92BA
S1133F508F929F92AF92BF92CF92DF92EF92FF9295
S1133F600F931F93CF93DF93562EF22E132F442ECD
S1133F70E52E682E712C622F732F842F952F0E94AB
S1133F80801F5C011C0162E070E00E94162A4C0153
S1133F90C12CD12C18C0E601CC0FDD1FC80DD91DD2
S1133FA06F2D712F842D9E2D2AE030E040E050E0EB
S1133FB00E94C92968837983F22E132F442EE52E9B
S1133FC04FEFC41AD40AE5012197CC16DD061CF381
S1133FD0F101E150F048EE0FFF1FE80DF91D8F2DA0
S1133FE0912F80839183E02EF12CAE14BF04B4F59D
S1133FF0B701660F771FC4010E94532B4C010AC0FE
S1134000F501EE0FFF1FE80DF91D108211825FEF1D
S1134010A51AB50AAE14BF049CF3E70121972AEF51
S1134020AE012403C001259F900D1124680E791E52
S113403012C0FE01EE0FFF1FE80DF91DE08008E13C
S113404028E14AE854E0652D862D0E94081356E0C5
S1134050650E711C2197DD2364F71EC02AEFAE01A3
S11340602403C001259F900D1124680E791E12C0EF
S1134070FE01EE0FFF1FE80DF91DE08008E128E1C5
S11340804AE854E0652D862D0E94081356E0650E1B
S1134090711C2197DD2364F7C4010E94CA2ADF91B1
S11340A0CF911F910F91FF90EF90DF90CF90BF9031
S11340B0AF909F908F907F906F905F904F903F90C4
S11340C02F900895DF92EF92FF920F931F93CF9357
S11340D0DF93F82ED62EE42E022F061BD42FD81BE6
S11340E010E013C0612F6D0D262F4E2D8F2D0E94D1
S11340F06311C0E007C080E00E94F81080E00E94D5
S1134100F810CF5FCD17B8F31F5F101758F3DF9186
S1134110CF911F910F91FF90EF90DF900895DF9260
S1134120EF92FF920F931F93CF93DF93F82ED62E27
S1134130E42E022F061BD42FD81B10E013C0612FCE
S11341406D0D262F4E2D8F2D0E946311C0E007C0E8
S11341508FEF0E94F8108FEF0E94F810CF5FCD17F9
S1134160B8F31F5F101758F3DF91CF911F910F9190
S1134170FF90EF90DF9008952DE142E060E080E051
S11341800E948F2008950F9326E946E460E080E0C2
S11341900E9499140E94BC200E94171E0E94ED1DCB
S11341A01092BE421092BF421092C0421092C1427D
S11341B06AE286E00E94421E809111409091124072
S11341C0809355429093564281E08093544208E292
S11341D021E340E957E168E285E30E94211221E3EB
S11341E045E858E168E282E40E9421122FE042EEA1
S11341F05AE16FE582E40E9421122FEF82E597E0F5
S1134200215080409040E1F700C000000F910895D4
S11342100F931F93CF93DF9328EB3EE145EC5DE3CF
S11342206091BE427091BF428091C0429091C14260
S11342300E9426290E944028162F072FC62FD02F10
S113424080910640909107408C179D0788F4CD34E7
S1134250D10510F0CCE4D0E04C2F4E5F2DE162E0AC
S11342608E5F0E948F20C0930640D093074011C0F8
S1134270C817D90770F442E0480F2DE162E082E0EC
S1134280810F0E946220812F902F8093064090938B
S11342900740DF91CF911F910F9108950F930E94D2
S11342A09C1D80917842882389F180911640823048
S11342B099F08330B1F0813019F5809177428823E9
S11342C031F02FE542E36AE282E00E9499146AE247
S11342D086E00E94421E18C06AE282E00E94A21E8A
S11342E013C080917742882331F02FE542E36AE2DC
S11342F082E00E9499146AE286E00E94171F04C0BB
S11343006AE286E00E94421E1092784280917642D0
S1134310882321F00E940821109276428091144053
S11343208823F9F080916A42882371F0E0E2F4E096
S11343308481806284830AE22BE14DE25BE16BE7D6
S11343408CE30E9421120BC0E0E2F4E084818F7DB3
S1134350848326E94DE468E78CE30E949914109263
S1134360144080916A42882309F449C080916942CB
S1134370882309F444C08091924290919342209101
S1134380A2423091A342821B930B9C0122F4222768
S11343903327281B390B293E33408CF190918F42EF
S11343A081E0892780938F42882361F0E0E2F4E082
S11343B084818F7D848326E94DE468E78CE30E9441
S11343C099140DC0E0E2F4E08481806284830AE2FF
S11343D02BE14DE25BE16BE78CE30E9421128091BB
S11343E0A2429091A342A091A442B091A54280938D
S11343F0924290939342A0939442B09395428091B9
S11344007442882309F457C080918A42882309F4AE
S113441042C0E0E4F4E084818460848380914E426D
S113442090914F42019680934E4290934F4203974E
S113443024F010924E4210924F4280914E4290913D
S11344404F428130910571F082309105A1F0892BA2
S1134450D9F408E228E14AE65AE16EE787E00E94CF
S1134460211216C008E228E142EF59E16EE787E025
S11344700E9421120DC008E228E14AE759E16EE7E3
S113448087E00E94211204C010924E4210924F42C3
S1134490109273420EC0E0E4F4E084818B7F848345
S11344A026E94EE168E787E00E94991481E0809351
S11344B073421092744280917C42811104C08091B5
S11344C07B42882341F000E22AE147EC5DE16CE79E
S11344D084E10E9421120F910895E0E0F4E08081CC
S11344E08160808380818260808380898860808B02
S11344F0E0E0FAE080E89CE086A397A310A611A66A
S113450010A211A281818061818381818360818372
S113451080818160808380818260808308959DE9A9
S113452094BF8093001008951F93CF93DF93EC0101
S1134530162F8091021081FDFCCF83E190E00E9450
S11345408F22DC5E188380E090E00E948F22DF914E
S1134550CF911F910895209102100E94482C089534
S1134560AF92BF92CF92DF92EF92FF920F931F937D
S1134570CF93DF9381E090E00E94AB22A82E83E0EA
S113458090E00E94AB2291E0811101C090E09093F1
S1134590C24200E0C12CD12C7601B12C6DC081E067
S11345A00E949E106093BE427093BF428093C042AB
S11345B09093C1428091C742882379F08091C4428C
S11345C09091C54201968093C4429093C542109243
S11345D0C7428DEC90E40E946B0F2091BE42309153
S11345E0BF424091C0425091C142C701B6010E94EE
S11345F0C227811106C08DED90E40E946B0F1F5FEE
S113460005C088EF90E40E946B0F10E0C090BE429A
S1134610D090BF42E090C042F090C142219603C0C6
S1134620C0E0D0E010E0CA30D1050CF4B8CF8091DE
S1134630C4429091C542049714F4163040F00E948D
S1134640B2160F5F1092C4421092C54215C0109268
S1134650C4421092C5421092C24260E081E090E0F0
S11346600E9494226091C24283E090E00E949422CE
S113467000E0BB24B394A12CB11002C0033080F23B
S1134680033088F161E06A0D81E08093C24281E0E9
S113469090E00E9494226091C24283E090E00E94E4
S11346A094228FE295E70197F1F700C00000609132
S11346B08A4282E090E00E94942260916A4286E0FD
S11346C090E00E94942261E085E090E00E949422B0
S11346D08FE295E70197F1F700C0000061E081E403
S11346E090E00E945C2CDF91CF911F910F91FF907D
S11346F0EF90DF90CF90BF90AF90089580E00E943C
S113470016150E94AA160E94D41D0E94B2160E9479
S1134710B0220895209102100E94572C089589E137
S113472090E00E948A2380931140909312408BE181
S113473090E00E948A2380930F40909310408DE173
S113474090E00E948A2380930D4090930E408FE165
S113475090E00E948A2380930B4090930C4081E266
S113476090E00E948A238093094090930A40089520
S11347700E948F2385E090E00E94AB2291E081119A
S113478001C090E09093C34260E085E090E00E9415
S1134790942283E090E00E94AB2291E0811101C059
S11347A090E09093C242992341F082E090E00E940D
S11347B0AB2286E090E00E94AB2208952091021083
S11347C00E94502C0895CF92DF92EF92FF920F93A4
S11347D085E190E00E94DE23611524EA720723E953
S11347E0820726ED920720F021E020937C4202C04C
S11347F010927C420F2EF0E8CF2EFEEEDF2EF6E371
S1134800EF2EF12CF02DA70196010E94A72904E0B8
S11348106BE286E40E94A21F81E190E00E94DE2305
S1134820A70196010E94A72967E686E40E94A21FB9
S11348300F91FF90EF90DF90CF900895AF92BF92C9
S1134840CF92DF92EF92FF920F931F93CF93DF9358
S1134850EC016A017B015C018FEFA81AB80A642F8E
S1134860CE010E9494226D2D8E010E5F1F4FC50153
S11348700E9494226E2D2396C8010E9494226F2DCB
S1134880772788279927CE010E949422DF91CF9120
S11348901F910F91FF90EF90DF90CF90BF90AF905A
S11348A00895CF92DF92EF92FF920F93C090A242AD
S11348B0D090A342E090A442F090A54289C0E0E4E5
S11348C0F4E0808580748087882309F481C0E0E85F
S11348D0F4E0808584708087882309F479C02FEF01
S11348E03DE389E4215030408040E1F700C00000FE
S11348F026E940E560E080E00E94991400E324E1A9
S113490042E154E069E485E00E94211200E42EE1D2
S113491042E253E069E486E10E94211208E12EE1BB
S113492048EC52E069E48AE20E94211200E42EE19C
S113493048ED51E069E482E30E9421122EE148EE41
S113494050E06DE586E00E9421120E947E1A80915B
S11349508942811110C090916A4291110CC09091CA
S11349608642911108C090918A42911104C090919D
S11349708842992361F390918A42992349F11092D4
S11349808A4281110CC090916A42911108C09091A1
S11349908642911104C090918842992391F38091A9
S11349A086428823A9F01092864240E050E0BA0182
S11349B085E190E00E941E2410927C4226E940E5A5
S11349C060E080E00E9499140E9400250E947E1AF3
S11349D08091A2429091A3429601281B390BC901F0
S11349E0813630EF930724F0803A9F400CF467CF70
S11349F00E947E1A0F91FF90EF90DF90CF90089560
S1134A000F9326E946E460E080E00E94991400E4F4
S1134A102EE14AE359E06BE281E00E94211200E3B7
S1134A202EE146E858E06BE287E10E9421122EE174
S1134A3042ED57E067E681E00E94211200E22EE198
S1134A404AE557E067E681E10E94211200E32EE186
S1134A5046E858E067E68CE10E9421120E94E323B5
S1134A600E94512426E940E560E080E00E94991408
S1134A700F910895CF92DF92EF92FF928091A2421C
S1134A809091A342A091A442B091A54240918B423F
S1134A9050918C4260918D4270918E42841B950B93
S1134AA0A60BB70B813C9742A940B10508F444C05A
S1134AB080915B42882309F43FC081E190E00E9429
S1134AC0DE23AB01BC014054584D664F7F4F81E15A
S1134AD090E00E941E2485E190E00E94DE236B0199
S1134AE07C0120ECC20E27E2D21E29E0E21EF11C5A
S1134AF0B701A60185E190E00E941E24C11484EA56
S1134B00D80683E9E80686EDF80620F081E0809374
S1134B107B4202C010927B428091A2429091A342B8
S1134B20A091A442B091A54280938B4290938C4271
S1134B30A0938D42B0938E42FF90EF90DF90CF9080
S1134B4008951F920F920FB60F9211240BB60F9275
S1134B504F935F936F937F938F939F93AF93BF9381
S1134B60EF93FF938091A90482FF12C080918A423F
S1134B70882319F010928A4203C081E080938A420C
S1134B8081E080935D42E0EAF4E08185846081877E
S1134B908091A90483FF58C08091894281111CC06F
S1134BA08091A2429091A342A091A442B091A542C7
S1134BB040915742509158426091594270915A42E3
S1134BC0841B950BA60BB70B8B3F9105A105B10573
S1134BD018F081E0809389428091A80483FF21C06A
S1134BE080915B428823E9F081E080935C4280916C
S1134BF0A2429091A342A091A442B091A542809375
S1134C00574290935842A0935942B0935A4280918C
S1134C10C8429091C94201968093C8429093C94278
S1134C200EC08091A80483FD0AC0109257421092CE
S1134C3058421092594210925A4210925C42E0EA51
S1134C40F4E0818588608187FF91EF91BF91AF91F6
S1134C509F918F917F916F915F914F910F900BBEB8
S1134C600F900FBE0F901F9018951F920F920FB6C2
S1134C700F9211240BB60F922F933F934F935F9390
S1134C806F937F938F939F93AF93BF93EF93FF9310
S1134C908091490488230CF04DC080918A42882376
S1134CA089F18091714281111BC09091480499232C
S1134CB0BCF481E00E9416158091A2429091A34217
S1134CC0A091A442B091A542809361429093624224
S1134CD0A0936342B093644281E08093714225C003
S1134CE0882319F1809148048823FCF080E00E9415
S1134CF0161580916C428F5F80936C4281E08093A3
S1134D00704213C080917142811108C0809148049F
S1134D10882324F481E08093714207C08091480481
S1134D2088231CF081E080937042E0E4F4E0818504
S1134D30806881878091490483FF08C081E0809363
S1134D406F42E0E4F4E0818588608187FF91EF9110
S1134D50BF91AF919F918F917F916F915F914F918F
S1134D603F912F910F900BBE0F900FBE0F901F908D
S1134D7018951F920F920FB60F9211240BB60F9233
S1134D808F93EF93FF938091890481FF0AC081E0A0
S1134D908093864280931340E0E8F4E0818582604A
S1134DA081878091890482FF12C080916A4288239E
S1134DB019F010926A4203C081E080936A4281E054
S1134DC080935E42E0E8F4E081858460818780918D
S1134DD0890480FF08C081E080938842E0E8F4E021
S1134DE0818581608187FF91EF918F910F900BBE38
S1134DF00F900FBE0F901F901895F89495E288EDD0
S1134E0084BF909368000E94B91980E895E20E94DB
S1134E10390FE0E4F4E080818061808384818F7EB7
S1134E208483C0E2D4E08881816088830E946D22FB
S1134E300E948C0F8881816088838C818E7F8C8313
S1134E40E0E8F4E08081886080830E9442100E9440
S1134E50B8230E943C190E94C6140E948D1D0E9412
S1134E60DE16E0E6F4E0808180830E947E232FEF4B
S1134E7082E597E0215080409040E1F700C00000B7
S1134E8078940E9400250E94C32082E30E94961514
S1134E900E94801D0E942C190E943F190E944E21DD
S1134EA00E941B180E943A25F0CF5058BB27AA270E
S1134EB00E946D270C94E7280E94D92838F00E949C
S1134EC0E02820F039F49F3F19F426F40C94D628F6
S1134ED00EF4E095E7FB0C94D028E92F0E94F82803
S1134EE058F3BA17620773078407950720F079F41B
S1134EF0A6F50C941A290EF4E0950B2EBA2FA02DCA
S1134F000B01B90190010C01CA01A0011124FF2772
S1134F10591B99F0593F50F4503E68F11A16F0406D
S1134F20A22F232F342F4427585FF3CF469537956C
S1134F302795A795F0405395C9F77EF41F16BA0B31
S1134F40620B730B840BBAF09150A1F0FF0FBB1FDF
S1134F50661F771F881FC2F70EC0BA0F621F731F28
S1134F60841F48F4879577956795B795F7959E3F85
S1134F7008F0B0CF9395880F08F09927EE0F979516
S1134F80879508950E94AC2808F481E008950E9452
S1134F90DB270C94E7280E94E02858F00E94D928C7
S1134FA040F029F45F3F29F00C94D02851110C945F
S1134FB01B290C94D6280E94F82868F39923B1F38E
S1134FC0552391F3951B550BBB27AA27621773072B
S1134FD0840738F09F5F5F4F220F331F441FAA1FBF
S1134FE0A9F335D00E2E3AF0E0E832D0915050407B
S1134FF0E695001CCAF72BD0FE2F29D0660F771F29
S1135000881FBB1F261737074807AB07B0E809F00E
S1135010BB0B802DBF01FF2793585F4F3AF09E3F93
S1135020510578F00C94D0280C941B295F3FE4F3CD
S1135030983ED4F3869577956795B795F7959F5FD6
S1135040C9F7880F911D9695879597F90895E1E022
S1135050660F771F881FBB1F621773078407BA0781
S113506020F0621B730B840BBA0BEE1F88F7E095DC
S113507008950E9440286894B1110C941B29089546
S11350800E94002988F09F5798F0B92F9927B751AB
S1135090B0F0E1F0660F771F881F991F1AF0BA95D8
S11350A0C9F714C0B13091F00E941A29B1E00895F3
S11350B00C941A29672F782F8827B85F39F0B93FE5
S11350C0CCF3869577956795B395D9F73EF490958B
S11350D08095709561957F4F8F4F9F4F0895E89409
S11350E009C097FB3EF490958095709561957F4F2C
S11350F08F4F9F4F9923A9F0F92F96E9BB279395DA
S1135100F695879577956795B795F111F8CFFAF4E9
S1135110BB0F11F460FF1BC06F5F7F4F8F4F9F4F1A
S113512016C0882311F096E911C0772321F09EE878
S1135130872F762F05C0662371F096E8862F70E0DE
S113514060E02AF09A95660F771F881FDAF7880FB8
S11351509695879597F90895990F0008550FAA0B0E
S1135160E0E8FEEF16161706E807F907C0F0121676
S11351701306E407F50798F0621B730B840B950B79
S113518039F40A2661F0232B242B252B21F40895CE
S11351900A2609F4A140A6958FEF811D811D08956B
S11351A097F99F6780E870E060E008959FEF80ECD6
S11351B0089500240A941616170618060906089579
S11351C000240A9412161306140605060895092EDF
S11351D00394000C11F4882352F0BB0F40F4BF2B4E
S11351E011F460FF04C06F5F7F4F8F4F9F4F08958E
S11351F057FD9058440F551F59F05F3F71F0479584
S1135200880F97FB991F61F09F3F79F08795089568
S1135210121613061406551FF2CF4695F1DF08C087
S1135220161617061806991FF1CF869571056105A4
S113523008940895E894BB2766277727CB0197F94C
S113524008950E94AC2808F48FEF08950E9439292C
S11352500C94E7280E94D92838F00E94E02820F016
S1135260952311F00C94D0280C94D62811240C9476
S11352701B290E94F82870F3959FC1F3950F50E005
S1135280551F629FF001729FBB27F00DB11D639FF4
S1135290AA27F00DB11DAA1F649F6627B00DA11D9A
S11352A0661F829F2227B00DA11D621F739FB00D40
S11352B0A11D621F839FA00D611D221F749F3327B0
S11352C0A00D611D231F849F600D211D822F762F49
S11352D06A2F11249F5750409AF0F1F088234AF026
S11352E0EE0FFF1FBB1F661F771F881F9150504092
S11352F0A9F79E3F510580F00C94D0280C941B29EB
S11353005F3FE4F3983ED4F3869577956795B79518
S1135310F795E7959F5FC1F7FE2B880F911D969532
S1135320879597F9089597FB072E16F4009407D0F4
S113533077FD09D00E94022A07FC05D03EF490951F
S113534081959F4F0895709561957F4F0895A1E2CF
S11353501A2EAA1BBB1BFD010DC0AA1FBB1FEE1FEB
S1135360FF1FA217B307E407F50720F0A21BB30B36
S1135370E40BF50B661F771F881F991F1A9469F7B2
S113538060957095809590959B01AC01BD01CF010E
S11353900895052E97FB1EF400940E94E02957FD02
S11353A007D00E94A72907FC03D04EF40C94E029EF
S11353B050954095309521953F4F4F4F5F4F08953D
S11353C090958095709561957F4F8F4F9F4F08956D
S11353D0A29FB001B39FC001A39F700D811D112432
S11353E0911DB29F700D811D1124911D08950E947D
S11353F0E829A59F900DB49F900DA49F800D911D49
S113540011240895AA1BBB1B51E107C0AA1FBB1F8F
S1135410A617B70710F0A61BB70B881F991F5A953C
S1135420A9F780959095BC01CD0108950F931F9322
S1135430CF93DF93869F8001879F100D969F100D59
S11354401124C8010E94322AEC01009729F0A80116
S113545060E070E00E94412CCE01DF91CF911F915A
S11354600F9108950F931F93CF93DF93823091058B
S113547010F482E090E0E091CC42F091CD4220E043
S113548030E0A0E0B0E0309719F140815181028111
S1135490138148175907C8F08417950769F41097C2
S11354A031F012960C93129713961C9327C0009315
S11354B0CC421093CD4222C02115310519F0421778
S11354C0530718F49A01BD01EF01DF01F801DBCFA6
S11354D021153105F9F0281B390B2430310580F4EE
S11354E08A819B816115710521F0FB01828393837D
S11354F004C08093CC429093CD42FE01329644C0C6
S1135500FE01E20FF31F8193919322503109288306
S113551039833AC02091CA423091CB42232B41F4C3
S113552020910240309103402093CA423093CB42F1
S113553020910040309101402115310541F42DB7EF
S11355403EB74091044050910540241B350BE09137
S1135550CA42F091CB42E217F307A0F42E1B3F0B93
S11355602817390778F0AC014E5F5F4F24173507D1
S113557048F04E0F5F1F4093CA425093CB42819331
S1135580919302C0E0E0F0E0CF01DF91CF911F9151
S11355900F910895CF93DF93009709F481C0FC0124
S11355A0329712821382A091CC42B091CD421097CF
S11355B081F420813181820F931F2091CA4230915E
S11355C0CB422817390751F5E093CA42F093CB42F6
S11355D067C0ED0120E030E0CE17DF0740F44A81D8
S11355E05B819E0141155105F1F0EA01F5CFC283BB
S11355F0D38340815181840F951FC817D90759F46B
S113560088819981840F951F0296808391838A8172
S11356109B81828393832115310529F4E093CC4245
S1135620F093CD423DC0E901EA83FB83499159914E
S1135630C40FD51FEC17FD0761F480819181840F9D
S1135640951F0296E90188839983828193818A83D5
S11356509B83E0E0F0E012968D919C911397009764
S113566019F0FD01DC01F7CF8D919C9111979D01FB
S11356702E5F3F4F820F931F2091CA423091CB423D
S11356802817390769F4309729F41092CC42109204
S1135690CD4202C012821382A093CA42B093CB427D
S11356A0DF91CF9108956F927F928F929F92AF92E4
S11356B0BF92CF92DF92EF92FF920F931F93CF93FB
S11356C0DF93009789F4CB01DF91CF911F910F9164
S11356D0FF90EF90DF90CF90BF90AF909F908F900E
S11356E07F906F900C94322AFC01E60FF71F9C0107
S11356F022503109E217F30708F4A9C0EC01D901DB
S11357000D911C91119706171707B0F0053011057C
S113571008F49BC0C80104978617970708F495C03E
S113572002501109061B170B019311936D937C937F
S1135730CF010E94CA2A89C05B01A01AB10A4C0198
S1135740800E911EA091CC42B091CD42612C712C5F
S1135750E12CF12C109709F446C08D919C9111977E
S1135760A815B905B1F56C0142E0C40ED11CCA14E8
S1135770DB0478F14C018A189B08640142E0C40EF2
S1135780D11C1296BC9012971396AC91B5E0CB162F
S1135790D10440F0B282A38380829182D9016D93B7
S11357A07C9309C00E5F1F4F800F911FF901808306
S11357B09183EB2DFA2FE114F10431F0D701129605
S11357C0ED93FC93139741C0E093CC42F093CD4208
S11357D03CC06816790608F43C017D0112960D90D0
S11357E0BC91A02DB7CF8091CA429091CB4288162C
S11357F09906E1F466167706C8F48091004090910A
S11358000140009741F48DB79EB7409104405091F8
S11358100540841B950BE817F907C8F4E093CA42C6
S1135820F093CB42F901608371830FC0CB010E94D6
S1135830322A7C01009759F0A801BE010E94382C3D
S1135840CE010E94CA2AC70104C0CE0102C080E072
S113585090E0DF91CF911F910F91FF90EF90DF9037
S1135860CF90BF90AF909F908F907F906F9008954E
S1135870FB01DC0102C001900D9241505040D8F769
S11358800895DC0101C06D9341505040E0F7089544
S113589003D0808199270895FC01E050FC4E0895BF
S11358A00E944C2C608171818281938108950E94B1
S11358B04C2C808191810895DC0128ED20933400E3
S10B58C06C930895F894FFCFE6
S11358C80000CE422000030001800C6009B707865F
S11358D806DC0501010101F80007E0001F524946F2
S11358E80057494600434C4B484F4C4400525841DA
S11358F8434B004152424C4F535400425553455276
S1135908520049444C45004F574E455200425553A6
S1135918590049324320627573792E0074696D65A4
S11359286F7574000A2D2D2D2D3E204572726F72ED
S113593820696E2073656E64696E672061646472A1
S11359482E0A004572726F7220696E206461746158
S11359582073656E742E004572726F7220696E2012
S1135968646174612072656369657665642E0050AC
S11359786C61795F2050617573655F627574746FCB
S11359886E20697320707265737365640074696D41
S1135998656F75745F636F756E742B2B0073616D1F
S11359A8655F70726573737572655F726561645F54
S11359B8636F756E742B2B0073616D655F70726510
S11359C873737572655F726561645F636F756E7416
S11359D8203D203000454E544552494E4720494EFB
S11359E82053455454494E47204D454E552E2E2E8E
S11359F82E2E2E2E2E2E2E2E2E2E2E2E2E2E2E2EBB
S1135A082E2E2E2E2E2E2E2E2E2E003230204C50A0
S1135A184D205354415455533A20003330204C50B0
S1135A284D205354415455533A20003430204C509F
S1135A384D205354415455533A20003530204C508E
S1135A484D205354415455533A20003630204C507D
S1135A584D205354415455533A20002424242424DB
S1135A6824242424242424242424242424242424EA
S1135A7824242424242424242424242424242424DA
S1135A8824242424242424242424242424242424CA
S1135A9824242424242424242424242424242424BA
S1135AA824242424242424242424242424242424AA
S1135AB800454550524F4D20555044415445442EBD
S1135AC8204D616A61206161616161616120676182
S1135AD8796161616161616161612E2E2E2E2E2EC4
S1135AE82E2E2E2E00455849542046524F4D2053F1
S1135AF8455454494E53204D454E5500456E7465E2
S1115B087265642050574D206D6F6465000077
S9030000FC
