S017000044635F73756374696F6E5F70756D702E73726563E1
S11300000C9458100C9477100C9477100C9477106F
S11300100C9477100C9477100C9477100C94771040
S11300200C9477100C9477100C9477100C94771030
S11300300C9477100C941B1F0C9477100C9477106D
S11300400C9477100C9477100C9477100C94771010
S11300500C9477100C9477100C9477100C94771000
S11300600C9477100C9477100C9477100C947710F0
S11300700C9477100C9464280C94511F0C947710F2
S11300800C9477100C9477100C943A280C947710F5
S11300900C9477100C9477100C9477100C947710C0
S11300A00C9477100C9477100C9477100C947710B0
S11300B00C9477100C9437290C9477100C947710C7
S11300C00C9477100C9477100C9477100C94771090
S11300D00C9477100C9477100C9477100C94771080
S11300E00C9477100C94771008000000BE922449F9
S11300F0123EABAAAA2ABECDCCCC4C3E0000008056
S1130100BEABAAAAAA3E00000000BF000000803FC8
S11301100000000000084178D3BB4387D1133D1988
S11301200E3CC3BD4282AD2B3E68EC8276BED98FB5
S1130130E1A93E4C80EFFFBE01C4FF7F3F000000F9
S1130140000007634236B79BD8A71A39685618AE21
S1130150BAAB558C1D3CB7CC5763BD6DEDFD753EF8
S1130160F6177231BF000000803F0000000000005D
S1130170000000000000000000000000000000007B
S11301800000FE3F3FDFEFF7F306FF7FBFDFEFF72F
S1130190FB86C36186030C061BC6C36186030C067B
S11301A01BC6C36186030C061BE6C36186030C06EB
S11301B01B66FF7F86030FC7FB76FE7F86030FC790
S11301C0F336C06186030C07833EC06186030C06C8
S11301D0C31EC06186030C06631EC06186030C0641
S11301E0330EC06186030FF61B0EC06186030FF643
S11301F00B060000000000000000000000000000EA
S113020000000000000000000000000000000000EA
S113021000000000000000000000000000000000DA
S113022000000000000000000000000000000000CA
S113023000000000000000000000000000000000BA
S113024000000000000000000000000000000000AA
S1130250000000000000000000000000000000009A
S1130260000000000000000000000000000000008A
S113027000003F1F8FE7E7F9F9807FBFDFEFF7FB4F
S1130280FD8061B0D80C30C30D806030D80C00C341
S11302900D806030D80C00C30D806030D80C00C3D2
S11302A00D807F3FDF8C00C3FD803FBF9F8C00C368
S11302B0FD8001B0180C00C30D8001B0180C00C300
S11302C00D8001B0180C00C30D8061B0180C30C350
S11302D00D807FB01FEFF7FB0DFE3F300FE7E7FB0C
S11302E00DFE0000000000000000000000000000FF
S11302F000000000000000000000000000000000FA
S113030000000000000000000000000000000000E9
S113031000000000000000000000000000000000D9
S113032000000000000000000000000000000000C9
S113033000000000000000000000000000000000B9
S113034000000000000000000000000000000000A9
S11303500000003FD8303FDC30061E30061E300659
S11303601F30061B30061BB00619B00619F006181C
S1130370F00618F00618703FD8703FD8300000001F
S11303800000000000000000000000000000000069
S11303900000000000000000000000000000000059
S11303A00000000000000000000000000000000049
S11303B00000000000000000000000003F9837FB30
S11303C0FCFCC1803FD837FBFDFEE18030D830C053
S11303D06186F18030D830C06186F18030D830C079
S11303E06186F98030D830C06186D9803F9830C0AA
S11303F06186DD803F9830C06186CD8030D830C0C2
S11304006186CF8030D830C06186C78030D830C094
S11304106186C78030D830C06186C3803FDFF0C0BA
S113042061FEC3803F8FE0C060FCC180000000001B
S113043000000000000000000000000000000000B8
S113044000000000000000000000000000000000A8
S11304500000000000000000000000000000000098
S11304600000000000000000000000000000000088
S11304700000000000000000000000000000000078
S11304800000000000000000000000000000000068
S11304900000000000000000000000000000000058
S11304A00000000000007F3F9FE7E3F07FBFDFEF25
S11304B0F7F861B0D80C361861B0D80C060061B0FA
S11304C0D80C060061B0D80C06007FBFDF8FE7F0C0
S11304D07F3F9F87F7F8603C18003018603618009B
S11304E030186033180030186031980C36186030BA
S11304F0DFEFF7F860305FEFE3F00000000000008A
S11305000000000000000000000000003FFC007F2D
S1130510FE00FFFF00FFFF00F00F00F00F00F00FE0
S113052000F00F00F00F00F00F00F00F00F00F00CC
S1130530F00F00F00F00F00F00F00F00F00F00F0CC
S11305400F00F00F00F00F00FFFF00FFFF007FFE21
S1130550003FFC0003F00007F0000FF0000FF00074
S11305600FF0000FF0000FF00001F00001F00001A7
S1130570F00001F00001F00001F00001F00001F0D2
S11305800001F00001F00001F00001F00001F000B2
S11305900FFE000FFE000FFE000FFE003FFC007F69
S11305A0FE00FFFF00FFFF00F00F00F00F00000F40
S11305B000000F00000F00000F003FFF007FFF004E
S11305C0FFFE00FFFC00F00000F00000F00000F06F
S11305D00000F00000F00000FFFF00FFFF007FFFBD
S11305E0003FFF003FFC007FFE00FFFF00FFFF0015
S11305F0F00F00F00F00000F00000F00000F0000CC
S11306000F001FFF001FFF001FFF001FFF00000F50
S113061000000F00000F00000F00F00F00F00F00AB
S1130620FFFF00FFFF007FFE003FFC00007C000096
S1130630FC0000FC0001FC0003FC0003FC0007FCC0
S1130640000FFC000FBC001F3C003F3C003E3C0080
S11306507C3C00FC3C00F83C00FFFF00FFFF00FF77
S1130660FF00FFFF00003C00003C00003C00003C99
S113067000003C00FFFF00FFFF00FFFF00FFFF0042
S1130680F00000F00000F00000F00000FFFC00FFAC
S1130690FE007FFF003FFF00000F00000F00000F6F
S11306A000000F00000F00F00F00F00F00F00F002B
S11306B0FFFF00FFFF007FFE003FFC003FFC007FC8
S11306C0FE00FFFF00FFFF00F00F00F00F00F0003E
S11306D000F00000F00000F00000FFFC00FFFE004E
S11306E0FFFF00FFFF00F00F00F00F00F00F00F01D
S11306F00F00F00F00F00F00FFFF00FFFF007FFE70
S1130700003FFC00FFFF00FFFF00FFFF00FFFF00B2
S1130710F01F00F01F00F03F00003E00003E00000C
S11307207C00007C0000FC0000F80000F80001F0F0
S11307300001F00003F00003E00003E00007C00044
S113074007C0000FC0000F80000F80003FFC007F37
S1130750FE00FFFF00FFFF00F00F00F00F00F00F9E
S113076000F00F00F00F00F00F007FFE003FFC00D0
S11307703FFC007FFE00F00F00F00F00F00F00F0D0
S11307800F00F00F00F00F00FFFF00FFFF007FFEDF
S1130790003FFC003FFC007FFE00FFFF00FFFF0066
S11307A0F00F00F00F00F00F00F00F00F00F00F05A
S11307B00F00FFFF00FFFF007FFF003FFF00000F5F
S11307C000000F00000F00F00F00F00F00F00F000A
S11307D0FFFF00FFFF007FFE003FFC000000000061
S11307E000000000000000001F986C183FD86E182D
S11307F030D86F1830D86F1830D86F9830D86D98BB
S11308003FD86DD83F986CD83C186CD836186C78A3
S113081033186C7831986C3830DFEC38304FCC3882
S113082000000000000000000000000000000000C4
S113083000000000000000000000000000000000B4
S113084000000000000000000000000000000000A4
S11308500000000000000000000000000000000094
S11308600000000000007F9F9FE7E6007FBFDFEFEE
S1130870F6000C30C30C36000C30C30C36000C30C0
S1130880C30C36000C30C30C36000C30C30FF6001A
S11308900C30C30FF6000C30C30C36000C30C30C04
S11308A036000C30C30C36000C30C30C36000C3F41
S11308B0C30C37F80C1F830C37F80000000000004D
S11308C00000000000000000000000000000000024
S11308D00000000000000000000000000000000014
S11308E00000000000000000000000000000000004
S11308F000000000000000000000000000000000F4
S113090000000000000000000000000000000000E3
S11309100000000000000000000030CFCC33F1F8EC
S113092030DFEC37FBFC30D86C361B0C30D86C361F
S11309301B0030D86C361B0030D86C361B003FD8F7
S11309406C37FBF83FD86C37F1FC30D86C37800C2F
S113095030D86C36C00C30D86C36600C30D86C365D
S1130960330C30DFEFF61BFC30CFC7E609F800008C
S11309700000000000000000000000000000000073
S11309800000000000000000000000000000000063
S11309900000000000000000000000000000000053
S11309A00000000000000000000000000000000043
S11309B00000000000000000000000000000000033
S11309C00000000000000000000000000000000023
S11309D0000000003F1FCFCC37F9F9FE7FBFDFECEA
S11309E037FBFDFE61B0186C30C30D806030186CAD
S11309F030C301806030186C30C301806030186CE3
S1130A0030C301807F3F1FEC30C301F83FBF1FCECE
S1130A1070C301F801B01E0E70C3018001B01B0742
S1130A20E0C3018001B01987E0C3018061B018C33D
S1130A30C0C30D807FBFD863C7FBFDFE3F1FD82115
S1130A4087F9F9FE0000000000000000000000002B
S1130A500000000000000000000000000000000092
S1130A600000000000000000000000000000000082
S1130A700000000000000000000000000000000072
S1130A800000000000000000000000000000000062
S1130A900000000000000000000000000000000052
S1130AA00000000000000000000000000000000042
S1130AB0000007F0000FF8000C18000C18000C18C8
S1130AC0000C18000C18000C18000C18000C18006E
S1130AD00C18000FF80007F00000000000000000F0
S1130AE0000000000000C00001C00003C00007C0F7
S1130AF00006C00000C00000C00000C00000C0002C
S1130B0000C00000C0000FF8000FF8000000000053
S1130B10000000000000000001C00007F00007F81A
S1130B20000E18000E180000380000700000E000ED
S1130B3001C0000380000700000FF8000FF8000058
S1130B40000000000000000000000007F0000FF8A3
S1130B50000C180000180000180001F00001F0005B
S1130B600018000018000C18000FF80007F000002F
S1130B700000000000000000000000000000006011
S1130B800000E00001E0000360000660000C60006B
S1130B900FF8000FF8000060000060000060000023
S1130BA06000006000000000000000000000000081
S1130BB00007F0000FF0000C00000C00000C000017
S1130BC00C00000FF00007F80000180000180000E7
S1130BD018000FF8000FF0000000000000000000F3
S1130BE00000000007F0000FF8000E18000C0000D1
S1130BF00C00000C00000FF0000FF8000C18000CA3
S1130C0018000C18000FF80007F0000000000000A6
S1130C10000000000000000FF0000FF8000C1800A6
S1130C200C180000300000700000600000E00000BC
S1130C30C00001C000018000038000070000000024
S1130C400000000000000000000003E00007F000C6
S1130C500E38000C18000C18000C18000FF80007D0
S1130C60F0000C18000C18000C18000E380007F0E7
S1130C700003E0000000000000000000000FF80086
S1130C800FF8000C18000C18000C18000FF8000FD7
S1130C90F8000018000018000018000018000018E0
S1130CA00000180000000000000007FFFF80001F84
S1130CB0FFFFE0003FFFFFF0007FFFFFF8007FFF32
S1130CC0FFF800FFFFFFFC00FFFFFFFC00FFFFFF3A
S1130CD0FC00FFE01FFC00FFC00FFC00FF8007FCCE
S1130CE000FF8007FC00FF8007FC00FF8007FC007A
S1130CF0FF8007FC00FF8007FC00FF8007FC00FF6B
S1130D008007FC00FF8007FC00FF8007FC00FF80D9
S1130D1007FC00FF8007FC00FF8007FC00FF800742
S1130D20FC00FF8007FC00FF8007FC00FF8007FC3D
S1130D3000FF8007FC00FF8007FC00FF8007FC0029
S1130D40FF8007FC00FF8007FC00FF8007FC00FF1A
S1130D508007FC00FF8007FC00FF8007FC00FF8089
S1130D6007FC00FF8007FC00FF8007FC00FFC00FAA
S1130D70FC00FFE01FFC00FFFFFFFC00FFFFFFFC87
S1130D8000FFFFFFFC007FFFFFF8007FFFFFF8007C
S1130D903FFFFFF0001FFFFFE00007FFFF800000A0
S1130DA003FE00000007FE0000000FFE0000000F1D
S1130DB0FE0000001FFE0000003FFE0000007FFE5A
S1130DC0000000FFFE000001FFFE000003FFFE0024
S1130DD00007FFFE000007FFFE000007FFFE000003
S1130DE007FFFE000007FBFE000007F3FE000007FC
S1130DF0E3FE000007C3FE00000783FE00000703B4
S1130E00FE00000003FE00000003FE00000003FEDD
S1130E1000000003FE00000003FE00000003FE00CB
S1130E20000003FE00000003FE00000003FE0000BB
S1130E300003FE00000003FE00000003FE000000AB
S1130E4003FE00000003FE00000003FE0000000398
S1130E50FE00000003FE00000003FE00000003FE8D
S1130E6000000003FE00000003FE00000FFFFFFF70
S1130E70000FFFFFFF000FFFFFFF000FFFFFFF004A
S1130E800FFFFFFF000FFFFFFF000FFFFFFF000F2B
S1130E90FFFFFF00000FFF8000003FFFE000007F26
S1130EA0FFF80000FFFFFC0001FFFFFE0003FFFF4F
S1130EB0FF0007FFFFFF8007FFFFFFC00FFC03FFDA
S1130EC0C00FF801FFE01FF000FFE01FF0007FE01B
S1130ED01FF0007FE01FF0007FE01FF0007FE01FA5
S1130EE0F0007FE0000000FFE0000001FFC0000010
S1130EF003FFC0000007FFC000000FFF8000001FB9
S1130F00FF0000003FFF0000007FFE000000FFFC28
S1130F10000001FFF8000003FFF0000007FFE000FD
S1130F20000FFFC000001FFF8000003FFF00000013
S1130F307FFE000000FFFC000001FFF8000003FF3B
S1130F40F0000007FFE000000FFFC000001FFF805B
S1130F5000001FFF0000003FFE0000003FFC0000F7
S1130F60003FFFFFFFE03FFFFFFFE03FFFFFFFE029
S1130F703FFFFFFFE03FFFFFFFE03FFFFFFFE03FDA
S1130F80FFFFFFE03FFFFFFFE0003FFFC00000FF67
S1130F90FFF00001FFFFF80003FFFFFE0007FFFF63
S1130FA0FF000FFFFFFF800FFFFFFFC00FF001FFE7
S1130FB0C00FC000FFC00FC0007FC00FC0007FC0C3
S1130FC00F80003FC00000003FC00000003FC00091
S1130FD000003FC00000003FC00000007FC00000D0
S1130FE0007FC0000000FFC0000003FFC0003FFFFF
S1130FF0FF80007FFFFF00007FFFFC00007FFFF009
S113100000007FFFFF00007FFFFF80007FFFFFC025
S1131010003FFFFFC0000003FFC0000001FFC0004D
S113102000007FC00000007FC00000003FC000003F
S1131030003FC00000003FC00000003FC0000000AF
S11310403FC00F80003FC00FC0007FC00FC0007FB3
S1131050C00FC000FFC00FF001FFC00FFFFFFF80F3
S11310600FFFFFFF0007FFFFFF0003FFFFFE00016C
S1131070FFFFFC0000FFFFF000003FFFC000000086
S113108003FE00000007FE0000000FFE0000001F2A
S1131090FE0000003FFE0000007FFE000000FFFE97
S11310A0000001FFFE000003FFFE000007FFFE003A
S11310B0000FFFFE00001FFDFE00003FF9FE0000D0
S11310C07FF1FE0000FFE1FE0001FFC1FE0003FF0F
S11310D081FE0007FF01FE000FFE01FE001FFC0160
S11310E0FE003FF801FE007FF001FE00FFE001FE7C
S11310F000FFC001FE00FFFFFFFFE0FFFFFFFFE076
S1131100FFFFFFFFE0FFFFFFFFE0FFFFFFFFE0FF48
S1131110FFFFFFE0FFFFFFFFE0000001FE00000013
S113112001FE00000001FE00000001FE00000001BD
S1131130FE00000001FE00000001FE00000001FEB0
S113114000000001FE00000001FE00000001FE009E
S1131150000001FE00000001FE00000001FE00008E
S11311600001FE00000001FE00000001FE0000007E
S113117001FE001FFFFFFFC03FFFFFFFC03FFFFF57
S1131180FFC03FFFFFFFC03FFFFFFFC03FFFFFFF68
S1131190C03FFFFFFFC03FFFFFFFC03FFFFFFFC097
S11311A03FE00000003FE00000003FE00000003F9F
S11311B0E00000003FE00000003FE00000003FE0EE
S11311C00000003FE00000003FE3FFFC003FE7FFBA
S11311D0FE003FEFFFFF003FFFFFFF803FFFFFFFE9
S11311E0C03FFFFFFFE03FFFFFFFE03FFFFFFFF0D7
S11311F03FFC007FF03FF0003FF83FE0001FF800A5
S113120000000FF800000007F800000007F80000D5
S11312100007F800000007F800000007F8000000CD
S113122007F83FE00007F83FE00007F83FE0000F51
S1131230F83FF0001FF83FF0003FF83FF8007FF858
S11312403FFFFFFFF03FFFFFFFF03FFFFFFFE01F07
S1131250FFFFFFC00FFFFFFF8007FFFFFF0003FF3B
S1131260FFFE0001FFFFFC0001FFFF800003FFFF02
S1131270E0000FFFFFF8001FFFFFFC003FFFFFFE31
S1131280003FFFFFFF007FFFFFFF007FFFFFFF0026
S1131290FFF003FF00FFE001FF00FFC001FF00FFBC
S11312A08000FF00FF80007F00FF80007F00FF8040
S11312B0000000FF80000000FF80000000FF8000AD
S11312C00000FF80000000FF80000000FF9FFE0080
S11312D000FFBFFF8000FFFFFFE000FFFFFFF00003
S11312E0FFFFFFF800FFFFFFFC00FFFFFFFE00FF12
S11312F0FFFFFE00FFFFFFFF00FFE003FF00FFC052
S113130001FF00FFC001FF00FF8000FF00FF80001D
S1131310FF00FF8000FF00FF8000FF00FF8000FF50
S113132000FF8000FF00FF8001FF00FFC001FF00FD
S1131330FFE003FF00FFFFFFFF00FFFFFFFF00FFD1
S1131340FFFFFF007FFFFFFE007FFFFFFE003FFF68
S1131350FFFC001FFFFFF8000FFFFFF0003FFFFF3F
S1131360FF803FFFFFFF803FFFFFFF803FFFFFFF46
S1131370803FFFFFFF803FFFFFFF803FFFFFFF80B5
S11313803FFFFFFF803FFFFFFF80000007FF80005B
S11313900007FF80000007FF8000000FFF0000002F
S11313A00FFF0000001FFE0000001FFE0000001FD2
S11313B0FE0000003FFC0000003FFC0000007FF83E
S11313C00000007FF80000007FF8000000FFF0003C
S11313D00000FFF0000001FFE0000001FFE000005A
S11313E001FFE0000003FFC0000003FFC00000078E
S11313F0FF80000007FF80000007FF8000000FFF50
S11314000000000FFF0000001FFE0000001FFE0090
S113141000001FFE0000003FFC0000003FFC000035
S1131420007FF80000007FF80000007FF800000053
S1131430FFF0000000FFF0000001FFE0000001FFEA
S1131440E0000001FFE0000003FFC0000003FFC054
S1131450000001FFFFC00007FFFFF0000FFFFFF8CF
S1131460001FFFFFFC003FFFFFFE007FFFFFFF00A8
S11314707FFFFFFF007FFFFFFF00FFFFFFFF80FFF5
S1131480E003FF80FFC001FF80FF8000FF80FF00BA
S1131490007F80FF00007F80FF00007F80FF00004E
S11314A07F80FF00007F80FF00007F80FF8000FFBF
S11314B080FFC001FF80FFE003FF807FFFFFFF008C
S11314C07FFFFFFF003FFFFFFE001FFFFFFC003F09
S11314D0FFFFFE007FFFFFFF007FFFFFFF00FFFF16
S11314E0FFFF80FFE003FF80FFC001FF80FF80005B
S11314F0FF80FF00007F80FF00007F80FF00007FEF
S113150080FF00007F80FF00007F80FF00007F805D
S1131510FF8000FF80FFC001FF80FFE003FF807FAA
S1131520FFFFFF007FFFFFFF007FFFFFFF003FFF84
S1131530FFFE001FFFFFFC000FFFFFF80007FFFF87
S1131540F00001FFFFC00007FFFF80001FFFFFE066
S1131550003FFFFFF0007FFFFFF8007FFFFFF80070
S1131560FFFFFFFC00FFFFFFFC00FFFFFFFC00FF8D
S1131570E01FFC00FFC00FFC00FF8007FC00FF80A1
S113158007FC00FF8007FC00FF8007FC00FF8007CA
S1131590FC00FF8007FC00FF8007FC00FFC00FFC7D
S11315A000FFE01FFC00FFFFFFFC00FFFFFFFC004B
S11315B0FFFFFFFC007FFFFFFC007FFFFFFC003FFD
S11315C0FFFFFC001FFFFFFC0007FFFFFC00000003
S11315D007FC00000007FC00000007FC00000007F7
S11315E0FC00000007FC00000007FC00000007FCF2
S11315F000000007FC00FF8007FC00FF8007FC00E0
S1131600FF8007FC00FF8007FC00FFC00FFC00FF09
S1131610E01FFC00FFFFFFFC00FFFFFFFC00FFFFDB
S1131620FFFC007FFFFFF8007FFFFFF8003FFFFF94
S1131630F0001FFFFFE00007FFFF800001FFFF80B5
S11316400003FFFFE0000FFFFFF8001FFFFFFC0097
S11316503FFFFFFE003FFFFFFF007FFFFFFF007F14
S1131660FFFFFF00FFF003FF00FFE001FF00FFC0EA
S113167001FF00FF8000FF00FF80007F00FF80006B
S11316807F00FF80000000FF80000000FF8000005A
S113169000FF80000000FF80000000FF80000000C9
S11316A0FF9FFE0000FFBFFF8000FFFFFFE000FF81
S11316B0FFFFF000FFFFFFF800FFFFFFFC00FFFF4C
S11316C0FFFE00FFFFFFFE00FFFFFFFF00FFE00340
S11316D0FF00FFC001FF00FFC001FF00FF8000FF0B
S11316E000FF8000FF00FF8000FF00FF8000FF007C
S11316F0FF8000FF00FF8000FF00FF8001FF00FF6C
S1131700C001FF00FFE003FF00FFFFFFFF00FFFF3A
S1131710FFFF00FFFFFFFF007FFFFFFE007FFFFFD3
S1131720FE003FFFFFFC001FFFFFF8000FFFFFF06C
S1131730001FFFFFFFC03FFFFFFFC03FFFFFFFC0D1
S11317403FFFFFFFC03FFFFFFFC03FFFFFFFC03F62
S1131750FFFFFFC03FFFFFFFC03FFFFFFFC03FE0B1
S11317600000003FE00000003FE00000003FE00018
S113177000003FE00000003FE00000003FE0000008
S1131780003FE00000003FE3FFFC003FE7FFFE00F6
S11317903FEFFFFF003FFFFFFF803FFFFFFFC03F22
S11317A0FFFFFFE03FFFFFFFE03FFFFFFFF03FFCD5
S11317B0007FF03FF0003FF83FE0001FF80000001A
S11317C00FF800000007F800000007F80000000709
S11317D0F800000007F800000007F800000007F810
S11317E03FE00007F83FE00007F83FE0000FF83F54
S11317F0F0001FF83FF0003FF83FF8007FF83FFF8C
S1131800FFFFF03FFFFFFFF03FFFFFFFE01FFFFF81
S1131810FFC00FFFFFFF8007FFFFFF0003FFFFFE76
S11318200001FFFFFC00000003FE00000007FE00B3
S113183000000FFE0000001FFE0000003FFE00003D
S1131840007FFE000000FFFE000001FFFE00000319
S1131850FFFE000007FFFE00000FFFFE00001FFD5B
S1131860FE00003FF9FE00007FF1FE0000FFE1FEF4
S11318700001FFC1FE0003FF81FE0007FF01FE001F
S11318800FFE01FE001FFC01FE003FF801FE007F79
S1131890F001FE00FFE001FE00FFC001FE00FFFFBB
S11318A0FFFFE0FFFFFFFFE0FFFFFFFFE0FFFFFFA1
S11318B0FFE0FFFFFFFFE0FFFFFFFFE0FFFFFFFF91
S11318C0E0000001FE00000001FE00000001FE0037
S11318D0000001FE00000001FE00000001FE000007
S11318E00001FE00000001FE00000001FE000000F7
S11318F001FE00000001FE00000001FE00000001E6
S1131900FE00000001FE00000001FE00000001FED8
S113191000000001FE00000001FE00003FFFC000C7
S113192000FFFFF00001FFFFF80003FFFFFE0007C8
S1131930FFFFFF000FFFFFFF800FFFFFFFC00FF04F
S113194001FFC00FC000FFC00FC0007FC00FC00068
S11319507FC00F80003FC00000003FC00000003F78
S1131960C00000003FC00000003FC00000007FC076
S11319700000007FC0000000FFC0000003FFC000A3
S11319803FFFFF80007FFFFF00007FFFFC00007F20
S1131990FFF000007FFFFF00007FFFFF80007FFF5C
S11319A0FFC0003FFFFFC0000003FFC0000001FFB5
S11319B0C00000007FC00000007FC00000003FC0E6
S11319C00000003FC00000003FC00000003FC00016
S11319D000003FC00F80003FC00FC0007FC00FC099
S11319E0007FC00FC000FFC00FF001FFC00FFFFF5A
S11319F0FF800FFFFFFF0007FFFFFF0003FFFFFE55
S1131A000001FFFFFC0000FFFFF000003FFFC000EB
S1131A10000FFF8000003FFFE000007FFFF80000A0
S1131A20FFFFFC0001FFFFFE0003FFFFFF0007FFB5
S1131A30FFFF8007FFFFFFC00FFC03FFC00FF8018B
S1131A40FFE01FF000FFE01FF0007FE01FF0007FC9
S1131A50E01FF0007FE01FF0007FE01FF0007FE058
S1131A60000000FFE0000001FFC0000003FFC00011
S1131A700007FFC000000FFF8000001FFF000000F0
S1131A803FFF0000007FFE000000FFFC000001FF9C
S1131A90F8000003FFF0000007FFE000000FFFC0A4
S1131AA000001FFF8000003FFF0000007FFE0000D9
S1131AB000FFFC000001FFF8000003FFF000000736
S1131AC0FFE000000FFFC000001FFF8000001FFFA9
S1131AD00000003FFE0000003FFC0000003FFFFF4D
S1131AE0FFE03FFFFFFFE03FFFFFFFE03FFFFFFF9F
S1131AF0E03FFFFFFFE03FFFFFFFE03FFFFFFFE0AE
S1131B003FFFFFFFE007FFFF80001FFFFFE0003FF4
S1131B10FFFFF0007FFFFFF8007FFFFFF800FFFFEB
S1131B20FFFC00FFFFFFFC00FFFFFFFC00FFE01FC6
S1131B30FC00FFC00FFC00FF8007FC00FF8007FCD7
S1131B4000FF8007FC00FF8007FC00FF8007FC000B
S1131B50FF8007FC00FF8007FC00FF8007FC00FFFC
S1131B608007FC00FF8007FC00FF8007FC00FF806B
S1131B7007FC00FF8007FC00FF8007FC00FF8007D4
S1131B80FC00FF8007FC00FF8007FC00FF8007FCCF
S1131B9000FF8007FC00FF8007FC00FF8007FC00BB
S1131BA0FF8007FC00FF8007FC00FF8007FC00FFAC
S1131BB08007FC00FF8007FC00FF8007FC00FF801B
S1131BC007FC00FF8007FC00FFC00FFC00FFE01FC4
S1131BD0FC00FFFFFFFC00FFFFFFFC00FFFFFFFC1A
S1131BE0007FFFFFF8007FFFFFF8003FFFFFF000DA
S1131BF01FFFFFE00007FFFF80000000000000005F
S1131C0000000000000000000006000000000F803B
S1131C100000000FC000000017F00000000BFC00E3
S1131C20000005F90000003AF38000003D7FBC008D
S1131C30003EBF3800001F5E7800000FAFFC0000BC
S1131C4007C7FE000003E3FF100007F1FFF0000FD9
S1131C50FAFFE0000FFD7FC0000F3EBF80000F1EA3
S1131C605F00000F0E2E00003FFFFFF0003FFFFF5C
S1131C70F0000000000000018000000003E000000C
S1131C800003F000000005FC00000002FF0000005B
S1131C90017E4000000EBCE000000F5FEF00000F6B
S1131CA0AFCE000007D79E000003EBFF000001F158
S1131CB0FF800000F8FFC40001FC7FFC0003FEBFAE
S1131CC0F80007FF5FF0000FCFAFE0000F8797C069
S1131CD0000F038B80000F000500000F00020000BE
S1131CE03FFFFFF0003FFFFFF00000600000000036
S1131CF0F800000000FC000000017F00000000BFAD
S1131D00C00000005F900000002F3800000E17FB99
S1131D10C0000F0BF380000F85E7800007C2FFC0EF
S1131D200003E07FE00001F03FF10000F81FFF0036
S1131D3001FC2FFE0003FE17FC0007FF0BF8000F49
S1131D40CF85F0000F8782E0000F038140000F0071
S1131D500080000F000000003FFFFFF0003FFFFF86
S1131D60F000C000000000C000000000C00000003F
S1131D7000C000000000C7E39C0000CFE7FE0000A5
S1131D80CC66660000CC66660000CFE6660000CF35
S1131D90E6660000CC06660000CC066600000C0077
S1131DA00000000C000000000C0000000000000017
S1131DB0000000000000000000F000000000E0004F
S1131DC0000001C0000000018000000003FC0000CE
S1131DD00007F80000000070000000006000000030
S1131DE000C0000000018000001C030000003E0051
S1131DF0000000633FF00F00637FF81F8063C0188A
S1131E0031806380186180630038C300631FFF86DC
S1131E1000631FFF0C006300001800630000300023
S1131E2063FFFFE00063FFFFC0003E000000001CF2
S1131E30000000007E7E7E7E00001819FC00000079
S1131E40001C39FE000000001E7986000000001E00
S1131E507986000000001BD9863D80000019998610
S1131E607F8000001999FE638000001819FC6180CE
S1131E70000018198061800000181980618000003A
S1131E80181980638000001819807F8000001819D9
S1131E90803D800000000000000000000000030CF2
S1131EA00000003E1CE30C7C3E007F3FF30CFE7FF1
S1131EB000C333330CC66300C033330C066300C065
S1131EC03333FC0E6300C03333FC1C6300C0333374
S1131ED00C386300C033330C706300C333330CE03D
S1131EE063007F33330CFE7F003E33330CFE3E0031
S1131EF000000000000000000000C60000738738E6
S1131F00C60300FFCFFCC63F00CCCCCCFE7F00CC88
S1131F10CCCCFE6300CCCCCCC66300CCCCCCC67F8E
S1131F2000CCCCCCC63F00CCCCCCC6030000000017
S1131F30000300000000006300000000007F0000B8
S1131F400000003E0071C92F7839888A2928484545
S1131F50888A29284845488A292F484548F229284B
S1131F6078452882292860452882292850451881E7
S1131F70C6CF4839183F8000781E00007FC0007823
S1131F801E0000FFE000781E0000FFE000381C0087
S1131F9000E0E0003C3C0000E0E0003C3C0000E0ED
S1131FA0E0003C3C0000E0E0003C3C0000E0E000DD
S1131FB01E787F00E0E1FE1E78FF80FFE3FF1E78BD
S1131FC0FF80FFE3FF1E78E380FFE3FF0E70E380F2
S1131FD0FFE3870FF0E380E0E3870FF0E380E0E3C3
S1131FE0870FF0E380E0E3FF07E0FFE0E0E3FE07B4
S1131FF0E0FFE0E0E1C007E07EE00001C000000097
S1132000000001FF000000000003FF80000000004A
S113201003FF8000000000038380000000000383AE
S113202080000000000383800000000003FF8000A4
S113203000000003FF800000000001FF000000001A
S113204000000000000000001E0000003F0000002F
S11320503F0000007380000061800000E1C00000C8
S1132060C0C00001C0E00001806000039C70000358
S11320703E3000077F3800060718000E071C000CCE
S11320807F8C001C3FCE00181FE6003801F700309B
S113209000F30070007B8060003980E00019C0C04C
S11320A00000C0C00000C0FFFFFFC07FFFFF800032
S11320B011241FBECFEFCDBFDFE7DEBF15E4A0E0E4
S11320C0B0E4E4E0F1E600E00BBF02C007900D923B
S11320D0AC32B107D9F725E4ACE2B5E401C01D92F6
S11320E0A63EB207E1F70E9491290C9480300C942B
S11320F000006150710920E030E00EC0DC01A20F45
S1132100B31F4C91FC01E60FF71F50815C93408391
S11321102F5F3F4F61507109261737077CF30895ED
S1132120CF92DF92EF92FF920F931F93CF93DF939F
S11321308A016901C0E0D0E011C07801EC0EFD1EF7
S11321402AE030E040E050E00E94EC2D605DF701B1
S11321506083622F732F842F952F2196611571054B
S11321608105910551F706C0F801EC0FFD1F80E3CE
S113217080832196CC15DD05BCF3BE01C8010E9405
S11321807910F801EC0FFD1F1082CE01DF91CF9181
S11321901F910F91FF90EF90DF90CF9008958F9251
S11321A09F92AF92BF92CF92DF92EF92FF920F93E2
S11321B01F93CF93DF936B017C018A01E9010E9495
S11321C0D72A4B015C01072E000C880B990B0E9447
S11321D00F2B9B01AC01C701B6010E94F3296B01CF
S11321E07C01B401992024F46627772768197909BA
S11321F0072E000C880B990B20E030E0A8010E9408
S113220090105C01209781F1F801E80FF91F8EE22C
S11322108083BE010D2E000C880B990B0E940F2B9E
S11322209B01AC0160E070E080E291E40E94812CAB
S11322309B01AC01C701B6010E94142C2FEFA21A16
S1132240B20A0E94D72A9B01772324F4222733273A
S1132250261B370BA8014A0D5B1DB901330F880BF0
S1132260990B9E010E949010DF91CF911F910F91C5
S1132270FF90EF90DF90CF90BF90AF909F908F90A2
S11322800895E0E4F4E020812D7F20832081216003
S11322902083BC0180E090E00E940D2B20E030E020
S11322A040E851E40E94142C9B01AC0160E07BE106
S11322B087EB9EE40E94652A20E030E040E05FE383
S11322C00E94F4290E94DE2AE0E2F8E06087718728
S11322D08681806C868308959091240895FFFCCFB5
S11322E08093220808950F931F93CF93DF938C015B
S11322F0C0E0D0E007C0F801EC0FFD1F80810E9410
S11323006C112196F80101900020E9F73197E01B48
S1132310F10BCE17DF0778F38AE00E946C11DF918E
S1132320CF911F910F91089520E030E04FEA55E4DA
S11323300E9490108FEA95E40E94731108959A0107
S11323404FEA55E40E94CF108FEA95E40E9473117E
S11323500895E0E0F4E0808180688083A4E0B4E044
S11323608C9180688C93808180618083808180647B
S11323708083E0E4F9E080818063808380818160F0
S113238080838C9180688C93089580934409809114
S113239043098823E4F70895DC0120E030E00CC011
S11323A0FD01E20FF31F908190934409909143093A
S11323B09923E4F72F5F3F4F462F50E0241735074A
S11323C07CF30895E0E0F9E081E0858383E0848391
S11323D00895E0E0F9E080818F7E80838081837FAF
S11323E0808380818D7F80830895E0E0F9E087E633
S11323F0868381E0858383818A608383838181608E
S113240083830895CF93DF93C82FD62F8091050936
S11324108370833089F482E590E40E94731120E68E
S11324203AEE01C09C01809105098370833021F448
S1132430C9010197232BB1F785E080930509DD23BA
S113244041F08C2F90E0880F991F816080930709D9
S113245004C08C2F880F8093070980E69AEE2091A0
S1132460050924FF06C02091050926FD02C0019735
S1132470B1F7892B21F48CE590E40E9473118091CB
S1132480050982FF04C084E690E40E947311DF9181
S1132490CF910895CF93DF93C0E6DAEE80910509DA
S11324A0882314F02197D1F78091050983FD04C096
S11324B08091050982FF09C087E990E40E947311A5
S11324C00E94E21181E08093AE45CD2B39F48CE576
S11324D090E40E94731181E08093AE4580910809D5
S11324E0DF91CF91089585E88093A000E0E0F6E0C5
S11324F084E0818381E082838083089581E08093F6
S11325000A060895809308060E947E1280910D06A3
S113251080FFFCCF8091100690911106089580E809
S113252095E20E9441110E94E9110E94F51161E0B7
S113253088E70E9402120895CF93DF930E944A1203
S1132540C82FD0E0DC2FCC270E944A12C82B0E944F
S11325504A120E944A12BE0180E090E00E940D2BB4
S1132560DF91CF9108950E949C1220E030ED4CE45D
S113257055E40E94F3292CEE31E143E853E40E9430
S1132580652A0895CF92DF92EF92FF921F93CF9323
S1132590DF93182FC0E0D0E0C12CD12C760111C0FC
S11325A00E94B3129B01AC01C701B6010E94F42939
S11325B020E030E040E05FE30E94142C6B017C01DA
S11325C02196812F90E0C817D90754F32FE03CEDF2
S11325D04EE452E4C701B6010E94142CDF91CF915E
S11325E01F91FF90EF90DF90CF900895E0E0F4E02A
S11325F0808180688083E0E2F4E080818061808370
S1132600E0E4F4E08081806280830895CF93DF93D7
S1132610E0E2F4E0248120612483C0E0D4E02C8152
S11326202F772C830E94CC118C8180688C83DF915E
S1132630CF910895CF93DF93E0E2F4E09481906129
S11326409483C0E0D4E09C819F779C830E94C51151
S11326508C818F778C83DF91CF9108950F931F9393
S1132660CF93DF93C0E2D4E09C819F7E9C8300E003
S113267014E0F80194819F7794830E94C511F801B6
S11326808481806884838C8180618C83DF91CF9185
S11326901F910F9108950F931F93CF93DF93C0E27F
S11326A0D4E09C819F7E9C8300E014E0F801948137
S11326B09F7794830E94C511F80184818068848384
S11326C08C8180618C83DF91CF911F910F9108954C
S11326D0CF93982F9F70C82FC295CF70C067892F52
S11326E080660E944B138C2F0E944B13CF91089548
S11326F0CF93C82FC295CF70C0618F700E944B13C7
S11327008C2F0E944B13CF9108950F931F93CF9357
S1132710DF93062F122FD8E1D80FC8E1C40F8D2FF5
S11327200E947813802F0E94681384EF0E942E1356
S11327308D2F0E944B1386EF0E942E138C2F0E9424
S11327404B1387EF0E942E13812F0E944B1388EFA7
S11327500E942E13DF91CF911F910F910895CF9373
S1132760DF932FE94FE460E080E00E948513C0E02E
S1132770D0E004C080E00E941A132196C11584E6BB
S1132780D807C4F3DF91CF910895E0E0F4E08481A9
S11327908F778483E0E2F4E0848180618483E0E4E1
S11327A0F4E084818F7D84832FEF88EF95E12150BD
S11327B080409040E1F700C00000848180628483FF
S11327C02FEF8EE994E2215080409040E1F700C061
S11327D0000088EB0E942E1380E10E944B1382EECE
S11327E00E942E132FEF85EA9EE0215080409040F6
S11327F0E1F700C000008BEE0E942E1381E80E94D6
S11328002E138BE40E942E138BE20E942E1384EC71
S11328100E942E1389E80E942E1384E20E942E1334
S113282082EA0E942E1381EF0E942E138FE90E94E8
S11328304B1384E80E942E1382EF0E942E1380E033
S11328400E944B1383EF0E942E1382E30E944B13CA
S113285080E40E942E1380E50E942E1381ED0E94D5
S11328602E1386ED0E942E1388EC0E942E1385E011
S11328700E942E1388ED0E942E130E94AF138DEA3E
S11328800E942E1308952F923F924F925F926F925F
S11328907F928F929F92AF92BF92CF92DF92EF92EC
S11328A0FF920F931F93CF93DF93CDB7DEB761975A
S11328B0CDBFDEBF8F836C871A012B87902E2DB777
S11328C03EB72E873F878BEA089F812D112486957A
S11328D08A8790E0DC01AA0FBB1FAD83BE836D0124
S11328E0BB0FEE08FF0800E010E0412C512C320130
S11328F009831A839D864601570189C0EDB7FEB747
S1132900E887F9872DB73EB78D819E81281B390B47
S11329102DBF3EBFADB7BEB71196AB83BC83AD012F
S113292080E090E005C0FA01E80FF91F10820196DB
S11329308C01092E000C220B330B081519052A05EE
S11329403B058CF360E070E030E020E0ED843DC0B6
S1132950F101E40DF51DF490BFEF4B1A5B0A6B0A0D
S11329607B0A87E090E02DC0EF2DF0E0082E02C036
S1132970F595E7950A94E2F7E0FF1DC0E32FF0E038
S1132980E88BF98B8F01040F151FD801CC90A22F6F
S1132990B0E0AA0FBB1FA95EBF4BDC90DC28F80196
S11329A0D082E889F9893196E40FF51F10811196D8
S11329B0AC91A12BA0832F5F233010F03E5F20E069
S11329C0019799238CF66F5F7F4F8E2D86958695A0
S11329D0869590E0681779070CF4BACF6C85F98175
S11329E06F0F262F4A853F81430F832F0E94851343
S11329F06D817E818B819C810E94061388859985D7
S1132A008DBF9EBFA981BA811196A983BA83BB8564
S1132A108B2F90E0E981FA81E817F9070CF46ECF67
S1132A202E853F852DBF3EBF6196CDBFDEBFDF91B2
S1132A30CF911F910F91FF90EF90DF90CF90BF90B7
S1132A40AF909F908F907F906F905F904F903F904A
S1132A502F9008952F923F924F925F926F927F92A0
S1132A608F929F92AF92BF92CF92DF92EF92FF929A
S1132A700F931F93CF93DF93CDB7DEB76297CDBF8C
S1132A80DEBFA82E688B4A01322E2DB73EB7298BA4
S1132A903A8B202E269426942694222D30E0A32DC2
S1132AA0B0E00E940B2E9B01AC01AE2DB0E00E9461
S1132AB01A2E2B013C018BEA089F012D1124069547
S1132AC00D87802F90E0DC01AA0FBB1FAE87BF8764
S1132AD0CD01092E000CAA0BBB0B8F839887A98705
S1132AE0BA8700E010E08FC0ADB7BEB7AB87BC8734
S1132AF0EDB7FEB72F813885E21BF30BEDBFFEBFA8
S1132B008DB79EB701968D839E83AC0180E090E0E3
S1132B1049825A826B827C82322D232D2F80388405
S1132B2049845A8405C0FA01E80FF91F10820196FE
S1132B306C01092E000CEE08FF08C214D304E4044F
S1132B40F50488F349805A806B807C80232E322ED2
S1132B5060E070E030E020E03CC0F401E40DF51DDD
S1132B60D4909FEF491A590A690A790A87E090E0DC
S1132B702CC0ED2DF0E0082E02C0F595E7950A94DF
S1132B80E2F7E0FF1CC0A32FB0E0A983BA837D0164
S1132B90E40EF51EF701B080A22FB0E0AA0FBB1F10
S1132BA0A95EBF4BCC90CB28C082E981FA813196D3
S1132BB0E40FF51FF0801196AC91AF29A0832F5F2D
S1132BC0233010F03E5F20E00197992394F66F5F65
S1132BD07F4F822D90E0681779070CF4BECF688987
S1132BE0600F262F4D854A0D8A2D0E9485136E8510
S1132BF07F858D819E810E9406132B853C852DBF88
S1132C003EBF0F5F1F4F832D90E0081719070CF488
S1132C106BCF89899A898DBF9EBF6296CDBFDEBF77
S1132C20DF91CF911F910F91FF90EF90DF90CF90A4
S1132C30BF90AF909F908F907F906F905F904F90D8
S1132C403F902F900895FF920F931F93CF93DF939C
S1132C50F62EC22F002381F0D42FD81B0E94851397
S1132C60C0E007C08FEF0E941A138FEF0E941A135F
S1132C70CF5FCD17B8F313C00E9485130C2F10E05B
S1132C800F191109C0E0D0E007C08FEF0E941A139A
S1132C9080E00E941A132196C017D107B0F3DF9188
S1132CA0CF911F910F91FF900895FF920F931F935F
S1132CB0CF93DF93F62EC22F002381F0D42FD81B9D
S1132CC00E948513C0E007C08FEF0E941A138FEF94
S1132CD00E941A13CF5FCD17B8F313C00E94851357
S1132CE00C2F10E00F191109C0E0D0E007C088EFE5
S1132CF00E941A1380E00E941A132196C017D1076C
S1132D00B0F3DF91CF911F910F91FF900895DF925F
S1132D10EF92FF920F931F93CF93DF93F82ED62E4B
S1132D20E42E022F061B842F90E08F19910963E093
S1132D3070E00E94B62DD62F10E013C0612F6D0DE8
S1132D40262F4E2D8F2D0E948513C0E007C08FEFD4
S1132D500E941A138FEF0E941A13CF5FCD17B8F396
S1132D601F5F101758F3DF91CF911F910F91FF90C0
S1132D70EF90DF900895DF92EF92FF920F931F93ED
S1132D80CF93DF93F82ED62EE42E022F061BD42FDA
S1132D90D81B10E013C0612F6D0D262F4E2D8F2DE3
S1132DA00E948513C0E007C080E00E941A1380E0EF
S1132DB00E941A13CF5FCD17B8F31F5F101758F393
S1132DC0DF91CF911F910F91FF90EF90DF900895C5
S1132DD0CF93DF93A0E4B4E08C918F7B8C935696D1
S1132DE08C915697816056968C935697E0E8F4E060
S1132DF080818D7F808381898260818B80818B7FBC
S1132E00808382898260828BC0EAD4E088818B7F50
S1132E1088838A8982608A8B80818E7F808380897F
S1132E208260808B8C9184608C93E0E2F4E08081FA
S1132E3080628083DF91CF910895809171458823CA
S1132E4069F181E080935945809116408F5F8093AA
S1132E501640843018F081E080931640809116402B
S1132E60823049F0833061F0813079F48FEA90E464
S1132E700E94731111C080ED90E40E9473110CC084
S1132E8083EF90E40E94731107C081E080931640A1
S1132E9083E191E40E9473111092714508950F9398
S1132EA080917045882309F4A9C1809108408F5FFF
S1132EB080930840863018F081E080930840809128
S1132EC00840833009F49EC030F4813059F08230D8
S1132ED009F450C06FC1843009F4DCC0853009F4B2
S1132EE021C168C180916F45882359F0E0E0FAE080
S1132EF0808181608083809111409091124080A7ED
S1132F0091A7809111409091124080933345909302
S1132F10344580911340811113C080913D459091B7
S1132F203E458093334590933445E0E0FAE0808158
S1132F308160808380913D4590913E4580A791A713
S1132F4081E08093324508E221E340E15AE168E2FE
S1132F5085E30E94431421E345E05BE168E282E4F7
S1132F600E9443142FE042E65DE16FE582E40E9493
S1132F70431441C180916F45882359F0E0E0FAE0A1
S1132F8080818160808380910F409091104080A760
S1132F9091A780910F409091104080933345909376
S1132FA0344580911340811113C080913D45909127
S1132FB03E458093334590933445E0E0FAE08081C8
S1132FC08160808380913D4590913E4580A791A783
S1132FD081E08093314508E221E34BE159E168E265
S1132FE085E30E94431421E345E05BE168E282E467
S1132FF00E9443142FE042E65DE16FE582E40E9403
S11330004314F9C080916F45882359F0E0E0FAE059
S113301080818160808380910D4090910E4080A7D3
S113302091A780910D4090910E40809333459093E9
S1133030344580911340811113C080913D45909196
S11330403E458093334590933445E0E0FAE0808137
S11330508160808380913D4590913E4580A791A7F2
S113306081E08093304508E221E346E258E168E2DA
S113307085E30E94431421E345E05BE168E282E4D6
S11330800E9443142FE042E65DE16FE582E40E9472
S11330904314B1C080916F45882359F0E0E0FAE011
S11330A080818160808380910B4090910C4080A747
S11330B091A780910B4090910C408093334590935D
S11330C0344580911340811113C080913D45909106
S11330D03E458093334590933445E0E0FAE08081A7
S11330E08160808380913D4590913E4580A791A762
S11330F081E080932F4508E221E341E357E168E250
S113310085E30E94431421E345E05BE168E282E445
S11331100E9443142FE042E65DE16FE582E40E94E1
S1133120431469C080916F45882359F0E0E0FAE0C8
S11331308081816080838091094090910A4080A7BA
S113314091A78091094090910A40809333459093D0
S1133150344580911340811113C080913D45909175
S11331603E458093334590933445E0E0FAE0808116
S11331708160808380913D4590913E4580A791A7D1
S113318081E080932E4508E221E34CE356E168E2B6
S113319085E30E94431421E345E05BE168E282E4B5
S11331A00E9443142FE042E65DE16FE582E40E9451
S11331B0431421C080911140909112408093334573
S11331C09093344581E08093324508E221E340E165
S11331D05AE168E285E30E94431421E345E05BE1A0
S11331E068E282E40E9443142FE042E65DE16FE569
S11331F082E40E94431410927045F9C0882309F4B4
S1133200F6C080916F45811109C0809148458111B4
S113321005C080917245882309F4E9C08091084073
S11332208F5F80930840863018F081E080930840D7
S113323080910840833009F451C028F4813051F062
S1133240823051F1B1C0843009F46AC0853009F488
S113325089C0AAC0E0E0FAE0808181608083809127
S113326011409091124080A791A708E221E340E128
S11332705AE168E285E30E94431421E345E05BE1FF
S113328068E282E40E9443142FE042E65DE16FE5C8
S113329082E40E944314A9C0E0E0FAE080818160E6
S11332A0808380910F409091104080A791A708E2FD
S11332B021E34BE159E168E285E30E94431421E3F1
S11332C045E05BE168E282E40E9443142FE042E6B9
S11332D05DE16FE582E40E94431487C0E0E0FAE018
S11332E080818160808380910D4090910E4080A701
S11332F091A708E221E346E258E168E285E30E94EF
S1133300431421E345E05BE168E282E40E94431454
S11333102FE042E65DE16FE582E40E94431465C05C
S1133320E0E0FAE080818160808380910B4090919D
S11333300C4080A791A708E221E341E357E168E24A
S113334085E30E94431421E345E05BE168E282E403
S11333500E9443142FE042E65DE16FE582E40E949F
S1133360431443C0E0E0FAE080818160808380916F
S1133370094090910A4080A791A708E221E34CE319
S113338056E168E285E30E94431421E345E05BE1F2
S113339068E282E40E9443142FE042E65DE16FE5B7
S11333A082E40E94431421C0809111409091124004
S11333B0809333459093344581E08093324508E20D
S11333C021E34BE159E16AE285E30E94431421E3DE
S11333D045E05BE168E282E40E9443142FE042E6A8
S11333E05DE16FE582E40E944314109270450F91F1
S11333F00895882351F1E0E8F4E0848188608483AF
S1133400A0E0BAE08C9181608C93809133459091D7
S1133410344598968D939C93999781E08093394590
S11334208089887F8460808B80918A4590918B45C8
S1133430A0918C45B0918D458093734590937445CC
S1133440A0937545B093764518C0811116C0E0E885
S1133450F4E08481877F8483A0E0BAE08C9181606A
S11334608C9398961D921C92999710923945808955
S1133470887F8260808B10926F45809139458823C4
S113348029F084E491E40E94731108958CEA91E494
S11334900E947311089580916E458823C9F181EECD
S11334A091E40E94731180916F4581110AC080914B
S11334B03345909134458093280A9093290A892BA7
S11334C001F510926F4510924B4510924F451092A2
S11334D04E4510923F45109240451092414510923E
S11334E0424510924A451092494510924345109224
S11334F04445109245451092464580E00E94F919D2
S113350005C081E080936F450E94F91910926E45C1
S113351008950E941D170E944B1A0E944F17089588
S1133520CF92DF92EF92FF920E94C2126B017C0154
S11335306093A6457093A7458093A8459093A945A9
S113354020E030E0A9010E94602A88234CF4109204
S1133550A6451092A7451092A8451092A94516C0F9
S113356020E030E84BE354E4C701B6010E94BF2BCE
S1133570181664F480E090E8ABE3B4E48093A645C5
S11335809093A745A093A845B093A9458091164070
S1133590823049F1833009F478C0813009F0AAC03F
S11335A080E090E0AAE7B5E4809392459093934538
S11335B0A0939445B093954520E030E048EC52E464
S11335C06091A6457091A7458091A8459091A94521
S11335D00E94142C60939645709397458093984568
S11335E090939945ACC06091A6457091A745809190
S11335F0A8459091A94529E134E04EEA5FE30E9491
S1133600142C6093A2457093A3458093A445909392
S1133610A5450F2EC12CF0E8DF2EFBE3EF2EF5E4D9
S1133620FF2EF02DC0929245D0929345E09294459E
S1133630F092954520E030E84BE354E40E94BF2B20
S1133640181664F480E090E8ABE3B4E48093A245F8
S11336509093A345A093A445B093A54520E030E002
S113366048EC52E46091A2457091A3458091A44531
S11336709091A5450E94142C6093964570939745AC
S113368080939845909399455AC06091A64570914E
S1133690A7458091A8459091A9452AE035E848E0DE
S11336A05EE30E94142C60939E4570939F45809323
S11336B0A0459093A1450F2EC12CD12CF8E4EF2EF8
S11336C0F3E4FF2EF02DC0929245D0929345E09200
S11336D09445F092954520E030E048EC52E40E9495
S11336E0142C6093964570939745809398459093D6
S11336F0994525C081E08093164080E090E0AAE7D8
S1133700B5E48093924590939345A0939445B093E8
S1133710954520E030E048EC52E46091A645709174
S1133720A7458091A8459091A9450E94142C6093C7
S11337309645709397458093984590939945FF904B
S1133740EF90DF90CF9008958091480483FF03C0E9
S113375081E0809350450895E0E4F4E08481806141
S113376084832FEF8EE994E2215080409040E1F76A
S113377000C0000084818F7E84832FEF8EE994E261
S1133780215080409040E1F700C000000E948F1259
S11337900895E0E4F4E080818F77808387898160F5
S11337A0878B8081877F808383898160838B089561
S11337B00E94C91B8091480483FF04C081E0809368
S11337C05045089510925045089580914D458823A1
S11337D0B1F08091480483FF09C081E08093504593
S11337E0E0E2F4E084818160848307C01092504554
S11337F0E0E2F4E084818E7F848310924D458091D1
S11338005045882329F0E0E2F4E0848181608483D8
S113381008950F931F9380914F458823F1F1909160
S11338204B4591113AC090914C45911136C09091FD
S11338304E45992391F190914A45923070F140910F
S11338408A4550918B4560918C4570918D450091CE
S11338503F45109140452091414530914245401BE0
S1133860510B620B730B483E534061057105A8F47C
S113387081E00E94F91981E080934B4510924F45F5
S113388010924E4510923F4510924045109241458A
S11338901092424510924A45BCC0882359F1909138
S11338A04E45992339F190914B45992319F180E0C4
S11338B00E94F91910924B4510924F4510924E45B3
S11338C010923F4510924045109241451092424556
S11338D010924A4580914945882309F49AC0109270
S11338E04945109243451092444510924545109223
S11338F046458FC0882391F190914B4591112EC07C
S113390090914C4591112AC090914A45911126C03D
S113391090914E45911122C040918A4550918B451A
S113392060918C4570918D4500913F4510914045C3
S11339302091414530914245401B510B620B730B62
S1133940493E53406105710548F081E00E94F91930
S113395081E080934C45109247455BC090914E4561
S11339609923F1F020914C452223D1F020914A452E
S11339702223B1F08823A1F080E00E94F91910926B
S11339804C4510924E4510924F4510924A45109264
S11339903F4510924045109241451092424539C02E
S11339A0811106C0911104C080914A45882389F190
S11339B080914B4581112DC080914C45811129C0C6
S11339C080918A4590918B45A0918C45B0918D450D
S11339D040913F4550914045609141457091424529
S11339E0841B950BA60BB70B893E9340A105B1052B
S11339F080F010924B4510923F4510924045109232
S1133A0041451092424510924F4510924E451092F6
S1133A104A451F910F9108954F925F926F927F9242
S1133A208F929F92AF92BF92CF92DF92EF92FF92CA
S1133A3080914845882309F4D8C080914B45811171
S1133A4004C080916F458823D1F08091494581114C
S1133A5016C081E08093494580918A4590918B45B9
S1133A60A0918C45B0918D458093434590934445F6
S1133A70A0934545B093464510924745B6C0809102
S1133A8049458823E1F140918A4550918B456091E5
S1133A908C4570918D45C0904345D0904445E0904D
S1133AA04545F09046454C195D096E097F0941343E
S1133AB057476B41710518F180E00E94F919109283
S1133AC04945109243451092444510924545109241
S1133AD0464510924B4510923F4510924045109236
S1133AE041451092424510924F4510924E45109216
S1133AF04A4581E08093474510926F4576C08823FC
S1133B0009F473C0C0908A45D0908B45E0908C45F1
S1133B10F0908D4540904345509044456090454514
S1133B2070904645D701C60184199509A609B709BD
S1133B3080349747AB41B10508F057C08090964553
S1133B4090909745A0909845B0909945A50194010F
S1133B5060919A4570919B4580919C4590919D45BB
S1133B600E94F3290E94D72A9B01772324F4222759
S1133B703327261B370BB901330F880B990B0E948F
S1133B800F2B20919245309193454091944550914B
S1133B9095450E94BF2B18166CF4C414D504E60492
S1133BA0F70441F0C0924345D0924445E092454524
S1133BB0F092464580918E4590918F45A091904515
S1133BC0B0919145C81AD90AEA0AFB0A89EEC816C7
S1133BD083E0D806E104F10440F080929A45909283
S1133BE09B45A0929C45B0929D45FF90EF90DF903D
S1133BF0CF90BF90AF909F908F907F906F905F9089
S1133C004F90089580914F45882341F081E00E94B0
S1133C10F91910924F4510924745089580914E45E9
S1133C20882329F080E00E94F91910924E450895E6
S1133C3080917245882319F00E94091C04C08111E7
S1133C4002C00E94021E0E94E51B08950E94731286
S1133C5008958F929F92AF92BF92CF92DF92EF928C
S1133C60FF92CF93C0E018C082E00E94821240917C
S1133C705A4550915B4560915C4570915D45480F94
S1133C80591F611D711D40935A4550935B456093C4
S1133C905C4570935D45CF5FC43130F38FEF91E4A1
S1133CA00E947311CC2ED12CE12CF12CC701B6014A
S1133CB00E94941160915A4570915B4580915C45D6
S1133CC090915D45A70196010E94CA2D20935A4503
S1133CD030935B4540935C4550935D45CA01B901FF
S1133CE00E940D2B23E333E343E550E40E94142C9C
S1133CF020E030EF4FE755E40E94652A6B017C0118
S1133D0060936A4570936B4580936C4590936D45C1
S1133D1020E030E44CE156E40E94652A4B015C014A
S1133D2060935E4570935F458093604590936145D1
S1133D30A701960163E373E383E590E40E94F3290A
S1133D40A50194010E94652A6093624570936345BE
S1133D50809364459093654520E030E44CE156E45B
S1133D600E94652A0E94CC2B23E931EA48E959E3F1
S1133D700E94142C2FE03FEC4BE55BE30E94F429F6
S1133D809B01AC0160E070E080E89FE30E94652A3B
S1133D9023E333E948E853E40E94F329609366453A
S1133DA070936745809368459093694542E050E07D
S1133DB00E949F11609166457091674580916845A6
S1133DC090916945CF91FF90EF90DF90CF90BF9095
S1133DD0AF909F908F9008958FEB9DE580931C0B7F
S1133DE090931D0BE1E1FBE080818083E5E1FBE042
S1133DF0808181608083E0E1FBE080818160808359
S1133E0008958FEB9DE580932C0B90932D0BE1E2AD
S1133E10FBE080818083E5E2FBE080818160808338
S1133E20E0E2FBE080818160808308950E94EC1EC3
S1133E300E94011F08951F920F920FB60F92112432
S1133E400BB60F928F939F93AF93BF93EF93FF9310
S1133E508091160B80FF18C080918A4590918B4504
S1133E60A0918C45B0918D450196A11DB11D809303
S1133E708A4590938B45A0938C45B0938D45E6E19C
S1133E80FBE0808181608083FF91EF91BF91AF91CE
S1133E909F918F910F900BBE0F900FBE0F901F90AC
S1133EA018951F920F920FB60F9211240BB60F9212
S1133EB00F931F932F933F934F935F936F937F932E
S1133EC08F939F93AF93BF93EF93FF934091864556
S1133ED05091874560918845709189454F5F5F4F48
S1133EE06F4F7F4F40938645509387456093884535
S1133EF0709389458091824590918345A091844532
S1133F00B09185450196A11DB11D80938245909382
S1133F108345A0938445B093854500917E451091D7
S1133F207F4520918045309181450F5F1F4F2F4F72
S1133F303F4F00937E4510937F45209380453093F7
S1133F408145493E53406105710558F021E02093B5
S1133F5079451092864510928745109288451092B3
S1133F608945893C9105A105B10558F081E080930C
S1133F7078451092824510928345109284451092A0
S1133F808545E6E2FBE0808181608083FF91EF91CB
S1133F90BF91AF919F918F917F916F915F914F915D
S1133FA03F912F911F910F910F900BBE0F900FBE59
S1133FB00F901F90189510927145109248451092D9
S1133FC06E451092724510927045089581E0809379
S1133FD056458093554508950E94E61F8091AA4551
S1133FE0882321F08091AB45811104C00E94F61210
S1133FF00E94C51308958091154090911640891729
S113400049F081E08093564580935445809355450B
S1134010909315409091534580914845981729F005
S11340208093534581E0809314408091794588239F
S113403081F081E08093564580917245811104C0DE
S113404080915145811103C081E0809352451092C3
S1134050794580917845882329F081E080935445FF
S11340601092784508950F932AE044E060E080E0E0
S11340700E94BB1608E32EE145E75FE162E38EE1AF
S11340800E94431400E328E045E45FE164E68FE125
S11340900E9443140F9108950F932EE146E060E0CF
S11340A080E00E94871601E02EE14FE46EE180E09B
S11340B00E9455162DE14FE46DE180E00E945516F3
S11340C000E022E743E36FE183E30E94551601E039
S11340D022E74FE462E780E00E94551623E74FE4AD
S11340E063E780E00E9455160F9108950F9300E056
S11340F02EE940E060E080E00E94231601E020E029
S11341004FE460E080E00E94551621E04FE461E056
S113411080E00E94551600E02EE94FE460E08FE451
S11341200E94231601E02FE94FE46FE980E00E942A
S113413055162EE94FE46EE980E00E9455160F9162
S11341400895EF92FF920F931F93CF93DF93C82F9D
S1134150D62F6091A6457091A7458091A84590916E
S1134160A9450E94D72A9B012F3E82E0380744F0DC
S11341701092A6451092A7451092A8451092A94501
S1134180EAE0F0E0C901BF010E94B62D182FCB016F
S1134190BF010E94B62DF82EC90164E670E00E94AA
S11341A0B62DE62E08E221E34AEA5CE06D2F8C2F5F
S11341B00E942A15EF2C21E34AEA5CE06D2F8DE082
S11341C08C0F0E942A15E12E21E34AEA5CE06D2F50
S11341D08AE18C0F0E942A1580915545882351F05D
S11341E002E32DE047EF5EE16FE58FE10E944314A7
S11341F010925545DF91CF911F910F91FF90EF9051
S11342000895EF92FF920F931F93CF93DF93C82FDC
S1134210D62F6091A2457091A3458091A4459091B9
S1134220A5450E94D72A9B012F3E82E0380744F01F
S11342301092A2451092A3451092A4451092A54550
S1134240EAE0F0E0C901BF010E94B62D182FCB01AE
S1134250BF010E94B62DF82EC90164E670E00E94E9
S1134260B62DE62E08E221E34AEA5CE06D2F8C2F9E
S11342700E942A15EF2C21E34AEA5CE06D2F8DE0C1
S11342808C0F0E942A15E12E21E34AEA5CE06D2F8F
S11342908AE18C0F0E942A1580915545882351F09C
S11342A009E32DE04CE95EE16FE58FE10E944314E0
S11342B010925545DF91CF911F910F91FF90EF9090
S11342C00895EF92FF920F931F93CF93DF93182FCC
S11342D0F62E60919E4570919F458091A0459091E6
S11342E0A1450E94D72AEB01072E000C880B990BDD
S11342F00E940F2B2AE037ED4FE151E40E94BF2BBF
S1134300181644F410929E4510929F451092A045B1
S11343101092A145CE016AE070E00E94B62DD62F1E
S1134320C82FE12C08E221E34AEA5CE06F2D812FDB
S11343300E942A1509E026E044E35EE165E580E198
S11343400E944314ED2E08E221E34AEA5CE06F2D5B
S11343508DE0810F0E942A15EC2E21E34AEA5CE0ED
S11343606F2D8AE1810F0E942A158091554588237B
S113437051F009E32EE04AE35EE16FE58FE10E942C
S1134380431410925545DF91CF911F910F91FF90E7
S1134390EF9008950F931F93CF93DF93C0E0D0E085
S11343A009C02AE030E040E050E00E94EC2DCA0150
S11343B0B90121968B019C01075F1F4F2F4F3F4F7F
S11343C0033111052105310560F7CE010196DF9116
S11343D0CF911F910F9108952F923F924F925F9228
S11343E06F927F928F929F92AF92BF92CF92DF9201
S11343F0EF92FF920F931F93CF93DF93562EF22EDB
S1134400132F442EE52E682E712C622F732F842FC8
S1134410952F0E94CA215C011C0162E070E00E9499
S1134420392E4C01C12CD12C18C0E601CC0FDD1F54
S1134430C80DD91D6F2D712F842D9E2D2AE030E0DB
S113444040E050E00E94EC2D68837983F22E132F14
S1134450442EE52E4FEFC41AD40AE5012197CC1659
S1134460DD061CF3F101E150F048EE0FFF1FE80DEB
S1134470F91D8F2D912F80839183E02EF12CAE14A2
S1134480BF04B4F5B701660F771FC4010E94762FED
S11344904C010AC0F501EE0FFF1FE80DF91D108253
S11344A011825FEFA51AB50AAE14BF049CF3E701AD
S11344B021972AEFAE012403C001259F900D1124FA
S11344C0680E791E12C0FE01EE0FFF1FE80DF91DE4
S11344D0E08008E128E14CE055E0652D862D0E943E
S11344E02A1556E0650E711C2197DD2364F71EC062
S11344F02AEFAE012403C001259F900D1124680EFC
S1134500791E12C0FE01EE0FFF1FE80DF91DE080B9
S113451008E128E14CE055E0652D862D0E942A151E
S113452056E0650E711C2197DD2364F7C4010E94D7
S1134530ED2EDF91CF911F910F91FF90EF90DF90BF
S1134540CF90BF90AF909F908F907F906F905F902F
S11345504F903F902F900895EF92FF920F931F93E7
S1134560CF93DF93C82FD62F60916645709167452E
S113457080916845909169450E94D72A9B016E37C6
S1134580710544F010926645109267451092684593
S113459010926945EAE0F0E0C901BF010E94B62D1E
S11345A0182FCB01BF010E94B62DF82EC90164E675
S11345B070E00E94B62DCB01BF010E94B62DE82EFB
S11345C009E121E14CEA5AE06D2F8C2F0E942A1553
S11345D0EF2C21E14CEA5AE06D2F85E08C0F0E940C
S11345E02A15E12E21E14CEA5AE06D2F8AE08C0F66
S11345F00E942A15DF91CF911F910F91FF90EF90A8
S11346000895DF92EF92FF920F931F93CF93DF935E
S1134610F82ED62EE42E022F061BD42FD81B10E022
S113462013C0612F6D0D262F4E2D8F2D0E948513E3
S1134630C0E007C080E00E941A1380E00E941A13B1
S1134640CF5FCD17B8F31F5F101758F3DF91CF91E9
S11346501F910F91FF90EF90DF900895DF92EF92FA
S1134660FF920F931F93CF93DF93F82ED62EE42E51
S1134670022F061BD42FD81B10E013C0612F6D0D21
S1134680262F4E2D8F2D0E948513C0E007C08FEF7B
S11346900E941A138FEF0E941A13CF5FCD17B8F33D
S11346A01F5F101758F3DF91CF911F910F91FF9067
S11346B0EF90DF9008952DE142E060E080E00E94F9
S11346C02E2308950F9326E946E460E080E00E94DB
S11346D0BB160E945B230E9476200E944C201092FD
S11346E0A6451092A7451092A8451092A9456AE2E2
S11346F086E00E94A1208091114090911240809305
S113470033459093344581E08093324508E221E3B8
S113471040E15AE168E285E30E94431421E345E065
S11347205BE168E282E40E9443142FE042E65DE12B
S11347306FE582E40E9443142FEF82E597E0215055
S113474080409040E1F700C000000F9108950F935E
S11347501F93CF93DF9327EE32E442ED5DE3609144
S1134760A6457091A7458091A8459091A9450E94BE
S1134770142C0E94DE2A162F072FC62FD02F8091CB
S11347800640909107408C179D0788F4CD34D105DD
S113479010F0CCE4D0E04C2F4E5F2DE162E08E5F50
S11347A00E942E23C0930640D093074011C0C8171F
S11347B0D90770F442E0480F2DE162E082E0810FF6
S11347C00E940123812F902F8093064090930740ED
S11347D0DF91CF911F910F9108950F930E94FB1FBA
S11347E0809156458823E9F080911640823049F043
S11347F0833061F0813079F46AE286E00E94A1207E
S11348000EC06AE286E00E94012109C06AE286E0E5
S11348100E94612104C06AE286E00E94A1201092F5
S1134820564580915445882321F00E94A723109275
S1134830544580911440882339F180914845882358
S113484091F08DE292E40E947311E0E2F4E084813D
S1134850806284830AE22BE14DEA5DE168E78CE340
S11348600E9443140FC087E492E40E947311E0E2B3
S1134870F4E084818F7D848326E94DE468E78CE34A
S11348800E94BB161092144080914845882309F475
S113489049C080914745882309F444C080917A45F2
S11348A090917B4520918A4530918B45821B930BD7
S11348B09C0122F422273327281B390B293E33403D
S11348C08CF19091774581E08927809377458823FF
S11348D061F0E0E2F4E084818F7D848326E94DE495
S11348E068E78CE30E94BB160DC0E0E2F4E084812B
S11348F0806284830AE22BE14DEA5DE168E78CE3A0
S11349000E94431480918A4590918B45A0918C45D7
S1134910B0918D4580937A4590937B45A0937C45D7
S1134920B0937D4580915245882309F457C0809106
S11349307245882309F442C0E0E4F4E08481846091
S1134940848380912C4590912D45019680932C452C
S113495090932D45039724F010922C4510922D45E9
S113496080912C4590912D458130910571F08230D4
S11349709105A1F0892BD9F408E228E14AEE5CE123
S11349806AE787E00E94431416C008E228E142E780
S11349905CE16AE787E00E9443140DC008E228E165
S11349A04AEF5BE16AE787E00E94431404C0109277
S11349B02C4510922D45109251450EC0E0E4F4E0D0
S11349C084818B7F848326E94EE168E787E00E9437
S11349D0BB1681E080935145109252458091584511
S11349E0811104C080915745882341F000E22AE1F7
S11349F047E450E26CE784E20E9443140F91089567
S1134A00E0E0F4E080818160808380818260808343
S1134A1080898860808BE0E0FAE084EE9CE086A3E5
S1134A2097A310A611A610A211A28181806181838F
S1134A3081818360818380818160808380818260C1
S1134A40808308959DE994BF8093001008951F9377
S1134A50CF93DF93EC01162F8091021081FDFCCFE0
S1134A6083E190E00E942225DC5E188380E090E0E0
S1134A700E942225DF91CF911F9108952091021069
S1134A800E946B300895AF92BF92CF92DF92EF9263
S1134A90FF920F931F93CF93DF9381E090E00E94E6
S1134AA03E25A82E83E090E00E943E2591E08111EE
S1134AB001C090E09093AA4500E0C12CD12C76016E
S1134AC0B12C6DC081E00E94C2126093A645709320
S1134AD0A7458093A8459093A9458091AE45882326
S1134AE079F08091AC459091AD4501968093AC45A9
S1134AF09093AD451092AE4582E692E40E94731104
S1134B002091A6453091A7454091A8455091A945CB
S1134B10C701B6010E94602A811106C082E792E4AF
S1134B200E9473111F5F05C08DE892E40E94731107
S1134B3010E0C090A645D090A745E090A845F0901D
S1134B40A945219603C0C0E0D0E010E0CA30D105E9
S1134B500CF4B8CF8091AC459091AD45049714F412
S1134B60163040F00E94AC1B0F5F1092AC451092BF
S1134B70AD4515C01092AC451092AD451092AA45B2
S1134B8060E081E090E00E9427256091AA4583E0DF
S1134B9090E00E94272500E0BB24B394A12CB1101F
S1134BA002C0033080F2033088F161E06A0D81E0D5
S1134BB08093AA4581E090E00E9427256091AA4550
S1134BC083E090E00E9427258FE295E70197F1F7B3
S1134BD000C000006091724582E090E00E942725A9
S1134BE06091484586E090E00E94272561E085E0D9
S1134BF090E00E9427258FE295E70197F1F700C026
S1134C00000061E081E490E00E947A30DF91CF916E
S1134C101F910F91FF90EF90DF90CF90BF90AF90D6
S1134C20089580E00E94F9190E94A41B0E94332079
S1134C300E94AC1B0E944325089585E090E00E94E9
S1134C403E2591E0811101C090E09093AB4560E076
S1134C5085E090E00E94272583E090E00E943E25B5
S1134C6091E0811101C090E09093AA45992341F00D
S1134C7082E090E00E943E2586E090E00E943E257E
S1134C800895209102100E9473300895CF92DF920C
S1134C90EF92FF920F9385E190E00E944126611507
S1134CA027E9720729E4820721E0920720F021E036
S1134CB02093584502C0109258450F2EF0E8CF2E8D
S1134CC0FEEEDF2EF6E3EF2EF12CF02DA701960178
S1134CD00E94CA2D04E06BE286E40E94EC2181E18B
S1134CE090E00E944126A70196010E94CA2D67E622
S1134CF086E40E94EC210F91FF90EF90DF90CF901B
S1134D000895AF92BF92CF92DF92EF92FF920F93EA
S1134D101F93CF93DF93EC016A017B015C018FEF5A
S1134D20A81AB80A642FCE010E9427256D2D8E0182
S1134D300E5F1F4FC5010E9427256E2D2396C801C3
S1134D400E9427256F2D772788279927CE010E9457
S1134D502725DF91CF911F910F91FF90EF90DF9066
S1134D60CF90BF90AF900895CF92DF92EF92FF92D1
S1134D700F93C0908A45D0908B45E0908C45F0907D
S1134D808D4584C0E0E4F4E08085807480878823C6
S1134D9009F47CC0E0E8F4E080858470808788238F
S1134DA009F474C026E940E560E080E00E94BB1687
S1134DB000E324E144E954E069E485E00E944314FB
S1134DC000E42EE144EA53E069E486E10E944314DE
S1134DD008E12EE14AE453E069E48AE20E944314C4
S1134DE000E42EE14AE552E069E482E30E944314C0
S1134DF02EE14AE651E06DE586E00E9443140E94EC
S1134E00DB1F80917145811110C09091484591112B
S1134E100CC090916E45911108C09091724591110A
S1134E2004C090917045992361F390917245992340
S1134E3069F11092724581110CC09091484591110D
S1134E4008C090916E45911104C0909170459923CA
S1134E5091F380916E458823C9F010926E4540E02D
S1134E6050E0BA0185E190E00E9481268AEA92E44A
S1134E700E9473111092584526E940E560E080E0F5
S1134E800E94BB160E945E270E94DB1F80918A4508
S1134E9090918B459601281B390BC901813630EF5F
S1134EA0930724F0803A9F400CF46CCF0E94DB1FE0
S1134EB00F91FF90EF90DF90CF9008950F9326E924
S1134EC046E460E080E00E94BB1600E42EE14CEB77
S1134ED059E06BE281E00E94431400E32EE148E0D4
S1134EE059E06BE287E10E9443142EE144E558E067
S1134EF067E681E00E94431400E22EE14CED57E0A6
S1134F0067E681E10E94431400E32EE148E059E0A2
S1134F1067E68CE10E9443140E9446260E94B42650
S1134F2026E940E560E080E00E94BB160F910895F9
S1134F30CF92DF92EF92FF920F931F9380918A4555
S1134F4090918B45A0918C45B0918D45009173450E
S1134F50109174452091754530917645BC01CD0181
S1134F60601B710B820B930B0E94941180918A45F4
S1134F7090918B45A0918C45B0918D45409173459E
S1134F80509174456091754570917645841B950BDD
S1134F90A60BB70B813C9742A940B10508F463C046
S1134FA080913945882309F45EC082EC92E40E9422
S1134FB0731181E190E00E9441266B017C018EEF28
S1134FC092E40E947311C701B6010E94941180EC0F
S1134FD0C80E87E2D81E89E0E81EF11CC701B6019D
S1134FE00E949411B701A60181E190E00E948126FC
S1134FF081E190E00E9441260E94941185E190E0B5
S11350000E9441266B017C0120ECC20E27E2D21ED5
S113501029E0E21EF11CC701B6010E949411B701F8
S1135020A60185E190E00E948126C11487E9D80693
S113503089E4E80681E0F80620F081E08093574592
S113504002C01092574580918A4590918B45A0915A
S11350508C45B0918D458093734590937445A0938E
S11350607545B09376451F910F91FF90EF90DF90B7
S1135070CF9008951F920F920FB60F9211240BB682
S11350800F928F93EF93FF938091A90482FF12C034
S113509080917245882319F01092724503C081E013
S11350A08093724581E080933B45E0EAF4E081859A
S11350B084608187FF91EF918F910F900BBE0F90C9
S11350C00FBE0F901F9018951F920F920FB60F925C
S11350D011240BB60F922F933F934F935F936F93CB
S11350E07F938F939F93AF93BF93EF93FF9380919D
S11350F0490486FF4BC08091714581111CC0809189
S11351008A4590918B45A0918C45B0918D454091F5
S11351103545509136456091374570913845841B2B
S1135120950BA60BB70B8B3F9105A105B10518F0A4
S113513081E0809371458091480486FF14C081E02A
S113514080933A4580918A4590918B45A0918C45F6
S1135150B0918D458093354590933645A09337455E
S1135160B09338450EC08091480486FD0AC0109261
S113517035451092364510923745109238451092B5
S11351803A45E0E4F4E081858064818780914904B4
S113519088230CF04DC080917245882389F1809159
S11351A04F4581111BC0909148049923BCF481E0C0
S11351B00E94F91980918A4590918B45A0918C4564
S11351C0B0918D4580933F4590934045A0934145D0
S11351D0B093424581E080934F4525C0882319F15F
S11351E0809148048823FCF080E00E94F9198091A2
S11351F04A458F5F80934A4581E080934E4513C0B2
S113520080914F45811108C080914804882324F47B
S113521081E080934F4507C08091480488231CF0A7
S113522081E080934E45E0E4F4E0818580688187E5
S11352308091490483FF08C081E080934D45E0E4F8
S1135240F4E0818588608187FF91EF91BF91AF91F0
S11352509F918F917F916F915F914F913F912F918A
S11352600F900BBE0F900FBE0F901F9018951F92BA
S11352700F920FB60F9211240BB60F922F933F93F8
S11352804F935F936F937F938F939F93AF93BF934A
S1135290EF93FF938091890481FF0AC081E080939A
S11352A06E4580931340E0E8F4E081858260818755
S11352B08091890482FF12C080914845882319F0A7
S11352C01092484503C081E08093484581E0809373
S11352D03C45E0E8F4E0818584608187809189041D
S11352E080FF0CC086E193E40E94731181E08093F7
S11352F07045E0E8F4E0818581608187FF91EF915A
S1135300BF91AF919F918F917F916F915F914F91D9
S11353103F912F910F900BBE0F900FBE0F901F90D7
S11353201895F89495E288ED84BF909368000E94E4
S1135330161F80E895E20E944111E0E4F4E08081C8
S11353408061808384818F7E8483C0E2D4E08881FD
S1135350816088830E9400250E94A9118881816050
S113536088838C818E7F8C83E0E8F4E08081886080
S113537080830E948F120E941D260E94261E0E9476
S1135380E8160E94EC1F0E94D81B0E9411262FEFE2
S113539082E597E0215080409040E1F700C0000092
S11353A078940E945E270E94622387EE94E40E9410
S11353B0731182E30E94901A0E94891A0E94181E97
S11353C00E94291E8FE295E70197F1F700C00000C3
S11353D06FE783E20E94AC220E94ED230E940C1D21
S11353E00E949827E6CF5058BB27AA270E940B2A71
S11353F00C94852B0E94772B38F00E947E2B20F092
S113540039F49F3F19F426F40C94742B0EF4E095B0
S1135410E7FB0C946E2BE92F0E94962B58F3BA17D6
S1135420620773078407950720F079F4A6F50C94B6
S1135430B82B0EF4E0950B2EBA2FA02D0B01B90159
S113544090010C01CA01A0011124FF27591B99F0F6
S1135450593F50F4503E68F11A16F040A22F232F02
S1135460342F4427585FF3CF469537952795A79552
S1135470F0405395C9F77EF41F16BA0B620B730BF9
S1135480840BBAF09150A1F0FF0FBB1F661F771F6A
S1135490881FC2F70EC0BA0F621F731F841F48F41F
S11354A0879577956795B795F7959E3F08F0B0CFA8
S11354B09395880F08F09927EE0F9795879508958F
S11354C00E944A2B08F481E008950E94792A0C94E2
S11354D0852B0E947E2B58F00E94772B40F029F4F4
S11354E05F3F29F00C946E2B51110C94B92B0C9442
S11354F0742B0E94962B68F39923B1F3552391F3EF
S1135500951B550BBB27AA2762177307840738F02E
S11355109F5F5F4F220F331F441FAA1FA9F335D08B
S11355200E2E3AF0E0E832D091505040E695001C3F
S1135530CAF72BD0FE2F29D0660F771F881FBB1FF9
S1135540261737074807AB07B0E809F0BB0B802DD7
S1135550BF01FF2793585F4F3AF09E3F510578F003
S11355600C946E2B0C94B92B5F3FE4F3983ED4F368
S1135570869577956795B795F7959F5FC9F7880FD7
S1135580911D9695879597F90895E1E0660F771F29
S1135590881FBB1F621773078407BA0720F0621BBA
S11355A0730B840BBA0BEE1F88F7E09508950E94E5
S11355B0DE2A6894B1110C94B92B08950E949E2B95
S11355C088F09F5798F0B92F9927B751B0F0E1F0C0
S11355D0660F771F881F991F1AF0BA95C9F714C070
S11355E0B13091F00E94B82BB1E008950C94B82B1F
S11355F0672F782F8827B85F39F0B93FCCF38695A9
S113560077956795B395D9F73EF490958095709505
S113561061957F4F8F4F9F4F0895E89409C097FB82
S11356203EF490958095709561957F4F8F4F9F4F75
S11356309923A9F0F92F96E9BB279395F6958795B9
S113564077956795B795F111F8CFFAF4BB0F11F47C
S113565060FF1BC06F5F7F4F8F4F9F4F16C0882323
S113566011F096E911C0772321F09EE8872F762F59
S113567005C0662371F096E8862F70E060E02AF09A
S11356809A95660F771F881FDAF7880F9695879586
S113569097F90895990F0008550FAA0BE0E8FEEF5B
S11356A016161706E807F907C0F012161306E407E2
S11356B0F50798F0621B730B840B950B39F40A26DB
S11356C061F0232B242B252B21F408950A2609F4B9
S11356D0A140A6958FEF811D811D089597F99F67BD
S11356E080E870E060E008959FEF80EC0895002466
S11356F00A941616170618060906089500240A9433
S113570012161306140605060895092E0394000CB8
S113571011F4882352F0BB0F40F4BF2B11F460FF47
S113572004C06F5F7F4F8F4F9F4F089557FD905870
S1135730440F551F59F05F3F71F04795880F97FB51
S1135740991F61F09F3F79F087950895121613060B
S11357501406551FF2CF4695F1DF08C0161617063A
S11357601806991FF1CF869571056105089408956F
S1135770E894BB2766277727CB0197F908950E9401
S11357804A2B08F48FEF089516F00C940B2D0C940B
S1135790742B68940C946E2B0E949E2BA8F399236F
S11357A0C1F3AEF3DF93CF931F930F93FF92C92FEF
S11357B0DD2788232AF02197660F771F881FDAF7E1
S11357C020E030E040E85FEB9FE3883920F0803E42
S11357D038F021968F770E94F429E8EEF0E004C0B7
S11357E00E94F429E5E1F1E00E94192D8B01BE012C
S11357F0EC01FB2E6F5771097595771F880B990B78
S11358000E940F2B28E132E741E35FE30E94272C3B
S1135810AF2D9801AE01FF900F911F91CF91DF91B1
S11358200E940B2A0C94852B0E94272C0C94852B08
S11358300E94772B38F00E947E2B20F0952311F0E4
S11358400C946E2B0C94742B11240C94B92B0E9481
S1135850962B70F3959FC1F3950F50E0551F629FEF
S1135860F001729FBB27F00DB11D639FAA27F00DB5
S1135870B11DAA1F649F6627B00DA11D661F829FDC
S11358802227B00DA11D621F739FB00DA11D621FC1
S1135890839FA00D611D221F749F3327A00D611DDE
S11358A0231F849F600D211D822F762F6A2F1124C0
S11358B09F5750409AF0F1F088234AF0EE0FFF1FF3
S11358C0BB1F661F771F881F91505040A9F79E3F4A
S11358D0510580F00C946E2B0C94B92B5F3FE4F3CC
S11358E0983ED4F3869577956795B795F795E795A0
S11358F09F5FC1F7FE2B880F911D9695879597F9A9
S11359000895FA01EE0FFF1F309621053105A1F12C
S11359106115710561F48038BFE39B0749F1689410
S11359209038810561F08038BFEF9B0741F09923DF
S11359304AF5FF3FE1053105210519F1E894089482
S1135940E795D901AA2329F4AB2FBE2FF85FD0F332
S113595010C0FF5F70F4A695E0F7F73950F019F026
S1135960FF3A38F49F779F930DD00F9007FC90581F
S1135970089546F00C94742B60E070E080E89FE397
S113598008954FE79F775F934F933F932F930E9420
S1135990CC2B2F913F914F915F910E94142C0C942A
S11359A0D92C29F416F00C946E2B0C94B82B0C946F
S11359B0742B0E949E2BA8F39638A0F707F80F9239
S11359C0E8942BE33AEA48EB5FE70E942A2C0F9213
S11359D00F920F924DB75EB70F920E94822DE2E4B0
S11359E0F1E00E94192D4F915F91EF91FF91E595A0
S11359F0EE1FFF1F49F0FE57E0684427EE0F441FD7
S1135A00FA95E1F74195550B0E944C2D0F9007FE36
S1135A100C94402D08959F3F31F0915020F48795C8
S1135A2077956795B795880F911D9695879597F902
S1135A300895DF93CF931F930F93FF92EF92DF921A
S1135A407B018C01689406C0DA2EEF010E94272C9A
S1135A50FE01E894A5912591359145915591A6F3C0
S1135A60EF010E940B2AFE019701A801DA9469F75D
S1135A70DF90EF90FF900F911F91CF91DF910895E8
S1135A809B01AC0160E070E080E89FE30C94652A20
S1135A900C946E2B0C940B2D0E949E2BD8F39923FF
S1135AA0C9F3940F511DA3F39150504094F059F051
S1135AB0882332F0660F771F881F91505040C1F73A
S1135AC09E3F51052CF7880F911D9695879597F960
S1135AD008955F3FACF0983E9CF0BB278695779580
S1135AE06795B79508F4B1609395C1F7BB0F58F764
S1135AF011F460FFE8CF6F5F7F4F8F4F9F4FE3CF6D
S1135B000C94B92BFA01DC01AA0FBB1F9B01AC0159
S1135B10BF5728F4222733274427507820C0B75191
S1135B2090F4AB2F0024469537952795011CA39537
S1135B30D2F3002071F0220F331F441FB395DAF320
S1135B400ED00C94F32961307105A0E88A07B94698
S1135B5030F49B01AC01662777278827907830962C
S1135B6021F02083318342835383089597FB072ECA
S1135B7016F4009407D077FD09D00E94252E07FC67
S1135B8005D03EF4909581959F4F08957095619549
S1135B907F4F0895A1E21A2EAA1BBB1BFD010DC065
S1135BA0AA1FBB1FEE1FFF1FA217B307E407F507C9
S1135BB020F0A21BB30BE40BF50B661F771F881FA5
S1135BC0991F1A9469F760957095809590959B013B
S1135BD0AC01BD01CF010895052E97FB1EF400947E
S1135BE00E94032E57FD07D00E94CA2D07FC03D044
S1135BF04EF40C94032E50954095309521953F4FCB
S1135C004F4F5F4F089590958095709561957F4FA4
S1135C108F4F9F4F0895A29FB001B39FC001A39FD0
S1135C20700D811D1124911DB29F700D811D1124D1
S1135C30911D08950E940B2EA59F900DB49F900D69
S1135C40A49F800D911D11240895AA1BBB1B51E133
S1135C5007C0AA1FBB1FA617B70710F0A61BB70BD8
S1135C60881F991F5A95A9F780959095BC01CD017D
S1135C7008950F931F93CF93DF93869F8001879F8F
S1135C80100D969F100D1124C8010E94552EEC0191
S1135C90009729F0A80160E070E00E946430CE0112
S1135CA0DF91CF911F910F9108950F931F93CF937D
S1135CB0DF938230910510F482E090E0E091E445B6
S1135CC0F091E54520E030E0A0E0B0E0309719F134
S1135CD0408151810281138148175907C8F0841704
S1135CE0950769F4109731F012960C931297139656
