S017000044635F73756374696F6E5F70756D702E73726563E1
S11300000C940F0A0C942E0A0C942E0A0C942E0AAB
S11300100C942E0A0C942E0A0C942E0A0C942E0A7C
S11300200C942E0A0C942E0A0C942E0A0C942E0A6C
S11300300C942E0A0C94BD170C942E0A0C942E0AC0
S11300400C942E0A0C942E0A0C942E0A0C942E0A4C
S11300500C942E0A0C942E0A0C942E0A0C942E0A3C
S11300600C942E0A0C942E0A0C942E0A0C942E0A2C
S11300700C942E0A0C94761D0C94EF170C942E0AF3
S11300800C942E0A0C942E0A0C944C1D0C942E0ADB
S11300900C942E0A0C942E0A0C942E0A0C942E0AFC
S11300A00C942E0A0C942E0A0C942E0A0C942E0AEC
S11300B00C942E0A0C94491E0C942E0A0C942E0AAD
S11300C00C942E0A0C942E0A0C942E0A0C942E0ACC
S11300D00C942E0A0C942E0A0C942E0A0C942E0ABC
S11300E00C942E0A0C942E0A08000000BE92244997
S11300F0123EABAAAA2ABECDCCCC4C3E0000008056
S1130100BEABAAAAAA3E00000000BF000000803FC8
S11301100000000000084178D3BB4387D1133D1988
S11301200E3CC3BD4282AD2B3E68EC8276BED98FB5
S1130130E1A93E4C80EFFFBE01C4FF7F3F000000F9
S113014000000000000FF8001FFC00180C00180C41
S1130150001800001800001FF0000FF800001C0039
S1130160000C00180C00180C001C1C001FFC000FD5
S1130170F80000000007FFFF80001FFFFFE0003FC2
S1130180FFFFF0007FFFFFF8007FFFFFF800FFFF95
S1130190FFFC00FFFFFFFC00FFFFFFFC00FFE01F70
S11301A0FC00FFC00FFC00FF8007FC00FF8007FC81
S11301B000FF8007FC00FF8007FC00FF8007FC00B5
S11301C0FF8007FC00FF8007FC00FF8007FC00FFA6
S11301D08007FC00FF8007FC00FF8007FC00FF8015
S11301E007FC00FF8007FC00FF8007FC00FF80077E
S11301F0FC00FF8007FC00FF8007FC00FF8007FC79
S113020000FF8007FC00FF8007FC00FF8007FC0064
S1130210FF8007FC00FF8007FC00FF8007FC00FF55
S11302208007FC00FF8007FC00FF8007FC00FF80C4
S113023007FC00FF8007FC00FFC00FFC00FFE01F6D
S1130240FC00FFFFFFFC00FFFFFFFC00FFFFFFFCC3
S1130250007FFFFFF8007FFFFFF8003FFFFFF00083
S11302601FFFFFE00007FFFF80000003FE00000007
S113027007FE0000000FFE0000000FFE0000001F3C
S1130280FE0000003FFE0000007FFE000000FFFEB5
S1130290000001FFFE000003FFFE000007FFFE0058
S11302A00007FFFE000007FFFE000007FFFE00003E
S11302B007FBFE000007F3FE000007E3FE00000753
S11302C0C3FE00000783FE00000703FE00000003D6
S11302D0FE00000003FE00000003FE00000003FE19
S11302E000000003FE00000003FE00000003FE0007
S11302F0000003FE00000003FE00000003FE0000F7
S11303000003FE00000003FE00000003FE000000E6
S113031003FE00000003FE00000003FE00000003D3
S1130320FE00000003FE00000003FE00000003FEC8
S113033000000003FE00000FFFFFFF000FFFFFFFA0
S1130340000FFFFFFF000FFFFFFF000FFFFFFF0085
S11303500FFFFFFF000FFFFFFF000FFFFFFF000075
S11303600FFF8000003FFFE000007FFFF80000FF68
S1130370FFFC0001FFFFFE0003FFFFFF0007FFFF7C
S1130380FF8007FFFFFFC00FFC03FFC00FF801FF52
S1130390E01FF000FFE01FF0007FE01FF0007FE0AF
S11303A01FF0007FE01FF0007FE01FF0007FE000FF
S11303B00000FFE0000001FFC0000003FFC00000D8
S11303C007FFC000000FFF8000001FFF0000003F78
S11303D0FF0000007FFE000000FFFC000001FFF8AA
S11303E0000003FFF0000007FFE000000FFFC00063
S11303F0001FFF8000003FFF0000007FFE000000A0
S1130400FFFC000001FFF8000003FFF0000007FFFD
S1130410E000000FFFC000001FFF8000001FFF006E
S113042000003FFE0000003FFC0000003FFFFFFF14
S1130430E03FFFFFFFE03FFFFFFFE03FFFFFFFE084
S11304403FFFFFFFE03FFFFFFFE03FFFFFFFE03F15
S1130450FFFFFFE0003FFFC00000FFFFF00001FFCF
S1130460FFF80003FFFFFE0007FFFFFF000FFFFF81
S1130470FF800FFFFFFFC00FF001FFC00FC000FFA0
S1130480C00FC0007FC00FC0007FC00F80003FC0FE
S11304900000003FC00000003FC00000003FC0005B
S11304A000003FC00000007FC00000007FC00000CB
S11304B000FFC0000003FFC0003FFFFF80007FFF7C
S11304C0FF00007FFFFC00007FFFF000007FFFFFC4
S11304D000007FFFFF80007FFFFFC0003FFFFFC0E1
S11304E0000003FFC0000001FFC00000007FC00047
S11304F000007FC00000003FC00000003FC00000BB
S1130500003FC00000003FC00000003FC00F80005B
S11305103FC00FC0007FC00FC0007FC00FC000FFEE
S1130520C00FF001FFC00FFFFFFF800FFFFFFF00B0
S113053007FFFFFF0003FFFFFE0001FFFFFC0000B9
S1130540FFFFF000003FFFC000000003FE000000BA
S113055007FE0000000FFE0000001FFE0000003F29
S1130560FE0000007FFE000000FFFE000001FFFE11
S1130570000003FFFE000007FFFE00000FFFFE0067
S1130580001FFDFE00003FF9FE00007FF1FE0000A9
S1130590FFE1FE0001FFC1FE0003FF81FE0007FF33
S11305A001FE000FFE01FE001FFC01FE003FF801EA
S11305B0FE007FF001FE00FFE001FE00FFC001FE2F
S11305C000FFFFFFFFE0FFFFFFFFE0FFFFFFFFE093
S11305D0FFFFFFFFE0FFFFFFFFE0FFFFFFFFE0FF84
S11305E0FFFFFFE0000001FE00000001FE0000002C
S11305F001FE00000001FE00000001FE00000001F9
S1130600FE00000001FE00000001FE00000001FEEB
S113061000000001FE00000001FE00000001FE00D9
S1130620000001FE00000001FE00000001FE0000C9
S11306300001FE00000001FE00000001FE001FFF9B
S1130640FFFFC03FFFFFFFC03FFFFFFFC03FFFFFB3
S1130650FFC03FFFFFFFC03FFFFFFFC03FFFFFFFA3
S1130660C03FFFFFFFC03FFFFFFFC03FE0000000AF
S11306703FE00000003FE00000003FE00000003FDA
S1130680E00000003FE00000003FE00000003FE029
S11306900000003FE3FFFC003FE7FFFE003FEFFFE9
S11306A0FF003FFFFFFF803FFFFFFFC03FFFFFFF53
S11306B0E03FFFFFFFE03FFFFFFFF03FFC007FF064
S11306C03FF0003FF83FE0001FF80000000FF80083
S11306D0000007F800000007F800000007F8000019
S11306E00007F800000007F800000007F83FE000EA
S11306F007F83FE00007F83FE0000FF83FF0001F65
S1130700F83FF0003FF83FF8007FF83FFFFFFFF0AD
S11307103FFFFFFFF03FFFFFFFE01FFFFFFFC00FA2
S1130720FFFFFF8007FFFFFF0003FFFFFE0001FF45
S1130730FFFC0001FFFF800003FFFFE0000FFFFF4D
S1130740F8001FFFFFFC003FFFFFFE003FFFFFFF1D
S1130750007FFFFFFF007FFFFFFF00FFF003FF00AC
S1130760FFE001FF00FFC001FF00FF8000FF00FF6A
S113077080007F00FF80007F00FF80000000FF807A
S1130780000000FF80000000FF80000000FF8000E8
S11307900000FF80000000FF9FFE0000FFBFFF80FD
S11307A000FFFFFFE000FFFFFFF000FFFFFFF80086
S11307B0FFFFFFFC00FFFFFFFE00FFFFFFFE00FF47
S11307C0FFFFFF00FFE003FF00FFC001FF00FFC0C9
S11307D001FF00FF8000FF00FF8000FF00FF80009A
S11307E0FF00FF8000FF00FF8000FF00FF8000FF8C
S11307F000FF8001FF00FFC001FF00FFE003FF00D6
S1130800FFFFFFFF00FFFFFFFF00FFFFFFFF007F71
S1130810FFFFFE007FFFFFFE003FFFFFFC001FFF06
S1130820FFF8000FFFFFF0003FFFFFFF803FFFFFD7
S1130830FF803FFFFFFF803FFFFFFF803FFFFFFF81
S1130840803FFFFFFF803FFFFFFF803FFFFFFF80F0
S11308503FFFFFFF80000007FF80000007FF8000CC
S11308600007FF8000000FFF0000000FFF000000E2
S11308701FFE0000001FFE0000001FFE0000003FDE
S1130880FC0000003FFC0000007FF80000007FF83F
S11308900000007FF8000000FFF0000000FFF000FF
S11308A00001FFE0000001FFE0000001FFE00000A4
S11308B003FFC0000003FFC0000007FF8000000723
S11308C0FF80000007FF8000000FFF0000000FFF03
S11308D00000001FFE0000001FFE0000001FFE00BD
S11308E000003FFC0000003FFC0000007FF8000017
S11308F0007FF80000007FF8000000FFF000000017
S1130900FFF0000001FFE0000001FFE0000001FF34
S1130910E0000003FFC0000003FFC0000001FFFF70
S1130920C00007FFFFF0000FFFFFF8001FFFFFFCF0
S1130930003FFFFFFE007FFFFFFF007FFFFFFF0080
S11309407FFFFFFF00FFFFFFFF80FFE003FF80FF4B
S1130950C001FF80FF8000FF80FF00007F80FF0058
S1130960007F80FF00007F80FF00007F80FF000089
S11309707F80FF00007F80FF8000FF80FFC001FFB9
S113098080FFE003FF807FFFFFFF007FFFFFFF008A
S11309903FFFFFFE001FFFFFFC003FFFFFFE007F45
S11309A0FFFFFF007FFFFFFF00FFFFFFFF80FFE06F
S11309B003FF80FFC001FF80FF8000FF80FF000075
S11309C07F80FF00007F80FF00007F80FF00007FAA
S11309D080FF00007F80FF00007F80FF8000FF8099
S11309E0FFC001FF80FFE003FF807FFFFFFF007F68
S11309F0FFFFFF007FFFFFFF003FFFFFFE001FFF21
S1130A00FFFC000FFFFFF80007FFFFF00001FFFFEE
S1130A10C00007FFFF80001FFFFFE0003FFFFFF063
S1130A20007FFFFFF8007FFFFFF800FFFFFFFC00DF
S1130A30FFFFFFFC00FFFFFFFC00FFE01FFC00FFC7
S1130A40C00FFC00FF8007FC00FF8007FC00FF8054
S1130A5007FC00FF8007FC00FF8007FC00FF800705
S1130A60FC00FF8007FC00FFC00FFC00FFE01FFC40
S1130A7000FFFFFFFC00FFFFFFFC00FFFFFFFC0087
S1130A807FFFFFFC007FFFFFFC003FFFFFFC001F18
S1130A90FFFFFC0007FFFFFC00000007FC00000054
S1130AA007FC00000007FC00000007FC0000000732
S1130AB0FC00000007FC00000007FC00000007FC2D
S1130AC000FF8007FC00FF8007FC00FF8007FC009C
S1130AD0FF8007FC00FFC00FFC00FFE01FFC00FFCD
S1130AE0FFFFFC00FFFFFFFC00FFFFFFFC007FFF98
S1130AF0FFF8007FFFFFF8003FFFFFF0001FFFFF3C
S1130B00E00007FFFF800001FFFF800003FFFFE01C
S1130B10000FFFFFF8001FFFFFFC003FFFFFFE0078
S1130B203FFFFFFF007FFFFFFF007FFFFFFF00FF8E
S1130B30F003FF00FFE001FF00FFC001FF00FF80A2
S1130B4000FF00FF80007F00FF80007F00FF800027
S1130B500000FF80000000FF80000000FF80000014
S1130B6000FF80000000FF80000000FF9FFE0000E7
S1130B70FFBFFF8000FFFFFFE000FFFFFFF000FF6B
S1130B80FFFFF800FFFFFFFC00FFFFFFFE00FFFF79
S1130B90FFFE00FFFFFFFF00FFE003FF00FFC001B7
S1130BA0FF00FFC001FF00FF8000FF00FF8000FF87
S1130BB000FF8000FF00FF8000FF00FF8000FF00B7
S1130BC0FF8000FF00FF8001FF00FFC001FF00FF66
S1130BD0E003FF00FFFFFFFF00FFFFFFFF00FFFF39
S1130BE0FFFF007FFFFFFE007FFFFFFE003FFFFFD0
S1130BF0FC001FFFFFF8000FFFFFF0001FFFFFFFC7
S1130C00C03FFFFFFFC03FFFFFFFC03FFFFFFFC02C
S1130C103FFFFFFFC03FFFFFFFC03FFFFFFFC03F9D
S1130C20FFFFFFC03FFFFFFFC03FE00000003FE0C9
S1130C300000003FE00000003FE00000003FE00053
S1130C4000003FE00000003FE00000003FE0000043
S1130C50003FE3FFFC003FE7FFFE003FEFFFFF0024
S1130C603FFFFFFF803FFFFFFFC03FFFFFFFE03F6D
S1130C70FFFFFFE03FFFFFFFF03FFC007FF03FF08E
S1130C80003FF83FE0001FF80000000FF8000000EC
S1130C9007F800000007F800000007F8000000074C
S1130CA0F800000007F800000007F83FE00007F82C
S1130CB03FE00007F83FE0000FF83FF0001FF83F67
S1130CC0F0003FF83FF8007FF83FFFFFFFF03FFFE1
S1130CD0FFFFF03FFFFFFFE01FFFFFFFC00FFFFF1D
S1130CE0FF8007FFFFFF0003FFFFFE0001FFFFFC83
S1130CF000000003FE00000007FE0000000FFE00DD
S1130D0000001FFE0000003FFE0000007FFE000008
S1130D1000FFFE000001FFFE000003FFFE000007CD
S1130D20FFFE00000FFFFE00001FFDFE00003FF964
S1130D30FE00007FF1FE0000FFE1FE0001FFC1FEA6
S1130D400003FF81FE0007FF01FE000FFE01FE000D
S1130D501FFC01FE003FF801FE007FF001FE00FFD2
S1130D60E001FE00FFC001FE00FFFFFFFFE0FFFF08
S1130D70FFFFE0FFFFFFFFE0FFFFFFFFE0FFFFFFDC
S1130D80FFE0FFFFFFFFE0FFFFFFFFE0000001FEC9
S1130D9000000001FE00000001FE00000001FE0052
S1130DA0000001FE00000001FE00000001FE000042
S1130DB00001FE00000001FE00000001FE00000032
S1130DC001FE00000001FE00000001FE0000000121
S1130DD0FE00000001FE00000001FE00000001FE14
S1130DE000000001FE00003FFFC00000FFFFF00014
S1130DF001FFFFF80003FFFFFE0007FFFFFF000FE6
S1130E00FFFFFF800FFFFFFFC00FF001FFC00FC007
S1130E1000FFC00FC0007FC00FC0007FC00F800064
S1130E203FC00000003FC00000003FC00000003F82
S1130E30C00000003FC00000007FC00000007FC071
S1130E40000000FFC0000003FFC0003FFFFF800060
S1130E507FFFFF00007FFFFC00007FFFF000007FAA
S1130E60FFFF00007FFFFF80007FFFFFC0003FFF08
S1130E70FFC0000003FFC0000001FFC00000007FAE
S1130E80C00000007FC00000003FC00000003FC061
S1130E900000003FC00000003FC00000003FC00F42
S1130EA080003FC00FC0007FC00FC0007FC00FC0D4
S1130EB000FFC00FF001FFC00FFFFFFF800FFFFF17
S1130EC0FF0007FFFFFF0003FFFFFE0001FFFFFC21
S1130ED00000FFFFF000003FFFC00007FFFF80009D
S1130EE01FFFFFE0003FFFFFF0007FFFFFF8007FE0
S1130EF0FFFFF800FFFFFFFC00FFFFFFFC00FFFF08
S1130F00FFFC00FFE01FFC00FFC00FFC00FF800798
S1130F10FC00FF8007FC00FF8007FC00FF8007FC4B
S1130F2000FF8007FC00FF8007FC00FF8007FC0037
S1130F30FF8007FC00FF8007FC00FF8007FC00FF28
S1130F408007FC00FF8007FC00FF8007FC00FF8097
S1130F5007FC00FF8007FC00FF8007FC00FF800700
S1130F60FC00FF8007FC00FF8007FC00FF8007FCFB
S1130F7000FF8007FC00FF8007FC00FF8007FC00E7
S1130F80FF8007FC00FF8007FC00FF8007FC00FFD8
S1130F908007FC00FF8007FC00FF8007FC00FFC007
S1130FA00FFC00FFE01FFC00FFFFFFFC00FFFFFF42
S1130FB0FC00FFFFFFFC007FFFFFF8007FFFFFF84E
S1130FC0003FFFFFF0001FFFFFE00007FFFF80006E
S1130FD00000000000000000000000000000000607
S1130FE0000000000F800000000FC000000017F098
S1130FF00000000BFC00000005F90000003AF3803B
S113100000003D7FBC00003EBF3800001F5E78003A
S1131010000FAFFC000007C7FE000003E3FF100051
S113102007F1FFF0000FFAFFE0000FFD7FC0000F93
S11310303EBF80000F1E5F00000F0E2E00003FFF1A
S1131040FFF0003FFFFFF0000000000000018000FF
S1131050000003E000000003F000000005FC0000B5
S11310600002FF000000017E4000000EBCE0000012
S11310700F5FEF00000FAFCE000007D79E00000304
S1131080EBFF000001F1FF800000F8FFC40001FC49
S11310907FFC0003FEBFF80007FF5FF0000FCFAF37
S11310A0E0000F8797C0000F038B80000F0005003E
S11310B0000F000200003FFFFFF0003FFFFFF000C1
S11310C0006000000000F800000000FC00000001C7
S11310D07F00000000BFC00000005F900000002FF0
S11310E03800000E17FBC0000F0BF380000F85E7DC
S11310F0800007C2FFC00003E07FE00001F03FF181
S11311000000F81FFF0001FC2FFE0003FE17FC0087
S113111007FF0BF8000FCF85F0000F8782E0000F68
S1131120038140000F000080000F000000003FFF1B
S1131130FFF0003FFFFFF000C000000000C000000F
S11311400000C000000000C000000000C7E39C00D5
S113115000CFE7FE0000CC66660000CC66660000A7
S1131160CFE6660000CFE6660000CC06660000CC41
S1131170066600000C000000000C000000000C00DB
S1131180000000000000000000000000000000F06B
S113119000000000E000000001C000000001800029
S11311A0000003FC00000007F800000000700000CD
S11311B000006000000000C0000000018000001C6E
S11311C0030000003E00000000633FF00F00637F57
S11311D0F81F8063C0183180638018618063003811
S11311E0C300631FFF8600631FFF0C006300001829
S11311F000630000300063FFFFE00063FFFFC000F6
S11312003E000000001C000000007E7E7E7E000088
S11312101819FC000000001C39FE000000001E79B3
S113122086000000001E7986000000001BD9863D60
S11312308000001999867F8000001999FE63800060
S1131240001819FC618000001819806180000018E2
S113125019806180000018198063800000181980CB
S11312607F8000001819803D80000000000000000D
S113127000000000030C0000003E1CE30C7C3E0058
S11312807F3FF30CFE7F00C333330CC66300C033CF
S1131290330C066300C03333FC0E6300C03333FCED
S11312A01C6300C033330C386300C033330C7063E9
S11312B000C333330CE063007F33330CFE7F003E06
S11312C033330CFE3E00000000000000000000006C
S11312D0C60000738738C60300FFCFFCC63F00CCAE
S11312E0CCCCFE7F00CCCCCCFE6300CCCCCCC66393
S11312F000CCCCCCC67F00CCCCCCC63F00CCCCCC74
S1131300C6030000000000030000000000630000AA
S11313100000007F00000000003E0071C92F7839F2
S1131320888A29284845888A29284845488A292FAF
S1131330484548F22928784528822928604528828A
S1131340292850451881C6CF4839183F8000781E97
S113135000007FC000781E0000FFE000781E00003F
S1131360FFE000381C0000E0E0003C3C0000E0E04E
S1131370003C3C0000E0E0003C3C0000E0E0003CBD
S11313803C0000E0E0001E787F00E0E1FE1E78FFF4
S113139080FFE3FF1E78FF80FFE3FF1E78E380FFFA
S11313A0E3FF0E70E380FFE3870FF0E380E0E38761
S11313B00FF0E380E0E3870FF0E380E0E3FF07E072
S11313C0FFE0E0E3FE07E0FFE0E0E1C007E07EE0ED
S11313D00001C0000000000001FF00000000000345
S11313E0FF800000000003FF8000000000038380F2
S11313F000000000038380000000000383800000DD
S1131400000003FF800000000003FF8000000000D4
S113141001FF000000000000000000000000112493
S11314201FBECFEFCDBFDFE7DEBF13E4A0E0B0E423
S1131430E6EAFCE400E00BBF02C007900D92AA3973
S1131440B107D9F724E4AAE9B3E401C01D92A33497
S1131450B207E1F70E94A7220C9451260C940000D5
S11314606150710920E030E00EC0DC01A20FB31F0F
S11314704C91FC01E60FF71F50815C9340832F5F72
S11314803F4F61507109261737077CF30895CF92B7
S1131490DF92EF92FF920F931F93CF93DF938A0112
S11314A06901C0E0D0E011C07801EC0EFD1E2AE015
S11314B030E040E050E00E94F625605DF701608373
S11314C0622F732F842F952F219661157105810545
S11314D0910551F706C0F801EC0FFD1F80E38083EE
S11314E02196CC15DD05BCF3BE01C8010E94300A6B
S11314F0F801EC0FFD1F1082CE01DF91CF911F91F7
S11315000F91FF90EF90DF90CF900895E0E4F4E026
S113151020812D7F2083208121602083BC0180E0F5
S113152090E00E94172420E030E040E851E40E945B
S11315301E259B01AC0160E07BE187EB9EE40E94E9
S11315406F2320E030E040E05FE30E94FE220E942F
S1131550E823E0E2F8E0608771878681806C868307
S113156008959091240895FFFCCF80932208089554
S11315700F931F93CF93DF938C01C0E0D0E007C09B
S1131580F801EC0FFD1F80810E94B10A2196F80139
S113159001900020E9F73197E01BF10BCE17DF072C
S11315A078F38AE00E94B10ADF91CF911F910F91E5
S11315B008950F931F93CF93DF938C01C0E0D0E085
S11315C007C0F801EC0FFD1F80810E94B10A21962B
S11315D0F80101900020E9F73197E01BF10BCE17D9
S11315E0DF0778F3DF91CF911F910F91089520E0E9
S11315F030E040E154E40E94470A80E194E40E9410
S1131600B80A0895E0E0F4E0808180688083A4E073
S1131610B4E08C9180688C93808180618083808128
S113162080648083E0E4F9E080818063808380814A
S1131630816080838C9180688C93089580934409A1
S1131640809143098823E4F70895DC0120E030E029
S11316500CC0FD01E20FF31F908190934409909117
S113166043099923E4F72F5F3F4F462F50E0241797
S113167035077CF30895E0E0F9E081E0858383E0B9
S113168084830895E0E0F9E080818F7E8083808107
S1131690837F808380818D7F80830895E0E0F9E0FB
S11316A087E6868381E0858383818A60838383815F
S11316B0816083830895CF93DF93C82FD62F8091C1
S11316C005098370833089F48AE490E40E94B80A9F
S11316D020E63AEE01C09C018091050983708330B5
S11316E021F4C9010197232BB1F785E08093050903
S11316F0DD2341F08C2F90E0880F991F8160809347
S1131700070904C08C2F880F8093070980E69AEE9E
S11317102091050924FF06C02091050926FD02C079
S11317200197B1F7892B21F484E590E40E94B80A6B
S11317308091050982FF04C08CE590E40E94B80AF8
S1131740DF91CF910895CF93DF93C0E6DAEE8091D5
S11317500509882314F02197D1F78091050983FDA9
S113176004C08091050982FF09C08FE890E40E94BB
S1131770B80A0E943B0B81E080930F44CD2B39F4CF
S113178084E590E40E94B80A81E080930F4480913C
S11317900809DF91CF91089585E88093A000E0E0E7
S11317A0F6E084E0818381E082838083089581E090
S11317B080930A060895809308060E94D70B8091AF
S11317C00D0680FFFCCF80911006909111060895BC
S11317D080E895E20E94860A0E94420B0E944E0B0A
S11317E061E088E70E945B0B0895CF93DF930E942A
S11317F0A30BC82FD0E0DC2FCC270E94A30BC82B4F
S11318000E94A30B0E94A30BBE0180E090E00E9403
S11318101724DF91CF9108950E94F50B20E030ED5D
S11318204CE455E40E94FD222CEE31E143E853E4FC
S11318300E946F230895CF92DF92EF92FF921F933D
S1131840CF93DF93182FC0E0D0E0C12CD12C7601C8
S113185011C00E940C0C9B01AC01C701B6010E948F
S1131860FE2220E030E040E05FE30E941E256B0191
S11318707C012196812F90E0C817D90754F32FE0FB
S11318803CED4EE452E4C701B6010E941E25DF91EF
S1131890CF911F91FF90EF90DF90CF900895E0E0FB
S11318A0F4E0808180688083E0E2F4E080818061FC
S11318B08083E0E4F4E08081806280830895CF93A4
S11318C0DF93E0E2F4E0248120612483C0E0D4E0EB
S11318D02C812F772C830E94250B8C8180688C832C
S11318E0DF91CF910895CF93DF93E0E2F4E0948108
S11318F090619483C0E0D4E09C819F779C830E9494
S11319001E0B8C818F778C83DF91CF9108950F9379
S11319101F93CF93DF93C0E2D4E09C819F7E9C838E
S113192000E014E0F80194819F7794830E941E0BD9
S1131930F8018481806884838C8180618C83DF9149
S1131940CF911F910F9108950F931F93CF93DF931E
S1131950C0E2D4E09C819F7E9C8300E014E0F80107
S113196094819F7794830E941E0BF8018481806880
S113197084838C8180618C83DF91CF911F910F913F
S11319800895CF93982F9F70C82FC295CF70C067CA
S1131990892F80660E94A40C8C2F0E94A40CCF91E6
S11319A00895CF93C82FC295CF70C0618F700E94E5
S11319B0A40C8C2F0E94A40CCF9108950F931F9315
S11319C0CF93DF93062F122FD8E1D80FC8E1C40FAD
S11319D08D2F0E94D10C802F0E94C10C84EF0E9495
S11319E0870C8D2F0E94A40C86EF0E94870C8C2FED
S11319F00E94A40C87EF0E94870C812F0E94A40CE4
S1131A0088EF0E94870CDF91CF911F910F91089569
S1131A10CF93DF932FE94FE460E080E00E94DE0C77
S1131A20C0E0D0E004C080E00E94730C2196C11590
S1131A3084E6D807C4F3DF91CF910895E0E0F4E0A1
S1131A4084818F778483E0E2F4E0848180618483FD
S1131A50E0E4F4E084818F7D84832FEF88EF95E1C7
S1131A60215080409040E1F700C0000084818062F2
S1131A7084832FEF8EE994E2215080409040E1F777
S1131A8000C0000088EB0E94870C80E10E94A40C37
S1131A9082EE0E94870C2FEF85EA9EE02150804061
S1131AA09040E1F700C000008BEE0E94870C81E8B3
S1131AB00E94870C8BE40E94870C8BE20E94870CA7
S1131AC084EC0E94870C89E80E94870C84E20E94BF
S1131AD0870C82EA0E94870C81EF0E94870C8FE9B1
S1131AE00E94A40C84E80E94870C82EF0E94870C59
S1131AF080E00E94A40C83EF0E94870C82E30E9482
S1131B00A40C80E40E94870C80E50E94870C81ED80
S1131B100E94870C86ED0E94870C88EC0E94870C3B
S1131B2085E00E94870C88ED0E94870C0E94080DB6
S1131B308DEA0E94870C08952F923F924F925F92F4
S1131B406F927F928F929F92AF92BF92CF92DF92C9
S1131B50EF92FF920F931F93CF93DF93CDB7DEB72E
S1131B606197CDBFDEBF8F836C871A012B87902EC0
S1131B702DB73EB72E873F878BEA089F812D11240E
S1131B8086958A8790E0DC01AA0FBB1FAD83BE83D4
S1131B906D01BB0FEE08FF0800E010E0412C512C52
S1131BA0320109831A839D864601570189C0EDB726
S1131BB0FEB7E887F9872DB73EB78D819E81281B34
S1131BC0390B2DBF3EBFADB7BEB71196AB83BC83F7
S1131BD0AD0180E090E005C0FA01E80FF91F108222
S1131BE001968C01092E000C220B330B08151905E4
S1131BF02A053B058CF360E070E030E020E0ED84E2
S1131C003DC0F101E40DF51DF490BFEF4B1A5B0AE2
S1131C106B0A7B0A87E090E02DC0EF2DF0E0082EE0
S1131C2002C0F595E7950A94E2F7E0FF1DC0E32FA3
S1131C30F0E0E88BF98B8F01040F151FD801CC90CD
S1131C40A22FB0E0AA0FBB1FA15FBF4BDC90DC2822
S1131C50F801D082E889F9893196E40FF51F1081E3
S1131C601196AC91A12BA0832F5F233010F03E5F1F
S1131C7020E0019799238CF66F5F7F4F8E2D869518
S1131C808695869590E0681779070CF4BACF6C8531
S1131C90F9816F0F262F4A853F81430F832F0E94BE
S1131CA0DE0C6D817E818B819C810E945F0C888516
S1131CB099858DBF9EBFA981BA811196A983BA83E4
S1131CC0BB858B2F90E0E981FA81E817F9070CF4C2
S1131CD06ECF2E853F852DBF3EBF6196CDBFDEBF43
S1131CE0DF91CF911F910F91FF90EF90DF90CF90F4
S1131CF0BF90AF909F908F907F906F905F904F9028
S1131D003F902F9008952F923F924F925F926F923F
S1131D107F928F929F92AF92BF92CF92DF92EF9277
S1131D20FF920F931F93CF93DF93CDB7DEB76297E4
S1131D30CDBFDEBFA82E688B4A01322E2DB73EB729
S1131D40298B3A8B202E269426942694222D30E03B
S1131D50A32DB0E00E9415269B01AC01AE2DB0E08E
S1131D600E9424262B013C018BEA089F012D11249B
S1131D7006950D87802F90E0DC01AA0FBB1FAE876C
S1131D80BF87CD01092E000CAA0BBB0B8F8398874C
S1131D90A987BA8700E010E08FC0ADB7BEB7AB87A4
S1131DA0BC87EDB7FEB72F813885E21BF30BEDBF7F
S1131DB0FEBF8DB79EB701968D839E83AC0180E0F4
S1131DC090E049825A826B827C82322D232D2F80AF
S1131DD0388449845A8405C0FA01E80FF91F108237
S1131DE001966C01092E000CEE08FF08C214D304FE
S1131DF0E404F50488F349805A806B807C80232EA8
S1131E00322E60E070E030E020E03CC0F401E40DEC
S1131E10F51DD4909FEF491A590A690A790A87E097
S1131E2090E02CC0ED2DF0E0082E02C0F595E7956A
S1131E300A94E2F7E0FF1CC0A32FB0E0A983BA83A1
S1131E407D01E40EF51EF701B080A22FB0E0AA0FC9
S1131E50BB1FA15FBF4BCC90CB28C082E981FA8124
S1131E603196E40FF51FF0801196AC91AF29A08351
S1131E702F5F233010F03E5F20E00197992394F602
S1131E806F5F7F4F822D90E0681779070CF4BECF07
S1131E906889600F262F4D854A0D8A2D0E94DE0C1D
S1131EA06E857F858D819E810E945F0C2B853C858C
S1131EB02DBF3EBF0F5F1F4F832D90E008171907FA
S1131EC00CF46BCF89899A898DBF9EBF6296CDBF72
S1131ED0DEBFDF91CF911F910F91FF90EF90DF90C4
S1131EE0CF90BF90AF909F908F907F906F905F90B6
S1131EF04F903F902F900895FF920F931F93CF938D
S1131F00DF93F62EC22F002381F0D42FD81B0E941A
S1131F10DE0CC0E007C08FEF0E94730C8FEF0E94AD
S1131F20730CCF5FCD17B8F313C00E94DE0C0C2FD7
S1131F3010E00F191109C0E0D0E007C08FEF0E9434
S1131F40730C80E00E94730C2196C017D107B0F384
S1131F50DF91CF911F910F91FF900895FF920F93FE
S1131F601F93CF93DF93F62EC22F002381F0D42F3B
S1131F70D81B0E94DE0CC0E007C08FEF0E94730CD8
S1131F808FEF0E94730CCF5FCD17B8F313C00E947C
S1131F90DE0C0C2F10E00F191109C0E0D0E007C0CF
S1131FA088EF0E94730C80E00E94730C2196C01786
S1131FB0D107B0F3DF91CF911F910F91FF90089556
S1131FC0DF92EF92FF920F931F93CF93DF93F82E3C
S1131FD0D62EE42E022F061B842F90E08F19910930
S1131FE063E070E00E94C025D62F10E013C0612F7B
S1131FF06D0D262F4E2D8F2D0E94DE0CC0E007C0E4
S11320008FEF0E94730C8FEF0E94730CCF5FCD177C
S1132010B8F31F5F101758F3DF91CF911F910F9101
S1132020FF90EF90DF900895DF92EF92FF920F936D
S11320301F93CF93DF93F82ED62EE42E022F061B88
S1132040D42FD81B10E013C0612F6D0D262F4E2DF9
S11320508F2D0E94DE0CC0E007C080E00E94730C4C
S113206080E00E94730CCF5FCD17B8F31F5F101789
S113207058F3DF91CF911F910F91FF90EF90DF9074
S11320800895CF93DF93A0E4B4E08C918F7B8C937D
S113209056968C915697816056968C935697E0E8A5
S11320A0F4E080818D7F808381898260818B80814F
S11320B08B7F808382898260828BC0EAD4E08881AE
S11320C08B7F88838A8982608A8B80818E7F8083DC
S11320D080898260808B8C9184608C93E0E2F4E050
S11320E0808180628083DF91CF9108958091DB436A
S11320F0882369F181E08093C34380910E408F5F10
S113210080930E40843018F081E080930E408091DB
S11321100E40823049F0833061F0813079F487EAEF
S113212090E40E94B80A11C088EC90E40E94B80AB6
S11321300CC08BEE90E40E94B80A07C081E0809343
S11321400E408BE091E40E94B80A1092DB4308959C
S11321500F938091DA43882309F45EC18091024091
S11321608F5F80930240853018F081E080930240B5
S113217080910240823009F453C018F4813041F058
S113218027C1833009F494C0843009F4D9C020C134
S11321908091D943882359F0E0E0FAE0808181609E
S11321A080838091094090910A4080A791A78091F3
S11321B0094090910A408093A0439093A143809159
S11321C00B40811113C08091AA439091AB4380933B
S11321D0A0439093A143E0E0FAE080818160808392
S11321E08091AA439091AB4380A791A781E080930B
S11321F09F4308E221E346EE5DE06AE285E30E9444
S11322009C0D21E34BED5EE068E282E40E949C0DAC
S11322102FE048E351E16FE582E40E949C0DF9C090
S11322208091D943882359F0E0E0FAE0808181600D
S11322308083809107409091084080A791A7809166
S11322400740909108408093A0439093A1438091CC
S11322500B40811113C08091AA439091AB438093AA
S1132260A0439093A143E0E0FAE080818160808301
S11322708091AA439091AB4380A791A781E080937A
S11322809E4308E221E341EF5CE06AE285E30E94B9
S11322909C0D21E34BED5EE068E282E40E949C0D1C
S11322A02FE048E351E16FE582E40E949C0DB1C048
S11322B08091D943882359F0E0E0FAE0808181607D
S11322C08083809105409091064080A791A78091DA
S11322D00540909106408093A0439093A143809140
S11322E00B40811113C08091AA439091AB4380931A
S11322F0A0439093A143E0E0FAE080818160808371
S11323008091AA439091AB4380A791A781E08093E9
S11323109D4308E221E34CEF5BE06AE285E30E941F
S11323209C0D21E34BED5EE068E282E40E949C0D8B
S11323302FE048E351E16FE582E40E949C0D69C0FF
S11323408091D943882359F0E0E0FAE080818160EC
S11323508083809103409091044080A791A780914D
S11323600340909104408093A0439093A1438091B3
S11323700B40811113C08091AA439091AB43809389
S1132380A0439093A143E0E0FAE0808181608083E0
S11323908091AA439091AB4380A791A781E0809359
S11323A09C4308E221E347E05BE06AE285E30E94A4
S11323B09C0D21E34BED5EE068E282E40E949C0DFB
S11323C02FE048E351E16FE582E40E949C0D21C0B7
S11323D08091094090910A408093A0439093A14337
S11323E081E080939F4308E221E346EE5DE06AE2E8
S11323F085E30E949C0D21E34BED5EE068E282E4FC
S11324000E949C0D2FE048E351E16FE582E40E94B5
S11324109C0D1092DA43D4C0882309F4D1C0809172
S1132420D943811109C08091B443811105C08091C1
S1132430DC43882309F4C4C0809102408F5F8093F9
S11324400240853018F081E0809302408091024080
S1132450823069F118F4813041F08FC0833009F47F
S113246048C0843009F467C088C0E0E0FAE08081A5
S1132470816080838091094090910A4080A791A750
S113248008E221E346EE5DE06AE285E30E949C0DEA
S113249021E34BED5EE068E282E40E949C0D2FE0B4
S11324A048E351E16FE582E40E949C0D87C0E0E0BF
S11324B0FAE0808181608083809107409091084098
S11324C080A791A708E221E341EF5CE06AE285E39B
S11324D00E949C0D21E34BED5EE068E282E40E94E1
S11324E09C0D2FE048E351E16FE582E40E949C0DCE
S11324F065C0E0E0FAE080818160808380910540DE
S11325009091064080A791A708E221E34CEF5BE09D
S11325106AE285E30E949C0D21E34BED5EE068E2F4
S113252082E40E949C0D2FE048E351E16FE582E4D0
S11325300E949C0D43C0E0E0FAE0808181608083CA
S1132540809103409091044080A791A708E221E381
S113255047E05BE06AE285E30E949C0D21E34BEDDA
S11325605EE068E282E40E949C0D2FE048E351E1C2
S11325706FE582E40E949C0D21C0809109409091F6
S11325800A408093A0439093A14381E080939F43AA
S113259008E221E346EE5DE06AE285E30E949C0DD9
S11325A021E34BED5EE068E282E40E949C0D2FE0A3
S11325B048E351E16FE582E40E949C0D1092DA43F6
S11325C00F910895882389F0E0E8F4E0848188601D
S11325D08483E0E0FAE08081816080838091A0437D
S11325E09091A14380A791A7089581110EC0E0E8BE
S11325F0F4E08481877F8483E0E0FAE08081816075
S1132600808310A611A61092D94308958091D843CF
S11326108823A9F18091D94381110AC08091A043F4
S11326209091A1438093280A9093290A892B01F55C
S11326301092D9431092B7431092BB431092BA43FD
S11326401092AC431092AD431092AE431092AF433C
S11326501092B6431092B5431092B0431092B14316
S11326601092B2431092B34380E00E94E21205C07C
S113267081E08093D9430E94E2121092D8430895D6
S11326800E9476100E9406130E94A8100895CF920B
S1132690DF92EF92FF920E941B0C6B017C0160930E
S11326A00744709308448093094490930A4420E0BB
S11326B030E0A9010E946A2388234CF41092074455
S11326C0109208441092094410920A4416C020E063
S11326D030E84BE354E4C701B6010E94C92418163C
S11326E064F480E090E8ABE3B4E48093074490930F
S11326F00844A0930944B0930A4480910E40823068
S113270049F1833009F478C0813009F0AAC080E02F
S113271090E8ABEBB4E48093F3439093F443A09339
S1132720F543B093F64320E030E048EC52E4609186
S11327300744709108448091094490910A440E948E
S11327401E256093F7437093F8438093F943909365
S1132750FA43ACC0609107447091084480910944E5
S113276090910A4429E134E04EEA5FE30E941E2579
S11327706093034470930444809305449093064407
S11327800F2EC12CF0E4DF2EFCE1EF2EF5E4FF2E3A
S1132790F02DC092F343D092F443E092F543F092CB
S11327A0F64320E030E84BE354E40E94C9241816B1
S11327B064F480E090E8ABE3B4E480930344909342
S11327C00444A0930544B093064420E030E048EC70
S11327D052E46091034470910444809105449091C3
S11327E006440E941E256093F7437093F843809338
S11327F0F9439093FA435AC0609107447091084496
S11328008091094490910A442AE035E848E05EE367
S11328100E941E256093FF437093004480930144FB
S1132820909302440F2EC12CD12CF8E4EF2EF3E444
S1132830FF2EF02DC092F343D092F443E092F5437F
S1132840F092F64320E030E048EC52E40E941E256A
S11328506093F7437093F8438093F9439093FA435A
S113286025C081E080930E4080E090E8ABEBB4E4B7
S11328708093F3439093F443A093F543B093F643CA
S113288020E030E048EC52E4609107447091084441
S11328908091094490910A440E941E256093F74355
S11328A07093F8438093F9439093FA43FF90EF9029
S11328B0DF90CF9008958091480483FF03C081E0A6
S11328C08093BC430895E0E4F4E0848180618483D0
S11328D02FEF8EE994E2215080409040E1F700C050
S11328E0000084818F7E84832FEF8EE994E221504F
S11328F080409040E1F700C000000E94E80B08957A
S1132900E0E4F4E080818F77808387898160878B1E
S11329108081877F808383898160838B08950E946F
S113292080148091480483FF04C081E08093BC43F9
S113293008951092BC4308958091B9438823B1F05F
S11329408091480483FF09C081E08093BC43E0E2A6
S1132950F4E084818160848307C01092BC43E0E288
S1132960F4E084818E7F84831092B9438091BC43C8
S1132970882329F0E0E2F4E084818160848308956F
S11329800F931F938091BB438823F1F19091B74338
S113299091113AC09091B843911136C09091BA43C5
S11329A0992391F19091B643923070F14091EB43A9
S11329B05091EC436091ED437091EE430091AC4330
S11329C01091AD432091AE433091AF43401B510B66
S11329D0620B730B483E534061057105A8F481E016
S11329E00E94E21281E08093B7431092BB4310929D
S11329F0BA431092AC431092AD431092AE4310927E
S1132A00AF431092B643BAC0882359F19091BA43A8
S1132A10992339F19091B743992319F180E00E94E9
S1132A20E2121092B7431092BB431092BA43109231
S1132A30AC431092AD431092AE431092AF43109248
S1132A40B6438091B543882309F498C01092B543E6
S1132A501092B0431092B1431092B2431092B34318
S1132A608DC0882381F19091B74391112CC090912E
S1132A70B843911128C09091B643911124C090910C
S1132A80BA43911120C04091EB435091EC436091C3
S1132A90ED437091EE430091AC431091AD4320910E
S1132AA0AE433091AF43401B510B620B730B493E55
S1132AB053406105710538F081E00E94E21281E023
S1132AC08093B8435BC09091BA439923F1F020916D
S1132AD0B8432223D1F02091B6432223B1F08823B6
S1132AE0A1F080E00E94E2121092B8431092BA431F
S1132AF01092BB431092B6431092AC431092AD4374
S1132B001092AE431092AF4339C0811106C09111A7
S1132B1004C08091B643882389F18091B743811121
S1132B202DC08091B843811129C08091EB439091CD
S1132B30EC43A091ED43B091EE434091AC435091EE
S1132B40AD436091AE437091AF43841B950BA60BCC
S1132B50B70B893E9340A105B10580F01092B743AD
S1132B601092AC431092AD431092AE431092AF4317
S1132B701092BB431092BA431092B6431F910F9127
S1132B8008954F925F926F927F928F929F92AF922D
S1132B90BF92CF92DF92EF92FF928091B443882349
S1132BA009F4DDC08091B743811104C08091D943F9
S1132BB08823C1F08091B543811114C081E08093D2
S1132BC0B5438091EB439091EC43A091ED43B091D8
S1132BD0EE438093B0439093B143A093B243B09338
S1132BE0B343BDC08091B5438823C9F14091EB4301
S1132BF05091EC436091ED437091EE43C090B0432B
S1132C00D090B143E090B243F090B3434C195D09C6
S1132C106E097F09413157426105710500F180E079
S1132C200E94E2121092B5431092B0431092B14345
S1132C301092B2431092B3431092B7431092AC4334
S1132C401092AD431092AE431092AF431092BB4327
S1132C501092BA431092B6431092D94380C088238D
S1132C6009F47DC0C090EB43D090EC43E090ED4379
S1132C70F090EE438091B0439091B143A091B24360
S1132C80B091B34326013701481A590A6A0A7B0AEC
S1132C9080E1481687E258066104710408F05FC0B9
S1132CA08090F7439090F843A090F943B090FA4392
S1132CB0A50194016091FB437091FC438091FD4315
S1132CC09091FE430E94FD220E94E1239B01772301
S1132CD024F422273327261B370BB901330F880B23
S1132CE0990B0E9419242091F3433091F4434091AD
S1132CF0F5435091F6430E94C9241816ACF499E8A0
S1132D00491693E159066104710470F0D701C601B4
S1132D1088589341A109B1098093B0439093B1437A
S1132D20A093B243B093B3438091EF439091F043A7
S1132D30A091F143B091F243C81AD90AEA0AFB0AF6
S1132D4089EEC81683E0D806E104F10440F08092CD
S1132D50FB439092FC43A092FD43B092FE43FF904C
S1132D60EF90DF90CF90BF90AF909F908F907F9027
S1132D706F905F904F9008958091BB43882331F00A
S1132D8081E00E94E2121092BB4308958091BA43FD
S1132D90882329F080E00E94E2121092BA43089539
S1132DA08091DC43882319F00E94C01404C081116F
S1132DB002C00E94BC160E949C1408950E94CC0B71
S1132DC008958F929F92AF92BF92CF92DF92EF922B
S1132DD0FF92CF93C0E018C082E00E94DB0B4091C9
S1132DE0C4435091C5436091C6437091C743480F93
S1132DF0591F611D711D4093C4435093C543609393
S1132E00C6437093C743CF5FC43130F32C2F30E0F7
S1132E1040E050E06091C4437091C5438091C64343
S1132E209091C7430E94D4252093C4433093C54353
S1132E304093C6435093C743CA01B9010E94172463
S1132E4023E333E343E550E40E941E2520E030EF02
S1132E504FE755E40E946F236B017C016093D443D8
S1132E607093D5438093D6439093D74320E030E4C6
S1132E704CE156E40E946F234B015C016093C8430C
S1132E807093C9438093CA439093CB43A70196019F
S1132E9063E373E383E590E40E94FD22A5019401BA
S1132EA00E946F236093CC437093CD438093CE43B1
S1132EB09093CF4320E030E44CE156E40E946F232A
S1132EC00E94D62423E931EA48E959E30E941E25E9
S1132ED02FE03FEC4BE55BE30E94FE229B01AC013B
S1132EE060E070E080E89FE30E946F2323E333E90E
S1132EF048E853E40E94FD226093D0437093D14389
S1132F008093D2439093D343CF91FF90EF90DF907F
S1132F10CF90BF90AF909F908F9008958FEB9DE5D9
S1132F2080931C0B90931D0BE1E1FBE08081808377
S1132F30E5E1FBE0808181608083E0E1FBE080816A
S1132F408160808308958FEB9DE580932C0B909393
S1132F502D0BE1E2FBE080818083E5E2FBE08081F0
S1132F6081608083E0E2FBE080818160808308955A
S1132F700E948E170E94A31708951F920F920FB6F6
S1132F800F9211240BB60F928F939F93AF93BF931D
S1132F90EF93FF938091EB439091EC43A091ED4329
S1132FA0B091EE430196A11DB11D8093EB43909324
S1132FB0EC43A093ED43B093EE43E6E1FBE0808164
S1132FC081608083FF91EF91BF91AF919F918F9129
S1132FD00F900BBE0F900FBE0F901F9018951F926D
S1132FE00F920FB60F9211240BB60F920F931F93EB
S1132FF02F933F934F935F936F937F938F939F93FD
S1133000AF93BF93EF93FF934091E7435091E8430D
S11330106091E9437091EA434F5F5F4F6F4F7F4F79
S11330204093E7435093E8436093E9437093EA4342
S11330308091E3439091E443A091E543B091E6434A
S11330400196A11DB11D8093E3439093E443A093A3
S1133050E543B093E6430091DF431091E0432091B0
S1133060E1433091E2430F5F1F4F2F4F3F4F0093D7
S1133070DF431093E0432093E1433093E243493E1E
S113308053406105710558F021E02093DE4310920E
S1133090E7431092E8431092E9431092EA43893CD3
S11330A09105A105B10558F081E08093DD431092AC
S11330B0E3431092E4431092E5431092E643E6E2C0
S11330C0FBE0808181608083FF91EF91BF91AF919C
S11330D09F918F917F916F915F914F913F912F912C
S11330E01F910F910F900BBE0F900FBE0F901F906A
S11330F0189581E08093C2438093C14308950E9450
S1133100791880910B44882321F080910C4481111B
S113311004C00E944F0C0E941E0D089580910D4022
S113312090910E40891749F081E08093C2438093C7
S1133130C0438093C14390930D409091BF438091CD
S1133140B443981729F08093BF4381E080930C40E7
S11331508091DE43882381F081E08093C243809193
S1133160DC43811104C08091BD43811103C081E01F
S11331708093BE431092DE438091DD43882329F07F
S113318081E08093C0431092DD4308950F932AE0B9
S113319044E060E080E00E94141008E32EE14BE478
S11331A053E162E38EE10E949C0D00E328E04BE1D1
S11331B053E164E68FE10E949C0D0F9108950F93F3
S11331C02EE146E060E080E00E94E00F01E02EE1A5
S11331D04FE46EE180E00E94AE0F2DE14FE46DE11B
S11331E080E00E94AE0F00E022E743E36FE183E357
S11331F00E94AE0F01E022E74FE462E780E00E9404
S1133200AE0F23E74FE463E780E00E94AE0F0F9117
S113321008950F9300E02EE940E060E080E00E9412
S11332207C0F01E020E04FE460E080E00E94AE0FFC
S113323021E04FE461E080E00E94AE0F00E02EE95F
S11332404FE460E08FE40E947C0F01E02FE94FE43B
S11332506FE980E00E94AE0F2EE94FE46EE980E052
S11332600E94AE0F0F910895EF92FF920F931F9358
S1133270CF93DF93C82FD62F6091074470910844F1
S11332808091094490910A440E94E1239B012F3EBE
S113329082E0380744F010920744109208441092D8
S11332A0094410920A44EAE0F0E0C901BF010E9417
S11332B0C025182FCB01BF010E94C025F82EC901DB
S11332C064E670E00E94C025E62E08E221E345E7AB
S11332D051E06D2F8C2F0E94830EEF2C21E345E7E4
S11332E051E06D2F8DE08C0F0E94830EE12E21E3BF
S11332F045E751E06D2F8AE18C0F0E94830E809187
S1133300C143882351F002E32DE04DEC52E16FE517
S11333108FE10E949C0D1092C143DF91CF911F91C8
S11333200F91FF90EF900895EF92FF920F931F93E8
S1133330CF93DF93C82FD62F609103447091044438
S113334080910544909106440E94E1239B012F3E05
S113335082E0380744F0109203441092044410921F
S1133360054410920644EAE0F0E0C901BF010E945E
S1133370C025182FCB01BF010E94C025F82EC9011A
S113338064E670E00E94C025E62E08E221E345E7EA
S113339051E06D2F8C2F0E94830EEF2C21E345E723
S11333A051E06D2F8DE08C0F0E94830EE12E21E3FE
S11333B045E751E06D2F8AE18C0F0E94830E8091C6
S11333C0C143882351F009E32DE042E752E16FE560
S11333D08FE10E949C0D1092C143DF91CF911F9108
S11333E00F91FF90EF900895EF92FF920F931F9328
S11333F0CF93DF93182FF62E6091FF437091004412
S113340080910144909102440E94E123EB01072E34
S1133410000C880B990B0E9419242AE037ED4FE128
S113342051E40E94C924181644F41092FF431092E8
S113343000441092014410920244CE016AE070E00C
S11334400E94C025D62FC82FE12C08E221E345E7CE
S113345051E06F2D812F0E94830E09E026E04AE09F
S113346052E165E580E10E949C0DED2E08E221E326
S113347045E751E06F2D8DE0810F0E94830EEC2E05
S113348021E345E751E06F2D8AE1810F0E94830E0D
S11334908091C143882351F009E32EE040E152E1D9
S11334A06FE58FE10E949C0D1092C143DF91CF9193
S11334B01F910F91FF90EF900895DF92EF92FF928A
S11334C00F931F93CF93DF93F82ED62EE42E022F63
S11334D0061BD42FD81B10E013C0612F6D0D262FAF
S11334E04E2D8F2D0E94DE0CC0E007C080E00E94AC
S11334F0730C80E00E94730CCF5FCD17B8F31F5F8D
S1133500101758F3DF91CF911F910F91FF90EF9017
S1133510DF900895DF92EF92FF920F931F93CF9362
S1133520DF93F82ED62EE42E022F061BD42FD81BA1
S113353010E013C0612F6D0D262F4E2D8F2D0E948C
S1133540DE0CC0E007C08FEF0E94730C8FEF0E9467
S1133550730CCF5FCD17B8F31F5F101758F3DF91CB
S1133560CF911F910F91FF90EF90DF9008952DE17F
S113357030E042E050E060E070E080E090E00E94E3
S11335808A1A08950F9326E946E460E080E00E94D9
S113359014100E94B71A0E9409190E94DF18109291
S11335A00744109208441092094410920A446AE2B3
S11335B086E00E9434198091094090910A408093DA
S11335C0A0439093A14381E080939F4308E221E3C9
S11335D046EE5DE06AE285E30E949C0D21E34BED3B
S11335E05EE068E282E40E949C0D2FE048E351E132
S11335F06FE582E40E949C0D2FEF82E597E0215055
S113360080409040E1F700C000000F9108950F93AF
S11336101F93CF93DF9327EE32E442ED5DE3609195
S11336200744709108448091094490910A440E948F
S11336301E250E94E823162F072FC62FD02F809116
S11336400040909101408C179D07A8F4CD34D1051A
S113365010F0CCE4D0E04C2F4E5F8E5F50E02DE1B3
S113366030E062E070E090E00E948A1AC09300406B
S1133670D093014016C0C817D90798F48E5F92E022
S1133680910F482F50E02DE130E062E070E0892F87
S113369090E00E945D1A812F902F809300409093B8
S11336A00140DF91CF911F910F9108950F930E94D4
S11336B08E188091C2438823E9F080910E408230B5
S11336C049F0833061F0813079F46AE286E00E9447
S11336D034190EC06AE286E00E94941909C06AE2B5
S11336E086E00E94F41904C06AE286E00E9434195C
S11336F01092C2438091C043882321F00E94071B8B
S11337001092C04380910C40882339F18091B443D6
S1133710882391F08CE391E40E94B80AE0E2F4E09B
S11337208481806284830AE22BE143E851E168E703
S11337308DE20E949C0D0FC086E591E40E94B80AB8
S1133740E0E2F4E084818F7D848326E94DE468E738
S11337508DE20E94141010920C408091BE43882385
S113376009F457C08091DC43882309F442C0E0E4A3
S1133770F4E084818460848380919A4390919B4394
S1133780019680939A4390939B43039724F010925D
S11337909A4310929B4380919A4390919B4381302A
S11337A0910571F082309105A1F0892BD9F408E2DA
S11337B028E140EC50E16AE787E00E949C0D16C0C6
S11337C008E228E148E450E16AE787E00E949C0DA2
S11337D00DC008E228E140ED5FE06AE787E00E945F
S11337E09C0D04C010929A4310929B431092BD43C7
S11337F00EC0E0E4F4E084818B7F848326E94EE10B
S113380068E787E00E94141081E08093BD43109222
S1133810BE430F910895E0E0F4E0808181608083ED
S113382080818260808380898860808BE0E0FAE018
S113383088EB9BE086A397A310A611A610A211A261
S113384081818061818381818360818380818160C2
S1133850808380818260808308959DE994BF8093F2
S1133860001008951F93CF93DF93EC01162F8091DE
S1133870021081FDFCCF83E190E00E942D1CDC5EF0
S1133880188380E090E00E942D1CDF91CF911F915E
S11338900895209102100E9443260895AF92BF928A
S11338A0CF92DF92EF92FF920F931F93CF93DF9308
S11338B081E090E00E94491CA82E83E090E00E94E1
S11338C0491C91E0811101C090E090930B4400E009
S11338D0C12CD12C7601B12C6DC081E00E941B0C4F
S11338E060930744709308448093094490930A4476
S11338F080910F44882379F080910D4490910E4477
S1133900019680930D4490930E4410920F4481E7E6
S113391091E40E94B80A20910744309108444091F0
S1133920094450910A44C701B6010E946A238111D7
S113393006C081E891E40E94B80A1F5F05C08CE9C3
S113394091E40E94B80A10E0C0900744D090084463
S1133950E0900944F0900A44219603C0C0E0D0E00E
S113396010E0CA30D1050CF4B8CF80910D44909189
S11339700E44049714F4163040F00E9463140F5F51
S113398010920D4410920E4415C010920D441092E2
S11339900E4410920B4460E081E090E00E94321CDF
S11339A060910B4483E090E00E94321C00E0BB2451
S11339B0B394A12CB11002C0033080F2033088F11B
S11339C061E06A0D81E080930B4481E090E00E9405
S11339D0321C60910B4483E090E00E94321C8FE221
S11339E095E70197F1F700C000006091DC4382E0A5
S11339F090E00E94321C6091B44386E090E00E9403
S1133A00321C61E085E090E00E94321C8FE295E771
S1133A100197F1F700C0000061E081E490E00E94AA
S1133A204B26DF91CF911F910F91FF90EF90DF9084
S1133A30CF90BF90AF90089580E00E94E2120E9460
S1133A405B140E94C6180E9463140E944E1C0895C1
S1133A5085E090E00E94491C91E0811101C090E052
S1133A6090930C4460E085E090E00E94321C83E077
S1133A7090E00E94491C91E0811101C090E0909374
S1133A800B44992341F082E090E00E94491C86E0B7
S1133A9090E00E94491C08951F920F920FB60F9256
S1133AA011240BB60F928F93EF93FF938091A90487
S1133AB082FF12C08091DC43882319F01092DC430A
S1133AC003C081E08093DC4381E08093A843E0EA73
S1133AD0F4E0818584608187FF91EF918F910F904D
S1133AE00BBE0F900FBE0F901F9018951F920F9250
S1133AF00FB60F9211240BB60F922F933F934F934F
S1133B005F936F937F938F939F93AF93BF93EF9341
S1133B10FF938091490486FF4BC08091DB43811160
S1133B201CC08091EB439091EC43A091ED43B09184
S1133B30EE434091A2435091A3436091A4437091FA
S1133B40A543841B950BA60BB70B8B3F9105A105D1
S1133B50B10518F081E08093DB438091480486FF2F
S1133B6014C081E08093A7438091EB439091EC4390
S1133B70A091ED43B091EE438093A2439093A3436D
S1133B80A093A443B093A5430EC08091480486FD3E
S1133B900AC01092A2431092A3431092A44310921D
S1133BA0A5431092A743E0E4F4E081858064818713
S1133BB08091490488230CF04DC08091DC43882314
S1133BC089F18091BB4381111BC0909148049923D2
S1133BD0BCF481E00E94E2128091EB439091EC43AB
S1133BE0A091ED43B091EE438093AC439093AD43E9
S1133BF0A093AE43B093AF4381E08093BB4325C011
S1133C00882319F1809148048823FCF080E00E9405
S1133C10E2128091B6438F5F8093B64381E0809334
S1133C20BA4313C08091BB43811108C080914804FA
S1133C30882324F481E08093BB4307C08091480427
S1133C4088231CF081E08093BA43E0E4F4E08185AA
S1133C50806881878091490483FF08C081E0809354
S1133C60B943E0E4F4E0818588608187FF91EF91B6
S1133C70BF91AF919F918F917F916F915F914F9180
S1133C803F912F910F900BBE0F900FBE0F901F907E
S1133C9018951F920F920FB60F9211240BB60F9224
S1133CA02F933F934F935F936F937F938F939F9340
S1133CB0AF93BF93EF93FF938091890481FF0AC070
S1133CC081E08093D84380930B40E0E8F4E0818561
S1133CD0826081878091890482FF12C08091B443FD
S1133CE0882319F01092B44303C081E08093B44355
S1133CF081E08093A943E0E8F4E0818584608187D2
S1133D008091890480FF0CC089EB91E40E94B80A79
S1133D1081E08093DA43E0E8F4E081858160818783
S1133D20FF91EF91BF91AF919F918F917F916F918F
S1133D305F914F913F912F910F900BBE0F900FBE4B
S1133D400F901F90189510920B4088ED91E40E94FB
S1133D50B80A8EE092E40E94D90A60919F4370E011
S1133D6080E090E00E94F70A8EE192E40E94D90A72
S1133D7060919E4370E080E090E00E94F70A8EE23A
S1133D8092E40E94D90A60919D4370E080E090E043
S1133D900E94F70A8EE392E40E94D90A60919C4340
S1133DA070E080E090E00E94F70A6FC38091A9431D
S1133DB0882309F469C080919F43882309F464C06F
S1133DC08EE492E40E94B80A8091A6438F5F8093A8
S1133DD0A643853018F081E08093A6438091A643E2
S1133DE08230B9F018F4813031F03DC08330F9F0FD
S1133DF0843059F138C0E0E0FAE08081816080834A
S1133E0088E097E080A791A78093094090930A40A7
S1133E1030C0E0E0FAE08081816080838AE397E04B
S1133E2080A791A78093094090930A4022C0E0E0C4
S1133E30FAE08081816080838CE697E080A791A777
S1133E408093094090930A4014C0E0E0FAE0808136
S1133E50816080838EE997E080A791A780930940D1
S1133E6090930A4006C088E097E0809309409093BD
S1133E700A401092A9438091094090910A4080938E
S1133E80AA439093AB4301C38091A843882309F4C8
S1133E9069C080919F43882309F464C089E692E451
S1133EA00E94B80A8091A6438F5F8093A643853011
S1133EB018F081E08093A6438091A6438230B9F044
S1133EC018F4813031F03DC08330F9F0843059F179
S1133ED038C0E0E0FAE080818160808388E097E088
S1133EE080A791A78093094090930A4030C0E0E0F6
S1133EF0FAE080818160808386ED96E080A791A7B7
S1133F008093094090930A4022C0E0E0FAE0808167
S1133F108160808384EA96E080A791A7809309401A
S1133F2090930A4014C0E0E0FAE0808181608083CD
S1133F3082E796E080A791A78093094090930A4076
S1133F4006C088E097E08093094090930A4010925D
S1133F50A8438091094090910A408093AA4390938A
S1133F60AB4393C28091A943882309F469C080912B
S1133F709E43882309F464C084E892E40E94B80A4A
S1133F808091A6438F5F8093A643853018F081E02B
S1133F908093A6438091A6438230B9F018F481300F
S1133FA031F03DC08330F9F0843059F138C0E0E09D
S1133FB0FAE080818160808380ED97E080A791A7FB
S1133FC0809307409093084030C0E0E0FAE080819D
S1133FD08160808382E098E080A791A78093074066
S1133FE09093084022C0E0E0FAE080818160808301
S1133FF084E398E080A791A78093074090930840BA
S113400014C0E0E0FAE08081816080838AEC98E06B
S113401080A791A7809307409093084006C080ED45
S113402097E080930740909308401092A9438091B1
S11340300740909108408093AA439093AB4325C2D4
S11340408091A843882309F469C080919E43882302
S113405009F464C080EA92E40E94B80A8091A643FD
S11340608F5F8093A643853018F081E08093A64348
S11340708091A6438230B9F018F4813031F03DC00C
S11340808330F9F0843059F138C0E0E0FAE08081FF
S11340908160808380ED97E080A791A7809307409B
S11340A09093084030C0E0E0FAE080818160808332
S11340B08EE997E080A791A78093074090930840EA
S11340C022C0E0E0FAE08081816080838CE697E0A2
S11340D080A791A7809307409093084014C0E0E024
S11340E0FAE08081816080838AE397E080A791A7CA
S11340F0809307409093084006C080ED97E080933A
S11341000740909308401092A843809107409091F3
S113411008408093AA439093AB43B7C18091A943CD
S1134120882309F469C080919D43882309F464C0FD
S11341308CEB92E40E94B80A8091A6438F5F80932F
S1134140A643853018F081E08093A6438091A6436E
S11341508230B9F018F4813031F03DC08330F9F089
S1134160843059F138C0E0E0FAE0808181608083D6
S113417080E699E080A791A780930540909306403C
S113418030C0E0E0FAE080818160808382E999E0D8
S113419080A791A7809305409093064022C0E0E059
S11341A0FAE080818160808384EC99E080A791A704
S11341B0809305409093064014C0E0E0FAE08081CB
S11341C08160808386EF99E080A791A78093054062
S11341D09093064006C080E699E080930540909352
S11341E006401092A9438091054090910640809327
S11341F0AA439093AB4349C18091A843882309F40F
S113420069C080919D43882309F464C088ED92E4D9
S11342100E94B80A8091A6438F5F8093A64385309D
S113422018F081E08093A6438091A6438230B9F0D0
S113423018F4813031F03DC08330F9F0843059F105
S113424038C0E0E0FAE080818160808380E699E014
S113425080A791A7809305409093064030C0E0E08A
S1134260FAE08081816080838EE299E080A791A743
S1134270809305409093064022C0E0E0FAE08081FC
S1134280816080838CEF98E080A791A7809305409C
S11342909093064014C0E0E0FAE08081816080835E
S11342A08AEC98E080A791A78093054090930640FC
S11342B006C080E699E080930540909306401092F2
S11342C0A84380910540909106408093AA4390931F
S11342D0AB43DBC08091A943882309F469C0809172
S11342E09C43882309F464C084EF92E40E94B80AD2
S11342F08091A6438F5F8093A643853018F081E0B8
S11343008093A6438091A6438230B9F018F481309B
S113431031F03DC08330F9F0843059F138C0E0E029
S1134320FAE08081816080838CE89AE080A791A77D
S1134330809303409093044030C0E0E0FAE0808131
S1134340816080838EEB9AE080A791A780930340DD
S11343509093044022C0E0E0FAE080818160808391
S113436080EF9AE080A791A7809303409093044044
S113437014C0E0E0FAE080818160808388EB9BE0F8
S113438080A791A7809303409093044006C088EBD4
S11343909BE080930340909304401092A943809142
S11343A00340909104408093AA439093AB436DC023
S11343B08091A843882309F468C080919C43882392
S11343C009F463C080E193E40E94B80A8091A64393
S11343D08F5F8093A643853018F081E08093A643D5
S11343E08091A6438230B9F018F4813031F03DC099
S11343F08330F9F0843059F138C0E0E0FAE080818C
S11344008160808388EB9BE080A791A78093034021
S11344109093044030C0E0E0FAE0808181608083C2
S113442086E89BE080A791A7809303409093044083
S113443022C0E0E0FAE080818160808384E59BE033
S113444080A791A7809303409093044014C0E0E0B8
S1134450FAE080818160808382E29BE080A791A75B
S1134460809303409093044006C088EB9BE08093C4
S11344700340909304401092A8438091034090918C
S113448004408093AA439093AB4380910B408823CC
S113449009F48CCC10920B402BE94BE46AE787E3D8
S11344A00E9414106091AA437091AB43072E000C34
S11344B0880B990B0E94F70A1092A74310929F430E
S11344C010929E4310929D4310929C438CE293E47D
S11344D00E94B80A8091AA439091AB4308950F9328
S11344E08091A743882389F18091EB439091EC4319
S11344F0A091ED43B091EE434091A2435091A34368
S11345006091A4437091A543841B950BA60BB70B34
S1134510893B9B40A105B105C0F083E493E40E946C
S1134520B80A09E121E142E451E062E88CE30E9427
S11345309C0D0E94A31E1092A2431092A3431092BA
S1134540A4431092A5431092A7430F910895789421
S113455095E288ED84BF909368000E94B81780E8C4
S113456095E20E94860AE0E4F4E080818061808321
S113457084818F7E8483C0E2D4E0888181608883D3
S11345800E940B1C0E94020B8881816088838C81AD
S11345908E7F8C83E0E8F4E08081886080830E94D1
S11345A0E80B0E94281D0E94DE160E9441100E9402
S11345B07F180E948F140E941C1D2FEF82E597E044
S11345C0215080409040E1F700C000000E94C21AD0
S11345D0789484E593E40E94B80A82E30E94471326
S11345E00E9440130E94D0160E94E1160E94561B9E
S11345F00E94C1150E946F22F0CF5058BB27AA27F2
S11346000E9415230C948F240E94812438F00E9468
S1134610882420F039F49F3F19F426F40C947E2466
S11346200EF4E095E7FB0C947824E92F0E94A02473
S113463058F3BA17620773078407950720F079F4D3
S1134640A6F50C94C2240EF4E0950B2EBA2FA02DDF
S11346500B01B90190010C01CA01A0011124FF272B
S1134660591B99F0593F50F4503E68F11A16F04026
S1134670A22F232F342F4427585FF3CF4695379525
S11346802795A795F0405395C9F77EF41F16BA0BEA
S1134690620B730B840BBAF09150A1F0FF0FBB1F98
S11346A0661F771F881FC2F70EC0BA0F621F731FE1
S11346B0841F48F4879577956795B795F7959E3F3E
S11346C008F0B0CF9395880F08F09927EE0F9795CF
S11346D0879508950E94542408F481E008950E9467
S11346E083230C948F240E94882458F00E948124F0
S11346F040F029F45F3F29F00C94782451110C9474
S1134700C3240C947E240E94A02468F39923B1F35B
S1134710552391F3951B550BBB27AA2762177307E3
S1134720840738F09F5F5F4F220F331F441FAA1F77
S1134730A9F335D00E2E3AF0E0E832D09150504033
S1134740E695001CCAF72BD0FE2F29D0660F771FE1
S1134750881FBB1F261737074807AB07B0E809F0C7
S1134760BB0B802DBF01FF2793585F4F3AF09E3F4C
S1134770510578F00C9478240C94C3245F3FE4F33F
S1134780983ED4F3869577956795B795F7959F5F8F
S1134790C9F7880F911D9695879597F90895E1E0DB
S11347A0660F771F881FBB1F621773078407BA073A
S11347B020F0621B730B840BBA0BEE1F88F7E09595
S11347C008950E94E8236894B1110C94C3240895B9
S11347D00E94A82488F09F5798F0B92F9927B751C1
S11347E0B0F0E1F0660F771F881F991F1AF0BA9591
S11347F0C9F714C0B13091F00E94C224B1E0089509
S11348000C94C224672F782F8827B85F39F0B93FFA
S1134810CCF3869577956795B395D9F73EF4909543
S11348208095709561957F4F8F4F9F4F0895E894C1
S113483009C097FB3EF490958095709561957F4FE4
S11348408F4F9F4F9923A9F0F92F96E9BB27939592
S1134850F695879577956795B795F111F8CFFAF4A2
S1134860BB0F11F460FF1BC06F5F7F4F8F4F9F4FD3
S113487016C0882311F096E911C0772321F09EE831
S1134880872F762F05C0662371F096E8862F70E097
S113489060E02AF09A95660F771F881FDAF7880F71
S11348A09695879597F90895990F0008550FAA0BC7
S11348B0E0E8FEEF16161706E807F907C0F012162F
S11348C01306E407F50798F0621B730B840B950B32
S11348D039F40A2661F0232B242B252B21F4089587
S11348E00A2609F4A140A6958FEF811D811D089524
S11348F097F99F6780E870E060E008959FEF80EC8F
S1134900089500240A941616170618060906089531
S113491000240A9412161306140605060895092E97
S11349200394000C11F4882352F0BB0F40F4BF2B06
S113493011F460FF04C06F5F7F4F8F4F9F4F089546
S113494057FD9058440F551F59F05F3F71F047953C
S1134950880F97FB991F61F09F3F79F08795089521
S1134960121613061406551FF2CF4695F1DF08C040
S1134970161617061806991FF1CF8695710561055D
S113498008940895E894BB2766277727CB0197F905
S113499008950E94542408F48FEF089516F00C949F
S11349A08B250C947E2468940C9478240E94A8246B
S11349B0A8F39923C1F3AEF3DF93CF931F930F931F
S11349C0FF92C92FDD2788232AF02197660F771FCE
S11349D0881FDAF720E030E040E85FEB9FE3883996
S11349E020F0803E38F021968F770E94FE22E8EE78
S11349F0F0E004C00E94FE22E5E1F1E00E94992566
S1134A008B01BE01EC01FB2E6F5771097595771F61
S1134A10880B990B0E94192428E132E741E35FE3F4
S1134A200E943125AF2D9801AE01FF900F911F9187
S1134A30CF91DF910E9415230C948F240E9431257D
S1134A400C948F240E94812438F00E94882420F042
S1134A50952311F00C9478240C947E2411240C9446
S1134A60C3240E94A02470F3959FC1F3950F50E0D6
S1134A70551F629FF001729FBB27F00DB11D639F0C
S1134A80AA27F00DB11DAA1F649F6627B00DA11DB2
S1134A90661F829F2227B00DA11D621F739FB00D58
S1134AA0A11D621F839FA00D611D221F749F3327C8
S1134AB0A00D611D231F849F600D211D822F762F61
S1134AC06A2F11249F5750409AF0F1F088234AF03E
S1134AD0EE0FFF1FBB1F661F771F881F91505040AA
S1134AE0A9F79E3F510580F00C9478240C94C324BC
S1134AF05F3FE4F3983ED4F3869577956795B79531
S1134B00F795E7959F5FC1F7FE2B880F911D96954A
S1134B10879597F908959F3F31F0915020F4879538
S1134B2077956795B795880F911D9695879597F911
S1134B300895DF93CF931F930F93FF92EF92DF9229
S1134B407B018C01689406C0DA2EEF010E943125A6
S1134B50FE01E894A5912591359145915591A6F3CF
S1134B60EF010E941523FE019701A801DA9469F769
S1134B70DF90EF90FF900F911F91CF91DF910895F7
S1134B8097FB072E16F4009407D077FD09D00E94F6
S1134B902F2607FC05D03EF4909581959F4F0895EC
S1134BA0709561957F4F0895A1E21A2EAA1BBB1B35
S1134BB0FD010DC0AA1FBB1FEE1FFF1FA217B307E5
S1134BC0E407F50720F0A21BB30BE40BF50B661FFB
S1134BD0771F881F991F1A9469F7609570958095BF
S1134BE090959B01AC01BD01CF010895052E97FB63
S1134BF01EF400940E940D2657FD07D00E94D42570
S1134C0007FC03D04EF40C940D2650954095309536
S1134C1021953F4F4F4F5F4F089590958095709524
S1134C2061957F4F8F4F9F4F0895A29FB001B39F0F
S1134C30C001A39F700D811D1124911DB29F700DA1
S1134C40811D1124911D08950E941526A59F900D84
S1134C50B49F900DA49F800D911D11240895AA1B4B
S1134C60BB1B51E107C0AA1FBB1FA617B70710F053
S1134C70A61BB70B881F991F5A95A9F78095909585
S1134C80BC01CD01089503D0808199270895FC01CA
S1134C90E050FC4E0895DC0128ED209334006C9321
S1094CA00895F894FFCF13
S1134CA6030001B80B6009D007080701010101F8E8
S1134CB60007E0001F5249460057494600434C4B43
S1134CC6484F4C4400525841434B004152424C4FCA
S1134CD65354004255534552520049444C45004FE3
S1134CE6574E455200425553590049324320627586
S1134CF673792E0074696D656F7574000A2D2D2DF8
S1134D062D3E204572726F7220696E2073656E6443
S1134D16696E6720616464722E0A004572726F724E
S1134D2620696E20646174612073656E742E00457B
S1134D3672726F7220696E20646174612072656399
S1134D4669657665642E00756E69745F6368616E65
S1134D5667653A2020204D4D48472073656C65638E
S1134D667465642E20202000756E69745F63686123
S1134D766E67653A202020434D48324F2073656C98
S1134D8665637465642E2020202000756E69745F47
S1134D966368616E67653A2020204D506120736513
S1134DA66C65637465642E20202000554E4954209A
S1134DB64D41494E3A20696E76616C696420756E80
S1134DC66974206D6F64652C2072657365747469EB
S1134DD66E6720746F206D6D68672E00506F77655F
S1134DE672207361766520627574746F6E207072BA
S1134DF6657373656400506F7765722073617665B9
S1134E0620627574746F6E2072656C656173656477
S1134E160074696D656F75745F636F756E742B2BA3
S1134E260073616D655F70726573737572655F7229
S1134E366561645F636F756E742B2B0073616D65BA
S1134E465F70726573737572655F726561645F63C3
S1134E566F756E74203D2030005370656564204381
S1134E6668616E676520627574746F6E206973205D
S1134E767072657373656400454E544552494E47D6
S1134E8620494E2053455454494E47204D454E55CE
S1134E962E2E2E2E2E2E2E2E2E2E2E2E2E2E2E2E28
S1134EA62E2E2E2E2E2E2E2E2E2E2E2E2E0033303F
S1134EB6204C504D205354415455533A200034301D
S1134EC6204C504D205354415455533A200035300C
S1134ED6204C504D205354415455533A20003630FB
S1134EE6204C504D205354415455533A20006D6F75
S1134EF6646520666F722033306C706D20696E6352
S1134F0672656D656E74203A006D6F646520666F18
S1134F16722033306C706D2064656372656D656EE6
S1134F2674203A006D6F646520666F7220343020F9
S1134F366C706D20696E6372656D656E74203A00DF
S1134F466D6F646520666F72203430206C706D203E
S1134F5664656372656D656E74203A006D6F646591
S1134F6620666F72203530206C706D20696E637216
S1134F76656D656E74203A006D6F646520666F72A8
S1134F86203530206C706D2064656372656D656EC6
S1134F9674203A006D6F646520666F722036302087
S1134FA66C706D20696E6372656D656E74203A006F
S1134FB66D6F646520666F72203630206C706D20CC
S1134FC664656372656D656E74203A00455849548C
S1134FD62046524F4D2053455454494E53204D4577
S1134FE64E5500456E74657265642050574D206DAC
S1134FF66F6465002F2F2F2F2F2F2F2F2F2F2F2F3B
S11350062F2F2F2F2F2F2F2F2F2F2F2F2F2F2F2FA6
S1135016207374617274202F2F2F2F2F2F2F2F2F71
S11350262F2F2F2F2F2F2F2F2F2F2F2F2F2F2F2F86
S10D50362F2F2F2F2F2F2F2F0000F4
S9030000FC
