S017000044635F73756374696F6E5F70756D702E73726563E1
S11300000C945E0F0C947D0F0C947D0F0C947D0F5B
S11300100C947D0F0C947D0F0C947D0F0C947D0F2C
S11300200C947D0F0C947D0F0C947D0F0C947D0F1C
S11300300C947D0F0C94A11D0C947D0F0C947D0FDA
S11300400C947D0F0C947D0F0C947D0F0C947D0FFC
S11300500C947D0F0C947D0F0C947D0F0C947D0FEC
S11300600C947D0F0C947D0F0C947D0F0C947D0FDC
S11300700C947D0F0C9495260C94D71D0C947D0F35
S11300800C947D0F0C947D0F0C946B260C947D0FB7
S11300900C947D0F0C947D0F0C947D0F0C947D0FAC
S11300A00C947D0F0C947D0F0C947D0F0C947D0F9C
S11300B00C947D0F0C9468270C947D0F0C947D0F89
S11300C00C947D0F0C947D0F0C947D0F0C947D0F7C
S11300D00C947D0F0C947D0F0C947D0F0C947D0F6C
S11300E00C947D0F0C947D0F08000000BE922449EF
S11300F0123EABAAAA2ABECDCCCC4C3E0000008056
S1130100BEABAAAAAA3E00000000BF000000803FC8
S11301100000000000084178D3BB4387D1133D1988
S11301200E3CC3BD4282AD2B3E68EC8276BED98FB5
S1130130E1A93E4C80EFFFBE01C4FF7F3F000000F9
S113014000000000000000000000000000000000AB
S113015000000000000000000000FE3F3FDFEFF75A
S1130160F306FF7FBFDFEFF7FB86C36186030C0650
S11301701BC6C36186030C061BC6C36186030C063B
S11301801BE6C36186030C061B66FF7F86030FC74D
S1130190FB76FE7F86030FC7F336C06186030C0728
S11301A0833EC06186030C06C31EC06186030C0631
S11301B0631EC06186030C06330EC06186030FF60E
S11301C01B0EC06186030FF60B0600000000000042
S11301D0000000000000000000000000000000001B
S11301E0000000000000000000000000000000000B
S11301F000000000000000000000000000000000FB
S113020000000000000000000000000000000000EA
S113021000000000000000000000000000000000DA
S113022000000000000000000000000000000000CA
S113023000000000000000000000000000000000BA
S1130240000000000000000000003F1F8FE7E7F9F6
S1130250F9807FBFDFEFF7FBFD8061B0D80C30C3BE
S11302600D806030D80C00C30D806030D80C00C302
S11302700D806030D80C00C30D807F3FDF8C00C33D
S1130280FD803FBF9F8C00C3FD8001B0180C00C3EC
S11302900D8001B0180C00C30D8001B0180C00C310
S11302A00D8061B0180C30C30D807FB01FEFF7FBD9
S11302B00DFE3F300FE7E7FB0DFE000000000000DD
S11302C0000000000000000000000000000000002A
S11302D0000000000000000000000000000000001A
S11302E0000000000000000000000000000000000A
S11302F000000000000000000000000000000000FA
S113030000000000000000000000000000000000E9
S113031000000000000000000000000000000000D9
S113032000000000000000000000003FD8303FDC67
S113033030061E30061E30061F30061B30061BB06A
S11303400619B00619F00618F00618F00618703FE2
S1130350D8703FD83000000000000000000000000A
S11303600000000000000000000000000000000089
S11303700000000000000000000000000000000079
S11303800000000000000000000000000000000069
S1130390000000003F9837FBFCFCC1803FD837FBCE
S11303A0FDFEE18030D830C06186F18030D830C0A5
S11303B06186F18030D830C06186F98030D830C091
S11303C06186D9803F9830C06186DD803F9830C017
S11303D06186CD8030D830C06186CF8030D830C0BF
S11303E06186C78030D830C06186C78030D830C0BD
S11303F06186C3803FDFF0C061FEC3803F8FE0C0F1
S113040060FCC1800000000000000000000000004B
S113041000000000000000000000000000000000D8
S113042000000000000000000000000000000000C8
S113043000000000000000000000000000000000B8
S113044000000000000000000000000000000000A8
S11304500000000000000000000000000000000098
S11304600000000000000000000000000000000088
S113047000000000000000000000000000007F3FBA
S11304809FE7E3F07FBFDFEFF7F861B0D80C3618D1
S113049061B0D80C060061B0D80C060061B0D80C6D
S11304A006007FBFDF8FE7F07F3F9F87F7F8603C50
S11304B018003018603618003018603318003018EF
S11304C06031980C36186030DFEFF7F860305FEF7A
S11304D0E3F0000000000000000000000000000045
S11304E0000000003FFC007FFE00FFFF00FFFF0054
S11304F0F00F00F00F00F00F00F00F00F00F00F00D
S11305000F00F00F00F00F00F00F00F00F00F00FDD
S113051000F00F00F00F00F00F00F00F00F00F00DC
S1130520FFFF00FFFF007FFE003FFC0003F0000719
S1130530F0000FF0000FF0000FF0000FF0000FF0CC
S11305400001F00001F00001F00001F00001F000F2
S113055001F00001F00001F00001F00001F00001E1
S1130560F00001F00001F0000FFE000FFE000FFE8E
S1130570000FFE003FFC007FFE00FFFF00FFFF00B6
S1130580F00F00F00F00000F00000F00000F00003C
S11305900F003FFF007FFF00FFFE00FFFC00F000A4
S11305A000F00000F00000F00000F00000F0000097
S11305B0FFFF00FFFF007FFF003FFF003FFC007FC5
S11305C0FE00FFFF00FFFF00F00F00F00F00000F20
S11305D000000F00000F00000F001FFF001FFF00AE
S11305E01FFF001FFF00000F00000F00000F00009E
S11305F00F00F00F00F00F00FFFF00FFFF007FFE71
S1130600003FFC00007C0000FC0000FC0001FC003A
S113061003FC0003FC0007FC000FFC000FBC001FE0
S11306203C003F3C003E3C007C3C00FC3C00F83C71
S113063000FFFF00FFFF00FFFF00FFFF00003C0082
S1130640003C00003C00003C00003C00FFFF00FFB9
S1130650FF00FFFF00FFFF00F00000F00000F000CB
S113066000F00000FFFC00FFFE007FFF003FFF00E2
S1130670000F00000F00000F00000F00000F00F03B
S11306800F00F00F00F00F00FFFF00FFFF007FFEE0
S1130690003FFC003FFC007FFE00FFFF00FFFF0067
S11306A0F00F00F00F00F00000F00000F00000F088
S11306B00000FFFC00FFFE00FFFF00FFFF00F00F43
S11306C000F00F00F00F00F00F00F00F00F00F002B
S11306D0FFFF00FFFF007FFE003FFC00FFFF00FF65
S11306E0FF00FFFF00FFFF00F01F00F01F00F03FBE
S11306F000003E00003E00007C00007C0000FC0086
S113070000F80000F80001F00001F00003F000031D
S1130710E00003E00007C00007C0000FC0000F8026
S1130720000F80003FFC007FFE00FFFF00FFFF0082
S1130730F00F00F00F00F00F00F00F00F00F00F0CA
S11307400F007FFE003FFC003FFC007FFE00F00F27
S113075000F00F00F00F00F00F00F00F00F00F009A
S1130760FFFF00FFFF007FFE003FFC003FFC007F17
S1130770FE00FFFF00FFFF00F00F00F00F00F00F7E
S113078000F00F00F00F00F00F00FFFF00FFFF006C
S11307907FFF003FFF00000F00000F00000F00F07C
S11307A00F00F00F00F00F00FFFF00FFFF007FFEBF
S11307B0003FFC00000000000000000000000000FA
S11307C01F986C183FD86E1830D86F1830D86F182F
S11307D030D86F9830D86D983FD86DD83F986CD882
S11307E03C186CD836186C7833186C7831986C389F
S11307F030DFEC38304FCC3800000000000000003F
S113080000000000000000000000000000000000E4
S113081000000000000000000000000000000000D4
S113082000000000000000000000000000000000C4
S113083000000000000000000000000000007F9F96
S11308409FE7E6007FBFDFEFF6000C30C30C3600F5
S11308500C30C30C36000C30C30C36000C30C30C07
S113086036000C30C30FF6000C30C30FF6000C300A
S1130870C30C36000C30C30C36000C30C30C3600ED
S11308800C30C30C36000C3FC30C37F80C1F830C20
S113089037F8000000000000000000000000000025
S11308A00000000000000000000000000000000044
S11308B00000000000000000000000000000000034
S11308C00000000000000000000000000000000024
S11308D00000000000000000000000000000000014
S11308E00000000000000000000000000000000004
S11308F0000030CFCC33F1F830DFEC37FBFC30D8DC
S11309006C361B0C30D86C361B0030D86C361B0090
S113091030D86C361B003FD86C37FBF83FD86C37A7
S1130920F1FC30D86C37800C30D86C36C00C30D821
S11309306C36600C30D86C36330C30DFEFF61BFCB1
S113094030CFC7E609F800000000000000000000F6
S11309500000000000000000000000000000000093
S11309600000000000000000000000000000000083
S11309700000000000000000000000000000000073
S11309800000000000000000000000000000000063
S11309900000000000000000000000000000000053
S11309A00000000000000000000000003F1FCFCC4A
S11309B037F9F9FE7FBFDFEC37FBFDFE61B0186C41
S11309C030C30D806030186C30C301806030186C07
S11309D030C301806030186C30C301807F3F1FEC4E
S11309E030C301F83FBF1FCE70C301F801B01E0E23
S11309F070C3018001B01B07E0C3018001B01987F7
S1130A00E0C3018061B018C3C0C30D807FBFD86349
S1130A10C7FBFDFE3F1FD82187F9F9FE0000000047
S1130A2000000000000000000000000000000000C2
S1130A3000000000000000000000000000000000B2
S1130A4000000000000000000000000000000000A2
S1130A500000000000000000000000000000000092
S1130A600000000000000000000000000000000082
S1130A700000000000000000000000000000000072
S1130A80000000000000000FF8001FFC00180C001C
S1130A90180C001800001800001FF0000FF80000E8
S1130AA01C00000C00180C00180C001C1C001FFC7F
S1130AB0000FF80000000007FFFF80001FFFFFE0A9
S1130AC0003FFFFFF0007FFFFFF8007FFFFFF8000B
S1130AD0FFFFFFFC00FFFFFFFC00FFFFFFFC00FF28
S1130AE0E01FFC00FFC00FFC00FF8007FC00FF803C
S1130AF007FC00FF8007FC00FF8007FC00FF800765
S1130B00FC00FF8007FC00FF8007FC00FF8007FC5F
S1130B1000FF8007FC00FF8007FC00FF8007FC004B
S1130B20FF8007FC00FF8007FC00FF8007FC00FF3C
S1130B308007FC00FF8007FC00FF8007FC00FF80AB
S1130B4007FC00FF8007FC00FF8007FC00FF800714
S1130B50FC00FF8007FC00FF8007FC00FF8007FC0F
S1130B6000FF8007FC00FF8007FC00FF8007FC00FB
S1130B70FF8007FC00FF8007FC00FFC00FFC00FFA4
S1130B80E01FFC00FFFFFFFC00FFFFFFFC00FFFF76
S1130B90FFFC007FFFFFF8007FFFFFF8003FFFFF2F
S1130BA0F0001FFFFFE00007FFFF80000003FE00CE
S1130BB0000007FE0000000FFE0000000FFE000012
S1130BC0001FFE0000003FFE0000007FFE0000004A
S1130BD0FFFE000001FFFE000003FFFE000007FF10
S1130BE0FE000007FFFE000007FFFE000007FFFEF7
S1130BF0000007FBFE000007F3FE000007E3FE0011
S1130C000007C3FE00000783FE00000703FE000088
S1130C100003FE00000003FE00000003FE000000CD
S1130C2003FE00000003FE00000003FE00000003BA
S1130C30FE00000003FE00000003FE00000003FEAF
S1130C4000000003FE00000003FE00000003FE009D
S1130C50000003FE00000003FE00000003FE00008D
S1130C600003FE00000003FE00000003FE0000007D
S1130C7003FE00000003FE00000FFFFFFF000FFF54
S1130C80FFFF000FFFFFFF000FFFFFFF000FFFFF3D
S1130C90FF000FFFFFFF000FFFFFFF000FFFFFFF2D
S1130CA000000FFF8000003FFFE000007FFFF8001E
S1130CB000FFFFFC0001FFFFFE0003FFFFFF000732
S1130CC0FFFFFF8007FFFFFFC00FFC03FFC00FF80B
S1130CD001FFE01FF000FFE01FF0007FE01FF000C5
S1130CE07FE01FF0007FE01FF0007FE01FF0007F37
S1130CF0E0000000FFE0000001FFC0000003FFC0AF
S1130D00000007FFC000000FFF8000001FFF00006D
S1130D10003FFF0000007FFE000000FFFC00000118
S1130D20FFF8000003FFF0000007FFE000000FFFE2
S1130D30C000001FFF8000003FFF0000007FFE0096
S1130D400000FFFC000001FFF8000003FFF00000BA
S1130D5007FFE000000FFFC000001FFF8000001F1E
S1130D60FF0000003FFE0000003FFC0000003FFFCA
S1130D70FFFFE03FFFFFFFE03FFFFFFFE03FFFFF1C
S1130D80FFE03FFFFFFFE03FFFFFFFE03FFFFFFF0C
S1130D90E03FFFFFFFE0003FFFC00000FFFFF00067
S1130DA001FFFFF80003FFFFFE0007FFFFFF000F36
S1130DB0FFFFFF800FFFFFFFC00FF001FFC00FC058
S1130DC000FFC00FC0007FC00FC0007FC00F8000B5
S1130DD03FC00000003FC00000003FC00000003FD3
S1130DE0C00000003FC00000007FC00000007FC0C2
S1130DF0000000FFC0000003FFC0003FFFFF8000B1
S1130E007FFFFF00007FFFFC00007FFFF000007FFA
S1130E10FFFF00007FFFFF80007FFFFFC0003FFF58
S1130E20FFC0000003FFC0000001FFC00000007FFE
S1130E30C00000007FC00000003FC00000003FC0B1
S1130E400000003FC00000003FC00000003FC00F92
S1130E5080003FC00FC0007FC00FC0007FC00FC024
S1130E6000FFC00FF001FFC00FFFFFFF800FFFFF67
S1130E70FF0007FFFFFF0003FFFFFE0001FFFFFC71
S1130E800000FFFFF000003FFFC000000003FE0071
S1130E90000007FE0000000FFE0000001FFE00001F
S1130EA0003FFE0000007FFE000000FFFE00000186
S1130EB0FFFE000003FFFE000007FFFE00000FFF1F
S1130EC0FE00001FFDFE00003FF9FE00007FF1FE62
S1130ED00000FFE1FE0001FFC1FE0003FF81FE00F0
S1130EE007FF01FE000FFE01FE001FFC01FE003F94
S1130EF0F801FE007FF001FE00FFE001FE00FFC0EC
S1130F0001FE00FFFFFFFFE0FFFFFFFFE0FFFFFF29
S1130F10FFE0FFFFFFFFE0FFFFFFFFE0FFFFFFFF3A
S1130F20E0FFFFFFFFE0000001FE00000001FE0003
S1130F30000001FE00000001FE00000001FE0000B0
S1130F400001FE00000001FE00000001FE000000A0
S1130F5001FE00000001FE00000001FE000000018F
S1130F60FE00000001FE00000001FE00000001FE82
S1130F7000000001FE00000001FE00000001FE0070
S1130F801FFFFFFFC03FFFFFFFC03FFFFFFFC03F4A
S1130F90FFFFFFC03FFFFFFFC03FFFFFFFC03FFF5A
S1130FA0FFFFC03FFFFFFFC03FFFFFFFC03FE00068
S1130FB000003FE00000003FE00000003FE00000D0
S1130FC0003FE00000003FE00000003FE0000000C0
S1130FD03FE00000003FE3FFFC003FE7FFFE003F6F
S1130FE0EFFFFF003FFFFFFF803FFFFFFFC03FFF1A
S1130FF0FFFFE03FFFFFFFE03FFFFFFFF03FFC008C
S11310007FF03FF0003FF83FE0001FF80000000FC2
S1131010F800000007F800000007F800000007F8D7
S113102000000007F800000007F800000007F83F80
S1131030E00007F83FE00007F83FE0000FF83FF05A
S1131040001FF83FF0003FF83FF8007FF83FFFFF34
S1131050FFF03FFFFFFFF03FFFFFFFE01FFFFFFF39
S1131060C00FFFFFFF8007FFFFFF0003FFFFFE002D
S113107001FFFFFC0001FFFF800003FFFFE0000F02
S1131080FFFFF8001FFFFFFC003FFFFFFE003FFFD4
S1131090FFFF007FFFFFFF007FFFFFFF00FFF00364
S11310A0FF00FFE001FF00FFC001FF00FF8000FF21
S11310B000FF80007F00FF80007F00FF80000000B1
S11310C0FF80000000FF80000000FF80000000FFA0
S11310D080000000FF80000000FF9FFE0000FFBFB3
S11310E0FF8000FFFFFFE000FFFFFFF000FFFFFFB6
S11310F0F800FFFFFFFC00FFFFFFFE00FFFFFFFE05
S113110000FFFFFFFF00FFE003FF00FFC001FF003F
S1131110FFC001FF00FF8000FF00FF8000FF00FF11
S11311208000FF00FF8000FF00FF8000FF00FF80C1
S113113000FF00FF8001FF00FFC001FF00FFE0038C
S1131140FF00FFFFFFFF00FFFFFFFF00FFFFFFFFA8
S1131150007FFFFFFE007FFFFFFE003FFFFFFC005C
S11311601FFFFFF8000FFFFFF0003FFFFFFF803F6E
S1131170FFFFFF803FFFFFFF803FFFFFFF803FFF38
S1131180FFFF803FFFFFFF803FFFFFFF803FFFFF28
S1131190FF803FFFFFFF80000007FF80000007FF84
S11311A080000007FF8000000FFF0000000FFF0019
S11311B000001FFE0000001FFE0000001FFE0000D4
S11311C0003FFC0000003FFC0000007FF80000002E
S11311D07FF80000007FF8000000FFF0000000FF2F
S11311E0F0000001FFE0000001FFE0000001FFE06B
S11311F0000003FFC0000003FFC0000007FF8000E1
S11312000007FF80000007FF8000000FFF000000C0
S11312100FFF0000001FFE0000001FFE0000001F63
S1131220FE0000003FFC0000003FFC0000007FF8CF
S11312300000007FF80000007FF8000000FFF000CD
S11312400000FFF0000001FFE0000001FFE00000EB
S113125001FFE0000003FFC0000003FFC000000125
S1131260FFFFC00007FFFFF0000FFFFFF8001FFFA4
S1131270FFFC003FFFFFFE007FFFFFFF007FFFFF3B
S1131280FF007FFFFFFF00FFFFFFFF80FFE003FF82
S113129080FFC001FF80FF8000FF80FF00007F808F
S11312A0FF00007F80FF00007F80FF00007F80FF41
S11312B000007F80FF00007F80FF8000FF80FFC070
S11312C001FF80FFE003FF807FFFFFFF007FFFFF40
S11312D0FF003FFFFFFE001FFFFFFC003FFFFFFE7C
S11312E0007FFFFFFF007FFFFFFF00FFFFFFFF8086
S11312F0FFE003FF80FFC001FF80FF8000FF80FF4D
S113130000007F80FF00007F80FF00007F80FF00DF
S1131310007F80FF00007F80FF00007F80FF80004F
S1131320FF80FFC001FF80FFE003FF807FFFFFFF1E
S1131330007FFFFFFF007FFFFFFF003FFFFFFE0076
S11313401FFFFFFC000FFFFFF80007FFFFF0000185
S1131350FFFFC00007FFFF80001FFFFFE0003FFF0B
S1131360FFF0007FFFFFF8007FFFFFF800FFFFFFA3
S1131370FC00FFFFFFFC00FFFFFFFC00FFE01FFC81
S113138000FFC00FFC00FF8007FC00FF8007FC008B
S1131390FF8007FC00FF8007FC00FF8007FC00FFC4
S11313A08007FC00FF8007FC00FFC00FFC00FFE08B
S11313B01FFC00FFFFFFFC00FFFFFFFC00FFFFFF1F
S11313C0FC007FFFFFFC007FFFFFFC003FFFFFFCF2
S11313D0001FFFFFFC0007FFFFFC00000007FC00EC
S11313E0000007FC00000007FC00000007FC0000F0
S11313F00007FC00000007FC00000007FC000000E0
S113140007FC00FF8007FC00FF8007FC00FF80074B
S1131410FC00FF8007FC00FFC00FFC00FFE01FFC86
S113142000FFFFFFFC00FFFFFFFC00FFFFFFFC00CD
S11314307FFFFFF8007FFFFFF8003FFFFFF0001F72
S1131440FFFFE00007FFFF800001FFFF800003FFB4
S1131450FFE0000FFFFFF8001FFFFFFC003FFFFF4E
S1131460FE003FFFFFFF007FFFFFFF007FFFFFFF46
S113147000FFF003FF00FFE001FF00FFC001FF00D9
S1131480FF8000FF00FF80007F00FF80007F00FFDF
S113149080000000FF80000000FF80000000FF804B
S11314A0000000FF80000000FF80000000FF9FFE9E
S11314B00000FFBFFF8000FFFFFFE000FFFFFFF021
S11314C000FFFFFFF800FFFFFFFC00FFFFFFFE002F
S11314D0FFFFFFFE00FFFFFFFF00FFE003FF00FF31
S11314E0C001FF00FFC001FF00FF8000FF00FF807C
S11314F000FF00FF8000FF00FF8000FF00FF80006E
S1131500FF00FF8000FF00FF8001FF00FFC001FF1C
S113151000FFE003FF00FFFFFFFF00FFFFFFFF00EE
S1131520FFFFFFFF007FFFFFFE007FFFFFFE003F86
S1131530FFFFFC001FFFFFF8000FFFFFF0001FFF7D
S1131540FFFFC03FFFFFFFC03FFFFFFFC03FFFFFA4
S1131550FFC03FFFFFFFC03FFFFFFFC03FFFFFFF94
S1131560C03FFFFFFFC03FFFFFFFC03FE0000000A0
S11315703FE00000003FE00000003FE00000003FCB
S1131580E00000003FE00000003FE00000003FE01A
S11315900000003FE3FFFC003FE7FFFE003FEFFFDA
S11315A0FF003FFFFFFF803FFFFFFFC03FFFFFFF44
S11315B0E03FFFFFFFE03FFFFFFFF03FFC007FF055
S11315C03FF0003FF83FE0001FF80000000FF80074
S11315D0000007F800000007F800000007F800000A
S11315E00007F800000007F800000007F83FE000DB
S11315F007F83FE00007F83FE0000FF83FF0001F56
S1131600F83FF0003FF83FF8007FF83FFFFFFFF09E
S11316103FFFFFFFF03FFFFFFFE01FFFFFFFC00F93
S1131620FFFFFF8007FFFFFF0003FFFFFE0001FF36
S1131630FFFC00000003FE00000007FE0000000F96
S1131640FE0000001FFE0000003FFE0000007FFEC1
S1131650000000FFFE000001FFFE000003FFFE008B
S11316600007FFFE00000FFFFE00001FFDFE00004C
S11316703FF9FE00007FF1FE0000FFE1FE0001FFE4
S1131680C1FE0003FF81FE0007FF01FE000FFE0103
S1131690FE001FFC01FE003FF801FE007FF001FE8A
S11316A000FFE001FE00FFC001FE00FFFFFFFFE0BE
S11316B0FFFFFFFFE0FFFFFFFFE0FFFFFFFFE0FF93
S11316C0FFFFFFE0FFFFFFFFE0FFFFFFFFE0000081
S11316D001FE00000001FE00000001FE0000000108
S11316E0FE00000001FE00000001FE00000001FEFB
S11316F000000001FE00000001FE00000001FE00E9
S1131700000001FE00000001FE00000001FE0000D8
S11317100001FE00000001FE00000001FE000000C8
S113172001FE00000001FE00003FFFC00000FFFFBB
S1131730F00001FFFFF80003FFFFFE0007FFFFFFBB
S1131740000FFFFFFF800FFFFFFFC00FF001FFC07E
S11317500FC000FFC00FC0007FC00FC0007FC00FCC
S113176080003FC00000003FC00000003FC00000F8
S1131770003FC00000003FC00000007FC000000028
S11317807FC0000000FFC0000003FFC0003FFFFF58
S113179080007FFFFF00007FFFFC00007FFFF00060
S11317A0007FFFFF00007FFFFF80007FFFFFC0007E
S11317B03FFFFFC0000003FFC0000001FFC00000A6
S11317C0007FC00000007FC00000003FC000000098
S11317D03FC00000003FC00000003FC00000003FC9
S11317E0C00F80003FC00FC0007FC00FC0007FC08B
S11317F00FC000FFC00FF001FFC00FFFFFFF800FFD
S1131800FFFFFF0007FFFFFF0003FFFFFE0001FFD4
S1131810FFFC0000FFFFF000003FFFC000000FFFCF
S11318208000003FFFE000007FFFF80000FFFFFCA6
S11318300001FFFFFE0003FFFFFF0007FFFFFF8023
S113184007FFFFFFC00FFC03FFC00FF801FFE01FFD
S1131850F000FFE01FF0007FE01FF0007FE01FF0CA
S1131860007FE01FF0007FE01FF0007FE000000039
S1131870FFE0000001FFC0000003FFC0000007FFFD
S1131880C000000FFF8000001FFF0000003FFF00AA
S113189000007FFE000000FFFC000001FFF80000D4
S11318A003FFF0000007FFE000000FFFC000001F6F
S11318B0FF8000003FFF0000007FFE000000FFFCEF
S11318C0000001FFF8000003FFF0000007FFE00044
S11318D0000FFFC000001FFF8000001FFF0000007A
S11318E03FFE0000003FFC0000003FFFFFFFE03F21
S11318F0FFFFFFE03FFFFFFFE03FFFFFFFE03FFF91
S1131900FFFFE03FFFFFFFE03FFFFFFFE03FFFFF80
S1131910FFE007FFFF80001FFFFFE0003FFFFFF035
S1131920007FFFFFF8007FFFFFF800FFFFFFFC00D0
S1131930FFFFFFFC00FFFFFFFC00FFE01FFC00FFB8
S1131940C00FFC00FF8007FC00FF8007FC00FF8045
S113195007FC00FF8007FC00FF8007FC00FF8007F6
S1131960FC00FF8007FC00FF8007FC00FF8007FCF1
S113197000FF8007FC00FF8007FC00FF8007FC00DD
S1131980FF8007FC00FF8007FC00FF8007FC00FFCE
S11319908007FC00FF8007FC00FF8007FC00FF803D
S11319A007FC00FF8007FC00FF8007FC00FF8007A6
S11319B0FC00FF8007FC00FF8007FC00FF8007FCA1
S11319C000FF8007FC00FF8007FC00FF8007FC008D
S11319D0FF8007FC00FFC00FFC00FFE01FFC00FFBE
S11319E0FFFFFC00FFFFFFFC00FFFFFFFC007FFF89
S11319F0FFF8007FFFFFF8003FFFFFF0001FFFFF2D
S1131A00E00007FFFF80000000000000000000006D
S1131A1000000000000006000000000F800000002D
S1131A200FC000000017F00000000BFC00000005D0
S1131A30F90000003AF38000003D7FBC00003EBF87
S1131A403800001F5E7800000FAFFC000007C7FEDF
S1131A50000003E3FF100007F1FFF0000FFAFFE0BE
S1131A60000FFD7FC0000F3EBF80000F1E5F00000F
S1131A700F0E2E00003FFFFFF0003FFFFFF00000BD
S1131A8000000000018000000003E000000003F0FB
S1131A9000000005FC00000002FF000000017E4081
S1131AA000000EBCE000000F5FEF00000FAFCE009F
S1131AB00007D79E000003EBFF000001F1FF800048
S1131AC000F8FFC40001FC7FFC0003FEBFF8000720
S1131AD0FF5FF0000FCFAFE0000F8797C0000F0348
S1131AE08B80000F000500000F000200003FFFFF85
S1131AF0F0003FFFFFF000006000000000F800006D
S1131B000000FC000000017F00000000BFC00000D6
S1131B10005F900000002F3800000E17FBC0000F7C
S1131B200BF380000F85E7800007C2FFC00003E0CD
S1131B307FE00001F03FF10000F81FFF0001FC2FDF
S1131B40FE0003FE17FC0007FF0BF8000FCF85F023
S1131B50000F8782E0000F038140000F0000800027
S1131B600F000000003FFFFFF0003FFFFFF000C048
S1131B7000000000C000000000C000000000C00021
S1131B80000000C7E39C0000CFE7FE0000CC6666BF
S1131B900000CC66660000CFE6660000CFE6660073
S1131BA000CC06660000CC066600000C00000000B5
S1131BB00C000000000C0000000000000000000009
S1131BC0000000000000F000000000E00000000140
S1131BD0C0000000018000000003FC00000007F8C2
S1131BE00000000070000000006000000000C00061
S1131BF00000018000001C030000003E0000000003
S1131C00633FF00F00637FF81F8063C01831806367
S1131C1080186180630038C300631FFF8600631F60
S1131C20FF0C006300001800630000300063FFFF36
S1131C30E00063FFFFC0003E000000001C00000045
S1131C40007E7E7E7E00001819FC000000001C3916
S1131C50FE000000001E7986000000001E79860048
S1131C600000001BD9863D8000001999867F800002
S1131C70001999FE638000001819FC6180000018A7
S1131C801980618000001819806180000018198093
S1131C90638000001819807F8000001819803D803F
S1131CA00000000000000000000000030C00000021
S1131CB03E1CE30C7C3E007F3FF30CFE7F00C333ED
S1131CC0330CC66300C033330C066300C03333FCEB
S1131CD00E6300C03333FC1C6300C033330C386321
S1131CE000C033330C706300C333330CE063007FF4
S1131CF033330CFE7F003E33330CFE3E0000000005
S1131D0000000000000000C60000738738C603000E
S1131D10FFCFFCC63F00CCCCCCFE7F00CCCCCCFEAD
S1131D206300CCCCCCC66300CCCCCCC67F00CCCC7E
S1131D30CCC63F00CCCCCCC603000000000003009E
S1131D40000000006300000000007F0000000000AD
S1131D503E0071C92F7839888A29284845888A29FC
S1131D60284845488A292F484548F2292878452893
S1131D7082292860452882292850451881C6CF48E1
S1131D8039183F8000781E00007FC000781E0000D4
S1131D90FFE000781E0000FFE000381C0000E0E0D7
S1131DA0003C3C0000E0E0003C3C0000E0E0003C83
S1131DB03C0000E0E0003C3C0000E0E0001E787FD6
S1131DC000E0E1FE1E78FF80FFE3FF1E78FF80FF46
S1131DD0E3FF1E78E380FFE3FF0E70E380FFE387F9
S1131DE00FF0E380E0E3870FF0E380E0E3870FF098
S1131DF0E380E0E3FF07E0FFE0E0E3FE07E0FFE06D
S1131E00E0E1C007E07EE00001C000000000000146
S1131E10FF000000000003FF800000000003FF80BB
S1131E2000000000038380000000000383800000A2
S1131E3000000383800000000003FF800000000016
S1131E4003FF800000000001FF000000000000000C
S1131E5000000000001E0000003F0000003F0000E2
S1131E60007380000061800000E1C00000C0C00079
S1131E7001C0E00001806000039C7000033E30005C
S1131E80077F3800060718000E071C000C7F8C0023
S1131E901C3FCE00181FE6003801F7003000F300A5
S1131EA070007B8060003980E00019C0C00000C071
S1131EB0C00000C0FFFFFFC07FFFFF8011241FBED2
S1131EC0CFEFCDBFDFE7DEBF14E4A0E0B0E4E8E18C
S1131ED0F5E600E00BBF02C007900D92A83CB107E5
S1131EE0D9F725E4A8ECB4E401C01D92A338B207E5
S1131EF0E1F70E94A32C0C948A320C9400006150E8
S1131F00710920E030E00EC0DC01A20FB31F4C9138
S1131F10FC01E60FF71F50815C9340832F5F3F4F16
S1131F2061507109261737077CF30895CF92DF9229
S1131F30EF92FF920F931F93CF93DF938A0169016E
S1131F40C0E0D0E011C07801EC0EFD1E2AE030E0C4
S1131F5040E050E00E94F62F605DF7016083622F3D
S1131F60732F842F952F2196611571058105910595
S1131F7051F706C0F801EC0FFD1F80E38083219622
S1131F80CC15DD05BCF3BE01C8010E947F0FF8012A
S1131F90EC0FFD1F1082CE01DF91CF911F910F91A5
S1131FA0FF90EF90DF90CF900895E0E4F4E020817B
S1131FB02D7F2083208121602083BC0180E090E07C
S1131FC00E94172E20E030E040E851E40E941E2FCA
S1131FD09B01AC0160E07BE187EB9EE40E946F2DE6
S1131FE020E030E040E05FE30E94FE2C0E94E82DF8
S1131FF0E0E2F8E0608771878681806C86830895CB
S11320009091240895FFFCCF8093220808950F93A4
S11320101F93CF93DF938C01C0E0D0E007C0F80199
S1132020EC0FFD1F80810E9400102196F8010190A1
S11320300020E9F73197E01BF10BCE17DF0778F3A7
S11320408AE00E940010DF91CF911F910F910895B3
S11320500F931F93CF93DF938C01C0E0D0E007C0B0
S1132060F801EC0FFD1F80810E9400102196F801F9
S113207001900020E9F73197E01BF10BCE17DF0741
S113208078F3DF91CF911F910F91089520E030E014
S11320904CE455E40E94960F8CE495E40E940710EA
S11320A00895E0E0F4E0808180688083A4E0B4E0F7
S11320B08C9180688C93808180618083808180642E
S11320C08083E0E4F9E080818063808380818160A3
S11320D080838C9180688C930895809344098091C7
S11320E043098823E4F70895DC0120E030E00CC0C4
S11320F0FD01E20FF31F90819093440990914309ED
S11321009923E4F72F5F3F4F462F50E024173507FC
S11321107CF30895E0E0F9E081E0858383E0848343
S11321200895E0E0F9E080818F7E80838081837F61
S1132130808380818D7F80830895E0E0F9E087E6E5
S1132140868381E0858383818A6083838381816040
S113215083830895CF93DF93C82FD62F80910509E9
S11321608370833089F482E590E40E94071020E6AE
S11321703AEE01C09C01809105098370833021F4FB
S1132180C9010197232BB1F785E080930509DD236D
S113219041F08C2F90E0880F991F8160809307098C
S11321A004C08C2F880F8093070980E69AEE209153
S11321B0050924FF06C02091050926FD02C00197E8
S11321C0B1F7892B21F48CE590E40E9407108091EB
S11321D0050982FF04C084E690E40E940710DF91A1
S11321E0CF910895CF93DF93C0E6DAEE809105098D
S11321F0882314F02197D1F78091050983FD04C049
S11322008091050982FF09C087E990E40E940710C4
S11322100E948A1081E080934B45CD2B39F48CE5E4
S113222090E40E94071081E080934B458091080957
S1132230DF91CF91089585E88093A000E0E0F6E077
S113224084E0818381E082838083089581E08093A8
S11322500A060895809308060E94261180910D06AF
S113226080FFFCCF8091100690911106089580E8BC
S113227095E20E94D50F0E9491100E949D1061E08A
S113228088E70E94AA100895CF93DF930E94F2106A
S1132290C82FD0E0DC2FCC270E94F210C82B0E945C
S11322A0F2100E94F210BE0180E090E00E94172E0E
S11322B0DF91CF9108950E94441120E030ED4CE469
S11322C055E40E94FD2C2CEE31E143E853E40E94D6
S11322D06F2D0895CF92DF92EF92FF921F93CF93C9
S11322E0DF93182FC0E0D0E0C12CD12C760111C0AF
S11322F00E945B119B01AC01C701B6010E94FE2C38
S113230020E030E040E05FE30E941E2F6B017C017F
S11323102196812F90E0C817D90754F32FE03CEDA4
S11323204EE452E4C701B6010E941E2FDF91CF9103
S11323301F91FF90EF90DF90CF900895E0E0F4E0DC
S1132340808180688083E0E2F4E080818061808322
S1132350E0E4F4E08081806280830895CF93DF938A
S1132360E0E2F4E0248120612483C0E0D4E02C8105
S11323702F772C830E9474108C8180688C83DF916A
S1132380CF910895CF93DF93E0E2F4E094819061DC
S11323909483C0E0D4E09C819F779C830E946D105D
S11323A08C818F778C83DF91CF9108950F931F9346
S11323B0CF93DF93C0E2D4E09C819F7E9C8300E0B6
S11323C014E0F80194819F7794830E946D10F801C2
S11323D08481806884838C8180618C83DF91CF9138
S11323E01F910F9108950F931F93CF93DF93C0E232
S11323F0D4E09C819F7E9C8300E014E0F8019481EA
S11324009F7794830E946D10F8018481806884838F
S11324108C8180618C83DF91CF911F910F910895FE
S1132420CF93982F9F70C82FC295CF70C067892F04
S113243080660E94F3118C2F0E94F311CF910895AE
S1132440CF93C82FC295CF70C0618F700E94F311D3
S11324508C2F0E94F311CF9108950F931F93CF9364
S1132460DF93062F122FD8E1D80FC8E1C40F8D2FA8
S11324700E942012802F0E94101284EF0E94D61115
S11324808D2F0E94F31186EF0E94D6118C2F0E948B
S1132490F31187EF0E94D611812F0E94F31188EF68
S11324A00E94D611DF91CF911F910F910895CF9380
S11324B0DF932FE94FE460E080E00E942D12C0E03A
S11324C0D0E004C080E00E94C2112196C11584E6C8
S11324D0D807C4F3DF91CF910895E0E0F4E084815C
S11324E08F778483E0E2F4E0848180618483E0E494
S11324F0F4E084818F7D84832FEF88EF95E1215070
S113250080409040E1F700C00000848180628483B1
S11325102FEF8EE994E2215080409040E1F700C013
S1132520000088EB0E94D61180E10E94F31182EE34
S11325300E94D6112FEF85EA9EE021508040904002
S1132540E1F700C000008BEE0E94D61181E80E94E2
S1132550D6118BE40E94D6118BE20E94D61184EC32
S11325600E94D61189E80E94D61184E20E94D611F5
S113257082EA0E94D61181EF0E94D6118FE90E944F
S1132580F31184E80E94D61182EF0E94D61180E0F4
S11325900E94F31183EF0E94D61182E30E94F3118B
S11325A080E40E94D61180E50E94D61181ED0E943C
S11325B0D61186ED0E94D61188EC0E94D61185E0D2
S11325C00E94D61188ED0E94D6110E9457128DEAFE
S11325D00E94D61108952F923F924F925F926F926C
S11325E07F928F929F92AF92BF92CF92DF92EF929F
S11325F0FF920F931F93CF93DF93CDB7DEB761970D
S1132600CDBFDEBF8F836C871A012B87902E2DB729
S11326103EB72E873F878BEA089F812D112486952C
S11326208A8790E0DC01AA0FBB1FAD83BE836D01D6
S1132630BB0FEE08FF0800E010E0412C512C3201E2
S113264009831A839D864601570189C0EDB7FEB7F9
S1132650E887F9872DB73EB78D819E81281B390BFA
S11326602DBF3EBFADB7BEB71196AB83BC83AD01E2
S113267080E090E005C0FA01E80FF91F108201968E
S11326808C01092E000C220B330B081519052A05A1
S11326903B058CF360E070E030E020E0ED843DC069
S11326A0F101E40DF51DF490BFEF4B1A5B0A6B0AC0
S11326B07B0A87E090E02DC0EF2DF0E0082E02C0E9
S11326C0F595E7950A94E2F7E0FF1DC0E32FF0E0EB
S11326D0E88BF98B8F01040F151FD801CC90A22F22
S11326E0B0E0AA0FBB1FA95EBF4BDC90DC28F80149
S11326F0D082E889F9893196E40FF51F108111968B
S1132700AC91A12BA0832F5F233010F03E5F20E01B
S1132710019799238CF66F5F7F4F8E2D8695869552
S1132720869590E0681779070CF4BACF6C85F98127
S11327306F0F262F4A853F81430F832F0E942D124E
S11327406D817E818B819C810E94AE1188859985E3
S11327508DBF9EBFA981BA811196A983BA83BB8517
S11327608B2F90E0E981FA81E817F9070CF46ECF1A
S11327702E853F852DBF3EBF6196CDBFDEBFDF9165
S1132780CF911F910F91FF90EF90DF90CF90BF906A
S1132790AF909F908F907F906F905F904F903F90FD
S11327A02F9008952F923F924F925F926F927F9253
S11327B08F929F92AF92BF92CF92DF92EF92FF924D
S11327C00F931F93CF93DF93CDB7DEB76297CDBF3F
S11327D0DEBFA82E688B4A01322E2DB73EB7298B57
S11327E03A8B202E269426942694222D30E0A32D75
S11327F0B0E00E9415309B01AC01AE2DB0E00E9408
S113280024302B013C018BEA089F012D11240695ED
S11328100D87802F90E0DC01AA0FBB1FAE87BF8716
S1132820CD01092E000CAA0BBB0B8F839887A987B7
S1132830BA8700E010E08FC0ADB7BEB7AB87BC87E6
S1132840EDB7FEB72F813885E21BF30BEDBFFEBF5A
S11328508DB79EB701968D839E83AC0180E090E096
S113286049825A826B827C82322D232D2F803884B8
S113287049845A8405C0FA01E80FF91F10820196B1
S11328806C01092E000CEE08FF08C214D304E40402
S1132890F50488F349805A806B807C80232E322E85
S11328A060E070E030E020E03CC0F401E40DF51D90
S11328B0D4909FEF491A590A690A790A87E090E08F
S11328C02CC0ED2DF0E0082E02C0F595E7950A9492
S11328D0E2F7E0FF1CC0A32FB0E0A983BA837D0117
S11328E0E40EF51EF701B080A22FB0E0AA0FBB1FC3
S11328F0A95EBF4BCC90CB28C082E981FA81319686
S1132900E40FF51FF0801196AC91AF29A0832F5FDF
S1132910233010F03E5F20E00197992394F66F5F17
S11329207F4F822D90E0681779070CF4BECF688939
S1132930600F262F4D854A0D8A2D0E942D126E851B
S11329407F858D819E810E94AE112B853C852DBF94
S11329503EBF0F5F1F4F832D90E0081719070CF43B
S11329606BCF89899A898DBF9EBF6296CDBFDEBF2A
S1132970DF91CF911F910F91FF90EF90DF90CF9057
S1132980BF90AF909F908F907F906F905F904F908B
S11329903F902F900895FF920F931F93CF93DF934F
S11329A0F62EC22F002381F0D42FD81B0E942D12A3
S11329B0C0E007C08FEF0E94C2118FEF0E94C211C6
S11329C0CF5FCD17B8F313C00E942D120C2F10E067
S11329D00F191109C0E0D0E007C08FEF0E94C211A7
S11329E080E00E94C2112196C017D107B0F3DF9195
S11329F0CF911F910F91FF900895FF920F931F9312
S1132A00CF93DF93F62EC22F002381F0D42FD81B4F
S1132A100E942D12C0E007C08FEF0E94C2118FEFF9
S1132A200E94C211CF5FCD17B8F313C00E942D12BC
S1132A300C2F10E00F191109C0E0D0E007C088EF97
S1132A400E94C21180E00E94C2112196C017D107D2
S1132A50B0F3DF91CF911F910F91FF900895DF9212
S1132A60EF92FF920F931F93CF93DF93F82ED62EFE
S1132A70E42E022F061B842F90E08F19910963E046
S1132A8070E00E94C02FD62F10E013C0612F6D0D8F
S1132A90262F4E2D8F2D0E942D12C0E007C08FEFE0
S1132AA00E94C2118FEF0E94C211CF5FCD17B8F3FD
S1132AB01F5F101758F3DF91CF911F910F91FF9073
S1132AC0EF90DF900895DF92EF92FF920F931F93A0
S1132AD0CF93DF93F82ED62EE42E022F061BD42F8D
S1132AE0D81B10E013C0612F6D0D262F4E2D8F2D96
S1132AF00E942D12C0E007C080E00E94C21180E055
S1132B000E94C211CF5FCD17B8F31F5F101758F39F
S1132B10DF91CF911F910F91FF90EF90DF90089577
S1132B20CF93DF93A0E4B4E08C918F7B8C93569683
S1132B308C915697816056968C935697E0E8F4E012
S1132B4080818D7F808381898260818B80818B7F6E
S1132B50808382898260828BC0EAD4E088818B7F03
S1132B6088838A8982608A8B80818E7F8083808932
S1132B708260808B8C9184608C93E0E2F4E08081AD
S1132B8080628083DF91CF91089580910E458823E0
S1132B9069F181E08093F644809116408F5F8093C1
S1132BA01640843018F081E08093164080911640DE
S1132BB0823049F0833061F0813079F48FEA90E417
S1132BC00E94071011C080ED90E40E9407100CC011
S1132BD083EF90E40E94071007C081E080931640C1
S1132BE083E191E40E94071010920E4508950F931B
S1132BF080910D45882309F4A9C1809108408F5F15
S1132C0080930840863018F081E0809308408091DA
S1132C100840833009F49EC030F4813059F082308A
S1132C2009F450C06FC1843009F4DCC0853009F464
S1132C3021C168C180910C45882359F0E0E0FAE095
S1132C40808181608083809111409091124080A79F
S1132C5091A780911140909112408093CF4490931A
S1132C60D04480911340811113C08091DA44909133
S1132C70DB448093CF449093D044E0E0FAE0808139
S1132C80816080838091DA449091DB4480A791A78E
S1132C9081E08093CE4408E221E34DE158E168E20B
S1132CA085E30E94EB1221E342E159E168E282E408
S1132CB00E94EB122FE04FE65BE16FE582E40E9495
S1132CC0EB1241C180910C45882359F0E0E0FAE011
S1132CD080818160808380910F409091104080A713
S1132CE091A780910F40909110408093CF4490938E
S1132CF0D04480911340811113C08091DA449091A3
S1132D00DB448093CF449093D044E0E0FAE08081A8
S1132D10816080838091DA449091DB4480A791A7FD
S1132D2081E08093CD4408E221E348E257E168E280
S1132D3085E30E94EB1221E342E159E168E282E477
S1132D400E94EB122FE04FE65BE16FE582E40E9404
S1132D50EB12F9C080910C45882359F0E0E0FAE0C9
S1132D6080818160808380910D4090910E4080A786
S1132D7091A780910D4090910E408093CF44909301
S1132D80D04480911340811113C08091DA44909112
S1132D90DB448093CF449093D044E0E0FAE0808118
S1132DA0816080838091DA449091DB4480A791A76D
S1132DB081E08093CC4408E221E343E356E168E2F6
S1132DC085E30E94EB1221E342E159E168E282E4E7
S1132DD00E94EB122FE04FE65BE16FE582E40E9474
S1132DE0EB12B1C080910C45882359F0E0E0FAE081
S1132DF080818160808380910B4090910C4080A7FA
S1132E0091A780910B4090910C408093CF44909374
S1132E10D04480911340811113C08091DA44909181
S1132E20DB448093CF449093D044E0E0FAE0808187
S1132E30816080838091DA449091DB4480A791A7DC
S1132E4081E08093CB4408E221E34EE355E168E25C
S1132E5085E30E94EB1221E342E159E168E282E456
S1132E600E94EB122FE04FE65BE16FE582E40E94E3
S1132E70EB1269C080910C45882359F0E0E0FAE038
S1132E808081816080838091094090910A4080A76D
S1132E9091A78091094090910A408093CF449093E8
S1132EA0D04480911340811113C08091DA449091F1
S1132EB0DB448093CF449093D044E0E0FAE08081F7
S1132EC0816080838091DA449091DB4480A791A74C
S1132ED081E08093CA4408E221E349E454E168E2D2
S1132EE085E30E94EB1221E342E159E168E282E4C6
S1132EF00E94EB122FE04FE65BE16FE582E40E9453
S1132F00EB1221C080910F40909110408093CF44E8
S1132F109093D04481E08093CD4408E221E34DE1D5
S1132F2058E168E285E30E94EB1221E342E159E1B2
S1132F3068E282E40E94EB122FE04FE65BE16FE56A
S1132F4082E40E94EB1210920D45F9C0882309F423
S1132F50F6C080910C45811109C08091E54481112E
S1132F6005C080910F45882309F4E9C08091084089
S1132F708F5F80930840863018F081E0809308408A
S1132F8080910840833009F451C028F4813051F015
S1132F90823051F1B1C0843009F46AC0853009F43B
S1132FA089C0AAC0E0E0FAE08081816080838091DA
S1132FB011409091124080A791A708E221E34DE1CE
S1132FC058E168E285E30E94EB1221E342E159E112
S1132FD068E282E40E94EB122FE04FE65BE16FE5CA
S1132FE082E40E94EB12A9C0E0E0FAE080818160F3
S1132FF0808380910F409091104080A791A708E2B0
S113300021E348E257E168E285E30E94EB1221E301
S113301042E159E168E282E40E94EB122FE04FE6BC
S11330205BE16FE582E40E94EB1287C0E0E0FAE026
S113303080818160808380910D4090910E4080A7B3
S113304091A708E221E343E356E168E285E30E94A5
S1133050EB1221E342E159E168E282E40E94EB12BF
S11330602FE04FE65BE16FE582E40E94EB1265C05E
S1133070E0E0FAE080818160808380910B40909150
S11330800C4080A791A708E221E34EE355E168E2F2
S113309085E30E94EB1221E342E159E168E282E414
S11330A00E94EB122FE04FE65BE16FE582E40E94A1
S11330B0EB1243C0E0E0FAE080818160808380917C
S11330C0094090910A4080A791A708E221E349E4CE
S11330D054E168E285E30E94EB1221E342E159E105
S11330E068E282E40E94EB122FE04FE65BE16FE5B9
S11330F082E40E94EB1221C0809111409091124011
S11331008093CF449093D04481E08093CE4408E2EE
S113311021E348E257E16AE285E30E94EB1221E3EE
S113312042E159E168E282E40E94EB122FE04FE6AB
S11331305BE16FE582E40E94EB1210920D450F9162
S11331400895882321F1E0E8F4E084818860848391
S1133150E0E0FAE08081816080838091CF449091A7
S1133160D04480A791A781E08093D64480912745DD
S113317090912845A0912945B0912A458093104506
S113318090931145A0931245B093134512C0811139
S113319010C0E0E8F4E08481877F8483E0E0FAE013
S11331A080818160808310A611A61092D64410926B
S11331B00C458091D644882329F084E491E40E944C
S11331C0071008958CEA91E40E94071008958091F5
S11331D00B458823C9F181EE91E40E940710809188
S11331E00C4581110AC08091CF449091D0448093C2
S11331F0280A9093290A892B01F510920C45109204
S1133200E8441092EC441092EB441092DC44109287
S1133210DD441092DE441092DF441092E744109291
S1133220E6441092E0441092E1441092E244109279
S1133230E34480E00E94A11805C081E080930C451E
S11332400E94A11810920B4508950E94C5150E9472
S1133250E7180E94F7150895CF92DF92EF92FF923C
S11332600E946A116B017C0160934345709344454D
S1133270809345459093464520E030E0A9010E94A3
S11332806A2D88234CF410924345109244451092C1
S113329045451092464516C020E030E84BE354E41F
S11332A0C701B6010E94C92E181664F480E090E8A4
S11332B0ABE3B4E48093434590934445A0934545E0
S11332C0B093464580911640823049F1833009F429
S11332D078C0813009F0AAC080E090E0AAE7B5E4A4
S11332E080932F4590933045A0933145B093324558
S11332F020E030E048EC52E460914345709144454D
S113330080914545909146450E941E2F6093334518
S1133310709334458093354590933645ACC06091A5
S1133320434570914445809145459091464529E136
S113333034E04EEA5FE30E941E2F60933F45709392
S1133340404580934145909342450F2EC12CF0E8AF
S1133350DF2EFBE3EF2EF5E4FF2EF02DC0922F4578
S1133360D0923045E0923145F092324520E030E889
S11333704BE354E40E94C92E181664F480E090E8EC
S1133380ABE3B4E480933F4590934045A09341451B
S1133390B093424520E030E048EC52E460913F4570
S11333A07091404580914145909142450E941E2F65
S11333B060933345709334458093354590933645F7
S11333C05AC0609143457091444580914545909120
S11333D046452AE035E848E05EE30E941E2F6093EC
S11333E03B4570933C4580933D4590933E450F2E5D
S11333F0C12CD12CF8E4EF2EF3E4FF2EF02DC09273
S11334002F45D0923045E0923145F092324520E08C
S113341030E048EC52E40E941E2F609333457093D1
S11334203445809335459093364525C081E080939B
S1133430164080E090E0AAE7B5E480932F4590938E
S11334403045A0933145B093324520E030E048EC5C
S113345052E4609143457091444580914545909173
S113346046450E941E2F60933345709334458093E4
S1133470354590933645FF90EF90DF90CF900895B7
S11334808091480483FF03C081E08093ED44089554
S1133490E0E4F4E08481806184832FEF8EE994E298
S11334A0215080409040E1F700C0000084818F7E6D
S11334B084832FEF8EE994E2215080409040E1F71D
S11334C000C000000E9437110895E0E4F4E0808118
S11334D08F77808387898160878B8081877F8083D2
S11334E083898160838B08950E94651A80914804C2
S11334F083FF04C081E08093ED4408951092ED446D
S113350008958091EA448823B1F08091480483FFB0
S113351009C081E08093ED44E0E2F4E084818160BD
S1133520848307C01092ED44E0E2F4E084818E7F4E
S113353084831092EA448091ED44882329F0E0E2E8
S1133540F4E084818160848308950F931F938091B4
S1133550EC448823F1F19091E84491113AC09091A0
S1133560E944911136C09091EB44992391F19091E3
S1133570E744923070F1409127455091284560917D
S1133580294570912A450091DC441091DD44209135
S1133590DE443091DF44401B510B620B730B483EF9
S11335A0534061057105A8F481E00E94A11881E0EF
S11335B08093E8441092EC441092EB441092DC4463
S11335C01092DD441092DE441092DF441092E744DE
S11335D0BCC0882359F19091EB44992339F190911F
S11335E0E844992319F180E00E94A1181092E8445C
S11335F01092EC441092EB441092DC441092DD449F
S11336001092DE441092DF441092E7448091E64425
S1133610882309F49AC01092E6441092E044109270
S1133620E1441092E2441092E3448FC0882391F164
S11336309091E84491112EC09091E94491112AC0CF
S11336409091E744911126C09091EB44911122C0CE
S113365040912745509128456091294570912A450C
S11336600091DC441091DD442091DE443091DF442C
S1133670401B510B620B730B493E534061057105AE
S113368048F081E00E94A11881E08093E9441092FF
S1133690E4445BC09091EB449923F1F02091E94418
S11336A02223D1F02091E7442223B1F08823A1F012
S11336B080E00E94A1181092E9441092EB44109209
S11336C0EC441092E7441092DC441092DD441092D2
S11336D0DE441092DF4439C0811106C0911104C048
S11336E08091E744882389F18091E84481112DC0B9
S11336F08091E944811129C0809127459091284502
S1133700A0912945B0912A454091DC445091DD4473
S11337106091DE447091DF44841B950BA60BB70BBC
S1133720893E9340A105B10580F01092E8441092BF
S1133730DC441092DD441092DE441092DF44109277
S1133740EC441092EB441092E7441F910F910895BA
S11337504F925F926F927F928F929F92AF92BF929D
S1133760CF92DF92EF92FF928091E544882309F48F
S1133770D8C08091E844811104C080910C4588230D
S1133780D1F08091E644811116C081E08093E64433
S11337908091274590912845A0912945B0912A45CB
S11337A08093E0449093E144A093E244B093E344D3
S11337B01092E444B6C08091E6448823E1F140913C
S11337C02745509128456091294570912A45C0901C
S11337D0E044D090E144E090E244F090E3444C199A
S11337E05D096E097F09413157426105710518F180
S11337F080E00E94A1181092E6441092E0441092D6
S1133800E1441092E2441092E3441092E84410928E
S1133810DC441092DD441092DE441092DF44109296
S1133820EC441092EB441092E74481E08093E4442A
S113383010920C4576C0882309F473C0C0902745C4
S1133840D0902845E0902945F0902A454090E044E6
S11338505090E1446090E2447090E344D701C60183
S113386084199509A609B70980319742A105B105C4
S113387008F057C08090334590903445A09035456A
S1133880B0903645A5019401609137457091384553
S11338908091394590913A450E94FD2C0E94E12D7A
S11338A09B01772324F422273327261B370BB901E6
S11338B0330F880B990B0E94192E20912F453091BC
S11338C0304540913145509132450E94C92E181619
S11338D06CF4C414D504E604F70441F0C092E04447
S11338E0D092E144E092E244F092E34480912B458B
S11338F090912C45A0912D45B0912E45C81AD90A16
S1133900EA0AFB0A89EEC81683E0D806E104F1044A
S113391040F08092374590923845A0923945B09254
S11339203A45FF90EF90DF90CF90BF90AF909F907B
S11339308F907F906F905F904F9008958091EC44AA
S1133940882341F081E00E94A1181092EC44109267
S1133950E44408958091EB44882329F080E00E9498
S1133960A1181092EB44089580910F45882319F013
S11339700E94A51A04C0811102C00E949E1C0E94CC
S1133980811A08950E941B1108958F929F92AF92FD
S1133990BF92CF92DF92EF92FF92CF93C0E018C014
S11339A082E00E942A114091F7445091F8446091BA
S11339B0F9447091FA44480F591F611D711D4093D9
S11339C0F7445093F8446093F9447093FA44CF5FFA
S11339D0C43130F32C2F30E040E050E06091F744E4
S11339E07091F8448091F9449091FA440E94D42F44
S11339F02093F7443093F8444093F9445093FA44A5
S1133A00CA01B9010E94172E23E333E343E550E4CE
S1133A100E941E2F20E030EF4FE755E40E946F2DE7
S1133A206B017C01609307457093084580930945B9
S1133A3090930A4520E030E44CE156E40E946F2D57
S1133A404B015C016093FB447093FC448093FD4400
S1133A509093FE44A701960163E373E383E590E446
S1133A600E94FD2CA50194010E946F2D6093FF44D8
S1133A7070930045809301459093024520E030E423
S1133A804CE156E40E946F2D0E94D62E23E931EAC0
S1133A9048E959E30E941E2F2FE03FEC4BE55BE31E
S1133AA00E94FE2C9B01AC0160E070E080E89FE383
S1133AB00E946F2D23E333E948E853E40E94FD2C70
S1133AC060930345709304458093054590930645A0
S1133AD0CF91FF90EF90DF90CF90BF90AF909F90E9
S1133AE08F9008958FEB9DE580931C0B90931D0B95
S1133AF0E1E1FBE080818083E5E1FBE0808181609E
S1133B008083E0E1FBE080818160808308958FEB16
S1133B109DE580932C0B90932D0BE1E2FBE08081DB
S1133B208083E5E2FBE0808181608083E0E2FBE06A
S1133B3080818160808308950E94721D0E94871D88
S1133B4008951F920F920FB60F9211240BB60F9285
S1133B508F939F93AF93BF93EF93FF938091160B33
S1133B6080FF18C08091274590912845A091294550
S1133B70B0912A450196A11DB11D809327459093CC
S1133B802845A0932945B0932A45E6E1FBE08081CE
S1133B9081608083FF91EF91BF91AF919F918F914D
S1133BA00F900BBE0F900FBE0F901F9018951F9291
S1133BB00F920FB60F9211240BB60F920F931F930F
S1133BC02F933F934F935F936F937F938F939F9321
S1133BD0AF93BF93EF93FF934091234550912445B6
S1133BE060912545709126454F5F5F4F6F4F7F4F22
S1133BF0409323455093244560932545709326456F
S1133C0080911F4590912045A0912145B091224576
S1133C100196A11DB11D80931F4590932045A0934B
S1133C202145B093224500911B4510911C452091DC
S1133C301D4530911E450F5F1F4F2F4F3F4F00937F
S1133C401B4510931C4520931D4530931E45493E4A
S1133C5053406105710558F021E0209316451092F8
S1133C602345109224451092254510922645893CFF
S1133C709105A105B10558F081E080931545109296
S1133C801F45109220451092214510922245E6E2EC
S1133C90FBE0808181608083FF91EF91BF91AF91C0
S1133CA09F918F917F916F915F914F913F912F9150
S1133CB01F910F910F900BBE0F900FBE0F901F908E
S1133CC0189510920E451092E54410920B451092EF
S1133CD00F4510920D45089581E08093F34480933D
S1133CE0F24408950E946C1E80914745882321F078
S1133CF080914845811104C00E949E110E946D125A
S1133D0008958091154090911640891749F081E0FB
S1133D108093F3448093F1448093F244909315404C
S1133D209091F0448091E544981729F08093F044F1
S1133D3081E08093144080911645882381F081E0CE
S1133D408093F34480910F45811104C08091EE4427
S1133D50811103C081E08093EF4410921645809155
S1133D601545882329F081E08093F144109215458C
S1133D7008950F932AE044E060E080E00E94631518
S1133D8008E32EE142E85DE162E38EE10E94EB127A
S1133D9000E328E042E55DE164E68FE10E94EB1276
S1133DA00F9108950F932EE146E060E080E00E94B9
S1133DB02F1501E02EE14FE46EE180E00E94FD1436
S1133DC02DE14FE46DE180E00E94FD1400E022E764
S1133DD043E36FE183E30E94FD1401E022E74FE433
S1133DE062E780E00E94FD1423E74FE463E780E08C
S1133DF00E94FD140F9108950F9300E02EE940E016
S1133E0060E080E00E94CB1401E020E04FE460E039
S1133E1080E00E94FD1421E04FE461E080E00E9414
S1133E20FD1400E02EE94FE460E08FE40E94CB141F
S1133E3001E02FE94FE46FE980E00E94FD142EE9D0
S1133E404FE46EE980E00E94FD140F910895EF9213
S1133E50FF920F931F93CF93DF93C82FD62F6091B8
S1133E6043457091444580914545909146450E9453
S1133E70E12D9B012F3E82E0380744F01092434528
S1133E80109244451092454510924645EAE0F0E010
S1133E90C901BF010E94C02F182FCB01BF010E948E
S1133EA0C02FF82EC90164E670E00E94C02FE62EF0
S1133EB008E221E347EB5AE06D2F8C2F0E94D213C6
S1133EC0EF2C21E347EB5AE06D2F8DE08C0F0E941D
S1133ED0D213E12E21E347EB5AE06D2F8AE18C0FD8
S1133EE00E94D2138091F244882351F002E32DE022
S1133EF044E05DE16FE58FE10E94EB121092F24421
S1133F00DF91CF911F910F91FF90EF900895EF9261
S1133F10FF920F931F93CF93DF93C82FD62F6091F7
S1133F203F457091404580914145909142450E94A2
S1133F30E12D9B012F3E82E0380744F010923F456B
S1133F40109240451092414510924245EAE0F0E05B
S1133F50C901BF010E94C02F182FCB01BF010E94CD
S1133F60C02FF82EC90164E670E00E94C02FE62E2F
S1133F7008E221E347EB5AE06D2F8C2F0E94D21305
S1133F80EF2C21E347EB5AE06D2F8DE08C0F0E945C
S1133F90D213E12E21E347EB5AE06D2F8AE18C0F17
S1133FA00E94D2138091F244882351F009E32DE05A
S1133FB049EA5CE16FE58FE10E94EB121092F24452
S1133FC0DF91CF911F910F91FF90EF900895EF92A1
S1133FD0FF920F931F93CF93DF93182FF62E6091C8
S1133FE03B4570913C4580913D4590913E450E94F2
S1133FF0E12DEB01072E000C880B990B0E94192E62
S11340002AE037ED4FE151E40E94C92E181644F41A
S113401010923B4510923C4510923D4510923E450E
S1134020CE016AE070E00E94C02FD62FC82FE12C89
S113403008E221E347EB5AE06F2D812F0E94D2134F
S113404009E026E041E45CE165E580E10E94EB12D1
S1134050ED2E08E221E347EB5AE06F2D8DE0810F4E
S11340600E94D213EC2E21E347EB5AE06F2D8AE134
S1134070810F0E94D2138091F244882351F009E306
S11340802EE047E45CE16FE58FE10E94EB121092B1
S1134090F244DF91CF911F910F91FF90EF9008951B
S11340A00F931F93CF93DF93C0E0D0E009C02AE0C1
S11340B030E040E050E00E94F62FCA01B901219699
S11340C08B019C01075F1F4F2F4F3F4F0331110599
S11340D02105310560F7CE010196DF91CF911F9143
S11340E00F9108952F923F924F925F926F927F9219
S11340F08F929F92AF92BF92CF92DF92EF92FF92F4
S11341000F931F93CF93DF93562EF22E132F442E2B
S1134110E52E682E712C622F732F842F952F0E9409
S113412050205C011C0162E070E00E9443304C01AD
S1134130C12CD12C18C0E601CC0FDD1FC80DD91D30
S11341406F2D712F842D9E2D2AE030E040E050E049
S11341500E94F62F68837983F22E132F442EE52EC6
S11341604FEFC41AD40AE5012197CC16DD061CF3DF
S1134170F101E150F048EE0FFF1FE80DF91D8F2DFE
S1134180912F80839183E02EF12CAE14BF04B4F5FB
S1134190B701660F771FC4010E9480314C010AC029
S11341A0F501EE0FFF1FE80DF91D108211825FEF7C
S11341B0A51AB50AAE14BF049CF3E70121972AEFB0
S11341C0AE012403C001259F900D1124680E791EB1
S11341D012C0FE01EE0FFF1FE80DF91DE08008E19B
S11341E028E144EE54E0652D862D0E94D21356E05A
S11341F0650E711C2197DD2364F71EC02AEFAE0102
S11342002403C001259F900D1124680E791E12C04D
S1134210FE01EE0FFF1FE80DF91DE08008E128E123
S113422044EE54E0652D862D0E94D21356E0650EAF
S1134230711C2197DD2364F7C4010E94F730DF91DC
S1134240CF911F910F91FF90EF90DF90CF90BF908F
S1134250AF909F908F907F906F905F904F903F9022
S11342602F900895DF92EF92FF920F931F93CF93B5
S1134270DF93F82ED62EE42E022F061BD42FD81B44
S113428010E013C0612F6D0D262F4E2D8F2D0E942F
S11342902D12C0E007C080E00E94C21180E00E949D
S11342A0C211CF5FCD17B8F31F5F101758F3DF911A
S11342B0CF911F910F91FF90EF90DF900895DF92BF
S11342C0EF92FF920F931F93CF93DF93F82ED62E86
S11342D0E42E022F061BD42FD81B10E013C0612F2D
S11342E06D0D262F4E2D8F2D0E942D12C0E007C07C
S11342F08FEF0E94C2118FEF0E94C211CF5FCD17C2
S1134300B8F31F5F101758F3DF91CF911F910F91EE
S1134310FF90EF90DF9008952DE142E060E080E0AF
S11343200E945F2108950F9326E946E460E080E04F
S11343300E9463150E948C210E94FC1E0E94D21EC2
S113434010924345109244451092454510924645BB
S11343506AE286E00E94271F8091114090911240EA
S11343608093CF449093D04481E08093CE4408E27C
S113437021E34DE158E168E285E30E94EB1221E379
S113438042E159E168E282E40E94EB122FE04FE639
S11343905BE16FE582E40E94EB122FEF82E597E088
S11343A0215080409040E1F700C000000F91089533
S11343B00F931F93CF93DF9327EE32E442ED5DE337
S11343C0609143457091444580914545909146459F
S11343D00E941E2F0E94E82D162F072FC62FD02FC4
S11343E080910640909107408C179D0788F4CD3446
S11343F0D10510F0CCE4D0E04C2F4E5F2DE162E00B
S11344008E5F0E945F21C0930640D093074011C085
S1134410C817D90770F442E0480F2DE162E082E04A
S1134420810F0E943221812F902F80930640909318
S11344300740DF91CF911F910F9108950F930E9430
S1134440811E8091F3448823E9F0809116408230E4
S113445049F0833061F0813079F46AE286E00E94A9
S1134460271F0EC06AE286E00E94871F09C06AE225
S113447086E00E94E71F04C06AE286E00E94271FCC
S11344801092F3448091F144882321F00E94D821B2
S11344901092F14480911440882339F18091E544CD
S11344A0882391F08FEF91E40E940710E0E2F4E09A
S11344B08481806284830AE22BE14AEB5BE168E752
S11344C08CE30E94EB120FC089E192E40E94071072
S11344D0E0E2F4E084818F7D848326E94DE468E79B
S11344E08CE30E946315109214408091E544882364
S11344F009F449C08091E444882309F444C08091BC
S11345001745909118452091274530912845821BE5
S1134510930B9C0122F422273327281B390B293EB5
S113452033408CF19091144581E0892780931445A0
S1134530882361F0E0E2F4E084818F7D848326E9BE
S11345404DE468E78CE30E9463150DC0E0E2F4E0FB
S11345508481806284830AE22BE14AEB5BE168E7B1
S11345608CE30E94EB128091274590912845A091FD
S11345702945B0912A458093174590931845A093F7
S11345801945B0931A458091EF44882309F457C024
S113459080910F45882309F442C0E0E4F4E084816B
S11345A0846084838091C8449091C9440196809327
S11345B0C8449093C944039724F01092C8441092BD
S11345C0C9448091C8449091C9448130910571F0E7
S11345D082309105A1F0892BD9F408E228E147EF54
S11345E05AE16AE787E00E94EB1216C008E228E16C
S11345F04FE75AE16AE787E00E94EB120DC008E238
S113460028E147E05AE16AE787E00E94EB1204C020
S11346101092C8441092C9441092EE440EC0E0E4D3
S1134620F4E084818B7F848326E94EE168E787E0A8
S11346300E94631581E08093EE441092EF448091D0
S1134640F544811104C08091F444882341F000E2D0
S11346502AE144E55EE16CE784E20E94EB120F91EB
S11346600895E0E0F4E0808181608083808182604D
S1134670808380898860808BE0E0FAE088EB9BE0AF
S113468086A397A310A611A610A211A2818180610E
S11346908183818183608183808181608083808143
S11346A08260808308959DE994BF809300100895EB
S11346B01F93CF93DF93EC01162F8091021081FD9D
S11346C0FCCF83E190E00E945323DC5E188380E0FA
S11346D090E00E945323DF91CF911F910895209180
S11346E002100E9475320895AF92BF92CF92DF926A
S11346F0EF92FF920F931F93CF93DF9381E090E0AB
S11347000E946F23A82E83E090E00E946F2391E023
S1134710811101C090E09093474500E0C12CD12C59
S11347207601B12C6DC081E00E946A11609343450B
S113473070934445809345459093464580914B45FD
S1134740882379F08091494590914A450196809358
S1134750494590934A4510924B4584E392E40E9464
S1134760071020914345309144454091454550916F
S11347704645C701B6010E946A2D811106C084E432
S113478092E40E9407101F5F05C08FE592E40E9427
S1134790071010E0C0904345D0904445E090454553
S11347A0F0904645219603C0C0E0D0E010E0CA3046
S11347B0D1050CF4B8CF8091494590914A450497AE
S11347C014F4163040F00E94481A0F5F10924945C5
S11347D010924A4515C01092494510924A451092CC
S11347E0474560E081E090E00E945823609147458E
S11347F083E090E00E94582300E0BB24B394A12CF2
S1134800B11002C0033080F2033088F161E06A0D18
S113481081E08093474581E090E00E9458236091B5
S1134820474583E090E00E9458238FE295E7019783
S1134830F1F700C0000060910F4582E090E00E9413
S113484058236091E54486E090E00E94582361E09B
S113485085E090E00E9458238FE295E70197F1F7F5
S113486000C0000061E081E490E00E948432DF91A6
S1134870CF911F910F91FF90EF90DF90CF90BF9059
S1134880AF90089580E00E94A1180E94401A0E94EF
S1134890B91E0E94481A0E947423089585E090E08E
S11348A00E946F2391E0811101C090E090934845EC
S11348B060E085E090E00E94582383E090E00E944D
S11348C06F2391E0811101C090E0909347459923B3
S11348D041F082E090E00E946F2386E090E00E9425
S11348E06F230895209102100E947D320895CF9283
S11348F0DF92EF92FF920F9385E190E00E94722481
S1134900611527E9720729E4820721E0920720F064
S113491021E02093F54402C01092F5440F2EF0E8F4
S1134920CF2EFEEEDF2EF6E3EF2EF12CF02DA701B5
S113493096010E94D42F04E06BE286E40E94722068
S113494081E190E00E947224A70196010E94D42F75
S113495067E686E40E9472200F91FF90EF90DF904B
S1134960CF900895AF92BF92CF92DF92EF92FF92D1
S11349700F931F93CF93DF93EC016A017B015C01DA
S11349808FEFA81AB80A642FCE010E9458236D2D08
S11349908E010E5F1F4FC5010E9458236E2D239672
S11349A0C8010E9458236F2D772788279927CE01A5
S11349B00E945823DF91CF911F910F91FF90EF90A8
S11349C0DF90CF90BF90AF900895CF92DF92EF9297
S11349D0FF920F93C0902745D0902845E090294539
S11349E0F0902A4584C0E0E4F4E0808580748087F8
S11349F0882309F47CC0E0E8F4E080858470808733
S1134A00882309F474C026E940E560E080E00E9450
S1134A10631500E324E14CE654E069E485E00E9478
S1134A20EB1200E42EE14CE753E069E486E10E94D6
S1134A30EB1208E12EE142E253E069E48AE20E94CB
S1134A40EB1200E42EE142E352E069E482E30E94C7
S1134A50EB122EE142E451E06DE586E00E94EB1298
S1134A600E94611E80910E45811110C09091E54411
S1134A7091110CC090910B45911108C090910F4574
S1134A80911104C090910D45992361F390910F45C4
S1134A90992369F110920F4581110CC09091E5445E
S1134AA0911108C090910B45911104C090910D454E
S1134AB0992391F380910B458823C9F010920B45FB
S1134AC040E050E0BA0185E190E00E94B2248CE716
S1134AD092E40E9407101092F54426E940E560E054
S1134AE080E00E9463150E948F250E94611E8091C0
S1134AF02745909128459601281B390BC901813619
S1134B0030EF930724F0803A9F400CF46CCF0E945E
S1134B10611E0F91FF90EF90DF90CF9008950F9357
S1134B2026E946E460E080E00E94631500E42EE19B
S1134B3044E959E06BE281E00E94EB1200E32EE1CC
S1134B4040EE58E06BE287E10E94EB122EE14CE26A
S1134B5058E067E681E00E94EB1200E22EE144EBAC
S1134B6057E067E681E10E94EB1200E32EE140EE9C
S1134B7058E067E68CE10E94EB120E9477240E94C1
S1134B80E52426E940E560E080E00E9463150F918A
S1134B900895CF92DF92EF92FF920F931F9380912B
S1134BA0274590912845A0912945B0912A45009127
S1134BB01045109111452091124530911345BC01C7
S1134BC0CD01601B710B820B930B0E9446108091E8
S1134BD0274590912845A0912945B0912A454091B7
S1134BE01045509111456091124570911345841BF5
S1134BF0950BA60BB70B813C9742A940B10508F46D
S1134C0063C08091D644882309F45EC084E992E4A9
S1134C100E94071081E190E00E9472246B017C01E4
S1134C2080ED92E40E940710C701B6010E9446106D
S1134C3080ECC80E87E2D81E89E0E81EF11CC7018B
S1134C40B6010E944610B701A60181E190E00E94DE
S1134C50B22481E190E00E9472240E94461085E112
S1134C6090E00E9472246B017C0120ECC20E27E2CA
S1134C70D21E29E0E21EF11CC701B6010E944610B3
S1134C80B701A60185E190E00E94B224C11487E92E
S1134C90D80689E4E80681E0F80620F081E08093F4
S1134CA0F44402C01092F444809127459091284521
S1134CB0A0912945B0912A458093104590931145C0
S1134CC0A0931245B09313451F910F91FF90EF905D
S1134CD0DF90CF9008951F920F920FB60F92112478
S1134CE00BB60F928F93EF93FF938091A90482FFE9
S1134CF012C080910F45882319F010920F4503C00C
S1134D0081E080930F4581E08093D844E0EAF4E0A9
S1134D10818584608187FF91EF918F910F900BBE05
S1134D200F900FBE0F901F9018951F920F920FB601
S1134D300F9211240BB60F922F933F934F935F93CF
S1134D406F937F938F939F93AF93BF93EF93FF934F
S1134D508091490486FF4BC080910E4581111CC08F
S1134D608091274590912845A0912945B0912A45E5
S1134D704091D1445091D2446091D3447091D44431
S1134D80841B950BA60BB70B8B3F9105A105B105B1
S1134D9018F081E080930E458091480486FF14C08A
S1134DA081E08093D7448091274590912845A09134
S1134DB02945B0912A458093D1449093D244A0933D
S1134DC0D344B093D4440EC08091480486FD0AC0F5
S1134DD01092D1441092D2441092D3441092D444ED
S1134DE01092D744E0E4F4E0818580648187809167
S1134DF0490488230CF04DC080910F45882389F124
S1134E008091EC4481111BC0909148049923BCF417
S1134E1081E00E94A1188091274590912845A09196
S1134E202945B0912A458093DC449093DD44A093B6
S1134E30DE44B093DF4481E08093EC4425C08823B2
S1134E4019F1809148048823FCF080E00E94A118A5
S1134E508091E7448F5F8093E74481E08093EB4443
S1134E6013C08091EC44811108C0809148048823C8
S1134E7024F481E08093EC4407C0809148048823A3
S1134E801CF081E08093EB44E0E4F4E081858068E9
S1134E9081878091490483FF08C081E08093EA44BC
S1134EA0E0E4F4E0818588608187FF91EF91BF9110
S1134EB0AF919F918F917F916F915F914F913F91AE
S1134EC02F910F900BBE0F900FBE0F901F9018954F
S1134ED01F920F920FB60F9211240BB60F922F93BD
S1134EE03F934F935F936F937F938F939F93AF936E
S1134EF0BF93EF93FF938091890481FF0AC081E0FF
S1134F0080930B4580931340E0E8F4E08185826050
S1134F1081878091890482FF12C08091E5448823AF
S1134F2019F01092E54403C081E08093E54481E0E8
S1134F308093D944E0E8F4E081858460818780919E
S1134F40890480FF0CC088EE92E40E94071081E07F
S1134F5080930D45E0E8F4E0818581608187FF91CD
S1134F60EF91BF91AF919F918F917F916F915F91DD
S1134F704F913F912F910F900BBE0F900FBE0F904A
S1134F801F9018951092134087E093E40E94071035
S1134F908DE393E40E9428106091CD4470E080E09A
S1134FA090E00E9446108DE493E40E9428106091E2
S1134FB0CC4470E080E090E00E9446108DE593E4DC
S1134FC00E9428106091CB4470E080E090E00E9441
S1134FD046108DE693E40E9428106091CA4470E064
S1134FE080E090E00E9446104AC48091D94488230E
S1134FF009F469C08091CE44882309F464C08DE724
S113500093E40E9407108091D5448F5F8093D54428
S1135010863018F081E08093D5448091D544823065
S1135020B9F018F4813031F03DC08330F9F08430A8
S113503059F138C0E0E0FAE08081816080838EE03D
S113504096E080A791A7809311409093124030C0BE
S1135050E0E0FAE080818160808380E496E080A7CC
S113506091A7809311409093124022C0E0E0FAE0AF
S113507080818160808382E796E080A791A78093F6
S113508011409093124014C0E0E0FAE08081816006
S1135090808384EA96E080A791A78093114090933F
S11350A0124006C08EE096E0809311409093124027
S11350B01092D94480911140909112408093DA4427
S11350C09093DB446DC08091D844882309F468C070
S11350D08091CE44882309F463C088E993E40E9454
S11350E007108091D5448F5F8093D544863018F0A3
S11350F081E08093D5448091D5448230B9F018F48E
S1135100813031F03DC08330F9F0843059F138C03A
S1135110E0E0FAE08081816080838EE096E080A701
S113512091A7809311409093124030C0E0E0FAE0E0
S11351308081816080838AEA95E080A791A780932B
S113514011409093124022C0E0E0FAE08081816037
S1135150808388E795E080A791A78093114090937E
S1135160124014C0E0E0FAE080818160808386E42C
S113517095E080A791A7809311409093124006C0B8
S11351808EE096E080931140909312401092D844A0
S113519080911140909112408093DA449093DB44C3
S11351A08091D944882309F469C08091CD4488232F
S11351B009F464C08DE793E40E9407108091D544FC
S11351C08F5F8093D544863018F081E08093D54476
S11351D08091D5448230B9F018F4813031F03DC06B
S11351E08330F9F0843059F138C0E0E0FAE080818E
S11351F08160808388E097E080A791A780930F4027
S11352009093104030C0E0E0FAE0808181608083B8
S11352108AE397E080A791A780930F409093104072
S113522022C0E0E0FAE08081816080838CE697E030
S113523080A791A780930F409093104014C0E0E0A2
S1135240FAE08081816080838EE997E080A791A74E
S113525080930F409093104006C088E097E08093BD
S11352600F40909310401092D94480910F40909138
S113527010408093DA449093DB4401C38091D84476
S1135280882309F469C08091CD44882309F464C05B
S113529088E993E40E9407108091D5448F5F80933E
S11352A0D544863018F081E08093D5448091D5446C
S11352B08230B9F018F4813031F03DC08330F9F018
S11352C0843059F138C0E0E0FAE080818160808365
S11352D088E097E080A791A780930F4090931040B7
S11352E030C0E0E0FAE080818160808386ED96E062
S11352F080A791A780930F409093104022C0E0E0D4
S1135300FAE080818160808384EA96E080A791A797
S113531080930F409093104014C0E0E0FAE0808145
S11353208160808382E796E080A791A780930F40F5
S11353309093104006C088E097E080930F409093CC
S113534010401092D84480910F4090911040809367
S1135350DA449093DB4493C28091D944882309F4BE
S113536069C08091CC44882309F464C083EB93E43E
S11353700E9407108091D5448F5F8093D544863076
S113538018F081E08093D5448091D5448230B9F0FF
S113539018F4813031F03DC08330F9F0843059F194
S11353A038C0E0E0FAE080818160808380ED97E09E
S11353B080A791A780930D4090930E4030C0E0E009
S11353C0FAE080818160808382E098E080A791A7E1
S11353D080930D4090930E4022C0E0E0FAE080817B
S11353E08160808384E398E080A791A780930D4037
S11353F090930E4014C0E0E0FAE0808181608083E5
S11354008AEC98E080A791A780930D4090930E407A
S113541006C080ED97E080930D4090930E4010926B
S1135420D94480910D4090910E408093DA4490933A
S1135430DB4425C28091D844882309F469C0809153
S1135440CC44882309F464C08FEC93E40E940710D1
S11354508091D5448F5F8093D544863018F081E0E5
S11354608093D5448091D5448230B9F018F48130CA
S113547031F03DC08330F9F0843059F138C0E0E0B8
S1135480FAE080818160808380ED97E080A791A716
S113549080930D4090930E4030C0E0E0FAE08081AC
S11354A0816080838EE997E080A791A780930D4067
S11354B090930E4022C0E0E0FAE080818160808316
S11354C08CE697E080A791A780930D4090930E40BF
S11354D014C0E0E0FAE08081816080838AE397E091
S11354E080A791A780930D4090930E4006C080ED55
S11354F097E080930D4090930E401092D844809191
S11355000D4090910E408093DA449093DB44B7C1F0
S11355108091D944882309F469C08091CB448823BD
S113552009F464C08BEE93E40E9407108091D54483
S11355308F5F8093D544863018F081E08093D54402
S11355408091D5448230B9F018F4813031F03DC0F7
S11355508330F9F0843059F138C0E0E0FAE080811A
S11355608160808380E699E080A791A780930B40B7
S113557090930C4030C0E0E0FAE080818160808349
S113558082E999E080A791A780930B4090930C4007
S113559022C0E0E0FAE080818160808384EC99E0BD
S11355A080A791A780930B4090930C4014C0E0E037
S11355B0FAE080818160808386EF99E080A791A7DB
S11355C080930B4090930C4006C080E699E0809352
S11355D00B4090930C401092D94480910B409091D1
S11355E00C408093DA449093DB4449C18091D844C1
S11355F0882309F469C08091CB44882309F464C0EA
S113560087E094E40E9407108091D5448F5F8093D3
S1135610D544863018F081E08093D5448091D544F8
S11356208230B9F018F4813031F03DC08330F9F0A4
S1135630843059F138C0E0E0FAE0808181608083F1
S113564080E699E080A791A780930B4090930C404B
S113565030C0E0E0FAE08081816080838EE299E0EE
S113566080A791A780930B4090930C4022C0E0E068
S1135670FAE08081816080838CEF98E080A791A715
S113568080930B4090930C4014C0E0E0FAE08081DA
S1135690816080838AEC98E080A791A780930B4077
S11356A090930C4006C080E699E080930B40909361
S11356B00C401092D84480910B4090910C40809300
S11356C0DA449093DB44DBC08091D944882309F405
S11356D069C08091CA44882309F464C083E294E4D5
S11356E00E9407108091D5448F5F8093D544863003
S11356F018F081E08093D5448091D5448230B9F08C
S113570018F4813031F03DC08330F9F0843059F120
S113571038C0E0E0FAE080818160808382E29BE02F
S113572080A791A78093094090930A4030C0E0E09D
S1135730FAE080818160808384E59BE080A791A763
S11357408093094090930A4022C0E0E0FAE080810F
S11357508160808386E89BE080A791A780930940BD
S113576090930A4014C0E0E0FAE080818160808375
S113577088EB9BE080A791A78093094090930A400F
S113578006C088EB9BE08093094090930A401092F6
S1135790D9448091094090910A408093DA449093CF
S11357A0DB446DC08091D844882309F468C080919B
S11357B0CA44882309F463C08FE394E40E94071069
S11357C08091D5448F5F8093D544863018F081E072
S11357D08093D5448091D5448230B9F018F4813057
S11357E031F03DC08330F9F0843059F138C0E0E045
S11357F0FAE080818160808388EB9BE080A791A799
S11358008093094090930A4030C0E0E0FAE0808140
S11358108160808386E89BE080A791A780930940FC
S113582090930A4022C0E0E0FAE0808181608083A6
S113583084E59BE080A791A78093094090930A4058
S113584014C0E0E0FAE080818160808382E29BE022
S113585080A791A78093094090930A4006C088EBE3
S11358609BE08093094090930A401092D844809121
S1135870094090910A408093DA449093DB448091EC
S11358801340882309F4B1CB109213402BE94BE465
S11358906AE787E30E9463156091DA447091DB4400
S11358A0072E000C880B990B0E9446101092D744C7
S11358B01092CE441092CD441092CC441092CB441A
S11358C01092CA448BE594E40E9407108091DA4454
S11358D09091DB4408950F938091D744882389F1F4
S11358E08091274590912845A0912945B0912A455A
S11358F04091D1445091D2446091D3447091D444A6
S1135900841B950BA60BB70B893B9B40A105B105E6
S1135910C0F082E794E40E94071009E121E144E821
S11359205AE062E88CE30E94EB120E94C2271092B4
S1135930D1441092D2441092D3441092D444109281
S1135940D7440F910895F89495E288ED84BF90931D
S113595068000E949C1D80E895E20E94D50FE0E457
S1135960F4E080818061808384818F7E8483C0E2BF
S1135970D4E08881816088830E9431230E94511081
S11359808881816088838C818E7F8C83E0E8F4E059
S11359908081886080830E9437110E944E240E9477
S11359A0C21C0E9490150E94721E0E94741A0E94CA
S11359B042242FEF82E597E0215080409040E1F7A8
S11359C000C0000078940E948F250E94932183E8F0
S11359D094E40E94071082E30E942C190E94251966
S11359E00E94B41C0E94C51C0E941E220E94A81B77
S11359F00E946B2C0E94C925EECF5058BB27AA27C2
S1135A000E94152D0C948F2E0E94812E38F00E9436
S1135A10882E20F039F49F3F19F426F40C947E2E3E
S1135A200EF4E095E7FB0C94782EE92F0E94A02E4B
S1135A3058F3BA17620773078407950720F079F4BF
S1135A40A6F50C94C22E0EF4E0950B2EBA2FA02DC1
S1135A500B01B90190010C01CA01A0011124FF2717
S1135A60591B99F0593F50F4503E68F11A16F04012
S1135A70A22F232F342F4427585FF3CF4695379511
S1135A802795A795F0405395C9F77EF41F16BA0BD6
S1135A90620B730B840BBAF09150A1F0FF0FBB1F84
S1135AA0661F771F881FC2F70EC0BA0F621F731FCD
S1135AB0841F48F4879577956795B795F7959E3F2A
S1135AC008F0B0CF9395880F08F09927EE0F9795BB
S1135AD0879508950E94542E08F481E008950E9449
S1135AE0832D0C948F2E0E94882E58F00E94812EB4
S1135AF040F029F45F3F29F00C94782E51110C9456
S1135B00C32E0C947E2E0E94A02E68F39923B1F329
S1135B10552391F3951B550BBB27AA2762177307CF
S1135B20840738F09F5F5F4F220F331F441FAA1F63
S1135B30A9F335D00E2E3AF0E0E832D0915050401F
S1135B40E695001CCAF72BD0FE2F29D0660F771FCD
S1135B50881FBB1F261737074807AB07B0E809F0B3
S1135B60BB0B802DBF01FF2793585F4F3AF09E3F38
S1135B70510578F00C94782E0C94C32E5F3FE4F317
S1135B80983ED4F3869577956795B795F7959F5F7B
S1135B90C9F7880F911D9695879597F90895E1E0C7
S1135BA0660F771F881FBB1F621773078407BA0726
S1135BB020F0621B730B840BBA0BEE1F88F7E09581
S1135BC008950E94E82D6894B1110C94C32E089591
S1135BD00E94A82E88F09F5798F0B92F9927B751A3
S1135BE0B0F0E1F0660F771F881F991F1AF0BA957D
S1135BF0C9F714C0B13091F00E94C22EB1E00895EB
S1135C000C94C22E672F782F8827B85F39F0B93FDC
S1135C10CCF3869577956795B395D9F73EF490952F
S1135C208095709561957F4F8F4F9F4F0895E894AD
S1135C3009C097FB3EF490958095709561957F4FD0
S1135C408F4F9F4F9923A9F0F92F96E9BB2793957E
S1135C50F695879577956795B795F111F8CFFAF48E
S1135C60BB0F11F460FF1BC06F5F7F4F8F4F9F4FBF
S1135C7016C0882311F096E911C0772321F09EE81D
S1135C80872F762F05C0662371F096E8862F70E083
S1135C9060E02AF09A95660F771F881FDAF7880F5D
S1135CA09695879597F90895990F0008550FAA0BB3
S1135CB0E0E8FEEF16161706E807F907C0F012161B
S1135CC01306E407F50798F0621B730B840B950B1E
S1135CD039F40A2661F0232B242B252B21F4089573
S1135CE00A2609F4A140A6958FEF811D811D089510
