S017000044635F73756374696F6E5F70756D702E73726563E1
S11300000C94720F0C94910F0C94910F0C94910F0B
S11300100C94910F0C94910F0C94910F0C94910FDC
S11300200C94910F0C94910F0C94910F0C94910FCC
S11300300C94910F0C94311B0C94910F0C94910F10
S11300400C94910F0C94910F0C94910F0C94910FAC
S11300500C94910F0C94910F0C94910F0C94910F9C
S11300600C94910F0C94910F0C94910F0C94910F8C
S11300700C94910F0C94B9270C94671B0C94910F5A
S11300800C94910F0C94910F0C942E270C94910FB7
S11300900C94910F0C94910F0C94910F0C94910F5C
S11300A00C94910F0C94910F0C94910F0C94910F4C
S11300B00C94910F0C943D280C94910F0C94910F77
S11300C00C94910F0C94910F0C94910F0C94910F2C
S11300D00C94910F0C94910F0C94910F0C94910F1C
S11300E00C94910F0C94910F07634236B79BD8A7D9
S11300F01A39685618AEBAAB558C1D3CB7CC576349
S1130100BD6DEDFD753EF6177231BF000000803FF6
S113011008000000BE922449123EABAAAA2ABECD12
S1130120CCCC4C3E00000080BEABAAAAAA3E000084
S11301300000BF000000803F00000000000841787C
S1130140D3BB4387D1133D190E3CC3BD4282AD2BB3
S11301503E68EC8276BED98FE1A93E4C80EFFFBEAB
S113016001C4FF7F3F000000000000000000000009
S1130170000000000000000000000000000000007B
S11301800000FE3F3FDFEFF7F306FF7FBFDFEFF72F
S1130190FB86C36186030C061BC6C36186030C067B
S11301A01BC6C36186030C061BE6C36186030C06EB
S11301B01B66FF7F86030FC7FB76FE7F86030FC790
S11301C0F336C06186030C07833EC06186030C06C8
S11301D0C31EC06186030C06631EC06186030C0641
S11301E0330EC06186030FF61B0EC06186030FF643
S11301F00B060000000000000000000000000000EA
S113020000000000000000000000000000000000EA
S113021000000000000000000000000000000000DA
S113022000000000000000000000000000000000CA
S113023000000000000000000000000000000000BA
S113024000000000000000000000000000000000AA
S1130250000000000000000000000000000000009A
S1130260000000000000000000000000000000008A
S113027000003F1F8FE7E7F9F9807FBFDFEFF7FB4F
S1130280FD8061B0D80C30C30D806030D80C00C341
S11302900D806030D80C00C30D806030D80C00C3D2
S11302A00D807F3FDF8C00C3FD803FBF9F8C00C368
S11302B0FD8001B0180C00C30D8001B0180C00C300
S11302C00D8001B0180C00C30D8061B0180C30C350
S11302D00D807FB01FEFF7FB0DFE3F300FE7E7FB0C
S11302E00DFE0000000000000000000000000000FF
S11302F000000000000000000000000000000000FA
S113030000000000000000000000000000000000E9
S113031000000000000000000000000000000000D9
S113032000000000000000000000000000000000C9
S113033000000000000000000000000000000000B9
S113034000000000000000000000000000000000A9
S11303500000003FD8303FDC30061E30061E300659
S11303601F30061B30061BB00619B00619F006181C
S1130370F00618F00618703FD8703FD8300000001F
S11303800000000000000000000000000000000069
S11303900000000000000000000000000000000059
S11303A00000000000000000000000000000000049
S11303B00000000000000000000000003F9837FB30
S11303C0FCFCC1803FD837FBFDFEE18030D830C053
S11303D06186F18030D830C06186F18030D830C079
S11303E06186F98030D830C06186D9803F9830C0AA
S11303F06186DD803F9830C06186CD8030D830C0C2
S11304006186CF8030D830C06186C78030D830C094
S11304106186C78030D830C06186C3803FDFF0C0BA
S113042061FEC3803F8FE0C060FCC180000000001B
S113043000000000000000000000000000000000B8
S113044000000000000000000000000000000000A8
S11304500000000000000000000000000000000098
S11304600000000000000000000000000000000088
S11304700000000000000000000000000000000078
S11304800000000000000000000000000000000068
S11304900000000000000000000000000000000058
S11304A00000000000007F3F9FE7E3F07FBFDFEF25
S11304B0F7F861B0D80C361861B0D80C060061B0FA
S11304C0D80C060061B0D80C06007FBFDF8FE7F0C0
S11304D07F3F9F87F7F8603C18003018603618009B
S11304E030186033180030186031980C36186030BA
S11304F0DFEFF7F860305FEFE3F00000000000008A
S11305000000000000000000000000003FFC007F2D
S1130510FE00FFFF00FFFF00F00F00F00F00F00FE0
S113052000F00F00F00F00F00F00F00F00F00F00CC
S1130530F00F00F00F00F00F00F00F00F00F00F0CC
S11305400F00F00F00F00F00FFFF00FFFF007FFE21
S1130550003FFC0003F00007F0000FF0000FF00074
S11305600FF0000FF0000FF00001F00001F00001A7
S1130570F00001F00001F00001F00001F00001F0D2
S11305800001F00001F00001F00001F00001F000B2
S11305900FFE000FFE000FFE000FFE003FFC007F69
S11305A0FE00FFFF00FFFF00F00F00F00F00000F40
S11305B000000F00000F00000F003FFF007FFF004E
S11305C0FFFE00FFFC00F00000F00000F00000F06F
S11305D00000F00000F00000FFFF00FFFF007FFFBD
S11305E0003FFF003FFC007FFE00FFFF00FFFF0015
S11305F0F00F00F00F00000F00000F00000F0000CC
S11306000F001FFF001FFF001FFF001FFF00000F50
S113061000000F00000F00000F00F00F00F00F00AB
S1130620FFFF00FFFF007FFE003FFC00007C000096
S1130630FC0000FC0001FC0003FC0003FC0007FCC0
S1130640000FFC000FBC001F3C003F3C003E3C0080
S11306507C3C00FC3C00F83C00FFFF00FFFF00FF77
S1130660FF00FFFF00003C00003C00003C00003C99
S113067000003C00FFFF00FFFF00FFFF00FFFF0042
S1130680F00000F00000F00000F00000FFFC00FFAC
S1130690FE007FFF003FFF00000F00000F00000F6F
S11306A000000F00000F00F00F00F00F00F00F002B
S11306B0FFFF00FFFF007FFE003FFC003FFC007FC8
S11306C0FE00FFFF00FFFF00F00F00F00F00F0003E
S11306D000F00000F00000F00000FFFC00FFFE004E
S11306E0FFFF00FFFF00F00F00F00F00F00F00F01D
S11306F00F00F00F00F00F00FFFF00FFFF007FFE70
S1130700003FFC00FFFF00FFFF00FFFF00FFFF00B2
S1130710F01F00F01F00F03F00003E00003E00000C
S11307207C00007C0000FC0000F80000F80001F0F0
S11307300001F00003F00003E00003E00007C00044
S113074007C0000FC0000F80000F80003FFC007F37
S1130750FE00FFFF00FFFF00F00F00F00F00F00F9E
S113076000F00F00F00F00F00F007FFE003FFC00D0
S11307703FFC007FFE00F00F00F00F00F00F00F0D0
S11307800F00F00F00F00F00FFFF00FFFF007FFEDF
S1130790003FFC003FFC007FFE00FFFF00FFFF0066
S11307A0F00F00F00F00F00F00F00F00F00F00F05A
S11307B00F00FFFF00FFFF007FFF003FFF00000F5F
S11307C000000F00000F00F00F00F00F00F00F000A
S11307D0FFFF00FFFF007FFE003FFC000000000061
S11307E000000000000000001F986C183FD86E182D
S11307F030D86F1830D86F1830D86F9830D86D98BB
S11308003FD86DD83F986CD83C186CD836186C78A3
S113081033186C7831986C3830DFEC38304FCC3882
S113082000000000000000000000000000000000C4
S113083000000000000000000000000000000000B4
S113084000000000000000000000000000000000A4
S11308500000000000000000000000000000000094
S11308600000000000007F9F9FE7E6007FBFDFEFEE
S1130870F6000C30C30C36000C30C30C36000C30C0
S1130880C30C36000C30C30C36000C30C30FF6001A
S11308900C30C30FF6000C30C30C36000C30C30C04
S11308A036000C30C30C36000C30C30C36000C3F41
S11308B0C30C37F80C1F830C37F80000000000004D
S11308C00000000000000000000000000000000024
S11308D00000000000000000000000000000000014
S11308E00000000000000000000000000000000004
S11308F000000000000000000000000000000000F4
S113090000000000000000000000000000000000E3
S11309100000000000000000000030CFCC33F1F8EC
S113092030DFEC37FBFC30D86C361B0C30D86C361F
S11309301B0030D86C361B0030D86C361B003FD8F7
S11309406C37FBF83FD86C37F1FC30D86C37800C2F
S113095030D86C36C00C30D86C36600C30D86C365D
S1130960330C30DFEFF61BFC30CFC7E609F800008C
S11309700000000000000000000000000000000073
S11309800000000000000000000000000000000063
S11309900000000000000000000000000000000053
S11309A00000000000000000000000000000000043
S11309B00000000000000000000000000000000033
S11309C00000000000000000000000000000000023
S11309D0000000003F1FCFCC37F9F9FE7FBFDFECEA
S11309E037FBFDFE61B0186C30C30D806030186CAD
S11309F030C301806030186C30C301806030186CE3
S1130A0030C301807F3F1FEC30C301F83FBF1FCECE
S1130A1070C301F801B01E0E70C3018001B01B0742
S1130A20E0C3018001B01987E0C3018061B018C33D
S1130A30C0C30D807FBFD863C7FBFDFE3F1FD82115
S1130A4087F9F9FE0000000000000000000000002B
S1130A500000000000000000000000000000000092
S1130A600000000000000000000000000000000082
S1130A700000000000000000000000000000000072
S1130A800000000000000000000000000000000062
S1130A900000000000000000000000000000000052
S1130AA00000000000000000000000000000000F33
S1130AB0F8001FFC00180C00180C001800001800A7
S1130AC0001FF0000FF800001C00000C00180C00C0
S1130AD0180C001C1C001FFC000FF800000000078D
S1130AE0FFFF80001FFFFFE0003FFFFFF0007FFFDC
S1130AF0FFF8007FFFFFF800FFFFFFFC00FFFFFF90
S1130B00FC00FFFFFFFC00FFE01FFC00FFC00FFC28
S1130B1000FF8007FC00FF8007FC00FF8007FC004B
S1130B20FF8007FC00FF8007FC00FF8007FC00FF3C
S1130B308007FC00FF8007FC00FF8007FC00FF80AB
S1130B4007FC00FF8007FC00FF8007FC00FF800714
S1130B50FC00FF8007FC00FF8007FC00FF8007FC0F
S1130B6000FF8007FC00FF8007FC00FF8007FC00FB
S1130B70FF8007FC00FF8007FC00FF8007FC00FFEC
S1130B808007FC00FF8007FC00FF8007FC00FF805B
S1130B9007FC00FF8007FC00FF8007FC00FF8007C4
S1130BA0FC00FFC00FFC00FFE01FFC00FFFFFFFC88
S1130BB000FFFFFFFC00FFFFFFFC007FFFFFF800CA
S1130BC07FFFFFF8003FFFFFF0001FFFFFE000077B
S1130BD0FFFF80000003FE00000007FE0000000F7E
S1130BE0FE0000000FFE0000001FFE0000003FFE9C
S1130BF00000007FFE000000FFFE000001FFFE0079
S1130C000003FFFE000007FFFE000007FFFE0000D8
S1130C1007FFFE000007FFFE000007FBFE000007C1
S1130C20F3FE000007E3FE000007C3FE0000078395
S1130C30FE00000703FE00000003FE00000003FEA8
S1130C4000000003FE00000003FE00000003FE009D
S1130C50000003FE00000003FE00000003FE00008D
S1130C600003FE00000003FE00000003FE0000007D
S1130C7003FE00000003FE00000003FE000000036A
S1130C80FE00000003FE00000003FE00000003FE5F
S1130C9000000003FE00000003FE00000003FE004D
S1130CA0000FFFFFFF000FFFFFFF000FFFFFFF001C
S1130CB00FFFFFFF000FFFFFFF000FFFFFFF000FFD
S1130CC0FFFFFF000FFFFFFF00000FFF8000003F4A
S1130CD0FFE000007FFFF80000FFFFFC0001FFFFC2
S1130CE0FE0003FFFFFF0007FFFFFF8007FFFFFF7A
S1130CF0C00FFC03FFC00FF801FFE01FF000FFE08E
S1130D001FF0007FE01FF0007FE01FF0007FE01F76
S1130D10F0007FE01FF0007FE0000000FFE0000033
S1130D2001FFC0000003FFC0000007FFC000000F68
S1130D30FF8000001FFF0000003FFF0000007FFE57
S1130D40000000FFFC000001FFF8000003FFF000BA
S1130D500007FFE000000FFFC000001FFF8000003D
S1130D603FFF0000007FFE000000FFFC000001FFC9
S1130D70F8000003FFF0000007FFE000000FFFC0D1
S1130D8000001FFF8000001FFF0000003FFE000066
S1130D90003FFC0000003FFFFFFFE03FFFFFFFE0DC
S1130DA03FFFFFFFE03FFFFFFFE03FFFFFFFE03FAC
S1130DB0FFFFFFE03FFFFFFFE03FFFFFFFE0003FDB
S1130DC0FFC00000FFFFF00001FFFFF80003FFFF7A
S1130DD0FE0007FFFFFF000FFFFFFF800FFFFFFF75
S1130DE0C00FF001FFC00FC000FFC00FC0007FC0E4
S1130DF00FC0007FC00F80003FC00000003FC00054
S1130E0000003FC00000003FC00000003FC00000E1
S1130E10007FC00000007FC0000000FFC00000038E
S1130E20FFC0003FFFFF80007FFFFF00007FFFFC4B
S1130E3000007FFFF000007FFFFF00007FFFFF80C6
S1130E40007FFFFFC0003FFFFFC0000003FFC000A2
S1130E500001FFC00000007FC00000007FC0000050
S1130E60003FC00000003FC00000003FC000000081
S1130E703FC00000003FC00F80003FC00FC0007F94
S1130E80C00FC0007FC00FC000FFC00FF001FFC043
S1130E900FFFFFFF800FFFFFFF0007FFFFFF0003AF
S1130EA0FFFFFE0001FFFFFC0000FFFFF000003F1A
S1130EB0FFC000000003FE00000007FE0000000F5A
S1130EC0FE0000001FFE0000003FFE0000007FFE49
S1130ED0000000FFFE000001FFFE000003FFFE0013
S1130EE00007FFFE00000FFFFE00001FFDFE0000D4
S1130EF03FF9FE00007FF1FE0000FFE1FE0001FF6C
S1130F00C1FE0003FF81FE0007FF01FE000FFE018A
S1130F10FE001FFC01FE003FF801FE007FF001FE11
S1130F2000FFE001FE00FFC001FE00FFFFFFFFE045
S1130F30FFFFFFFFE0FFFFFFFFE0FFFFFFFFE0FF1A
S1130F40FFFFFFE0FFFFFFFFE0FFFFFFFFE0000008
S1130F5001FE00000001FE00000001FE000000018F
S1130F60FE00000001FE00000001FE00000001FE82
S1130F7000000001FE00000001FE00000001FE0070
S1130F80000001FE00000001FE00000001FE000060
S1130F900001FE00000001FE00000001FE00000050
S1130FA001FE00000001FE001FFFFFFFC03FFFFF26
S1130FB0FFC03FFFFFFFC03FFFFFFFC03FFFFFFF3A
S1130FC0C03FFFFFFFC03FFFFFFFC03FFFFFFFC069
S1130FD03FFFFFFFC03FE00000003FE00000003F94
S1130FE0E00000003FE00000003FE00000003FE0C0
S1130FF00000003FE00000003FE00000003FE3FF8E
S1131000FC003FE7FFFE003FEFFFFF003FFFFFFF55
S1131010803FFFFFFFC03FFFFFFFE03FFFFFFFE018
S11310203FFFFFFFF03FFC007FF03FF0003FF83F41
S1131030E0001FF80000000FF800000007F80000AF
S11310400007F800000007F800000007F80000009F
S113105007F800000007F83FE00007F83FE000074A
S1131060F83FE0000FF83FF0001FF83FF0003FF8B2
S11310703FF8007FF83FFFFFFFF03FFFFFFFF03F27
S1131080FFFFFFE01FFFFFFFC00FFFFFFF8007FF11
S1131090FFFF0003FFFFFE0001FFFFFC0001FFFF55
S11310A0800003FFFFE0000FFFFFF8001FFFFFFCBD
S11310B0003FFFFFFE003FFFFFFF007FFFFFFF0039
S11310C07FFFFFFF00FFF003FF00FFE001FF00FFD1
S11310D0C001FF00FF8000FF00FF80007F00FF8051
S11310E0007F00FF80000000FF80000000FF800000
S11310F00000FF80000000FF80000000FF8000006F
S113110000FF9FFE0000FFBFFF8000FFFFFFE00025
S1131110FFFFFFF000FFFFFFF800FFFFFFFC00FFF1
S1131120FFFFFE00FFFFFFFE00FFFFFFFF00FFE0E9
S113113003FF00FFC001FF00FFC001FF00FF8000AC
S1131140FF00FF8000FF00FF8000FF00FF8000FF22
S113115000FF8000FF00FF8000FF00FF8001FF0010
S1131160FFC001FF00FFE003FF00FFFFFFFF00FFE0
S1131170FFFFFF00FFFFFFFF007FFFFFFE007FFF79
S1131180FFFE003FFFFFFC001FFFFFF8000FFFFF03
S1131190F0003FFFFFFF803FFFFFFF803FFFFFFFA7
S11311A0803FFFFFFF803FFFFFFF803FFFFFFF8087
S11311B03FFFFFFF803FFFFFFF803FFFFFFF8000F7
S11311C00007FF80000007FF80000007FF80000089
S11311D00FFF0000000FFF0000001FFE0000001FB3
S11311E0FE0000001FFE0000003FFC0000003FFC6A
S11311F00000007FF80000007FF80000007FF80086
S11312000000FFF0000000FFF0000001FFE000001C
S113121001FFE0000001FFE0000003FFC000000345
S1131220FFC0000007FF80000007FF80000007FFE9
S11312308000000FFF0000000FFF0000001FFE00F1
S113124000001FFE0000001FFE0000003FFC000025
S1131250003FFC0000007FF80000007FF800000061
S11312607FF8000000FFF0000000FFF0000001FF25
S1131270E0000001FFE0000001FFE0000003FFC008
S1131280000003FFC0000001FFFFC00007FFFFF0E4
S1131290000FFFFFF8001FFFFFFC003FFFFFFE00F1
S11312A07FFFFFFF007FFFFFFF007FFFFFFF00FFC7
S11312B0FFFFFF80FFE003FF80FFC001FF80FF808E
S11312C000FF80FF00007F80FF00007F80FF0000A0
S11312D07F80FF00007F80FF00007F80FF00007F91
S11312E080FF8000FF80FFC001FF80FFE003FF80DC
S11312F07FFFFFFF007FFFFFFF003FFFFFFE001F98
S1131300FFFFFC003FFFFFFE007FFFFFFF007FFFAA
S1131310FFFF00FFFFFFFF80FFE003FF80FFC0012E
S1131320FF80FF8000FF80FF00007F80FF00007FC0
S113133080FF00007F80FF00007F80FF00007F802F
S1131340FF00007F80FF8000FF80FFC001FF80FF5F
S1131350E003FF807FFFFFFF007FFFFFFF007FFFB1
S1131360FFFF003FFFFFFE001FFFFFFC000FFFFF1A
S1131370F80007FFFFF00001FFFFC00007FFFF8038
S1131380001FFFFFE0003FFFFFF0007FFFFFF800BA
S11313907FFFFFF800FFFFFFFC00FFFFFFFC00FFE3
S11313A0FFFFFC00FFE01FFC00FFC00FFC00FF80FC
S11313B007FC00FF8007FC00FF8007FC00FF80079C
S11313C0FC00FF8007FC00FF8007FC00FF8007FC97
S11313D000FFC00FFC00FFE01FFC00FFFFFFFC004C
S11313E0FFFFFFFC00FFFFFFFC007FFFFFFC007F0F
S11313F0FFFFFC003FFFFFFC001FFFFFFC0007FF97
S1131400FFFC00000007FC00000007FC00000007D0
S1131410FC00000007FC00000007FC00000007FCC3
S113142000000007FC00000007FC00FF8007FC0030
S1131430FF8007FC00FF8007FC00FF8007FC00FF23
S1131440C00FFC00FFE01FFC00FFFFFFFC00FFFFDC
S1131450FFFC00FFFFFFFC007FFFFFF8007FFFFFA2
S1131460F8003FFFFFF0001FFFFFE00007FFFF80D1
S11314700001FFFF800003FFFFE0000FFFFFF80003
S11314801FFFFFFC003FFFFFFE003FFFFFFF007F49
S1131490FFFFFF007FFFFFFF00FFF003FF00FFE0FF
S11314A001FF00FFC001FF00FF8000FF00FF80007C
S11314B07F00FF80007F00FF80000000FF800000AD
S11314C000FF80000000FF80000000FF800000009B
S11314D0FF80000000FF9FFE0000FFBFFF8000FFB1
S11314E0FFFFE000FFFFFFF000FFFFFFF800FFFF3A
S11314F0FFFC00FFFFFFFE00FFFFFFFE00FFFFFFFA
S1131500FF00FFE003FF00FFC001FF00FFC001FF79
S113151000FF8000FF00FF8000FF00FF8000FF004D
S1131520FF8000FF00FF8000FF00FF8000FF00FF3E
S11315308001FF00FFC001FF00FFE003FF00FFFF89
S1131540FFFF00FFFFFFFF00FFFFFFFF007FFFFF24
S1131550FE007FFFFFFE003FFFFFFC001FFFFFF8C0
S1131560000FFFFFF0001FFFFFFFC03FFFFFFFC0A2
S11315703FFFFFFFC03FFFFFFFC03FFFFFFFC03F34
S1131580FFFFFFC03FFFFFFFC03FFFFFFFC03FFF64
S1131590FFFFC03FE00000003FE00000003FE0002C
S11315A000003FE00000003FE00000003FE00000DA
S11315B0003FE00000003FE00000003FE3FFFC00CC
S11315C03FE7FFFE003FEFFFFF003FFFFFFF803FCD
S11315D0FFFFFFC03FFFFFFFE03FFFFFFFE03FFFD4
S11315E0FFFFF03FFC007FF03FF0003FF83FE000DA
S11315F01FF80000000FF800000007F800000007C3
S1131600F800000007F800000007F800000007F8E1
S113161000000007F83FE00007F83FE00007F83F4C
S1131620E0000FF83FF0001FF83FF0003FF83FF8EC
S1131630007FF83FFFFFFFF03FFFFFFFF03FFFFF9A
S1131640FFE01FFFFFFFC00FFFFFFF8007FFFFFF4B
S11316500003FFFFFE0001FFFFFC00000003FE008B
S1131660000007FE0000000FFE0000001FFE000047
S1131670003FFE0000007FFE000000FFFE000001AE
S1131680FFFE000003FFFE000007FFFE00000FFF47
S1131690FE00001FFDFE00003FF9FE00007FF1FE8A
S11316A00000FFE1FE0001FFC1FE0003FF81FE0018
S11316B007FF01FE000FFE01FE001FFC01FE003FBC
S11316C0F801FE007FF001FE00FFE001FE00FFC014
S11316D001FE00FFFFFFFFE0FFFFFFFFE0FFFFFF52
S11316E0FFE0FFFFFFFFE0FFFFFFFFE0FFFFFFFF63
S11316F0E0FFFFFFFFE0000001FE00000001FE002C
S1131700000001FE00000001FE00000001FE0000D8
S11317100001FE00000001FE00000001FE000000C8
S113172001FE00000001FE00000001FE00000001B7
S1131730FE00000001FE00000001FE00000001FEAA
S113174000000001FE00000001FE00000001FE0098
S1131750003FFFC00000FFFFF00001FFFFF800039F
S1131760FFFFFE0007FFFFFF000FFFFFFF800FFFDB
S1131770FFFFC00FF001FFC00FC000FFC00FC0008B
S11317807FC00FC0007FC00F80003FC00000003F3B
S1131790C00000003FC00000003FC00000003FC088
S11317A00000007FC00000007FC0000000FFC000F8
S11317B00003FFC0003FFFFF80007FFFFF00007FAA
S11317C0FFFC00007FFFF000007FFFFF00007FFFB1
S11317D0FF80007FFFFFC0003FFFFFC0000003FF4A
S11317E0C0000001FFC00000007FC00000007FC0F7
S11317F00000003FC00000003FC00000003FC000E8
S113180000003FC00000003FC00F80003FC00FC079
S1131810007FC00FC0007FC00FC000FFC00FF001E9
S1131820FFC00FFFFFFF800FFFFFFF0007FFFFFF59
S11318300003FFFFFE0001FFFFFC0000FFFFF000BC
S1131840003FFFC000000FFF8000003FFFE00000EA
S11318507FFFF80000FFFFFC0001FFFFFE0003FF15
S1131860FFFF0007FFFFFF8007FFFFFFC00FFC0320
S1131870FFC00FF801FFE01FF000FFE01FF0007F42
S1131880E01FF0007FE01FF0007FE01FF0007FE02A
S11318901FF0007FE0000000FFE0000001FFC00037
S11318A00003FFC0000007FFC000000FFF8000001E
S11318B01FFF0000003FFF0000007FFE000000FF4C
S11318C0FC000001FFF8000003FFF0000007FFE048
S11318D000000FFFC000001FFF8000003FFF00005A
S11318E0007FFE000000FFFC000001FFF800000381
S11318F0FFF0000007FFE000000FFFC000001FFF23
S11319008000001FFF0000003FFE0000003FFC00BD
S113191000003FFFFFFFE03FFFFFFFE03FFFFFFF4F
S1131920E03FFFFFFFE03FFFFFFFE03FFFFFFFE07F
S11319303FFFFFFFE03FFFFFFFE007FFFF80001FC7
S1131940FFFFE0003FFFFFF0007FFFFFF8007FFF95
S1131950FFF800FFFFFFFC00FFFFFFFC00FFFFFF9D
S1131960FC00FFE01FFC00FFC00FFC00FF8007FC31
S113197000FF8007FC00FF8007FC00FF8007FC00DD
S1131980FF8007FC00FF8007FC00FF8007FC00FFCE
S11319908007FC00FF8007FC00FF8007FC00FF803D
S11319A007FC00FF8007FC00FF8007FC00FF8007A6
S11319B0FC00FF8007FC00FF8007FC00FF8007FCA1
S11319C000FF8007FC00FF8007FC00FF8007FC008D
S11319D0FF8007FC00FF8007FC00FF8007FC00FF7E
S11319E08007FC00FF8007FC00FF8007FC00FF80ED
S11319F007FC00FF8007FC00FF8007FC00FFC00F0E
S1131A00FC00FFE01FFC00FFFFFFFC00FFFFFFFCEA
S1131A1000FFFFFFFC007FFFFFF8007FFFFFF800DF
S1131A203FFFFFF0001FFFFFE00007FFFF80000003
S1131A30000000000000000000000000000006009C
S1131A400000000F800000000FC000000017F0002D
S1131A5000000BFC00000005F90000003AF38000D0
S1131A60003D7FBC00003EBF3800001F5E780000D0
S1131A700FAFFC000007C7FE000003E3FF100007E0
S1131A80F1FFF0000FFAFFE0000FFD7FC0000F3EF2
S1131A90BF80000F1E5F00000F0E2E00003FFFFFEF
S1131AA0F0003FFFFFF00000000000000180000094
S1131AB00003E000000003F000000005FC0000004B
S1131AC002FF000000017E4000000EBCE000000F99
S1131AD05FEF00000FAFCE000007D79E000003EBBE
S1131AE0FF000001F1FF800000F8FFC40001FC7F4B
S1131AF0FC0003FEBFF80007FF5FF0000FCFAFE06C
S1131B00000F8797C0000F038B80000F00050000B3
S1131B100F000200003FFFFFF0003FFFFFF0000056
S1131B206000000000F800000000FC000000017FDD
S1131B3000000000BFC00000005F900000002F38CC
S1131B4000000E17FBC0000F0BF380000F85E78029
S1131B500007C2FFC00003E07FE00001F03FF10096
S1131B6000F81FFF0001FC2FFE0003FE17FC000716
S1131B70FF0BF8000FCF85F0000F8782E0000F0302
S1131B808140000F000080000F000000003FFFFFB5
S1131B90F0003FFFFFF000C000000000C0000000A4
S1131BA000C000000000C000000000C7E39C00006B
S1131BB0CFE7FE0000CC66660000CC66660000CF6E
S1131BC0E6660000CFE6660000CC06660000CC06A0
S1131BD06600000C000000000C000000000C000077
S1131BE00000000000000000000000000000F00001
S1131BF0000000E000000001C000000001800000BF
S1131C000003FC00000007F8000000007000000062
S1131C10006000000000C0000000018000001C0300
S1131C200000003E00000000633FF00F00637FF8F7
S1131C301F8063C01831806380186180630038C3DB
S1131C4000631FFF8600631FFF0C00630000180081
S1131C50630000300063FFFFE00063FFFFC0003E4D
S1131C60000000001C000000007E7E7E7E00001844
S1131C7019FC000000001C39FE000000001E7986DB
S1131C80000000001E7986000000001BD9863D80FC
S1131C9000001999867F8000001999FE6380000076
S1131CA01819FC618000001819806180000018195F
S1131CB08061800000181980638000001819807FFB
S1131CC08000001819803D80000000000000000022
S1131CD0000000030C0000003E1CE30C7C3E007F6F
S1131CE03FF30CFE7F00C333330CC66300C03333B1
S1131CF00C066300C03333FC0E6300C03333FC1C9A
S1131D006300C033330C386300C033330C7063009A
S1131D10C333330CE063007F33330CFE7F003E3368
S1131D20330CFE3E0000000000000000000000C66E
S1131D300000738738C60300FFCFFCC63F00CCCC3D
S1131D40CCFE7F00CCCCCCFE6300CCCCCCC66300F4
S1131D50CCCCCCC67F00CCCCCCC63F00CCCCCCC643
S1131D600300000000000300000000006300000006
S1131D7000007F00000000003E0071C92F78398800
S1131D808A29284845888A29284845488A292F4885
S1131D904548F2292878452882292860452882293F
S1131DA02850451881C6CF4839183F8000781E0056
S1131DB0007FC000781E0000FFE000781E0000FFD6
S1131DC0E000381C0000E0E0003C3C0000E0E000E3
S1131DD03C3C0000E0E0003C3C0000E0E0003C3C17
S1131DE00000E0E0001E787F00E0E1FE1E78FF8046
S1131DF0FFE3FF1E78FF80FFE3FF1E78E380FFE32D
S1131E00FF0E70E380FFE3870FF0E380E0E3870FCA
S1131E10F0E380E0E3870FF0E380E0E3FF07E0FF17
S1131E20E0E0E3FE07E0FFE0E0E1C007E07EE00081
S1131E3001C0000000000001FF000000000003FFDB
S1131E40800000000003FF80000000000383800086
S1131E500000000383800000000003838000000072
S1131E600003FF800000000003FF80000000000169
S1131E70FF0000000000000000000000001E000041
S1131E80003F0000003F00000073800000618000FC
S1131E9000E1C00000C0C00001C0E000018060009B
S1131EA0039C7000033E3000077F380006071800CB
S1131EB00E071C000C7F8C001C3FCE00181FE60090
S1131EC03801F7003000F30070007B806000398037
S1131ED0E00019C0C00000C0C00000C0FFFFFFC088
S1131EE07FFFFF8011241FBECFEFCDBFDFE7DEBF32
S1131EF012E4A0E0B0E4ECE4F2E600E00BBF02C0C0
S1131F0007900D92A835B107D9F723E4A8E5B2E408
S1131F1001C01D92A930B207E1F70E94382A0C943F
S1131F2024310C9400006150710920E030E00EC0AF
S1131F30DC01A20FB31F4C91FC01E60FF71F508187
S1131F405C9340832F5F3F4F615071092617370719
S1131F507CF30895CF92DF92EF92FF920F931F9339
S1131F60CF93DF938A016901C0E0D0E011C078010A
S1131F70EC0EFD1E2AE030E040E050E00E948B2E83
S1131F80605DF7016083622F732F842F952F219654
S1131F90611571058105910551F706C0F801EC0F33
S1131FA0FD1F80E380832196CC15DD05BCF3BE01C3
S1131FB0C8010E94930FF801EC0FFD1F1082CE019F
S1131FC0DF91CF911F910F91FF90EF90DF90CF9011
S1131FD008958F929F92AF92BF92CF92DF92EF9229
S1131FE0FF920F931F93CF93DF936B017C018A01C0
S1131FF0E9010E94762B4B015C01072E000C880B33
S1132000990B0E94AE2B9B01AC01C701B6010E9443
S1132010922A6B017C01B401992024F46627772766
S113202068197909072E000C880B990B20E030E021
S1132030A8010E94AA0F5C01209781F1F801E80F22
S1132040F91F8EE28083BE010D2E000C880B990BC4
S11320500E94AE2B9B01AC0160E070E080E291E451
S11320600E94D02C9B01AC01C701B6010E94632CD5
S11320702FEFA21AB20A0E94762B9B01772324F435
S113208022273327261B370BA8014A0D5B1DB901F4
S1132090330F880B990B9E010E94AA0FDF91CF91F9
S11320A01F910F91FF90EF90DF90CF90BF90AF9072
S11320B09F908F900895E0E4F4E020812D7F2083A9
S11320C0208121602083BC0180E090E00E94AC2B41
S11320D020E030E040E851E40E94632C9B01AC0115
S11320E060E07BE187EB9EE40E94042B20E030E07B
S11320F040E05FE30E94932A0E947D2BE0E2F8E037
S1132100608771878681806C868308959091240806
S113211095FFFCCF8093220808950F931F93CF93CC
S1132120DF938C01C0E0D0E007C0F801EC0FFD1F85
S113213080810E9486102196F80101900020E9F721
S11321403197E01BF10BCE17DF0778F38AE00E948A
S11321508610DF91CF911F910F9108950F931F93D4
S1132160CF93DF938C01C0E0D0E007C0F801EC0FFF
S1132170FD1F80810E9486102196F80101900020A5
S1132180E9F73197E01BF10BCE17DF0778F3DF9106
S1132190CF911F910F91089520E030E042ED52E479
S11321A00E94AA0F82ED92E40E948D1008959A0174
S11321B042ED52E40E94E90F82ED92E40E948D10F8
S11321C00895E0E0F4E0808180688083A4E0B4E0D6
S11321D08C9180688C93808180618083808180640D
S11321E08083E0E4F9E08081806380838081816082
S11321F080838C9180688C930895809344098091A6
S113220043098823E4F70895DC0120E030E00CC0A2
S1132210FD01E20FF31F90819093440990914309CB
S11322209923E4F72F5F3F4F462F50E024173507DB
S11322307CF30895E0E0F9E080818F7E80838081E3
S1132240837F808380818D7F80830895E0E0F9E03F
S113225087E6868381E0858383818A6083838381A3
S1132260816083830895CF93DF93C82FD62F809105
S113227005098370833089F482E590E40E948D100F
S113228020E63AEE01C09C018091050983708330F9
S113229021F4C9010197232BB1F785E08093050947
S11322A0DD2341F08C2F90E0880F991F816080938B
S11322B0070904C08C2F880F8093070980E69AEEE3
S11322C02091050924FF06C02091050926FD02C0BE
S11322D00197B1F7892B21F48CE590E40E948D10CD
S11322E08091050982FF04C084E690E40E948D1069
S11322F0DF91CF91089585E88093A000E0E0F6E0B7
S113230081E082838083089581E080930A060895A2
S11323108093D042809308060E94841180910D0618
S113232080FFFCCF8091100690911106089580E8FB
S113233095E20E945B100E941A110E94261161E02E
S113234088E70E9433110895CF92DF92EF92FF92B3
S1132350CF93DF9385E10E9488116C01E12CF12C6D
S1132360C0E0D0E00CC085E10E948811C80ED91EDF
S1132370E11CF11CF694E794D794C7942196C233D8
S1132380D1058CF3C701B6010E94AC2B6B017C0113
S113239043E050E00E94D71023E333E343E550E4E5
S11323A0C701B6010E94632C20E030E040E859E305
S11323B00E94632C20E030E040E45FE30E94042BA1
S11323C06B017C018FEA90E40E94AE1043E050E080
S11323D0C701B6010E94D71020E030E040E05FE37F
S11323E0C701B6010E94922A29E838E848E85EE36A
S11323F00E94042B20E030E0A9010E94932A6B0183
S11324007C0143E050E00E94D710C701B601DF9180
S1132410CF91FF90EF90DF90CF9008950E94A41188
S11324200895CF92DF92EF92FF921F93CF93DF93A1
S1132430182F0E940E126B017C01C0E0D0E011C085
S11324400E940E129B01AC01C701B6010E94932A9F
S113245020E030E040E05FE30E94632C6B017C01EC
S11324602196812F90E00197C817D9074CF32FE0EC
S11324703CED4EE452E4C701B6010E94632CDF91A7
S1132480CF911F91FF90EF90DF90CF900895E0E0FF
S1132490F4E0808180688083E0E2F4E08081806100
S11324A08083E0E4F4E08081806280830895CF93A8
S11324B0DF93E0E2F4E0248120612483C0E0D4E0EF
S11324C02C812F772C830E9404118C8180688C834B
S11324D0DF91CF910895CF93DF93E0E2F4E094810C
S11324E090619483C0E0D4E09C819F779C830E9498
S11324F0FD108C818F778C83DF91CF9108950F939A
S11325001F93CF93DF93C0E2D4E09C819F7E9C8392
S113251000E014E0F80194819F7794830E94FD10F9
S1132520F8018481806884838C8180618C83DF914D
S1132530CF911F910F9108950F931F93CF93DF9322
S1132540C0E2D4E09C819F7E9C8300E014E0F8010B
S113255094819F7794830E94FD10F80184818068A0
S113256084838C8180618C83DF91CF911F910F9143
S11325700895CF93982F9F70C82FC295CF70C067CE
S1132580892F80660E949C128C2F0E949C12CF91EE
S11325900895CF93C82FC295CF70C0618F700E94E9
S11325A09C128C2F0E949C12CF9108950F931F931D
S11325B0CF93DF93062F122FD8E1D80FC8E1C40FB1
S11325C08D2F0E94C912802F0E94B91284EF0E949D
S11325D07F128D2F0E949C1286EF0E947F128C2FF7
S11325E00E949C1287EF0E947F12812F0E949C12EE
S11325F088EF0E947F12DF91CF911F910F91089570
S1132600CF93DF932FE94FE460E080E00E94D6127D
S1132610C0E0D0E004C080E00E946B122196C11596
S113262084E6D807C4F3DF91CF910895E0E0F4E0A5
S113263084818F778483E0E2F4E084818061848301
S1132640E0E4F4E084818F7D84832FEF88EF95E1CB
S1132650215080409040E1F700C0000084818062F6
S113266084832FEF8EE994E2215080409040E1F77B
S113267000C0000088EB0E947F1280E10E949C123F
S113268082EE0E947F122FEF85EA9EE02150804067
S11326909040E1F700C000008BEE0E947F1281E8B9
S11326A00E947F128BE40E947F128BE20E947F12B1
S11326B084EC0E947F1289E80E947F1284E20E94C7
S11326C07F1282EA0E947F1281EF0E947F128FE9BB
S11326D00E949C1284E80E947F1282EF0E947F1263
S11326E080E00E949C1283EF0E947F1282E30E948A
S11326F09C1280E40E947F1280E50E947F1281ED8B
S11327000E947F1286ED0E947F1288EC0E947F1245
S113271085E00E947F1288ED0E947F120E940013C0
S11327208DEA0E947F1208952F923F924F925F92FA
S11327306F927F928F929F92AF92BF92CF92DF92CD
S1132740EF92FF920F931F93CF93DF93CDB7DEB732
S11327506197CDBFDEBF8F836C871A012B87902EC4
S11327602DB73EB72E873F878BEA089F812D112412
S113277086958A8790E0DC01AA0FBB1FAD83BE83D8
S11327806D01BB0FEE08FF0800E010E0412C512C56
S1132790320109831A839D864601570189C0EDB72A
S11327A0FEB7E887F9872DB73EB78D819E81281B38
S11327B0390B2DBF3EBFADB7BEB71196AB83BC83FB
S11327C0AD0180E090E005C0FA01E80FF91F108226
S11327D001968C01092E000C220B330B08151905E8
S11327E02A053B058CF360E070E030E020E0ED84E6
S11327F03DC0F101E40DF51DF490BFEF4B1A5B0AE7
S11328006B0A7B0A87E090E02DC0EF2DF0E0082EE4
S113281002C0F595E7950A94E2F7E0FF1DC0E32FA7
S1132820F0E0E88BF98B8F01040F151FD801CC90D1
S1132830A22FB0E0AA0FBB1FA95EBF4BDC90DC281F
S1132840F801D082E889F9893196E40FF51F1081E7
S11328501196AC91A12BA0832F5F233010F03E5F23
S113286020E0019799238CF66F5F7F4F8E2D86951C
S11328708695869590E0681779070CF4BACF6C8535
S1132880F9816F0F262F4A853F81430F832F0E94C2
S1132890D6126D817E818B819C810E94571288851E
S11328A099858DBF9EBFA981BA811196A983BA83E8
S11328B0BB858B2F90E0E981FA81E817F9070CF4C6
S11328C06ECF2E853F852DBF3EBF6196CDBFDEBF47
S11328D0DF91CF911F910F91FF90EF90DF90CF90F8
S11328E0BF90AF909F908F907F906F905F904F902C
S11328F03F902F9008952F923F924F925F926F9244
S11329007F928F929F92AF92BF92CF92DF92EF927B
S1132910FF920F931F93CF93DF93CDB7DEB76297E8
S1132920CDBFDEBFA82E688B4A01322E2DB73EB72D
S1132930298B3A8B202E269426942694222D30E03F
S1132940A32DB0E00E94AA2E9B01AC01AE2DB0E0F5
S11329500E94B92E2B013C018BEA089F012D112402
S113296006950D87802F90E0DC01AA0FBB1FAE8770
S1132970BF87CD01092E000CAA0BBB0B8F83988750
S1132980A987BA8700E010E08FC0ADB7BEB7AB87A8
S1132990BC87EDB7FEB72F813885E21BF30BEDBF83
S11329A0FEBF8DB79EB701968D839E83AC0180E0F8
S11329B090E049825A826B827C82322D232D2F80B3
S11329C0388449845A8405C0FA01E80FF91F10823B
S11329D001966C01092E000CEE08FF08C214D30402
S11329E0E404F50488F349805A806B807C80232EAC
S11329F0322E60E070E030E020E03CC0F401E40DF1
S1132A00F51DD4909FEF491A590A690A790A87E09B
S1132A1090E02CC0ED2DF0E0082E02C0F595E7956E
S1132A200A94E2F7E0FF1CC0A32FB0E0A983BA83A5
S1132A307D01E40EF51EF701B080A22FB0E0AA0FCD
S1132A40BB1FA95EBF4BCC90CB28C082E981FA8121
S1132A503196E40FF51FF0801196AC91AF29A08355
S1132A602F5F233010F03E5F20E00197992394F606
S1132A706F5F7F4F822D90E0681779070CF4BECF0B
S1132A806889600F262F4D854A0D8A2D0E94D61223
S1132A906E857F858D819E810E9457122B853C8592
S1132AA02DBF3EBF0F5F1F4F832D90E008171907FE
S1132AB00CF46BCF89899A898DBF9EBF6296CDBF76
S1132AC0DEBFDF91CF911F910F91FF90EF90DF90C8
S1132AD0CF90BF90AF909F908F907F906F905F90BA
S1132AE04F903F902F900895FF920F931F93CF9391
S1132AF0DF93F62EC22F002381F0D42FD81B0E941F
S1132B00D612C0E007C08FEF0E946B128FEF0E94B5
S1132B106B12CF5FCD17B8F313C00E94D6120C2FDF
S1132B2010E00F191109C0E0D0E007C08FEF0E9438
S1132B306B1280E00E946B122196C017D107B0F38C
S1132B40DF91CF911F910F91FF900895FF920F9302
S1132B501F93CF93DF93F62EC22F002381F0D42F3F
S1132B60D81B0E94D612C0E007C08FEF0E946B12E0
S1132B708FEF0E946B12CF5FCD17B8F313C00E9482
S1132B80D6120C2F10E00F191109C0E0D0E007C0D5
S1132B9088EF0E946B1280E00E946B122196C0178E
S1132BA0D107B0F3DF91CF911F910F91FF9008955A
S1132BB0DF92EF92FF920F931F93CF93DF93F82E40
S1132BC0D62EE42E022F061B842F90E08F19910934
S1132BD063E070E00E94552ED62F10E013C0612FE1
S1132BE06D0D262F4E2D8F2D0E94D612C0E007C0EA
S1132BF08FEF0E946B128FEF0E946B12CF5FCD1785
S1132C00B8F31F5F101758F3DF91CF911F910F9105
S1132C10FF90EF90DF900895DF92EF92FF920F9371
S1132C201F93CF93DF93F82ED62EE42E022F061B8C
S1132C30D42FD81B10E013C0612F6D0D262F4E2DFD
S1132C408F2D0E94D612C0E007C080E00E946B1254
S1132C5080E00E946B12CF5FCD17B8F31F5F10178F
S1132C6058F3DF91CF911F910F91FF90EF90DF9078
S1132C700895A0EAB4E08C91877F8C9353968C914D
S1132C805397826053968C935397E0E8F4E08081E5
S1132C908D7F808381898260818B80818B7F80831B
S1132CA082898260828B8C918B7F8C9352968C91DB
S1132CB05297826052968C9380818E7F8083808924
S1132CC08260808BE0E4F4E0808184608083E0E2D1
S1132CD0F4E0808180628083089580919342882308
S1132CE0B9F081E080938742809116408F5F809392
S1132CF01640843018F081E080931640809116408D
S1132D008150833018F081E08093164010929342F2
S1132D100895882369F1E0E8F4E08481886084837D
S1132D20E0E0FAE080818160808380915F4290914D
S1132D30604280A791A781E0809365428091AC4274
S1132D409091AD42A091AE42B091AF428093954232
S1132D5090939642A0939742B09398428091744284
S1132D608823C1F081E08093144010927342089547
S1132D70811110C0E0E8F4E08481877F8483E0E07F
S1132D80FAE080818160808310A611A610926542CA
S1132D90109291420895809190428823C9F189EB61
S1132DA090E40E948D108091914281110AC080911B
S1132DB05F42909160428093280A9093290A892B5C
S1132DC001F5109291421092774210927B42109238
S1132DD07A4210926B4210926C4210926D421092A1
S1132DE06E42109276421092754210926F42109287
S1132DF07042109271421092724280E00E948916D1
S1132E0005C081E0809391420E94891610929042FD
S1132E100895CF92DF92EF92FF920E9411126B01FC
S1132E207C016093C8427093C9428093CA429093D4
S1132E30CB4220E030E0A9010E94FF2A88234CF411
S1132E401092C8421092C9421092CA421092CB42C8
S1132E5016C020E030E048E454E4C701B6010E9403
S1132E605E2C181664F480E090E0A8E4B4E4809347
S1132E70C8429093C942A093CA42B093CB42809176
S1132E801640823049F1833009F478C0813009F06A
S1132E90AAC080E090E0AAE7B5E48093B44290939E
S1132EA0B542A093B642B093B74220E030E048EC7C
S1132EB052E46091C8427091C9428091CA42909193
S1132EC0CB420E94632C6093B8427093B9428093C2
S1132ED0BA429093BB42ACC06091C8427091C9425F
S1132EE08091CA429091CB4229E134E04EEA5FE3FB
S1132EF00E94632C6093C4427093C5428093C6427F
S1132F009093C7420F2EC12CF0E8DF2EFBE3EF2E87
S1132F10F5E4FF2EF02DC092B442D092B542E09277
S1132F20B642F092B74224E333EF47E854E40E94F8
S1132F305E2C181664F484E393EFA7E8B4E480935A
S1132F40C4429093C542A093C642B093C74220E0C6
S1132F5030E048EC52E46091C4427091C5428091E3
S1132F60C6429091C7420E94632C6093B84270930A
S1132F70B9428093BA429093BB425AC06091C8420E
S1132F807091C9428091CA429091CB4226E73EE6B5
S1132F904AE55CE30E94632C6093C0427093C14293
S1132FA08093C2429093C3420F2EC12CD12CF8E4DB
S1132FB0EF2EF3E4FF2EF02DC092B442D092B5422E
S1132FC0E092B642F092B74220E030E048EC52E49E
S1132FD00E94632C6093B8427093B9428093BA42C2
S1132FE09093BB4225C081E08093164080E090E03E
S1132FF0AAE7B5E48093B4429093B542A093B64255
S1133000B093B74220E030E048EC52E46091C8420B
S11330107091C9428091CA429091CB420E94632C24
S11330206093B8427093B9428093BA429093BB4282
S1133030FF90EF90DF90CF9008958091480483FF34
S113304003C081E080937C420895E0E4F4E084814D
S1133050806184832FEF8EE994E221508040904078
S1133060E1F700C0000084818F7E84832FEF8EE916
S113307094E2215080409040E1F700C000000E949B
S113308097110895E0E4F4E080818F778083878945
S11330908160878B8081877F808383898160838B34
S11330A008950E9442188091480483FF04C081E07F
S11330B080937C42089510927C42089580917942D5
S11330C08823B1F08091480483FF09C081E0809394
S11330D07C42E0E2F4E084818160848307C0109242
S11330E07C42E0E2F4E084818E7F84831092794212
S11330F080917C42882329F0E0E2F4E0948191609D
S1133100948308950F931F9380917B42882309F43D
S113311040C09091774291113CC0909178429111B6
S113312038C090917A429923A1F1909176429230DD
S113313080F14091AC425091AD426091AE427091A9
S1133140AF4200916B4210916C4220916D423091DC
S11331506E42401B510B620B730B483E534061059A
S11331607105B8F481E00E94891681E0809377426A
S113317010927B4210927A4210926B4210926C42EF
S113318010926D4210926E42109276428093914258
S1133190C2C0882369F190917A42992349F19091B0
S11331A07742992329F180E00E9489161092774290
S11331B010927B4210927A4210926B4210926C42AF
S11331C010926D4210926E42109276421092914289
S11331D080917542882309F49EC010927542109222
S11331E06F4210927042109271421092724293C0D8
S11331F08823A1F190917742911130C09091784247
S113320091112CC090917642911128C090917A42EC
S1133210911124C04091AC425091AD426091AE42B4
S11332207091AF4200916B4210916C4220916D42BB
S113323030916E42401B510B620B730B493E53405D
S11332406105710558F081E00E94891681E0809340
S1133250784210927342809391425DC090917A4279
S1133260992301F1209178422223E1F020917642C2
S11332702223C1F08823B1F080E00E9489161092C5
S1133280784210927A4210927B42109276421092C7
S11332906B4210926C4210926D4210926E421092E8
S11332A0914239C0811106C0911104C080917642C7
S11332B0882389F18091774281112DC080917842D1
S11332C0811129C08091AC429091AD42A091AE424F
S11332D0B091AF4240916B4250916C4260916D420B
S11332E070916E42841B950BA60BB70B893E9340DD
S11332F0A105B10580F01092774210926B421092B2
S11333006C4210926D4210926E4210927B42109267
S11333107A42109276421F910F9108954F925F92D4
S11333206F927F928F929F92AF92BF92CF92DF92D1
S1133330EF92FF9280917442882309F4D8C080915F
S11333407742811104C0809191428823D1F0809109
S11333507542811116C081E0809375428091AC4220
S11333609091AD42A091AE42B091AF4280936F4232
S113337090937042A0937142B09372421092734240
S1133380B6C0809175428823E1F14091AC425091DE
S1133390AD426091AE427091AF42C0906F42D09006
S11333A07042E0907142F09072424C195D096E09CE
S11333B07F09413457476B41710518F180E00E9441
S11333C089161092754210926F42109270421092B8
S11333D07142109272421092774210926B42109294
S11333E06C4210926D4210926E4210927B42109287
S11333F07A421092764281E0809373421092914215
S113340076C0882309F473C0C090AC42D090AD421A
S1133410E090AE42F090AF4240906F4250907042C4
S11334206090714270907242D701C6018419950967
S1133430A609B70980349747AB41B10508F057C0D6
S11334408090B8429090B942A090BA42B090BB42EA
S1133450A50194016091BC427091BD428091BE422D
S11334609091BF420E94922A0E94762B9B0177235F
S113347024F422273327261B370BB901330F880B7B
S1133480990B0E94AE2B2091B4423091B5424091E9
S1133490B6425091B7420E945E2C18166CF4C414C4
S11334A0D504E604F70441F0C0926F42D092704212
S11334B0E0927142F09272428091B0429091B14296
S11334C0A091B242B091B342C81AD90AEA0AFB0ADF
S11334D089EEC81683E0D806E104F10440F0809236
S11334E0BC429092BD42A092BE42B092BF42FF90B5
S11334F0EF90DF90CF90BF90AF909F908F907F9090
S11335006F905F904F90089580917B42882359F08B
S113351081E00E94891610927B421092734281E0EE
S113352080939142089580917A42882339F080E013
S11335300E94891610927A421092914208950E9434
S11335405E18882359F080919442882319F00E94D0
S113355082180895811102C00E94841A08950E945D
S11335607B110895CF93C0E018C082E00E948811B7
S1133570409188425091894260918A4270918B4275
S1133580480F591F611D711D409388425093894211
S113359060938A4270938B42CF5FC43130F32C2FF7
S11335A030E040E050E0609188427091894280911F
S11335B08A4290918B420E94692E209388423093D4
S11335C0894240938A4250938B42CA01B9010E94B6
S11335D0AC2B23E333E343E550E40E94632C20E067
S11335E036EF4FE157E40E94042B60938C427093B2
S11335F08D4280938E4290938F4260E070E0CB01C5
S1133600CF9108958FEB9DE580931C0B90931D0B38
S1133610E1E1FBE080818083E5E1FBE08081816082
S11336208083E0E1FBE080818160808308958FEBFB
S11336309DE580932C0B90932D0BE1E2FBE08081C0
S11336408083E5E2FBE0808181608083E0E2FBE04F
S113365080818160808308950E94021B0E94171B51
S113366008951F920F920FB60F9211240BB60F926A
S11336708F939F93AF93BF93EF93FF938091160B18
S113368080FF18C08091AC429091AD42A091AE42AF
S1133690B091AF420196A11DB11D8093AC429093AD
S11336A0AD42A093AE42B093AF42E6E1FBE080812D
S11336B081608083FF91EF91BF91AF919F918F9132
S11336C00F900BBE0F900FBE0F901F9018951F9276
S11336D00F920FB60F9211240BB60F920F931F93F4
S11336E02F933F934F935F936F937F938F939F9306
S11336F0AF93BF93EF93FF934091A8425091A94297
S11337006091AA427091AB424F5F5F4F6F4F7F4F02
S11337104093A8425093A9426093AA427093AB424B
S11337208091A4429091A542A091A642B091A74253
S11337300196A11DB11D8093A4429093A542A0932C
S1133740A642B093A7420091A0421091A1422091B9
S1133750A2423091A3420F5F1F4F2F4F3F4F009360
S1133760A0421093A1422093A2423093A342493E27
S113377053406105710558F021E020939B4210925B
S1133780A8421092A9421092AA421092AB42893CDC
S11337909105A105B10558F081E080939A421092F9
S11337A0A4421092A5421092A6421092A742E6E2C9
S11337B0FBE0808181608083FF91EF91BF91AF91A5
S11337C09F918F917F916F915F914F913F912F9135
S11337D01F910F910F900BBE0F900FBE0F901F9073
S11337E01895109293421092744210929042109243
S11337F0944210929242089510925A4210925B425F
S113380010925C4210925D4210925E4208950F93B2
S113381080919242882309F4E7C1809108408F5F28
S113382080930840863018F081E0809308408091AE
S11338300840833009F4B6C030F4813059F0823046
S113384009F45CC0ABC1843009F400C1853009F4CB
S113385051C1A4C180919142811104C080916542FB
S1133860882359F0E0E0FAE08081816080838091D0
S113387011409091124080A791A78EEA90E1809325
S1133880834290938442809111409091124080939E
S11338905F429093604280911340811113C08091E4
S11338A0694290916A4280935F4290936042E0E063
S11338B0FAE08081816080838091694290916A42BC
S11338C080A791A70E94FC1B81E080935E4208E2DE
S11338D021E345E458E168E285E30E94941321E37F
S11338E04AE359E168E282E40E9494132FE047E935
S11338F05BE16FE582E40E94941373C1809191426D
S1133900811104C080916542882359F0E0E0FAE017
S113391080818160808380910F409091104080A7C6
S113392091A78CEC90E180938342909384428091A0
S11339300F409091104080935F4290936042809139
S11339401340811113C08091694290916A4280931F
S11339505F4290936042E0E0FAE08081816080837E
S11339608091694290916A4280A791A70E94FC1BB2
S113397081E080935D4208E221E340E557E168E29B
S113398085E30E94941321E34AE359E168E282E467
S11339900E9494132FE047E95BE16FE582E40E9403
S11339A094131FC180919142811104C0809165429A
S11339B0882359F0E0E0FAE080818160808380917F
S11339C00D4090910E4080A791A78CEC90E18093DC
S11339D083429093844280910D4090910E40809355
S11339E05F429093604280911340811113C0809193
S11339F0694290916A4280935F4290936042E0E012
S1133A00FAE08081816080838091694290916A426A
S1133A1080A791A70E94FC1B81E080935C4208E28E
S1133A2021E34BE556E168E285E30E94941321E328
S1133A304AE359E168E282E40E9494132FE047E9E3
S1133A405BE16FE582E40E949413CBC080919142C4
S1133A50811104C080916542882359F0E0E0FAE0C6
S1133A6080818160808380910B4090910C4080A77D
S1133A7091A783E091E18093834290938442809163
S1133A800B4090910C4080935F42909360428091F0
S1133A901340811113C08091694290916A428093CE
S1133AA05F4290936042E0E0FAE08081816080832D
S1133AB08091694290916A4280A791A70E94FC1B61
S1133AC081E080935B4208E221E346E655E168E247
S1133AD085E30E94941321E34AE359E168E282E416
S1133AE00E9494132FE047E95BE16FE582E40E94B2
S1133AF0941377C080919142811104C080916542F2
S1133B00882359F0E0E0FAE080818160808380912D
S1133B10094090910A4080A791A786E291E18093A1
S1133B208342909384428091094090910A4080930B
S1133B305F429093604280911340811113C0809141
S1133B40694290916A4280935F4290936042E0E0C0
S1133B50FAE08081816080838091694290916A4219
S1133B6080A791A70E94FC1B81E080935A4208E23F
S1133B7021E341E754E168E285E30E94941321E3E1
S1133B804AE359E168E282E40E9494132FE047E992
S1133B905BE16FE582E40E94941323C0809111409D
S1133BA09091124080935F42909360420E94FC1B6C
S1133BB081E080935E4208E221E345E458E168E253
S1133BC085E30E94941321E34AE359E168E282E425
S1133BD00E9494132FE047E95BE16FE582E40E94C1
S1133BE0941310929242FDC0882309F4FAC0809184
S1133BF0914281110DC080916542811109C080916B
S1133C007442811105C080919442882309F4E9C06B
S1133C10809108408F5F80930840863018F081E0DF
S1133C208093084080910840833009F451C028F4FF
S1133C30813051F0823051F1B1C0843009F46AC04E
S1133C40853009F489C0AAC0E0E0FAE0808181608F
S1133C508083809111409091124080A791A708E23F
S1133C6021E345E458E168E285E30E94941321E3EB
S1133C704AE359E168E282E40E9494132FE047E9A1
S1133C805BE16FE582E40E949413A9C0E0E0FAE0EE
S1133C9080818160808380910F409091104080A743
S1133CA091A708E221E340E557E168E285E30E9439
S1133CB0941321E34AE359E168E282E40E949413F5
S1133CC02FE047E95BE16FE582E40E94941387C02B
S1133CD0E0E0FAE080818160808380910D409091E2
S1133CE00E4080A791A708E221E34BE556E168E284
S1133CF085E30E94941321E34AE359E168E282E4F4
S1133D000E9494132FE047E95BE16FE582E40E948F
S1133D10941365C0E0E0FAE0808181608083809143
S1133D200B4090910C4080A791A708E221E346E65E
S1133D3055E168E285E30E94941321E34AE359E1E3
S1133D4068E282E40E9494132FE047E95BE16FE5A7
S1133D5082E40E94941343C0E0E0FAE08081816031
S1133D6080838091094090910A4080A791A708E23E
S1133D7021E341E754E168E285E30E94941321E3DF
S1133D804AE359E168E282E40E9494132FE047E990
S1133D905BE16FE582E40E94941321C0809111409D
S1133DA09091124080935F429093604281E08093AF
S1133DB05E4208E221E340E557E16AE285E30E94BE
S1133DC0941321E34AE359E168E282E40E949413E4
S1133DD02FE047E95BE16FE582E40E9494131092BF
S1133DE092420F9108950E946D160E94CB160E9474
S1133DF0071C089581E08093824280938142089554
S1133E000E94FA1E8091CC42882321F08091CD42F9
S1133E10811104C00E9447120E94161308958091D4
S1133E20154090911640891749F081E080938242B1
S1133E3080938042809381429093154090917F4279
S1133E4080917442981729F080937F4281E0809397
S1133E50144080919B42882381F081E080938242C8
S1133E6080919442811104C080917D42811103C0EC
S1133E7081E080937E4210929B4280919A428823F3
S1133E8029F081E08093804210929A4208950F9322
S1133E902AE044E060E080E00E940C1608E32EE192
S1133EA04AEA5DE162E38EE10E94941300E328E0B4
S1133EB04AE75DE164E68FE10E9494130F9108954F
S1133EC00F932EE146E060E080E00E94D81501E007
S1133ED02EE14FE46EE180E00E94A6152DE14FE44F
S1133EE06DE180E00E94A61500E022E743E36FE164
S1133EF083E30E94A61501E022E74FE462E780E035
S1133F000E94A61523E74FE463E780E00E94A6150C
S1133F100F9108950F9300E02EE940E060E080E007
S1133F200E94741501E020E04FE460E080E00E940C
S1133F30A61521E04FE461E080E00E94A61500E0B0
S1133F402EE94FE460E08FE40E94741501E02FE94C
S1133F504FE46FE980E00E94A6152EE94FE46EE974
S1133F6080E00E94A6150F910895EF92FF920F939F
S1133F701F93CF93DF93C82FD62F6091C8427091BF
S1133F80C9428091CA429091CB420E94762B9B01F8
S1133F902F3E82E0380744F01092C8421092C94282
S1133FA01092CA421092CB42EAE0F0E0C901BF018C
S1133FB00E94552E182FCB01BF010E94552EF82EBA
S1133FC0C90164E670E00E94552EE62E08E221E362
S1133FD04FED5AE06D2F8C2F0E947B14EF2C21E3C0
S1133FE04FED5AE06D2F8DE08C0F0E947B14E12E73
S1133FF021E34FED5AE06D2F8AE18C0F0E947B1470
S113400080918142882351F002E32DE04CE25DE18E
S11340106FE58FE10E94941310928142DF91CF915A
S11340201F910F91FF90EF900895DF92EF92FF920E
S11340300F931F93CF93DF93C82FD62F6091C44261
S11340407091C5428091C6429091C7420E94762BDE
S11340509B012F3E82E0380744F01092C442109234
S1134060C5421092C6421092C742EAE0F0E0C9018C
S1134070BF010E94552E182FCB01BF010E94552E5F
S1134080F82EC90164E670E00E94552ECB01BF01F1
S11340900E94552ED82EC90168EE73E00E94552E59
S11340A0E62E08E221E34FED5AE06D2F8C2F0E949B
S11340B07B14ED2C21E34FED5AE06D2F8CE08C0F37
S11340C00E947B14EF2C21E34FED5AE06D2F88E121
S11340D08C0F0E947B14E12E21E34FED5AE06D2FEB
S11340E084E28C0F0E947B1480918142882351F0DA
S11340F009E32DE041ED5CE16FE58FE10E9494134B
S113410010928142DF91CF911F910F91FF90EF9018
S1134110DF900895EF92FF920F931F93CF93DF9355
S1134120182FF62E6091C0427091C1428091C24214
S11341309091C3420E94762BEB01072E000C880B52
S1134140990B0E94AE2B2AE037ED4FE151E40E9417
S11341505E2C181644F41092C0421092C142109280
S1134160C2421092C342CE016AE070E00E94552E12
S1134170D62FC82FE12C08E221E34FED5AE06F2D32
S1134180812F0E947B1409E026E049E65CE165E5A5
S113419080E10E949413ED2E08E221E34FED5AE0F2
S11341A06F2D8DE0810F0E947B14EC2E21E34FEDE7
S11341B05AE06F2D8AE1810F0E947B148091814225
S11341C0882351F009E32EE04FE65CE16FE58FE1CF
S11341D00E94941310928142DF91CF911F910F910D
S11341E0FF90EF9008950F931F93CF93DF93C0E058
S11341F0D0E009C02AE030E040E050E00E948B2E7D
S1134200CA01B90121968B019C01075F1F4F2F4FF3
S11342103F4F033111052105310560F7CE010196A9
S1134220DF91CF911F910F9108952F923F924F925A
S11342305F926F927F928F929F92AF92BF92CF9232
S1134240DF92EF92FF920F931F93CF93DF93562E3B
S1134250F22E132F442EE52E682E712C622F732F0D
S1134260842F952F0E94F3205C011C0162E070E012
S11342700E94D82E4C01C12CD12C18C0E601CC0FC1
S1134280DD1FC80DD91D6F2D712F842D9E2D2AE0A1
S113429030E040E050E00E948B2E68837983F22E58
S11342A0132F442EE52E4FEFC41AD40AE5012197AB
S11342B0CC16DD061CF3F101E150F048EE0FFF1FB0
S11342C0E80DF91D8F2D912F80839183E02EF12C21
S11342D0AE14BF04B4F5B701660F771FC4010E9482
S11342E015304C010AC0F501EE0FFF1FE80DF91D52
S11342F0108211825FEFA51AB50AAE14BF049CF3B5
S1134300E70121972AEFAE012403C001259F900DF8
S11343101124680E791E12C0FE01EE0FFF1FE80D76
S1134320F91DE08008E128E14CE055E0652D862D7B
S11343300E947B1456E0650E711C2197DD2364F7FF
S11343401EC02AEFAE012403C001259F900D112445
S1134350680E791E12C0FE01EE0FFF1FE80DF91D55
S1134360E08008E128E14CE055E0652D862D0E94AF
S11343707B1456E0650E711C2197DD2364F7C4019C
S11343800E948C2FDF91CF911F910F91FF90EF909E
S1134390DF90CF90BF90AF909F908F907F906F9061
S11343A05F904F903F902F900895DF92EF92FF928D
S11343B00F931F93CF93DF93F82ED62EE42E022F64
S11343C0061BD42FD81B10E013C0612F6D0D262FB0
S11343D04E2D8F2D0E94D612C0E007C080E00E94AF
S11343E06B1280E00E946B12CF5FCD17B8F31F5F92
S11343F0101758F3DF91CF911F910F91FF90EF9019
S1134400DF900895DF92EF92FF920F931F93CF9363
S1134410DF93F82ED62EE42E022F061BD42FD81BA2
S113442010E013C0612F6D0D262F4E2D8F2D0E948D
S1134430D612C0E007C08FEF0E946B128FEF0E946C
S11344406B12CF5FCD17B8F31F5F101758F3DF91CE
S1134450CF911F910F91FF90EF90DF9008952DE180
S113446042E060E080E00E94022208950F9326E972
S113447046E460E080E00E940C160E942F220E9415
S11344808A1F0E94601F1092C8421092C942109263
S1134490CA421092CB426AE286E00E94B51F809124
S11344A011409091124080935F429093604281E06A
S11344B080935E4208E221E345E458E168E285E343
S11344C00E94941321E34AE359E168E282E40E94E2
S11344D094132FE047E95BE16FE582E40E949413B3
S11344E02FEF82E597E0215080409040E1F700C033
S11344F000000F9108950F931F93CF93DF9328EB40
S11345003EE145EC5DE36091C8427091C9428091FF
S1134510CA429091CB420E94632C0E947D2B162F9D
S1134520072FC62FD02F80910640909107408C17FB
S11345309D0788F4CD34D10510F0CCE4D0E04C2FA5
S11345404E5F2DE162E08E5F0E940222C09306401E
S1134550D093074011C0C817D90770F442E0480F40
S11345602DE162E082E0810F0E94D521812F902FFE
S11345708093064090930740DF91CF911F910F9154
S113458008950F930E940F1F80918242882389F11E
S113459080911640823099F08330B1F0813019F562
S11345A080918142882331F02FE542E36AE282E080
S11345B00E940C166AE286E00E94B51F18C06AE2E7
S11345C082E00E94152013C080918142882331F03B
S11345D02FE542E36AE282E00E940C166AE286E07A
S11345E00E948A2004C06AE286E00E94B51F1092ED
S11345F0824280918042882321F00E947B22109283
S11346008042809114408823F9F080917442882379
S113461071F0E0E2F4E08481806284830AE22BE1B9
S113462042EE5BE16BE78CE30E9494130BC0E0E283
S1134630F4E084818F7D848326E94DE468E78CE38C
S11346400E940C161092144080917442882309F43D
S113465049C080917342882309F444C080919C42EC
S113466090919D422091AC423091AD42821B930BBC
S11346709C0122F422273327281B390B293E33407F
S11346808CF19091994281E0892780939942882303
S113469061F0E0E2F4E084818F7D848326E94DE4D7
S11346A068E78CE30E940C160DC0E0E2F4E084811C
S11346B0806284830AE22BE142EE5BE16BE78CE3E8
S11346C00E9494138091AC429091AD42A091AE426D
S11346D0B091AF4280939C4290939D42A0939E429E
S11346E0B0939F4280917E42882309F457C0809101
S11346F09442882309F442C0E0E4F4E084818460B5
S113470084838091584290915942019680935842F3
S113471090935942039724F01092584210925942B0
S113472080915842909159428130910571F08230C4
S11347309105A1F0892BD9F408E228E14FE15BE16E
S11347406EE787E00E94941316C008E228E147EA66
S11347505AE16EE787E00E9494130DC008E228E155
S11347604FE25AE16EE787E00E94941304C010926E
S113477058421092594210927D420EC0E0E4F4E097
S113478084818B7F848326E94EE168E787E00E9479
S11347900C1681E080937D4210927E428091864285
S11347A0811104C080918542882341F000E22AE10E
S11347B04CE75EE16CE784E10E9494130F91089545
S11347C0E0E0F4E080818160808380818260808386
S11347D080898860808BE0E0FAE080E89CE086A332
S11347E097A310A611A610A211A2818180618183D2
S11347F08181836081838081816080838081826004
S1134800808308959DE994BF8093001008951F93B9
S1134810CF93DF93EC01162F8091021081FDFCCF22
S113482083E190E00E940224DC5E188380E090E043
S11348300E940224DF91CF911F9108950F931F933B
S1134840CF93DF93EC018B018091021081FDFCCFAB
S113485083E190E00E940224DC5E0883198380E0F7
S113486090E00E940224DF91CF911F910F9108954F
S1134870209102100E940A310895AF92BF92CF9204
S1134880DF92EF92FF920F931F93CF93DF9381E018
S113489090E00E943824A82E83E090E00E943824FF
S11348A091E0811101C090E09093CC4200E0C12CD2
S11348B0D12C7601B12C6DC081E00E94111260935D
S11348C0C8427093C9428093CA429093CB4280916C
S11348D0D142882379F08091CE429091CF420196C3
S11348E08093CE429093CF421092D14287ED90E4D0
S11348F00E948D102091C8423091C9424091CA4211
S11349005091CB42C701B6010E94FF2A811106C013
S113491087EE90E40E948D101F5F05C082E091E451
S11349200E948D1010E0C090C842D090C942E0901F
S1134930CA42F090CB42219603C0C0E0D0E010E020
S1134940CA30D1050CF4B8CF8091CE429091CF42B9
S1134950049714F4163040F00E9425180F5F10924B
S1134960CE421092CF4215C01092CE421092CF4246
S11349701092CC4260E081E090E00E9407246091B4
S1134980CC4283E090E00E94072400E0BB24B3946F
S1134990A12CB11002C0033080F2033088F161E031
S11349A06A0D81E08093CC4281E090E00E9407246C
S11349B06091CC4283E090E00E9407248FE295E767
S11349C00197F1F700C000006091944282E090E00A
S11349D00E9407246091744286E090E00E940724BC
S11349E061E085E090E00E9407248FE295E701975B
S11349F0F1F700C0000061E081E490E00E941E3104
S1134A00DF91CF911F910F91FF90EF90DF90CF90A6
S1134A10BF90AF90089580E00E9489160E941D18EF
S1134A200E94471F0E9425180E943D24089520914A
S1134A3002100E941931089589E190E00E9417251F
S1134A4080931140909312408BE190E00E941725CF
S1134A5080930F40909310408DE190E00E941725C1
S1134A6080930D4090930E408FE190E00E941725B3
S1134A7080930B4090930C4081E290E00E941725B4
S1134A808093094090930A4008950E941C2585E074
S1134A9090E00E94382491E0811101C090E090934D
S1134AA0CD4260E085E090E00E94072483E090E03E
S1134AB00E94382491E0811101C090E09093CC428F
S1134AC0992341F082E090E00E94382486E090E04F
S1134AD00E9438240895209102100E9412310895F2
S1134AE0CF92DF92EF92FF920F9385E190E00E94C4
S1134AF06B25611524EA720723E9820726ED9207E4
S1134B0020F021E02093864202C0109286420F2EAC
S1134B10F0E8CF2EFEEEDF2EF6E3EF2EF12CF02D93
S1134B20A70196010E94692E04E06BE286E40E94CC
S1134B30152181E190E00E946B25A70196010E9456
S1134B40692E67E686E40E9415210F91FF90EF908D
S1134B50DF90CF900895AF92BF92CF92DF92EF9201
S1134B60FF920F931F93CF93DF93EC016A017B01B4
S1134B705C018FEFA81AB80A642FCE010E940724A3
S1134B806D2D8E010E5F1F4FC5010E9407246E2DEF
S1134B902396C8010E9407246F2D77278827992719
S1134BA0CE010E940724DF91CF911F910F91FF90B6
S1134BB0EF90DF90CF90BF90AF900895CF92DF92A7
S1134BC0EF92FF920F93C090AC42D090AD42E09030
S1134BD0AE42F090AF4289C0E0E4F4E08085807496
S1134BE08087882309F481C0E0E8F4E0808584703C
S1134BF08087882309F479C02FEF3DE389E42150AD
S1134C0030408040E1F700C0000026E940E560E064
S1134C1080E00E940C1600E324E144E954E069E4D6
S1134C2085E00E94941300E42EE144EA53E069E431
S1134C3086E10E94941308E12EE14AE453E069E41A
S1134C408AE20E94941300E42EE14AE552E069E40A
S1134C5082E30E9494132EE14AE651E06DE586E07A
S1134C600E9494130E94F11B80919342811110C001
S1134C709091744291110CC090919042911108C08E
S1134C8090919442911104C090919242992361F3BE
S1134C9090919442992349F11092944281110CC04D
S1134CA090917442911108C090919042911104C066
S1134CB090919242992391F3809190428823A9F094
S1134CC01092904240E050E0BA0185E190E00E94E9
S1134CD0AB251092864226E940E560E080E00E9420
S1134CE00C160E948D260E94F11B8091AC4290917B
S1134CF0AD429601281B390BC901813630EF930769
S1134D0024F0803A9F400CF467CF0E94F11B0F916E
S1134D10FF90EF90DF90CF9008950F9326E946E43B
S1134D2060E080E00E940C1600E42EE14CEB59E0B8
S1134D306BE281E00E94941300E32EE148E059E025
S1134D406BE287E10E9494132EE144E558E067E6A4
S1134D5081E00E94941300E22EE14CED57E067E6F7
S1134D6081E10E94941300E32EE148E059E067E6F4
S1134D708CE10E9494130E9470250E94DE2526E98E
S1134D8040E560E080E00E940C160F910895CF92F8
S1134D90DF92EF92FF928091AC429091AD42A0914C
S1134DA0AE42B091AF42409195425091964260918B
S1134DB0974270919842841B950BA60BB70B813CCC
S1134DC09742A940B10508F444C080916542882304
S1134DD009F43FC081E190E00E946B25AB01BC0166
S1134DE04054584D664F7F4F81E190E00E94AB25BF
S1134DF085E190E00E946B256B017C0120ECC20EE2
S1134E0027E2D21E29E0E21EF11CB701A60185E1CA
S1134E1090E00E94AB25C11484EAD80683E9E80631
S1134E2086EDF80620F081E08093854202C010925E
S1134E3085428091AC429091AD42A091AE42B09136
S1134E40AF428093954290939642A0939742B09339
S1134E509842FF90EF90DF90CF9008951F920F92A9
S1134E600FB60F9211240BB60F924F935F936F936B
S1134E707F938F939F93AF93BF93EF93FF9380910F
S1134E80A90482FF12C080919442882319F01092E1
S1134E90944203C081E08093944281E0809367420E
S1134EA0E0EAF4E08185846081878091A90483FF2E
S1134EB04FC08091934281111CC08091AC4290916B
S1134EC0AD42A091AE42B091AF4240916142509147
S1134ED062426091634270916442841B950BA60BFD
S1134EE0B70B8B3F9105A105B10518F081E08093C4
S1134EF093428091A80483FF18C08091654288235F
S1134F00A1F081E0809366428091AC429091AD42E1
S1134F10A091AE42B091AF428093614290936242BD
S1134F20A0936342B09364420EC08091A80483FDB1
S1134F300AC010926142109262421092634210922F
S1134F40644210926642E0EAF4E0818588608187D9
S1134F50FF91EF91BF91AF919F918F917F916F914D
S1134F605F914F910F900BBE0F900FBE0F901F904B
S1134F7018951F920F920FB60F9211240BB60F9231
S1134F802F933F934F935F936F937F938F939F934D
S1134F90AF93BF93EF93FF938091490488230CF060
S1134FA04DC080919442882389F180917B42811184
S1134FB01BC0909148049923BCF481E00E94891697
S1134FC08091AC429091AD42A091AE42B091AF427B
S1134FD080936B4290936C42A0936D42B0936E4267
S1134FE081E080937B4225C0882319F18091480495
S1134FF08823FCF080E00E948916809176428F5FBE
S11350008093764281E080937A4213C080917B4200
S1135010811108C080914804882324F481E080939E
S11350207B4207C08091480488231CF081E0809370
S11350307A42E0E4F4E081858068818780914904C4
S113504083FF08C081E080937942E0E4F4E0818545
S113505088608187FF91EF91BF91AF919F918F916C
S11350607F916F915F914F913F912F910F900BBE64
S11350700F900FBE0F901F9018951F920F920FB6AE
S11350800F9211240BB60F928F93EF93FF9380919D
S1135090890481FF0AC081E0809390428093134089
S11350A0E0E8F4E08185826081878091890482FF51
S11350B012C080917442882319F01092744203C084
S11350C081E08093744281E080936842E0E8F4E0F8
S11350D08185846081878091890480FF08C081E094
S11350E080939242E0E8F4E0818581608187FF91BA
S11350F0EF918F910F900BBE0F900FBE0F901F90EA
S113510018950F931F93CF93DF938B01EA0140917E
S1135110880442FF0EC0280F391FC217D3070CF0B2
S1135120E901BE010D2E000C880B990B0E94CC10D6
S113513015C04091A80442FF10C0AC01421B530BA0
S1135140461757070CF08A01B801012E000C880B92
S1135150990B0E94CC10E80101C0EC015FE78FE4D9
S113516092E1515080409040E1F700C00000CE0130
S1135170DF91CF911F910F910895CF93DF931092F8
S113518013408FE191E40E948D1085E591E40E9423
S1135190AE1060915E4270E080E090E00E94CC101E
S11351A085E691E40E94AE1060915D4270E080E07B
S11351B090E00E94CC1085E791E40E94AE106091CB
S11351C05C4270E080E090E00E94CC1085E891E4BD
S11351D00E94AE1060915B4270E080E090E00E941B
S11351E0CC1085E991E40E94AE1060915A4270E0BF
S11351F080E090E00E94CC1020E030E0C6C09091A6
S11352005E42992339F185EA91E40E948D10C0E051
S1135210DAE04EA15FA1609111407091124080913B
S11352201140909112406456710925E030E00E94CB
S11352308128809311409093124088A799A7809168
S11352401140909112408093694290936A4229E1FF
S113525030E09BC090915D42992319F1C0E0DAE0FF
S11352604EA15FA160910F407091104080910F405A
S1135270909110406456710925E030E00E94812825
S113528080930F409093104088A799A780910F4076
S1135290909110408093694290936A422BE130E0F0
S11352A074C080915C42882319F1C0E0DAE04EA119
S11352B05FA160910D4070910E4080910D409091DE
S11352C00E406456710925E030E00E9481288093E5
S11352D00D4090930E4088A799A780910D4090911E
S11352E00E408093694290936A422DE130E04DC0B4
S11352F080915B42882319F1C0E0DAE04EA15FA1FE
S113530060910B4070910C4080910B4090910C4047
S11353106456710925E030E00E94812880930B4097
S113532090930C4088A799A780910B4090910C40D2
S11353308093694290936A422FE130E026C08091C5
S11353405A42882311F1C0E0DAE04EA15FA16091D6
S1135350094070910A408091094090910A40645636
S1135360710925E030E00E948128809309409093E0
S11353700A4088A799A78091094090910A40809398
S1135380694290936A4221E230E09091134099235C
S113539009F435CF6091694270916A42C9010E9453
S11353A01E248BEF91E40E948D101092134023E988
S11353B04CE362E882E30E940C16609169427091AA
S11353C06A42072E000C880B990B0E94CC10109295
S11353D0664210925E4210925D4210925C421092BC
S11353E05B4210925A42109290428FE292E40E94E1
S11353F08D108091694290916A42DF91CF91089516
S11354000F9380916642882389F18091AC429091F8
S1135410AD42A091AE42B091AF42409161425091F1
S113542062426091634270916442841B950BA60BA7
S1135430B70B893B9B40A105B105C0F010926642B1
S1135440109261421092624210926342109264423E
S113545086E492E40E948D1009E121E14CEA5AE0CD
S113546062E882E30E9494130E94BD280F9108957C
S1135470F89495E288ED84BF909368000E942C1BF9
S113548080E895E20E945B10E0E4F4E080818061B2
S1135490808384818F7E8483C0E2D4E088818160AC
S11354A088830E94E0230E94E110888181608883C0
S11354B08C818E7F8C83E0E8F4E080818860808337
S11354C00E9497110E9445250E94AF1A0E94391626
S11354D00E94001F0E945118E0E6F4E0808180835E
S11354E00E940B252FEF82E597E0215080409040E9
S11354F0E1F700C0000078940E948D260E943622B5
S113550082E30E9409170E94F31E0E949F1A0E94C0
S1135510B21A0E94C1220E948E190E94002A0E947F
S1135520C726EECF5058BB27AA270E94AA2A0C945C
S1135530242C0E94162C38F00E941D2C20F039F4E3
S11355409F3F19F426F40C94132C0EF4E095E7FB1A
S11355500C940D2CE92F0E94352C58F3BA176207CE
S113556073078407950720F079F4A6F50C94572C5B
S11355700EF4E0950B2EBA2FA02D0B01B90190016A
S11355800C01CA01A0011124FF27591B99F0593FAE
S113559050F4503E68F11A16F040A22F232F342FF6
S11355A04427585FF3CF469537952795A795F04044
S11355B05395C9F77EF41F16BA0B620B730B840B59
S11355C0BAF09150A1F0FF0FBB1F661F771F881F11
S11355D0C2F70EC0BA0F621F731F841F48F4879569
S11355E077956795B795F7959E3F08F0B0CF93955B
S11355F0880F08F09927EE0F9795879508950E94D4
S1135600E92B08F481E008950E94182B0C94242CB3
S11356100E941D2C58F00E94162C40F029F45F3F84
S113562029F00C940D2C51110C94582C0C94132C1F
S11356300E94352C68F39923B1F3552391F3951BFC
S1135640550BBB27AA2762177307840738F09F5F9F
S11356505F4F220F331F441FAA1FA9F335D00E2E0C
S11356603AF0E0E832D091505040E695001CCAF779
S11356702BD0FE2F29D0660F771F881FBB1F26173C
S113568037074807AB07B0E809F0BB0B802DBF0113
S1135690FF2793585F4F3AF09E3F510578F00C94E2
S11356A00D2C0C94582C5F3FE4F3983ED4F386956C
S11356B077956795B795F7959F5FC9F7880F911D03
S11356C09695879597F90895E1E0660F771F881FEF
S11356D0BB1F621773078407BA0720F0621B730BA2
S11356E0840BBA0BEE1F88F7E09508950E947D2B7A
S11356F06894B1110C94582C08950E943D2C88F0A4
S11357009F5798F0B92F9927B751B0F0E1F0660F81
S1135710771F881F991F1AF0BA95C9F714C0B130C2
S113572091F00E94572CB1E008950C94572C672FE8
S1135730782F8827B85F39F0B93FCCF386957795F1
S11357406795B395D9F73EF49095809570956195DA
S11357507F4F8F4F9F4F0895E89409C097FB3EF405
S113576090958095709561957F4F8F4F9F4F9923AA
S1135770A9F0F92F96E9BB279395F6958795779528
S11357806795B795F111F8CFFAF4BB0F11F460FFE8
S11357901BC06F5F7F4F8F4F9F4F16C0882311F040
S11357A096E911C0772321F09EE8872F762F05C054
S11357B0662371F096E8862F70E060E02AF09A95EF
S11357C0660F771F881FDAF7880F9695879597F9E4
S11357D00895990F0008550FAA0BE0E8FEEF16167E
S11357E01706E807F907C0F012161306E407F507D1
S11357F098F0621B730B840B950B39F40A2661F045
S1135800232B242B252B21F408950A2609F4A140E7
S1135810A6958FEF811D811D089597F99F6780E8F4
S113582070E060E008959FEF80EC089500240A94EE
S11358301616170618060906089500240A94121667
S11358401306140605060895092E0394000C11F49A
S1135850882352F0BB0F40F4BF2B11F460FF04C047
S11358606F5F7F4F8F4F9F4F089557FD9058440FA0
S1135870551F59F05F3F71F04795880F97FB991FAB
S113588061F09F3F79F08795089512161306140668
S1135890551FF2CF4695F1DF08C0161617061806F5
S11358A0991FF1CF86957105610508940895E894D0
S11358B0BB2766277727CB0197F908950E94E92B28
S11358C008F48FEF08950E94762C0C94242C0E94E7
S11358D0162C38F00E941D2C20F0952311F00C9406
S11358E00D2C0C94132C11240C94582C0E94352C40
S11358F070F3959FC1F3950F50E0551F629FF0011F
S1135900729FBB27F00DB11D639FAA27F00DB11D37
S1135910AA1F649F6627B00DA11D661F829F2227C0
S1135920B00DA11D621F739FB00DA11D621F839F47
S1135930A00D611D221F749F3327A00D611D231F1D
S1135940849F600D211D822F762F6A2F11249F576B
S113595050409AF0F1F088234AF0EE0FFF1FBB1F6E
S1135960661F771F881F91505040A9F79E3F51052D
S113597080F00C940D2C0C94582C5F3FE4F3983E6B
S1135980D4F3869577956795B795F795E7959F5FD7
S1135990C1F7FE2B880F911D9695879597F9089569
S11359A0FA01EE0FFF1F309621053105A1F16115B3
S11359B0710561F48038BFE39B0749F1689490381E
S11359C0810561F08038BFEF9B0741F099234AF5C8
S11359D0FF3FE1053105210519F1E8940894E795A5
S11359E0D901AA2329F4AB2FBE2FF85FD0F310C03E
S11359F0FF5F70F4A695E0F7F73950F019F0FF3A1D
S1135A0038F49F779F930DD00F9007FC905808951A
S1135A1046F00C94132C60E070E080E89FE3089556
S1135A204FE79F775F934F933F932F930E94CB2D24
S1135A302F913F914F915F910E94632C0C94282DDC
S1135A4029F416F00C940D2C0C94572C0C94132C54
S1135A500E943D2CA8F39638A0F707F80F92E8941B
S1135A602BE33AEA48EB5FE70E94792C0F920F92FE
S1135A700F924DB75EB70F920E94132EE8EEF0E03E
S1135A800E945A2D4F915F91EF91FF91E595EE1F82
S1135A90FF1F49F0FE57E0684427EE0F441FFA95B4
S1135AA0E1F74195550B0E948D2D0F9007FE0C9444
S1135AB0812D0895DF93CF931F930F93FF92EF925D
S1135AC0DF927B018C01689406C0DA2EEF010E94FC
S1135AD0762CFE01E894A591259135914591559137
S1135AE0A6F3EF010E94AA2AFE019701A801DA9405
S1135AF069F7DF90EF90FF900F911F91CF91DF91A5
S1135B0008959B01AC0160E070E080E89FE30C9491
S1135B10042B0C940D2C0C94472E0E943D2CD8F38E
S1135B209923C9F3940F511DA3F39150504094F05D
S1135B3059F0882332F0660F771F881F9150504028
S1135B40C1F79E3F51052CF7880F911D96958795B7
S1135B5097F908955F3FACF0983E9CF0BB2786957B
S1135B6077956795B79508F4B1609395C1F7BB0F26
S1135B7058F711F460FFE8CF6F5F7F4F8F4F9F4F4F
S1135B80E3CF0C94582C16F00C94472E0C94132C41
S1135B9068940C940D2C0E943D2CA8F39923C1F316
S1135BA0AEF3DF93CF931F930F93FF92C92FDD279B
S1135BB088232AF02197660F771F881FDAF720E0E1
S1135BC030E040E85FEB9FE3883920F0803E38F016
S1135BD021968F770E94932AE0E1F1E004C00E94AD
S1135BE0932AEDE3F1E00E945A2D8B01BE01EC01F2
S1135BF0FB2E6F5771097595771F880B990B0E94BF
S1135C00AE2B28E132E741E35FE30E94762CAF2D0F
S1135C109801AE01FF900F911F91CF91DF910E94E7
S1135C20AA2A0C94242CFA01DC01AA0FBB1F9B01A5
S1135C30AC01BF5728F4222733274427507820C0CB
S1135C40B75190F4AB2F0024469537952795011C46
S1135C50A395D2F3002071F0220F331F441FB39594
S1135C60DAF30ED00C94922A61307105A0E88A0709
S1135C70B94630F49B01AC016627772788279078D2
S1135C80309621F0208331834283538308959F3FCC
S1135C9031F0915020F4879577956795B795880FE3
S1135CA0911D9695879597F9089597FB072E16F4FD
S1135CB0009407D077FD09D00E94C42E07FC05D0BC
S1135CC03EF4909581959F4F0895709561957F4F0F
S1135CD00895A1E21A2EAA1BBB1BFD010DC0AA1F29
S1135CE0BB1FEE1FFF1FA217B307E407F50720F041
