:100000000C945E0F0C947D0F0C947D0F0C947D0F5F
:100010000C947D0F0C947D0F0C947D0F0C947D0F30
:100020000C947D0F0C947D0F0C947D0F0C947D0F20
:100030000C947D0F0C94E31A0C947D0F0C947D0F9F
:100040000C947D0F0C947D0F0C947D0F0C947D0F00
:100050000C947D0F0C947D0F0C947D0F0C947D0FF0
:100060000C947D0F0C947D0F0C947D0F0C947D0FE0
:100070000C947D0F0C94AA260C94191B0C947D0FE4
:100080000C947D0F0C947D0F0C9480260C947D0FA6
:100090000C947D0F0C947D0F0C947D0F0C947D0FB0
:1000A0000C947D0F0C947D0F0C947D0F0C947D0FA0
:1000B0000C947D0F0C9481270C947D0F0C947D0F74
:1000C0000C947D0F0C947D0F0C947D0F0C947D0F80
:1000D0000C947D0F0C947D0F0C947D0F0C947D0F70
:1000E0000C947D0F0C947D0F08000000BE922449F3
:1000F000123EABAAAA2ABECDCCCC4C3E000000805A
:10010000BEABAAAAAA3E00000000BF000000803FCC
:100110000000000000084178D3BB4387D1133D198C
:100120000E3CC3BD4282AD2B3E68EC8276BED98FB9
:10013000E1A93E4C80EFFFBE01C4FF7F3F000000FD
:1001400000000000000000000000000000000000AF
:1001500000000000000000000000FE3F3FDFEFF75E
:10016000F306FF7FBFDFEFF7FB86C36186030C0654
:100170001BC6C36186030C061BC6C36186030C063F
:100180001BE6C36186030C061B66FF7F86030FC751
:10019000FB76FE7F86030FC7F336C06186030C072C
:1001A000833EC06186030C06C31EC06186030C0635
:1001B000631EC06186030C06330EC06186030FF612
:1001C0001B0EC06186030FF60B0600000000000046
:1001D000000000000000000000000000000000001F
:1001E000000000000000000000000000000000000F
:1001F00000000000000000000000000000000000FF
:1002000000000000000000000000000000000000EE
:1002100000000000000000000000000000000000DE
:1002200000000000000000000000000000000000CE
:1002300000000000000000000000000000000000BE
:10024000000000000000000000003F1F8FE7E7F9FA
:10025000F9807FBFDFEFF7FBFD8061B0D80C30C3C2
:100260000D806030D80C00C30D806030D80C00C306
:100270000D806030D80C00C30D807F3FDF8C00C341
:10028000FD803FBF9F8C00C3FD8001B0180C00C3F0
:100290000D8001B0180C00C30D8001B0180C00C314
:1002A0000D8061B0180C30C30D807FB01FEFF7FBDD
:1002B0000DFE3F300FE7E7FB0DFE000000000000E1
:1002C000000000000000000000000000000000002E
:1002D000000000000000000000000000000000001E
:1002E000000000000000000000000000000000000E
:1002F00000000000000000000000000000000000FE
:1003000000000000000000000000000000000000ED
:1003100000000000000000000000000000000000DD
:1003200000000000000000000000003FD8303FDC6B
:1003300030061E30061E30061F30061B30061BB06E
:100340000619B00619F00618F00618F00618703FE6
:10035000D8703FD83000000000000000000000000E
:10036000000000000000000000000000000000008D
:10037000000000000000000000000000000000007D
:10038000000000000000000000000000000000006D
:10039000000000003F9837FBFCFCC1803FD837FBD2
:1003A000FDFEE18030D830C06186F18030D830C0A9
:1003B0006186F18030D830C06186F98030D830C095
:1003C0006186D9803F9830C06186DD803F9830C01B
:1003D0006186CD8030D830C06186CF8030D830C0C3
:1003E0006186C78030D830C06186C78030D830C0C1
:1003F0006186C3803FDFF0C061FEC3803F8FE0C0F5
:1004000060FCC1800000000000000000000000004F
:1004100000000000000000000000000000000000DC
:1004200000000000000000000000000000000000CC
:1004300000000000000000000000000000000000BC
:1004400000000000000000000000000000000000AC
:10045000000000000000000000000000000000009C
:10046000000000000000000000000000000000008C
:1004700000000000000000000000000000007F3FBE
:100480009FE7E3F07FBFDFEFF7F861B0D80C3618D5
:1004900061B0D80C060061B0D80C060061B0D80C71
:1004A00006007FBFDF8FE7F07F3F9F87F7F8603C54
:1004B00018003018603618003018603318003018F3
:1004C0006031980C36186030DFEFF7F860305FEF7E
:1004D000E3F0000000000000000000000000000049
:1004E000000000003FFC007FFE00FFFF00FFFF0058
:1004F000F00F00F00F00F00F00F00F00F00F00F011
:100500000F00F00F00F00F00F00F00F00F00F00FE1
:1005100000F00F00F00F00F00F00F00F00F00F00E0
:10052000FFFF00FFFF007FFE003FFC0003F000071D
:10053000F0000FF0000FF0000FF0000FF0000FF0D0
:100540000001F00001F00001F00001F00001F000F6
:1005500001F00001F00001F00001F00001F00001E5
:10056000F00001F00001F0000FFE000FFE000FFE92
:10057000000FFE003FFC007FFE00FFFF00FFFF00BA
:10058000F00F00F00F00000F00000F00000F000040
:100590000F003FFF007FFF00FFFE00FFFC00F000A8
:1005A00000F00000F00000F00000F00000F000009B
:1005B000FFFF00FFFF007FFF003FFF003FFC007FC9
:1005C000FE00FFFF00FFFF00F00F00F00F00000F24
:1005D00000000F00000F00000F001FFF001FFF00B2
:1005E0001FFF001FFF00000F00000F00000F0000A2
:1005F0000F00F00F00F00F00FFFF00FFFF007FFE75
:10060000003FFC00007C0000FC0000FC0001FC003E
:1006100003FC0003FC0007FC000FFC000FBC001FE4
:100620003C003F3C003E3C007C3C00FC3C00F83C75
:1006300000FFFF00FFFF00FFFF00FFFF00003C0086
:10064000003C00003C00003C00003C00FFFF00FFBD
:10065000FF00FFFF00FFFF00F00000F00000F000CF
:1006600000F00000FFFC00FFFE007FFF003FFF00E6
:10067000000F00000F00000F00000F00000F00F03F
:100680000F00F00F00F00F00FFFF00FFFF007FFEE4
:10069000003FFC003FFC007FFE00FFFF00FFFF006B
:1006A000F00F00F00F00F00000F00000F00000F08C
:1006B0000000FFFC00FFFE00FFFF00FFFF00F00F47
:1006C00000F00F00F00F00F00F00F00F00F00F002F
:1006D000FFFF00FFFF007FFE003FFC00FFFF00FF69
:1006E000FF00FFFF00FFFF00F01F00F01F00F03FC2
:1006F00000003E00003E00007C00007C0000FC008A
:1007000000F80000F80001F00001F00003F0000321
:10071000E00003E00007C00007C0000FC0000F802A
:10072000000F80003FFC007FFE00FFFF00FFFF0086
:10073000F00F00F00F00F00F00F00F00F00F00F0CE
:100740000F007FFE003FFC003FFC007FFE00F00F2B
:1007500000F00F00F00F00F00F00F00F00F00F009E
:10076000FFFF00FFFF007FFE003FFC003FFC007F1B
:10077000FE00FFFF00FFFF00F00F00F00F00F00F82
:1007800000F00F00F00F00F00F00FFFF00FFFF0070
:100790007FFF003FFF00000F00000F00000F00F080
:1007A0000F00F00F00F00F00FFFF00FFFF007FFEC3
:1007B000003FFC00000000000000000000000000FE
:1007C0001F986C183FD86E1830D86F1830D86F1833
:1007D00030D86F9830D86D983FD86DD83F986CD886
:1007E0003C186CD836186C7833186C7831986C38A3
:1007F00030DFEC38304FCC38000000000000000043
:1008000000000000000000000000000000000000E8
:1008100000000000000000000000000000000000D8
:1008200000000000000000000000000000000000C8
:1008300000000000000000000000000000007F9F9A
:100840009FE7E6007FBFDFEFF6000C30C30C3600F9
:100850000C30C30C36000C30C30C36000C30C30C0B
:1008600036000C30C30FF6000C30C30FF6000C300E
:10087000C30C36000C30C30C36000C30C30C3600F1
:100880000C30C30C36000C3FC30C37F80C1F830C24
:1008900037F8000000000000000000000000000029
:1008A0000000000000000000000000000000000048
:1008B0000000000000000000000000000000000038
:1008C0000000000000000000000000000000000028
:1008D0000000000000000000000000000000000018
:1008E0000000000000000000000000000000000008
:1008F000000030CFCC33F1F830DFEC37FBFC30D8E0
:100900006C361B0C30D86C361B0030D86C361B0094
:1009100030D86C361B003FD86C37FBF83FD86C37AB
:10092000F1FC30D86C37800C30D86C36C00C30D825
:100930006C36600C30D86C36330C30DFEFF61BFCB5
:1009400030CFC7E609F800000000000000000000FA
:100950000000000000000000000000000000000097
:100960000000000000000000000000000000000087
:100970000000000000000000000000000000000077
:100980000000000000000000000000000000000067
:100990000000000000000000000000000000000057
:1009A0000000000000000000000000003F1FCFCC4E
:1009B00037F9F9FE7FBFDFEC37FBFDFE61B0186C45
:1009C00030C30D806030186C30C301806030186C0B
:1009D00030C301806030186C30C301807F3F1FEC52
:1009E00030C301F83FBF1FCE70C301F801B01E0E27
:1009F00070C3018001B01B07E0C3018001B01987FB
:100A0000E0C3018061B018C3C0C30D807FBFD8634D
:100A1000C7FBFDFE3F1FD82187F9F9FE000000004B
:100A200000000000000000000000000000000000C6
:100A300000000000000000000000000000000000B6
:100A400000000000000000000000000000000000A6
:100A50000000000000000000000000000000000096
:100A60000000000000000000000000000000000086
:100A70000000000000000000000000000000000076
:100A8000000000000000000FF8001FFC00180C0020
:100A9000180C001800001800001FF0000FF80000EC
:100AA0001C00000C00180C00180C001C1C001FFC83
:100AB000000FF80000000007FFFF80001FFFFFE0AD
:100AC000003FFFFFF0007FFFFFF8007FFFFFF8000F
:100AD000FFFFFFFC00FFFFFFFC00FFFFFFFC00FF2C
:100AE000E01FFC00FFC00FFC00FF8007FC00FF8040
:100AF00007FC00FF8007FC00FF8007FC00FF800769
:100B0000FC00FF8007FC00FF8007FC00FF8007FC63
:100B100000FF8007FC00FF8007FC00FF8007FC004F
:100B2000FF8007FC00FF8007FC00FF8007FC00FF40
:100B30008007FC00FF8007FC00FF8007FC00FF80AF
:100B400007FC00FF8007FC00FF8007FC00FF800718
:100B5000FC00FF8007FC00FF8007FC00FF8007FC13
:100B600000FF8007FC00FF8007FC00FF8007FC00FF
:100B7000FF8007FC00FF8007FC00FFC00FFC00FFA8
:100B8000E01FFC00FFFFFFFC00FFFFFFFC00FFFF7A
:100B9000FFFC007FFFFFF8007FFFFFF8003FFFFF33
:100BA000F0001FFFFFE00007FFFF80000003FE00D2
:100BB000000007FE0000000FFE0000000FFE000016
:100BC000001FFE0000003FFE0000007FFE0000004E
:100BD000FFFE000001FFFE000003FFFE000007FF14
:100BE000FE000007FFFE000007FFFE000007FFFEFB
:100BF000000007FBFE000007F3FE000007E3FE0015
:100C00000007C3FE00000783FE00000703FE00008C
:100C10000003FE00000003FE00000003FE000000D1
:100C200003FE00000003FE00000003FE00000003BE
:100C3000FE00000003FE00000003FE00000003FEB3
:100C400000000003FE00000003FE00000003FE00A1
:100C5000000003FE00000003FE00000003FE000091
:100C60000003FE00000003FE00000003FE00000081
:100C700003FE00000003FE00000FFFFFFF000FFF58
:100C8000FFFF000FFFFFFF000FFFFFFF000FFFFF41
:100C9000FF000FFFFFFF000FFFFFFF000FFFFFFF31
:100CA00000000FFF8000003FFFE000007FFFF80022
:100CB00000FFFFFC0001FFFFFE0003FFFFFF000736
:100CC000FFFFFF8007FFFFFFC00FFC03FFC00FF80F
:100CD00001FFE01FF000FFE01FF0007FE01FF000C9
:100CE0007FE01FF0007FE01FF0007FE01FF0007F3B
:100CF000E0000000FFE0000001FFC0000003FFC0B3
:100D0000000007FFC000000FFF8000001FFF000071
:100D1000003FFF0000007FFE000000FFFC0000011C
:100D2000FFF8000003FFF0000007FFE000000FFFE6
:100D3000C000001FFF8000003FFF0000007FFE009A
:100D40000000FFFC000001FFF8000003FFF00000BE
:100D500007FFE000000FFFC000001FFF8000001F22
:100D6000FF0000003FFE0000003FFC0000003FFFCE
:100D7000FFFFE03FFFFFFFE03FFFFFFFE03FFFFF20
:100D8000FFE03FFFFFFFE03FFFFFFFE03FFFFFFF10
:100D9000E03FFFFFFFE0003FFFC00000FFFFF0006B
:100DA00001FFFFF80003FFFFFE0007FFFFFF000F3A
:100DB000FFFFFF800FFFFFFFC00FF001FFC00FC05C
:100DC00000FFC00FC0007FC00FC0007FC00F8000B9
:100DD0003FC00000003FC00000003FC00000003FD7
:100DE000C00000003FC00000007FC00000007FC0C6
:100DF000000000FFC0000003FFC0003FFFFF8000B5
:100E00007FFFFF00007FFFFC00007FFFF000007FFE
:100E1000FFFF00007FFFFF80007FFFFFC0003FFF5C
:100E2000FFC0000003FFC0000001FFC00000007F02
:100E3000C00000007FC00000003FC00000003FC0B5
:100E40000000003FC00000003FC00000003FC00F96
:100E500080003FC00FC0007FC00FC0007FC00FC028
:100E600000FFC00FF001FFC00FFFFFFF800FFFFF6B
:100E7000FF0007FFFFFF0003FFFFFE0001FFFFFC75
:100E80000000FFFFF000003FFFC000000003FE0075
:100E9000000007FE0000000FFE0000001FFE000023
:100EA000003FFE0000007FFE000000FFFE0000018A
:100EB000FFFE000003FFFE000007FFFE00000FFF23
:100EC000FE00001FFDFE00003FF9FE00007FF1FE66
:100ED0000000FFE1FE0001FFC1FE0003FF81FE00F4
:100EE00007FF01FE000FFE01FE001FFC01FE003F98
:100EF000F801FE007FF001FE00FFE001FE00FFC0F0
:100F000001FE00FFFFFFFFE0FFFFFFFFE0FFFFFF2D
:100F1000FFE0FFFFFFFFE0FFFFFFFFE0FFFFFFFF3E
:100F2000E0FFFFFFFFE0000001FE00000001FE0007
:100F3000000001FE00000001FE00000001FE0000B4
:100F40000001FE00000001FE00000001FE000000A4
:100F500001FE00000001FE00000001FE0000000193
:100F6000FE00000001FE00000001FE00000001FE86
:100F700000000001FE00000001FE00000001FE0074
:100F80001FFFFFFFC03FFFFFFFC03FFFFFFFC03F4E
:100F9000FFFFFFC03FFFFFFFC03FFFFFFFC03FFF5E
:100FA000FFFFC03FFFFFFFC03FFFFFFFC03FE0006C
:100FB00000003FE00000003FE00000003FE00000D4
:100FC000003FE00000003FE00000003FE0000000C4
:100FD0003FE00000003FE3FFFC003FE7FFFE003F73
:100FE000EFFFFF003FFFFFFF803FFFFFFFC03FFF1E
:100FF000FFFFE03FFFFFFFE03FFFFFFFF03FFC0090
:101000007FF03FF0003FF83FE0001FF80000000FC6
:10101000F800000007F800000007F800000007F8DB
:1010200000000007F800000007F800000007F83F84
:10103000E00007F83FE00007F83FE0000FF83FF05E
:10104000001FF83FF0003FF83FF8007FF83FFFFF38
:10105000FFF03FFFFFFFF03FFFFFFFE01FFFFFFF3D
:10106000C00FFFFFFF8007FFFFFF0003FFFFFE0031
:1010700001FFFFFC0001FFFF800003FFFFE0000F06
:10108000FFFFF8001FFFFFFC003FFFFFFE003FFFD8
:10109000FFFF007FFFFFFF007FFFFFFF00FFF00368
:1010A000FF00FFE001FF00FFC001FF00FF8000FF25
:1010B00000FF80007F00FF80007F00FF80000000B5
:1010C000FF80000000FF80000000FF80000000FFA4
:1010D00080000000FF80000000FF9FFE0000FFBFB7
:1010E000FF8000FFFFFFE000FFFFFFF000FFFFFFBA
:1010F000F800FFFFFFFC00FFFFFFFE00FFFFFFFE09
:1011000000FFFFFFFF00FFE003FF00FFC001FF0043
:10111000FFC001FF00FF8000FF00FF8000FF00FF15
:101120008000FF00FF8000FF00FF8000FF00FF80C5
:1011300000FF00FF8001FF00FFC001FF00FFE00390
:10114000FF00FFFFFFFF00FFFFFFFF00FFFFFFFFAC
:10115000007FFFFFFE007FFFFFFE003FFFFFFC0060
:101160001FFFFFF8000FFFFFF0003FFFFFFF803F72
:10117000FFFFFF803FFFFFFF803FFFFFFF803FFF3C
:10118000FFFF803FFFFFFF803FFFFFFF803FFFFF2C
:10119000FF803FFFFFFF80000007FF80000007FF88
:1011A00080000007FF8000000FFF0000000FFF001D
:1011B00000001FFE0000001FFE0000001FFE0000D8
:1011C000003FFC0000003FFC0000007FF800000032
:1011D0007FF80000007FF8000000FFF0000000FF33
:1011E000F0000001FFE0000001FFE0000001FFE06F
:1011F000000003FFC0000003FFC0000007FF8000E5
:101200000007FF80000007FF8000000FFF000000C4
:101210000FFF0000001FFE0000001FFE0000001F67
:10122000FE0000003FFC0000003FFC0000007FF8D3
:101230000000007FF80000007FF8000000FFF000D1
:101240000000FFF0000001FFE0000001FFE00000EF
:1012500001FFE0000003FFC0000003FFC000000129
:10126000FFFFC00007FFFFF0000FFFFFF8001FFFA8
:10127000FFFC003FFFFFFE007FFFFFFF007FFFFF3F
:10128000FF007FFFFFFF00FFFFFFFF80FFE003FF86
:1012900080FFC001FF80FF8000FF80FF00007F8093
:1012A000FF00007F80FF00007F80FF00007F80FF45
:1012B00000007F80FF00007F80FF8000FF80FFC074
:1012C00001FF80FFE003FF807FFFFFFF007FFFFF44
:1012D000FF003FFFFFFE001FFFFFFC003FFFFFFE80
:1012E000007FFFFFFF007FFFFFFF00FFFFFFFF808A
:1012F000FFE003FF80FFC001FF80FF8000FF80FF51
:1013000000007F80FF00007F80FF00007F80FF00E3
:10131000007F80FF00007F80FF00007F80FF800053
:10132000FF80FFC001FF80FFE003FF807FFFFFFF22
:10133000007FFFFFFF007FFFFFFF003FFFFFFE007A
:101340001FFFFFFC000FFFFFF80007FFFFF0000189
:10135000FFFFC00007FFFF80001FFFFFE0003FFF0F
:10136000FFF0007FFFFFF8007FFFFFF800FFFFFFA7
:10137000FC00FFFFFFFC00FFFFFFFC00FFE01FFC85
:1013800000FFC00FFC00FF8007FC00FF8007FC008F
:10139000FF8007FC00FF8007FC00FF8007FC00FFC8
:1013A0008007FC00FF8007FC00FFC00FFC00FFE08F
:1013B0001FFC00FFFFFFFC00FFFFFFFC00FFFFFF23
:1013C000FC007FFFFFFC007FFFFFFC003FFFFFFCF6
:1013D000001FFFFFFC0007FFFFFC00000007FC00F0
:1013E000000007FC00000007FC00000007FC0000F4
:1013F0000007FC00000007FC00000007FC000000E4
:1014000007FC00FF8007FC00FF8007FC00FF80074F
:10141000FC00FF8007FC00FFC00FFC00FFE01FFC8A
:1014200000FFFFFFFC00FFFFFFFC00FFFFFFFC00D1
:101430007FFFFFF8007FFFFFF8003FFFFFF0001F76
:10144000FFFFE00007FFFF800001FFFF800003FFB8
:10145000FFE0000FFFFFF8001FFFFFFC003FFFFF52
:10146000FE003FFFFFFF007FFFFFFF007FFFFFFF4A
:1014700000FFF003FF00FFE001FF00FFC001FF00DD
:10148000FF8000FF00FF80007F00FF80007F00FFE3
:1014900080000000FF80000000FF80000000FF804F
:1014A000000000FF80000000FF80000000FF9FFEA2
:1014B0000000FFBFFF8000FFFFFFE000FFFFFFF025
:1014C00000FFFFFFF800FFFFFFFC00FFFFFFFE0033
:1014D000FFFFFFFE00FFFFFFFF00FFE003FF00FF35
:1014E000C001FF00FFC001FF00FF8000FF00FF8080
:1014F00000FF00FF8000FF00FF8000FF00FF800072
:10150000FF00FF8000FF00FF8001FF00FFC001FF20
:1015100000FFE003FF00FFFFFFFF00FFFFFFFF00F2
:10152000FFFFFFFF007FFFFFFE007FFFFFFE003F8A
:10153000FFFFFC001FFFFFF8000FFFFFF0001FFF81
:10154000FFFFC03FFFFFFFC03FFFFFFFC03FFFFFA8
:10155000FFC03FFFFFFFC03FFFFFFFC03FFFFFFF98
:10156000C03FFFFFFFC03FFFFFFFC03FE0000000A4
:101570003FE00000003FE00000003FE00000003FCF
:10158000E00000003FE00000003FE00000003FE01E
:101590000000003FE3FFFC003FE7FFFE003FEFFFDE
:1015A000FF003FFFFFFF803FFFFFFFC03FFFFFFF48
:1015B000E03FFFFFFFE03FFFFFFFF03FFC007FF059
:1015C0003FF0003FF83FE0001FF80000000FF80078
:1015D000000007F800000007F800000007F800000E
:1015E0000007F800000007F800000007F83FE000DF
:1015F00007F83FE00007F83FE0000FF83FF0001F5A
:10160000F83FF0003FF83FF8007FF83FFFFFFFF0A2
:101610003FFFFFFFF03FFFFFFFE01FFFFFFFC00F97
:10162000FFFFFF8007FFFFFF0003FFFFFE0001FF3A
:10163000FFFC00000003FE00000007FE0000000F9A
:10164000FE0000001FFE0000003FFE0000007FFEC5
:10165000000000FFFE000001FFFE000003FFFE008F
:101660000007FFFE00000FFFFE00001FFDFE000050
:101670003FF9FE00007FF1FE0000FFE1FE0001FFE8
:10168000C1FE0003FF81FE0007FF01FE000FFE0107
:10169000FE001FFC01FE003FF801FE007FF001FE8E
:1016A00000FFE001FE00FFC001FE00FFFFFFFFE0C2
:1016B000FFFFFFFFE0FFFFFFFFE0FFFFFFFFE0FF97
:1016C000FFFFFFE0FFFFFFFFE0FFFFFFFFE0000085
:1016D00001FE00000001FE00000001FE000000010C
:1016E000FE00000001FE00000001FE00000001FEFF
:1016F00000000001FE00000001FE00000001FE00ED
:10170000000001FE00000001FE00000001FE0000DC
:101710000001FE00000001FE00000001FE000000CC
:1017200001FE00000001FE00003FFFC00000FFFFBF
:10173000F00001FFFFF80003FFFFFE0007FFFFFFBF
:10174000000FFFFFFF800FFFFFFFC00FF001FFC082
:101750000FC000FFC00FC0007FC00FC0007FC00FD0
:1017600080003FC00000003FC00000003FC00000FC
:10177000003FC00000003FC00000007FC00000002C
:101780007FC0000000FFC0000003FFC0003FFFFF5C
:1017900080007FFFFF00007FFFFC00007FFFF00064
:1017A000007FFFFF00007FFFFF80007FFFFFC00082
:1017B0003FFFFFC0000003FFC0000001FFC00000AA
:1017C000007FC00000007FC00000003FC00000009C
:1017D0003FC00000003FC00000003FC00000003FCD
:1017E000C00F80003FC00FC0007FC00FC0007FC08F
:1017F0000FC000FFC00FF001FFC00FFFFFFF800F01
:10180000FFFFFF0007FFFFFF0003FFFFFE0001FFD8
:10181000FFFC0000FFFFF000003FFFC000000FFFD3
:101820008000003FFFE000007FFFF80000FFFFFCAA
:101830000001FFFFFE0003FFFFFF0007FFFFFF8027
:1018400007FFFFFFC00FFC03FFC00FF801FFE01F01
:10185000F000FFE01FF0007FE01FF0007FE01FF0CE
:10186000007FE01FF0007FE01FF0007FE00000003D
:10187000FFE0000001FFC0000003FFC0000007FF01
:10188000C000000FFF8000001FFF0000003FFF00AE
:1018900000007FFE000000FFFC000001FFF80000D8
:1018A00003FFF0000007FFE000000FFFC000001F73
:1018B000FF8000003FFF0000007FFE000000FFFCF3
:1018C000000001FFF8000003FFF0000007FFE00048
:1018D000000FFFC000001FFF8000001FFF0000007E
:1018E0003FFE0000003FFC0000003FFFFFFFE03F25
:1018F000FFFFFFE03FFFFFFFE03FFFFFFFE03FFF95
:10190000FFFFE03FFFFFFFE03FFFFFFFE03FFFFF84
:10191000FFE007FFFF80001FFFFFE0003FFFFFF039
:10192000007FFFFFF8007FFFFFF800FFFFFFFC00D4
:10193000FFFFFFFC00FFFFFFFC00FFE01FFC00FFBC
:10194000C00FFC00FF8007FC00FF8007FC00FF8049
:1019500007FC00FF8007FC00FF8007FC00FF8007FA
:10196000FC00FF8007FC00FF8007FC00FF8007FCF5
:1019700000FF8007FC00FF8007FC00FF8007FC00E1
:10198000FF8007FC00FF8007FC00FF8007FC00FFD2
:101990008007FC00FF8007FC00FF8007FC00FF8041
:1019A00007FC00FF8007FC00FF8007FC00FF8007AA
:1019B000FC00FF8007FC00FF8007FC00FF8007FCA5
:1019C00000FF8007FC00FF8007FC00FF8007FC0091
:1019D000FF8007FC00FFC00FFC00FFE01FFC00FFC2
:1019E000FFFFFC00FFFFFFFC00FFFFFFFC007FFF8D
:1019F000FFF8007FFFFFF8003FFFFFF0001FFFFF31
:101A0000E00007FFFF800000000000000000000071
:101A100000000000000006000000000F8000000031
:101A20000FC000000017F00000000BFC00000005D4
:101A3000F90000003AF38000003D7FBC00003EBF8B
:101A40003800001F5E7800000FAFFC000007C7FEE3
:101A5000000003E3FF100007F1FFF0000FFAFFE0C2
:101A6000000FFD7FC0000F3EBF80000F1E5F000013
:101A70000F0E2E00003FFFFFF0003FFFFFF00000C1
:101A800000000000018000000003E000000003F0FF
:101A900000000005FC00000002FF000000017E4085
:101AA00000000EBCE000000F5FEF00000FAFCE00A3
:101AB0000007D79E000003EBFF000001F1FF80004C
:101AC00000F8FFC40001FC7FFC0003FEBFF8000724
:101AD000FF5FF0000FCFAFE0000F8797C0000F034C
:101AE0008B80000F000500000F000200003FFFFF89
:101AF000F0003FFFFFF000006000000000F8000071
:101B00000000FC000000017F00000000BFC00000DA
:101B1000005F900000002F3800000E17FBC0000F80
:101B20000BF380000F85E7800007C2FFC00003E0D1
:101B30007FE00001F03FF10000F81FFF0001FC2FE3
:101B4000FE0003FE17FC0007FF0BF8000FCF85F027
:101B5000000F8782E0000F038140000F000080002B
:101B60000F000000003FFFFFF0003FFFFFF000C04C
:101B700000000000C000000000C000000000C00025
:101B8000000000C7E39C0000CFE7FE0000CC6666C3
:101B90000000CC66660000CFE6660000CFE6660077
:101BA00000CC06660000CC066600000C00000000B9
:101BB0000C000000000C000000000000000000000D
:101BC000000000000000F000000000E00000000144
:101BD000C0000000018000000003FC00000007F8C6
:101BE0000000000070000000006000000000C00065
:101BF0000000018000001C030000003E0000000007
:101C0000633FF00F00637FF81F8063C0183180636B
:101C100080186180630038C300631FFF8600631F64
:101C2000FF0C006300001800630000300063FFFF3A
:101C3000E00063FFFFC0003E000000001C00000049
:101C4000007E7E7E7E00001819FC000000001C391A
:101C5000FE000000001E7986000000001E7986004C
:101C60000000001BD9863D8000001999867F800006
:101C7000001999FE638000001819FC6180000018AB
:101C80001980618000001819806180000018198097
:101C9000638000001819807F8000001819803D8043
:101CA0000000000000000000000000030C00000025
:101CB0003E1CE30C7C3E007F3FF30CFE7F00C333F1
:101CC000330CC66300C033330C066300C03333FCEF
:101CD0000E6300C03333FC1C6300C033330C386325
:101CE00000C033330C706300C333330CE063007FF8
:101CF00033330CFE7F003E33330CFE3E0000000009
:101D000000000000000000C60000738738C6030012
:101D1000FFCFFCC63F00CCCCCCFE7F00CCCCCCFEB1
:101D20006300CCCCCCC66300CCCCCCC67F00CCCC82
:101D3000CCC63F00CCCCCCC60300000000000300A2
:101D4000000000006300000000007F0000000000B1
:101D50003E0071C92F7839888A29284845888A2900
:101D6000284845488A292F484548F2292878452897
:101D700082292860452882292850451881C6CF48E5
:101D800039183F8000781E00007FC000781E0000D8
:101D9000FFE000781E0000FFE000381C0000E0E0DB
:101DA000003C3C0000E0E0003C3C0000E0E0003C87
:101DB0003C0000E0E0003C3C0000E0E0001E787FDA
:101DC00000E0E1FE1E78FF80FFE3FF1E78FF80FF4A
:101DD000E3FF1E78E380FFE3FF0E70E380FFE387FD
:101DE0000FF0E380E0E3870FF0E380E0E3870FF09C
:101DF000E380E0E3FF07E0FFE0E0E3FE07E0FFE071
:101E0000E0E1C007E07EE00001C00000000000014A
:101E1000FF000000000003FF800000000003FF80BF
:101E200000000000038380000000000383800000A6
:101E300000000383800000000003FF80000000001A
:101E400003FF800000000001FF0000000000000010
:101E500000000000001E0000003F0000003F0000E6
:101E6000007380000061800000E1C00000C0C0007D
:101E700001C0E00001806000039C7000033E300060
:101E8000077F3800060718000E071C000C7F8C0027
:101E90001C3FCE00181FE6003801F7003000F300A9
:101EA00070007B8060003980E00019C0C00000C075
:101EB000C00000C0FFFFFFC07FFFFF8011241FBED6
:101EC000CFEFCDBFDFE7DEBF13E4A0E0B0E4E4E492
:101ED000FFE500E00BBF02C007900D92A83BB107E1
:101EE000D9F724E4A8EBB3E401C01D92A237B207EE
:101EF000E1F70E94AB290C94A02F0C9400006150D4
:101F0000710920E030E00EC0DC01A20FB31F4C913C
:101F1000FC01E60FF71F50815C9340832F5F3F4F1A
:101F200061507109261737077CF30895CF92DF922D
:101F3000EF92FF920F931F93CF93DF938A01690172
:101F4000C0E0D0E011C07801EC0EFD1E2AE030E0C8
:101F500040E050E00E94072D605DF7016083622F32
:101F6000732F842F952F2196611571058105910599
:101F700051F706C0F801EC0FFD1F80E38083219626
:101F8000CC15DD05BCF3BE01C8010E947F0FF8012E
:101F9000EC0FFD1F1082CE01DF91CF911F910F91A9
:101FA000FF90EF90DF90CF900895E0E4F4E020817F
:101FB0002D7F2083208121602083BC0180E090E080
:101FC0000E94282B20E030E040E851E40E942F2CB2
:101FD0009B01AC0160E07BE187EB9EE40E94802ADC
:101FE00020E030E040E05FE30E940F2A0E94F92ADF
:101FF000E0E2F8E0608771878681806C86830895CF
:102000009091240895FFFCCF8093220808950F93A8
:102010001F93CF93DF938C01C0E0D0E007C0F8019D
:10202000EC0FFD1F80810E9400102196F8010190A5
:102030000020E9F73197E01BF10BCE17DF0778F3AB
:102040008AE00E940010DF91CF911F910F910895B7
:102050000F931F93CF93DF938C01C0E0D0E007C0B4
:10206000F801EC0FFD1F80810E9400102196F801FD
:1020700001900020E9F73197E01BF10BCE17DF0745
:1020800078F3DF91CF911F910F91089520E030E018
:102090004BE354E40E94960F8BE394E40E940710F4
:1020A0000895E0E0F4E0808180688083A4E0B4E0FB
:1020B0008C9180688C938081806180838081806432
:1020C0008083E0E4F9E080818063808380818160A7
:1020D00080838C9180688C930895809344098091CB
:1020E00043098823E4F70895DC0120E030E00CC0C8
:1020F000FD01E20FF31F90819093440990914309F1
:102100009923E4F72F5F3F4F462F50E02417350700
:102110007CF30895E0E0F9E081E0858383E0848347
:102120000895E0E0F9E080818F7E80838081837F65
:10213000808380818D7F80830895E0E0F9E087E6E9
:10214000868381E0858383818A6083838381816044
:1021500083830895CF93DF93C82FD62F80910509ED
:102160008370833089F482E590E40E94071020E6B2
:102170003AEE01C09C01809105098370833021F4FF
:10218000C9010197232BB1F785E080930509DD2371
:1021900041F08C2F90E0880F991F81608093070990
:1021A00004C08C2F880F8093070980E69AEE209157
:1021B000050924FF06C02091050926FD02C00197EC
:1021C000B1F7892B21F48CE590E40E9407108091EF
:1021D000050982FF04C084E690E40E940710DF91A5
:1021E000CF910895CF93DF93C0E6DAEE8091050991
:1021F000882314F02197D1F78091050983FD04C04D
:102200008091050982FF09C087E990E40E940710C8
:102210000E948A1081E080933A44CD2B39F48CE5FA
:1022200090E40E94071081E080933A44809108096D
:10223000DF91CF91089585E88093A000E0E0F6E07B
:1022400084E0818381E082838083089581E08093AC
:102250000A060895809308060E94261180910D06B3
:1022600080FFFCCF8091100690911106089580E8C0
:1022700095E20E94D50F0E9491100E949D1061E08E
:1022800088E70E94AA100895CF93DF930E94F2106E
:10229000C82FD0E0DC2FCC270E94F210C82B0E9460
:1022A000F2100E94F210BE0180E090E00E94282B04
:1022B000DF91CF9108950E94441120E030ED4CE46D
:1022C00055E40E940E2A2CEE31E143E853E40E94CB
:1022D000802A0895CF92DF92EF92FF921F93CF93BF
:1022E000DF93182FC0E0D0E0C12CD12C760111C0B3
:1022F0000E945B119B01AC01C701B6010E940F2A2D
:1023000020E030E040E05FE30E942F2C6B017C0175
:102310002196812F90E0C817D90754F32FE03CEDA8
:102320004EE452E4C701B6010E942F2CDF91CF91F9
:102330001F91FF90EF90DF90CF900895E0E0F4E0E0
:10234000808180688083E0E2F4E080818061808326
:10235000E0E4F4E08081806280830895CF93DF938E
:10236000E0E2F4E0248120612483C0E0D4E02C8109
:102370002F772C830E9474108C8180688C83DF916E
:10238000CF910895CF93DF93E0E2F4E094819061E0
:102390009483C0E0D4E09C819F779C830E946D1061
:1023A0008C818F778C83DF91CF9108950F931F934A
:1023B000CF93DF93C0E2D4E09C819F7E9C8300E0BA
:1023C00014E0F80194819F7794830E946D10F801C6
:1023D0008481806884838C8180618C83DF91CF913C
:1023E0001F910F9108950F931F93CF93DF93C0E236
:1023F000D4E09C819F7E9C8300E014E0F8019481EE
:102400009F7794830E946D10F80184818068848393
:102410008C8180618C83DF91CF911F910F91089502
:10242000CF93982F9F70C82FC295CF70C067892F08
:1024300080660E94F3118C2F0E94F311CF910895B2
:10244000CF93C82FC295CF70C0618F700E94F311D7
:102450008C2F0E94F311CF9108950F931F93CF9368
:10246000DF93062F122FD8E1D80FC8E1C40F8D2FAC
:102470000E942012802F0E94101284EF0E94D61119
:102480008D2F0E94F31186EF0E94D6118C2F0E948F
:10249000F31187EF0E94D611812F0E94F31188EF6C
:1024A0000E94D611DF91CF911F910F910895CF9384
:1024B000DF932FE94FE460E080E00E942D12C0E03E
:1024C000D0E004C080E00E94C2112196C11584E6CC
:1024D000D807C4F3DF91CF910895E0E0F4E0848160
:1024E0008F778483E0E2F4E0848180618483E0E498
:1024F000F4E084818F7D84832FEF88EF95E1215074
:1025000080409040E1F700C00000848180628483B5
:102510002FEF8EE994E2215080409040E1F700C017
:10252000000088EB0E94D61180E10E94F31182EE38
:102530000E94D6112FEF85EA9EE021508040904006
:10254000E1F700C000008BEE0E94D61181E80E94E6
:10255000D6118BE40E94D6118BE20E94D61184EC36
:102560000E94D61189E80E94D61184E20E94D611F9
:1025700082EA0E94D61181EF0E94D6118FE90E9453
:10258000F31184E80E94D61182EF0E94D61180E0F8
:102590000E94F31183EF0E94D61182E30E94F3118F
:1025A00080E40E94D61180E50E94D61181ED0E9440
:1025B000D61186ED0E94D61188EC0E94D61185E0D6
:1025C0000E94D61188ED0E94D6110E9457128DEA02
:1025D0000E94D61108952F923F924F925F926F9270
:1025E0007F928F929F92AF92BF92CF92DF92EF92A3
:1025F000FF920F931F93CF93DF93CDB7DEB7619711
:10260000CDBFDEBF8F836C871A012B87902E2DB72D
:102610003EB72E873F878BEA089F812D1124869530
:102620008A8790E0DC01AA0FBB1FAD83BE836D01DA
:10263000BB0FEE08FF0800E010E0412C512C3201E6
:1026400009831A839D864601570189C0EDB7FEB7FD
:10265000E887F9872DB73EB78D819E81281B390BFE
:102660002DBF3EBFADB7BEB71196AB83BC83AD01E6
:1026700080E090E005C0FA01E80FF91F1082019692
:102680008C01092E000C220B330B081519052A05A5
:102690003B058CF360E070E030E020E0ED843DC06D
:1026A000F101E40DF51DF490BFEF4B1A5B0A6B0AC4
:1026B0007B0A87E090E02DC0EF2DF0E0082E02C0ED
:1026C000F595E7950A94E2F7E0FF1DC0E32FF0E0EF
:1026D000E88BF98B8F01040F151FD801CC90A22F26
:1026E000B0E0AA0FBB1FA95EBF4BDC90DC28F8014D
:1026F000D082E889F9893196E40FF51F108111968F
:10270000AC91A12BA0832F5F233010F03E5F20E01F
:10271000019799238CF66F5F7F4F8E2D8695869556
:10272000869590E0681779070CF4BACF6C85F9812B
:102730006F0F262F4A853F81430F832F0E942D1252
:102740006D817E818B819C810E94AE1188859985E7
:102750008DBF9EBFA981BA811196A983BA83BB851B
:102760008B2F90E0E981FA81E817F9070CF46ECF1E
:102770002E853F852DBF3EBF6196CDBFDEBFDF9169
:10278000CF911F910F91FF90EF90DF90CF90BF906E
:10279000AF909F908F907F906F905F904F903F9001
:1027A0002F9008952F923F924F925F926F927F9257
:1027B0008F929F92AF92BF92CF92DF92EF92FF9251
:1027C0000F931F93CF93DF93CDB7DEB76297CDBF43
:1027D000DEBFA82E688B4A01322E2DB73EB7298B5B
:1027E0003A8B202E269426942694222D30E0A32D79
:1027F000B0E00E94262D9B01AC01AE2DB0E00E94FE
:10280000352D2B013C018BEA089F012D11240695E3
:102810000D87802F90E0DC01AA0FBB1FAE87BF871A
:10282000CD01092E000CAA0BBB0B8F839887A987BB
:10283000BA8700E010E08FC0ADB7BEB7AB87BC87EA
:10284000EDB7FEB72F813885E21BF30BEDBFFEBF5E
:102850008DB79EB701968D839E83AC0180E090E09A
:1028600049825A826B827C82322D232D2F803884BC
:1028700049845A8405C0FA01E80FF91F10820196B5
:102880006C01092E000CEE08FF08C214D304E40406
:10289000F50488F349805A806B807C80232E322E89
:1028A00060E070E030E020E03CC0F401E40DF51D94
:1028B000D4909FEF491A590A690A790A87E090E093
:1028C0002CC0ED2DF0E0082E02C0F595E7950A9496
:1028D000E2F7E0FF1CC0A32FB0E0A983BA837D011B
:1028E000E40EF51EF701B080A22FB0E0AA0FBB1FC7
:1028F000A95EBF4BCC90CB28C082E981FA8131968A
:10290000E40FF51FF0801196AC91AF29A0832F5FE3
:10291000233010F03E5F20E00197992394F66F5F1B
:102920007F4F822D90E0681779070CF4BECF68893D
:10293000600F262F4D854A0D8A2D0E942D126E851F
:102940007F858D819E810E94AE112B853C852DBF98
:102950003EBF0F5F1F4F832D90E0081719070CF43F
:102960006BCF89899A898DBF9EBF6296CDBFDEBF2E
:10297000DF91CF911F910F91FF90EF90DF90CF905B
:10298000BF90AF909F908F907F906F905F904F908F
:102990003F902F900895FF920F931F93CF93DF9353
:1029A000F62EC22F002381F0D42FD81B0E942D12A7
:1029B000C0E007C08FEF0E94C2118FEF0E94C211CA
:1029C000CF5FCD17B8F313C00E942D120C2F10E06B
:1029D0000F191109C0E0D0E007C08FEF0E94C211AB
:1029E00080E00E94C2112196C017D107B0F3DF9199
:1029F000CF911F910F91FF900895FF920F931F9316
:102A0000CF93DF93F62EC22F002381F0D42FD81B53
:102A10000E942D12C0E007C08FEF0E94C2118FEFFD
:102A20000E94C211CF5FCD17B8F313C00E942D12C0
:102A30000C2F10E00F191109C0E0D0E007C088EF9B
:102A40000E94C21180E00E94C2112196C017D107D6
:102A5000B0F3DF91CF911F910F91FF900895DF9216
:102A6000EF92FF920F931F93CF93DF93F82ED62E02
:102A7000E42E022F061B842F90E08F19910963E04A
:102A800070E00E94D12CD62F10E013C0612F6D0D85
:102A9000262F4E2D8F2D0E942D12C0E007C08FEFE4
:102AA0000E94C2118FEF0E94C211CF5FCD17B8F301
:102AB0001F5F101758F3DF91CF911F910F91FF9077
:102AC000EF90DF900895DF92EF92FF920F931F93A4
:102AD000CF93DF93F82ED62EE42E022F061BD42F91
:102AE000D81B10E013C0612F6D0D262F4E2D8F2D9A
:102AF0000E942D12C0E007C080E00E94C21180E059
:102B00000E94C211CF5FCD17B8F31F5F101758F3A3
:102B1000DF91CF911F910F91FF90EF90DF9008957B
:102B2000CF93DF93A0E4B4E08C918F7B8C93569687
:102B30008C915697816056968C935697E0E8F4E016
:102B400080818D7F808381898260818B80818B7F72
:102B5000808382898260828BC0EAD4E088818B7F07
:102B600088838A8982608A8B80818E7F8083808936
:102B70008260808B8C9184608C93E0E2F4E08081B1
:102B800080628083DF91CF9108958091FD438823F7
:102B900069F181E08093E543809116408F5F8093D7
:102BA0001640843018F081E08093164080911640E2
:102BB000823049F0833061F0813079F48FEA90E41B
:102BC0000E94071011C080ED90E40E9407100CC015
:102BD00083EF90E40E94071007C081E080931640C5
:102BE00083E191E40E9407101092FD430895882329
:102BF00021F1E0E8F4E0848188608483E0E0FAE099
:102C00008081816080838091BF439091C04380A781
:102C100091A781E08093C543809116449091174419
:102C2000A0911844B09119448093FF4390930044BD
:102C3000A0930144B09302440895811110C0E0E8CC
:102C4000F4E08481877F8483E0E0FAE08081816022
:102C5000808310A611A61092C5431092FB430895DD
:102C60008091FA438823C9F184E491E40E9407101B
:102C70008091FB4381110AC08091BF439091C04372
:102C80008093280A9093290A892B01F51092FB431F
:102C90001092D7431092DB431092DA431092CB4349
:102CA0001092CC431092CD431092CE431092D64353
:102CB0001092D5431092CF431092D0431092D1433B
:102CC0001092D24380E00E94F71505C081E0809306
:102CD000FB430E94F7151092FA430895CF92DF92BA
:102CE000EF92FF920E946A116B017C016093324463
:102CF00070933344809334449093354420E030E023
:102D0000A9010E947B2A88234CF41092324410922D
:102D10003344109234441092354416C020E030E819
:102D20004BE354E4C701B6010E94DA2B181664F491
:102D300080E090E8ABE3B4E4809332449093334472
:102D4000A0933444B093354480911640823049F1C9
:102D5000833009F478C0813009F0AAC080E090E0A7
:102D6000AAE7B5E480931E4490931F44A0932044A7
:102D7000B093214420E030E048EC52E460913244CA
:102D80007091334480913444909135440E942F2CAB
:102D90006093224470932344809324449093254469
:102DA000ACC060913244709133448091344490912E
:102DB000354429E134E04EEA5FE30E942F2C609312
:102DC0002E4470932F4480933044909331440F2EBF
:102DD000C12CF0E8DF2EFBE3EF2EF5E4FF2EF02D03
:102DE000C0921E44D0921F44E0922044F0922144AD
:102DF00020E030E84BE354E40E94DA2B181664F428
:102E000080E090E8ABE3B4E480932E4490932F44A9
:102E1000A0933044B093314420E030E048EC52E4D9
:102E200060912E4470912F448091304490913144B0
:102E30000E942F2C60932244709323448093244457
:102E4000909325445AC060913244709133448091EC
:102E50003444909135442AE035E848E05EE30E942E
:102E60002F2C60932A4470932B4480932C4490938E
:102E70002D440F2EC12CD12CF8E4EF2EF3E4FF2EBD
:102E8000F02DC0921E44D0921F44E0922044F09254
:102E9000214420E030E048EC52E40E942F2C609363
:102EA000224470932344809324449093254425C066
:102EB00081E08093164080E090E0AAE7B5E480933B
:102EC0001E4490931F44A0932044B093214420E0DB
:102ED00030E048EC52E46091324470913344809188
:102EE0003444909135440E942F2C60932244709377
:102EF00023448093244490932544FF90EF90DF90E7
:102F0000CF9008958091480483FF03C081E08093AF
:102F1000DC430895E0E4F4E08481806184832FEF52
:102F20008EE994E2215080409040E1F700C000001B
:102F300084818F7E84832FEF8EE994E2215080403C
:102F40009040E1F700C000000E9437110895E0E4CE
:102F5000F4E080818F77808387898160878B80818F
:102F6000877F808383898160838B08950E94A71760
:102F70008091480483FF04C081E08093DC4308957E
:102F80001092DC4308958091D9438823B1F0809159
:102F9000480483FF09C081E08093DC43E0E2F4E071
:102FA00084818160848307C01092DC43E0E2F4E016
:102FB00084818E7F84831092D9438091DC4388235F
:102FC00029F0E0E2F4E084818160848308950F9326
:102FD0001F938091DB438823F1F19091D7439111A6
:102FE0003AC09091D843911136C09091DA43992319
:102FF00091F19091D643923070F1409116445091E6
:10300000174460911844709119440091CB4310917A
:10301000CC432091CD433091CE43401B510B620BEA
:10302000730B483E534061057105A8F481E00E948E
:10303000F71581E08093D7431092DB431092DA4377
:103040001092CB431092CC431092CD431092CE43BA
:103050001092D643BCC0882359F19091DA4399234A
:1030600039F19091D743992319F180E00E94F71527
:103070001092D7431092DB431092DA431092CB4365
:103080001092CC431092CD431092CE431092D6436F
:103090008091D543882309F49AC01092D5431092A9
:1030A000CF431092D0431092D1431092D2438FC09D
:1030B000882391F19091D74391112EC09091D843DC
:1030C00091112AC09091D643911126C09091DA4374
:1030D000911122C0409116445091174460911844B8
:1030E000709119440091CB431091CC432091CD4372
:1030F0003091CE43401B510B620B730B493E534042
:103100006105710548F081E00E94F71581E0809328
:10311000D8431092D3435BC09091DA439923F1F0E6
:103120002091D8432223D1F02091D6432223B1F01D
:103130008823A1F080E00E94F7151092D8431092E6
:10314000DA431092DB431092D6431092CB43109295
:10315000CC431092CD431092CE4339C0811106C0AA
:10316000911104C08091D643882389F18091D7437F
:1031700081112DC08091D843811129C080911644BE
:1031800090911744A0911844B09119444091CB43B9
:103190005091CC436091CD437091CE43841B950BED
:1031A000A60BB70B893E9340A105B10580F01092A4
:1031B000D7431092CB431092CC431092CD43109240
:1031C000CE431092DB431092DA431092D6431F9104
:1031D0000F9108954F925F926F927F928F929F927C
:1031E000AF92BF92CF92DF92EF92FF928091D44341
:1031F000882309F4D8C08091D743811104C08091FD
:10320000FB438823D1F08091D543811116C081E022
:103210008093D5438091164490911744A09118440F
:10322000B09119448093CF439093D043A093D1435E
:10323000B093D2431092D343B6C08091D543882334
:10324000E1F14091164450911744609118447091F7
:103250001944C090CF43D090D043E090D143F09038
:10326000D2434C195D096E097F09413457476B41C0
:10327000710518F180E00E94F7151092D543109265
:10328000CF431092D0431092D1431092D243109268
:10329000D7431092CB431092CC431092CD4310925F
:1032A000CE431092DB431092DA431092D64381E072
:1032B0008093D3431092FB4376C0882309F473C0F4
:1032C000C0901644D0901744E0901844F0901944F0
:1032D0004090CF435090D0436090D1437090D24300
:1032E000D701C60184199509A609B7098034974703
:1032F000AB41B10508F057C0809022449090234420
:10330000A0902444B0902544A501940160912644E6
:103310007091274480912844909129440E940E2A5C
:103320000E94F22A9B01772324F422273327261BAD
:10333000370BB901330F880B990B0E942A2B209170
:103340001E4430911F4440912044509121440E94DA
:10335000DA2B18166CF4C414D504E604F70441F013
:10336000C092CF43D092D043E092D143F092D24367
:1033700080911A4490911B44A0911C44B0911D442B
:10338000C81AD90AEA0AFB0A89EEC81683E0D806E9
:10339000E104F10440F08092264490922744A092E8
:1033A0002844B0922944FF90EF90DF90CF90BF90D7
:1033B000AF909F908F907F906F905F904F90089507
:1033C0008091DB43882341F081E00E94F715109241
:1033D000DB431092D34308958091DA43882329F088
:1033E00080E00E94F7151092DA4308958091FE4321
:1033F000882319F00E94E71704C0811102C00E94BF
:10340000E0190E94C31708950E941B1108958F921E
:103410009F92AF92BF92CF92DF92EF92FF92CF93A3
:10342000C0E018C082E00E942A114091E64350910A
:10343000E7436091E8437091E943480F591F611DCC
:10344000711D4093E6435093E7436093E8437093C4
:10345000E943CF5FC43130F32C2F30E040E050E03F
:103460006091E6437091E7438091E8439091E9438E
:103470000E94E52C2093E6433093E7434093E843D2
:103480005093E943CA01B9010E94282B23E333E397
:1034900043E550E40E942F2C20E030EF4FE755E445
:1034A0000E94802A6B017C016093F6437093F7437E
:1034B0008093F8439093F94320E030E44CE156E4E4
:1034C0000E94802A4B015C016093EA437093EB43B6
:1034D0008093EC439093ED43A701960163E373E37C
:1034E00083E590E40E940E2AA50194010E94802A9F
:1034F0006093EE437093EF438093F0439093F143D6
:1035000020E030E44CE156E40E94802A0E94E72B40
:1035100023E931EA48E959E30E942F2C2FE03FECE0
:103520004BE55BE30E940F2A9B01AC0160E070E079
:1035300080E89FE30E94802A23E333E948E853E4CC
:103540000E940E2A6093F2437093F3438093F443F6
:103550009093F543CF91FF90EF90DF90CF90BF9085
:10356000AF909F908F9008958FEB9DE580931C0BFB
:1035700090931D0BE1E1FBE080818083E5E1FBE0BE
:10358000808181608083E0E1FBE0808181608083D5
:1035900008958FEB9DE580932C0B90932D0BE1E22A
:1035A000FBE080818083E5E2FBE0808181608083B5
:1035B000E0E2FBE080818160808308950E94B41A7C
:1035C0000E94C91A08951F920F920FB60F921124EC
:1035D0000BB60F928F939F93AF93BF93EF93FF938D
:1035E0008091160B80FF18C080911644909117446B
:1035F000A0911844B09119440196A11DB11D80936A
:10360000164490931744A0931844B0931944E6E1EC
:10361000FBE0808181608083FF91EF91BF91AF914A
:103620009F918F910F900BBE0F900FBE0F901F9028
:1036300018951F920F920FB60F9211240BB60F928E
:103640000F931F932F933F934F935F936F937F93AA
:103650008F939F93AF93BF93EF93FF934091124447
:103660005091134460911444709115444F5F5F4F23
:103670006F4F7F4F40931244509313446093144410
:103680007093154480910E4490910F44A091104482
:10369000B09111440196A11DB11D80930E449093E9
:1036A0000F44A0931044B093114400910A44109128
:1036B0000B4420910C4430910D440F5F1F4F2F4F4E
:1036C0003F4F00930A4410930B4420930C443093D3
:1036D0000D44493E53406105710558F021E02093A7
:1036E0000544109212441092134410921444109204
:1036F0001544893C9105A105B10558F081E08093FE
:10370000044410920E4410920F44109210441092F0
:103710001144E6E2FBE0808181608083FF91EF91BC
:10372000BF91AF919F918F917F916F915F914F91D9
:103730003F912F911F910F910F900BBE0F900FBED5
:103740000F901F9018951092FD431092D443109241
:10375000FA431092FE431092FC4308951092BA432C
:103760001092BB431092BC431092BD431092BE43D3
:1037700008950F938091FC43882309F4B5C180918B
:1037800008408F5F80930840863018F081E0809376
:10379000084080910840833009F4A2C030F48130A1
:1037A00059F0823009F452C079C1843009F4E2C082
:1037B000853009F429C172C18091FB43882359F0F7
:1037C000E0E0FAE0808181608083809111409091F7
:1037D000124080A791A78091114090911240809350
:1037E000BF439093C04380911340811113C08091D7
:1037F000C9439091CA438093BF439093C043E0E094
:10380000FAE08081816080838091C9439091CA43AE
:1038100080A791A70E94AE1B81E08093BE4308E27F
:1038200021E34DE158E168E285E30E94EB1221E3D8
:1038300042E159E168E282E40E94EB122FE04FE698
:103840005BE16FE582E40E94EB124BC18091FB4388
:10385000882359F0E0E0FAE08081816080838091E4
:103860000F409091104080A791A780910F409091B8
:1038700010408093BF439093C043809113408111C7
:1038800013C08091C9439091CA438093BF439093E2
:10389000C043E0E0FAE08081816080838091C94389
:1038A0009091CA4380A791A70E94AE1B81E08093AC
:1038B000BD4308E221E348E257E168E285E30E9464
:1038C000EB1221E342E159E168E282E40E94EB124B
:1038D0002FE04FE65BE16FE582E40E94EB1201C14D
:1038E0008091FB43882359F0E0E0FAE08081816019
:1038F000808380910D4090910E4080A791A7809188
:103900000D4090910E408093BF439093C0438091AF
:103910001340811113C08091C9439091CA43809391
:10392000BF439093C043E0E0FAE0808181608083F0
:103930008091C9439091CA4380A791A70E94AE1B72
:1039400081E08093BC4308E221E343E356E168E26F
:1039500085E30E94EB1221E342E159E168E282E44F
:103960000E94EB122FE04FE65BE16FE582E40E94DC
:10397000EB12B7C08091FB43882359F0E0E0FAE0F6
:1039800080818160808380910B4090910C4080A762
:1039900091A780910B4090910C408093BF439093EE
:1039A000C04380911340811113C08091C94390910D
:1039B000CA438093BF439093C043E0E0FAE0808124
:1039C000816080838091C9439091CA4380A791A769
:1039D0000E94AE1B81E08093BB4308E221E34EE3EB
:1039E00055E168E285E30E94EB1221E342E159E1EF
:1039F00068E282E40E94EB122FE04FE65BE16FE5A4
:103A000082E40E94EB126DC08091FB43882359F041
:103A1000E0E0FAE0808181608083809109409091AC
:103A20000A4080A791A78091094090910A40809315
:103A3000BF439093C04380911340811113C0809184
:103A4000C9439091CA438093BF439093C043E0E041
:103A5000FAE08081816080838091C9439091CA435C
:103A600080A791A70E94AE1B81E08093BA4308E231
:103A700021E349E454E168E285E30E94EB1221E38B
:103A800042E159E168E282E40E94EB122FE04FE646
:103A90005BE16FE582E40E94EB1223C0809111404C
:103AA000909112408093BF439093C0430E94AE1BFD
:103AB00081E08093BE4308E221E34DE158E168E2F2
:103AC00085E30E94EB1221E342E159E168E282E4DE
:103AD0000E94EB122FE04FE65BE16FE582E40E946B
:103AE000EB121092FC43F9C0882309F4F6C08091D0
:103AF000FB43811109C08091D443811105C080919D
:103B0000FE43882309F4E9C0809108408F5F8093C9
:103B10000840863018F081E080930840809108408A
:103B2000833009F451C028F4813051F0823051F1D2
:103B3000B1C0843009F46AC0853009F489C0AAC0D4
:103B4000E0E0FAE080818160808380911140909173
:103B5000124080A791A708E221E34DE158E168E215
:103B600085E30E94EB1221E342E159E168E282E43D
:103B70000E94EB122FE04FE65BE16FE582E40E94CA
:103B8000EB12A9C0E0E0FAE080818160808380913F
:103B90000F409091104080A791A708E221E348E2EE
:103BA00057E168E285E30E94EB1221E342E159E12B
:103BB00068E282E40E94EB122FE04FE65BE16FE5E2
:103BC00082E40E94EB1287C0E0E0FAE0808181602D
:103BD000808380910D4090910E4080A791A708E2CC
:103BE00021E343E356E168E285E30E94EB1221E31F
:103BF00042E159E168E282E40E94EB122FE04FE6D5
:103C00005BE16FE582E40E94EB1265C0E0E0FAE060
:103C100080818160808380910B4090910C4080A7CF
:103C200091A708E221E34EE355E168E285E30E94B3
:103C3000EB1221E342E159E168E282E40E94EB12D7
:103C40002FE04FE65BE16FE582E40E94EB1243C098
:103C5000E0E0FAE08081816080838091094090916A
:103C60000A4080A791A708E221E349E454E168E211
:103C700085E30E94EB1221E342E159E168E282E42C
:103C80000E94EB122FE04FE65BE16FE582E40E94B9
:103C9000EB1221C080911140909112408093BF435C
:103CA0009093C04381E08093BE4308E221E348E261
:103CB00057E16AE285E30E94EB1221E342E159E118
:103CC00068E282E40E94EB122FE04FE65BE16FE5D1
:103CD00082E40E94EB121092FC430F9108950E941F
:103CE000C5150E9430160E94B91B089581E080938B
:103CF000E2438093E14308950E94761E809136440A
:103D0000882321F080913744811104C00E949E11C4
:103D10000E946D1208958091154090911640891768
:103D200049F081E08093E2438093E0438093E14354
:103D3000909315409091DF438091D443981729F0D8
:103D40008093DF4381E08093144080910544882371
:103D500081F081E08093E2438091FE43811104C0B1
:103D60008091DD43811103C081E08093DE43109296
:103D7000054480910444882329F081E08093E04346
:103D80001092044408950F932AE044E060E080E03C
:103D90000E94631508E32EE142E85DE162E38EE1F3
:103DA0000E94EB1200E328E042E55DE164E68FE16A
:103DB0000E94EB120F9108950F932EE146E060E010
:103DC00080E00E942F1501E02EE14FE46EE180E0DB
:103DD0000E94FD142DE14FE46DE180E00E94FD148E
:103DE00000E022E743E36FE183E30E94FD1401E07A
:103DF00022E74FE462E780E00E94FD1423E74FE4EE
:103E000063E780E00E94FD140F9108950F9300E096
:103E10002EE940E060E080E00E94CB1401E020E069
:103E20004FE460E080E00E94FD1421E04FE461E097
:103E300080E00E94FD1400E02EE94FE460E08FE492
:103E40000E94CB1401E02FE94FE46FE980E00E946B
:103E5000FD142EE94FE46EE980E00E94FD140F91FD
:103E60000895EF92FF920F931F93CF93DF93C82F84
:103E7000D62F6091324470913344809134449091B4
:103E800035440E94F22A9B012F3E82E0380744F01D
:103E900010923244109233441092344410923544BC
:103EA000EAE0F0E0C901BF010E94D12C182FCB013C
:103EB000BF010E94D12CF82EC90164E670E00E9477
:103EC000D12CE62E08E221E347EB5AE06D2F8C2F30
:103ED0000E94D213EF2C21E347EB5AE06D2F8DE0C7
:103EE0008C0F0E94D213E12E21E347EB5AE06D2F95
:103EF0008AE18C0F0E94D2138091E143882351F014
:103F000002E32DE044E05DE16FE58FE10E94EB12FA
:103F10001092E143DF91CF911F910F91FF90EF90AD
:103F20000895EF92FF920F931F93CF93DF93C82FC3
:103F3000D62F60912E4470912F44809130449091FF
:103F400031440E94F22A9B012F3E82E0380744F060
:103F500010922E4410922F4410923044109231440B
:103F6000EAE0F0E0C901BF010E94D12C182FCB017B
:103F7000BF010E94D12CF82EC90164E670E00E94B6
:103F8000D12CE62E08E221E347EB5AE06D2F8C2F6F
:103F90000E94D213EF2C21E347EB5AE06D2F8DE006
:103FA0008C0F0E94D213E12E21E347EB5AE06D2FD4
:103FB0008AE18C0F0E94D2138091E143882351F053
:103FC00009E32DE049EA5CE16FE58FE10E94EB1225
:103FD0001092E143DF91CF911F910F91FF90EF90ED
:103FE0000895EF92FF920F931F93CF93DF93182FB3
:103FF000F62E60912A4470912B4480912C4490912C
:104000002D440E94F22AEB01072E000C880B990B1D
:104010000E942A2B2AE037ED4FE151E40E94DA2B6F
:10402000181644F410922A4410922B4410922C44F7
:1040300010922D44CE016AE070E00E94D12CD62F60
:10404000C82FE12C08E221E347EB5AE06F2D812FC6
:104050000E94D21309E026E041E45CE165E580E1DD
:104060000E94EB12ED2E08E221E347EB5AE06F2DA0
:104070008DE0810F0E94D213EC2E21E347EB5AE032
:104080006F2D8AE1810F0E94D2138091E143882332
:1040900051F009E32EE047E45CE16FE58FE10E9417
:1040A000EB121092E143DF91CF911F910F91FF909E
:1040B000EF9008950F931F93CF93DF93C0E0D0E06C
:1040C00009C02AE030E040E050E00E94072DCA011C
:1040D000B90121968B019C01075F1F4F2F4F3F4F66
:1040E000033111052105310560F7CE010196DF91FD
:1040F000CF911F910F9108952F923F924F925F920F
:104100006F927F928F929F92AF92BF92CF92DF92E7
:10411000EF92FF920F931F93CF93DF93562EF22EC1
:10412000132F442EE52E682E712C622F732F842FAF
:10413000952F0E945A205C011C0162E070E00E94F1
:10414000542D4C01C12CD12C18C0E601CC0FDD1F21
:10415000C80DD91D6F2D712F842D9E2D2AE030E0C2
:1041600040E050E00E94072D68837983F22E132FE0
:10417000442EE52E4FEFC41AD40AE5012197CC1640
:10418000DD061CF3F101E150F048EE0FFF1FE80DD2
:10419000F91D8F2D912F80839183E02EF12CAE1489
:1041A000BF04B4F5B701660F771FC4010E94912EBA
:1041B0004C010AC0F501EE0FFF1FE80DF91D10823A
:1041C00011825FEFA51AB50AAE14BF049CF3E70194
:1041D00021972AEFAE012403C001259F900D1124E1
:1041E000680E791E12C0FE01EE0FFF1FE80DF91DCB
:1041F000E08008E128E144EE54E0652D862D0E9420
:10420000D21356E0650E711C2197DD2364F71EC0A2
:104210002AEFAE012403C001259F900D1124680EE2
:10422000791E12C0FE01EE0FFF1FE80DF91DE080A0
:1042300008E128E144EE54E0652D862D0E94D2135A
:1042400056E0650E711C2197DD2364F7C4010E94BE
:10425000082EDF91CF911F910F91FF90EF90DF908B
:10426000CF90BF90AF909F908F907F906F905F9016
:104270004F903F902F900895DF92EF92FF920F930F
:104280001F93CF93DF93F82ED62EE42E022F061B1A
:10429000D42FD81B10E013C0612F6D0D262F4E2D8B
:1042A0008F2D0E942D12C0E007C080E00E94C21135
:1042B00080E00E94C211CF5FCD17B8F31F5F1017C7
:1042C00058F3DF91CF911F910F91FF90EF90DF9006
:1042D0000895DF92EF92FF920F931F93CF93DF9396
:1042E000F82ED62EE42E022F061BD42FD81B10E05A
:1042F00013C0612F6D0D262F4E2D8F2D0E942D1274
:10430000C0E007C08FEF0E94C2118FEF0E94C21160
:10431000CF5FCD17B8F31F5F101758F3DF91CF9120
:104320001F910F91FF90EF90DF9008952DE142E0F3
:1043300060E080E00E94692108950F9326E946E439
:1043400060E080E00E9463150E9496210E94061F93
:104350000E94DC1E10923244109233441092344476
:10436000109235446AE286E00E94311F809111402C
:10437000909112408093BF439093C04381E080931B
:10438000BE4308E221E34DE158E168E285E30E9483
:10439000EB1221E342E159E168E282E40E94EB1270
:1043A0002FE04FE65BE16FE582E40E94EB122FEF16
:1043B00082E597E0215080409040E1F700C0000086
:1043C0000F9108950F931F93CF93DF9327EE32E45D
:1043D00042ED5DE360913244709133448091344406
:1043E000909135440E942F2C0E94F92A162F072FF6
:1043F000C62FD02F80910640909107408C179D07C3
:1044000088F4CD34D10510F0CCE4D0E04C2F4E5FD1
:104410002DE162E08E5F0E946921C0930640D09337
:10442000074011C0C817D90770F442E0480F2DE1CA
:1044300062E082E0810F0E943C21812F902F8093C7
:10444000064090930740DF91CF911F910F910895FF
:104450000F930E948B1E8091E2438823E9F08091A4
:104460001640823049F0833061F0813079F46AE29D
:1044700086E00E94311F0EC06AE286E00E94911F12
:1044800009C06AE286E00E94F11F04C06AE286E089
:104490000E94311F1092E2438091E043882321F073
:1044A0000E94E2211092E04380911440882339F168
:1044B0008091D443882391F082E691E40E94071012
:1044C000E0E2F4E08481806284830AE22BE14AEB3B
:1044D0005BE168E78CE30E94EB120FC08CE791E48C
:1044E0000E940710E0E2F4E084818F7D848326E956
:1044F0004DE468E78CE30E946315109214408091AC
:10450000D443882309F449C08091D343882309F414
:1045100044C0809106449091074420911644309104
:104520001744821B930B9C0122F422273327281B5C
:10453000390B293E33408CF19091034481E0892767
:1045400080930344882361F0E0E2F4E084818F7D6E
:10455000848326E94DE468E78CE30E9463150DC06F
:10456000E0E2F4E08481806284830AE22BE14AEB9A
:104570005BE168E78CE30E94EB1280911644909116
:104580001744A0911844B091194480930644909325
:104590000744A0930844B09309448091DE438823E4
:1045A00009F457C08091FE43882309F442C0E0E437
:1045B000F4E08481846084838091B8439091B9430E
:1045C00001968093B8439093B943039724F01092D7
:1045D000B8431092B9438091B8439091B943813068
:1045E000910571F082309105A1F0892BD9F408E290
:1045F00028E147EF5AE16AE787E00E94EB1216C014
:1046000008E228E14FE75AE16AE787E00E94EB12EF
:104610000DC008E228E147E05AE16AE787E00E941E
:10462000EB1204C01092B8431092B9431092DD43CC
:104630000EC0E0E4F4E084818B7F848326E94EE1C0
:1046400068E787E00E94631581E08093DD43109264
:10465000DE438091E443811104C08091E3438823C9
:1046600041F000E22AE144E55EE16CE784E20E9469
:10467000EB120F910895E0E0F4E080818160808387
:1046800080818260808380898860808BE0E0FAE0AE
:1046900080E89CE086A397A310A611A610A211A201
:1046A0008181806181838181836081838081816058
:1046B000808380818260808308959DE994BF809388
:1046C000001008951F93CF93DF93EC01162F809174
:1046D000021081FDFCCF83E190E00E945D23DC5E4F
:1046E000188380E090E00E945D23DF91CF911F91BD
:1046F00008950F931F93CF93DF93EC018B0180916B
:10470000021081FDFCCF83E190E00E945D23DC5E1E
:104710000883198380E090E00E945D23DF91CF91B0
:104720001F910F910895209102100E94862F0895E5
:10473000AF92BF92CF92DF92EF92FF920F931F93AF
:10474000CF93DF9381E090E00E949323A82E83E033
:1047500090E00E94932391E0811101C090E090933A
:10476000364400E0C12CD12C7601B12C6DC081E023
:104770000E946A11609332447093334480933444AE
:104780009093354480913A44882379F0809138445D
:104790009091394401968093384490933944109213
:1047A0003A4487E991E40E94071020913244309105
:1047B00033444091344450913544C701B6010E94BE
:1047C0007B2A811106C087EA91E40E9407101F5FCF
:1047D00005C082EC91E40E94071010E0C0903244C2
:1047E000D0903344E0903444F0903544219603C097
:1047F000C0E0D0E010E0CA30D1050CF4B8CF809111
:10480000384490913944049714F4163040F00E94D3
:104810008A170F5F109238441092394415C01092D5
:104820003844109239441092364460E081E090E0C0
:104830000E9462236091364483E090E00E946223EC
:1048400000E0BB24B394A12CB11002C0033080F26D
:10485000033088F161E06A0D81E08093364481E0A5
:1048600090E00E9462236091364483E090E00E94D1
:1048700062238FE295E70197F1F700C00000609195
:10488000FE4382E090E00E9462236091D44386E080
:1048900090E00E94622361E085E090E00E94622344
:1048A0008FE295E70197F1F700C0000061E081E435
:1048B00090E00E949A2FDF91CF911F910F91FF906E
:1048C000EF90DF90CF90BF90AF90089580E00E946E
:1048D000F7150E9482170E94C31E0E948A170E9429
:1048E00098230895209102100E94952F089589E140
:1048F00090E00E94722480931140909312408BE1CB
:1049000090E00E94722480930F40909310408DE1BC
:1049100090E00E94722480930D4090930E408FE1AE
:1049200090E00E94722480930B4090930C4081E2AF
:1049300090E00E9472248093094090930A40089569
:104940000E94772485E090E00E94932391E08111FA
:1049500001C090E09093374460E085E090E00E94D1
:10496000622383E090E00E94932391E0811101C0D3
:1049700090E090933644992341F082E090E00E94C9
:10498000932386E090E00E949323089520910210E3
:104990000E948E2F0895CF92DF92EF92FF920F9395
:1049A00085E190E00E94C624611527E9720729E499
:1049B000820721E0920720F021E02093E44302C027
:1049C0001092E4430F2EF0E8CF2EFEEEDF2EF6E33A
:1049D000EF2EF12CF02DA70196010E94E52C04E0AA
:1049E0006BE286E40E947C2081E190E00E94C62474
:1049F000A70196010E94E52C67E686E40E947C20D0
:104A00000F91FF90EF90DF90CF900895AF92BF92FB
:104A1000CF92DF92EF92FF920F931F93CF93DF938A
:104A2000EC016A017B015C018FEFA81AB80A642FC0
:104A3000CE010E9462236D2D8E010E5F1F4FC501B6
:104A40000E9462236E2D2396C8010E9462236F2D5F
:104A5000772788279927CE010E946223DF91CF9183
:104A60001F910F91FF90EF90DF90CF90BF90AF908C
:104A70000895CF92DF92EF92FF920F93C090164469
:104A8000D0901744E0901844F090194480C0E0E4BE
:104A9000F4E0808580748087882309F478C0E0E89A
:104AA000F4E0808584708087882309F470C026E94B
:104AB00040E560E080E00E94631500E324E14CE6FD
:104AC00054E069E485E00E94EB1200E42EE14CE73B
:104AD00053E069E486E10E94EB1208E12EE142E234
:104AE00053E069E48AE20E94EB1200E42EE142E323
:104AF00052E069E482E30E94EB122EE142E451E0CD
:104B00006DE586E00E94EB120E94A31B8091FD439D
:104B1000811110C09091D44391110CC09091FA432F
:104B2000911108C09091FE43911104C09091FC43F3
:104B3000992361F39091FE43992349F11092FE432A
:104B400081110CC09091D443911108C09091FA4307
:104B5000911104C09091FC43992391F38091FA4301
:104B60008823A9F01092FA4340E050E0BA0185E1B1
:104B700090E00E9406251092E44326E940E560E0BB
:104B800080E00E9463150E94DF250E94A31B809194
:104B90001644909117449601281B390BC9018136A0
:104BA00030EF930724F0803A9F400CF470CF0E94BE
:104BB000A31B0F91FF90EF90DF90CF9008950F937C
:104BC00026E946E460E080E00E94631500E42EE1FF
:104BD00044E959E06BE281E00E94EB1200E32EE130
:104BE00040EE58E06BE287E10E94EB122EE14CE2CE
:104BF00058E067E681E00E94EB1200E22EE144EB10
:104C000057E067E681E10E94EB1200E32EE140EEFF
:104C100058E067E68CE10E94EB120E94CB240E94D0
:104C2000392526E940E560E080E00E9463150F9198
:104C30000895CF92DF92EF92FF9280911644909167
:104C40001744A0911844B09119444091FF435091EA
:104C500000446091014470910244841B950BA60BA3
:104C6000B70B813C9742A940B10508F444C080913C
:104C7000C543882309F43FC081E190E00E94C62427
:104C8000AB01BC014054584D664F7F4F81E190E02D
:104C90000E94062585E190E00E94C6246B017C01FC
:104CA00020ECC20E27E2D21E29E0E21EF11CB70161
:104CB000A60185E190E00E940625C11487E9D80687
:104CC00089E4E80681E0F80620F081E08093E34380
:104CD00002C01092E3438091164490911744A09132
:104CE0001844B09119448093FF4390930044A093DB
:104CF0000144B0930244FF90EF90DF90CF9008956D
:104D00001F920F920FB60F9211240BB60F928F9332
:104D1000EF93FF938091A90482FF12C08091FE431C
:104D2000882319F01092FE4303C081E08093FE4374
:104D300081E08093C743E0EAF4E081858460818765
:104D4000FF91EF918F910F900BBE0F900FBE0F90C0
:104D50001F9018951F920F920FB60F9211240BB649
:104D60000F922F933F934F935F936F937F938F9304
:104D70009F93AF93BF93EF93FF938091490486FF76
:104D80004FC08091FD4381111CC0809116449091C9
:104D90001744A0911844B09119444091C1435091D7
:104DA000C2436091C3437091C443841B950BA60B0F
:104DB000B70B8B3F9105A105B10518F081E08093F9
:104DC000FD438091480486FF18C08091C543882325
:104DD000A1F081E08093C6438091164490911744DE
:104DE000A0911844B09119448093C1439093C24359
:104DF000A093C343B093C4430EC08091480486FD82
:104E00000AC01092C1431092C2431092C343109241
:104E1000C4431092C643E0E4F4E081858064818756
:104E20008091490488230CF04DC08091FE43882373
:104E300089F18091DB4381111BC090914804992333
:104E4000BCF481E00E94F7158091164490911744BC
:104E5000A0911844B09119448093CB439093CC43D4
:104E6000A093CD43B093CE4381E08093DB4325C034
:104E7000882319F1809148048823FCF080E00E9487
:104E8000F7158091D6438F5F8093D64381E080935E
:104E9000DA4313C08091DB43811108C0809148043C
:104EA000882324F481E08093DB4307C08091480489
:104EB00088231CF081E08093DA43E0E4F4E081850C
:104EC000806881878091490483FF08C081E08093D6
:104ED000D943E0E4F4E0818588608187FF91EF9118
:104EE000BF91AF919F918F917F916F915F914F9102
:104EF0003F912F910F900BBE0F900FBE0F901F9000
:104F000018951F920F920FB60F9211240BB60F92A5
:104F10002F933F934F935F936F937F938F939F93C1
:104F2000AF93BF93EF93FF938091890481FF0EC0ED
:104F300081E08093FA43809313408FED91E40E94C7
:104F40000710E0E8F4E08185826081878091890420
:104F500082FF12C08091D443882319F01092D44369
:104F600003C081E08093D44381E08093C843E0E8AC
:104F7000F4E08185846081878091890480FF0CC082
:104F800082E092E40E94071081E08093FC43E0E815
:104F9000F4E0818581608187FF91EF91BF91AF91AE
:104FA0009F918F917F916F915F914F913F912F9141
:104FB0000F900BBE0F900FBE0F901F901895CF92C1
:104FC000DF92EF92FF920F931F93CF93DF938C01A9
:104FD0006B01EA0179018091880482FF12C087EA9F
:104FE00093E40E9407100E0D1F1DC017D1070CF08F
:104FF000E801BE010D2E000C880B990B0E94461093
:1050000018C08091A80482FF13C087EA93E40E942D
:1050100007100E191F090C151D050CF06801B601CB
:105020000D2C000C880B990B0E944610E60101C064
:10503000E8012FE78FE492E1215080409040E1F7B2
:1050400000C00000CE01DF91CF911F910F91FF9022
:10505000EF90DF90CF900895CF93DF93109213409D
:1050600081E292E40E94071087E592E40E942810F2
:105070006091BE4370E080E090E00E94461087E6B9
:1050800092E40E9428106091BD4370E080E090E0BF
:105090000E94461087E792E40E9428106091BC436A
:1050A00070E080E090E00E94461087E892E40E9461
:1050B00028106091BB4370E080E090E00E944610B1
:1050C00087E992E40E9428106091BA4370E080E082
:1050D00090E00E944610C0E0D0E0CAC08EE993E4A0
:1050E0000E9407108091BE43882339F187EA92E439
:1050F0000E940710C0E0DAE04EA15FA1609111406C
:105100007091124080911140909112406456710943
:1051100025E030E00E94DF278093114090931240F9
:1051200088A799A780911140909112408093C9431C
:105130009093CA43C9E1D0E09BC08091BD438823CE
:1051400019F1C0E0DAE04EA15FA160910F407091CB
:10515000104080910F40909110406456710925E0F5
:1051600030E00E94DF2780930F409093104088A783
:1051700099A780910F40909110408093C9439093DC
:10518000CA43CBE1D0E074C08091BC43882319F1BD
:10519000C0E0DAE04EA15FA160910D4070910E4039
:1051A00080910D4090910E406456710925E030E0E9
:1051B0000E94DF2780930D4090930E4088A799A707
:1051C00080910D4090910E408093C9439093CA43C3
:1051D000CDE1D0E04DC08091BB43882319F1C0E000
:1051E000DAE04EA15FA160910B4070910C4080917C
:1051F0000B4090910C406456710925E030E00E940C
:10520000DF2780930B4090930C4088A799A780914B
:105210000B4090910C408093C9439093CA43CFE1D7
:10522000D0E026C08091BA43882311F1C0E0DAE0D3
:105230004EA15FA16091094070910A4080910940A0
:1052400090910A406456710925E030E00E94DF2702
:105250008093094090930A4088A799A780910940BC
:1052600090910A408093C9439093CA43C1E2D0E031
:1052700080911340882309F431CF6091C943709124
:10528000CA43CE010E9479238DEF92E40E94071059
:105290001092134023E94BE462E882E30E94631515
:1052A0006091C9437091CA43072E000C880B990B7B
:1052B0000E9446101092C6431092BE431092BD4306
:1052C0001092BC431092BB431092BA431092FA431F
:1052D00081E393E40E9407108091C9439091CA43EF
:1052E000DF91CF9108950F938091C643882389F170
:1052F0008091164490911744A0911844B09119449C
:105300004091C1435091C2436091C3437091C443E3
:10531000841B950BA60BB70B893B9B40A105B105E0
:10532000C0F01092C6431092C1431092C243109233
:10533000C3431092C44388E493E40E94071009E138
:1053400021E144E85AE062E882E30E94EB120E9405
:105350002C280F9108952FEF8EE994E22150804080
:105360009040E1F700C00000F89495E288ED84BF1A
:10537000909368000E94DE1A80E895E20E94D50FA3
:10538000E0E4F4E080818061808384818F7E848387
:10539000C0E2D4E08881816088830E943B230E9420
:1053A00051108881816088838C818E7F8C83E0E8B6
:1053B000F4E08081886080830E9437110E94A024DD
:1053C0000E94041A0E9490150E947C1E0E94B6172B
:1053D0000E9466242FEF82E597E0215080409040A4
:1053E000E1F700C0000078940E94DF250E949D2113
:1053F00089E593E40E94071082E30E946E160E94E2
:105400006F1E0E94F6190E94071A0E9428220E940D
:10541000EA180E9473290E941926EECF5058BB2724
:10542000AA270E94262A0C94A02B0E94922B38F0C7
:105430000E94992B20F039F49F3F19F426F40C9424
:105440008F2B0EF4E095E7FB0C94892BE92F0E943B
:10545000B12B58F3BA17620773078407950720F03A
:1054600079F4A6F50C94D32B0EF4E0950B2EBA2FFD
:10547000A02D0B01B90190010C01CA01A00111245A
:10548000FF27591B99F0593F50F4503E68F11A1606
:10549000F040A22F232F342F4427585FF3CF469597
:1054A00037952795A795F0405395C9F77EF41F16B9
:1054B000BA0B620B730B840BBAF09150A1F0FF0F83
:1054C000BB1F661F771F881FC2F70EC0BA0F621F6F
:1054D000731F841F48F4879577956795B795F7955F
:1054E0009E3F08F0B0CF9395880F08F09927EE0FF4
:1054F0009795879508950E94652B08F481E008959B
:105500000E94942A0C94A02B0E94992B58F00E9480
:10551000922B40F029F45F3F29F00C94892B511114
:105520000C94D42B0C948F2B0E94B12B68F39923ED
:10553000B1F3552391F3951B550BBB27AA2762178F
:105540007307840738F09F5F5F4F220F331F441F9C
:10555000AA1FA9F335D00E2E3AF0E0E832D09150D0
:105560005040E695001CCAF72BD0FE2F29D0660FBD
:10557000771F881FBB1F261737074807AB07B0E800
:1055800009F0BB0B802DBF01FF2793585F4F3AF006
:105590009E3F510578F00C94892B0C94D42B5F3FDF
:1055A000E4F3983ED4F3869577956795B795F7958C
:1055B0009F5FC9F7880F911D9695879597F9089574
:1055C000E1E0660F771F881FBB1F62177307840710
:1055D000BA0720F0621B730B840BBA0BEE1F88F71F
:1055E000E09508950E94F92A6894B1110C94D42B87
:1055F00008950E94B92B88F09F5798F0B92F9927EA
:10560000B751B0F0E1F0660F771F881F991F1AF0AD
:10561000BA95C9F714C0B13091F00E94D32BB1E014
:1056200008950C94D32B672F782F8827B85F39F013
:10563000B93FCCF3869577956795B395D9F73EF446
:1056400090958095709561957F4F8F4F9F4F0895EE
:10565000E89409C097FB3EF490958095709561950C
:105660007F4F8F4F9F4F9923A9F0F92F96E9BB27C2
:105670009395F695879577956795B795F111F8CF3E
:10568000FAF4BB0F11F460FF1BC06F5F7F4F8F4FA9
:105690009F4F16C0882311F096E911C0772321F09F
:1056A0009EE8872F762F05C0662371F096E8862F37
:1056B00070E060E02AF09A95660F771F881FDAF78E
:1056C000880F9695879597F90895990F0008550FBB
:1056D000AA0BE0E8FEEF16161706E807F907C0F078
:1056E00012161306E407F50798F0621B730B840B80
:1056F000950B39F40A2661F0232B242B252B21F45A
:1057000008950A2609F4A140A6958FEF811D811DF9
:10571000089597F99F6780E870E060E008959FEF33
:1057200080EC089500240A94161617061806090638
:10573000089500240A941216130614060506089507
:10574000092E0394000C11F4882352F0BB0F40F48F
:10575000BF2B11F460FF04C06F5F7F4F8F4F9F4FCF
:10576000089557FD9058440F551F59F05F3F71F051
:105770004795880F97FB991F61F09F3F79F08795B8
:105780000895121613061406551FF2CF4695F1DF41
:1057900008C0161617061806991FF1CF86957105D1
:1057A000610508940895E894BB2766277727CB0105
:1057B00097F908950E94652B08F48FEF089516F06D
:1057C0000C949C2C0C948F2B68940C94892B0E9425
:1057D000B92BA8F39923C1F3AEF3DF93CF931F93B3
:1057E0000F93FF92C92FDD2788232AF02197660F98
:1057F000771F881FDAF720E030E040E85FEB9FE397
:10580000883920F0803E38F021968F770E940F2A49
:10581000E8EEF0E004C00E940F2AE5E1F1E00E940A
:10582000AA2C8B01BE01EC01FB2E6F5771097595F7
:10583000771F880B990B0E942A2B28E132E741E35E
:105840005FE30E94422CAF2D9801AE01FF900F91B3
:105850001F91CF91DF910E94262A0C94A02B0E94C9
:10586000422C0C94A02B0E94922B38F00E94992B72
:1058700020F0952311F00C94892B0C948F2B11247C
:105880000C94D42B0E94B12B70F3959FC1F3950F0C
:1058900050E0551F629FF001729FBB27F00DB11DB4
:1058A000639FAA27F00DB11DAA1F649F6627B00D44
:1058B000A11D661F829F2227B00DA11D621F739F2D
:1058C000B00DA11D621F839FA00D611D221F749F3B
:1058D0003327A00D611D231F849F600D211D822F82
:1058E000762F6A2F11249F5750409AF0F1F08823A9
:1058F0004AF0EE0FFF1FBB1F661F771F881F9150D6
:105900005040A9F79E3F510580F00C94892B0C94D0
:10591000D42B5F3FE4F3983ED4F386957795679553
:10592000B795F795E7959F5FC1F7FE2B880F911DFF
:105930009695879597F908959F3F31F0915020F4FF
:10594000879577956795B795880F911D969587955B
:1059500097F90895DF93CF931F930F93FF92EF92E0
:10596000DF927B018C01689406C0DA2EEF010E9461
:10597000422CFE01E894A5912591359145915591D0
:10598000A6F3EF010E94262AFE019701A801DA94EE
:1059900069F7DF90EF90FF900F911F91CF91DF910A
:1059A000089597FB072E16F4009407D077FD09D0D1
:1059B0000E94402D07FC05D03EF4909581959F4FA5
:1059C0000895709561957F4F0895A1E21A2EAA1B44
:1059D000BB1BFD010DC0AA1FBB1FEE1FFF1FA2179F
:1059E000B307E407F50720F0A21BB30BE40BF50B9C
:1059F000661F771F881F991F1A9469F76095709525
:105A0000809590959B01AC01BD01CF010895052EB5
:105A100097FB1EF400940E941E2D57FD07D00E9494
:105A2000E52C07FC03D04EF40C941E2D50954095A8
:105A3000309521953F4F4F4F5F4F0895909580953A
:105A4000709561957F4F8F4F9F4F0895A29FB00132
:105A5000B39FC001A39F700D811D1124911DB29FA2
:105A6000700D811D1124911D08950E94262DA59F62
:105A7000900DB49F900DA49F800D911D1124089549
:105A8000AA1BBB1B51E107C0AA1FBB1FA617B70764
:105A900010F0A61BB70B881F991F5A95A9F7809580
:105AA0009095BC01CD0108950F931F93CF93DF9381
:105AB000869F8001879F100D969F100D1124C801AD
:105AC0000E94702DEC01009729F0A80160E070E0C1
:105AD0000E947F2FCE01DF91CF911F910F910895EA
