S017000044635F73756374696F6E5F70756D702E73726563E1
S11300000C94720F0C94910F0C94910F0C94910F0B
S11300100C94910F0C94910F0C94910F0C94910FDC
S11300200C94910F0C94910F0C94910F0C94910FCC
S11300300C94910F0C941B1B0C94910F0C94910F26
S11300400C94910F0C94910F0C94910F0C94910FAC
S11300500C94910F0C94910F0C94910F0C94910F9C
S11300600C94910F0C94910F0C94910F0C94910F8C
S11300700C94910F0C94B2270C94511B0C94910F77
S11300800C94910F0C94910F0C9427270C94910FBE
S11300900C94910F0C94910F0C94910F0C94910F5C
S11300A00C94910F0C94910F0C94910F0C94910F4C
S11300B00C94910F0C9436280C94910F0C94910F7E
S11300C00C94910F0C94910F0C94910F0C94910F2C
S11300D00C94910F0C94910F0C94910F0C94910F1C
S11300E00C94910F0C94910F07634236B79BD8A7D9
S11300F01A39685618AEBAAB558C1D3CB7CC576349
S1130100BD6DEDFD753EF6177231BF000000803FF6
S113011008000000BE922449123EABAAAA2ABECD12
S1130120CCCC4C3E00000080BEABAAAAAA3E000084
S11301300000BF000000803F00000000000841787C
S1130140D3BB4387D1133D190E3CC3BD4282AD2BB3
S11301503E68EC8276BED98FE1A93E4C80EFFFBEAB
S113016001C4FF7F3F000000000000000000000009
S1130170000000000000000000000000000000007B
S11301800000FE3F3FDFEFF7F306FF7FBFDFEFF72F
S1130190FB86C36186030C061BC6C36186030C067B
S11301A01BC6C36186030C061BE6C36186030C06EB
S11301B01B66FF7F86030FC7FB76FE7F86030FC790
S11301C0F336C06186030C07833EC06186030C06C8
S11301D0C31EC06186030C06631EC06186030C0641
S11301E0330EC06186030FF61B0EC06186030FF643
S11301F00B060000000000000000000000000000EA
S113020000000000000000000000000000000000EA
S113021000000000000000000000000000000000DA
S113022000000000000000000000000000000000CA
S113023000000000000000000000000000000000BA
S113024000000000000000000000000000000000AA
S1130250000000000000000000000000000000009A
S1130260000000000000000000000000000000008A
S113027000003F1F8FE7E7F9F9807FBFDFEFF7FB4F
S1130280FD8061B0D80C30C30D806030D80C00C341
S11302900D806030D80C00C30D806030D80C00C3D2
S11302A00D807F3FDF8C00C3FD803FBF9F8C00C368
S11302B0FD8001B0180C00C30D8001B0180C00C300
S11302C00D8001B0180C00C30D8061B0180C30C350
S11302D00D807FB01FEFF7FB0DFE3F300FE7E7FB0C
S11302E00DFE0000000000000000000000000000FF
S11302F000000000000000000000000000000000FA
S113030000000000000000000000000000000000E9
S113031000000000000000000000000000000000D9
S113032000000000000000000000000000000000C9
S113033000000000000000000000000000000000B9
S113034000000000000000000000000000000000A9
S11303500000003FD8303FDC30061E30061E300659
S11303601F30061B30061BB00619B00619F006181C
S1130370F00618F00618703FD8703FD8300000001F
S11303800000000000000000000000000000000069
S11303900000000000000000000000000000000059
S11303A00000000000000000000000000000000049
S11303B00000000000000000000000003F9837FB30
S11303C0FCFCC1803FD837FBFDFEE18030D830C053
S11303D06186F18030D830C06186F18030D830C079
S11303E06186F98030D830C06186D9803F9830C0AA
S11303F06186DD803F9830C06186CD8030D830C0C2
S11304006186CF8030D830C06186C78030D830C094
S11304106186C78030D830C06186C3803FDFF0C0BA
S113042061FEC3803F8FE0C060FCC180000000001B
S113043000000000000000000000000000000000B8
S113044000000000000000000000000000000000A8
S11304500000000000000000000000000000000098
S11304600000000000000000000000000000000088
S11304700000000000000000000000000000000078
S11304800000000000000000000000000000000068
S11304900000000000000000000000000000000058
S11304A00000000000007F3F9FE7E3F07FBFDFEF25
S11304B0F7F861B0D80C361861B0D80C060061B0FA
S11304C0D80C060061B0D80C06007FBFDF8FE7F0C0
S11304D07F3F9F87F7F8603C18003018603618009B
S11304E030186033180030186031980C36186030BA
S11304F0DFEFF7F860305FEFE3F00000000000008A
S11305000000000000000000000000003FFC007F2D
S1130510FE00FFFF00FFFF00F00F00F00F00F00FE0
S113052000F00F00F00F00F00F00F00F00F00F00CC
S1130530F00F00F00F00F00F00F00F00F00F00F0CC
S11305400F00F00F00F00F00FFFF00FFFF007FFE21
S1130550003FFC0003F00007F0000FF0000FF00074
S11305600FF0000FF0000FF00001F00001F00001A7
S1130570F00001F00001F00001F00001F00001F0D2
S11305800001F00001F00001F00001F00001F000B2
S11305900FFE000FFE000FFE000FFE003FFC007F69
S11305A0FE00FFFF00FFFF00F00F00F00F00000F40
S11305B000000F00000F00000F003FFF007FFF004E
S11305C0FFFE00FFFC00F00000F00000F00000F06F
S11305D00000F00000F00000FFFF00FFFF007FFFBD
S11305E0003FFF003FFC007FFE00FFFF00FFFF0015
S11305F0F00F00F00F00000F00000F00000F0000CC
S11306000F001FFF001FFF001FFF001FFF00000F50
S113061000000F00000F00000F00F00F00F00F00AB
S1130620FFFF00FFFF007FFE003FFC00007C000096
S1130630FC0000FC0001FC0003FC0003FC0007FCC0
S1130640000FFC000FBC001F3C003F3C003E3C0080
S11306507C3C00FC3C00F83C00FFFF00FFFF00FF77
S1130660FF00FFFF00003C00003C00003C00003C99
S113067000003C00FFFF00FFFF00FFFF00FFFF0042
S1130680F00000F00000F00000F00000FFFC00FFAC
S1130690FE007FFF003FFF00000F00000F00000F6F
S11306A000000F00000F00F00F00F00F00F00F002B
S11306B0FFFF00FFFF007FFE003FFC003FFC007FC8
S11306C0FE00FFFF00FFFF00F00F00F00F00F0003E
S11306D000F00000F00000F00000FFFC00FFFE004E
S11306E0FFFF00FFFF00F00F00F00F00F00F00F01D
S11306F00F00F00F00F00F00FFFF00FFFF007FFE70
S1130700003FFC00FFFF00FFFF00FFFF00FFFF00B2
S1130710F01F00F01F00F03F00003E00003E00000C
S11307207C00007C0000FC0000F80000F80001F0F0
S11307300001F00003F00003E00003E00007C00044
S113074007C0000FC0000F80000F80003FFC007F37
S1130750FE00FFFF00FFFF00F00F00F00F00F00F9E
S113076000F00F00F00F00F00F007FFE003FFC00D0
S11307703FFC007FFE00F00F00F00F00F00F00F0D0
S11307800F00F00F00F00F00FFFF00FFFF007FFEDF
S1130790003FFC003FFC007FFE00FFFF00FFFF0066
S11307A0F00F00F00F00F00F00F00F00F00F00F05A
S11307B00F00FFFF00FFFF007FFF003FFF00000F5F
S11307C000000F00000F00F00F00F00F00F00F000A
S11307D0FFFF00FFFF007FFE003FFC000000000061
S11307E000000000000000001F986C183FD86E182D
S11307F030D86F1830D86F1830D86F9830D86D98BB
S11308003FD86DD83F986CD83C186CD836186C78A3
S113081033186C7831986C3830DFEC38304FCC3882
S113082000000000000000000000000000000000C4
S113083000000000000000000000000000000000B4
S113084000000000000000000000000000000000A4
S11308500000000000000000000000000000000094
S11308600000000000007F9F9FE7E6007FBFDFEFEE
S1130870F6000C30C30C36000C30C30C36000C30C0
S1130880C30C36000C30C30C36000C30C30FF6001A
S11308900C30C30FF6000C30C30C36000C30C30C04
S11308A036000C30C30C36000C30C30C36000C3F41
S11308B0C30C37F80C1F830C37F80000000000004D
S11308C00000000000000000000000000000000024
S11308D00000000000000000000000000000000014
S11308E00000000000000000000000000000000004
S11308F000000000000000000000000000000000F4
S113090000000000000000000000000000000000E3
S11309100000000000000000000030CFCC33F1F8EC
S113092030DFEC37FBFC30D86C361B0C30D86C361F
S11309301B0030D86C361B0030D86C361B003FD8F7
S11309406C37FBF83FD86C37F1FC30D86C37800C2F
S113095030D86C36C00C30D86C36600C30D86C365D
S1130960330C30DFEFF61BFC30CFC7E609F800008C
S11309700000000000000000000000000000000073
S11309800000000000000000000000000000000063
S11309900000000000000000000000000000000053
S11309A00000000000000000000000000000000043
S11309B00000000000000000000000000000000033
S11309C00000000000000000000000000000000023
S11309D0000000003F1FCFCC37F9F9FE7FBFDFECEA
S11309E037FBFDFE61B0186C30C30D806030186CAD
S11309F030C301806030186C30C301806030186CE3
S1130A0030C301807F3F1FEC30C301F83FBF1FCECE
S1130A1070C301F801B01E0E70C3018001B01B0742
S1130A20E0C3018001B01987E0C3018061B018C33D
S1130A30C0C30D807FBFD863C7FBFDFE3F1FD82115
S1130A4087F9F9FE0000000000000000000000002B
S1130A500000000000000000000000000000000092
S1130A600000000000000000000000000000000082
S1130A700000000000000000000000000000000072
S1130A800000000000000000000000000000000062
S1130A900000000000000000000000000000000052
S1130AA00000000000000000000000000000000F33
S1130AB0F8001FFC00180C00180C001800001800A7
S1130AC0001FF0000FF800001C00000C00180C00C0
S1130AD0180C001C1C001FFC000FF800000000078D
S1130AE0FFFF80001FFFFFE0003FFFFFF0007FFFDC
S1130AF0FFF8007FFFFFF800FFFFFFFC00FFFFFF90
S1130B00FC00FFFFFFFC00FFE01FFC00FFC00FFC28
S1130B1000FF8007FC00FF8007FC00FF8007FC004B
S1130B20FF8007FC00FF8007FC00FF8007FC00FF3C
S1130B308007FC00FF8007FC00FF8007FC00FF80AB
S1130B4007FC00FF8007FC00FF8007FC00FF800714
S1130B50FC00FF8007FC00FF8007FC00FF8007FC0F
S1130B6000FF8007FC00FF8007FC00FF8007FC00FB
S1130B70FF8007FC00FF8007FC00FF8007FC00FFEC
S1130B808007FC00FF8007FC00FF8007FC00FF805B
S1130B9007FC00FF8007FC00FF8007FC00FF8007C4
S1130BA0FC00FFC00FFC00FFE01FFC00FFFFFFFC88
S1130BB000FFFFFFFC00FFFFFFFC007FFFFFF800CA
S1130BC07FFFFFF8003FFFFFF0001FFFFFE000077B
S1130BD0FFFF80000003FE00000007FE0000000F7E
S1130BE0FE0000000FFE0000001FFE0000003FFE9C
S1130BF00000007FFE000000FFFE000001FFFE0079
S1130C000003FFFE000007FFFE000007FFFE0000D8
S1130C1007FFFE000007FFFE000007FBFE000007C1
S1130C20F3FE000007E3FE000007C3FE0000078395
S1130C30FE00000703FE00000003FE00000003FEA8
S1130C4000000003FE00000003FE00000003FE009D
S1130C50000003FE00000003FE00000003FE00008D
S1130C600003FE00000003FE00000003FE0000007D
S1130C7003FE00000003FE00000003FE000000036A
S1130C80FE00000003FE00000003FE00000003FE5F
S1130C9000000003FE00000003FE00000003FE004D
S1130CA0000FFFFFFF000FFFFFFF000FFFFFFF001C
S1130CB00FFFFFFF000FFFFFFF000FFFFFFF000FFD
S1130CC0FFFFFF000FFFFFFF00000FFF8000003F4A
S1130CD0FFE000007FFFF80000FFFFFC0001FFFFC2
S1130CE0FE0003FFFFFF0007FFFFFF8007FFFFFF7A
S1130CF0C00FFC03FFC00FF801FFE01FF000FFE08E
S1130D001FF0007FE01FF0007FE01FF0007FE01F76
S1130D10F0007FE01FF0007FE0000000FFE0000033
S1130D2001FFC0000003FFC0000007FFC000000F68
S1130D30FF8000001FFF0000003FFF0000007FFE57
S1130D40000000FFFC000001FFF8000003FFF000BA
S1130D500007FFE000000FFFC000001FFF8000003D
S1130D603FFF0000007FFE000000FFFC000001FFC9
S1130D70F8000003FFF0000007FFE000000FFFC0D1
S1130D8000001FFF8000001FFF0000003FFE000066
S1130D90003FFC0000003FFFFFFFE03FFFFFFFE0DC
S1130DA03FFFFFFFE03FFFFFFFE03FFFFFFFE03FAC
S1130DB0FFFFFFE03FFFFFFFE03FFFFFFFE0003FDB
S1130DC0FFC00000FFFFF00001FFFFF80003FFFF7A
S1130DD0FE0007FFFFFF000FFFFFFF800FFFFFFF75
S1130DE0C00FF001FFC00FC000FFC00FC0007FC0E4
S1130DF00FC0007FC00F80003FC00000003FC00054
S1130E0000003FC00000003FC00000003FC00000E1
S1130E10007FC00000007FC0000000FFC00000038E
S1130E20FFC0003FFFFF80007FFFFF00007FFFFC4B
S1130E3000007FFFF000007FFFFF00007FFFFF80C6
S1130E40007FFFFFC0003FFFFFC0000003FFC000A2
S1130E500001FFC00000007FC00000007FC0000050
S1130E60003FC00000003FC00000003FC000000081
S1130E703FC00000003FC00F80003FC00FC0007F94
S1130E80C00FC0007FC00FC000FFC00FF001FFC043
S1130E900FFFFFFF800FFFFFFF0007FFFFFF0003AF
S1130EA0FFFFFE0001FFFFFC0000FFFFF000003F1A
S1130EB0FFC000000003FE00000007FE0000000F5A
S1130EC0FE0000001FFE0000003FFE0000007FFE49
S1130ED0000000FFFE000001FFFE000003FFFE0013
S1130EE00007FFFE00000FFFFE00001FFDFE0000D4
S1130EF03FF9FE00007FF1FE0000FFE1FE0001FF6C
S1130F00C1FE0003FF81FE0007FF01FE000FFE018A
S1130F10FE001FFC01FE003FF801FE007FF001FE11
S1130F2000FFE001FE00FFC001FE00FFFFFFFFE045
S1130F30FFFFFFFFE0FFFFFFFFE0FFFFFFFFE0FF1A
S1130F40FFFFFFE0FFFFFFFFE0FFFFFFFFE0000008
S1130F5001FE00000001FE00000001FE000000018F
S1130F60FE00000001FE00000001FE00000001FE82
S1130F7000000001FE00000001FE00000001FE0070
S1130F80000001FE00000001FE00000001FE000060
S1130F900001FE00000001FE00000001FE00000050
S1130FA001FE00000001FE001FFFFFFFC03FFFFF26
S1130FB0FFC03FFFFFFFC03FFFFFFFC03FFFFFFF3A
S1130FC0C03FFFFFFFC03FFFFFFFC03FFFFFFFC069
S1130FD03FFFFFFFC03FE00000003FE00000003F94
S1130FE0E00000003FE00000003FE00000003FE0C0
S1130FF00000003FE00000003FE00000003FE3FF8E
S1131000FC003FE7FFFE003FEFFFFF003FFFFFFF55
S1131010803FFFFFFFC03FFFFFFFE03FFFFFFFE018
S11310203FFFFFFFF03FFC007FF03FF0003FF83F41
S1131030E0001FF80000000FF800000007F80000AF
S11310400007F800000007F800000007F80000009F
S113105007F800000007F83FE00007F83FE000074A
S1131060F83FE0000FF83FF0001FF83FF0003FF8B2
S11310703FF8007FF83FFFFFFFF03FFFFFFFF03F27
S1131080FFFFFFE01FFFFFFFC00FFFFFFF8007FF11
S1131090FFFF0003FFFFFE0001FFFFFC0001FFFF55
S11310A0800003FFFFE0000FFFFFF8001FFFFFFCBD
S11310B0003FFFFFFE003FFFFFFF007FFFFFFF0039
S11310C07FFFFFFF00FFF003FF00FFE001FF00FFD1
S11310D0C001FF00FF8000FF00FF80007F00FF8051
S11310E0007F00FF80000000FF80000000FF800000
S11310F00000FF80000000FF80000000FF8000006F
S113110000FF9FFE0000FFBFFF8000FFFFFFE00025
S1131110FFFFFFF000FFFFFFF800FFFFFFFC00FFF1
S1131120FFFFFE00FFFFFFFE00FFFFFFFF00FFE0E9
S113113003FF00FFC001FF00FFC001FF00FF8000AC
S1131140FF00FF8000FF00FF8000FF00FF8000FF22
S113115000FF8000FF00FF8000FF00FF8001FF0010
S1131160FFC001FF00FFE003FF00FFFFFFFF00FFE0
S1131170FFFFFF00FFFFFFFF007FFFFFFE007FFF79
S1131180FFFE003FFFFFFC001FFFFFF8000FFFFF03
S1131190F0003FFFFFFF803FFFFFFF803FFFFFFFA7
S11311A0803FFFFFFF803FFFFFFF803FFFFFFF8087
S11311B03FFFFFFF803FFFFFFF803FFFFFFF8000F7
S11311C00007FF80000007FF80000007FF80000089
S11311D00FFF0000000FFF0000001FFE0000001FB3
S11311E0FE0000001FFE0000003FFC0000003FFC6A
S11311F00000007FF80000007FF80000007FF80086
S11312000000FFF0000000FFF0000001FFE000001C
S113121001FFE0000001FFE0000003FFC000000345
S1131220FFC0000007FF80000007FF80000007FFE9
S11312308000000FFF0000000FFF0000001FFE00F1
S113124000001FFE0000001FFE0000003FFC000025
S1131250003FFC0000007FF80000007FF800000061
S11312607FF8000000FFF0000000FFF0000001FF25
S1131270E0000001FFE0000001FFE0000003FFC008
S1131280000003FFC0000001FFFFC00007FFFFF0E4
S1131290000FFFFFF8001FFFFFFC003FFFFFFE00F1
S11312A07FFFFFFF007FFFFFFF007FFFFFFF00FFC7
S11312B0FFFFFF80FFE003FF80FFC001FF80FF808E
S11312C000FF80FF00007F80FF00007F80FF0000A0
S11312D07F80FF00007F80FF00007F80FF00007F91
S11312E080FF8000FF80FFC001FF80FFE003FF80DC
S11312F07FFFFFFF007FFFFFFF003FFFFFFE001F98
S1131300FFFFFC003FFFFFFE007FFFFFFF007FFFAA
S1131310FFFF00FFFFFFFF80FFE003FF80FFC0012E
S1131320FF80FF8000FF80FF00007F80FF00007FC0
S113133080FF00007F80FF00007F80FF00007F802F
S1131340FF00007F80FF8000FF80FFC001FF80FF5F
S1131350E003FF807FFFFFFF007FFFFFFF007FFFB1
S1131360FFFF003FFFFFFE001FFFFFFC000FFFFF1A
S1131370F80007FFFFF00001FFFFC00007FFFF8038
S1131380001FFFFFE0003FFFFFF0007FFFFFF800BA
S11313907FFFFFF800FFFFFFFC00FFFFFFFC00FFE3
S11313A0FFFFFC00FFE01FFC00FFC00FFC00FF80FC
S11313B007FC00FF8007FC00FF8007FC00FF80079C
S11313C0FC00FF8007FC00FF8007FC00FF8007FC97
S11313D000FFC00FFC00FFE01FFC00FFFFFFFC004C
S11313E0FFFFFFFC00FFFFFFFC007FFFFFFC007F0F
S11313F0FFFFFC003FFFFFFC001FFFFFFC0007FF97
S1131400FFFC00000007FC00000007FC00000007D0
S1131410FC00000007FC00000007FC00000007FCC3
S113142000000007FC00000007FC00FF8007FC0030
S1131430FF8007FC00FF8007FC00FF8007FC00FF23
S1131440C00FFC00FFE01FFC00FFFFFFFC00FFFFDC
S1131450FFFC00FFFFFFFC007FFFFFF8007FFFFFA2
S1131460F8003FFFFFF0001FFFFFE00007FFFF80D1
S11314700001FFFF800003FFFFE0000FFFFFF80003
S11314801FFFFFFC003FFFFFFE003FFFFFFF007F49
S1131490FFFFFF007FFFFFFF00FFF003FF00FFE0FF
S11314A001FF00FFC001FF00FF8000FF00FF80007C
S11314B07F00FF80007F00FF80000000FF800000AD
S11314C000FF80000000FF80000000FF800000009B
S11314D0FF80000000FF9FFE0000FFBFFF8000FFB1
S11314E0FFFFE000FFFFFFF000FFFFFFF800FFFF3A
S11314F0FFFC00FFFFFFFE00FFFFFFFE00FFFFFFFA
S1131500FF00FFE003FF00FFC001FF00FFC001FF79
S113151000FF8000FF00FF8000FF00FF8000FF004D
S1131520FF8000FF00FF8000FF00FF8000FF00FF3E
S11315308001FF00FFC001FF00FFE003FF00FFFF89
S1131540FFFF00FFFFFFFF00FFFFFFFF007FFFFF24
S1131550FE007FFFFFFE003FFFFFFC001FFFFFF8C0
S1131560000FFFFFF0001FFFFFFFC03FFFFFFFC0A2
S11315703FFFFFFFC03FFFFFFFC03FFFFFFFC03F34
S1131580FFFFFFC03FFFFFFFC03FFFFFFFC03FFF64
S1131590FFFFC03FE00000003FE00000003FE0002C
S11315A000003FE00000003FE00000003FE00000DA
S11315B0003FE00000003FE00000003FE3FFFC00CC
S11315C03FE7FFFE003FEFFFFF003FFFFFFF803FCD
S11315D0FFFFFFC03FFFFFFFE03FFFFFFFE03FFFD4
S11315E0FFFFF03FFC007FF03FF0003FF83FE000DA
S11315F01FF80000000FF800000007F800000007C3
S1131600F800000007F800000007F800000007F8E1
S113161000000007F83FE00007F83FE00007F83F4C
S1131620E0000FF83FF0001FF83FF0003FF83FF8EC
S1131630007FF83FFFFFFFF03FFFFFFFF03FFFFF9A
S1131640FFE01FFFFFFFC00FFFFFFF8007FFFFFF4B
S11316500003FFFFFE0001FFFFFC00000003FE008B
S1131660000007FE0000000FFE0000001FFE000047
S1131670003FFE0000007FFE000000FFFE000001AE
S1131680FFFE000003FFFE000007FFFE00000FFF47
S1131690FE00001FFDFE00003FF9FE00007FF1FE8A
S11316A00000FFE1FE0001FFC1FE0003FF81FE0018
S11316B007FF01FE000FFE01FE001FFC01FE003FBC
S11316C0F801FE007FF001FE00FFE001FE00FFC014
S11316D001FE00FFFFFFFFE0FFFFFFFFE0FFFFFF52
S11316E0FFE0FFFFFFFFE0FFFFFFFFE0FFFFFFFF63
S11316F0E0FFFFFFFFE0000001FE00000001FE002C
S1131700000001FE00000001FE00000001FE0000D8
S11317100001FE00000001FE00000001FE000000C8
S113172001FE00000001FE00000001FE00000001B7
S1131730FE00000001FE00000001FE00000001FEAA
S113174000000001FE00000001FE00000001FE0098
S1131750003FFFC00000FFFFF00001FFFFF800039F
S1131760FFFFFE0007FFFFFF000FFFFFFF800FFFDB
S1131770FFFFC00FF001FFC00FC000FFC00FC0008B
S11317807FC00FC0007FC00F80003FC00000003F3B
S1131790C00000003FC00000003FC00000003FC088
S11317A00000007FC00000007FC0000000FFC000F8
S11317B00003FFC0003FFFFF80007FFFFF00007FAA
S11317C0FFFC00007FFFF000007FFFFF00007FFFB1
S11317D0FF80007FFFFFC0003FFFFFC0000003FF4A
S11317E0C0000001FFC00000007FC00000007FC0F7
S11317F00000003FC00000003FC00000003FC000E8
S113180000003FC00000003FC00F80003FC00FC079
S1131810007FC00FC0007FC00FC000FFC00FF001E9
S1131820FFC00FFFFFFF800FFFFFFF0007FFFFFF59
S11318300003FFFFFE0001FFFFFC0000FFFFF000BC
S1131840003FFFC000000FFF8000003FFFE00000EA
S11318507FFFF80000FFFFFC0001FFFFFE0003FF15
S1131860FFFF0007FFFFFF8007FFFFFFC00FFC0320
S1131870FFC00FF801FFE01FF000FFE01FF0007F42
S1131880E01FF0007FE01FF0007FE01FF0007FE02A
S11318901FF0007FE0000000FFE0000001FFC00037
S11318A00003FFC0000007FFC000000FFF8000001E
S11318B01FFF0000003FFF0000007FFE000000FF4C
S11318C0FC000001FFF8000003FFF0000007FFE048
S11318D000000FFFC000001FFF8000003FFF00005A
S11318E0007FFE000000FFFC000001FFF800000381
S11318F0FFF0000007FFE000000FFFC000001FFF23
S11319008000001FFF0000003FFE0000003FFC00BD
S113191000003FFFFFFFE03FFFFFFFE03FFFFFFF4F
S1131920E03FFFFFFFE03FFFFFFFE03FFFFFFFE07F
S11319303FFFFFFFE03FFFFFFFE007FFFF80001FC7
S1131940FFFFE0003FFFFFF0007FFFFFF8007FFF95
S1131950FFF800FFFFFFFC00FFFFFFFC00FFFFFF9D
S1131960FC00FFE01FFC00FFC00FFC00FF8007FC31
S113197000FF8007FC00FF8007FC00FF8007FC00DD
S1131980FF8007FC00FF8007FC00FF8007FC00FFCE
S11319908007FC00FF8007FC00FF8007FC00FF803D
S11319A007FC00FF8007FC00FF8007FC00FF8007A6
S11319B0FC00FF8007FC00FF8007FC00FF8007FCA1
S11319C000FF8007FC00FF8007FC00FF8007FC008D
S11319D0FF8007FC00FF8007FC00FF8007FC00FF7E
S11319E08007FC00FF8007FC00FF8007FC00FF80ED
S11319F007FC00FF8007FC00FF8007FC00FFC00F0E
S1131A00FC00FFE01FFC00FFFFFFFC00FFFFFFFCEA
S1131A1000FFFFFFFC007FFFFFF8007FFFFFF800DF
S1131A203FFFFFF0001FFFFFE00007FFFF80000003
S1131A30000000000000000000000000000006009C
S1131A400000000F800000000FC000000017F0002D
S1131A5000000BFC00000005F90000003AF38000D0
S1131A60003D7FBC00003EBF3800001F5E780000D0
S1131A700FAFFC000007C7FE000003E3FF100007E0
S1131A80F1FFF0000FFAFFE0000FFD7FC0000F3EF2
S1131A90BF80000F1E5F00000F0E2E00003FFFFFEF
S1131AA0F0003FFFFFF00000000000000180000094
S1131AB00003E000000003F000000005FC0000004B
S1131AC002FF000000017E4000000EBCE000000F99
S1131AD05FEF00000FAFCE000007D79E000003EBBE
S1131AE0FF000001F1FF800000F8FFC40001FC7F4B
S1131AF0FC0003FEBFF80007FF5FF0000FCFAFE06C
S1131B00000F8797C0000F038B80000F00050000B3
S1131B100F000200003FFFFFF0003FFFFFF0000056
S1131B206000000000F800000000FC000000017FDD
S1131B3000000000BFC00000005F900000002F38CC
S1131B4000000E17FBC0000F0BF380000F85E78029
S1131B500007C2FFC00003E07FE00001F03FF10096
S1131B6000F81FFF0001FC2FFE0003FE17FC000716
S1131B70FF0BF8000FCF85F0000F8782E0000F0302
S1131B808140000F000080000F000000003FFFFFB5
S1131B90F0003FFFFFF000C000000000C0000000A4
S1131BA000C000000000C000000000C7E39C00006B
S1131BB0CFE7FE0000CC66660000CC66660000CF6E
S1131BC0E6660000CFE6660000CC06660000CC06A0
S1131BD06600000C000000000C000000000C000077
S1131BE00000000000000000000000000000F00001
S1131BF0000000E000000001C000000001800000BF
S1131C000003FC00000007F8000000007000000062
S1131C10006000000000C0000000018000001C0300
S1131C200000003E00000000633FF00F00637FF8F7
S1131C301F8063C01831806380186180630038C3DB
S1131C4000631FFF8600631FFF0C00630000180081
S1131C50630000300063FFFFE00063FFFFC0003E4D
S1131C60000000001C000000007E7E7E7E00001844
S1131C7019FC000000001C39FE000000001E7986DB
S1131C80000000001E7986000000001BD9863D80FC
S1131C9000001999867F8000001999FE6380000076
S1131CA01819FC618000001819806180000018195F
S1131CB08061800000181980638000001819807FFB
S1131CC08000001819803D80000000000000000022
S1131CD0000000030C0000003E1CE30C7C3E007F6F
S1131CE03FF30CFE7F00C333330CC66300C03333B1
S1131CF00C066300C03333FC0E6300C03333FC1C9A
S1131D006300C033330C386300C033330C7063009A
S1131D10C333330CE063007F33330CFE7F003E3368
S1131D20330CFE3E0000000000000000000000C66E
S1131D300000738738C60300FFCFFCC63F00CCCC3D
S1131D40CCFE7F00CCCCCCFE6300CCCCCCC66300F4
S1131D50CCCCCCC67F00CCCCCCC63F00CCCCCCC643
S1131D600300000000000300000000006300000006
S1131D7000007F00000000003E0071C92F78398800
S1131D808A29284845888A29284845488A292F4885
S1131D904548F2292878452882292860452882293F
S1131DA02850451881C6CF4839183F8000781E0056
S1131DB0007FC000781E0000FFE000781E0000FFD6
S1131DC0E000381C0000E0E0003C3C0000E0E000E3
S1131DD03C3C0000E0E0003C3C0000E0E0003C3C17
S1131DE00000E0E0001E787F00E0E1FE1E78FF8046
S1131DF0FFE3FF1E78FF80FFE3FF1E78E380FFE32D
S1131E00FF0E70E380FFE3870FF0E380E0E3870FCA
S1131E10F0E380E0E3870FF0E380E0E3FF07E0FF17
S1131E20E0E0E3FE07E0FFE0E0E1C007E07EE00081
S1131E3001C0000000000001FF000000000003FFDB
S1131E40800000000003FF80000000000383800086
S1131E500000000383800000000003838000000072
S1131E600003FF800000000003FF80000000000169
S1131E70FF0000000000000000000000001E000041
S1131E80003F0000003F00000073800000618000FC
S1131E9000E1C00000C0C00001C0E000018060009B
S1131EA0039C7000033E3000077F380006071800CB
S1131EB00E071C000C7F8C001C3FCE00181FE60090
S1131EC03801F7003000F30070007B806000398037
S1131ED0E00019C0C00000C0C00000C0FFFFFFC088
S1131EE07FFFFF8011241FBECFEFCDBFDFE7DEBF32
S1131EF012E4A0E0B0E4EEE3F2E600E00BBF02C0BF
S1131F0007900D92A83AB107D9F723E4A8EAB2E4FE
S1131F1001C01D92A935B207E1F70E94312A0C9441
S1131F201D310C9400006150710920E030E00EC0B6
S1131F30DC01A20FB31F4C91FC01E60FF71F508187
S1131F405C9340832F5F3F4F615071092617370719
S1131F507CF30895CF92DF92EF92FF920F931F9339
S1131F60CF93DF938A016901C0E0D0E011C078010A
S1131F70EC0EFD1E2AE030E040E050E00E94842E8A
S1131F80605DF7016083622F732F842F952F219654
S1131F90611571058105910551F706C0F801EC0F33
S1131FA0FD1F80E380832196CC15DD05BCF3BE01C3
S1131FB0C8010E94930FF801EC0FFD1F1082CE019F
S1131FC0DF91CF911F910F91FF90EF90DF90CF9011
S1131FD008958F929F92AF92BF92CF92DF92EF9229
S1131FE0FF920F931F93CF93DF936B017C018A01C0
S1131FF0E9010E946F2B4B015C01072E000C880B3A
S1132000990B0E94A72B9B01AC01C701B6010E944A
S11320108B2A6B017C01B401992024F4662777276D
S113202068197909072E000C880B990B20E030E021
S1132030A8010E94AA0F5C01209781F1F801E80F22
S1132040F91F8EE28083BE010D2E000C880B990BC4
S11320500E94A72B9B01AC0160E070E080E291E458
S11320600E94C92C9B01AC01C701B6010E945C2CE3
S11320702FEFA21AB20A0E946F2B9B01772324F43C
S113208022273327261B370BA8014A0D5B1DB901F4
S1132090330F880B990B9E010E94AA0FDF91CF91F9
S11320A01F910F91FF90EF90DF90CF90BF90AF9072
S11320B09F908F900895E0E4F4E020812D7F2083A9
S11320C0208121602083BC0180E090E00E94A52B48
S11320D020E030E040E851E40E945C2C9B01AC011C
S11320E060E07BE187EB9EE40E94FD2A20E030E083
S11320F040E05FE30E948C2A0E94762BE0E2F8E045
S1132100608771878681806C868308959091240806
S113211095FFFCCF8093220808950F931F93CF93CC
S1132120DF938C01C0E0D0E007C0F801EC0FFD1F85
S113213080810E9486102196F80101900020E9F721
S11321403197E01BF10BCE17DF0778F38AE00E948A
S11321508610DF91CF911F910F9108950F931F93D4
S1132160CF93DF938C01C0E0D0E007C0F801EC0FFF
S1132170FD1F80810E9486102196F80101900020A5
S1132180E9F73197E01BF10BCE17DF0778F3DF9106
S1132190CF911F910F91089520E030E042E253E483
S11321A00E94AA0F82E293E40E948D1008959A017E
S11321B042E253E40E94E90F82E293E40E948D100C
S11321C00895E0E0F4E0808180688083A4E0B4E0D6
S11321D08C9180688C93808180618083808180640D
S11321E08083E0E4F9E08081806380838081816082
S11321F080838C9180688C930895809344098091A6
S113220043098823E4F70895DC0120E030E00CC0A2
S1132210FD01E20FF31F90819093440990914309CB
S11322209923E4F72F5F3F4F462F50E024173507DB
S11322307CF30895E0E0F9E080818F7E80838081E3
S1132240837F808380818D7F80830895E0E0F9E03F
S113225087E6868381E0858383818A6083838381A3
S1132260816083830895CF93DF93C82FD62F809105
S113227005098370833089F482E590E40E948D100F
S113228020E63AEE01C09C018091050983708330F9
S113229021F4C9010197232BB1F785E08093050947
S11322A0DD2341F08C2F90E0880F991F816080938B
S11322B0070904C08C2F880F8093070980E69AEEE3
S11322C02091050924FF06C02091050926FD02C0BE
S11322D00197B1F7892B21F48CE590E40E948D10CD
S11322E08091050982FF04C084E690E40E948D1069
S11322F0DF91CF91089585E88093A000E0E0F6E0B7
S113230081E082838083089581E080930A060895A2
S113231080932043809308060E94841180910D06C7
S113232080FFFCCF8091100690911106089580E8FB
S113233095E20E945B100E941A110E94261161E02E
S113234088E70E9433110895CF92DF92EF92FF92B3
S1132350CF93DF938DE00E9488116C01E12CF12C66
S1132360C0E0D0E00CC08DE00E948811C80ED91ED8
S1132370E11CF11CF694E794D794C7942196C233D8
S1132380D1058CF3C701B6010E94A52B23E333E3E7
S113239043E550E40E945C2C20E030E040E859E33F
S11323A00E945C2C2CE436EA4AE25FE30E94FD2A98
S11323B06B017C0143E050E00E94D71020E030E044
S11323C040E05FE3C701B6010E948B2A29E838E8A0
S11323D048E85EE30E94FD2A20E030E0A9010E9463
S11323E08C2ADF91CF91FF90EF90DF90CF900895EA
S11323F00E94A4110895CF92DF92EF92FF921F934F
S1132400CF93DF93182F0E94F8116B017C01C0E079
S1132410D0E011C00E94F8119B01AC01C701B601C4
S11324200E948C2A20E030E040E05FE30E945C2CB4
S11324306B017C012196812F90E00197C817D90781
S11324404CF32FE03CED4EE452E4C701B6010E9488
S11324505C2CDF91CF911F91FF90EF90DF90CF9094
S11324600895E0E0F4E0808180688083E0E2F4E0B5
S1132470808180618083E0E4F4E0808180628083F5
S11324800895CF93DF93E0E2F4E024812061248374
S1132490C0E0D4E02C812F772C830E9404118C811E
S11324A080688C83DF91CF910895CF93DF93E0E22E
S11324B0F4E0948190619483C0E0D4E09C819F77A0
S11324C09C830E94FD108C818F778C83DF91CF9148
S11324D008950F931F93CF93DF93C0E2D4E09C81C0
S11324E09F7E9C8300E014E0F80194819F7794839D
S11324F00E94FD10F8018481806884838C8180614E
S11325008C83DF91CF911F910F9108950F931F93A7
S1132510CF93DF93C0E2D4E09C819F7E9C8300E054
S113252014E0F80194819F7794830E94FD10F801D0
S11325308481806884838C8180618C83DF91CF91D6
S11325401F910F910895CF93982F9F70C82FC29514
S1132550CF70C067892F80660E9486128C2F0E94DC
S11325608612CF910895CF93C82FC295CF70C061C2
S11325708F700E9486128C2F0E948612CF9108952C
S11325800F931F93CF93DF93062F122FD8E1D80F09
S1132590C8E1C40F8D2F0E94B312802F0E94A31292
S11325A084EF0E9469128D2F0E94861286EF0E948A
S11325B069128C2F0E94861287EF0E946912812F64
S11325C00E94861288EF0E946912DF91CF911F91B9
S11325D00F910895CF93DF932FE94FE460E080E0FB
S11325E00E94C012C0E0D0E004C080E00E945512F6
S11325F02196C11584E6D807C4F3DF91CF910895DD
S1132600E0E0F4E084818F778483E0E2F4E0848185
S113261080618483E0E4F4E084818F7D84832FEF00
S113262088EF95E1215080409040E1F700C0000020
S11326308481806284832FEF8EE994E2215080406C
S11326409040E1F700C0000088EB0E94691280E12D
S11326500E94861282EE0E9469122FEF85EA9EE0A4
S1132660215080409040E1F700C000008BEE0E94B2
S1132670691281E80E9469128BE40E9469128BE25C
S11326800E94691284EC0E94691289E80E9469120E
S113269084E20E94691282EA0E94691281EF0E9418
S11326A069128FE90E94861284E80E94691282EFFF
S11326B00E94691280E00E94861283EF0E946912D0
S11326C082E30E94861280E40E94691280E50E94DF
S11326D0691281ED0E94691286ED0E94691288ECEC
S11326E00E94691285E00E94691288ED0E946912B5
S11326F00E94EA128DEA0E94691208952F923F9275
S11327004F925F926F927F928F929F92AF92BF92FD
S1132710CF92DF92EF92FF920F931F93CF93DF93A9
S1132720CDB7DEB76197CDBFDEBF8F836C871A014B
S11327302B87902E2DB73EB72E873F878BEA089FB5
S1132740812D112486958A8790E0DC01AA0FBB1F96
S1132750AD83BE836D01BB0FEE08FF0800E010E0FF
S1132760412C512C320109831A839D86460157015D
S113277089C0EDB7FEB7E887F9872DB73EB78D81DD
S11327809E81281B390B2DBF3EBFADB7BEB7119636
S1132790AB83BC83AD0180E090E005C0FA01E80F93
S11327A0F91F108201968C01092E000C220B330BA9
S11327B0081519052A053B058CF360E070E030E04C
S11327C020E0ED843DC0F101E40DF51DF490BFEF70
S11327D04B1A5B0A6B0A7B0A87E090E02DC0EF2D51
S11327E0F0E0082E02C0F595E7950A94E2F7E0FFC1
S11327F01DC0E32FF0E0E88BF98B8F01040F151F48
S1132800D801CC90A22FB0E0AA0FBB1FA95EBF4B8A
S1132810DC90DC28F801D082E889F9893196E40F4C
S1132820F51F10811196AC91A12BA0832F5F23304B
S113283010F03E5F20E0019799238CF66F5F7F4F85
S11328408E2D86958695869590E0681779070CF409
S1132850BACF6C85F9816F0F262F4A853F81430FCC
S1132860832F0E94C0126D817E818B819C810E9486
S11328704112888599858DBF9EBFA981BA81119621
S1132880A983BA83BB858B2F90E0E981FA81E8178D
S1132890F9070CF46ECF2E853F852DBF3EBF6196A0
S11328A0CDBFDEBFDF91CF911F910F91FF90EF90CD
S11328B0DF90CF90BF90AF909F908F907F906F905C
S11328C05F904F903F902F9008952F923F924F9298
S11328D05F926F927F928F929F92AF92BF92CF92AC
S11328E0DF92EF92FF920F931F93CF93DF93CDB7B5
S11328F0DEB76297CDBFDEBFA82E688B4A01322EA9
S11329002DB73EB7298B3A8B202E269426942694F5
S1132910222D30E0A32DB0E00E94A32E9B01AC0138
S1132920AE2DB0E00E94B22E2B013C018BEA089F31
S1132930012D112406950D87802F90E0DC01AA0F4C
S1132940BB1FAE87BF87CD01092E000CAA0BBB0BA2
S11329508F839887A987BA8700E010E08FC0ADB74E
S1132960BEB7AB87BC87EDB7FEB72F813885E21BB6
S1132970F30BEDBFFEBF8DB79EB701968D839E838B
S1132980AC0180E090E049825A826B827C82322DD5
S1132990232D2F80388449845A8405C0FA01E80F16
S11329A0F91F108201966C01092E000CEE08FF0835
S11329B0C214D304E404F50488F349805A806B807C
S11329C07C80232E322E60E070E030E020E03CC0BA
S11329D0F401E40DF51DD4909FEF491A590A690AD0
S11329E0790A87E090E02CC0ED2DF0E0082E02C0BB
S11329F0F595E7950A94E2F7E0FF1CC0A32FB0E039
S1132A00A983BA837D01E40EF51EF701B080A22FDD
S1132A10B0E0AA0FBB1FA95EBF4BCC90CB28C082ED
S1132A20E981FA813196E40FF51FF0801196AC919B
S1132A30AF29A0832F5F233010F03E5F20E0019781
S1132A40992394F66F5F7F4F822D90E06817790782
S1132A500CF4BECF6889600F262F4D854A0D8A2D50
S1132A600E94C0126E857F858D819E810E944112D5
S1132A702B853C852DBF3EBF0F5F1F4F832D90E0FC
S1132A80081719070CF46BCF89899A898DBF9EBFEB
S1132A906296CDBFDEBFDF91CF911F910F91FF9062
S1132AA0EF90DF90CF90BF90AF909F908F907F90EA
S1132AB06F905F904F903F902F900895FF920F93E7
S1132AC01F93CF93DF93F62EC22F002381F0D42FD0
S1132AD0D81B0E94C012C0E007C08FEF0E9455129D
S1132AE08FEF0E945512CF5FCD17B8F313C00E9429
S1132AF0C0120C2F10E00F191109C0E0D0E007C07C
S1132B008FEF0E94551280E00E9455122196C01743
S1132B10D107B0F3DF91CF911F910F91FF900895EA
S1132B20FF920F931F93CF93DF93F62EC22F0023B0
S1132B3081F0D42FD81B0E94C012C0E007C08FEFD1
S1132B400E9455128FEF0E945512CF5FCD17B8F334
S1132B5013C00E94C0120C2F10E00F191109C0E01D
S1132B60D0E007C088EF0E94551280E00E94551201
S1132B702196C017D107B0F3DF91CF911F910F9128
S1132B80FF900895DF92EF92FF920F931F93CF93DC
S1132B90DF93F82ED62EE42E022F061B842F90E00E
S1132BA08F19910963E070E00E944E2ED62F10E039
S1132BB013C0612F6D0D262F4E2D8F2D0E94C01234
S1132BC0C0E007C08FEF0E9455128FEF0E9455128C
S1132BD0CF5FCD17B8F31F5F101758F3DF91CF9174
S1132BE01F910F91FF90EF90DF900895DF92EF9285
S1132BF0FF920F931F93CF93DF93F82ED62EE42EDC
S1132C00022F061BD42FD81B10E013C0612F6D0DAB
S1132C10262F4E2D8F2D0E94C012C0E007C080E0E9
S1132C200E94551280E00E945512CF5FCD17B8F371
S1132C301F5F101758F3DF91CF911F910F91FF90F1
S1132C40EF90DF900895A0EAB4E08C91877F8C9395
S1132C5056968C915697816056968C935697E0E8D9
S1132C60F4E080818D7F808381898260818B808183
S1132C708B7F808382898260828B8C918B7F8C9303
S1132C8052968C915297826052968C9380818E7F5B
S1132C90808380898260808BE0E4F4E080818460BA
S1132CA08083E0E2F4E080818062808308958091F3
S1132CB0E3428823B9F081E08093D74280911640A3
S1132CC08F5F80931640843018F081E08093164023
S1132CD0809116408150833018F081E08093164033
S1132CE01092E3420895882369F1E0E8F4E08481D6
S1132CF088608483E0E0FAE0808181608083809151
S1132D00AF429091B04280A791A781E08093B542F1
S1132D108091FC429091FD42A091FE42B091FF420D
S1132D208093E5429093E642A093E742B093E84251
S1132D308091C4428823C1F081E0809314401092B2
S1132D40C3420895811110C0E0E8F4E08481877FD4
S1132D508483E0E0FAE080818160808310A611A67C
S1132D601092B5421092E14208958091E042882386
S1132D70C9F18FEA90E40E948D108091E1428111A3
S1132D800AC08091AF429091B0428093280A9093F8
S1132D90290A892B01F51092E1421092C742109240
S1132DA0CB421092CA421092BB421092BC42109283
S1132DB0BD421092BE421092C6421092C542109279
S1132DC0BF421092C0421092C1421092C24280E0AF
S1132DD00E94731605C081E08093E1420E9473163D
S1132DE01092E0420895CF92DF92EF92FF920E94F8
S1132DF0FB116B017C01609318437093194380931A
S1132E001A4390931B4320E030E0A9010E94F82A62
S1132E1088234CF4109218431092194310921A43C9
S1132E2010921B4316C020E030E048E454E4C7018C
S1132E30B6010E94572C181664F480E090E0A8E4D0
S1132E40B4E48093184390931943A0931A43B09326
S1132E501B4380911640823049F1833009F478C0D5
S1132E60813009F0AAC080E090E0AAE7B5E480933D
S1132E70044390930543A0930643B093074320E093
S1132E8030E048EC52E4609118437091194380910A
S1132E901A4390911B430E945C2C609308437093E7
S1132EA0094380930A4390930B43ACC06091184349
S1132EB07091194380911A4390911B4329E134E0A6
S1132EC04EEA5FE30E945C2C6093144370931543B5
S1132ED080931643909317430F2EC12CF0E8DF2EF6
S1132EE0FBE3EF2EF5E4FF2EF02DC0920443D092C5
S1132EF00543E0920643F092074324E333EF47E8A7
S1132F0054E40E94572C181664F484E393EFA7E862
S1132F10B4E48093144390931543A0931643B09361
S1132F20174320E030E048EC52E460911443709180
S1132F30154380911643909117430E945C2C609333
S1132F4008437093094380930A4390930B435AC0F8
S1132F50609118437091194380911A4390911B43D7
S1132F6026E73EE64AE55CE30E945C2C609310434E
S1132F707093114380931243909313430F2EC12CEB
S1132F80D12CF8E4EF2EF3E4FF2EF02DC09204438D
S1132F90D0920543E0920643F092074320E030E0EC
S1132FA048EC52E40E945C2C6093084370930943FC
S1132FB080930A4390930B4325C081E0809316408D
S1132FC080E090E0AAE7B5E480930443909305433E
S1132FD0A0930643B093074320E030E048EC52E46A
S1132FE0609118437091194380911A4390911B4347
S1132FF00E945C2C609308437093094380930A43B6
S113300090930B43FF90EF90DF90CF9008958091C1
S1133010480483FF03C081E08093CC420895E0E438
S1133020F4E08481806184832FEF8EE994E221505F
S113303080409040E1F700C0000084818F7E84834B
S11330402FEF8EE994E2215080409040E1F700C0D8
S113305000000E9497110895E0E4F4E080818F77E6
S1133060808387898160878B8081877F8083838940
S11330708160838B08950E942C188091480483FFFB
S113308004C081E08093CC4208951092CC4208950C
S11330908091C9428823B1F08091480483FF09C01C
S11330A081E08093CC42E0E2F4E084818160848317
S11330B007C01092CC42E0E2F4E084818E7F8483E6
S11330C01092C9428091CC42882329F0E0E2F4E0D6
S11330D094819160948308950F931F938091CB42C0
S11330E0882309F440C09091C74291113CC090914B
S11330F0C842911138C09091CA429923A1F190918C
S1133100C642923080F14091FC425091FD42609160
S1133110FE427091FF420091BB421091BC4220914B
S1133120BD423091BE42401B510B620B730B483EB3
S1133130534061057105B8F481E00E94731681E083
S11331408093C7421092CB421092CA421092BB4263
S11331501092BC421092BD421092BE421092C642DE
S11331608093E142C2C0882369F19091CA429923B5
S113317049F19091C742992329F180E00E94731686
S11331801092C7421092CB421092CA421092BB4294
S11331901092BC421092BD421092BE421092C6429E
S11331A01092E1428091C542882309F49EC0109296
S11331B0C5421092BF421092C0421092C142109276
S11331C0C24293C08823A1F19091C742911130C0AB
S11331D09091C84291112CC09091C642911128C07F
S11331E09091CA42911124C04091FC425091FD42F9
S11331F06091FE427091FF420091BB421091BC422B
S11332002091BD423091BE42401B510B620B730BA7
S1133210493E53406105710558F081E00E947316E0
S113322081E08093C8421092C3428093E1425DC022
S11332309091CA42992301F12091C8422223E1F0DE
S11332402091C6422223C1F08823B1F080E00E947D
S113325073161092C8421092CA421092CB42109236
S1133260C6421092BB421092BC421092BD421092D0
S1133270BE421092E14239C0811106C0911104C0CE
S11332808091C642882389F18091C74281112DC063
S11332908091C842811129C08091FC429091FD42E5
S11332A0A091FE42B091FF424091BB425091BC427A
S11332B06091BD427091BE42841B950BA60BB70B67
S11332C0893E9340A105B10580F01092C742109247
S11332D0BB421092BC421092BD421092BE42109268
S11332E0CB421092CA421092C6421F910F91089588
S11332F04F925F926F927F928F929F92AF92BF9202
S1133300CF92DF92EF92FF928091C442882309F416
S1133310D8C08091C742811104C08091E1428823C2
S1133320D1F08091C542811116C081E08093C542DD
S11333308091FC429091FD42A091FE42B091FF42E7
S11333408093BF429093C042A093C142B093C242C3
S11333501092C342B6C08091C5428823E1F14091E6
S1133360FC425091FD426091FE427091FF42C09038
S1133370BF42D090C042E090C142F090C2424C198A
S11333805D096E097F09413457476B41710518F196
S113339080E00E9473161092C5421092BF421092B0
S11333A0C0421092C1421092C2421092C74210927F
S11333B0BB421092BC421092BD421092BE42109287
S11333C0CB421092CA421092C64281E08093C3421B
S11333D01092E14276C0882309F473C0C090FC4285
S11333E0D090FD42E090FE42F090FF424090BF42F8
S11333F05090C0426090C1427090C242D701C60151
S113340084199509A609B70980349747AB41B105DA
S113341008F057C08090084390900943A0900A4355
S1133420B0900B43A501940160910C4370910D433E
S113343080910E4390910F430E948B2A0E946F2B20
S11334409B01772324F422273327261B370BB9014A
S1133450330F880B990B0E94A72B209104433091C2
S1133460054340910643509107430E94572C181678
S11334706CF4C414D504E604F70441F0C092BF42CE
S1133480D092C042E092C142F092C2428091004385
S113349090910143A0910243B0910343C81AD90A01
S11334A0EA0AFB0A89EEC81683E0D806E104F104AF
S11334B040F080920C4390920D43A0920E43B09240
S11334C00F43FF90EF90DF90CF90BF90AF909F900D
S11334D08F907F906F905F904F9008958091CB4232
S11334E0882359F081E00E9473161092CB42109207
S11334F0C34281E08093E14208958091CA428823C7
S113350039F080E00E9473161092CA421092E14290
S113351008950E944818882359F08091E442882332
S113352019F00E946C180895811102C00E946E1A4D
S113353008950E947B110895CF93C0E018C082E0E3
S11335400E9488114091D8425091D9426091DA4248
S11335507091DB42480F591F611D711D4093D84281
S11335605093D9426093DA427093DB42CF5FC43107
S113357030F32C2F30E040E050E06091D84270915D
S1133580D9428091DA429091DB420E94622E2093CC
S1133590D8423093D9424093DA425093DB42CA0175
S11335A0B9010E94A52B23E333E343E550E40E94D1
S11335B05C2C20E036EF4FE157E40E94FD2A609333
S11335C0DC427093DD428093DE429093DF4260E000
S11335D070E0CB01CF9108958FEB9DE580931C0B98
S11335E090931D0BE1E1FBE080818083E5E1FBE04A
S11335F0808181608083E0E1FBE080818160808361
S113360008958FEB9DE580932C0B90932D0BE1E2B5
S1133610FBE080818083E5E2FBE080818160808340
S1133620E0E2FBE080818160808308950E94EC1ACF
S11336300E94011B08951F920F920FB60F9211243E
S11336400BB60F928F939F93AF93BF93EF93FF9318
S11336508091160B80FF18C08091FC429091FD422E
S1133660A091FE42B091FF420196A11DB11D80932D
S1133670FC429093FD42A093FE42B093FF42E6E1E8
S1133680FBE0808181608083FF91EF91BF91AF91D6
S11336909F918F910F900BBE0F900FBE0F901F90B4
S11336A018951F920F920FB60F9211240BB60F921A
S11336B00F931F932F933F934F935F936F937F9336
S11336C08F939F93AF93BF93EF93FF934091F842EF
S11336D05091F9426091FA427091FB424F5F5F4F03
S11336E06F4F7F4F4093F8425093F9426093FA42F0
S11336F07093FB428091F4429091F542A091F6427E
S1133700B091F7420196A11DB11D8093F4429093AC
S1133710F542A093F642B093F7420091F042109123
S1133720F1422091F2423091F3420F5F1F4F2F4F2D
S11337303F4F0093F0421093F1422093F2423093B2
S1133740F342493E53406105710558F021E020934E
S1133750EB421092F8421092F9421092FA421092FF
S1133760FB42893C9105A105B10558F081E08093A5
S1133770EA421092F4421092F5421092F6421092EC
S1133780F742E6E2FBE0808181608083FF91EF9164
S1133790BF91AF919F918F917F916F915F914F9165
S11337A03F912F911F910F910F900BBE0F900FBE61
S11337B00F901F9018951092E3421092C4421092F9
S11337C0E0421092E4421092E24208951092AA421A
S11337D01092AB421092AC421092AD421092AE42A3
S11337E008950F938091E242882309F4E7C1809100
S11337F008408F5F80930840863018F081E0809302
S1133800084080910840833009F4B6C030F4813018
S113381059F0823009F45CC0ABC1843009F400C1B2
S1133820853009F451C1A4C18091E142811104C0E1
S11338308091B542882359F0E0E0FAE0808181600C
S11338408083809111409091124080A791A78EEAC5
S113385090E18093D3429093D4428091114090910F
S113386012408093AF429093B042809113408111F3
S113387013C08091B9429091BA428093AF42909321
S1133880B042E0E0FAE08081816080838091B942B7
S11338909091BA4280A791A70E94E61B81E0809391
S11338A0AE4208E221E345E458E168E285E30E9480
S11338B07E1321E34AE359E168E282E40E947E1325
S11338C02FE047E95BE16FE582E40E947E1373C158
S11338D08091E142811104C08091B542882359F05E
S11338E0E0E0FAE080818160808380910F409091D4
S11338F0104080A791A78CEC90E18093D3429093E1
S1133900D44280910F40909110408093AF429093A5
S1133910B04280911340811113C08091B9429091BB
S1133920BA428093AF429093B042E0E0FAE08081E3
S1133930816080838091B9429091BA4280A791A717
S11339400E94E61B81E08093AD4208E221E340E55A
S113395057E168E285E30E947E1321E34AE359E1DB
S113396068E282E40E947E132FE047E95BE16FE5A1
S113397082E40E947E131FC18091E142811104C040
S11339808091B542882359F0E0E0FAE080818160BB
S1133990808380910D4090910E4080A791A78CEC7C
S11339A090E18093D3429093D44280910D409091C2
S11339B00E408093AF429093B042809113408111A6
S11339C013C08091B9429091BA428093AF429093D0
S11339D0B042E0E0FAE08081816080838091B94266
S11339E09091BA4280A791A70E94E61B81E0809340
S11339F0AC4208E221E34BE556E168E285E30E942C
S1133A007E1321E34AE359E168E282E40E947E13D3
S1133A102FE047E95BE16FE582E40E947E13CBC0AF
S1133A208091E142811104C08091B542882359F00C
S1133A30E0E0FAE080818160808380910B40909186
S1133A400C4080A791A783E091E18093D3429093A7
S1133A50D44280910B4090910C408093AF4290935C
S1133A60B04280911340811113C08091B94290916A
S1133A70BA428093AF429093B042E0E0FAE0808192
S1133A80816080838091B9429091BA4280A791A7C6
S1133A900E94E61B81E08093AB4208E221E346E604
S1133AA055E168E285E30E947E1321E34AE359E18C
S1133AB068E282E40E947E132FE047E95BE16FE550
S1133AC082E40E947E1377C08091E142811104C098
S1133AD08091B542882359F0E0E0FAE0808181606A
S1133AE080838091094090910A4080A791A786E243
S1133AF091E18093D3429093D44280910940909174
S1133B000A408093AF429093B04280911340811158
S1133B1013C08091B9429091BA428093AF4290937E
S1133B20B042E0E0FAE08081816080838091B94214
S1133B309091BA4280A791A70E94E61B81E08093EE
S1133B40AA4208E221E341E754E168E285E30E94E6
S1133B507E1321E34AE359E168E282E40E947E1382
S1133B602FE047E95BE16FE582E40E947E1323C006
S1133B7080911140909112408093AF429093B04253
S1133B800E94E61B81E08093AE4208E221E345E413
S1133B9058E168E285E30E947E1321E34AE359E198
S1133BA068E282E40E947E132FE047E95BE16FE55F
S1133BB082E40E947E131092E242FDC0882309F43D
S1133BC0FAC08091E14281110DC08091B54281110A
S1133BD009C08091C442811105C08091E4428823C8
S1133BE009F4E9C0809108408F5F809308408630D3
S1133BF018F081E08093084080910840833009F4F4
S1133C0051C028F4813051F0823051F1B1C0843078
S1133C1009F46AC0853009F489C0AAC0E0E0FAE07A
S1133C20808181608083809111409091124080A7AF
S1133C3091A708E221E345E458E168E285E30E94A4
S1133C407E1321E34AE359E168E282E40E947E1391
S1133C502FE047E95BE16FE582E40E947E13A9C08F
S1133C60E0E0FAE080818160808380910F40909150
S1133C70104080A791A708E221E340E557E168E2FC
S1133C8085E30E947E1321E34AE359E168E282E47A
S1133C900E947E132FE047E95BE16FE582E40E9416
S1133CA07E1387C0E0E0FAE08081816080838091A8
S1133CB00D4090910E4080A791A708E221E34BE5C7
S1133CC056E168E285E30E947E1321E34AE359E169
S1133CD068E282E40E947E132FE047E95BE16FE52E
S1133CE082E40E947E1365C0E0E0FAE08081816096
S1133CF0808380910B4090910C4080A791A708E2AB
S1133D0021E346E655E168E285E30E947E1321E360
S1133D104AE359E168E282E40E947E132FE047E916
S1133D205BE16FE582E40E947E1343C0E0E0FAE0C9
S1133D308081816080838091094090910A4080A7AE
S1133D4091A708E221E341E754E168E285E30E9498
S1133D507E1321E34AE359E168E282E40E947E1380
S1133D602FE047E95BE16FE582E40E947E1321C006
S1133D7080911140909112408093AF429093B04251
S1133D8081E08093AE4208E221E340E557E16AE234
S1133D9085E30E947E1321E34AE359E168E282E469
S1133DA00E947E132FE047E95BE16FE582E40E9405
S1133DB07E131092E2420F9108950E9457160E94BA
S1133DC0B5160E94F11B089581E08093D24280933E
S1133DD0D14208950E94E41E80911C43882321F05F
S1133DE080911D43811104C00E9431120E9400136E
S1133DF008958091154090911640891749F081E00B
S1133E008093D2428093D0428093D14290931540C4
S1133E109091CF428091C442981729F08093CF4269
S1133E2081E0809314408091EB42882381F081E00B
S1133E308093D2428091E442811104C08091CD42AA
S1133E40811103C081E08093CE421092EB428091B5
S1133E50EA42882329F081E08093D0421092EA421A
S1133E6008950F932AE044E060E080E00E94F61594
S1133E7008E32EE14AEA5DE162E38EE10E947E13EB
S1133E8000E328E04AE75DE164E68FE10E947E13E7
S1133E900F9108950F932EE146E060E080E00E94C8
S1133EA0C21501E02EE14FE46EE180E00E9490151E
S1133EB02DE14FE46DE180E00E94901500E022E7DF
S1133EC043E36FE183E30E94901501E022E74FE4AE
S1133ED062E780E00E94901523E74FE463E780E007
S1133EE00E9490150F9108950F9300E02EE940E091
S1133EF060E080E00E945E1501E020E04FE460E0B5
S1133F0080E00E94901521E04FE461E080E00E948F
S1133F10901500E02EE94FE460E08FE40E945E1506
S1133F2001E02FE94FE46FE980E00E9490152EE94B
S1133F304FE46EE980E00E9490150F910895EF928E
S1133F40FF920F931F93CF93DF93C82FD62F6091C7
S1133F5018437091194380911A4390911B430E9416
S1133F606F2B9B012F3E82E0380744F010921843D8
S1133F701092194310921A4310921B43EAE0F0E0A6
S1133F80C901BF010E944E2E182FCB01BF010E9410
S1133F904E2EF82EC90164E670E00E944E2EE62EE5
S1133FA008E221E34FED5AE06D2F8C2F0E94651437
S1133FB0EF2C21E34FED5AE06D2F8DE08C0F0E9422
S1133FC06514E12E21E34FED5AE06D2F8AE18C0F49
S1133FD00E9465148091D142882351F002E32DE0C0
S1133FE04CE25DE16FE58FE10E947E131092D142B5
S1133FF0DF91CF911F910F91FF90EF900895DF9281
S1134000EF92FF920F931F93CF93DF93C82FD62F76
S11340106091144370911543809116439091174316
S11340200E946F2B9B012F3E82E0380744F01092D0
S11340301443109215431092164310921743EAE06A
S1134040F0E0C901BF010E944E2E182FCB01BF0121
S11340500E944E2EF82EC90164E670E00E944E2E96
S1134060CB01BF010E944E2ED82EC90168EE73E029
S11340700E944E2EE62E08E221E34FED5AE06D2F0A
S11340808C2F0E946514ED2C21E34FED5AE06D2F27
S11340908CE08C0F0E946514EF2C21E34FED5AE065
S11340A06D2F88E18C0F0E946514E12E21E34FED02
S11340B05AE06D2F84E28C0F0E9465148091D142E6
S11340C0882351F009E32DE041ED5CE16FE58FE1D8
S11340D00E947E131092D142DF91CF911F910F91D4
S11340E0FF90EF90DF900895EF92FF920F931F934C
S11340F0CF93DF93182FF62E6091104370911143E4
S113410080911243909113430E946F2BEB01072E71
S1134110000C880B990B0E94A72B2AE037ED4FE186
S113412051E40E94572C181644F410921043109234
S113413011431092124310921343CE016AE070E0CF
S11341400E944E2ED62FC82FE12C08E221E34FED1A
S11341505AE06F2D812F0E94651409E026E049E69C
S11341605CE165E580E10E947E13ED2E08E221E327
S11341704FED5AE06F2D8DE0810F0E946514EC2EF7
S113418021E34FED5AE06F2D8AE1810F0E946514FF
S11341908091D142882351F009E32EE04FE65CE19F
S11341A06FE58FE10E947E131092D142DF91CF918F
S11341B01F910F91FF90EF9008950F931F93CF934A
S11341C0DF93C0E0D0E009C02AE030E040E050E0F6
S11341D00E94842ECA01B90121968B019C01075FBC
S11341E01F4F2F4F3F4F033111052105310560F754
S11341F0CE010196DF91CF911F910F9108952F92D7
S11342003F924F925F926F927F928F929F92AF9262
S1134210BF92CF92DF92EF92FF920F931F93CF93AF
S1134220DF93562EF22E132F442EE52E682E712C7A
S1134230622F732F842F952F0E94DD205C011C01B7
S113424062E070E00E94D12E4C01C12CD12C18C028
S1134250E601CC0FDD1FC80DD91D6F2D712F842DE4
S11342609E2D2AE030E040E050E00E94842E6883D6
S11342707983F22E132F442EE52E4FEFC41AD40A5D
S1134280E5012197CC16DD061CF3F101E150F0485D
S1134290EE0FFF1FE80DF91D8F2D912F8083918361
S11342A0E02EF12CAE14BF04B4F5B701660F771FEE
S11342B0C4010E940E304C010AC0F501EE0FFF1F2D
S11342C0E80DF91D108211825FEFA51AB50AAE142C
S11342D0BF049CF3E70121972AEFAE012403C00138
S11342E0259F900D1124680E791E12C0FE01EE0F59
S11342F0FF1FE80DF91DE08008E128E14CE055E0DE
S1134300652D862D0E94651456E0650E711C21975B
S1134310DD2364F71EC02AEFAE012403C001259FEC
S1134320900D1124680E791E12C0FE01EE0FFF1FBE
S1134330E80DF91DE08008E128E14CE055E0652D29
S1134340862D0E94651456E0650E711C2197DD23AD
S113435064F7C4010E94852FDF91CF911F910F91C3
S1134360FF90EF90DF90CF90BF90AF909F908F9091
S11343707F906F905F904F903F902F900895DF92C1
S1134380EF92FF920F931F93CF93DF93F82ED62EC5
S1134390E42E022F061BD42FD81B10E013C0612F6C
S11343A06D0D262F4E2D8F2D0E94C012C0E007C028
S11343B080E00E94551280E00E945512CF5FCD1715
S11343C0B8F31F5F101758F3DF91CF911F910F912E
S11343D0FF90EF90DF900895DF92EF92FF920F939A
S11343E01F93CF93DF93F82ED62EE42E022F061BB5
S11343F0D42FD81B10E013C0612F6D0D262F4E2D26
S11344008F2D0E94C012C0E007C08FEF0E9455128A
S11344108FEF0E945512CF5FCD17B8F31F5F1017AF
S113442058F3DF91CF911F910F91FF90EF90DF90A0
S113443008952DE142E060E080E00E94EC210895BF
S11344400F9326E946E460E080E00E94F6150E949E
S113445019220E94741F0E944A1F1092184310923E
S1134460194310921A4310921B436AE286E00E9499
S11344709F1F80911140909112408093AF4290937E
S1134480B04281E08093AE4208E221E345E458E182
S113449068E285E30E947E1321E34AE359E168E27E
S11344A082E40E947E132FE047E95BE16FE582E43A
S11344B00E947E132FEF82E597E0215080409040C8
S11344C0E1F700C000000F9108950F931F93CF935D
S11344D0DF9328EB3EE145EC5DE360911843709176
S11344E0194380911A4390911B430E945C2C0E94B3
S11344F0762B162F072FC62FD02F80910640909130
S113450007408C179D0788F4CD34D10510F0CCE416
S1134510D0E04C2F4E5F2DE162E08E5F0E94EC21D3
S1134520C0930640D093074011C0C817D90770F450
S113453042E0480F2DE162E082E0810F0E94BF213A
S1134540812F902F8093064090930740DF91CF9165
S11345501F910F9108950F930E94F91E8091D242EA
S1134560882389F180911640823099F08330B1F02C
S1134570813019F58091D142882331F02FE542E34F
S11345806AE282E00E94F6156AE286E00E949F1FBA
S113459018C06AE282E00E94FF1F13C08091D142DA
S11345A0882331F02FE542E36AE282E00E94F615A7
S11345B06AE286E00E94742004C06AE286E00E94F7
S11345C09F1F1092D2428091D042882321F00E94F2
S11345D065221092D042809114408823F9F0809192
S11345E0C442882371F0E0E2F4E084818062848331
S11345F00AE22BE142EE5BE16BE78CE30E947E135F
S11346000BC0E0E2F4E084818F7D848326E94DE4ED
S113461068E78CE30E94F615109214408091C4421E
S1134620882309F449C08091C342882309F444C013
S11346308091EC429091ED422091FC423091FD42F8
S1134640821B930B9C0122F422273327281B390B4E
S1134650293E33408CF19091E94281E0892780938F
S1134660E942882361F0E0E2F4E084818F7D848371
S113467026E94DE468E78CE30E94F6150DC0E0E2FC
S1134680F4E08481806284830AE22BE142EE5BE100
S11346906BE78CE30E947E138091FC429091FD4273
S11346A0A091FE42B091FF428093EC429093ED4280
S11346B0A093EE42B093EF428091CE42882309F456
S11346C057C08091E442882309F442C0E0E4F4E056
S11346D08481846084838091A8429091A942019648
S11346E08093A8429093A942039724F01092A84281
S11346F01092A9428091A8429091A94281309105DB
S113470071F082309105A1F0892BD9F408E228E1F7
S11347104FE15BE16EE787E00E947E1316C008E27A
S113472028E147EA5AE16EE787E00E947E130DC054
S113473008E228E14FE25AE16EE787E00E947E1327
S113474004C01092A8421092A9421092CD420EC009
S1134750E0E4F4E084818B7F848326E94EE168E71A
S113476087E00E94F61581E08093CD421092CE42FC
S11347708091D642811104C08091D542882341F0B2
S113478000E22AE14CE75EE16CE784E10E947E13DB
S11347900F910895E0E0F4E080818160808380815E
S11347A08260808380898860808BE0E0FAE080E822
S11347B09CE086A397A310A611A610A211A2818142
S11347C08061818381818360818380818160808332
S11347D080818260808308959DE994BF8093001056
S11347E008951F93CF93DF93EC01162F809102104D
S11347F081FDFCCF83E190E00E94EC23DC5E188312
S113480080E090E00E94EC23DF91CF911F91089506
S11348100F931F93CF93DF93EC018B0180910210D0
S113482081FDFCCF83E190E00E94EC23DC5E0883F1
S1134830198380E090E00E94EC23DF91CF911F91D7
S11348400F910895209102100E9403310895AF92B0
S1134850BF92CF92DF92EF92FF920F931F93CF9369
S1134860DF9381E090E00E942224A82E83E090E070
S11348700E94222491E0811101C090E090931C4396
S113488000E0C12CD12C7601B12C71C081E00E94D2
S1134890FB11609318437093194380931A439093C8
S11348A01B4380912143882379F080911E4390918A
S11348B01F43019680931E4390931F4310922143FC
S11348C08DEC90E40E948D1020911843309119438F
S11348D040911A4350911B43C701B6010E94F82A24
S11348E0811106C08DED90E40E948D101F5F05C0FC
S11348F088EF90E40E948D1010E0C0901843D0908F
S11349001943E0901A43F0901B43219603C0C0E082
S1134910D0E010E0CA30D1050CF4B8CF80911E432A
S113492090911F43049714F4163060F085E191E4EC
S11349300E948D100E940F180F5F10921E43109258
S11349401F4315C010921E4310921F4310921C4324
S113495060E081E090E00E94F12360911C4383E0D9
S113496090E00E94F12300E0BB24B394A12CB11089
S113497002C0033060F20330E0F1C1E0CA0D81E00F
S113498080931C436C2F81E090E00E94F12360919E
S11349901C4383E090E00E94F123C43020F089E2BC
S11349A091E40E948D108FE295E70197F1F700C022
S11349B0000080E591E40E948D106091E44282E061
S11349C090E00E94F1236091C44286E090E00E944E
S11349D0F12361E085E090E00E94F1238FE295E706
S11349E00197F1F700C0000061E081E490E00E94CB
S11349F01731DF91CF911F910F91FF90EF90DF90CE
S1134A00CF90BF90AF90089580E00E9473160E94EB
S1134A1007180E94311F0E940F180E94272408952E
S1134A20209102100E941231089589E190E00E94C1
S1134A30102580931140909312408BE190E00E94E6
S1134A40102580930F40909310408DE190E00E94D8
S1134A50102580930D4090930E408FE190E00E94CA
S1134A60102580930B4090930C4081E290E00E94CB
S1134A7010258093094090930A4008950E941525BB
S1134A8085E090E00E94222491E0811101C090E031
S1134A9090931D4360E085E090E00E94F12383E061
S1134AA090E00E94222491E0811101C090E0909353
S1134AB01C43992341F082E090E00E94222486E086
S1134AC090E00E9422240895209102100E940B314C
S1134AD00895CF92DF92EF92FF920F9385E190E0D9
S1134AE00E946425611524EA720723E9820726EDF2
S1134AF0920720F021E02093D64202C01092D642C1
S1134B000F2EF0E8CF2EFEEEDF2EF6E3EF2EF12C83
S1134B10F02DA70196010E94622E04E06BE286E468
S1134B200E94FF2081E190E00E946425A701960184
S1134B300E94622E67E686E40E94FF200F91FF9098
S1134B40EF90DF90CF900895AF92BF92CF92DF9213
S1134B50EF92FF920F931F93CF93DF93EC016A01BF
S1134B607B015C018FEFA81AB80A642FCE010E9462
S1134B70F1236D2D8E010E5F1F4FC5010E94F1239D
S1134B806E2D2396C8010E94F1236F2D7727882765
S1134B909927CE010E94F123DF91CF911F910F91AC
S1134BA0FF90EF90DF90CF90BF90AF900895CF9299
S1134BB0DF92EF92FF920F93C090FC42D090FD429F
S1134BC0E090FE42F090FF4289C0E0E4F4E080858A
S1134BD080748087882309F481C0E0E8F4E080854C
S1134BE084708087882309F479C02FEF3DE389E43A
S1134BF0215030408040E1F700C0000026E940E544
S1134C0060E080E00E94F61500E324E144E954E00A
S1134C1069E485E00E947E1300E42EE144EA53E057
S1134C2069E486E10E947E1308E12EE14AE453E040
S1134C3069E48AE20E947E1300E42EE14AE552E030
S1134C4069E482E30E947E132EE14AE651E06DE5B9
S1134C5086E00E947E130E94DB1B8091E342811157
S1134C6010C09091C44291110CC09091E0429111F6
S1134C7008C09091E442911104C09091E2429923BA
S1134C8061F39091E442992349F11092E442811135
S1134C900CC09091C442911108C09091E0429111CE
S1134CA004C09091E242992391F38091E0428823D9
S1134CB0A9F01092E04240E050E0BA0185E190E0B2
S1134CC00E94A4251092D64226E940E560E080E0E7
S1134CD00E94F6150E9486260E94DB1B8091FC42EE
S1134CE09091FD429601281B390BC901813630EFA2
S1134CF0930724F0803A9F400CF467CF0E94DB1B9B
S1134D000F91FF90EF90DF90CF9008950F9326E9D5
S1134D1046E460E080E00E94F61500E42EE14CEBEE
S1134D2059E06BE281E00E947E1300E32EE148E04B
S1134D3059E06BE287E10E947E132EE144E558E0DE
S1134D4067E681E00E947E1300E22EE14CED57E01D
S1134D5067E681E10E947E1300E32EE148E059E01A
S1134D6067E68CE10E947E130E9469250E94D72584
S1134D7026E940E560E080E00E94F6150F91089571
S1134D80CF92DF92EF92FF928091FC429091FD428C
S1134D90A091FE42B091FF424091E5425091E6421B
S1134DA06091E7427091E842841B950BA60BB70B08
S1134DB0813C9742A940B10508F444C08091B542B2
S1134DC0882309F43FC081E190E00E946425AB018F
S1134DD0BC014054584D664F7F4F81E190E00E94E2
S1134DE0A42585E190E00E9464256B017C0120EC00
S1134DF0C20E27E2D21E29E0E21EF11CB701A60171
S1134E0085E190E00E94A425C11484EAD80683E9D0
S1134E10E80686EDF80620F081E08093D54202C0D2
S1134E201092D5428091FC429091FD42A091FE42A5
S1134E30B091FF428093E5429093E642A093E7420B
S1134E40B093E842FF90EF90DF90CF9008951F92C7
S1134E500F920FB60F9211240BB60F924F935F93DC
S1134E606F937F938F939F93AF93BF93EF93FF932E
S1134E708091A90482FF12C08091E442882319F032
S1134E801092E44203C081E08093E44281E0809385
S1134E90B742E0EAF4E08185846081878091A904C7
S1134EA083FF4FC08091E34281111CC08091FC427A
S1134EB09091FD42A091FE42B091FF424091B142D7
S1134EC05091B2426091B3427091B442841B950BED
S1134ED0A60BB70B8B3F9105A105B10518F081E036
S1134EE08093E3428091A80483FF18C08091B54267
S1134EF08823A1F081E08093B6428091FC42909196
S1134F00FD42A091FE42B091FF428093B142909342
S1134F10B242A093B342B093B4420EC08091A804AD
S1134F2083FD0AC01092B1421092B2421092B34271
S1134F301092B4421092B642E0EAF4E081858860AF
S1134F408187FF91EF91BF91AF919F918F917F9155
S1134F506F915F914F910F900BBE0F900FBE0F900A
S1134F601F9018951F920F920FB60F9211240BB633
S1134F700F922F933F934F935F936F937F938F93EE
S1134F809F93AF93BF93EF93FF938091490488233A
S1134F900CF04DC08091E442882389F18091CB428A
S1134FA081111BC0909148049923BCF481E00E94B4
S1134FB073168091FC429091FD42A091FE42B09103
S1134FC0FF428093BB429093BC42A093BD42B093F6
S1134FD0BE4281E08093CB4225C0882319F18091A1
S1134FE048048823FCF080E00E9473168091C64236
S1134FF08F5F8093C64281E08093CA4213C0809140
S1135000CB42811108C080914804882324F481E0B4
S11350108093CB4207C08091480488231CF081E030
S11350208093CA42E0E4F4E08185806881878091BE
S1135030490483FF08C081E08093C942E0E4F4E0BE
S1135040818588608187FF91EF91BF91AF919F9196
S11350508F917F916F915F914F913F912F910F901D
S11350600BBE0F900FBE0F901F9018951F920F92BA
S11350700FB60F9211240BB60F928F93EF93FF93F9
S11350808091890481FF0AC081E08093E04280938B
S11350901340E0E8F4E0818582608187809189048F
S11350A082FF12C08091C442882319F01092C44236
S11350B003C081E08093C44281E08093B842E0E879
S11350C0F4E08185846081878091890480FF08C031
S11350D081E08093E242E0E8F4E0818581608187A9
S11350E0FF91EF918F910F900BBE0F900FBE0F9019
S11350F01F9018950F931F93CF93DF938B01EA01B1
S11351004091880442FF0EC0280F391FC217D307ED
S11351100CF0E901BE010D2E000C880B990B0E94C6
S1135120CC1015C04091A80442FF10C0AC01421B32
S1135130530B461757070CF08A01B801012E000CD7
S1135140880B990B0E94CC10E80101C0EC015FE7C9
S11351508FE492E1515080409040E1F700C000009C
S1135160CE01DF91CF911F910F910895CF93DF93DB
S1135170109213408FE691E40E948D1085EA91E429
S11351800E94AE106091AE4270E080E090E00E9418
S1135190CC1085EB91E40E94AE106091AD4270E0BA
S11351A080E090E00E94CC1085EC91E40E94AE1067
S11351B06091AC4270E080E090E00E94CC1085EDFC
S11351C091E40E94AE106091AB4270E080E090E008
S11351D00E94CC1085EE91E40E94AE106091AA4228
S11351E070E080E090E00E94CC1020E030E0C6C087
S11351F09091AE42992339F185EF91E40E948D108C
S1135200C0E0DAE04EA15FA16091114070911240BC
S113521080911140909112406456710925E030E06C
S11352200E947A28809311409093124088A799A7EE
S113523080911140909112408093B9429093BA4268
S113524029E130E09BC09091AD42992319F1C0E06F
S1135250DAE04EA15FA160910F40709110408091FF
S11352600F40909110406456710925E030E00E948F
S11352707A2880930F409093104088A799A7809133
S11352800F40909110408093B9429093BA422BE121
S113529030E074C08091AC42882319F1C0E0DAE0B8
S11352A04EA15FA160910D4070910E4080910D4020
S11352B090910E406456710925E030E00E947A28EE
S11352C080930D4090930E4088A799A780910D403C
S11352D090910E408093B9429093BA422DE130E010
S11352E04DC08091AB42882319F1C0E0DAE04EA1B1
S11352F05FA160910B4070910C4080910B409091A4
S11353000C406456710925E030E00E947A288093AD
S11353100B4090930C4088A799A780910B409091E3
S11353200C408093B9429093BA422FE130E026C0FA
S11353308091AA42882311F1C0E0DAE04EA15FA176
S11353406091094070910A408091094090910A400F
S11353506456710925E030E00E947A288093094060
S113536090930A4088A799A78091094090910A4098
S11353708093B9429093BA4221E230E09091134075
S1135380992309F435CF6091B9427091BA42C901A9
S11353900E9408248BE492E40E948D101092134022
S11353A023E94CE362E882E30E94F6156091B94276
S11353B07091BA42072E000C880B990B0E94CC10F6
S11353C01092B6421092AE421092AD421092AC428C
S11353D01092AB421092AA421092E0428FE792E4FC
S11353E00E948D108091B9429091BA42DF91CF9181
S11353F008950F938091B642882389F18091FC42ED
S11354009091FD42A091FE42B091FF424091B14281
S11354105091B2426091B3427091B442841B950B97
S1135420A60BB70B893B9B40A105B105C0F01092B8
S1135430B6421092B1421092B2421092B34210920C
S1135440B44286E992E40E948D1009E121E14CEA1C
S11354505AE062E882E30E947E130E94B6280F910C
S11354600895F89495E288ED84BF909368000E94B3
S1135470161B80E895E20E945B10E0E4F4E0808172
S11354808061808384818F7E8483C0E2D4E08881BC
S1135490816088830E94CA230E94E1108881816010
S11354A088838C818E7F8C83E0E8F4E0808188603F
S11354B080830E9497110E943E250E94991A0E949F
S11354C023160E94EA1E0E943B18E0E6F4E0808165
S11354D080830E9404252FEF82E597E021508040CD
S11354E09040E1F700C0000078940E9486260E9454
S11354F0202282E30E94F3160E94DD1E0E94891A74
S11355000E949C1A0E94AB220E9478190E94F929D9
S11355100E94C026EECF5058BB27AA270E94A32A78
S11355200C941D2C0E940F2C38F00E94162C20F095
S113553039F49F3F19F426F40C940C2C0EF4E095E6
S1135540E7FB0C94062CE92F0E942E2C58F3BA1773
S1135550620773078407950720F079F4A6F50C9485
S1135560502C0EF4E0950B2EBA2FA02D0B01B9018F
S113557090010C01CA01A0011124FF27591B99F0C5
S1135580593F50F4503E68F11A16F040A22F232FD1
S1135590342F4427585FF3CF469537952795A79521
S11355A0F0405395C9F77EF41F16BA0B620B730BC8
S11355B0840BBAF09150A1F0FF0FBB1F661F771F39
S11355C0881FC2F70EC0BA0F621F731F841F48F4EE
S11355D0879577956795B795F7959E3F08F0B0CF77
S11355E09395880F08F09927EE0F9795879508955E
S11355F00E94E22B08F481E008950E94112B0C9480
S11356001D2C0E94162C58F00E940F2C40F029F4F7
S11356105F3F29F00C94062C51110C94512C0C94DE
S11356200C2C0E942E2C68F39923B1F3552391F38B
S1135630951B550BBB27AA2762177307840738F0FD
S11356409F5F5F4F220F331F441FAA1FA9F335D05A
S11356500E2E3AF0E0E832D091505040E695001C0E
S1135660CAF72BD0FE2F29D0660F771F881FBB1FC8
S1135670261737074807AB07B0E809F0BB0B802DA6
S1135680BF01FF2793585F4F3AF09E3F510578F0D2
S11356900C94062C0C94512C5F3FE4F3983ED4F305
S11356A0869577956795B795F7959F5FC9F7880FA6
S11356B0911D9695879597F90895E1E0660F771FF8
S11356C0881FBB1F621773078407BA0720F0621B89
S11356D0730B840BBA0BEE1F88F7E09508950E94B4
S11356E0762B6894B1110C94512C08950E94362C99
S11356F088F09F5798F0B92F9927B751B0F0E1F08F
S1135700660F771F881F991F1AF0BA95C9F714C03E
S1135710B13091F00E94502CB1E008950C94502CBB
S1135720672F782F8827B85F39F0B93FCCF3869577
S113573077956795B395D9F73EF4909580957095D4
S113574061957F4F8F4F9F4F0895E89409C097FB51
S11357503EF490958095709561957F4F8F4F9F4F44
S11357609923A9F0F92F96E9BB279395F695879588
S113577077956795B795F111F8CFFAF4BB0F11F44B
S113578060FF1BC06F5F7F4F8F4F9F4F16C08823F2
S113579011F096E911C0772321F09EE8872F762F28
S11357A005C0662371F096E8862F70E060E02AF069
S11357B09A95660F771F881FDAF7880F9695879555
S11357C097F90895990F0008550FAA0BE0E8FEEF2A
S11357D016161706E807F907C0F012161306E407B1
S11357E0F50798F0621B730B840B950B39F40A26AA
S11357F061F0232B242B252B21F408950A2609F488
S1135800A140A6958FEF811D811D089597F99F678B
S113581080E870E060E008959FEF80EC0895002434
S11358200A941616170618060906089500240A9401
S113583012161306140605060895092E0394000C87
S113584011F4882352F0BB0F40F4BF2B11F460FF16
S113585004C06F5F7F4F8F4F9F4F089557FD90583F
S1135860440F551F59F05F3F71F04795880F97FB20
S1135870991F61F09F3F79F08795089512161306DA
S11358801406551FF2CF4695F1DF08C01616170609
S11358901806991FF1CF869571056105089408953E
S11358A0E894BB2766277727CB0197F908950E94D0
S11358B0E22B08F48FEF08950E946F2C0C941D2C9A
S11358C00E940F2C38F00E94162C20F0952311F022
S11358D00C94062C0C940C2C11240C94512C0E9426
S11358E02E2C70F3959FC1F3950F50E0551F629FC6
S11358F0F001729FBB27F00DB11D639FAA27F00D25
S1135900B11DAA1F649F6627B00DA11D661F829F4B
S11359102227B00DA11D621F739FB00DA11D621F30
S1135920839FA00D611D221F749F3327A00D611D4D
S1135930231F849F600D211D822F762F6A2F11242F
S11359409F5750409AF0F1F088234AF0EE0FFF1F62
S1135950BB1F661F771F881F91505040A9F79E3FB9
S1135960510580F00C94062C0C94512C5F3FE4F309
S1135970983ED4F3869577956795B795F795E7950F
S11359809F5FC1F7FE2B880F911D9695879597F918
S11359900895FA01EE0FFF1F309621053105A1F19C
S11359A06115710561F48038BFE39B0749F1689480
S11359B09038810561F08038BFEF9B0741F099234F
S11359C04AF5FF3FE1053105210519F1E8940894F2
S11359D0E795D901AA2329F4AB2FBE2FF85FD0F3A2
S11359E010C0FF5F70F4A695E0F7F73950F019F096
S11359F0FF3A38F49F779F930DD00F9007FC90588F
S1135A00089546F00C940C2C60E070E080E89FE36D
S1135A1008954FE79F775F934F933F932F930E948F
S1135A20C42D2F913F914F915F910E945C2C0C9457
S1135A30212D29F416F00C94062C0C94502C0C9463
S1135A400C2C0E94362CA8F39638A0F707F80F9276
S1135A50E8942BE33AEA48EB5FE70E94722C0F923A
S1135A600F920F924DB75EB70F920E940C2EE8EE84
S1135A70F0E00E94532D4F915F91EF91FF91E595D6
S1135A80EE1FFF1F49F0FE57E0684427EE0F441F46
S1135A90FA95E1F74195550B0E94862D0F9007FE6C
S1135AA00C947A2D0895DF93CF931F930F93FF9255
S1135AB0EF92DF927B018C01689406C0DA2EEF012D
S1135AC00E946F2CFE01E894A59125913591459192
S1135AD05591A6F3EF010E94A32AFE019701A801A4
S1135AE0DA9469F7DF90EF90FF900F911F91CF91B7
S1135AF0DF9108959B01AC0160E070E080E89FE3D2
S1135B000C94FD2A0C94062C0C94402E0E94362CE6
S1135B10D8F39923C9F3940F511DA3F39150504026
S1135B2094F059F0882332F0660F771F881F915044
S1135B305040C1F79E3F51052CF7880F911D969553
S1135B40879597F908955F3FACF0983E9CF0BB278A
S1135B50869577956795B79508F4B1609395C1F7E5
S1135B60BB0F58F711F460FFE8CF6F5F7F4F8F4F83
S1135B709F4FE3CF0C94512C16F00C94402E0C94B0
S1135B800C2C68940C94062C0E94362CA8F39923B0
S1135B90C1F3AEF3DF93CF931F930F93FF92C92FFB
S1135BA0DD2788232AF02197660F771F881FDAF7ED
S1135BB020E030E040E85FEB9FE3883920F0803E4E
S1135BC038F021968F770E948C2AE0E1F1E004C03E
S1135BD00E948C2AEDE3F1E00E94532D8B01BE015B
S1135BE0EC01FB2E6F5771097595771F880B990B84
S1135BF00E94A72B28E132E741E35FE30E946F2C68
S1135C00AF2D9801AE01FF900F911F91CF91DF91BD
S1135C100E94A32A0C941D2CFA01DC01AA0FBB1FBD
S1135C209B01AC01BF5728F422273327442750781F
S1135C3020C0B75190F4AB2F002446953795279593
S1135C40011CA395D2F3002071F0220F331F441FCF
S1135C50B395DAF30ED00C948B2A61307105A0E869
S1135C608A07B94630F49B01AC0166277727882759
S1135C709078309621F020833183428353830895B2
S1135C809F3F31F0915020F4879577956795B795AC
S1135C90880F911D9695879597F9089597FB072E80
S1135CA016F4009407D077FD09D00E94BD2E07FC9E
S1135CB005D03EF4909581959F4F08957095619518
S1135CC07F4F0895A1E21A2EAA1BBB1BFD010DC034
S1135CD0AA1FBB1FEE1FFF1FA217B307E407F50798
S1135CE020F0A21BB30BE40BF50B661F771F881F74
