S017000044635F73756374696F6E5F70756D702E73726563E1
S11300000C94E40E0C94030F0C94030F0C94030F44
S11300100C94030F0C94030F0C94030F0C94030F14
S11300200C94030F0C94030F0C94030F0C94030F04
S11300300C94030F0C94B71C0C94030F0C94030F33
S11300400C94030F0C94030F0C94030F0C94030FE4
S11300500C94030F0C94030F0C94030F0C94030FD4
S11300600C94030F0C94030F0C94030F0C94030FC4
S11300700C94030F0C94AB250C94ED1C0C94030FFF
S11300800C94030F0C94030F0C9481250C94030F10
S11300900C94030F0C94030F0C94030F0C94030F94
S11300A00C94030F0C94030F0C94030F0C94030F84
S11300B00C94030F0C947E260C94030F0C94030FE2
S11300C00C94030F0C94030F0C94030F0C94030F64
S11300D00C94030F0C94030F0C94030F0C94030F54
S11300E00C94030F0C94030F08000000BE922449E3
S11300F0123EABAAAA2ABECDCCCC4C3E0000008056
S1130100BEABAAAAAA3E00000000BF000000803FC8
S11301100000000000084178D3BB4387D1133D1988
S11301200E3CC3BD4282AD2B3E68EC8276BED98FB5
S1130130E1A93E4C80EFFFBE01C4FF7F3F000000F9
S113014000000000000000000000000000000000AB
S113015000000000000000000000FE3F3FDFEFF75A
S1130160F306FF7FBFDFEFF7FB86C36186030C0650
S11301701BC6C36186030C061BC6C36186030C063B
S11301801BE6C36186030C061B66FF7F86030FC74D
S1130190FB76FE7F86030FC7F336C06186030C0728
S11301A0833EC06186030C06C31EC06186030C0631
S11301B0631EC06186030C06330EC06186030FF60E
S11301C01B0EC06186030FF60B0600000000000042
S11301D0000000000000000000000000000000001B
S11301E0000000000000000000000000000000000B
S11301F000000000000000000000000000000000FB
S113020000000000000000000000000000000000EA
S113021000000000000000000000000000000000DA
S113022000000000000000000000000000000000CA
S113023000000000000000000000000000000000BA
S1130240000000000000000000003F1F8FE7E7F9F6
S1130250F9807FBFDFEFF7FBFD8061B0D80C30C3BE
S11302600D806030D80C00C30D806030D80C00C302
S11302700D806030D80C00C30D807F3FDF8C00C33D
S1130280FD803FBF9F8C00C3FD8001B0180C00C3EC
S11302900D8001B0180C00C30D8001B0180C00C310
S11302A00D8061B0180C30C30D807FB01FEFF7FBD9
S11302B00DFE3F300FE7E7FB0DFE000000000000DD
S11302C0000000000000000000000000000000002A
S11302D0000000000000000000000000000000001A
S11302E0000000000000000000000000000000000A
S11302F000000000000000000000000000000000FA
S113030000000000000000000000000000000000E9
S113031000000000000000000000000000000000D9
S113032000000000000000000000003FD8303FDC67
S113033030061E30061E30061F30061B30061BB06A
S11303400619B00619F00618F00618F00618703FE2
S1130350D8703FD83000000000000000000000000A
S11303600000000000000000000000000000000089
S11303700000000000000000000000000000000079
S11303800000000000000000000000000000000069
S1130390000000003F9837FBFCFCC1803FD837FBCE
S11303A0FDFEE18030D830C06186F18030D830C0A5
S11303B06186F18030D830C06186F98030D830C091
S11303C06186D9803F9830C06186DD803F9830C017
S11303D06186CD8030D830C06186CF8030D830C0BF
S11303E06186C78030D830C06186C78030D830C0BD
S11303F06186C3803FDFF0C061FEC3803F8FE0C0F1
S113040060FCC1800000000000000000000000004B
S113041000000000000000000000000000000000D8
S113042000000000000000000000000000000000C8
S113043000000000000000000000000000000000B8
S113044000000000000000000000000000000000A8
S11304500000000000000000000000000000000098
S11304600000000000000000000000000000000088
S113047000000000000000000000000000007F3FBA
S11304809FE7E3F07FBFDFEFF7F861B0D80C3618D1
S113049061B0D80C060061B0D80C060061B0D80C6D
S11304A006007FBFDF8FE7F07F3F9F87F7F8603C50
S11304B018003018603618003018603318003018EF
S11304C06031980C36186030DFEFF7F860305FEF7A
S11304D0E3F0000000000000000000000000000045
S11304E0000000003FFC007FFE00FFFF00FFFF0054
S11304F0F00F00F00F00F00F00F00F00F00F00F00D
S11305000F00F00F00F00F00F00F00F00F00F00FDD
S113051000F00F00F00F00F00F00F00F00F00F00DC
S1130520FFFF00FFFF007FFE003FFC0003F0000719
S1130530F0000FF0000FF0000FF0000FF0000FF0CC
S11305400001F00001F00001F00001F00001F000F2
S113055001F00001F00001F00001F00001F00001E1
S1130560F00001F00001F0000FFE000FFE000FFE8E
S1130570000FFE003FFC007FFE00FFFF00FFFF00B6
S1130580F00F00F00F00000F00000F00000F00003C
S11305900F003FFF007FFF00FFFE00FFFC00F000A4
S11305A000F00000F00000F00000F00000F0000097
S11305B0FFFF00FFFF007FFF003FFF003FFC007FC5
S11305C0FE00FFFF00FFFF00F00F00F00F00000F20
S11305D000000F00000F00000F001FFF001FFF00AE
S11305E01FFF001FFF00000F00000F00000F00009E
S11305F00F00F00F00F00F00FFFF00FFFF007FFE71
S1130600003FFC00007C0000FC0000FC0001FC003A
S113061003FC0003FC0007FC000FFC000FBC001FE0
S11306203C003F3C003E3C007C3C00FC3C00F83C71
S113063000FFFF00FFFF00FFFF00FFFF00003C0082
S1130640003C00003C00003C00003C00FFFF00FFB9
S1130650FF00FFFF00FFFF00F00000F00000F000CB
S113066000F00000FFFC00FFFE007FFF003FFF00E2
S1130670000F00000F00000F00000F00000F00F03B
S11306800F00F00F00F00F00FFFF00FFFF007FFEE0
S1130690003FFC003FFC007FFE00FFFF00FFFF0067
S11306A0F00F00F00F00F00000F00000F00000F088
S11306B00000FFFC00FFFE00FFFF00FFFF00F00F43
S11306C000F00F00F00F00F00F00F00F00F00F002B
S11306D0FFFF00FFFF007FFE003FFC00FFFF00FF65
S11306E0FF00FFFF00FFFF00F01F00F01F00F03FBE
S11306F000003E00003E00007C00007C0000FC0086
S113070000F80000F80001F00001F00003F000031D
S1130710E00003E00007C00007C0000FC0000F8026
S1130720000F80003FFC007FFE00FFFF00FFFF0082
S1130730F00F00F00F00F00F00F00F00F00F00F0CA
S11307400F007FFE003FFC003FFC007FFE00F00F27
S113075000F00F00F00F00F00F00F00F00F00F009A
S1130760FFFF00FFFF007FFE003FFC003FFC007F17
S1130770FE00FFFF00FFFF00F00F00F00F00F00F7E
S113078000F00F00F00F00F00F00FFFF00FFFF006C
S11307907FFF003FFF00000F00000F00000F00F07C
S11307A00F00F00F00F00F00FFFF00FFFF007FFEBF
S11307B0003FFC00000000000000000000000000FA
S11307C01F986C183FD86E1830D86F1830D86F182F
S11307D030D86F9830D86D983FD86DD83F986CD882
S11307E03C186CD836186C7833186C7831986C389F
S11307F030DFEC38304FCC3800000000000000003F
S113080000000000000000000000000000000000E4
S113081000000000000000000000000000000000D4
S113082000000000000000000000000000000000C4
S113083000000000000000000000000000007F9F96
S11308409FE7E6007FBFDFEFF6000C30C30C3600F5
S11308500C30C30C36000C30C30C36000C30C30C07
S113086036000C30C30FF6000C30C30FF6000C300A
S1130870C30C36000C30C30C36000C30C30C3600ED
S11308800C30C30C36000C3FC30C37F80C1F830C20
S113089037F8000000000000000000000000000025
S11308A00000000000000000000000000000000044
S11308B00000000000000000000000000000000034
S11308C00000000000000000000000000000000024
S11308D00000000000000000000000000000000014
S11308E00000000000000000000000000000000004
S11308F0000030CFCC33F1F830DFEC37FBFC30D8DC
S11309006C361B0C30D86C361B0030D86C361B0090
S113091030D86C361B003FD86C37FBF83FD86C37A7
S1130920F1FC30D86C37800C30D86C36C00C30D821
S11309306C36600C30D86C36330C30DFEFF61BFCB1
S113094030CFC7E609F800000000000000000000F6
S11309500000000000000000000000000000000093
S11309600000000000000000000000000000000083
S11309700000000000000000000000000000000073
S11309800000000000000000000000000000000063
S11309900000000000000000000000000000000053
S11309A00000000000000000000000003F1FCFCC4A
S11309B037F9F9FE7FBFDFEC37FBFDFE61B0186C41
S11309C030C30D806030186C30C301806030186C07
S11309D030C301806030186C30C301807F3F1FEC4E
S11309E030C301F83FBF1FCE70C301F801B01E0E23
S11309F070C3018001B01B07E0C3018001B01987F7
S1130A00E0C3018061B018C3C0C30D807FBFD86349
S1130A10C7FBFDFE3F1FD82187F9F9FE0000000047
S1130A2000000000000000000000000000000000C2
S1130A3000000000000000000000000000000000B2
S1130A4000000000000000000000000000000000A2
S1130A500000000000000000000000000000000092
S1130A600000000000000000000000000000000082
S1130A700000000000000000000000000000000072
S1130A80000000000000000FF8001FFC00180C001C
S1130A90180C001800001800001FF0000FF80000E8
S1130AA01C00000C00180C00180C001C1C001FFC7F
S1130AB0000FF80000000007FFFF80001FFFFFE0A9
S1130AC0003FFFFFF0007FFFFFF8007FFFFFF8000B
S1130AD0FFFFFFFC00FFFFFFFC00FFFFFFFC00FF28
S1130AE0E01FFC00FFC00FFC00FF8007FC00FF803C
S1130AF007FC00FF8007FC00FF8007FC00FF800765
S1130B00FC00FF8007FC00FF8007FC00FF8007FC5F
S1130B1000FF8007FC00FF8007FC00FF8007FC004B
S1130B20FF8007FC00FF8007FC00FF8007FC00FF3C
S1130B308007FC00FF8007FC00FF8007FC00FF80AB
S1130B4007FC00FF8007FC00FF8007FC00FF800714
S1130B50FC00FF8007FC00FF8007FC00FF8007FC0F
S1130B6000FF8007FC00FF8007FC00FF8007FC00FB
S1130B70FF8007FC00FF8007FC00FFC00FFC00FFA4
S1130B80E01FFC00FFFFFFFC00FFFFFFFC00FFFF76
S1130B90FFFC007FFFFFF8007FFFFFF8003FFFFF2F
S1130BA0F0001FFFFFE00007FFFF80000003FE00CE
S1130BB0000007FE0000000FFE0000000FFE000012
S1130BC0001FFE0000003FFE0000007FFE0000004A
S1130BD0FFFE000001FFFE000003FFFE000007FF10
S1130BE0FE000007FFFE000007FFFE000007FFFEF7
S1130BF0000007FBFE000007F3FE000007E3FE0011
S1130C000007C3FE00000783FE00000703FE000088
S1130C100003FE00000003FE00000003FE000000CD
S1130C2003FE00000003FE00000003FE00000003BA
S1130C30FE00000003FE00000003FE00000003FEAF
S1130C4000000003FE00000003FE00000003FE009D
S1130C50000003FE00000003FE00000003FE00008D
S1130C600003FE00000003FE00000003FE0000007D
S1130C7003FE00000003FE00000FFFFFFF000FFF54
S1130C80FFFF000FFFFFFF000FFFFFFF000FFFFF3D
S1130C90FF000FFFFFFF000FFFFFFF000FFFFFFF2D
S1130CA000000FFF8000003FFFE000007FFFF8001E
S1130CB000FFFFFC0001FFFFFE0003FFFFFF000732
S1130CC0FFFFFF8007FFFFFFC00FFC03FFC00FF80B
S1130CD001FFE01FF000FFE01FF0007FE01FF000C5
S1130CE07FE01FF0007FE01FF0007FE01FF0007F37
S1130CF0E0000000FFE0000001FFC0000003FFC0AF
S1130D00000007FFC000000FFF8000001FFF00006D
S1130D10003FFF0000007FFE000000FFFC00000118
S1130D20FFF8000003FFF0000007FFE000000FFFE2
S1130D30C000001FFF8000003FFF0000007FFE0096
S1130D400000FFFC000001FFF8000003FFF00000BA
S1130D5007FFE000000FFFC000001FFF8000001F1E
S1130D60FF0000003FFE0000003FFC0000003FFFCA
S1130D70FFFFE03FFFFFFFE03FFFFFFFE03FFFFF1C
S1130D80FFE03FFFFFFFE03FFFFFFFE03FFFFFFF0C
S1130D90E03FFFFFFFE0003FFFC00000FFFFF00067
S1130DA001FFFFF80003FFFFFE0007FFFFFF000F36
S1130DB0FFFFFF800FFFFFFFC00FF001FFC00FC058
S1130DC000FFC00FC0007FC00FC0007FC00F8000B5
S1130DD03FC00000003FC00000003FC00000003FD3
S1130DE0C00000003FC00000007FC00000007FC0C2
S1130DF0000000FFC0000003FFC0003FFFFF8000B1
S1130E007FFFFF00007FFFFC00007FFFF000007FFA
S1130E10FFFF00007FFFFF80007FFFFFC0003FFF58
S1130E20FFC0000003FFC0000001FFC00000007FFE
S1130E30C00000007FC00000003FC00000003FC0B1
S1130E400000003FC00000003FC00000003FC00F92
S1130E5080003FC00FC0007FC00FC0007FC00FC024
S1130E6000FFC00FF001FFC00FFFFFFF800FFFFF67
S1130E70FF0007FFFFFF0003FFFFFE0001FFFFFC71
S1130E800000FFFFF000003FFFC000000003FE0071
S1130E90000007FE0000000FFE0000001FFE00001F
S1130EA0003FFE0000007FFE000000FFFE00000186
S1130EB0FFFE000003FFFE000007FFFE00000FFF1F
S1130EC0FE00001FFDFE00003FF9FE00007FF1FE62
S1130ED00000FFE1FE0001FFC1FE0003FF81FE00F0
S1130EE007FF01FE000FFE01FE001FFC01FE003F94
S1130EF0F801FE007FF001FE00FFE001FE00FFC0EC
S1130F0001FE00FFFFFFFFE0FFFFFFFFE0FFFFFF29
S1130F10FFE0FFFFFFFFE0FFFFFFFFE0FFFFFFFF3A
S1130F20E0FFFFFFFFE0000001FE00000001FE0003
S1130F30000001FE00000001FE00000001FE0000B0
S1130F400001FE00000001FE00000001FE000000A0
S1130F5001FE00000001FE00000001FE000000018F
S1130F60FE00000001FE00000001FE00000001FE82
S1130F7000000001FE00000001FE00000001FE0070
S1130F801FFFFFFFC03FFFFFFFC03FFFFFFFC03F4A
S1130F90FFFFFFC03FFFFFFFC03FFFFFFFC03FFF5A
S1130FA0FFFFC03FFFFFFFC03FFFFFFFC03FE00068
S1130FB000003FE00000003FE00000003FE00000D0
S1130FC0003FE00000003FE00000003FE0000000C0
S1130FD03FE00000003FE3FFFC003FE7FFFE003F6F
S1130FE0EFFFFF003FFFFFFF803FFFFFFFC03FFF1A
S1130FF0FFFFE03FFFFFFFE03FFFFFFFF03FFC008C
S11310007FF03FF0003FF83FE0001FF80000000FC2
S1131010F800000007F800000007F800000007F8D7
S113102000000007F800000007F800000007F83F80
S1131030E00007F83FE00007F83FE0000FF83FF05A
S1131040001FF83FF0003FF83FF8007FF83FFFFF34
S1131050FFF03FFFFFFFF03FFFFFFFE01FFFFFFF39
S1131060C00FFFFFFF8007FFFFFF0003FFFFFE002D
S113107001FFFFFC0001FFFF800003FFFFE0000F02
S1131080FFFFF8001FFFFFFC003FFFFFFE003FFFD4
S1131090FFFF007FFFFFFF007FFFFFFF00FFF00364
S11310A0FF00FFE001FF00FFC001FF00FF8000FF21
S11310B000FF80007F00FF80007F00FF80000000B1
S11310C0FF80000000FF80000000FF80000000FFA0
S11310D080000000FF80000000FF9FFE0000FFBFB3
S11310E0FF8000FFFFFFE000FFFFFFF000FFFFFFB6
S11310F0F800FFFFFFFC00FFFFFFFE00FFFFFFFE05
S113110000FFFFFFFF00FFE003FF00FFC001FF003F
S1131110FFC001FF00FF8000FF00FF8000FF00FF11
S11311208000FF00FF8000FF00FF8000FF00FF80C1
S113113000FF00FF8001FF00FFC001FF00FFE0038C
S1131140FF00FFFFFFFF00FFFFFFFF00FFFFFFFFA8
S1131150007FFFFFFE007FFFFFFE003FFFFFFC005C
S11311601FFFFFF8000FFFFFF0003FFFFFFF803F6E
S1131170FFFFFF803FFFFFFF803FFFFFFF803FFF38
S1131180FFFF803FFFFFFF803FFFFFFF803FFFFF28
S1131190FF803FFFFFFF80000007FF80000007FF84
S11311A080000007FF8000000FFF0000000FFF0019
S11311B000001FFE0000001FFE0000001FFE0000D4
S11311C0003FFC0000003FFC0000007FF80000002E
S11311D07FF80000007FF8000000FFF0000000FF2F
S11311E0F0000001FFE0000001FFE0000001FFE06B
S11311F0000003FFC0000003FFC0000007FF8000E1
S11312000007FF80000007FF8000000FFF000000C0
S11312100FFF0000001FFE0000001FFE0000001F63
S1131220FE0000003FFC0000003FFC0000007FF8CF
S11312300000007FF80000007FF8000000FFF000CD
S11312400000FFF0000001FFE0000001FFE00000EB
S113125001FFE0000003FFC0000003FFC000000125
S1131260FFFFC00007FFFFF0000FFFFFF8001FFFA4
S1131270FFFC003FFFFFFE007FFFFFFF007FFFFF3B
S1131280FF007FFFFFFF00FFFFFFFF80FFE003FF82
S113129080FFC001FF80FF8000FF80FF00007F808F
S11312A0FF00007F80FF00007F80FF00007F80FF41
S11312B000007F80FF00007F80FF8000FF80FFC070
S11312C001FF80FFE003FF807FFFFFFF007FFFFF40
S11312D0FF003FFFFFFE001FFFFFFC003FFFFFFE7C
S11312E0007FFFFFFF007FFFFFFF00FFFFFFFF8086
S11312F0FFE003FF80FFC001FF80FF8000FF80FF4D
S113130000007F80FF00007F80FF00007F80FF00DF
S1131310007F80FF00007F80FF00007F80FF80004F
S1131320FF80FFC001FF80FFE003FF807FFFFFFF1E
S1131330007FFFFFFF007FFFFFFF003FFFFFFE0076
S11313401FFFFFFC000FFFFFF80007FFFFF0000185
S1131350FFFFC00007FFFF80001FFFFFE0003FFF0B
S1131360FFF0007FFFFFF8007FFFFFF800FFFFFFA3
S1131370FC00FFFFFFFC00FFFFFFFC00FFE01FFC81
S113138000FFC00FFC00FF8007FC00FF8007FC008B
S1131390FF8007FC00FF8007FC00FF8007FC00FFC4
S11313A08007FC00FF8007FC00FFC00FFC00FFE08B
S11313B01FFC00FFFFFFFC00FFFFFFFC00FFFFFF1F
S11313C0FC007FFFFFFC007FFFFFFC003FFFFFFCF2
S11313D0001FFFFFFC0007FFFFFC00000007FC00EC
S11313E0000007FC00000007FC00000007FC0000F0
S11313F00007FC00000007FC00000007FC000000E0
S113140007FC00FF8007FC00FF8007FC00FF80074B
S1131410FC00FF8007FC00FFC00FFC00FFE01FFC86
S113142000FFFFFFFC00FFFFFFFC00FFFFFFFC00CD
S11314307FFFFFF8007FFFFFF8003FFFFFF0001F72
S1131440FFFFE00007FFFF800001FFFF800003FFB4
S1131450FFE0000FFFFFF8001FFFFFFC003FFFFF4E
S1131460FE003FFFFFFF007FFFFFFF007FFFFFFF46
S113147000FFF003FF00FFE001FF00FFC001FF00D9
S1131480FF8000FF00FF80007F00FF80007F00FFDF
S113149080000000FF80000000FF80000000FF804B
S11314A0000000FF80000000FF80000000FF9FFE9E
S11314B00000FFBFFF8000FFFFFFE000FFFFFFF021
S11314C000FFFFFFF800FFFFFFFC00FFFFFFFE002F
S11314D0FFFFFFFE00FFFFFFFF00FFE003FF00FF31
S11314E0C001FF00FFC001FF00FF8000FF00FF807C
S11314F000FF00FF8000FF00FF8000FF00FF80006E
S1131500FF00FF8000FF00FF8001FF00FFC001FF1C
S113151000FFE003FF00FFFFFFFF00FFFFFFFF00EE
S1131520FFFFFFFF007FFFFFFE007FFFFFFE003F86
S1131530FFFFFC001FFFFFF8000FFFFFF0001FFF7D
S1131540FFFFC03FFFFFFFC03FFFFFFFC03FFFFFA4
S1131550FFC03FFFFFFFC03FFFFFFFC03FFFFFFF94
S1131560C03FFFFFFFC03FFFFFFFC03FE0000000A0
S11315703FE00000003FE00000003FE00000003FCB
S1131580E00000003FE00000003FE00000003FE01A
S11315900000003FE3FFFC003FE7FFFE003FEFFFDA
S11315A0FF003FFFFFFF803FFFFFFFC03FFFFFFF44
S11315B0E03FFFFFFFE03FFFFFFFF03FFC007FF055
S11315C03FF0003FF83FE0001FF80000000FF80074
S11315D0000007F800000007F800000007F800000A
S11315E00007F800000007F800000007F83FE000DB
S11315F007F83FE00007F83FE0000FF83FF0001F56
S1131600F83FF0003FF83FF8007FF83FFFFFFFF09E
S11316103FFFFFFFF03FFFFFFFE01FFFFFFFC00F93
S1131620FFFFFF8007FFFFFF0003FFFFFE0001FF36
S1131630FFFC00000003FE00000007FE0000000F96
S1131640FE0000001FFE0000003FFE0000007FFEC1
S1131650000000FFFE000001FFFE000003FFFE008B
S11316600007FFFE00000FFFFE00001FFDFE00004C
S11316703FF9FE00007FF1FE0000FFE1FE0001FFE4
S1131680C1FE0003FF81FE0007FF01FE000FFE0103
S1131690FE001FFC01FE003FF801FE007FF001FE8A
S11316A000FFE001FE00FFC001FE00FFFFFFFFE0BE
S11316B0FFFFFFFFE0FFFFFFFFE0FFFFFFFFE0FF93
S11316C0FFFFFFE0FFFFFFFFE0FFFFFFFFE0000081
S11316D001FE00000001FE00000001FE0000000108
S11316E0FE00000001FE00000001FE00000001FEFB
S11316F000000001FE00000001FE00000001FE00E9
S1131700000001FE00000001FE00000001FE0000D8
S11317100001FE00000001FE00000001FE000000C8
S113172001FE00000001FE00003FFFC00000FFFFBB
S1131730F00001FFFFF80003FFFFFE0007FFFFFFBB
S1131740000FFFFFFF800FFFFFFFC00FF001FFC07E
S11317500FC000FFC00FC0007FC00FC0007FC00FCC
S113176080003FC00000003FC00000003FC00000F8
S1131770003FC00000003FC00000007FC000000028
S11317807FC0000000FFC0000003FFC0003FFFFF58
S113179080007FFFFF00007FFFFC00007FFFF00060
S11317A0007FFFFF00007FFFFF80007FFFFFC0007E
S11317B03FFFFFC0000003FFC0000001FFC00000A6
S11317C0007FC00000007FC00000003FC000000098
S11317D03FC00000003FC00000003FC00000003FC9
S11317E0C00F80003FC00FC0007FC00FC0007FC08B
S11317F00FC000FFC00FF001FFC00FFFFFFF800FFD
S1131800FFFFFF0007FFFFFF0003FFFFFE0001FFD4
S1131810FFFC0000FFFFF000003FFFC00007FFFFD8
S113182080001FFFFFE0003FFFFFF0007FFFFFF895
S1131830007FFFFFF800FFFFFFFC00FFFFFFFC003D
S1131840FFFFFFFC00FFE01FFC00FFC00FFC00FFD8
S11318508007FC00FF8007FC00FF8007FC00FF807E
S113186007FC00FF8007FC00FF8007FC00FF8007E7
S1131870FC00FF8007FC00FF8007FC00FF8007FCE2
S113188000FF8007FC00FF8007FC00FF8007FC00CE
S1131890FF8007FC00FF8007FC00FF8007FC00FFBF
S11318A08007FC00FF8007FC00FF8007FC00FF802E
S11318B007FC00FF8007FC00FF8007FC00FF800797
S11318C0FC00FF8007FC00FF8007FC00FF8007FC92
S11318D000FF8007FC00FF8007FC00FF8007FC007E
S11318E0FFC00FFC00FFE01FFC00FFFFFFFC00FF38
S11318F0FFFFFC00FFFFFFFC007FFFFFF8007FFFFE
S1131900FFF8003FFFFFF0001FFFFFE00007FFFFAD
S11319108000000000000000000000000000000043
S11319200006000000000F800000000FC00000004F
S113193017F00000000BFC00000005F90000003A5D
S1131940F38000003D7FBC00003EBF3800001F5EF6
S11319507800000FAFFC000007C7FE000003E3FFA0
S1131960100007F1FFF0000FFAFFE0000FFD7FC049
S1131970000F3EBF80000F1E5F00000F0E2E000000
S11319803FFFFFF0003FFFFFF000000000000001F8
S11319908000000003E000000003F000000005FCEC
S11319A000000002FF000000017E4000000EBCE0C9
S11319B000000F5FEF00000FAFCE000007D79E00BE
S11319C00003EBFF000001F1FF800000F8FFC400FA
S11319D001FC7FFC0003FEBFF80007FF5FF0000F6F
S11319E0CFAFE0000F8797C0000F038B80000F007C
S11319F00500000F000200003FFFFFF0003FFFFF63
S1131A00F000006000000000F800000000FC00008E
S1131A1000017F00000000BFC00000005F900000D4
S1131A20002F3800000E17FBC0000F0BF380000FCF
S1131A3085E7800007C2FFC00003E07FE00001F0FB
S1131A403FF10000F81FFF0001FC2FFE0003FE170A
S1131A50FC0007FF0BF8000FCF85F0000F8782E032
S1131A60000F038140000F000080000F0000000001
S1131A703FFFFFF0003FFFFFF000C000000000C088
S1131A8000000000C000000000C000000000C7E328
S1131A909C0000CFE7FE0000CC66660000CC6666C2
S1131AA00000CFE6660000CFE6660000CC066600C4
S1131AB000CC066600000C000000000C00000000D2
S1131AC00C00000000000000000000000000000006
S1131AD000F000000000E000000001C00000000170
S1131AE08000000003FC00000007F8000000007004
S1131AF0000000006000000000C000000001800041
S1131B00001C030000003E00000000633FF00F00D3
S1131B10637FF81F8063C01831806380186180631D
S1131B200038C300631FFF8600631FFF0C006300BF
S1131B30001800630000300063FFFFE00063FFFF54
S1131B40C0003E000000001C000000007E7E7E7E7F
S1131B5000001819FC000000001C39FE0000000001
S1131B601E7986000000001E7986000000001BD943
S1131B70863D8000001999867F8000001999FE63D4
S1131B808000001819FC6180000018198061800031
S1131B900018198061800000181980638000001803
S1131BA019807F8000001819803D8000000000002B
S1131BB0000000000000030C0000003E1CE30C7C4D
S1131BC03E007F3FF30CFE7F00C333330CC663003B
S1131BD0C033330C066300C03333FC0E6300C033E0
S1131BE033FC1C6300C033330C386300C033330C44
S1131BF0706300C333330CE063007F33330CFE7F28
S1131C00003E33330CFE3E000000000000000000E4
S1131C100000C60000738738C60300FFCFFCC63F30
S1131C2000CCCCCCFE7F00CCCCCCFE6300CCCCCCA6
S1131C30C66300CCCCCCC67F00CCCCCCC63F00CC99
S1131C40CCCCC603000000000003000000000063C9
S1131C5000000000007F00000000003E0071C92F5A
S1131C607839888A29284845888A29284845488A0D
S1131C70292F484548F22928784528822928604593
S1131C802882292850451881C6CF4839183F80003A
S1131C90781E00007FC000781E0000FFE000781E60
S1131CA00000FFE000381C0000E0E0003C3C0000C5
S1131CB0E0E0003C3C0000E0E0003C3C0000E0E0F0
S1131CC0003C3C0000E0E0001E787F00E0E1FE1EE6
S1131CD078FF80FFE3FF1E78FF80FFE3FF1E78E3B9
S1131CE080FFE3FF0E70E380FFE3870FF0E380E003
S1131CF0E3870FF0E380E0E3870FF0E380E0E3FFA6
S1131D0007E0FFE0E0E3FE07E0FFE0E0E1C007E01A
S1131D107EE00001C0000000000001FF00000000A0
S1131D200003FF800000000003FF800000000003A8
S1131D308380000000000383800000000003838090
S1131D400000000003FF800000000003FF8000008B
S1131D50000001FF0000000000000000000000007F
S1131D601E0000003F0000003F00000073800000E0
S1131D7061800000E1C00000C0C00001C0E00001BB
S1131D80806000039C7000033E3000077F3800062B
S1131D900718000E071C000C7F8C001C3FCE001897
S1131DA01FE6003801F7003000F30070007B80600C
S1131DB0003980E00019C0C00000C0C00000C0FFAE
S1131DC0FFFFC07FFFFF800011241FBECFEFCDBFF8
S1131DD0DFE7DEBF14E4A0E0B0E4EAE8F1E600E007
S1131DE00BBF02C007900D92A63CB107D9F725E4BA
S1131DF0A6ECB4E401C01D92A038B207E1F70E943A
S1131E00DC2A0C94C3300C9400006150710920E06A
S1131E1030E00EC0DC01A20FB31F4C91FC01E60FB1
S1131E20F71F50815C9340832F5F3F4F61507109CE
S1131E30261737077CF30895CF92DF92EF92FF9233
S1131E400F931F93CF93DF938A016901C0E0D0E021
S1131E5011C07801EC0EFD1E2AE030E040E050E0B5
S1131E600E942F2E605DF7016083622F732F842FF1
S1131E70952F2196611571058105910551F706C0CD
S1131E80F801EC0FFD1F80E380832196CC15DD055E
S1131E90BCF3BE01C8010E94050FF801EC0FFD1F41
S1131EA01082CE01DF91CF911F910F91FF90EF909F
S1131EB0DF90CF900895E0E4F4E020812D7F20832B
S1131EC0208121602083BC0180E090E00E94502C9E
S1131ED020E030E040E851E40E94572D9B01AC0122
S1131EE060E07BE187EB9EE40E94A82B20E030E0D9
S1131EF040E05FE30E94372B0E94212CE0E2F8E0EF
S1131F00608771878681806C868308959091240808
S1131F1095FFFCCF8093220808950F931F93CF93CE
S1131F20DF938C01C0E0D0E007C0F801EC0FFD1F87
S1131F3080810E94860F2196F80101900020E9F724
S1131F403197E01BF10BCE17DF0778F38AE00E948C
S1131F50860FDF91CF911F910F9108950F931F93D7
S1131F60CF93DF938C01C0E0D0E007C0F801EC0F01
S1131F70FD1F80810E94860F2196F80101900020A8
S1131F80E9F73197E01BF10BCE17DF0778F3DF9108
S1131F90CF911F910F91089520E030E049E455E47A
S1131FA00E941C0F89E495E40E948D0F0895E0E0DF
S1131FB0F4E0808180688083A4E0B4E08C91806840
S1131FC08C93808180618083808180648083E0E45D
S1131FD0F9E08081806380838081816080838C913B
S1131FE080688C93089580934409809143098823E1
S1131FF0E4F70895DC0120E030E00CC0FD01E20FBD
S1132000F31F908190934409909143099923E4F735
S11320102F5F3F4F462F50E0241735077CF3089578
S1132020E0E0F9E081E0858383E084830895E0E0E3
S1132030F9E080818F7E80838081837F80838081AB
S11320408D7F80830895E0E0F9E087E6868381E070
S1132050858383818A6083838381816083830895F8
S1132060CF93DF93C82FD62F8091050983708330D7
S113207089F480E590E40E948D0F20E63AEE01C0D9
S11320809C01809105098370833021F4C901019773
S1132090232BB1F785E080930509DD2341F08C2FD4
S11320A090E0880F991F81608093070904C08C2FEA
S11320B0880F8093070980E69AEE2091050924FF92
S11320C006C02091050926FD02C00197B1F7892BAE
S11320D021F48AE590E40E948D0F8091050982FF26
S11320E004C082E690E40E948D0FDF91CF910895A1
S11320F0CF93DF93C0E6DAEE80910509882314F0CC
S11321002197D1F78091050983FD04C080910509C9
S113211082FF09C085E990E40E948D0F0E9410108F
S113212081E080934845CD2B39F48AE590E40E9400
S11321308D0F81E08093484580910809DF91CF910C
S1132140089585E88093A000E0E0F6E084E08183D0
S113215081E082838083089581E080930A06089554
S1132160809308060E94AC1080910D0680FFFCCF7E
S11321708091100690911106089580E895E20E94DE
S11321805B0F0E9417100E94231061E088E70E94F1
S113219030100895CF93DF930E947810C82FD0E0B9
S11321A0DC2FCC270E947810C82B0E9478100E9444
S11321B07810BE0180E090E00E94502CDF91CF9116
S11321C008950E94CA1020E030ED4CE455E40E94CA
S11321D0362B2CEE31E143E853E40E94A82B0895FA
S11321E0CF92DF92EF92FF921F93CF93DF93182F3A
S11321F0C0E0D0E0C12CD12C760111C00E94E110C6
S11322009B01AC01C701B6010E94372B20E030E0EE
S113221040E05FE30E94572D6B017C012196812FE2
S113222090E0C817D90754F32FE03CED4EE452E494
S1132230C701B6010E94572DDF91CF911F91FF90E6
S1132240EF90DF90CF900895E0E0F4E08081806823
S11322508083E0E2F4E0808180618083E0E4F4E064
S11322608081806280830895CF93DF93E0E2F4E07D
S1132270248120612483C0E0D4E02C812F772C8337
S11322800E94FA0F8C8180688C83DF91CF9108952E
S1132290CF93DF93E0E2F4E0948190619483C0E013
S11322A0D4E09C819F779C830E94F30F8C818F776D
S11322B08C83DF91CF9108950F931F93CF93DF9376
S11322C0C0E2D4E09C819F7E9C8300E014E0F8018E
S11322D094819F7794830E94F30FF801848180682E
S11322E084838C8180618C83DF91CF911F910F91C6
S11322F008950F931F93CF93DF93C0E2D4E09C81A2
S11323009F7E9C8300E014E0F80194819F7794837E
S11323100E94F30FF8018481806884838C8180613A
S11323208C83DF91CF911F910F910895CF93982FB4
S11323309F70C82FC295CF70C067892F80660E9496
S113234079118C2F0E947911CF910895CF93C82FC2
S1132350C295CF70C0618F700E9479118C2F0E943A
S11323607911CF9108950F931F93CF93DF93062F85
S1132370122FD8E1D80FC8E1C40F8D2F0E94A611E7
S1132380802F0E94961184EF0E945C118D2F0E9471
S1132390791186EF0E945C118C2F0E94791187EFCE
S11323A00E945C11812F0E94791188EF0E945C11B8
S11323B0DF91CF911F910F910895CF93DF932FE970
S11323C04FE460E080E00E94B311C0E0D0E004C0BC
S11323D080E00E9448112196C11584E6D807C4F311
S11323E0DF91CF910895E0E0F4E084818F778483D6
S11323F0E0E2F4E0848180618483E0E4F4E08481B9
S11324008F7D84832FEF88EF95E1215080409040A9
S1132410E1F700C000008481806284832FEF8EE99D
S113242094E2215080409040E1F700C0000088EB26
S11324300E945C1180E10E94791182EE0E945C117D
S11324402FEF85EA9EE0215080409040E1F700C0E4
S113245000008BEE0E945C1181E80E945C118BE409
S11324600E945C118BE20E945C1184EC0E945C115E
S113247089E80E945C1184E20E945C1182EA0E9455
S11324805C1181EF0E945C118FE90E94791184E84C
S11324900E945C1182EF0E945C1180E00E9479111D
S11324A083EF0E945C1182E30E94791180E40E9410
S11324B05C1180E50E945C1181ED0E945C1186ED47
S11324C00E945C1188EC0E945C1185E00E945C1102
S11324D088ED0E945C110E94DD118DEA0E945C115E
S11324E008952F923F924F925F926F927F928F92B4
S11324F09F92AF92BF92CF92DF92EF92FF920F938F
S11325001F93CF93DF93CDB7DEB76197CDBFDEBF07
S11325108F836C871A012B87902E2DB73EB72E8799
S11325203F878BEA089F812D112486958A8790E046
S1132530DC01AA0FBB1FAD83BE836D01BB0FEE0888
S1132540FF0800E010E0412C512C320109831A836A
S11325509D864601570189C0EDB7FEB7E887F98724
S11325602DB73EB78D819E81281B390B2DBF3EBFF1
S1132570ADB7BEB71196AB83BC83AD0180E090E0EC
S113258005C0FA01E80FF91F108201968C01092E8B
S1132590000C220B330B081519052A053B058CF397
S11325A060E070E030E020E0ED843DC0F101E40D36
S11325B0F51DF490BFEF4B1A5B0A6B0A7B0A87E0A8
S11325C090E02DC0EF2DF0E0082E02C0F595E795C0
S11325D00A94E2F7E0FF1DC0E32FF0E0E88BF98BEB
S11325E08F01040F151FD801CC90A22FB0E0AA0FC1
S11325F0BB1FAB5EBF4BDC90DC28F801D082E889BE
S1132600F9893196E40FF51F10811196AC91A12B35
S1132610A0832F5F233010F03E5F20E001979923C1
S11326208CF66F5F7F4F8E2D86958695869590E00C
S1132630681779070CF4BACF6C85F9816F0F262FD0
S11326404A853F81430F832F0E94B3116D817E81A0
S11326508B819C810E943411888599858DBF9EBF92
S1132660A981BA811196A983BA83BB858B2F90E087
S1132670E981FA81E817F9070CF46ECF2E853F85BE
S11326802DBF3EBF6196CDBFDEBFDF91CF911F91BD
S11326900F91FF90EF90DF90CF90BF90AF909F90FD
S11326A08F907F906F905F904F903F902F90089500
S11326B02F923F924F925F926F927F928F929F924E
S11326C0AF92BF92CF92DF92EF92FF920F931F933C
S11326D0CF93DF93CDB7DEB76297CDBFDEBFA82E11
S11326E0688B4A01322E2DB73EB7298B3A8B202EA8
S11326F0269426942694222D30E0A32DB0E00E9447
S11327004E2E9B01AC01AE2DB0E00E945D2E2B013C
S11327103C018BEA089F012D112406950D87802F1B
S113272090E0DC01AA0FBB1FAE87BF87CD01092E45
S1132730000CAA0BBB0B8F839887A987BA8700E08C
S113274010E08FC0ADB7BEB7AB87BC87EDB7FEB79F
S11327502F813885E21BF30BEDBFFEBF8DB79EB70B
S113276001968D839E83AC0180E090E049825A8279
S11327706B827C82322D232D2F80388449845A84A5
S113278005C0FA01E80FF91F108201966C01092EA9
S1132790000CEE08FF08C214D304E404F50488F323
S11327A049805A806B807C80232E322E60E070E05A
S11327B030E020E03CC0F401E40DF51DD4909FEF1F
S11327C0491A590A690A790A87E090E02CC0ED2D6C
S11327D0F0E0082E02C0F595E7950A94E2F7E0FFD1
S11327E01CC0A32FB0E0A983BA837D01E40EF51EBB
S11327F0F701B080A22FB0E0AA0FBB1FAB5EBF4BA6
S1132800CC90CB28C082E981FA813196E40FF51F80
S1132810F0801196AC91AF29A0832F5F233010F084
S11328203E5F20E00197992394F66F5F7F4F822DDE
S113283090E0681779070CF4BECF6889600F262FE3
S11328404D854A0D8A2D0E94B3116E857F858D8139
S11328509E810E9434112B853C852DBF3EBF0F5FA6
S11328601F4F832D90E0081719070CF46BCF89894B
S11328709A898DBF9EBF6296CDBFDEBFDF91CF9197
S11328801F910F91FF90EF90DF90CF90BF90AF908A
S11328909F908F907F906F905F904F903F902F907C
S11328A00895FF920F931F93CF93DF93F62EC22FB9
S11328B0002381F0D42FD81B0E94B311C0E007C0BD
S11328C08FEF0E9448118FEF0E944811CF5FCD1700
S11328D0B8F313C00E94B3110C2F10E00F191109A3
S11328E0C0E0D0E007C08FEF0E94481180E00E9452
S11328F048112196C017D107B0F3DF91CF911F91F2
S11329000F91FF900895FF920F931F93CF93DF933E
S1132910F62EC22F002381F0D42FD81B0E94B311AE
S1132920C0E007C08FEF0E9448118FEF0E9448114A
S1132930CF5FCD17B8F313C00E94B3110C2F10E072
S11329400F191109C0E0D0E007C088EF0E944811B8
S113295080E00E9448112196C017D107B0F3DF919F
S1132960CF911F910F91FF900895DF92EF92FF9204
S11329700F931F93CF93DF93F82ED62EE42E022FBE
S1132980061B842F90E08F19910963E070E00E9488
S1132990F92DD62F10E013C0612F6D0D262F4E2D6B
S11329A08F2D0E94B311C0E007C08FEF0E94481121
S11329B08FEF0E944811CF5FCD17B8F31F5F101738
S11329C058F3DF91CF911F910F91FF90EF90DF901B
S11329D00895DF92EF92FF920F931F93CF93DF93AB
S11329E0F82ED62EE42E022F061BD42FD81B10E06F
S11329F013C0612F6D0D262F4E2D8F2D0E94B31104
S1132A00C0E007C080E00E94481180E00E944811A5
S1132A10CF5FCD17B8F31F5F101758F3DF91CF9135
S1132A201F910F91FF90EF90DF900895CF93DF9364
S1132A30A0E4B4E08C918F7B8C9356968C9156973E
S1132A40816056968C935697E0E8F4E080818D7F00
S1132A50808381898260818B80818B7F808382895E
S1132A608260828BC0EAD4E088818B7F88838A89E4
S1132A7082608A8B80818E7F808380898260808B54
S1132A808C9184608C93E0E2F4E0808180628083A6
S1132A90DF91CF91089580910B45882369F181E0FE
S1132AA08093F344809114408F5F8093144084306A
S1132AB018F081E08093144080911440823049F0F2
S1132AC0833061F0813079F48DEA90E40E948D0FB7
S1132AD011C08EEC90E40E948D0F0CC081EF90E445
S1132AE00E948D0F07C081E08093144081E191E43E
S1132AF00E948D0F10920B4508950F9380910A4503
S1132B00882309F45EC1809108408F5F8093084058
S1132B10853018F081E0809308408091084082302D
S1132B2009F453C018F4813041F027C1833009F40B
S1132B3094C0843009F4D9C020C180910945882308
S1132B4059F0E0E0FAE080818160808380910F4059
S1132B509091104080A791A780910F4090911040D0
S1132B608093CC449093CD4480911140811113C043
S1132B708091D7449091D8448093CC449093CD4491
S1132B80E0E0FAE08081816080838091D744909175
S1132B90D84480A791A781E08093CB4408E221E345
S1132BA048E257E16AE285E30E94711221E34DE1B4
S1132BB058E168E282E40E9471122FE04AE75AE188
S1132BC06FE582E40E947112F9C08091094588235F
S1132BD059F0E0E0FAE080818160808380910D40CB
S1132BE090910E4080A791A780910D4090910E4046
S1132BF08093CC449093CD4480911140811113C0B3
S1132C008091D7449091D8448093CC449093CD4400
S1132C10E0E0FAE08081816080838091D7449091E4
S1132C20D84480A791A781E08093CA4408E221E3B5
S1132C3043E356E16AE285E30E94711221E34DE128
S1132C4058E168E282E40E9471122FE04AE75AE1F7
S1132C506FE582E40E947112B1C080910945882316
S1132C6059F0E0E0FAE080818160808380910B403C
S1132C7090910C4080A791A780910B4090910C40BB
S1132C808093CC449093CD4480911140811113C022
S1132C908091D7449091D8448093CC449093CD4470
S1132CA0E0E0FAE08081816080838091D744909154
S1132CB0D84480A791A781E08093C94408E221E326
S1132CC04EE355E16AE285E30E94711221E34DE18E
S1132CD058E168E282E40E9471122FE04AE75AE167
S1132CE06FE582E40E94711269C0809109458823CE
S1132CF059F0E0E0FAE080818160808380910940AE
S1132D0090910A4080A791A78091094090910A4030
S1132D108093CC449093CD4480911140811113C091
S1132D208091D7449091D8448093CC449093CD44DF
S1132D30E0E0FAE08081816080838091D7449091C3
S1132D40D84480A791A781E08093C84408E221E396
S1132D5049E454E16AE285E30E94711221E34DE102
S1132D6058E168E282E40E9471122FE04AE75AE1D6
S1132D706FE582E40E94711221C080910F4090910E
S1132D8010408093CC449093CD4481E08093CB4415
S1132D9008E221E348E257E16AE285E30E94711206
S1132DA021E34DE158E168E282E40E9471122FE0D0
S1132DB04AE75AE16FE582E40E94711210920A45D3
S1132DC0D4C0882309F4D1C080910945811109C078
S1132DD08091E244811105C080910C45882309F457
S1132DE0C4C0809108408F5F80930840853018F0FC
S1132DF081E08093084080910840823069F118F4A2
S1132E00813041F08FC0833009F448C0843009F424
S1132E1067C088C0E0E0FAE08081816080838091AF
S1132E200F409091104080A791A708E221E348E267
S1132E3057E16AE285E30E94711221E34DE158E112
S1132E4068E282E40E9471122FE04AE75AE16FE5DA
S1132E5082E40E94711287C0E0E0FAE08081816020
S1132E60808380910D4090910E4080A791A708E245
S1132E7021E343E356E16AE285E30E94711221E310
S1132E804DE158E168E282E40E9471122FE04AE7C2
S1132E905AE16FE582E40E94711265C0E0E0FAE055
S1132EA080818160808380910B4090910C4080A749
S1132EB091A708E221E34EE355E16AE285E30E942B
S1132EC0711221E34DE158E168E282E40E9471123B
S1132ED02FE04AE75AE16FE582E40E94711243C091
S1132EE0E0E0FAE0808181608083809109409091E4
S1132EF00A4080A791A708E221E349E454E16AE289
S1132F0085E30E94711221E34DE158E168E282E415
S1132F100E9471122FE04AE75AE16FE582E40E94B1
S1132F20711221C080910F40909110408093CC4445
S1132F309093CD4481E08093CB4408E221E348E2BE
S1132F4057E16AE285E30E94711221E34DE158E101
S1132F5068E282E40E9471122FE04AE75AE16FE5C9
S1132F6082E40E94711210920A450F9108958823F9
S1132F7021F1E0E8F4E0848188608483E0E0FAE011
S1132F808081816080838091CC449091CD4480A7DE
S1132F9091A781E08093D344809124459091254565
S1132FA0A0912645B091274580930D4590930E45F9
S1132FB0A0930F45B093104512C0811110C0E0E8F2
S1132FC0F4E08481877F8483E0E0FAE0808181609B
S1132FD0808310A611A61092D344109209458091C3
S1132FE0D344882329F082E491E40E948D0F08954C
S1132FF08AEA91E40E948D0F089580910845882300
S1133000C9F18FED91E40E948D0F809109458111E2
S11330100AC08091CC449091CD448093280A909327
S1133020290A892B01F5109209451092E544109262
S1133030E9441092E8441092D9441092DA44109270
S1133040DB441092DC441092E4441092E344109266
S1133050DD441092DE441092DF441092E04480E09C
S11330600E94B71705C081E0809309450E94B717F5
S11330701092084508950E944B150E94FD170E9466
S11330807D150895CF92DF92EF92FF920E94F01087
S11330906B017C01609340457093414580934245A8
S11330A09093434520E030E0A9010E94A32B88239C
S11330B04CF41092404510924145109242451092B2
S11330C0434516C020E030E84BE354E4C701B601A1
S11330D00E94022D181664F480E090E8ABE3B4E497
S11330E08093404590934145A0934245B093434516
S11330F080911440823049F1833009F478C08130E2
S113310009F0AAC080E090E0AAE7B5E480932C45DA
S113311090932D45A0932E45B0932F4520E030E0A9
S113312048EC52E46091404570914145809142459C
S1133130909143450E94572D6093304570933145DB
S11331408093324590933345ACC060914045709173
S11331504145809142459091434529E134E04EEA4E
S11331605FE30E94572D60933C4570933D458093E7
S11331703E4590933F450F2EC12CF0E8DF2EFBE334
S1133180EF2EF5E4FF2EF02DC0922C45D0922D4564
S1133190E0922E45F0922F4520E030E84BE354E4D2
S11331A00E94022D181664F480E090E8ABE3B4E4C6
S11331B080933C4590933D45A0933E45B0933F4555
S11331C020E030E048EC52E460913C4570913D458C
S11331D080913E4590913F450E94572D6093304524
S11331E07093314580933245909333455AC0609132
S11331F040457091414580914245909143452AE074
S113320035E848E05EE30E94572D6093384570939B
S1133210394580933A4590933B450F2EC12CD12CD0
S1133220F8E4EF2EF3E4FF2EF02DC0922C45D0925B
S11332302D45E0922E45F0922F4520E030E048ECF9
S113324052E40E94572D609330457093314580932A
S113325032459093334525C081E08093144080E04B
S113326090E0AAE7B5E480932C4590932D45A09374
S11332702E45B0932F4520E030E048EC52E46091B5
S113328040457091414580914245909143450E944B
S1133290572D609330457093314580933245909318
S11332A03345FF90EF90DF90CF90089580914804CC
S11332B083FF03C081E08093EA440895E0E4F4E0EE
S11332C08481806184832FEF8EE994E221508040D1
S11332D09040E1F700C0000084818F7E84832FEF4B
S11332E08EE994E2215080409040E1F700C0000054
S11332F00E94BD100895E0E4F4E080818F7780831C
S113330087898160878B8081877F808383898160BF
S1133310838B08950E947B198091480483FF04C025
S113332081E08093EA4408951092EA4408958091DC
S1133330E7448823B1F08091480483FF09C081E009
S11333408093EA44E0E2F4E084818160848307C0EE
S11333501092EA44E0E2F4E084818E7F8483109248
S1133360E7448091EA44882329F0E0E2F4E0848190
S11333708160848308950F931F938091E944882387
S1133380F1F19091E54491113AC09091E644911184
S113339036C09091E844992391F19091E44492309D
S11333A070F14091244550912545609126457091D6
S11333B027450091D9441091DA442091DB4430919F
S11333C0DC44401B510B620B730B483E53406105B8
S11333D07105A8F481E00E94B71781E08093E54469
S11333E01092E9441092E8441092D9441092DA44BD
S11333F01092DB441092DC441092E444BCC0882355
S113340059F19091E844992339F19091E544992335
S113341019F180E00E94B7171092E5441092E94434
S11334201092E8441092D9441092DA441092DB448A
S11334301092DC441092E4448091E344882309F41C
S11334409AC01092E3441092DD441092DE4410922C
S1133450DF441092E0448FC0882391F19091E544B9
S113346091112EC09091E64491112AC09091E444A8
S1133470911126C09091E844911122C040912445B5
S11334805091254560912645709127450091D94476
S11334901091DA442091DB443091DC44401B510B01
S11334A0620B730B493E53406105710548F081E09E
S11334B00E94B71781E08093E6441092E1445BC018
S11334C09091E8449923F1F02091E6442223D1F02D
S11334D02091E4442223B1F08823A1F080E00E94EB
S11334E0B7171092E6441092E8441092E9441092FF
S11334F0E4441092D9441092DA441092DB441092BE
S1133500DC4439C0811106C0911104C08091E444A7
S1133510882389F18091E54481112DC08091E6448E
S1133520811129C08091244590912545A09126457B
S1133530B09127454091D9445091DA446091DB44DD
S11335407091DC44841B950BA60BB70B893E93400A
S1133550A105B10580F01092E5441092D94410926F
S1133560DA441092DB441092DC441092E944109245
S1133570E8441092E4441F910F9108954F925F9292
S11335806F927F928F929F92AF92BF92CF92DF926F
S1133590EF92FF928091E244882309F4D8C080918D
S11335A0E544811104C0809109458823D1F08091BC
S11335B0E344811116C081E08093E3448091244563
S11335C090912545A0912645B09127458093DD44EF
S11335D09093DE44A093DF44B093E0441092E1441E
S11335E0B6C08091E3448823E1F140912445509191
S11335F025456091264570912745C090DD44D090C3
S1133600DE44E090DF44F090E0444C195D096E091B
S11336107F09413157426105710518F180E00E942C
S1133620B7171092E3441092DD441092DE441092D6
S1133630DF441092E0441092E5441092D944109271
S1133640DA441092DB441092DC441092E944109264
S1133650E8441092E44481E08093E14410920945E7
S113366076C0882309F473C0C0902445D0902545C2
S1133670E0902645F09027454090DD445090DE448C
S11336806090DF447090E044D701C6018419950925
S1133690A609B70980319742A105B10508F057C0C2
S11336A08090304590903145A0903245B09033459C
S11336B0A50194016091344570913545809136455A
S11336C0909137450E94362B0E941A2C9B01772338
S11336D024F422273327261B370BB901330F880B19
S11336E0990B0E94522C20912C4530912D454091EC
S11336F02E4550912F450E94022D18166CF4C414C7
S1133700D504E604F70441F0C092DD44D092DE44CF
S1133710E092DF44F092E04480912845909129455D
S1133720A0912A45B0912B45C81AD90AEA0AFB0A86
S113373089EEC81683E0D806E104F10440F08092D3
S1133740344590923545A0923645B0923745FF9066
S1133750EF90DF90CF90BF90AF909F908F907F902D
S11337606F905F904F9008958091E944882341F0D1
S113377081E00E94B7171092E9441092E144089541
S11337808091E844882329F080E00E94B7171092C2
S1133790E844089580910C45882319F00E94BB19D0
S11337A004C0811102C00E94B41B0E94971908959D
S11337B00E94A11008958F929F92AF92BF92CF92D0
S11337C0DF92EF92FF92CF93C0E018C082E00E9494
S11337D0B0104091F4445091F5446091F6447091D6
S11337E0F744480F591F611D711D4093F4445093D1
S11337F0F5446093F6447093F744CF5FC43130F3DB
S11338002C2F30E040E050E06091F4447091F54496
S11338108091F6449091F7440E940D2E2093F44435
S11338203093F5444093F6445093F744CA01B901E8
S11338300E94502C23E333E343E550E40E94572DC8
S113384020E030EF4FE755E40E94A82B6B017C0188
S1133850609304457093054580930645909307450E
S113386020E030E44CE156E40E94A82B4B015C01BB
S11338706093F8447093F9448093FA449093FB4422
S1133880A701960163E373E383E590E40E94362B7A
S1133890A50194010E94A82B6093FC447093FD44FD
S11338A08093FE449093FF4420E030E44CE156E4DE
S11338B00E94A82B0E940F2D23E931EA48E959E31D
S11338C00E94572D2FE03FEC4BE55BE30E94372B22
S11338D09B01AC0160E070E080E89FE30E94A82BAC
S11338E023E333E948E853E40E94362B6093004510
S11338F0709301458093024590930345CF91FF90C7
S1133900EF90DF90CF90BF90AF909F908F900895ED
S11339108FEB9DE580931C0B90931D0BE1E1FBE085
S113392080818083E5E1FBE0808181608083E0E148
S1133930FBE080818160808308958FEB9DE5809317
S11339402C0B90932D0BE1E2FBE080818083E5E278
S1133950FBE0808181608083E0E2FBE08081816024
S1133960808308950E94881C0E949D1C08951F92C4
S11339700F920FB60F9211240BB60F928F939F9351
S1133980AF93BF93EF93FF938091160B80FF18C002
S11339908091244590912545A0912645B0912745D5
S11339A00196A11DB11D8093244590932545A093B4
S11339B02645B0932745E6E1FBE080818160808362
S11339C0FF91EF91BF91AF919F918F910F900BBE9B
S11339D00F900FBE0F901F9018951F920F920FB665
S11339E00F9211240BB60F920F931F932F933F93B3
S11339F04F935F936F937F938F939F93AF93BF93F3
S1133A00EF93FF93409120455091214560912245C9
S1133A10709123454F5F5F4F6F4F7F4F4093204519
S1133A2050932145609322457093234580911C4512
S1133A3090911D45A0911E45B0911F450196A11D71
S1133A40B11D80931C4590931D45A0931E45B093D2
S1133A501F45009118451091194520911A45309140
S1133A601B450F5F1F4F2F4F3F4F00931845109377
S1133A70194520931A4530931B45493E534061052F
S1133A80710558F021E020931345109220451092BF
S1133A9021451092224510922345893C9105A105A8
S1133AA0B10558F081E08093124510921C451092A4
S1133AB01D4510921E4510921F45E6E2FBE08081F1
S1133AC081608083FF91EF91BF91AF919F918F911E
S1133AD07F916F915F914F913F912F911F910F9122
S1133AE00F900BBE0F900FBE0F901F901895109261
S1133AF00B451092E2441092084510920C45109226
S1133B000A45089581E08093F0448093EF4408953A
S1133B100E94821D80914445882321F0809145456F
S1133B20811104C00E9424110E94F3110895809110
S1133B30134090911440891749F081E08093F04438
S1133B408093EE448093EF44909313409091ED441E
S1133B508091E244981729F08093ED4481E08093AA
S1133B60124080911345882381F081E08093F044D2
S1133B7080910C45811104C08091EB44811103C0F4
S1133B8081E08093EC441092134580911245882380
S1133B9029F081E08093EE441092124508950F932A
S1133BA02AE044E060E080E00E94E91408E32EE1AA
S1133BB04DE85CE162E38EE10E94711200E328E0CB
S1133BC04DE55CE164E68FE10E9471120F91089566
S1133BD00F932EE146E060E080E00E94B51401E01E
S1133BE02EE14FE46EE180E00E9483142DE14FE466
S1133BF06DE180E00E94831400E022E743E36FE17B
S1133C0083E30E94831401E022E74FE462E780E04B
S1133C100E94831423E74FE463E780E00E94831447
S1133C200F9108950F9300E02EE940E060E080E0FA
S1133C300E94511401E020E04FE460E080E00E9423
S1133C40831421E04FE461E080E00E94831400E0EB
S1133C502EE94FE460E08FE40E94511401E02FE963
S1133C604FE46FE980E00E9483142EE94FE46EE98B
S1133C7080E00E9483140F910895EF92FF920F93B6
S1133C801F93CF93DF93C82FD62F60914045709137
S1133C90414580914245909143450E941A2C9B01D5
S1133CA02F3E82E0380744F010924045109241457F
S1133CB01092424510924345EAE0F0E0C901BF0189
S1133CC00E94F92D182FCB01BF010E94F92DF82E67
S1133CD0C90164E670E00E94F92DE62E08E221E3B2
S1133CE047EB5AE06D2F8C2F0E945813EF2C21E3E1
S1133CF047EB5AE06D2F8DE08C0F0E945813E12E94
S1133D0021E347EB5AE06D2F8AE18C0F0E94581390
S1133D108091EF44882351F002E32DE04FE05CE111
S1133D206FE58FE10E9471121092EF44DF91CF9101
S1133D301F910F91FF90EF900895EF92FF920F93D0
S1133D401F93CF93DF93C82FD62F60913C4570917A
S1133D503D4580913E4590913F450E941A2C9B0120
S1133D602F3E82E0380744F010923C4510923D45C6
S1133D7010923E4510923F45EAE0F0E0C901BF01D0
S1133D800E94F92D182FCB01BF010E94F92DF82EA6
S1133D90C90164E670E00E94F92DE62E08E221E3F1
S1133DA047EB5AE06D2F8C2F0E945813EF2C21E320
S1133DB047EB5AE06D2F8DE08C0F0E945813E12ED3
S1133DC021E347EB5AE06D2F8AE18C0F0E945813D0
S1133DD08091EF44882351F009E32DE044EB5BE14B
S1133DE06FE58FE10E9471121092EF44DF91CF9141
S1133DF01F910F91FF90EF900895EF92FF920F9310
S1133E001F93CF93DF93182FF62E6091384570914E
S1133E10394580913A4590913B450E941A2CEB011B
S1133E20072E000C880B990B0E94522C2AE037EDC8
S1133E304FE151E40E94022D181644F410923845C3
S1133E401092394510923A4510923B45CE016AE0F2
S1133E5070E00E94F92DD62FC82FE12C08E221E34F
S1133E6047EB5AE06F2D812F0E94581309E026E09A
S1133E704CE45BE165E580E10E947112ED2E08E2FD
S1133E8021E347EB5AE06F2D8DE0810F0E94581318
S1133E90EC2E21E347EB5AE06F2D8AE1810F0E945B
S1133EA058138091EF44882351F009E32EE042E552
S1133EB05BE16FE58FE10E9471121092EF44DF9194
S1133EC0CF911F910F91FF90EF9008950F931F933F
S1133ED0CF93DF93C0E0D0E009C02AE030E040E0B7
S1133EE050E00E942F2ECA01B90121968B019C013A
S1133EF0075F1F4F2F4F3F4F033111052105310538
S1133F0060F7CE010196DF91CF911F910F91089533
S1133F102F923F924F925F926F927F928F929F92D5
S1133F20AF92BF92CF92DF92EF92FF920F931F93C3
S1133F30CF93DF93562EF22E132F442EE52E682EA8
S1133F40712C622F732F842F952F0E94661F5C01A2
S1133F501C0162E070E00E947C2E4C01C12CD12C2B
S1133F6018C0E601CC0FDD1FC80DD91D6F2D712FB0
S1133F70842D9E2D2AE030E040E050E00E942F2E58
S1133F8068837983F22E132F442EE52E4FEFC41A43
S1133F90D40AE5012197CC16DD061CF3F101E150AA
S1133FA0F048EE0FFF1FE80DF91D8F2D912F808330
S1133FB09183E02EF12CAE14BF04B4F5B701660F63
S1133FC0771FC4010E94B92F4C010AC0F501EE0FFE
S1133FD0FF1FE80DF91D108211825FEFA51AB50AC3
S1133FE0AE14BF049CF3E70121972AEFAE0124032A
S1133FF0C001259F900D1124680E791E12C0FE0188
S1134000EE0FFF1FE80DF91DE08008E128E144EE02
S113401054E0652D862D0E94581356E0650E711CE0
S11340202197DD2364F71EC02AEFAE012403C001EB
S1134030259F900D1124680E791E12C0FE01EE0F0B
S1134040FF1FE80DF91DE08008E128E144EE54E08B
S1134050652D862D0E94581356E0650E711C21971C
S1134060DD2364F7C4010E94302FDF91CF911F91AB
S11340700F91FF90EF90DF90CF90BF90AF909F9003
S11340808F907F906F905F904F903F902F90089506
S1134090DF92EF92FF920F931F93CF93DF93F82E4B
S11340A0D62EE42E022F061BD42FD81B10E013C0EB
S11340B0612F6D0D262F4E2D8F2D0E94B311C0E060
S11340C007C080E00E94481180E00E944811CF5F41
S11340D0CD17B8F31F5F101758F3DF91CF911F91DD
S11340E00F91FF90EF90DF900895DF92EF92FF928F
S11340F00F931F93CF93DF93F82ED62EE42E022F27
S1134100061BD42FD81B10E013C0612F6D0D262F72
S11341104E2D8F2D0E94B311C0E007C08FEF0E9477
S113412048118FEF0E944811CF5FCD17B8F31F5F7E
S1134130101758F3DF91CF911F910F91FF90EF90DB
S1134140DF9008952DE142E060E080E00E94752058
S113415008950F9326E946E460E080E00E94E914A4
S11341600E94A2200E94121E0E94E81D1092404547
S11341701092414510924245109243456AE286E00E
S11341800E943D1E80910F40909110408093CC443A
S11341909093CD4481E08093CB4408E221E348E24C
S11341A057E16AE285E30E94711221E34DE158E18F
S11341B068E282E40E9471122FE04AE75AE16FE557
S11341C082E40E9471122FEF82E597E02150804033
S11341D09040E1F700C000000F9108950F931F93E2
S11341E0CF93DF9327EE32E442ED5DE360914045E7
S11341F07091414580914245909143450E94572DCD
S11342000E94212C162F072FC62FD02F80910640F5
S1134210909107408C179D0788F4CD34D10510F098
S1134220CCE4D0E04C2F4E5F2DE162E08E5F0E9423
S11342307520C0930640D093074011C0C817D90712
S113424070F442E0480F2DE162E082E0810F0E94A9
S11342504820812F902F8093064090930740DF9150
S1134260CF911F910F9108950F930E94971D8091F4
S1134270F0448823E9F080911440823049F083307F
S113428061F0813079F46AE286E00E943D1E0EC03E
S11342906AE286E00E949D1E09C06AE286E00E94EE
S11342A0FD1E04C06AE286E00E943D1E1092F044A6
S11342B08091EE44882321F00E94EE201092EE4477
S11342C080911240882339F18091E244882391F04F
S11342D08DEF91E40E948D0FE0E2F4E0848180622E
S11342E084830AE22BE145EC5AE168E78CE30E94FF
S11342F071120FC087E192E40E948D0FE0E2F4E0B6
S113430084818F7D848326E94DE468E78CE30E94F1
S1134310E914109212408091E244882309F449C0C0
S11343208091E144882309F444C08091144590911C
S113433015452091244530912545821B930B9C0102
S113434022F422273327281B390B293E33408CF1D2
S11343509091114581E0892780931145882361F06C
S1134360E0E2F4E084818F7D848326E94DE468E70C
S11343708CE30E94E9140DC0E0E2F4E084818062E1
S113438084830AE22BE145EC5AE168E78CE30E945E
S113439071128091244590912545A0912645B091B4
S11343A027458093144590931545A0931645B093E3
S11343B017458091EC44882309F457C080910C453B
S11343C0882309F442C0E0E4F4E0848184608483B7
S11343D08091C6449091C74401968093C6449093BB
S11343E0C744039724F01092C6441092C7448091A6
S11343F0C6449091C7448130910571F08230910593
S1134400A1F0892BD9F408E228E142E05AE16AE7F5
S113441087E00E94711216C008E228E14AE859E1D7
S11344206AE787E00E9471120DC008E228E142E1C8
S113443059E16AE787E00E94711204C01092C644F1
S11344401092C7441092EB440EC0E0E4F4E084817F
S11344508B7F848326E94EE168E787E00E94E914B4
S113446081E08093EB441092EC448091F2448111FA
S113447004C08091F144882341F000E22AE14FE531
S11344805DE16CE784E20E9471120F910895E0E00F
S1134490F4E0808181608083808182608083808970
S11344A08860808BE0E0FAE088EB9BE086A397A32A
S11344B010A611A610A211A281818061818381813D
S11344C08360818380818160808380818260808336
S11344D008959DE994BF8093001008951F93CF938E
S11344E0DF93EC01162F8091021081FDFCCF83E154
S11344F090E00E946922DC5E188380E090E00E94D4
S11345006922DF91CF911F910895209102100E949A
S1134510AE300895AF92BF92CF92DF92EF92FF92A6
S11345200F931F93CF93DF9381E090E00E94852245
S1134530A82E83E090E00E94852291E0811101C0C1
S113454090E09093444500E0C12CD12C7601B12C2D
S11345506DC081E00E94F010609340457093414526
S1134560809342459093434580914845882379F050
S11345708091464590914745019680934645909396
S113458047451092484582E392E40E948D0F2091A2
S11345904045309141454091424550914345C701C2
S11345A0B6010E94A32B811106C082E492E40E940A
S11345B08D0F1F5F05C08DE592E40E948D0F10E002
S11345C0C0904045D0904145E0904245F09043452D
S11345D0219603C0C0E0D0E010E0CA30D1050CF44D
S11345E0B8CF8091464590914745049714F416300E
S11345F040F00E945E190F5F1092464510924745A5
S113460015C010924645109247451092444560E00B
S113461081E090E00E946E226091444583E090E046
S11346200E946E2200E0BB24B394A12CB11002C0FE
S1134630033080F2033088F161E06A0D81E08093F9
S1134640444581E090E00E946E226091444583E0FD
S113465090E00E946E228FE295E70197F1F700C087
S1134660000060910C4582E090E00E946E2260910F
S1134670E24486E090E00E946E2261E085E090E0F2
S11346800E946E228FE295E70197F1F700C00000C7
S113469061E081E490E00E94BD30DF91CF911F91F1
S11346A00F91FF90EF90DF90CF90BF90AF9008955F
S11346B080E00E94B7170E9456190E94CF1D0E94E5
S11346C05E190E948A22089585E090E00E94852266
S11346D091E0811101C090E09093454560E085E050
S11346E090E00E946E2283E090E00E94852291E097
S11346F0811101C090E090934445992341F082E0F8
S113470090E00E94852286E090E00E948522089530
S1134710209102100E94B6300895CF92DF92EF925A
S1134720FF920F9385E190E00E948823611527E9A9
S1134730720729E4820721E0920720F021E0209308
S1134740F24402C01092F2440F2EF0E8CF2EFEEE97
S1134750DF2EF6E3EF2EF12CF02DA70196010E9437
S11347600D2E04E06BE286E40E94881F81E190E054
S11347700E948823A70196010E940D2E67E686E415
S11347800E94881F0F91FF90EF90DF90CF900895C3
S1134790AF92BF92CF92DF92EF92FF920F931F934B
S11347A0CF93DF93EC016A017B015C018FEFA81AC0
S11347B0B80A642FCE010E946E226D2D8E010E5F09
S11347C01F4FC5010E946E226E2D2396C8010E94C0
S11347D06E226F2D772788279927CE010E946E229B
S11347E0DF91CF911F910F91FF90EF90DF90CF90C9
S11347F0BF90AF900895CF92DF92EF92FF920F9304
S1134800C0902445D0902545E0902645F09027455A
S113481084C0E0E4F4E0808580748087882309F410
S11348207CC0E0E8F4E0808584708087882309F404
S113483074C026E940E560E080E00E94E91400E3EA
S113484024E14CE654E069E485E00E94711200E43E
S11348502EE14CE753E069E486E10E94711208E11D
S11348602EE142E253E069E48AE20E94711200E41C
S11348702EE142E352E069E482E30E9471122EE1E8
S113488042E451E06DE586E00E9471120E94771DBA
S113489080910B45811110C09091E24491110CC09C
S11348A090910845911108C090910C45911104C054
S11348B090910A45992361F390910C45992369F1EC
S11348C010920C4581110CC09091E244911108C0E2
S11348D090910845911104C090910A45992391F350
S11348E0809108458823C9F01092084540E050E0C3
S11348F0BA0185E190E00E94C8238AE792E40E940D
S11349008D0F1092F24426E940E560E080E00E94B9
S1134910E9140E94A5240E94771D8091244590915A
S113492025459601281B390BC901813630EF9307C1
S113493024F0803A9F400CF46CCF0E94771D0F91B5
S1134940FF90EF90DF90CF9008950F9326E946E40F
S113495060E080E00E94E91400E42EE144E959E0BB
S11349606BE281E00E94711200E32EE140EE58E018
S11349706BE287E10E9471122EE14CE258E067E697
S113498081E00E94711200E22EE144EB57E067E6F9
S113499081E10E94711200E32EE140EE58E067E6E7
S11349A08CE10E9471120E948D230E94FB2326E950
S11349B040E560E080E00E94E9140F910895CF92F1
S11349C0DF92EF92FF920F931F9380912445909171
S11349D02545A0912645B091274500910D4510919C
S11349E00E4520910F4530911045BC01CD01601B4F
S11349F0710B820B930B0E94CC0F809124459091F4
S1134A002545A0912645B091274540910D455091EB
S1134A100E4560910F4570911045841B950BA60BB4
S1134A20B70B813C9742A940B10508F463C080915B
S1134A30D344882309F45EC082E992E40E948D0F76
S1134A4081E190E00E9488236B017C018EEC92E46A
S1134A500E948D0FC701B6010E94CC0F80ECC80ED6
S1134A6087E2D81E89E0E81EF11CC701B6010E9446
S1134A70CC0FB701A60181E190E00E94C82381E137
S1134A8090E00E9488230E94CC0F85E190E00E9470
S1134A9088236B017C0120ECC20E27E2D21E29E0A0
S1134AA0E21EF11CC701B6010E94CC0FB701A6019A
S1134AB085E190E00E94C823C11487E9D80689E4FF
S1134AC0E80681E0F80620F081E08093F14402C01A
S1134AD01092F1448091244590912545A09126455A
S1134AE0B091274580930D4590930E45A0930F45B3
S1134AF0B09310451F910F91FF90EF90DF90CF90EE
S1134B0008951F920F920FB60F9211240BB60F92B5
S1134B108F93EF93FF938091A90482FF12C0809139
S1134B200C45882319F010920C4503C081E0809352
S1134B300C4581E08093D544E0EAF4E0818584600B
S1134B408187FF91EF918F910F900BBE0F900FBE55
S1134B500F901F9018951F920F920FB60F92112469
S1134B600BB60F922F933F934F935F936F937F9363
S1134B708F939F93AF93BF93EF93FF9380914904D7
S1134B8086FF4BC080910B4581111CC08091244548
S1134B9090912545A0912645B09127454091CE445A
S1134BA05091CF446091D0447091D144841B950BB3
S1134BB0A60BB70B8B3F9105A105B10518F081E059
S1134BC080930B458091480486FF14C081E0809354
S1134BD0D4448091244590912545A0912645B091D7
S1134BE027458093CE449093CF44A093D044B09370
S1134BF0D1440EC08091480486FD0AC01092CE4470
S1134C001092CF441092D0441092D1441092D444C4
S1134C10E0E4F4E0818580648187809149048823FD
S1134C200CF04DC080910C45882389F18091E944B2
S1134C3081111BC0909148049923BCF481E00E9427
S1134C40B7178091244590912545A0912645B091B0
S1134C5027458093D9449093DA44A093DB44B093DE
S1134C60DC4481E08093E94425C0882319F18091D4
S1134C7048048823FCF080E00E94B7178091E44444
S1134C808F5F8093E44481E08093E84413C0809173
S1134C90E944811108C080914804882324F481E008
S1134CA08093E94407C08091480488231CF081E084
S1134CB08093E844E0E4F4E0818580688187809112
S1134CC0490483FF08C081E08093E744E0E4F4E012
S1134CD0818588608187FF91EF91BF91AF919F910A
S1134CE08F917F916F915F914F913F912F910F9091
S1134CF00BBE0F900FBE0F901F9018951F920F922E
S1134D000FB60F9211240BB60F922F933F934F932C
S1134D105F936F937F938F939F93AF93BF93EF931F
S1134D20FF938091890481FF0AC081E08093084544
S1134D3080931140E0E8F4E081858260818780916E
S1134D40890482FF12C08091E244882319F01092F2
S1134D50E24403C081E08093E24481E08093D6443E
S1134D60E0E8F4E08185846081878091890480FF94
S1134D700CC086EE92E40E948D0F81E080930A4578
S1134D80E0E8F4E0818581608187FF91EF91BF9134
S1134D90AF919F918F917F916F915F914F913F91CF
S1134DA02F910F900BBE0F900FBE0F901F90189570
S1134DB01092114085E093E40E948D0F8BE393E4FD
S1134DC00E94AE0F6091CB4470E080E090E00E94BE
S1134DD0CC0F8BE493E40E94AE0F6091CA4470E060
S1134DE080E090E00E94CC0F8BE593E40E94AE0F2C
S1134DF06091C94470E080E090E00E94CC0F8BE6A3
S1134E0093E40E94AE0F6091C84470E080E090E0AB
S1134E100E94CC0F6FC38091D644882309F469C0E3
S1134E208091CB44882309F464C08BE793E40E9407
S1134E308D0F8091D2448F5F8093D244853018F0D7
S1134E4081E08093D2448091D2448230B9F018F446
S1134E50813031F03DC08330F9F0843059F138C0ED
S1134E60E0E0FAE080818160808388E097E080A7B9
S1134E7091A780930F409093104030C0E0E0FAE097
S1134E808081816080838AE397E080A791A78093E3
S1134E900F409093104022C0E0E0FAE080818160EE
S1134EA080838CE697E080A791A780930F4090932E
S1134EB0104014C0E0E0FAE08081816080838EE9D4
S1134EC097E080A791A780930F409093104006C06D
S1134ED088E097E080930F40909310401092D6445E
S1134EE080910F40909110408093D7449093D84480
S1134EF001C38091D544882309F469C08091CB44CF
S1134F00882309F464C086E993E40E948D0F80919C
S1134F10D2448F5F8093D244853018F081E080932F
S1134F20D2448091D2448230B9F018F4813031F007
S1134F303DC08330F9F0843059F138C0E0E0FAE044
S1134F4080818160808388E097E080A791A7809327
S1134F500F409093104030C0E0E0FAE0808181601F
S1134F60808386ED96E080A791A780930F4090936D
S1134F70104022C0E0E0FAE080818160808384EA0E
S1134F8096E080A791A780930F409093104014C09F
S1134F90E0E0FAE080818160808382E796E080A788
S1134FA091A780930F409093104006C088E097E04B
S1134FB080930F40909310401092D54480910F40FD
S1134FC0909110408093D7449093D84493C2809199
S1134FD0D644882309F469C08091CA44882309F41B
S1134FE064C081EB93E40E948D0F8091D2448F5F63
S1134FF08093D244853018F081E08093D24480912C
S1135000D2448230B9F018F4813031F03DC083309D
S1135010F9F0843059F138C0E0E0FAE08081816031
S1135020808380ED97E080A791A780930D409093B3
S11350300E4030C0E0E0FAE080818160808382E04D
S113504098E080A791A780930D4090930E4022C0D2
S1135050E0E0FAE080818160808384E398E080A7C7
S113506091A780930D4090930E4014C0E0E0FAE0C5
S11350708081816080838AEC98E080A791A78093E7
S11350800D4090930E4006C080ED97E080930D4054
S113509090930E401092D64480910D4090910E4012
S11350A08093D7449093D84425C28091D5448823D3
S11350B009F469C08091CA44882309F464C08DEC62
S11350C093E40E948D0F8091D2448F5F8093D244E9
S11350D0853018F081E08093D2448091D2448230AC
S11350E0B9F018F4813031F03DC08330F9F08430E8
S11350F059F138C0E0E0FAE080818160808380ED7E
S113510097E080A791A780930D4090930E4030C004
S1135110E0E0FAE08081816080838EE997E080A7F7
S113512091A780930D4090930E4022C0E0E0FAE0F6
S11351308081816080838CE697E080A791A780932B
S11351400D4090930E4014C0E0E0FAE0808181604D
S113515080838AE397E080A791A780930D40909382
S11351600E4006C080ED97E080930D4090930E4072
S11351701092D54480910D4090910E408093D74475
S11351809093D844B7C18091D644882309F469C068
S11351908091C944882309F464C089EE93E40E9491
S11351A08D0F8091D2448F5F8093D244853018F064
S11351B081E08093D2448091D2448230B9F018F4D3
S11351C0813031F03DC08330F9F0843059F138C07A
S11351D0E0E0FAE080818160808380E699E080A746
S11351E091A780930B4090930C4030C0E0E0FAE02C
S11351F080818160808382E999E080A791A7809370
S11352000B4090930C4022C0E0E0FAE08081816082
S1135210808384EC99E080A791A780930B409093BE
S11352200C4014C0E0E0FAE080818160808386EF66
S113523099E080A791A780930B4090930C4006C0FF
S113524080E699E080930B4090930C401092D644F2
S113525080910B4090910C408093D7449093D84414
S113526049C18091D544882309F469C08091C94417
S1135270882309F464C085E094E40E948D0F809132
S1135280D2448F5F8093D244853018F081E08093BC
S1135290D2448091D2448230B9F018F4813031F094
S11352A03DC08330F9F0843059F138C0E0E0FAE0D1
S11352B080818160808380E699E080A791A78093B4
S11352C00B4090930C4030C0E0E0FAE080818160B4
S11352D080838EE299E080A791A780930B409093FE
S11352E00C4022C0E0E0FAE08081816080838CEF92
S11352F098E080A791A780930B4090930C4014C032
S1135300E0E0FAE08081816080838AEC98E080A705
S113531091A780930B4090930C4006C080E699E0DF
S113532080930B4090930C401092D54480910B4095
S113533090910C408093D7449093D844DBC08091E3
S1135340D644882309F469C08091C844882309F4A9
S113535064C081E294E40E948D0F8091D2448F5FF7
S11353608093D244853018F081E08093D2448091B8
S1135370D2448230B9F018F4813031F03DC083302A
S1135380F9F0843059F138C0E0E0FAE080818160BE
S1135390808382E29BE080A791A780930940909349
S11353A00A4030C0E0E0FAE080818160808384E5D7
S11353B09BE080A791A78093094090930A4022C064
S11353C0E0E0FAE080818160808386E89BE080A74A
S11353D091A78093094090930A4014C0E0E0FAE05A
S11353E080818160808388EB9BE080A791A7809374
S11353F0094090930A4006C088EB9BE080930940E3
S113540090930A401092D6448091094090910A40AA
S11354108093D7449093D8446DC08091D544882319
S113542009F468C08091C844882309F463C08DE3FB
S113543094E40E948D0F8091D2448F5F8093D24474
S1135440853018F081E08093D2448091D244823038
S1135450B9F018F4813031F03DC08330F9F0843074
S113546059F138C0E0E0FAE080818160808388EB04
S11354709BE080A791A78093094090930A4030C095
S1135480E0E0FAE080818160808386E89BE080A789
S113549091A78093094090930A4022C0E0E0FAE08B
S11354A080818160808384E59BE080A791A78093BD
S11354B0094090930A4014C0E0E0FAE080818160E2
S11354C0808382E29BE080A791A780930940909318
S11354D00A4006C088EB9BE08093094090930A4001
S11354E01092D5448091094090910A408093D7440A
S11354F09093D84480911140882309F48CCC109265
S113550011402BE94BE46AE787E30E94E9146091B8
S1135510D7447091D844072E000C880B990B0E9435
S1135520CC0F1092D4441092CB441092CA441092DF
S1135530C9441092C84489E594E40E948D0F809177
S1135540D7449091D84408950F938091D4448823EC
S113555089F18091244590912545A0912645B091EB
S113556027454091CE445091CF446091D0447091EE
S1135570D144841B950BA60BB70B893B9B40A1051B
S1135580B105C0F080E794E40E948D0F09E121E1A8
S113559044E85AE062E88CE30E9471120E94D82623
S11355A01092CE441092CF441092D0441092D14421
S11355B01092D4440F910895F89495E288ED84BF35
S11355C0909368000E94B21C80E895E20E945B0FF1
S11355D0E0E4F4E080818061808384818F7E848331
S11355E0C0E2D4E08881816088830E9447220E94BF
S11355F0D70F8881816088838C818E7F8C83E0E8DB
S1135600F4E08081886080830E94BD100E9464233E
S11356100E94D81B0E9416150E94881D0E948A1998
S11356200E9458232FEF82E597E02150804090405C
S1135630E1F700C0000078940E94A5240E94A920EC
S113564081E894E40E948D0F82E30E9442180E9434
S11356503B180E94CA1B0E94DB1B0E9434210E943B
S1135660BE1A0E94A42A0E94DF24EECF5058BB2702
S1135670AA270E944E2B0C94C82C0E94BA2C38F0F6
S11356800E94C12C20F039F49F3F19F426F40C94A5
S1135690B72C0EF4E095E7FB0C94B12CE92F0E9493
S11356A0D92C58F3BA17620773078407950720F0BB
S11356B079F4A6F50C94FB2C0EF4E0950B2EBA2F7E
S11356C0A02D0B01B90190010C01CA01A001112404
S11356D0FF27591B99F0593F50F4503E68F11A16B0
S11356E0F040A22F232F342F4427585FF3CF469541
S11356F037952795A795F0405395C9F77EF41F1663
S1135700BA0B620B730B840BBAF09150A1F0FF0F2C
S1135710BB1F661F771F881FC2F70EC0BA0F621F18
S1135720731F841F48F4879577956795B795F79508
S11357309E3F08F0B0CF9395880F08F09927EE0F9D
S11357409795879508950E948D2C08F481E008951B
S11357500E94BC2B0C94C82C0E94C12C58F00E94AF
S1135760BA2C40F029F45F3F29F00C94B12C51116C
S11357700C94FC2C0C94B72C0E94D92C68F399231C
S1135780B1F3552391F3951B550BBB27AA27621739
S11357907307840738F09F5F5F4F220F331F441F46
S11357A0AA1FA9F335D00E2E3AF0E0E832D091507A
S11357B05040E695001CCAF72BD0FE2F29D0660F67
S11357C0771F881FBB1F261737074807AB07B0E8AA
S11357D009F0BB0B802DBF01FF2793585F4F3AF0B0
S11357E09E3F510578F00C94B12C0C94FC2C5F3F37
S11357F0E4F3983ED4F3869577956795B795F79536
S11358009F5FC9F7880F911D9695879597F908951D
S1135810E1E0660F771F881FBB1F621773078407B9
S1135820BA0720F0621B730B840BBA0BEE1F88F7C8
S1135830E09508950E94212C6894B1110C94FC2CDD
S113584008950E94E12C88F09F5798F0B92F99276A
S1135850B751B0F0E1F0660F771F881F991F1AF057
S1135860BA95C9F714C0B13091F00E94FB2CB1E095
S113587008950C94FB2C672F782F8827B85F39F094
S1135880B93FCCF3869577956795B395D9F73EF4F0
S113589090958095709561957F4F8F4F9F4F089598
S11358A0E89409C097FB3EF49095809570956195B6
S11358B07F4F8F4F9F4F9923A9F0F92F96E9BB276C
S11358C09395F695879577956795B795F111F8CFE8
S11358D0FAF4BB0F11F460FF1BC06F5F7F4F8F4F53
S11358E09F4F16C0882311F096E911C0772321F049
S11358F09EE8872F762F05C0662371F096E8862FE1
S113590070E060E02AF09A95660F771F881FDAF737
S1135910880F9695879597F90895990F0008550F64
S1135920AA0BE0E8FEEF16161706E807F907C0F021
S113593012161306E407F50798F0621B730B840B29
S1135940950B39F40A2661F0232B242B252B21F403
S113595008950A2609F4A140A6958FEF811D811DA3
S1135960089597F99F6780E870E060E008959FEFDD
S113597080EC089500240A941616170618060906E2
S1135980089500240A9412161306140605060895B1
S1135990092E0394000C11F4882352F0BB0F40F439
S11359A0BF2B11F460FF04C06F5F7F4F8F4F9F4F79
S11359B0089557FD9058440F551F59F05F3F71F0FB
S11359C04795880F97FB991F61F09F3F79F0879562
S11359D00895121613061406551FF2CF4695F1DFEB
S11359E008C0161617061806991FF1CF869571057B
S11359F0610508940895E894BB2766277727CB01AF
S1135A0097F908950E948D2C08F48FEF089516F0ED
S1135A100C94C42D0C94B72C68940C94B12C0E9453
S1135A20E12CA8F39923C1F3AEF3DF93CF931F9333
S1135A300F93FF92C92FDD2788232AF02197660F41
S1135A40771F881FDAF720E030E040E85FEB9FE340
S1135A50883920F0803E38F021968F770E94372BCA
S1135A60E8EEF0E004C00E94372BE5E1F1E00E948B
S1135A70D22D8B01BE01EC01FB2E6F577109759578
S1135A80771F880B990B0E94522C28E132E741E3DF
S1135A905FE30E946A2DAF2D9801AE01FF900F9134
S1135AA01F91CF91DF910E944E2B0C94C82C0E9421
S1135AB06A2D0C94C82C0E94BA2C38F00E94C12C78
S1135AC020F0952311F00C94B12C0C94B72C1124D4
S1135AD00C94FC2C0E94D92C70F3959FC1F3950F64
S1135AE050E0551F629FF001729FBB27F00DB11D5E
S1135AF0639FAA27F00DB11DAA1F649F6627B00DEE
S1135B00A11D661F829F2227B00DA11D621F739FD6
S1135B10B00DA11D621F839FA00D611D221F749FE4
S1135B203327A00D611D231F849F600D211D822F2B
S1135B30762F6A2F11249F5750409AF0F1F0882352
S1135B404AF0EE0FFF1FBB1F661F771F881F91507F
S1135B505040A9F79E3F510580F00C94B12C0C9451
S1135B60FC2C5F3FE4F3983ED4F3869577956795D4
S1135B70B795F795E7959F5FC1F7FE2B880F911DA9
S1135B809695879597F908959F3F31F0915020F4A9
S1135B90879577956795B795880F911D9695879505
S1135BA097F90895DF93CF931F930F93FF92EF928A
S1135BB0DF927B018C01689406C0DA2EEF010E940B
S1135BC06A2DFE01E894A591259135914591559151
S1135BD0A6F3EF010E944E2BFE019701A801DA946F
S1135BE069F7DF90EF90FF900F911F91CF91DF91B4
S1135BF0089597FB072E16F4009407D077FD09D07B
S1135C000E94682E07FC05D03EF4909581959F4F25
S1135C100895709561957F4F0895A1E21A2EAA1BED
S1135C20BB1BFD010DC0AA1FBB1FEE1FFF1FA21748
S1135C30B307E407F50720F0A21BB30BE40BF50B45
S1135C40661F771F881F991F1A9469F760957095CE
S1135C50809590959B01AC01BD01CF010895052E5F
S1135C6097FB1EF400940E94462E57FD07D00E9415
S1135C700D2E07FC03D04EF40C94462E50954095FF
S1135C80309521953F4F4F4F5F4F089590958095E4
S1135C90709561957F4F8F4F9F4F0895A29FB001DC
S1135CA0B39FC001A39F700D811D1124911DB29F4C
S1135CB0700D811D1124911D08950E944E2EA59FE3
S1135CC0900DB49F900DA49F800D911D11240895F3
S1135CD0AA1BBB1B51E107C0AA1FBB1FA617B7070E
S1135CE010F0A61BB70B881F991F5A95A9F780952A
