S017000044635F73756374696F6E5F70756D702E73726563E1
S11300000C94720F0C94910F0C94910F0C94910F0B
S11300100C94910F0C94910F0C94910F0C94910FDC
S11300200C94910F0C94910F0C94910F0C94910FCC
S11300300C94910F0C94BA1B0C94910F0C94910F87
S11300400C94910F0C94910F0C94910F0C94910FAC
S11300500C94910F0C94910F0C94910F0C94910F9C
S11300600C94910F0C94910F0C94910F0C94910F8C
S11300700C94910F0C94E9270C94F01B0C94910FA1
S11300800C94910F0C94910F0C94BF270C94910F26
S11300900C94910F0C94910F0C94910F0C94910F5C
S11300A00C94910F0C94910F0C94910F0C94910F4C
S11300B00C94910F0C94C0280C94910F0C94910FF4
S11300C00C94910F0C94910F0C94910F0C94910F2C
S11300D00C94910F0C94910F0C94910F0C94910F1C
S11300E00C94910F0C94910F08000000BE922449C7
S11300F0123EABAAAA2ABECDCCCC4C3E0000008056
S1130100BEABAAAAAA3E00000000BF000000803FC8
S11301100000000000084178D3BB4387D1133D1988
S11301200E3CC3BD4282AD2B3E68EC8276BED98FB5
S1130130E1A93E4C80EFFFBE01C4FF7F3F000000F9
S1130140000007634236B79BD8A71A39685618AE21
S1130150BAAB558C1D3CB7CC5763BD6DEDFD753EF8
S1130160F6177231BF000000803F0000000000005D
S1130170000000000000000000000000000000007B
S11301800000FE3F3FDFEFF7F306FF7FBFDFEFF72F
S1130190FB86C36186030C061BC6C36186030C067B
S11301A01BC6C36186030C061BE6C36186030C06EB
S11301B01B66FF7F86030FC7FB76FE7F86030FC790
S11301C0F336C06186030C07833EC06186030C06C8
S11301D0C31EC06186030C06631EC06186030C0641
S11301E0330EC06186030FF61B0EC06186030FF643
S11301F00B060000000000000000000000000000EA
S113020000000000000000000000000000000000EA
S113021000000000000000000000000000000000DA
S113022000000000000000000000000000000000CA
S113023000000000000000000000000000000000BA
S113024000000000000000000000000000000000AA
S1130250000000000000000000000000000000009A
S1130260000000000000000000000000000000008A
S113027000003F1F8FE7E7F9F9807FBFDFEFF7FB4F
S1130280FD8061B0D80C30C30D806030D80C00C341
S11302900D806030D80C00C30D806030D80C00C3D2
S11302A00D807F3FDF8C00C3FD803FBF9F8C00C368
S11302B0FD8001B0180C00C30D8001B0180C00C300
S11302C00D8001B0180C00C30D8061B0180C30C350
S11302D00D807FB01FEFF7FB0DFE3F300FE7E7FB0C
S11302E00DFE0000000000000000000000000000FF
S11302F000000000000000000000000000000000FA
S113030000000000000000000000000000000000E9
S113031000000000000000000000000000000000D9
S113032000000000000000000000000000000000C9
S113033000000000000000000000000000000000B9
S113034000000000000000000000000000000000A9
S11303500000003FD8303FDC30061E30061E300659
S11303601F30061B30061BB00619B00619F006181C
S1130370F00618F00618703FD8703FD8300000001F
S11303800000000000000000000000000000000069
S11303900000000000000000000000000000000059
S11303A00000000000000000000000000000000049
S11303B00000000000000000000000003F9837FB30
S11303C0FCFCC1803FD837FBFDFEE18030D830C053
S11303D06186F18030D830C06186F18030D830C079
S11303E06186F98030D830C06186D9803F9830C0AA
S11303F06186DD803F9830C06186CD8030D830C0C2
S11304006186CF8030D830C06186C78030D830C094
S11304106186C78030D830C06186C3803FDFF0C0BA
S113042061FEC3803F8FE0C060FCC180000000001B
S113043000000000000000000000000000000000B8
S113044000000000000000000000000000000000A8
S11304500000000000000000000000000000000098
S11304600000000000000000000000000000000088
S11304700000000000000000000000000000000078
S11304800000000000000000000000000000000068
S11304900000000000000000000000000000000058
S11304A00000000000007F3F9FE7E3F07FBFDFEF25
S11304B0F7F861B0D80C361861B0D80C060061B0FA
S11304C0D80C060061B0D80C06007FBFDF8FE7F0C0
S11304D07F3F9F87F7F8603C18003018603618009B
S11304E030186033180030186031980C36186030BA
S11304F0DFEFF7F860305FEFE3F00000000000008A
S11305000000000000000000000000003FFC007F2D
S1130510FE00FFFF00FFFF00F00F00F00F00F00FE0
S113052000F00F00F00F00F00F00F00F00F00F00CC
S1130530F00F00F00F00F00F00F00F00F00F00F0CC
S11305400F00F00F00F00F00FFFF00FFFF007FFE21
S1130550003FFC0003F00007F0000FF0000FF00074
S11305600FF0000FF0000FF00001F00001F00001A7
S1130570F00001F00001F00001F00001F00001F0D2
S11305800001F00001F00001F00001F00001F000B2
S11305900FFE000FFE000FFE000FFE003FFC007F69
S11305A0FE00FFFF00FFFF00F00F00F00F00000F40
S11305B000000F00000F00000F003FFF007FFF004E
S11305C0FFFE00FFFC00F00000F00000F00000F06F
S11305D00000F00000F00000FFFF00FFFF007FFFBD
S11305E0003FFF003FFC007FFE00FFFF00FFFF0015
S11305F0F00F00F00F00000F00000F00000F0000CC
S11306000F001FFF001FFF001FFF001FFF00000F50
S113061000000F00000F00000F00F00F00F00F00AB
S1130620FFFF00FFFF007FFE003FFC00007C000096
S1130630FC0000FC0001FC0003FC0003FC0007FCC0
S1130640000FFC000FBC001F3C003F3C003E3C0080
S11306507C3C00FC3C00F83C00FFFF00FFFF00FF77
S1130660FF00FFFF00003C00003C00003C00003C99
S113067000003C00FFFF00FFFF00FFFF00FFFF0042
S1130680F00000F00000F00000F00000FFFC00FFAC
S1130690FE007FFF003FFF00000F00000F00000F6F
S11306A000000F00000F00F00F00F00F00F00F002B
S11306B0FFFF00FFFF007FFE003FFC003FFC007FC8
S11306C0FE00FFFF00FFFF00F00F00F00F00F0003E
S11306D000F00000F00000F00000FFFC00FFFE004E
S11306E0FFFF00FFFF00F00F00F00F00F00F00F01D
S11306F00F00F00F00F00F00FFFF00FFFF007FFE70
S1130700003FFC00FFFF00FFFF00FFFF00FFFF00B2
S1130710F01F00F01F00F03F00003E00003E00000C
S11307207C00007C0000FC0000F80000F80001F0F0
S11307300001F00003F00003E00003E00007C00044
S113074007C0000FC0000F80000F80003FFC007F37
S1130750FE00FFFF00FFFF00F00F00F00F00F00F9E
S113076000F00F00F00F00F00F007FFE003FFC00D0
S11307703FFC007FFE00F00F00F00F00F00F00F0D0
S11307800F00F00F00F00F00FFFF00FFFF007FFEDF
S1130790003FFC003FFC007FFE00FFFF00FFFF0066
S11307A0F00F00F00F00F00F00F00F00F00F00F05A
S11307B00F00FFFF00FFFF007FFF003FFF00000F5F
S11307C000000F00000F00F00F00F00F00F00F000A
S11307D0FFFF00FFFF007FFE003FFC000000000061
S11307E000000000000000001F986C183FD86E182D
S11307F030D86F1830D86F1830D86F9830D86D98BB
S11308003FD86DD83F986CD83C186CD836186C78A3
S113081033186C7831986C3830DFEC38304FCC3882
S113082000000000000000000000000000000000C4
S113083000000000000000000000000000000000B4
S113084000000000000000000000000000000000A4
S11308500000000000000000000000000000000094
S11308600000000000007F9F9FE7E6007FBFDFEFEE
S1130870F6000C30C30C36000C30C30C36000C30C0
S1130880C30C36000C30C30C36000C30C30FF6001A
S11308900C30C30FF6000C30C30C36000C30C30C04
S11308A036000C30C30C36000C30C30C36000C3F41
S11308B0C30C37F80C1F830C37F80000000000004D
S11308C00000000000000000000000000000000024
S11308D00000000000000000000000000000000014
S11308E00000000000000000000000000000000004
S11308F000000000000000000000000000000000F4
S113090000000000000000000000000000000000E3
S11309100000000000000000000030CFCC33F1F8EC
S113092030DFEC37FBFC30D86C361B0C30D86C361F
S11309301B0030D86C361B0030D86C361B003FD8F7
S11309406C37FBF83FD86C37F1FC30D86C37800C2F
S113095030D86C36C00C30D86C36600C30D86C365D
S1130960330C30DFEFF61BFC30CFC7E609F800008C
S11309700000000000000000000000000000000073
S11309800000000000000000000000000000000063
S11309900000000000000000000000000000000053
S11309A00000000000000000000000000000000043
S11309B00000000000000000000000000000000033
S11309C00000000000000000000000000000000023
S11309D0000000003F1FCFCC37F9F9FE7FBFDFECEA
S11309E037FBFDFE61B0186C30C30D806030186CAD
S11309F030C301806030186C30C301806030186CE3
S1130A0030C301807F3F1FEC30C301F83FBF1FCECE
S1130A1070C301F801B01E0E70C3018001B01B0742
S1130A20E0C3018001B01987E0C3018061B018C33D
S1130A30C0C30D807FBFD863C7FBFDFE3F1FD82115
S1130A4087F9F9FE0000000000000000000000002B
S1130A500000000000000000000000000000000092
S1130A600000000000000000000000000000000082
S1130A700000000000000000000000000000000072
S1130A800000000000000000000000000000000062
S1130A900000000000000000000000000000000052
S1130AA00000000000000000000000000000000F33
S1130AB0F8001FFC00180C00180C001800001800A7
S1130AC0001FF0000FF800001C00000C00180C00C0
S1130AD0180C001C1C001FFC000FF800000000078D
S1130AE0FFFF80001FFFFFE0003FFFFFF0007FFFDC
S1130AF0FFF8007FFFFFF800FFFFFFFC00FFFFFF90
S1130B00FC00FFFFFFFC00FFE01FFC00FFC00FFC28
S1130B1000FF8007FC00FF8007FC00FF8007FC004B
S1130B20FF8007FC00FF8007FC00FF8007FC00FF3C
S1130B308007FC00FF8007FC00FF8007FC00FF80AB
S1130B4007FC00FF8007FC00FF8007FC00FF800714
S1130B50FC00FF8007FC00FF8007FC00FF8007FC0F
S1130B6000FF8007FC00FF8007FC00FF8007FC00FB
S1130B70FF8007FC00FF8007FC00FF8007FC00FFEC
S1130B808007FC00FF8007FC00FF8007FC00FF805B
S1130B9007FC00FF8007FC00FF8007FC00FF8007C4
S1130BA0FC00FFC00FFC00FFE01FFC00FFFFFFFC88
S1130BB000FFFFFFFC00FFFFFFFC007FFFFFF800CA
S1130BC07FFFFFF8003FFFFFF0001FFFFFE000077B
S1130BD0FFFF80000003FE00000007FE0000000F7E
S1130BE0FE0000000FFE0000001FFE0000003FFE9C
S1130BF00000007FFE000000FFFE000001FFFE0079
S1130C000003FFFE000007FFFE000007FFFE0000D8
S1130C1007FFFE000007FFFE000007FBFE000007C1
S1130C20F3FE000007E3FE000007C3FE0000078395
S1130C30FE00000703FE00000003FE00000003FEA8
S1130C4000000003FE00000003FE00000003FE009D
S1130C50000003FE00000003FE00000003FE00008D
S1130C600003FE00000003FE00000003FE0000007D
S1130C7003FE00000003FE00000003FE000000036A
S1130C80FE00000003FE00000003FE00000003FE5F
S1130C9000000003FE00000003FE00000003FE004D
S1130CA0000FFFFFFF000FFFFFFF000FFFFFFF001C
S1130CB00FFFFFFF000FFFFFFF000FFFFFFF000FFD
S1130CC0FFFFFF000FFFFFFF00000FFF8000003F4A
S1130CD0FFE000007FFFF80000FFFFFC0001FFFFC2
S1130CE0FE0003FFFFFF0007FFFFFF8007FFFFFF7A
S1130CF0C00FFC03FFC00FF801FFE01FF000FFE08E
S1130D001FF0007FE01FF0007FE01FF0007FE01F76
S1130D10F0007FE01FF0007FE0000000FFE0000033
S1130D2001FFC0000003FFC0000007FFC000000F68
S1130D30FF8000001FFF0000003FFF0000007FFE57
S1130D40000000FFFC000001FFF8000003FFF000BA
S1130D500007FFE000000FFFC000001FFF8000003D
S1130D603FFF0000007FFE000000FFFC000001FFC9
S1130D70F8000003FFF0000007FFE000000FFFC0D1
S1130D8000001FFF8000001FFF0000003FFE000066
S1130D90003FFC0000003FFFFFFFE03FFFFFFFE0DC
S1130DA03FFFFFFFE03FFFFFFFE03FFFFFFFE03FAC
S1130DB0FFFFFFE03FFFFFFFE03FFFFFFFE0003FDB
S1130DC0FFC00000FFFFF00001FFFFF80003FFFF7A
S1130DD0FE0007FFFFFF000FFFFFFF800FFFFFFF75
S1130DE0C00FF001FFC00FC000FFC00FC0007FC0E4
S1130DF00FC0007FC00F80003FC00000003FC00054
S1130E0000003FC00000003FC00000003FC00000E1
S1130E10007FC00000007FC0000000FFC00000038E
S1130E20FFC0003FFFFF80007FFFFF00007FFFFC4B
S1130E3000007FFFF000007FFFFF00007FFFFF80C6
S1130E40007FFFFFC0003FFFFFC0000003FFC000A2
S1130E500001FFC00000007FC00000007FC0000050
S1130E60003FC00000003FC00000003FC000000081
S1130E703FC00000003FC00F80003FC00FC0007F94
S1130E80C00FC0007FC00FC000FFC00FF001FFC043
S1130E900FFFFFFF800FFFFFFF0007FFFFFF0003AF
S1130EA0FFFFFE0001FFFFFC0000FFFFF000003F1A
S1130EB0FFC000000003FE00000007FE0000000F5A
S1130EC0FE0000001FFE0000003FFE0000007FFE49
S1130ED0000000FFFE000001FFFE000003FFFE0013
S1130EE00007FFFE00000FFFFE00001FFDFE0000D4
S1130EF03FF9FE00007FF1FE0000FFE1FE0001FF6C
S1130F00C1FE0003FF81FE0007FF01FE000FFE018A
S1130F10FE001FFC01FE003FF801FE007FF001FE11
S1130F2000FFE001FE00FFC001FE00FFFFFFFFE045
S1130F30FFFFFFFFE0FFFFFFFFE0FFFFFFFFE0FF1A
S1130F40FFFFFFE0FFFFFFFFE0FFFFFFFFE0000008
S1130F5001FE00000001FE00000001FE000000018F
S1130F60FE00000001FE00000001FE00000001FE82
S1130F7000000001FE00000001FE00000001FE0070
S1130F80000001FE00000001FE00000001FE000060
S1130F900001FE00000001FE00000001FE00000050
S1130FA001FE00000001FE001FFFFFFFC03FFFFF26
S1130FB0FFC03FFFFFFFC03FFFFFFFC03FFFFFFF3A
S1130FC0C03FFFFFFFC03FFFFFFFC03FFFFFFFC069
S1130FD03FFFFFFFC03FE00000003FE00000003F94
S1130FE0E00000003FE00000003FE00000003FE0C0
S1130FF00000003FE00000003FE00000003FE3FF8E
S1131000FC003FE7FFFE003FEFFFFF003FFFFFFF55
S1131010803FFFFFFFC03FFFFFFFE03FFFFFFFE018
S11310203FFFFFFFF03FFC007FF03FF0003FF83F41
S1131030E0001FF80000000FF800000007F80000AF
S11310400007F800000007F800000007F80000009F
S113105007F800000007F83FE00007F83FE000074A
S1131060F83FE0000FF83FF0001FF83FF0003FF8B2
S11310703FF8007FF83FFFFFFFF03FFFFFFFF03F27
S1131080FFFFFFE01FFFFFFFC00FFFFFFF8007FF11
S1131090FFFF0003FFFFFE0001FFFFFC0001FFFF55
S11310A0800003FFFFE0000FFFFFF8001FFFFFFCBD
S11310B0003FFFFFFE003FFFFFFF007FFFFFFF0039
S11310C07FFFFFFF00FFF003FF00FFE001FF00FFD1
S11310D0C001FF00FF8000FF00FF80007F00FF8051
S11310E0007F00FF80000000FF80000000FF800000
S11310F00000FF80000000FF80000000FF8000006F
S113110000FF9FFE0000FFBFFF8000FFFFFFE00025
S1131110FFFFFFF000FFFFFFF800FFFFFFFC00FFF1
S1131120FFFFFE00FFFFFFFE00FFFFFFFF00FFE0E9
S113113003FF00FFC001FF00FFC001FF00FF8000AC
S1131140FF00FF8000FF00FF8000FF00FF8000FF22
S113115000FF8000FF00FF8000FF00FF8001FF0010
S1131160FFC001FF00FFE003FF00FFFFFFFF00FFE0
S1131170FFFFFF00FFFFFFFF007FFFFFFE007FFF79
S1131180FFFE003FFFFFFC001FFFFFF8000FFFFF03
S1131190F0003FFFFFFF803FFFFFFF803FFFFFFFA7
S11311A0803FFFFFFF803FFFFFFF803FFFFFFF8087
S11311B03FFFFFFF803FFFFFFF803FFFFFFF8000F7
S11311C00007FF80000007FF80000007FF80000089
S11311D00FFF0000000FFF0000001FFE0000001FB3
S11311E0FE0000001FFE0000003FFC0000003FFC6A
S11311F00000007FF80000007FF80000007FF80086
S11312000000FFF0000000FFF0000001FFE000001C
S113121001FFE0000001FFE0000003FFC000000345
S1131220FFC0000007FF80000007FF80000007FFE9
S11312308000000FFF0000000FFF0000001FFE00F1
S113124000001FFE0000001FFE0000003FFC000025
S1131250003FFC0000007FF80000007FF800000061
S11312607FF8000000FFF0000000FFF0000001FF25
S1131270E0000001FFE0000001FFE0000003FFC008
S1131280000003FFC0000001FFFFC00007FFFFF0E4
S1131290000FFFFFF8001FFFFFFC003FFFFFFE00F1
S11312A07FFFFFFF007FFFFFFF007FFFFFFF00FFC7
S11312B0FFFFFF80FFE003FF80FFC001FF80FF808E
S11312C000FF80FF00007F80FF00007F80FF0000A0
S11312D07F80FF00007F80FF00007F80FF00007F91
S11312E080FF8000FF80FFC001FF80FFE003FF80DC
S11312F07FFFFFFF007FFFFFFF003FFFFFFE001F98
S1131300FFFFFC003FFFFFFE007FFFFFFF007FFFAA
S1131310FFFF00FFFFFFFF80FFE003FF80FFC0012E
S1131320FF80FF8000FF80FF00007F80FF00007FC0
S113133080FF00007F80FF00007F80FF00007F802F
S1131340FF00007F80FF8000FF80FFC001FF80FF5F
S1131350E003FF807FFFFFFF007FFFFFFF007FFFB1
S1131360FFFF003FFFFFFE001FFFFFFC000FFFFF1A
S1131370F80007FFFFF00001FFFFC00007FFFF8038
S1131380001FFFFFE0003FFFFFF0007FFFFFF800BA
S11313907FFFFFF800FFFFFFFC00FFFFFFFC00FFE3
S11313A0FFFFFC00FFE01FFC00FFC00FFC00FF80FC
S11313B007FC00FF8007FC00FF8007FC00FF80079C
S11313C0FC00FF8007FC00FF8007FC00FF8007FC97
S11313D000FFC00FFC00FFE01FFC00FFFFFFFC004C
S11313E0FFFFFFFC00FFFFFFFC007FFFFFFC007F0F
S11313F0FFFFFC003FFFFFFC001FFFFFFC0007FF97
S1131400FFFC00000007FC00000007FC00000007D0
S1131410FC00000007FC00000007FC00000007FCC3
S113142000000007FC00000007FC00FF8007FC0030
S1131430FF8007FC00FF8007FC00FF8007FC00FF23
S1131440C00FFC00FFE01FFC00FFFFFFFC00FFFFDC
S1131450FFFC00FFFFFFFC007FFFFFF8007FFFFFA2
S1131460F8003FFFFFF0001FFFFFE00007FFFF80D1
S11314700001FFFF800003FFFFE0000FFFFFF80003
S11314801FFFFFFC003FFFFFFE003FFFFFFF007F49
S1131490FFFFFF007FFFFFFF00FFF003FF00FFE0FF
S11314A001FF00FFC001FF00FF8000FF00FF80007C
S11314B07F00FF80007F00FF80000000FF800000AD
S11314C000FF80000000FF80000000FF800000009B
S11314D0FF80000000FF9FFE0000FFBFFF8000FFB1
S11314E0FFFFE000FFFFFFF000FFFFFFF800FFFF3A
S11314F0FFFC00FFFFFFFE00FFFFFFFE00FFFFFFFA
S1131500FF00FFE003FF00FFC001FF00FFC001FF79
S113151000FF8000FF00FF8000FF00FF8000FF004D
S1131520FF8000FF00FF8000FF00FF8000FF00FF3E
S11315308001FF00FFC001FF00FFE003FF00FFFF89
S1131540FFFF00FFFFFFFF00FFFFFFFF007FFFFF24
S1131550FE007FFFFFFE003FFFFFFC001FFFFFF8C0
S1131560000FFFFFF0001FFFFFFFC03FFFFFFFC0A2
S11315703FFFFFFFC03FFFFFFFC03FFFFFFFC03F34
S1131580FFFFFFC03FFFFFFFC03FFFFFFFC03FFF64
S1131590FFFFC03FE00000003FE00000003FE0002C
S11315A000003FE00000003FE00000003FE00000DA
S11315B0003FE00000003FE00000003FE3FFFC00CC
S11315C03FE7FFFE003FEFFFFF003FFFFFFF803FCD
S11315D0FFFFFFC03FFFFFFFE03FFFFFFFE03FFFD4
S11315E0FFFFF03FFC007FF03FF0003FF83FE000DA
S11315F01FF80000000FF800000007F800000007C3
S1131600F800000007F800000007F800000007F8E1
S113161000000007F83FE00007F83FE00007F83F4C
S1131620E0000FF83FF0001FF83FF0003FF83FF8EC
S1131630007FF83FFFFFFFF03FFFFFFFF03FFFFF9A
S1131640FFE01FFFFFFFC00FFFFFFF8007FFFFFF4B
S11316500003FFFFFE0001FFFFFC00000003FE008B
S1131660000007FE0000000FFE0000001FFE000047
S1131670003FFE0000007FFE000000FFFE000001AE
S1131680FFFE000003FFFE000007FFFE00000FFF47
S1131690FE00001FFDFE00003FF9FE00007FF1FE8A
S11316A00000FFE1FE0001FFC1FE0003FF81FE0018
S11316B007FF01FE000FFE01FE001FFC01FE003FBC
S11316C0F801FE007FF001FE00FFE001FE00FFC014
S11316D001FE00FFFFFFFFE0FFFFFFFFE0FFFFFF52
S11316E0FFE0FFFFFFFFE0FFFFFFFFE0FFFFFFFF63
S11316F0E0FFFFFFFFE0000001FE00000001FE002C
S1131700000001FE00000001FE00000001FE0000D8
S11317100001FE00000001FE00000001FE000000C8
S113172001FE00000001FE00000001FE00000001B7
S1131730FE00000001FE00000001FE00000001FEAA
S113174000000001FE00000001FE00000001FE0098
S1131750003FFFC00000FFFFF00001FFFFF800039F
S1131760FFFFFE0007FFFFFF000FFFFFFF800FFFDB
S1131770FFFFC00FF001FFC00FC000FFC00FC0008B
S11317807FC00FC0007FC00F80003FC00000003F3B
S1131790C00000003FC00000003FC00000003FC088
S11317A00000007FC00000007FC0000000FFC000F8
S11317B00003FFC0003FFFFF80007FFFFF00007FAA
S11317C0FFFC00007FFFF000007FFFFF00007FFFB1
S11317D0FF80007FFFFFC0003FFFFFC0000003FF4A
S11317E0C0000001FFC00000007FC00000007FC0F7
S11317F00000003FC00000003FC00000003FC000E8
S113180000003FC00000003FC00F80003FC00FC079
S1131810007FC00FC0007FC00FC000FFC00FF001E9
S1131820FFC00FFFFFFF800FFFFFFF0007FFFFFF59
S11318300003FFFFFE0001FFFFFC0000FFFFF000BC
S1131840003FFFC000000FFF8000003FFFE00000EA
S11318507FFFF80000FFFFFC0001FFFFFE0003FF15
S1131860FFFF0007FFFFFF8007FFFFFFC00FFC0320
S1131870FFC00FF801FFE01FF000FFE01FF0007F42
S1131880E01FF0007FE01FF0007FE01FF0007FE02A
S11318901FF0007FE0000000FFE0000001FFC00037
S11318A00003FFC0000007FFC000000FFF8000001E
S11318B01FFF0000003FFF0000007FFE000000FF4C
S11318C0FC000001FFF8000003FFF0000007FFE048
S11318D000000FFFC000001FFF8000003FFF00005A
S11318E0007FFE000000FFFC000001FFF800000381
S11318F0FFF0000007FFE000000FFFC000001FFF23
S11319008000001FFF0000003FFE0000003FFC00BD
S113191000003FFFFFFFE03FFFFFFFE03FFFFFFF4F
S1131920E03FFFFFFFE03FFFFFFFE03FFFFFFFE07F
S11319303FFFFFFFE03FFFFFFFE007FFFF80001FC7
S1131940FFFFE0003FFFFFF0007FFFFFF8007FFF95
S1131950FFF800FFFFFFFC00FFFFFFFC00FFFFFF9D
S1131960FC00FFE01FFC00FFC00FFC00FF8007FC31
S113197000FF8007FC00FF8007FC00FF8007FC00DD
S1131980FF8007FC00FF8007FC00FF8007FC00FFCE
S11319908007FC00FF8007FC00FF8007FC00FF803D
S11319A007FC00FF8007FC00FF8007FC00FF8007A6
S11319B0FC00FF8007FC00FF8007FC00FF8007FCA1
S11319C000FF8007FC00FF8007FC00FF8007FC008D
S11319D0FF8007FC00FF8007FC00FF8007FC00FF7E
S11319E08007FC00FF8007FC00FF8007FC00FF80ED
S11319F007FC00FF8007FC00FF8007FC00FFC00F0E
S1131A00FC00FFE01FFC00FFFFFFFC00FFFFFFFCEA
S1131A1000FFFFFFFC007FFFFFF8007FFFFFF800DF
S1131A203FFFFFF0001FFFFFE00007FFFF80000003
S1131A30000000000000000000000000000006009C
S1131A400000000F800000000FC000000017F0002D
S1131A5000000BFC00000005F90000003AF38000D0
S1131A60003D7FBC00003EBF3800001F5E780000D0
S1131A700FAFFC000007C7FE000003E3FF100007E0
S1131A80F1FFF0000FFAFFE0000FFD7FC0000F3EF2
S1131A90BF80000F1E5F00000F0E2E00003FFFFFEF
S1131AA0F0003FFFFFF00000000000000180000094
S1131AB00003E000000003F000000005FC0000004B
S1131AC002FF000000017E4000000EBCE000000F99
S1131AD05FEF00000FAFCE000007D79E000003EBBE
S1131AE0FF000001F1FF800000F8FFC40001FC7F4B
S1131AF0FC0003FEBFF80007FF5FF0000FCFAFE06C
S1131B00000F8797C0000F038B80000F00050000B3
S1131B100F000200003FFFFFF0003FFFFFF0000056
S1131B206000000000F800000000FC000000017FDD
S1131B3000000000BFC00000005F900000002F38CC
S1131B4000000E17FBC0000F0BF380000F85E78029
S1131B500007C2FFC00003E07FE00001F03FF10096
S1131B6000F81FFF0001FC2FFE0003FE17FC000716
S1131B70FF0BF8000FCF85F0000F8782E0000F0302
S1131B808140000F000080000F000000003FFFFFB5
S1131B90F0003FFFFFF000C000000000C0000000A4
S1131BA000C000000000C000000000C7E39C00006B
S1131BB0CFE7FE0000CC66660000CC66660000CF6E
S1131BC0E6660000CFE6660000CC06660000CC06A0
S1131BD06600000C000000000C000000000C000077
S1131BE00000000000000000000000000000F00001
S1131BF0000000E000000001C000000001800000BF
S1131C000003FC00000007F8000000007000000062
S1131C10006000000000C0000000018000001C0300
S1131C200000003E00000000633FF00F00637FF8F7
S1131C301F8063C01831806380186180630038C3DB
S1131C4000631FFF8600631FFF0C00630000180081
S1131C50630000300063FFFFE00063FFFFC0003E4D
S1131C60000000001C000000007E7E7E7E00001844
S1131C7019FC000000001C39FE000000001E7986DB
S1131C80000000001E7986000000001BD9863D80FC
S1131C9000001999867F8000001999FE6380000076
S1131CA01819FC618000001819806180000018195F
S1131CB08061800000181980638000001819807FFB
S1131CC08000001819803D80000000000000000022
S1131CD0000000030C0000003E1CE30C7C3E007F6F
S1131CE03FF30CFE7F00C333330CC66300C03333B1
S1131CF00C066300C03333FC0E6300C03333FC1C9A
S1131D006300C033330C386300C033330C7063009A
S1131D10C333330CE063007F33330CFE7F003E3368
S1131D20330CFE3E0000000000000000000000C66E
S1131D300000738738C60300FFCFFCC63F00CCCC3D
S1131D40CCFE7F00CCCCCCFE6300CCCCCCC66300F4
S1131D50CCCCCCC67F00CCCCCCC63F00CCCCCCC643
S1131D600300000000000300000000006300000006
S1131D7000007F00000000003E0071C92F78398800
S1131D808A29284845888A29284845488A292F4885
S1131D904548F2292878452882292860452882293F
S1131DA02850451881C6CF4839183F8000781E0056
S1131DB0007FC000781E0000FFE000781E0000FFD6
S1131DC0E000381C0000E0E0003C3C0000E0E000E3
S1131DD03C3C0000E0E0003C3C0000E0E0003C3C17
S1131DE00000E0E0001E787F00E0E1FE1E78FF8046
S1131DF0FFE3FF1E78FF80FFE3FF1E78E380FFE32D
S1131E00FF0E70E380FFE3870FF0E380E0E3870FCA
S1131E10F0E380E0E3870FF0E380E0E3FF07E0FF17
S1131E20E0E0E3FE07E0FFE0E0E1C007E07EE00081
S1131E3001C0000000000001FF000000000003FFDB
S1131E40800000000003FF80000000000383800086
S1131E500000000383800000000003838000000072
S1131E600003FF800000000003FF80000000000169
S1131E70FF0000000000000000000000001E000041
S1131E80003F0000003F00000073800000618000FC
S1131E9000E1C00000C0C00001C0E000018060009B
S1131EA0039C7000033E3000077F380006071800CB
S1131EB00E071C000C7F8C001C3FCE00181FE60090
S1131EC03801F7003000F30070007B806000398037
S1131ED0E00019C0C00000C0C00000C0FFFFFFC088
S1131EE07FFFFF8011241FBECFEFCDBFDFE7DEBF32
S1131EF013E4A0E0B0E4EAE7F3E600E00BBF02C0BD
S1131F0007900D92A834B107D9F724E4A8E4B3E408
S1131F1001C01D92A430B207E1F70E94D12A0C94AB
S1131F20BB310C9400006150710920E030E00EC018
S1131F30DC01A20FB31F4C91FC01E60FF71F508187
S1131F405C9340832F5F3F4F615071092617370719
S1131F507CF30895CF92DF92EF92FF920F931F9339
S1131F60CF93DF938A016901C0E0D0E011C078010A
S1131F70EC0EFD1E2AE030E040E050E00E94362FD7
S1131F80605DF7016083622F732F842F952F219654
S1131F90611571058105910551F706C0F801EC0F33
S1131FA0FD1F80E380832196CC15DD05BCF3BE01C3
S1131FB0C8010E94930FF801EC0FFD1F1082CE019F
S1131FC0DF91CF911F910F91FF90EF90DF90CF9011
S1131FD008958F929F92AF92BF92CF92DF92EF9229
S1131FE0FF920F931F93CF93DF936B017C018A01C0
S1131FF0E9010E940D2C4B015C01072E000C880B9B
S1132000990B0E94452C9B01AC01C701B6010E94AB
S1132010292B6B017C01B401992024F466277727CE
S113202068197909072E000C880B990B20E030E021
S1132030A8010E94AA0F5C01209781F1F801E80F22
S1132040F91F8EE28083BE010D2E000C880B990BC4
S11320500E94452C9B01AC0160E070E080E291E4B9
S11320600E94B72D9B01AC01C701B6010E944A2D05
S11320702FEFA21AB20A0E940D2C9B01772324F49D
S113208022273327261B370BA8014A0D5B1DB901F4
S1132090330F880B990B9E010E94AA0FDF91CF91F9
S11320A01F910F91FF90EF90DF90CF90BF90AF9072
S11320B09F908F900895E0E4F4E020812D7F2083A9
S11320C0208121602083BC0180E090E00E94432CA9
S11320D020E030E040E851E40E944A2D9B01AC012D
S11320E060E07BE187EB9EE40E949B2B20E030E0E4
S11320F040E05FE30E942A2B0E94142CE0E2F8E007
S1132100608771878681806C868308959091240806
S113211095FFFCCF8093220808950F931F93CF93CC
S1132120DF938C01C0E0D0E007C0F801EC0FFD1F85
S113213080810E9486102196F80101900020E9F721
S11321403197E01BF10BCE17DF0778F38AE00E948A
S11321508610DF91CF911F910F9108950F931F93D4
S1132160CF93DF938C01C0E0D0E007C0F801EC0FFF
S1132170FD1F80810E9486102196F80101900020A5
S1132180E9F73197E01BF10BCE17DF0778F3DF9106
S1132190CF911F910F91089520E030E04DEC53E46E
S11321A00E94AA0F8DEC93E40E948D1008959A0169
S11321B04DEC53E40E94E90F8DEC93E40E948D10E2
S11321C00895E0E0F4E0808180688083A4E0B4E0D6
S11321D08C9180688C93808180618083808180640D
S11321E08083E0E4F9E08081806380838081816082
S11321F080838C9180688C930895809344098091A6
S113220043098823E4F70895DC0120E030E00CC0A2
S1132210FD01E20FF31F90819093440990914309CB
S11322209923E4F72F5F3F4F462F50E024173507DB
S11322307CF30895E0E0F9E081E0858383E0848322
S11322400895E0E0F9E080818F7E80838081837F40
S1132250808380818D7F80830895E0E0F9E087E6C4
S1132260868381E0858383818A608383838181601F
S113227083830895CF93DF93C82FD62F80910509C8
S11322808370833089F482E590E40E948D1020E607
S11322903AEE01C09C01809105098370833021F4DA
S11322A0C9010197232BB1F785E080930509DD234C
S11322B041F08C2F90E0880F991F8160809307096B
S11322C004C08C2F880F8093070980E69AEE209132
S11322D0050924FF06C02091050926FD02C00197C7
S11322E0B1F7892B21F48CE590E40E948D10809144
S11322F0050982FF04C084E690E40E948D10DF91FA
S1132300CF910895CF93DF93C0E6DAEE809105096B
S1132310882314F02197D1F78091050983FD04C027
S11323208091050982FF09C087E990E40E948D101D
S11323300E941A1181E08093CC43CD2B39F48CE5B3
S113234090E40E948D1081E08093CC438091080931
S1132350DF91CF91089585E88093A000E0E0F6E056
S113236084E0818381E082838083089581E0809387
S11323700A060895809308060E94B61180910D06FE
S113238080FFFCCF8091100690911106089580E89B
S113239095E20E945B100E9421110E942D1161E0C0
S11323A088E70E943A1108950F931F93CF93DF9308
S11323B00E948211C82FD0E0DC2FCC2700E019E066
S11323C0F80184818F7E84830E948211C82BF801D6
S11323D084818F7E84830E948211F80184818F7EA0
S11323E084830E9482110E941A11BE0180E090E051
S11323F00E94432CDF91CF911F910F9108950E9469
S1132400D41120E030ED4CE455E40E94292B23E361
S113241033E74AED54E40E949B2B0895CF92DF9258
S1132420EF92FF921F93CF93DF93182F0E94FF1117
S11324306B017C01C0E0D0E011C00E94FF119B0140
S1132440AC01C701B6010E942A2B20E030E040E035
S11324505FE30E944A2D6B017C012196812F90E05D
S11324600197C817D9074CF32FE03CED4EE452E432
S1132470C701B6010E944A2DDF91CF911F91FF90B1
S1132480EF90DF90CF900895E0E0F4E080818068E1
S11324908083E0E2F4E0808180618083E0E4F4E022
S11324A08081806280830895CF93DF93E0E2F4E03B
S11324B0248120612483C0E0D4E02C812F772C83F5
S11324C00E9404118C8180688C83DF91CF910895E0
S11324D0CF93DF93E0E2F4E0948190619483C0E0D1
S11324E0D4E09C819F779C830E94FD108C818F7720
S11324F08C83DF91CF9108950F931F93CF93DF9334
S1132500C0E2D4E09C819F7E9C8300E014E0F8014B
S113251094819F7794830E94FD10F80184818068E0
S113252084838C8180618C83DF91CF911F910F9183
S113253008950F931F93CF93DF93C0E2D4E09C815F
S11325409F7E9C8300E014E0F80194819F7794833C
S11325500E94FD10F8018481806884838C818061ED
S11325608C83DF91CF911F910F910895CF93982F72
S11325709F70C82FC295CF70C067892F80660E9454
S113258099128C2F0E949912CF910895CF93C82F3E
S1132590C295CF70C0618F700E9499128C2F0E94D7
S11325A09912CF9108950F931F93CF93DF93062F22
S11325B0122FD8E1D80FC8E1C40F8D2F0E94C61284
S11325C0802F0E94B61284EF0E947C128D2F0E94ED
S11325D0991286EF0E947C128C2F0E94991287EF29
S11325E00E947C12812F0E94991288EF0E947C1213
S11325F0DF91CF911F910F910895CF93DF932FE92E
S11326004FE460E080E00E94D312C0E0D0E004C058
S113261080E00E9468122196C11584E6D807C4F3AD
S1132620DF91CF910895E0E0F4E084818F77848393
S1132630E0E2F4E0848180618483E0E4F4E0848176
S11326408F7D84832FEF88EF95E121508040904067
S1132650E1F700C000008481806284832FEF8EE95B
S113266094E2215080409040E1F700C0000088EBE4
S11326700E947C1280E10E94991282EE0E947C12D8
S11326802FEF85EA9EE0215080409040E1F700C0A2
S113269000008BEE0E947C1281E80E947C128BE485
S11326A00E947C128BE20E947C1284EC0E947C12B9
S11326B089E80E947C1284E20E947C1282EA0E94D1
S11326C07C1281EF0E947C128FE90E94991284E8A7
S11326D00E947C1282EF0E947C1280E00E94991278
S11326E083EF0E947C1282E30E94991280E40E948C
S11326F07C1280E50E947C1281ED0E947C1286EDA2
S11327000E947C1288EC0E947C1285E00E947C125C
S113271088ED0E947C120E94FD128DEA0E947C12B8
S113272008952F923F924F925F926F927F928F9271
S11327309F92AF92BF92CF92DF92EF92FF920F934C
S11327401F93CF93DF93CDB7DEB76197CDBFDEBFC5
S11327508F836C871A012B87902E2DB73EB72E8757
S11327603F878BEA089F812D112486958A8790E004
S1132770DC01AA0FBB1FAD83BE836D01BB0FEE0846
S1132780FF0800E010E0412C512C320109831A8328
S11327909D864601570189C0EDB7FEB7E887F987E2
S11327A02DB73EB78D819E81281B390B2DBF3EBFAF
S11327B0ADB7BEB71196AB83BC83AD0180E090E0AA
S11327C005C0FA01E80FF91F108201968C01092E49
S11327D0000C220B330B081519052A053B058CF355
S11327E060E070E030E020E0ED843DC0F101E40DF4
S11327F0F51DF490BFEF4B1A5B0A6B0A7B0A87E066
S113280090E02DC0EF2DF0E0082E02C0F595E7957D
S11328100A94E2F7E0FF1DC0E32FF0E0E88BF98BA8
S11328208F01040F151FD801CC90A22FB0E0AA0F7E
S1132830BB1FA95EBF4BDC90DC28F801D082E8897D
S1132840F9893196E40FF51F10811196AC91A12BF3
S1132850A0832F5F233010F03E5F20E0019799237F
S11328608CF66F5F7F4F8E2D86958695869590E0CA
S1132870681779070CF4BACF6C85F9816F0F262F8E
S11328804A853F81430F832F0E94D3126D817E813D
S11328908B819C810E945412888599858DBF9EBF2F
S11328A0A981BA811196A983BA83BB858B2F90E045
S11328B0E981FA81E817F9070CF46ECF2E853F857C
S11328C02DBF3EBF6196CDBFDEBFDF91CF911F917B
S11328D00F91FF90EF90DF90CF90BF90AF909F90BB
S11328E08F907F906F905F904F903F902F900895BE
S11328F02F923F924F925F926F927F928F929F920C
S1132900AF92BF92CF92DF92EF92FF920F931F93F9
S1132910CF93DF93CDB7DEB76297CDBFDEBFA82ECE
S1132920688B4A01322E2DB73EB7298B3A8B202E65
S1132930269426942694222D30E0A32DB0E00E9404
S1132940552F9B01AC01AE2DB0E00E94642F2B01EA
S11329503C018BEA089F012D112406950D87802FD9
S113296090E0DC01AA0FBB1FAE87BF87CD01092E03
S1132970000CAA0BBB0B8F839887A987BA8700E04A
S113298010E08FC0ADB7BEB7AB87BC87EDB7FEB75D
S11329902F813885E21BF30BEDBFFEBF8DB79EB7C9
S11329A001968D839E83AC0180E090E049825A8237
S11329B06B827C82322D232D2F80388449845A8463
S11329C005C0FA01E80FF91F108201966C01092E67
S11329D0000CEE08FF08C214D304E404F50488F3E1
S11329E049805A806B807C80232E322E60E070E018
S11329F030E020E03CC0F401E40DF51DD4909FEFDD
S1132A00491A590A690A790A87E090E02CC0ED2D29
S1132A10F0E0082E02C0F595E7950A94E2F7E0FF8E
S1132A201CC0A32FB0E0A983BA837D01E40EF51E78
S1132A30F701B080A22FB0E0AA0FBB1FA95EBF4B65
S1132A40CC90CB28C082E981FA813196E40FF51F3E
S1132A50F0801196AC91AF29A0832F5F233010F042
S1132A603E5F20E00197992394F66F5F7F4F822D9C
S1132A7090E0681779070CF4BECF6889600F262FA1
S1132A804D854A0D8A2D0E94D3126E857F858D81D6
S1132A909E810E9454122B853C852DBF3EBF0F5F43
S1132AA01F4F832D90E0081719070CF46BCF898909
S1132AB09A898DBF9EBF6296CDBFDEBFDF91CF9155
S1132AC01F910F91FF90EF90DF90CF90BF90AF9048
S1132AD09F908F907F906F905F904F903F902F903A
S1132AE00895FF920F931F93CF93DF93F62EC22F77
S1132AF0002381F0D42FD81B0E94D312C0E007C05A
S1132B008FEF0E9468128FEF0E946812CF5FCD177B
S1132B10B8F313C00E94D3120C2F10E00F1911093F
S1132B20C0E0D0E007C08FEF0E94681280E00E94EE
S1132B3068122196C017D107B0F3DF91CF911F918E
S1132B400F91FF900895FF920F931F93CF93DF93FC
S1132B50F62EC22F002381F0D42FD81B0E94D3124B
S1132B60C0E007C08FEF0E9468128FEF0E946812C6
S1132B70CF5FCD17B8F313C00E94D3120C2F10E00F
S1132B800F191109C0E0D0E007C088EF0E94681255
S1132B9080E00E9468122196C017D107B0F3DF913C
S1132BA0CF911F910F91FF900895DF92EF92FF92C2
S1132BB00F931F93CF93DF93F82ED62EE42E022F7C
S1132BC0061B842F90E08F19910963E070E00E9446
S1132BD0002FD62F10E013C0612F6D0D262F4E2D20
S1132BE08F2D0E94D312C0E007C08FEF0E9468129D
S1132BF08FEF0E946812CF5FCD17B8F31F5F1017D5
S1132C0058F3DF91CF911F910F91FF90EF90DF90D8
S1132C100895DF92EF92FF920F931F93CF93DF9368
S1132C20F82ED62EE42E022F061BD42FD81B10E02C
S1132C3013C0612F6D0D262F4E2D8F2D0E94D312A0
S1132C40C0E007C080E00E94681280E00E94681221
S1132C50CF5FCD17B8F31F5F101758F3DF91CF91F3
S1132C601F910F91FF90EF90DF900895CF93DF9322
S1132C70A0E4B4E08C918F7B8C9356968C915697FC
S1132C80816056968C935697E0E8F4E080818D7FBE
S1132C90808381898260818B80818B7F808382891C
S1132CA08260828BC0EAD4E088818B7F88838A89A2
S1132CB082608A8B80818E7F808380898260808B12
S1132CC08C9184608C93E0E2F4E080818062808364
S1132CD0DF91CF91089580918F43882369F181E03A
S1132CE080937743809116408F5F809316408430A1
S1132CF018F081E08093164080911640823049F0AC
S1132D00833061F0813079F48FEA90E40E948D1071
S1132D1011C080ED90E40E948D100CC083EF90E40C
S1132D200E948D1007C081E08093164083E191E4F6
S1132D300E948D1010928F430895882369F1E0E872
S1132D40F4E0848188608483E0E0FAE0808181603B
S1132D50808380914F439091504380A791A781E055
S1132D60809355438091A8439091A943A091AA438D
S1132D70B091AB438093914390939243A093934338
S1132D80B0939443809164438823C1F081E080939D
S1132D901440109263430895811110C0E0E8F4E0F8
S1132DA08481877F8483E0E0FAE08081816080838E
S1132DB010A611A61092554310928D430895809148
S1132DC08C438823C9F184E491E40E948D1080919E
S1132DD08D4381110AC080914F4390915043809359
S1132DE0280A9093290A892B01F510928D43109299
S1132DF0674310926B4310926A4310925B431092A4
S1132E005C4310925D4310925E43109266431092AD
S1132E10654310925F431092604310926143109295
S1132E20624380E00E949D1605C081E080938D433B
S1132E300E949D1610928C430895CF92DF92EF92D8
S1132E40FF920E940E126B017C016093C443709345
S1132E50C5438093C6439093C74320E030E0A90163
S1132E600E94962B88234CF41092C4431092C543BD
S1132E701092C6431092C74316C020E030E84BE3DB
S1132E8054E4C701B6010E94F52C181664F480E0DE
S1132E9090E8ABE3B4E48093C4439093C543A09318
S1132EA0C643B093C74380911640823049F18330C2
S1132EB009F478C0813009F0AAC080E090E0AAE764
S1132EC0B5E48093B0439093B143A093B243B093DD
S1132ED0B34320E030E048EC52E46091C443709185
S1132EE0C5438091C6439091C7430E944A2D609385
S1132EF0B4437093B5438093B6439093B743ACC047
S1132F006091C4437091C5438091C6439091C74377
S1132F1029E134E04EEA5FE30E944A2D6093C04306
S1132F207093C1438093C2439093C3430F2EC12C2B
S1132F30F0E8DF2EFBE3EF2EF5E4FF2EF02DC09238
S1132F40B043D092B143E092B243F092B34321E054
S1132F5038EE4EE754E40E94F52C181664F481E030
S1132F6098EEAEE7B4E48093C0439093C143A0933A
S1132F70C243B093C34320E030E048EC52E4609194
S1132F80C0437091C1438091C2439091C3430E9456
S1132F904A2D6093B4437093B5438093B6439093A2
S1132FA0B7435AC06091C4437091C5438091C643EE
S1132FB09091C74326E73EE64AE55CE30E944A2D2A
S1132FC06093BC437093BD438093BE439093BF43CF
S1132FD00F2EC12CD12CF8E4EF2EF3E4FF2EF02DAC
S1132FE0C092B043D092B143E092B243F092B34363
S1132FF020E030E048EC52E40E944A2D6093B44350
S11330007093B5438093B6439093B74325C081E052
S11330108093164080E090E0AAE7B5E48093B04343
S11330209093B143A093B243B093B34320E030E014
S113303048EC52E46091C4437091C5438091C64307
S11330409091C7430E944A2D6093B4437093B54353
S11330508093B6439093B743FF90EF90DF90CF9067
S113306008958091480483FF03C081E080936C43FA
S11330700895E0E4F4E08481806184832FEF8EE995
S113308094E2215080409040E1F700C00000848128
S11330908F7E84832FEF8EE994E22150804090400C
S11330A0E1F700C000000E94C7110895E0E4F4E0D5
S11330B080818F77808387898160878B8081877FF8
S11330C0808383898160838B08950E945618809140
S11330D0480483FF04C081E080936C4308951092F8
S11330E06C430895809169438823B1F0809148042A
S11330F083FF09C081E080936C43E0E0F4E08481C5
S11331008062848307C010926C43E0E0F4E0848121
S11331108F7D84831092694380916C43882329F0C6
S1133120E0E0F4E094819062948308950F931F93F8
S113313080916B43882309F440C0909167439111B7
S11331403CC090916843911138C090916A4399238F
S1133150A1F190916643923080F14091A84350913F
S1133160A9436091AA437091AB4300915B431091D2
S11331705C4320915D4330915E43401B510B620BD5
S1133180730B483E534061057105B8F481E00E9419
S11331909D1681E08093674310926B4310926A43BB
S11331A010925B4310925C4310925D4310925E4315
S11331B01092664380938D43C2C0882369F1909135
S11331C06A43992349F190916743992329F180E057
S11331D00E949D161092674310926B4310926A43AB
S11331E010925B4310925C4310925D4310925E43D5
S11331F01092664310928D4380916543882309F4AD
S11332009EC01092654310925F43109260431092E7
S113321061431092624393C08823A1F19091674364
S1133220911130C09091684391112CC090916643E4
S1133230911128C090916A43911124C04091A843F0
S11332405091A9436091AA437091AB4300915B43B1
S113325010915C4320915D4330915E43401B510BC0
S1133260620B730B493E53406105710558F081E0D0
S11332700E949D1681E0809368431092634380937B
S11332808D435DC090916A43992301F12091684375
S11332902223E1F0209166432223C1F08823B1F078
S11332A080E00E949D161092684310926A43109227
S11332B06B431092664310925B4310925C431092EE
S11332C05D4310925E4310928D4339C0811106C054
S11332D0911104C080916643882389F180916743EA
S11332E081112DC080916843811129C08091A84328
S11332F09091A943A091AA43B091AB4340915B4301
S113330050915C4360915D4370915E43841B950BC7
S1133310A60BB70B893E9340A105B10580F010922E
S1133320674310925B4310925C4310925D4310928A
S11333305E4310926B4310926A43109266431F914E
S11333400F9108954F925F926F927F928F929F9206
S1133350AF92BF92CF92DF92EF92FF92809164433B
S1133360882309F4D8C080916743811104C08091F7
S11333708D438823D1F080916543811116C081E08B
S1133380809365438091A8439091A943A091AA4357
S1133390B091AB4380935F4390936043A0936143A8
S11333A0B093624310926343B6C08091654388230F
S11333B0E1F14091A8435091A9436091AA437091CF
S11333C0AB43C0905F43D0906043E0906143F09082
S11333D062434C195D096E097F09413457476B41BB
S11333E0710518F180E00E949D16109265431092B9
S11333F05F431092604310926143109262431092B3
S1133400674310925B4310925C4310925D431092A9
S11334105E4310926B4310926A431092664381E0BC
S11334208093634310928D4376C0882309F473C05C
S1133430C090A843D090A943E090AA43F090AB4336
S113344040905F435090604360906143709062434A
S1133450D701C60184199509A609B709803497478D
S1133460AB41B10508F057C08090B4439090B54388
S1133470A090B643B090B743A50194016091B843BE
S11334807091B9438091BA439091BB430E94292B18
S11334900E940D2C9B01772324F422273327261B1B
S11334A0370BB901330F880B990B0E94452C2091DF
S11334B0B0433091B1434091B2435091B3430E9421
S11334C0F52C18166CF4C414D504E604F70441F082
S11334D0C0925F43D0926043E0926143F0926243B2
S11334E08091AC439091AD43A091AE43B091AF4372
S11334F0C81AD90AEA0AFB0A89EEC81683E0D80674
S1133500E104F10440F08092B8439092B943A09250
S1133510BA43B092BB43FF90EF90DF90CF90BF903F
S1133520AF909F908F907F906F905F904F90089591
S113353080916B43882359F081E00E949D1610927C
S11335406B431092634381E080938D43089580918F
S11335506A43882339F080E00E949D1610926A43E2
S113356010928D4308950E947218882359F0809117
S11335709043882319F00E9496180895811102C07F
S11335800E94981A08950E94AB1108958F929F92F9
S1133590AF92BF92CF92DF92EF92FF92CF93C0E0AF
S11335A018C082E00E94BA11409178435091794347
S11335B060917A4370917B43480F591F611D711DBF
S11335C0409378435093794360937A4370937B4359
S11335D0CF5FC43130F32C2F30E040E050E06091F5
S11335E078437091794380917A4390917B430E9410
S11335F0142F209378433093794340937A43509324
S11336007B43CA01B9010E94432C23E333E343E51E
S113361050E40E944A2D20E036EF4FE157E40E9427
S11336209B2B6B017C016093884370938943809347
S11336308A4390938B4320E030E44CE156E40E94AB
S11336409B2B4B015C0160937C4370937D4380937F
S11336507E4390937F43A701960163E373E383E57D
S113366090E40E94292BA50194010E949B2B609356
S1133670804370938143809382439093834320E0FB
S113368030E44CE156E40E949B2B0E94022D23E976
S113369031EA48E959E30E944A2D2FE03FEC4BE51B
S11336A05BE30E942A2B9B01AC0160E070E080E8A0
S11336B09FE30E949B2B23E333E948E853E40E94F1
S11336C0292B60938443709385438093864390931E
S11336D0874382E691E40E948D1060918443709147
S11336E08543809186439091874342E050E00E9455
S11336F0D710609184437091854380918643909163
S11337008743CF91FF90EF90DF90CF90BF90AF9021
S11337109F908F9008958FEB9DE580931C0B909361
S11337201D0BE1E1FBE080818083E5E1FBE080812A
S113373081608083E0E1FBE0808181608083089583
S11337408FEB9DE580932C0B90932D0BE1E2FBE036
S113375080818083E5E2FBE0808181608083E0E218
S1133760FBE080818160808308950E948B1B0E940E
S1133770A01B08951F920F920FB60F9211240BB63F
S11337800F928F939F93AF93BF93EF93FF93809187
S1133790160B80FF18C08091A8439091A943A09173
S11337A0AA43B091AB430196A11DB11D8093A843D8
S11337B09093A943A093AA43B093AB43E6E1FBE003
S11337C0808181608083FF91EF91BF91AF919F9140
S11337D08F910F900BBE0F900FBE0F901F901895F6
S11337E01F920F920FB60F9211240BB60F920F93E4
S11337F01F932F933F934F935F936F937F938F9375
S11338009F93AF93BF93EF93FF934091A443509141
S1133810A5436091A6437091A7434F5F5F4F6F4FDD
S11338207F4F4093A4435093A5436093A643709362
S1133830A7438091A0439091A143A091A243B0914A
S1133840A3430196A11DB11D8093A0439093A1436E
S1133850A093A243B093A34300919C4310919D4332
S113386020919E4330919F430F5F1F4F2F4F3F4F37
S113387000939C4310939D4320939E4330939F4316
S1133880493E53406105710558F021E02093974368
S11338901092A4431092A5431092A6431092A743FA
S11338A0893C9105A105B10558F081E080939643C8
S11338B01092A0431092A1431092A2431092A343EA
S11338C0E6E2FBE0808181608083FF91EF91BF910C
S11338D0AF919F918F917F916F915F914F913F91A4
S11338E02F911F910F910F900BBE0F900FBE0F9051
S11338F01F90189510928F431092644310928C433A
S11339001092904310928E43089510924A4310925D
S11339104B4310924C4310924D4310924E430895E2
S11339200F9380918E43882309F4E7C18091084066
S11339308F5F80930840863018F081E080930840C0
S113394080910840833009F4B6C030F4813059F0D6
S1133950823009F45CC0ABC1843009F400C1853005
S113396009F451C1A4C180918D43811104C0809197
S11339705543882359F0E0E0FAE080818160808338
S1133980809111409091124080A791A78EEA90E116
S113399080937343909374438091114090911240AB
S11339A080934F439093504380911340811113C0EF
S11339B08091594390915A4380934F43909350433D
S11339C0E0E0FAE0808181608083809159439091A6
S11339D05A4380A791A70E94851C81E080934E439F
S11339E008E221E345E458E168E285E30E9491138B
S11339F021E34AE359E168E282E40E9491132FE053
S1133A0047E95BE16FE582E40E94911373C1809101
S1133A108D43811104C080915543882359F0E0E01F
S1133A20FAE080818160808380910F409091104002
S1133A3080A791A78CEC90E1809373439093744397
S1133A4080910F409091104080934F439093504346
S1133A5080911340811113C08091594390915A432E
S1133A6080934F4390935043E0E0FAE0808181607B
S1133A7080838091594390915A4380A791A70E94D3
S1133A80851C81E080934D4308E221E340E557E142
S1133A9068E285E30E94911321E34AE359E168E275
S1133AA082E40E9491132FE047E95BE16FE582E431
S1133AB00E9491131FC180918D43811104C0809194
S1133AC05543882359F0E0E0FAE0808181608083E7
S1133AD080910D4090910E4080A791A78CEC90E1CD
S1133AE0809373439093744380910D4090910E4062
S1133AF080934F439093504380911340811113C09E
S1133B008091594390915A4380934F4390935043EB
S1133B10E0E0FAE080818160808380915943909154
S1133B205A4380A791A70E94851C81E080934C434F
S1133B3008E221E34BE556E168E285E30E94911334
S1133B4021E34AE359E168E282E40E9491132FE001
S1133B5047E95BE16FE582E40E949113CBC0809159
S1133B608D43811104C080915543882359F0E0E0CE
S1133B70FAE080818160808380910B4090910C40B9
S1133B8080A791A783E091E180937343909374435A
S1133B9080910B4090910C4080934F4390935043FD
S1133BA080911340811113C08091594390915A43DD
S1133BB080934F4390935043E0E0FAE0808181602A
S1133BC080838091594390915A4380A791A70E9482
S1133BD0851C81E080934B4308E221E346E655E1EE
S1133BE068E285E30E94911321E34AE359E168E224
S1133BF082E40E9491132FE047E95BE16FE582E4E0
S1133C000E94911377C080918D43811104C08091EB
S1133C105543882359F0E0E0FAE080818160808395
S1133C208091094090910A4080A791A786E291E192
S1133C3080937343909374438091094090910A4018
S1133C4080934F439093504380911340811113C04C
S1133C508091594390915A4380934F43909350439A
S1133C60E0E0FAE080818160808380915943909103
S1133C705A4380A791A70E94851C81E080934A4300
S1133C8008E221E341E754E168E285E30E949113ED
S1133C9021E34AE359E168E282E40E9491132FE0B0
S1133CA047E95BE16FE582E40E94911323C08091B0
S1133CB011409091124080934F43909350430E943F
S1133CC0851C81E080934E4308E221E345E458E1FA
S1133CD068E285E30E94911321E34AE359E168E233
S1133CE082E40E9491132FE047E95BE16FE582E4EF
S1133CF00E94911310928E43FDC0882309F4FAC0E8
S1133D0080918D4381110DC080915543811109C06B
S1133D1080916443811105C080919043882309F404
S1133D20E9C0809108408F5F80930840863018F086
S1133D3081E08093084080910840833009F451C0A9
S1133D4028F4813051F0823051F1B1C0843009F44B
S1133D506AC0853009F489C0AAC0E0E0FAE0808135
S1133D6081608083809111409091124080A791A737
S1133D7008E221E345E458E168E285E30E949113F7
S1133D8021E34AE359E168E282E40E9491132FE0BF
S1133D9047E95BE16FE582E40E949113A9C0E0E08A
S1133DA0FAE080818160808380910F40909110407F
S1133DB080A791A708E221E340E557E168E285E3A3
S1133DC00E94911321E34AE359E168E282E40E94EC
S1133DD091132FE047E95BE16FE582E40E949113C0
S1133DE087C0E0E0FAE080818160808380910D40AB
S1133DF090910E4080A791A708E221E34BE556E19C
S1133E0068E285E30E94911321E34AE359E168E201
S1133E1082E40E9491132FE047E95BE16FE582E4BD
S1133E200E94911365C0E0E0FAE0808181608083A4
S1133E3080910B4090910C4080A791A708E221E368
S1133E4046E655E168E285E30E94911321E34AE3E3
S1133E5059E168E282E40E9491132FE047E95BE1B3
S1133E606FE582E40E94911343C0E0E0FAE08081B0
S1133E70816080838091094090910A4080A791A736
S1133E8008E221E341E754E168E285E30E949113EB
S1133E9021E34AE359E168E282E40E9491132FE0AE
S1133EA047E95BE16FE582E40E94911321C08091B0
S1133EB011409091124080934F439093504381E07E
S1133EC080934E4308E221E340E557E16AE285E34B
S1133ED00E94911321E34AE359E168E282E40E94DB
S1133EE091132FE047E95BE16FE582E40E949113AF
S1133EF010928E430F9108950E946B160E94DF1654
S1133F000E94901C089581E08093724380937143D2
S1133F1008950E94831F8091C843882321F08091D3
S1133F20C943811104C00E9444120E9413130895CE
S1133F308091154090911640891749F081E0809353
S1133F407243809370438093714390931540909192
S1133F506F4380916443981729F080936F4381E005
S1133F608093144080919743882381F081E080936B
S1133F70724380919043811104C080916D438111FB
S1133F8003C081E080936E431092974380919643DF
S1133F90882329F081E0809370431092964308951A
S1133FA00F932AE044E060E080E00E94091608E3F1
S1133FB02EE14AEA5DE162E38EE10E94911300E39F
S1133FC028E04AE75DE164E68FE10E9491130F91D6
S1133FD008950F932EE146E060E080E00E94D5153D
S1133FE001E02EE14FE46EE180E00E94A3152DE193
S1133FF04FE46DE180E00E94A31500E022E743E373
S11340006FE183E30E94A31501E022E74FE462E736
S113401080E00E94A31523E74FE463E780E00E9459
S1134020A3150F9108950F9300E02EE940E060E09E
S113403080E00E94711501E020E04FE460E080E040
S11340400E94A31521E04FE461E080E00E94A315E3
S113405000E02EE94FE460E08FE40E94711501E076
S11340602FE94FE46FE980E00E94A3152EE94FE4A5
S11340706EE980E00E94A3150F910895EF92FF92DC
S11340800F931F93CF93DF93C82FD62F6091C44310
S11340907091C5438091C6439091C7430E940D2CF3
S11340A09B012F3E82E0380744F01092C4431092E3
S11340B0C5431092C6431092C743EAE0F0E0C90139
S11340C0BF010E94002F182FCB01BF010E94002FB7
S11340D0F82EC90164E670E00E94002FE62E08E283
S11340E021E34FED5AE06D2F8C2F0E947814EF2CB2
S11340F021E34FED5AE06D2F8DE08C0F0E94781470
S1134100E12E21E34FED5AE06D2F8AE18C0F0E94DE
S1134110781480917143882351F002E32DE04CE23E
S11341205DE16FE58FE10E94911310927143DF917D
S1134130CF911F910F91FF90EF900895DF92EF922E
S1134140FF920F931F93CF93DF93C82FD62F6091C5
S1134150C0437091C1438091C2439091C3430E9474
S11341600D2C9B012F3E82E0380744F01092C0438F
S11341701092C1431092C2431092C343EAE0F0E0AC
S1134180C901BF010E94002F182FCB01BF010E945B
S1134190002FF82EC90164E670E00E94002FCB01C5
S11341A0BF010E94002FD82EC90168EE73E00E945F
S11341B0002FE62E08E221E34FED5AE06D2F8C2FFD
S11341C00E947814ED2C21E34FED5AE06D2F8CE022
S11341D08C0F0E947814EF2C21E34FED5AE06D2FE1
S11341E088E18C0F0E947814E12E21E34FED5AE010
S11341F06D2F84E28C0F0E94781480917143882380
S113420051F009E32DE041ED5CE16FE58FE10E949F
S1134210911310927143DF91CF911F910F91FF90F1
S1134220EF90DF900895EF92FF920F931F93CF9337
S1134230DF93182FF62E6091BC437091BD4380919B
S1134240BE439091BF430E940D2CEB01072E000C3E
S1134250880B990B0E94452C2AE037ED4FE151E47D
S11342600E94F52C181644F41092BC431092BD43DE
S11342701092BE431092BF43CE016AE070E00E94E8
S1134280002FD62FC82FE12C08E221E34FED5AE08E
S11342906F2D812F0E94781409E026E049E65CE145
S11342A065E580E10E949113ED2E08E221E34FEDD4
S11342B05AE06F2D8DE0810F0E947814EC2E21E3DB
S11342C04FED5AE06F2D8AE1810F0E94781480919E
S11342D07143882351F009E32EE04FE65CE16FE57A
S11342E08FE10E94911310927143DF91CF911F913E
S11342F00F91FF90EF9008950F931F93CF93DF9347
S1134300C0E0D0E009C02AE030E040E050E00E9484
S1134310362FCA01B90121968B019C01075F1F4FFB
S11343202F4F3F4F033111052105310560F7CE01B1
S11343300196DF91CF911F910F9108952F923F9293
S11343404F925F926F927F928F929F92AF92BF92A1
S1134350CF92DF92EF92FF920F931F93CF93DF934D
S1134360562EF22E132F442EE52E682E712C622F1A
S1134370732F842F952F0E947C215C011C0162E025
S113438070E00E946F2F4C01C12CD12C18C0E601A3
S1134390CC0FDD1FC80DD91D6F2D712F842D9E2DBF
S11343A02AE030E040E050E00E94362F68837983B1
S11343B0F22E132F442EE52E4FEFC41AD40AE50132
S11343C02197CC16DD061CF3F101E150F048EE0F05
S11343D0FF1FE80DF91D8F2D912F80839183E02E0F
S11343E0F12CAE14BF04B4F5B701660F771FC401F6
S11343F00E94AC304C010AC0F501EE0FFF1FE80D1E
S1134400F91D108211825FEFA51AB50AAE14BF041C
S11344109CF3E70121972AEFAE012403C001259FF5
S1134420900D1124680E791E12C0FE01EE0FFF1FBD
S1134430E80DF91DE08008E128E14CE055E0652D28
S1134440862D0E94781456E0650E711C2197DD2399
S113445064F71EC02AEFAE012403C001259F900D0E
S11344601124680E791E12C0FE01EE0FFF1FE80D25
S1134470F91DE08008E128E14CE055E0652D862D2A
S11344800E94781456E0650E711C2197DD2364F7B1
S1134490C4010E942330DF91CF911F910F91FF90AF
S11344A0EF90DF90CF90BF90AF909F908F907F90D0
S11344B06F905F904F903F902F900895DF92EF920E
S11344C0FF920F931F93CF93DF93F82ED62EE42EF3
S11344D0022F061BD42FD81B10E013C0612F6D0DC3
S11344E0262F4E2D8F2D0E94D312C0E007C080E0EE
S11344F00E94681280E00E946812CF5FCD17B8F363
S11345001F5F101758F3DF91CF911F910F91FF9008
S1134510EF90DF900895DF92EF92FF920F931F9335
S1134520CF93DF93F82ED62EE42E022F061BD42F22
S1134530D81B10E013C0612F6D0D262F4E2D8F2D2B
S11345400E94D312C0E007C08FEF0E9468128FEF61
S11345500E946812CF5FCD17B8F31F5F101758F38E
S1134560DF91CF911F910F91FF90EF90DF9008950D
S11345702DE142E060E080E00E948B2208950F93D9
S113458026E946E460E080E00E9409160E94B82211
S11345900E9413200E94E91F1092C4431092C54345
S11345A01092C6431092C7436AE286E00E943E20FE
S11345B0809111409091124080934F4390935043C7
S11345C081E080934E4308E221E345E458E168E248
S11345D085E30E94911321E34AE359E168E282E40E
S11345E00E9491132FE047E95BE16FE582E40E94AA
S11345F091132FEF82E597E0215080409040E1F73E
S113460000C000000F9108950F931F93CF93DF9381
S113461027EE32E442ED5DE36091C4437091C543FB
S11346208091C6439091C7430E944A2D0E94142C46
S1134630162F072FC62FD02F809106409091074048
S11346408C179D0788F4CD34D10510F0CCE4D0E06C
S11346504C2F4E5F2DE162E08E5F0E948B22C0934F
S11346600640D093074011C0C817D90770F442E040
S1134670480F2DE162E082E0810F0E945E22812FCB
S1134680902F8093064090930740DF91CF911F9124
S11346900F9108950F930E94981F8091724388236D
S11346A089F180911640823099F08330B1F08130E5
S11346B019F580917143882331F02FE542E36AE2D2
S11346C082E00E9409166AE286E00E943E2018C039
S11346D06AE282E00E949E2013C080917143882385
S11346E031F02FE542E36AE282E00E9409166AE2B1
S11346F086E00E94132104C06AE286E00E943E2004
S11347001092724380917043882321F00E94042305
S11347101092704380911440882339F1809164434E
S1134720882391F083E791E40E948D10E0E2F4E0A5
S11347308481806284830AE22BE142EE5BE16BE7D1
S11347408CE30E9491130FC08DE891E40E948D10B8
S1134750E0E2F4E084818F7D848326E94DE468E718
S11347608CE30E94091610921440809164438823BC
S113477009F449C080916343882309F444C08091BB
S11347809843909199432091A8433091A943821B67
S1134790930B9C0122F422273327281B390B293E33
S11347A033408CF19091954381E089278093954320
S11347B0882361F0E0E2F4E084818F7D848326E93C
S11347C04DE468E78CE30E9409160DC0E0E2F4E0D2
S11347D08481806284830AE22BE142EE5BE16BE731
S11347E08CE30E9491138091A8439091A943A091D6
S11347F0AA43B091AB438093984390939943A09379
S11348009A43B0939B4380916E43882309F457C025
S113481080919043882309F442C0E0E4F4E0848169
S113482084608483809148439091494301968093A6
S1134830484390934943039724F0109248431092BD
S1134840494380914843909149438130910571F0E7
S113485082309105A1F0892BD9F408E228E14FE1D7
S11348605BE16EE787E00E94911316C008E228E13D
S113487047EA5AE16EE787E00E9491130DC008E20F
S113488028E14FE25AE16EE787E00E94911304C0E9
S1134890109248431092494310926D430EC0E0E4D5
S11348A0F4E084818B7F848326E94EE168E787E026
S11348B00E94091681E080936D4310926E438091AB
S11348C07643811104C080917543882341F000E24E
S11348D02AE14CE75EE16CE784E10E9491130F91B9
S11348E00895E0E0F4E080818160808380818260CB
S11348F0808380898860808BE0E0FAE080E89CE037
S113490086A397A310A611A610A211A2818180618B
S113491081838181836081838081816080838081C0
S11349208260808308959DE994BF80930010089568
S11349301F93CF93DF93EC01162F8091021081FD1A
S1134940FCCF83E190E00E949324DC5E188380E036
S113495090E00E949324DF91CF911F9108950F93CB
S11349601F93CF93DF93EC018B018091021081FDA3
S1134970FCCF83E190E00E949324DC5E08831983DA
S113498080E090E00E949324DF91CF911F910F91DA
S11349900895209102100E94A1310895AF92BF9210
S11349A0CF92DF92EF92FF920F931F93CF93DF93F7
S11349B081E090E00E94C924A82E83E090E00E9448
S11349C0C92491E0811101C090E09093C84300E0B4
S11349D0C12CD12C7601B12C6DC081E00E940E1245
S11349E06093C4437093C5438093C6439093C74375
S11349F08091CC43882379F08091CA439091CB4332
S1134A0001968093CA439093CB431092CC4388EA97
S1134A1091E40E948D102091C4433091C54340918C
S1134A20C6435091C743C701B6010E94962B81111A
S1134A3006C088EB91E40E948D101F5F05C083EDD2
S1134A4091E40E948D1010E0C090C443D090C543FF
S1134A50E090C643F090C743219603C0C0E0D0E085
S1134A6010E0CA30D1050CF4B8CF8091CA439091BC
S1134A70CB43049714F4163040F00E9439180F5FAA
S1134A801092CA431092CB4315C01092CA4310929D
S1134A90CB431092C84360E081E090E00E949824E8
S1134AA06091C84383E090E00E94982400E0BB2416
S1134AB0B394A12CB11002C0033080F2033088F10A
S1134AC061E06A0D81E08093C84381E090E00E9438
S1134AD098246091C84383E090E00E9498248FE278
S1134AE095E70197F1F700C000006091904382E0E0
S1134AF090E00E9498246091644386E090E00E94D4
S1134B00982461E085E090E00E9498248FE295E784
S1134B100197F1F700C0000061E081E490E00E9499
S1134B20B531DF91CF911F910F91FF90EF90DF90FE
S1134B30CF90BF90AF90089580E00E949D160E9490
S1134B4031180E94D01F0E9439180E94CE24089563
S1134B50209102100E94B031089589E190E00E94F2
S1134B60A82580931140909312408BE190E00E941D
S1134B70A82580930F40909310408DE190E00E940F
S1134B80A82580930D4090930E408FE190E00E9401
S1134B90A82580930B4090930C4081E290E00E9402
S1134BA0A8258093094090930A4008950E94AD255A
S1134BB085E090E00E94C92491E0811101C090E059
S1134BC09093C94360E085E090E00E94982483E0DC
S1134BD090E00E94C92491E0811101C090E090937B
S1134BE0C843992341F082E090E00E94C92486E002
S1134BF090E00E94C9240895209102100E94A931D6
S1134C000895CF92DF92EF92FF920F9385E190E0A7
S1134C100E94FC25611524E572072AEE82072AE228
S1134C20920720F021E02093764302C0109276434D
S1134C300F2EF0E8CF2EFEEEDF2EF6E3EF2EF12C52
S1134C40F02DA70196010E94142F04E06BE286E484
S1134C500E949E2181E190E00E94FC25A70196011B
S1134C600E94142F67E686E40E949E210F91FF9014
S1134C70EF90DF90CF900895AF92BF92CF92DF92E2
S1134C80EF92FF920F931F93CF93DF93EC016A018E
S1134C907B015C018FEFA81AB80A642FCE010E9431
S1134CA098246D2D8E010E5F1F4FC5010E9498241C
S1134CB06E2D2396C8010E9498246F2D772788278C
S1134CC09927CE010E949824DF91CF911F910F91D3
S1134CD0FF90EF90DF90CF90BF90AF900895CF9268
S1134CE0DF92EF92FF920F93C090A843D090A94314
S1134CF0E090AA43F090AB4389C0E0E4F4E08085FF
S1134D0080748087882309F481C0E0E8F4E080851A
S1134D1084708087882309F479C02FEF3DE389E408
S1134D20215030408040E1F700C0000026E940E512
S1134D3060E080E00E94091600E324E144E954E0C5
S1134D4069E485E00E94911300E42EE144EA53E013
S1134D5069E486E10E94911308E12EE14AE453E0FC
S1134D6069E48AE20E94911300E42EE14AE552E0EC
S1134D7069E482E30E9491132EE14AE651E06DE575
S1134D8086E00E9491130E947A1C80918F438111C6
S1134D9010C09091644391110CC090918C43911177
S1134DA008C090919043911104C090918E4399232F
S1134DB061F390919043992349F1109290438111AA
S1134DC00CC090916443911108C090918C4391114F
S1134DD004C090918E43992391F380918C4388234E
S1134DE0A9F010928C4340E050E0BA0185E190E0D4
S1134DF00E943C261092764326E940E560E080E07C
S1134E000E9409160E941E270E947A1C8091A843C2
S1134E109091A9439601281B390BC901813630EFC3
S1134E20930724F0803A9F400CF467CF0E947A1CC9
S1134E300F91FF90EF90DF90CF9008950F9326E9A4
S1134E4046E460E080E00E94091600E42EE14CEBA9
S1134E5059E06BE281E00E94911300E32EE148E007
S1134E6059E06BE287E10E9491132EE144E558E09A
S1134E7067E681E00E94911300E22EE14CED57E0D9
S1134E8067E681E10E94911300E32EE148E059E0D6
S1134E9067E68CE10E9491130E9401260E946F260E
S1134EA026E940E560E080E00E9409160F9108952C
S1134EB0CF92DF92EF92FF928091A8439091A94301
S1134EC0A091AA43B091AB43409191435091924336
S1134ED06091934370919443841B950BA60BB70B7D
S1134EE0813C9742A940B10508F444C080915543E0
S1134EF0882309F43FC081E190E00E94FC25AB01C6
S1134F00BC014054584D664F7F4F81E190E00E94B0
S1134F103C2685E190E00E94FC256B017C0120EC9D
S1134F20C20E27E2D21E29E0E21EF11CB701A6013F
S1134F3085E190E00E943C26C11484E5D8068AEEFF
S1134F40E8068AE2F80620F081E08093754302C007
S1134F50109275438091A8439091A943A091AA43CC
S1134F60B091AB438093914390939243A093934326
S1134F70B0939443FF90EF90DF90CF9008951F92E9
S1134F800F920FB60F9211240BB60F928F93EF93DB
S1134F90FF938091A90482FF12C0809190438823DB
S1134FA019F01092904303C081E08093904381E014
S1134FB080935743E0EAF4E0818584608187FF9120
S1134FC0EF918F910F900BBE0F900FBE0F901F901B
S1134FD018951F920F920FB60F9211240BB60F92D1
S1134FE02F933F934F935F936F937F938F939F93ED
S1134FF0AF93BF93EF93FF938091490486FF4FC013
S113500080918F4381111CC08091A8439091A94342
S1135010A091AA43B091AB43409151435091524364
S11350206091534370915443841B950BA60BB70BAB
S11350308B3F9105A105B10518F081E080938F4362
S11350408091480486FF18C0809155438823A1F0BD
S113505081E0809356438091A8439091A943A09105
S1135060AA43B091AB438093514390935243A0938E
S11350705343B09354430EC08091480486FD0AC044
S1135080109251431092524310925343109254433E
S113509010925643E0E4F4E0818580648187809136
S11350A0490488230CF04DC080919043882389F1F2
S11350B080916B4381111BC0909148049923BCF4E7
S11350C081E00E949D168091A8439091A943A091EC
S11350D0AA43B091AB4380935B4390935C43A0930A
S11350E05D43B0935E4381E080936B4325C0882386
S11350F019F1809148048823FCF080E00E949D16F9
S1135100809166438F5F8093664381E080936A4316
S113511013C080916B43811108C080914804882397
S113512024F481E080936B4307C080914804882372
S11351301CF081E080936A43E0E4F4E081858068B8
S113514081878091490483FF08C081E0809369438B
S1135150E0E4F4E0818588608187FF91EF91BF915D
S1135160AF919F918F917F916F915F914F913F91FB
S11351702F910F900BBE0F900FBE0F901F9018959C
S11351801F920F920FB60F9211240BB60F922F930A
S11351903F934F935F936F937F938F939F93AF93BB
S11351A0BF93EF93FF938091890481FF0AC081E04C
S11351B080938C4380931340E0E8F4E0818582601F
S11351C081878091890482FF12C08091644388237F
S11351D019F01092644303C081E08093644381E03A
S11351E080935843E0E8F4E081858460818780916E
S11351F0890480FF0CC080EF91E40E948D1081E04F
S113520080938E43E0E8F4E0818581608187FF919B
S1135210EF91BF91AF919F918F917F916F915F912A
S11352204F913F912F910F900BBE0F900FBE0F9097
S11352301F9018950F931F93CF93DF938B01EA016F
S11352404091880442FF0EC0280F391FC217D307AC
S11352500CF0E901BE010D2E000C880B990B0E9485
S1135260CC1015C04091A80442FF10C0AC01421BF1
S1135270530B461757070CF08A01B801012E000C96
S1135280880B990B0E94CC10E80101C0EC015FE788
S11352908FE492E1515080409040E1F700C000005B
S11352A0CE01DF91CF911F910F910895CF93DF939A
S11352B0109213408FE092E40E948D1085E492E4F2
S11352C00E94AE1060914E4370E080E090E00E9436
S11352D0CC1085E592E40E94AE1060914D4370E0DD
S11352E080E090E00E94CC1085E692E40E94AE102B
S11352F060914C4370E080E090E00E94CC1085E720
S113530092E40E94AE1060914B4370E080E090E024
S11353100E94CC1085E892E40E94AE1060914A434A
S113532070E080E090E00E94CC1020E030E0C6C045
S113533090914E43992339F185E992E40E948D10AE
S1135340C0E0DAE04EA15FA160911140709112407B
S113535080911140909112406456710925E030E02B
S11353600E941A29809311409093124088A799A70C
S113537080911140909112408093594390935A43E5
S113538029E130E09BC090914D43992319F1C0E08D
S1135390DAE04EA15FA160910F40709110408091BE
S11353A00F40909110406456710925E030E00E944E
S11353B01A2980930F409093104088A799A7809151
S11353C00F40909110408093594390935A432BE19E
S11353D030E074C080914C43882319F1C0E0DAE0D6
S11353E04EA15FA160910D4070910E4080910D40DF
S11353F090910E406456710925E030E00E941A290C
S113540080930D4090930E4088A799A780910D40FA
S113541090910E408093594390935A432DE130E08C
S11354204DC080914B43882319F1C0E0DAE04EA1CE
S11354305FA160910B4070910C4080910B40909162
S11354400C406456710925E030E00E941A298093CB
S11354500B4090930C4088A799A780910B409091A2
S11354600C408093594390935A432FE130E026C077
S113547080914A43882311F1C0E0DAE04EA15FA194
S11354806091094070910A408091094090910A40CE
S11354906456710925E030E00E941A29809309407E
S11354A090930A4088A799A78091094090910A4057
S11354B08093594390935A4321E230E090911340F2
S11354C0992309F435CF6091594370915A43C90126
S11354D00E94AF248BEE92E40E948D101092134030
S11354E023E94CE362E882E30E9409166091594380
S11354F070915A43072E000C880B990B0E94CC1014
S11355001092564310924E4310924D4310924C43C6
S113551010924B4310924A4310928C438FE193E4D0
S11355200E948D108091594390915A43DF91CF91FD
S113553008950F9380915643882389F18091A8435D
S11355409091A943A091AA43B091AB434091514398
S1135550509152436091534370915443841B950B73
S1135560A60BB70B893B9B40A105B105C0F0109277
S11355705643109251431092524310925343109247
S1135580544386E393E40E948D1009E121E14CEA3F
S11355905AE062E882E30E9491130E9456290F9117
S11355A00895F89495E288ED84BF909368000E9472
S11355B0B51B80E895E20E945B10E0E4F4E0808192
S11355C08061808384818F7E8483E0E2F4E0808143
S11355D0816080830E9471240E94E110E0E0F4E085
S11355E080818062808384818F7D8483E0E8F4E01D
S11355F08081886080830E94C7110E94D6250E9402
S1135600C31A0E9436160E94891F0E9465180E94C0
S11356109C252FEF82E597E0215080409040E1F7F0
S113562000C0000078940E941E270E94BF2282E3DB
S11356300E941D170E947C1F0E94B31A0E94C61A62
S11356400E944A230E94A2190E94992A0E94582764
S1135650EECF5058BB27AA270E94412B0C94BB2C99
S11356600E94AD2C38F00E94B42C20F039F49F3FF6
S113567019F426F40C94AA2C0EF4E095E7FB0C9490
S1135680A42CE92F0E94CC2C58F3BA176207730795
S11356908407950720F079F4A6F50C94EE2C0EF40B
S11356A0E0950B2EBA2FA02D0B01B90190010C012E
S11356B0CA01A0011124FF27591B99F0593F50F446
S11356C0503E68F11A16F040A22F232F342F44279E
S11356D0585FF3CF469537952795A795F040539596
S11356E0C9F77EF41F16BA0B620B730B840BBAF066
S11356F09150A1F0FF0FBB1F661F771F881FC2F7D1
S11357000EC0BA0F621F731F841F48F487957795E4
S11357106795B795F7959E3F08F0B0CF9395880F9E
S113572008F09927EE0F9795879508950E94802C8D
S113573008F481E008950E94AF2B0C94BB2C0E94C6
S1135740B42C58F00E94AD2C40F029F45F3F29F0AE
S11357500C94A42C51110C94EF2C0C94AA2C0E94A0
S1135760CC2C68F39923B1F3552391F3951B550B76
S1135770BB27AA2762177307840738F09F5F5F4F20
S1135780220F331F441FAA1FA9F335D00E2E3AF05F
S1135790E0E832D091505040E695001CCAF72BD077
S11357A0FE2F29D0660F771F881FBB1F26173707C8
S11357B04807AB07B0E809F0BB0B802DBF01FF27FA
S11357C093585F4F3AF09E3F510578F00C94A42C07
S11357D00C94EF2C5F3FE4F3983ED4F386957795D1
S11357E06795B795F7959F5FC9F7880F911D9695B3
S11357F0879597F90895E1E0660F771F881FBB1F0F
S1135800621773078407BA0720F0621B730B840BBB
S1135810BA0BEE1F88F7E09508950E94142C689443
S1135820B1110C94EF2C08950E94D42C88F09F574A
S113583098F0B92F9927B751B0F0E1F0660F771FB0
S1135840881F991F1AF0BA95C9F714C0B13091F0A6
S11358500E94EE2CB1E008950C94EE2C672F782F63
S11358608827B85F39F0B93FCCF38695779567956B
S1135870B395D9F73EF490958095709561957F4FD7
S11358808F4F9F4F0895E89409C097FB3EF490957D
S11358908095709561957F4F8F4F9F4F9923A9F005
S11358A0F92F96E9BB279395F69587957795679594
S11358B0B795F111F8CFFAF4BB0F11F460FF1BC0D8
S11358C06F5F7F4F8F4F9F4F16C0882311F096E96B
S11358D011C0772321F09EE8872F762F05C0662319
S11358E071F096E8862F70E060E02AF09A95660FD2
S11358F0771F881FDAF7880F9695879597F908958B
S1135900990F0008550FAA0BE0E8FEEF16161706CC
S1135910E807F907C0F012161306E407F50798F034
S1135920621B730B840B950B39F40A2661F0232B4D
S1135930242B252B21F408950A2609F4A140A695C9
S11359408FEF811D811D089597F99F6780E870E0AE
S113595060E008959FEF80EC089500240A941616E1
S1135960170618060906089500240A941216130649
S1135970140605060895092E0394000C11F48823D7
S113598052F0BB0F40F4BF2B11F460FF04C06F5FF3
S11359907F4F8F4F9F4F089557FD9058440F551FC9
S11359A059F05F3F71F04795880F97FB991F61F09D
S11359B09F3F79F087950895121613061406551F14
S11359C0F2CF4695F1DF08C0161617061806991F80
S11359D0F1CF86957105610508940895E894BB2775
S11359E066277727CB0197F908950E94802C08F445
S11359F08FEF089516F00C94412E0C94AA2C689401
S1135A000C94A42C0E94D42CA8F39923C1F3AEF3D4
S1135A10DF93CF931F930F93FF92C92FDD27882322
S1135A202AF02197660F771F881FDAF720E030E00D
S1135A3040E85FEB9FE3883920F0803E38F0219600
S1135A408F770E942A2BE8EEF0E004C00E942A2BF4
S1135A50E5E1F1E00E944F2E8B01BE01EC01FB2E2B
S1135A606F5771097595771F880B990B0E94452C08
S1135A7028E132E741E35FE30E945D2DAF2D9801F9
S1135A80AE01FF900F911F91CF91DF910E94412BA6
S1135A900C94BB2C0E945D2D0C94BB2C0E94AD2C4D
S1135AA038F00E94B42C20F0952311F00C94A42C0F
S1135AB00C94AA2C11240C94EF2C0E94CC2C70F37F
S1135AC0959FC1F3950F50E0551F629FF001729F9F
S1135AD0BB27F00DB11D639FAA27F00DB11DAA1FAE
S1135AE0649F6627B00DA11D661F829F2227B00DFB
S1135AF0A11D621F739FB00DA11D621F839FA00D86
S1135B00611D221F749F3327A00D611D231F849FD5
S1135B10600D211D822F762F6A2F11249F5750402C
S1135B209AF0F1F088234AF0EE0FFF1FBB1F661FA7
S1135B30771F881F91505040A9F79E3F510580F070
S1135B400C94A42C0C94EF2C5F3FE4F3983ED4F314
S1135B50869577956795B795F795E7959F5FC1F714
S1135B60FE2B880F911D9695879597F90895FA0154
S1135B70EE0FFF1F309621053105A1F16115710566
S1135B8061F48038BFE39B0749F16894903881053C
S1135B9061F08038BFEF9B0741F099234AF5FF3F3E
S1135BA0E1053105210519F1E8940894E795D90137
S1135BB0AA2329F4AB2FBE2FF85FD0F310C0FF5FE8
S1135BC070F4A695E0F7F73950F019F0FF3A38F47D
S1135BD09F779F930DD00F9007FC9058089546F03F
S1135BE00C94AA2C60E070E080E89FE308954FE7EE
S1135BF09F775F934F933F932F930E94022D2F9192
S1135C003F914F915F910E944A2D0C940F2E29F4DD
S1135C1016F00C94A42C0C94EE2C0C94AA2C0E9438
S1135C20D42CA8F39638A0F707F80F92E8942BE346
S1135C303AEA48EB5FE70E94602D0F920F920F92B1
S1135C404DB75EB70F920E94B82EE2E4F1E00E94D5
S1135C504F2E4F915F91EF91FF91E595EE1FFF1F3E
S1135C6049F0FE57E0684427EE0F441FFA95E1F728
S1135C704195550B0E94822E0F9007FE0C94762EB0
S1135C8008959F3F31F0915020F48795779567955B
S1135C90B795880F911D9695879597F90895DF9389
S1135CA0CF931F930F93FF92EF92DF927B018C01AE
S1135CB0689406C0DA2EEF010E945D2DFE01E8947F
S1135CC0A5912591359145915591A6F3EF010E9437
S1135CD0412BFE019701A801DA9469F7DF90EF9058
S1135CE0FF900F911F91CF91DF9108959B01AC011B
