S017000044635F73756374696F6E5F70756D702E73726563E1
S11300000C945E0F0C947D0F0C947D0F0C947D0F5B
S11300100C947D0F0C947D0F0C947D0F0C947D0F2C
S11300200C947D0F0C947D0F0C947D0F0C947D0F1C
S11300300C947D0F0C94FC1A0C947D0F0C947D0F82
S11300400C947D0F0C947D0F0C947D0F0C947D0FFC
S11300500C947D0F0C947D0F0C947D0F0C947D0FEC
S11300600C947D0F0C947D0F0C947D0F0C947D0FDC
S11300700C947D0F0C9401270C94321B0C947D0F6F
S11300800C947D0F0C947D0F0C94D7260C947D0F4B
S11300900C947D0F0C947D0F0C947D0F0C947D0FAC
S11300A00C947D0F0C947D0F0C947D0F0C947D0F9C
S11300B00C947D0F0C94D8270C947D0F0C947D0F19
S11300C00C947D0F0C947D0F0C947D0F0C947D0F7C
S11300D00C947D0F0C947D0F0C947D0F0C947D0F6C
S11300E00C947D0F0C947D0F08000000BE922449EF
S11300F0123EABAAAA2ABECDCCCC4C3E0000008056
S1130100BEABAAAAAA3E00000000BF000000803FC8
S11301100000000000084178D3BB4387D1133D1988
S11301200E3CC3BD4282AD2B3E68EC8276BED98FB5
S1130130E1A93E4C80EFFFBE01C4FF7F3F000000F9
S113014000000000000000000000000000000000AB
S113015000000000000000000000FE3F3FDFEFF75A
S1130160F306FF7FBFDFEFF7FB86C36186030C0650
S11301701BC6C36186030C061BC6C36186030C063B
S11301801BE6C36186030C061B66FF7F86030FC74D
S1130190FB76FE7F86030FC7F336C06186030C0728
S11301A0833EC06186030C06C31EC06186030C0631
S11301B0631EC06186030C06330EC06186030FF60E
S11301C01B0EC06186030FF60B0600000000000042
S11301D0000000000000000000000000000000001B
S11301E0000000000000000000000000000000000B
S11301F000000000000000000000000000000000FB
S113020000000000000000000000000000000000EA
S113021000000000000000000000000000000000DA
S113022000000000000000000000000000000000CA
S113023000000000000000000000000000000000BA
S1130240000000000000000000003F1F8FE7E7F9F6
S1130250F9807FBFDFEFF7FBFD8061B0D80C30C3BE
S11302600D806030D80C00C30D806030D80C00C302
S11302700D806030D80C00C30D807F3FDF8C00C33D
S1130280FD803FBF9F8C00C3FD8001B0180C00C3EC
S11302900D8001B0180C00C30D8001B0180C00C310
S11302A00D8061B0180C30C30D807FB01FEFF7FBD9
S11302B00DFE3F300FE7E7FB0DFE000000000000DD
S11302C0000000000000000000000000000000002A
S11302D0000000000000000000000000000000001A
S11302E0000000000000000000000000000000000A
S11302F000000000000000000000000000000000FA
S113030000000000000000000000000000000000E9
S113031000000000000000000000000000000000D9
S113032000000000000000000000003FD8303FDC67
S113033030061E30061E30061F30061B30061BB06A
S11303400619B00619F00618F00618F00618703FE2
S1130350D8703FD83000000000000000000000000A
S11303600000000000000000000000000000000089
S11303700000000000000000000000000000000079
S11303800000000000000000000000000000000069
S1130390000000003F9837FBFCFCC1803FD837FBCE
S11303A0FDFEE18030D830C06186F18030D830C0A5
S11303B06186F18030D830C06186F98030D830C091
S11303C06186D9803F9830C06186DD803F9830C017
S11303D06186CD8030D830C06186CF8030D830C0BF
S11303E06186C78030D830C06186C78030D830C0BD
S11303F06186C3803FDFF0C061FEC3803F8FE0C0F1
S113040060FCC1800000000000000000000000004B
S113041000000000000000000000000000000000D8
S113042000000000000000000000000000000000C8
S113043000000000000000000000000000000000B8
S113044000000000000000000000000000000000A8
S11304500000000000000000000000000000000098
S11304600000000000000000000000000000000088
S113047000000000000000000000000000007F3FBA
S11304809FE7E3F07FBFDFEFF7F861B0D80C3618D1
S113049061B0D80C060061B0D80C060061B0D80C6D
S11304A006007FBFDF8FE7F07F3F9F87F7F8603C50
S11304B018003018603618003018603318003018EF
S11304C06031980C36186030DFEFF7F860305FEF7A
S11304D0E3F0000000000000000000000000000045
S11304E0000000003FFC007FFE00FFFF00FFFF0054
S11304F0F00F00F00F00F00F00F00F00F00F00F00D
S11305000F00F00F00F00F00F00F00F00F00F00FDD
S113051000F00F00F00F00F00F00F00F00F00F00DC
S1130520FFFF00FFFF007FFE003FFC0003F0000719
S1130530F0000FF0000FF0000FF0000FF0000FF0CC
S11305400001F00001F00001F00001F00001F000F2
S113055001F00001F00001F00001F00001F00001E1
S1130560F00001F00001F0000FFE000FFE000FFE8E
S1130570000FFE003FFC007FFE00FFFF00FFFF00B6
S1130580F00F00F00F00000F00000F00000F00003C
S11305900F003FFF007FFF00FFFE00FFFC00F000A4
S11305A000F00000F00000F00000F00000F0000097
S11305B0FFFF00FFFF007FFF003FFF003FFC007FC5
S11305C0FE00FFFF00FFFF00F00F00F00F00000F20
S11305D000000F00000F00000F001FFF001FFF00AE
S11305E01FFF001FFF00000F00000F00000F00009E
S11305F00F00F00F00F00F00FFFF00FFFF007FFE71
S1130600003FFC00007C0000FC0000FC0001FC003A
S113061003FC0003FC0007FC000FFC000FBC001FE0
S11306203C003F3C003E3C007C3C00FC3C00F83C71
S113063000FFFF00FFFF00FFFF00FFFF00003C0082
S1130640003C00003C00003C00003C00FFFF00FFB9
S1130650FF00FFFF00FFFF00F00000F00000F000CB
S113066000F00000FFFC00FFFE007FFF003FFF00E2
S1130670000F00000F00000F00000F00000F00F03B
S11306800F00F00F00F00F00FFFF00FFFF007FFEE0
S1130690003FFC003FFC007FFE00FFFF00FFFF0067
S11306A0F00F00F00F00F00000F00000F00000F088
S11306B00000FFFC00FFFE00FFFF00FFFF00F00F43
S11306C000F00F00F00F00F00F00F00F00F00F002B
S11306D0FFFF00FFFF007FFE003FFC00FFFF00FF65
S11306E0FF00FFFF00FFFF00F01F00F01F00F03FBE
S11306F000003E00003E00007C00007C0000FC0086
S113070000F80000F80001F00001F00003F000031D
S1130710E00003E00007C00007C0000FC0000F8026
S1130720000F80003FFC007FFE00FFFF00FFFF0082
S1130730F00F00F00F00F00F00F00F00F00F00F0CA
S11307400F007FFE003FFC003FFC007FFE00F00F27
S113075000F00F00F00F00F00F00F00F00F00F009A
S1130760FFFF00FFFF007FFE003FFC003FFC007F17
S1130770FE00FFFF00FFFF00F00F00F00F00F00F7E
S113078000F00F00F00F00F00F00FFFF00FFFF006C
S11307907FFF003FFF00000F00000F00000F00F07C
S11307A00F00F00F00F00F00FFFF00FFFF007FFEBF
S11307B0003FFC00000000000000000000000000FA
S11307C01F986C183FD86E1830D86F1830D86F182F
S11307D030D86F9830D86D983FD86DD83F986CD882
S11307E03C186CD836186C7833186C7831986C389F
S11307F030DFEC38304FCC3800000000000000003F
S113080000000000000000000000000000000000E4
S113081000000000000000000000000000000000D4
S113082000000000000000000000000000000000C4
S113083000000000000000000000000000007F9F96
S11308409FE7E6007FBFDFEFF6000C30C30C3600F5
S11308500C30C30C36000C30C30C36000C30C30C07
S113086036000C30C30FF6000C30C30FF6000C300A
S1130870C30C36000C30C30C36000C30C30C3600ED
S11308800C30C30C36000C3FC30C37F80C1F830C20
S113089037F8000000000000000000000000000025
S11308A00000000000000000000000000000000044
S11308B00000000000000000000000000000000034
S11308C00000000000000000000000000000000024
S11308D00000000000000000000000000000000014
S11308E00000000000000000000000000000000004
S11308F0000030CFCC33F1F830DFEC37FBFC30D8DC
S11309006C361B0C30D86C361B0030D86C361B0090
S113091030D86C361B003FD86C37FBF83FD86C37A7
S1130920F1FC30D86C37800C30D86C36C00C30D821
S11309306C36600C30D86C36330C30DFEFF61BFCB1
S113094030CFC7E609F800000000000000000000F6
S11309500000000000000000000000000000000093
S11309600000000000000000000000000000000083
S11309700000000000000000000000000000000073
S11309800000000000000000000000000000000063
S11309900000000000000000000000000000000053
S11309A00000000000000000000000003F1FCFCC4A
S11309B037F9F9FE7FBFDFEC37FBFDFE61B0186C41
S11309C030C30D806030186C30C301806030186C07
S11309D030C301806030186C30C301807F3F1FEC4E
S11309E030C301F83FBF1FCE70C301F801B01E0E23
S11309F070C3018001B01B07E0C3018001B01987F7
S1130A00E0C3018061B018C3C0C30D807FBFD86349
S1130A10C7FBFDFE3F1FD82187F9F9FE0000000047
S1130A2000000000000000000000000000000000C2
S1130A3000000000000000000000000000000000B2
S1130A4000000000000000000000000000000000A2
S1130A500000000000000000000000000000000092
S1130A600000000000000000000000000000000082
S1130A700000000000000000000000000000000072
S1130A80000000000000000FF8001FFC00180C001C
S1130A90180C001800001800001FF0000FF80000E8
S1130AA01C00000C00180C00180C001C1C001FFC7F
S1130AB0000FF80000000007FFFF80001FFFFFE0A9
S1130AC0003FFFFFF0007FFFFFF8007FFFFFF8000B
S1130AD0FFFFFFFC00FFFFFFFC00FFFFFFFC00FF28
S1130AE0E01FFC00FFC00FFC00FF8007FC00FF803C
S1130AF007FC00FF8007FC00FF8007FC00FF800765
S1130B00FC00FF8007FC00FF8007FC00FF8007FC5F
S1130B1000FF8007FC00FF8007FC00FF8007FC004B
S1130B20FF8007FC00FF8007FC00FF8007FC00FF3C
S1130B308007FC00FF8007FC00FF8007FC00FF80AB
S1130B4007FC00FF8007FC00FF8007FC00FF800714
S1130B50FC00FF8007FC00FF8007FC00FF8007FC0F
S1130B6000FF8007FC00FF8007FC00FF8007FC00FB
S1130B70FF8007FC00FF8007FC00FFC00FFC00FFA4
S1130B80E01FFC00FFFFFFFC00FFFFFFFC00FFFF76
S1130B90FFFC007FFFFFF8007FFFFFF8003FFFFF2F
S1130BA0F0001FFFFFE00007FFFF80000003FE00CE
S1130BB0000007FE0000000FFE0000000FFE000012
S1130BC0001FFE0000003FFE0000007FFE0000004A
S1130BD0FFFE000001FFFE000003FFFE000007FF10
S1130BE0FE000007FFFE000007FFFE000007FFFEF7
S1130BF0000007FBFE000007F3FE000007E3FE0011
S1130C000007C3FE00000783FE00000703FE000088
S1130C100003FE00000003FE00000003FE000000CD
S1130C2003FE00000003FE00000003FE00000003BA
S1130C30FE00000003FE00000003FE00000003FEAF
S1130C4000000003FE00000003FE00000003FE009D
S1130C50000003FE00000003FE00000003FE00008D
S1130C600003FE00000003FE00000003FE0000007D
S1130C7003FE00000003FE00000FFFFFFF000FFF54
S1130C80FFFF000FFFFFFF000FFFFFFF000FFFFF3D
S1130C90FF000FFFFFFF000FFFFFFF000FFFFFFF2D
S1130CA000000FFF8000003FFFE000007FFFF8001E
S1130CB000FFFFFC0001FFFFFE0003FFFFFF000732
S1130CC0FFFFFF8007FFFFFFC00FFC03FFC00FF80B
S1130CD001FFE01FF000FFE01FF0007FE01FF000C5
S1130CE07FE01FF0007FE01FF0007FE01FF0007F37
S1130CF0E0000000FFE0000001FFC0000003FFC0AF
S1130D00000007FFC000000FFF8000001FFF00006D
S1130D10003FFF0000007FFE000000FFFC00000118
S1130D20FFF8000003FFF0000007FFE000000FFFE2
S1130D30C000001FFF8000003FFF0000007FFE0096
S1130D400000FFFC000001FFF8000003FFF00000BA
S1130D5007FFE000000FFFC000001FFF8000001F1E
S1130D60FF0000003FFE0000003FFC0000003FFFCA
S1130D70FFFFE03FFFFFFFE03FFFFFFFE03FFFFF1C
S1130D80FFE03FFFFFFFE03FFFFFFFE03FFFFFFF0C
S1130D90E03FFFFFFFE0003FFFC00000FFFFF00067
S1130DA001FFFFF80003FFFFFE0007FFFFFF000F36
S1130DB0FFFFFF800FFFFFFFC00FF001FFC00FC058
S1130DC000FFC00FC0007FC00FC0007FC00F8000B5
S1130DD03FC00000003FC00000003FC00000003FD3
S1130DE0C00000003FC00000007FC00000007FC0C2
S1130DF0000000FFC0000003FFC0003FFFFF8000B1
S1130E007FFFFF00007FFFFC00007FFFF000007FFA
S1130E10FFFF00007FFFFF80007FFFFFC0003FFF58
S1130E20FFC0000003FFC0000001FFC00000007FFE
S1130E30C00000007FC00000003FC00000003FC0B1
S1130E400000003FC00000003FC00000003FC00F92
S1130E5080003FC00FC0007FC00FC0007FC00FC024
S1130E6000FFC00FF001FFC00FFFFFFF800FFFFF67
S1130E70FF0007FFFFFF0003FFFFFE0001FFFFFC71
S1130E800000FFFFF000003FFFC000000003FE0071
S1130E90000007FE0000000FFE0000001FFE00001F
S1130EA0003FFE0000007FFE000000FFFE00000186
S1130EB0FFFE000003FFFE000007FFFE00000FFF1F
S1130EC0FE00001FFDFE00003FF9FE00007FF1FE62
S1130ED00000FFE1FE0001FFC1FE0003FF81FE00F0
S1130EE007FF01FE000FFE01FE001FFC01FE003F94
S1130EF0F801FE007FF001FE00FFE001FE00FFC0EC
S1130F0001FE00FFFFFFFFE0FFFFFFFFE0FFFFFF29
S1130F10FFE0FFFFFFFFE0FFFFFFFFE0FFFFFFFF3A
S1130F20E0FFFFFFFFE0000001FE00000001FE0003
S1130F30000001FE00000001FE00000001FE0000B0
S1130F400001FE00000001FE00000001FE000000A0
S1130F5001FE00000001FE00000001FE000000018F
S1130F60FE00000001FE00000001FE00000001FE82
S1130F7000000001FE00000001FE00000001FE0070
S1130F801FFFFFFFC03FFFFFFFC03FFFFFFFC03F4A
S1130F90FFFFFFC03FFFFFFFC03FFFFFFFC03FFF5A
S1130FA0FFFFC03FFFFFFFC03FFFFFFFC03FE00068
S1130FB000003FE00000003FE00000003FE00000D0
S1130FC0003FE00000003FE00000003FE0000000C0
S1130FD03FE00000003FE3FFFC003FE7FFFE003F6F
S1130FE0EFFFFF003FFFFFFF803FFFFFFFC03FFF1A
S1130FF0FFFFE03FFFFFFFE03FFFFFFFF03FFC008C
S11310007FF03FF0003FF83FE0001FF80000000FC2
S1131010F800000007F800000007F800000007F8D7
S113102000000007F800000007F800000007F83F80
S1131030E00007F83FE00007F83FE0000FF83FF05A
S1131040001FF83FF0003FF83FF8007FF83FFFFF34
S1131050FFF03FFFFFFFF03FFFFFFFE01FFFFFFF39
S1131060C00FFFFFFF8007FFFFFF0003FFFFFE002D
S113107001FFFFFC0001FFFF800003FFFFE0000F02
S1131080FFFFF8001FFFFFFC003FFFFFFE003FFFD4
S1131090FFFF007FFFFFFF007FFFFFFF00FFF00364
S11310A0FF00FFE001FF00FFC001FF00FF8000FF21
S11310B000FF80007F00FF80007F00FF80000000B1
S11310C0FF80000000FF80000000FF80000000FFA0
S11310D080000000FF80000000FF9FFE0000FFBFB3
S11310E0FF8000FFFFFFE000FFFFFFF000FFFFFFB6
S11310F0F800FFFFFFFC00FFFFFFFE00FFFFFFFE05
S113110000FFFFFFFF00FFE003FF00FFC001FF003F
S1131110FFC001FF00FF8000FF00FF8000FF00FF11
S11311208000FF00FF8000FF00FF8000FF00FF80C1
S113113000FF00FF8001FF00FFC001FF00FFE0038C
S1131140FF00FFFFFFFF00FFFFFFFF00FFFFFFFFA8
S1131150007FFFFFFE007FFFFFFE003FFFFFFC005C
S11311601FFFFFF8000FFFFFF0003FFFFFFF803F6E
S1131170FFFFFF803FFFFFFF803FFFFFFF803FFF38
S1131180FFFF803FFFFFFF803FFFFFFF803FFFFF28
S1131190FF803FFFFFFF80000007FF80000007FF84
S11311A080000007FF8000000FFF0000000FFF0019
S11311B000001FFE0000001FFE0000001FFE0000D4
S11311C0003FFC0000003FFC0000007FF80000002E
S11311D07FF80000007FF8000000FFF0000000FF2F
S11311E0F0000001FFE0000001FFE0000001FFE06B
S11311F0000003FFC0000003FFC0000007FF8000E1
S11312000007FF80000007FF8000000FFF000000C0
S11312100FFF0000001FFE0000001FFE0000001F63
S1131220FE0000003FFC0000003FFC0000007FF8CF
S11312300000007FF80000007FF8000000FFF000CD
S11312400000FFF0000001FFE0000001FFE00000EB
S113125001FFE0000003FFC0000003FFC000000125
S1131260FFFFC00007FFFFF0000FFFFFF8001FFFA4
S1131270FFFC003FFFFFFE007FFFFFFF007FFFFF3B
S1131280FF007FFFFFFF00FFFFFFFF80FFE003FF82
S113129080FFC001FF80FF8000FF80FF00007F808F
S11312A0FF00007F80FF00007F80FF00007F80FF41
S11312B000007F80FF00007F80FF8000FF80FFC070
S11312C001FF80FFE003FF807FFFFFFF007FFFFF40
S11312D0FF003FFFFFFE001FFFFFFC003FFFFFFE7C
S11312E0007FFFFFFF007FFFFFFF00FFFFFFFF8086
S11312F0FFE003FF80FFC001FF80FF8000FF80FF4D
S113130000007F80FF00007F80FF00007F80FF00DF
S1131310007F80FF00007F80FF00007F80FF80004F
S1131320FF80FFC001FF80FFE003FF807FFFFFFF1E
S1131330007FFFFFFF007FFFFFFF003FFFFFFE0076
S11313401FFFFFFC000FFFFFF80007FFFFF0000185
S1131350FFFFC00007FFFF80001FFFFFE0003FFF0B
S1131360FFF0007FFFFFF8007FFFFFF800FFFFFFA3
S1131370FC00FFFFFFFC00FFFFFFFC00FFE01FFC81
S113138000FFC00FFC00FF8007FC00FF8007FC008B
S1131390FF8007FC00FF8007FC00FF8007FC00FFC4
S11313A08007FC00FF8007FC00FFC00FFC00FFE08B
S11313B01FFC00FFFFFFFC00FFFFFFFC00FFFFFF1F
S11313C0FC007FFFFFFC007FFFFFFC003FFFFFFCF2
S11313D0001FFFFFFC0007FFFFFC00000007FC00EC
S11313E0000007FC00000007FC00000007FC0000F0
S11313F00007FC00000007FC00000007FC000000E0
S113140007FC00FF8007FC00FF8007FC00FF80074B
S1131410FC00FF8007FC00FFC00FFC00FFE01FFC86
S113142000FFFFFFFC00FFFFFFFC00FFFFFFFC00CD
S11314307FFFFFF8007FFFFFF8003FFFFFF0001F72
S1131440FFFFE00007FFFF800001FFFF800003FFB4
S1131450FFE0000FFFFFF8001FFFFFFC003FFFFF4E
S1131460FE003FFFFFFF007FFFFFFF007FFFFFFF46
S113147000FFF003FF00FFE001FF00FFC001FF00D9
S1131480FF8000FF00FF80007F00FF80007F00FFDF
S113149080000000FF80000000FF80000000FF804B
S11314A0000000FF80000000FF80000000FF9FFE9E
S11314B00000FFBFFF8000FFFFFFE000FFFFFFF021
S11314C000FFFFFFF800FFFFFFFC00FFFFFFFE002F
S11314D0FFFFFFFE00FFFFFFFF00FFE003FF00FF31
S11314E0C001FF00FFC001FF00FF8000FF00FF807C
S11314F000FF00FF8000FF00FF8000FF00FF80006E
S1131500FF00FF8000FF00FF8001FF00FFC001FF1C
S113151000FFE003FF00FFFFFFFF00FFFFFFFF00EE
S1131520FFFFFFFF007FFFFFFE007FFFFFFE003F86
S1131530FFFFFC001FFFFFF8000FFFFFF0001FFF7D
S1131540FFFFC03FFFFFFFC03FFFFFFFC03FFFFFA4
S1131550FFC03FFFFFFFC03FFFFFFFC03FFFFFFF94
S1131560C03FFFFFFFC03FFFFFFFC03FE0000000A0
S11315703FE00000003FE00000003FE00000003FCB
S1131580E00000003FE00000003FE00000003FE01A
S11315900000003FE3FFFC003FE7FFFE003FEFFFDA
S11315A0FF003FFFFFFF803FFFFFFFC03FFFFFFF44
S11315B0E03FFFFFFFE03FFFFFFFF03FFC007FF055
S11315C03FF0003FF83FE0001FF80000000FF80074
S11315D0000007F800000007F800000007F800000A
S11315E00007F800000007F800000007F83FE000DB
S11315F007F83FE00007F83FE0000FF83FF0001F56
S1131600F83FF0003FF83FF8007FF83FFFFFFFF09E
S11316103FFFFFFFF03FFFFFFFE01FFFFFFFC00F93
S1131620FFFFFF8007FFFFFF0003FFFFFE0001FF36
S1131630FFFC00000003FE00000007FE0000000F96
S1131640FE0000001FFE0000003FFE0000007FFEC1
S1131650000000FFFE000001FFFE000003FFFE008B
S11316600007FFFE00000FFFFE00001FFDFE00004C
S11316703FF9FE00007FF1FE0000FFE1FE0001FFE4
S1131680C1FE0003FF81FE0007FF01FE000FFE0103
S1131690FE001FFC01FE003FF801FE007FF001FE8A
S11316A000FFE001FE00FFC001FE00FFFFFFFFE0BE
S11316B0FFFFFFFFE0FFFFFFFFE0FFFFFFFFE0FF93
S11316C0FFFFFFE0FFFFFFFFE0FFFFFFFFE0000081
S11316D001FE00000001FE00000001FE0000000108
S11316E0FE00000001FE00000001FE00000001FEFB
S11316F000000001FE00000001FE00000001FE00E9
S1131700000001FE00000001FE00000001FE0000D8
S11317100001FE00000001FE00000001FE000000C8
S113172001FE00000001FE00003FFFC00000FFFFBB
S1131730F00001FFFFF80003FFFFFE0007FFFFFFBB
S1131740000FFFFFFF800FFFFFFFC00FF001FFC07E
S11317500FC000FFC00FC0007FC00FC0007FC00FCC
S113176080003FC00000003FC00000003FC00000F8
S1131770003FC00000003FC00000007FC000000028
S11317807FC0000000FFC0000003FFC0003FFFFF58
S113179080007FFFFF00007FFFFC00007FFFF00060
S11317A0007FFFFF00007FFFFF80007FFFFFC0007E
S11317B03FFFFFC0000003FFC0000001FFC00000A6
S11317C0007FC00000007FC00000003FC000000098
S11317D03FC00000003FC00000003FC00000003FC9
S11317E0C00F80003FC00FC0007FC00FC0007FC08B
S11317F00FC000FFC00FF001FFC00FFFFFFF800FFD
S1131800FFFFFF0007FFFFFF0003FFFFFE0001FFD4
S1131810FFFC0000FFFFF000003FFFC000000FFFCF
S11318208000003FFFE000007FFFF80000FFFFFCA6
S11318300001FFFFFE0003FFFFFF0007FFFFFF8023
S113184007FFFFFFC00FFC03FFC00FF801FFE01FFD
S1131850F000FFE01FF0007FE01FF0007FE01FF0CA
S1131860007FE01FF0007FE01FF0007FE000000039
S1131870FFE0000001FFC0000003FFC0000007FFFD
S1131880C000000FFF8000001FFF0000003FFF00AA
S113189000007FFE000000FFFC000001FFF80000D4
S11318A003FFF0000007FFE000000FFFC000001F6F
S11318B0FF8000003FFF0000007FFE000000FFFCEF
S11318C0000001FFF8000003FFF0000007FFE00044
S11318D0000FFFC000001FFF8000001FFF0000007A
S11318E03FFE0000003FFC0000003FFFFFFFE03F21
S11318F0FFFFFFE03FFFFFFFE03FFFFFFFE03FFF91
S1131900FFFFE03FFFFFFFE03FFFFFFFE03FFFFF80
S1131910FFE007FFFF80001FFFFFE0003FFFFFF035
S1131920007FFFFFF8007FFFFFF800FFFFFFFC00D0
S1131930FFFFFFFC00FFFFFFFC00FFE01FFC00FFB8
S1131940C00FFC00FF8007FC00FF8007FC00FF8045
S113195007FC00FF8007FC00FF8007FC00FF8007F6
S1131960FC00FF8007FC00FF8007FC00FF8007FCF1
S113197000FF8007FC00FF8007FC00FF8007FC00DD
S1131980FF8007FC00FF8007FC00FF8007FC00FFCE
S11319908007FC00FF8007FC00FF8007FC00FF803D
S11319A007FC00FF8007FC00FF8007FC00FF8007A6
S11319B0FC00FF8007FC00FF8007FC00FF8007FCA1
S11319C000FF8007FC00FF8007FC00FF8007FC008D
S11319D0FF8007FC00FFC00FFC00FFE01FFC00FFBE
S11319E0FFFFFC00FFFFFFFC00FFFFFFFC007FFF89
S11319F0FFF8007FFFFFF8003FFFFFF0001FFFFF2D
S1131A00E00007FFFF80000000000000000000006D
S1131A1000000000000006000000000F800000002D
S1131A200FC000000017F00000000BFC00000005D0
S1131A30F90000003AF38000003D7FBC00003EBF87
S1131A403800001F5E7800000FAFFC000007C7FEDF
S1131A50000003E3FF100007F1FFF0000FFAFFE0BE
S1131A60000FFD7FC0000F3EBF80000F1E5F00000F
S1131A700F0E2E00003FFFFFF0003FFFFFF00000BD
S1131A8000000000018000000003E000000003F0FB
S1131A9000000005FC00000002FF000000017E4081
S1131AA000000EBCE000000F5FEF00000FAFCE009F
S1131AB00007D79E000003EBFF000001F1FF800048
S1131AC000F8FFC40001FC7FFC0003FEBFF8000720
S1131AD0FF5FF0000FCFAFE0000F8797C0000F0348
S1131AE08B80000F000500000F000200003FFFFF85
S1131AF0F0003FFFFFF000006000000000F800006D
S1131B000000FC000000017F00000000BFC00000D6
S1131B10005F900000002F3800000E17FBC0000F7C
S1131B200BF380000F85E7800007C2FFC00003E0CD
S1131B307FE00001F03FF10000F81FFF0001FC2FDF
S1131B40FE0003FE17FC0007FF0BF8000FCF85F023
S1131B50000F8782E0000F038140000F0000800027
S1131B600F000000003FFFFFF0003FFFFFF000C048
S1131B7000000000C000000000C000000000C00021
S1131B80000000C7E39C0000CFE7FE0000CC6666BF
S1131B900000CC66660000CFE6660000CFE6660073
S1131BA000CC06660000CC066600000C00000000B5
S1131BB00C000000000C0000000000000000000009
S1131BC0000000000000F000000000E00000000140
S1131BD0C0000000018000000003FC00000007F8C2
S1131BE00000000070000000006000000000C00061
S1131BF00000018000001C030000003E0000000003
S1131C00633FF00F00637FF81F8063C01831806367
S1131C1080186180630038C300631FFF8600631F60
S1131C20FF0C006300001800630000300063FFFF36
S1131C30E00063FFFFC0003E000000001C00000045
S1131C40007E7E7E7E00001819FC000000001C3916
S1131C50FE000000001E7986000000001E79860048
S1131C600000001BD9863D8000001999867F800002
S1131C70001999FE638000001819FC6180000018A7
S1131C801980618000001819806180000018198093
S1131C90638000001819807F8000001819803D803F
S1131CA00000000000000000000000030C00000021
S1131CB03E1CE30C7C3E007F3FF30CFE7F00C333ED
S1131CC0330CC66300C033330C066300C03333FCEB
S1131CD00E6300C03333FC1C6300C033330C386321
S1131CE000C033330C706300C333330CE063007FF4
S1131CF033330CFE7F003E33330CFE3E0000000005
S1131D0000000000000000C60000738738C603000E
S1131D10FFCFFCC63F00CCCCCCFE7F00CCCCCCFEAD
S1131D206300CCCCCCC66300CCCCCCC67F00CCCC7E
S1131D30CCC63F00CCCCCCC603000000000003009E
S1131D40000000006300000000007F0000000000AD
S1131D503E0071C92F7839888A29284845888A29FC
S1131D60284845488A292F484548F2292878452893
S1131D7082292860452882292850451881C6CF48E1
S1131D8039183F8000781E00007FC000781E0000D4
S1131D90FFE000781E0000FFE000381C0000E0E0D7
S1131DA0003C3C0000E0E0003C3C0000E0E0003C83
S1131DB03C0000E0E0003C3C0000E0E0001E787FD6
S1131DC000E0E1FE1E78FF80FFE3FF1E78FF80FF46
S1131DD0E3FF1E78E380FFE3FF0E70E380FFE387F9
S1131DE00FF0E380E0E3870FF0E380E0E3870FF098
S1131DF0E380E0E3FF07E0FFE0E0E3FE07E0FFE06D
S1131E00E0E1C007E07EE00001C000000000000146
S1131E10FF000000000003FF800000000003FF80BB
S1131E2000000000038380000000000383800000A2
S1131E3000000383800000000003FF800000000016
S1131E4003FF800000000001FF000000000000000C
S1131E5000000000001E0000003F0000003F0000E2
S1131E60007380000061800000E1C00000C0C00079
S1131E7001C0E00001806000039C7000033E30005C
S1131E80077F3800060718000E071C000C7F8C0023
S1131E901C3FCE00181FE6003801F7003000F300A5
S1131EA070007B8060003980E00019C0C00000C071
S1131EB0C00000C0FFFFFFC07FFFFF8011241FBED2
S1131EC0CFEFCDBFDFE7DEBF13E4A0E0B0E4E4E989
S1131ED0FFE500E00BBF02C007900D92A633B107E7
S1131EE0D9F723E4A6E3B3E401C01D92A23FB207ED
S1131EF0E1F70E94E9290C94C82F0C94000061506A
S1131F00710920E030E00EC0DC01A20FB31F4C9138
S1131F10FC01E60FF71F50815C9340832F5F3F4F16
S1131F2061507109261737077CF30895CF92DF9229
S1131F30EF92FF920F931F93CF93DF938A0169016E
S1131F40C0E0D0E011C07801EC0EFD1E2AE030E0C4
S1131F5040E050E00E942F2D605DF7016083622F06
S1131F60732F842F952F2196611571058105910595
S1131F7051F706C0F801EC0FFD1F80E38083219622
S1131F80CC15DD05BCF3BE01C8010E947F0FF8012A
S1131F90EC0FFD1F1082CE01DF91CF911F910F91A5
S1131FA0FF90EF90DF90CF900895E0E4F4E020817B
S1131FB02D7F2083208121602083BC0180E090E07C
S1131FC00E94502B20E030E040E851E40E94572C5E
S1131FD09B01AC0160E07BE187EB9EE40E94A82AB0
S1131FE020E030E040E05FE30E94372A0E94212B8A
S1131FF0E0E2F8E0608771878681806C86830895CB
S11320009091240895FFFCCF8093220808950F93A4
S11320101F93CF93DF938C01C0E0D0E007C0F80199
S1132020EC0FFD1F80810E9400102196F8010190A1
S11320300020E9F73197E01BF10BCE17DF0778F3A7
S11320408AE00E940010DF91CF911F910F910895B3
S11320500F931F93CF93DF938C01C0E0D0E007C0B0
S1132060F801EC0FFD1F80810E9400102196F801F9
S113207001900020E9F73197E01BF10BCE17DF0741
S113208078F3DF91CF911F910F91089520E030E014
S11320904BEB53E40E94960F8BEB93E40E940710E2
S11320A00895E0E0F4E0808180688083A4E0B4E0F7
S11320B08C9180688C93808180618083808180642E
S11320C08083E0E4F9E080818063808380818160A3
S11320D080838C9180688C930895809344098091C7
S11320E043098823E4F70895DC0120E030E00CC0C4
S11320F0FD01E20FF31F90819093440990914309ED
S11321009923E4F72F5F3F4F462F50E024173507FC
S11321107CF30895E0E0F9E081E0858383E0848343
S11321200895E0E0F9E080818F7E80838081837F61
S1132130808380818D7F80830895E0E0F9E087E6E5
S1132140868381E0858383818A6083838381816040
S113215083830895CF93DF93C82FD62F80910509E9
S11321608370833089F482E590E40E94071020E6AE
S11321703AEE01C09C01809105098370833021F4FB
S1132180C9010197232BB1F785E080930509DD236D
S113219041F08C2F90E0880F991F8160809307098C
S11321A004C08C2F880F8093070980E69AEE209153
S11321B0050924FF06C02091050926FD02C00197E8
S11321C0B1F7892B21F48CE590E40E9407108091EB
S11321D0050982FF04C084E690E40E940710DF91A1
S11321E0CF910895CF93DF93C0E6DAEE809105098D
S11321F0882314F02197D1F78091050983FD04C049
S11322008091050982FF09C087E990E40E940710C4
S11322100E948A1081E08093BA43CD2B39F48CE577
S113222090E40E94071081E08093BA4380910809EA
S1132230DF91CF91089585E88093A000E0E0F6E077
S113224084E0818381E082838083089581E08093A8
S11322500A060895809308060E94261180910D06AF
S113226080FFFCCF8091100690911106089580E8BC
S113227095E20E94D50F0E9491100E949D1061E08A
S113228088E70E94AA100895CF93DF930E94F2106A
S1132290C82FD0E0DC2FCC270E94F210C82B0E945C
S11322A0F2100E94F210BE0180E090E00E94502BD8
S11322B0DF91CF9108950E94441120E030ED4CE469
S11322C055E40E94362A2CEE31E143E853E40E949F
S11322D0A82A0895CF92DF92EF92FF921F93CF9393
S11322E0DF93182F0E945B116B017C01C0E0D0E0EA
S11322F011C00E945B119B01AC01C701B6010E9491
S1132300372A20E030E040E05FE30E94572C6B0165
S11323107C012196812F90E00197C817D9074CF3CF
S11323202FE03CED4EE452E4C701B6010E94572C65
S1132330DF91CF911F91FF90EF90DF90CF900895A0
S1132340E0E0F4E0808180688083E0E2F4E0808172
S113235080618083E0E4F4E080818062808308957A
S1132360CF93DF93E0E2F4E0248120612483C0E092
S1132370D4E02C812F772C830E9474108C81806888
S11323808C83DF91CF910895CF93DF93E0E2F4E063
S1132390948190619483C0E0D4E09C819F779C8376
S11323A00E946D108C818F778C83DF91CF9108957B
S11323B00F931F93CF93DF93C0E2D4E09C819F7E61
S11323C09C8300E014E0F80194819F7794830E9439
S11323D06D10F8018481806884838C8180618C8392
S11323E0DF91CF911F910F9108950F931F93CF9376
S11323F0DF93C0E2D4E09C819F7E9C8300E014E0E4
S1132400F80194819F7794830E946D10F801848170
S1132410806884838C8180618C83DF91CF911F914C
S11324200F910895CF93982F9F70C82FC295CF70A6
S1132430C067892F80660E94F5118C2F0E94F511C8
S1132440CF910895CF93C82FC295CF70C0618F707C
S11324500E94F5118C2F0E94F511CF9108950F93CE
S11324601F93CF93DF93062F122FD8E1D80FC8E123
S1132470C40F8D2F0E942212802F0E94121284EF0B
S11324800E94D8118D2F0E94F51186EF0E94D81159
S11324908C2F0E94F51187EF0E94D811812F0E9482
S11324A0F51188EF0E94D811DF91CF911F910F9100
S11324B00895CF93DF932FE94FE460E080E00E941A
S11324C02F12C0E0D0E004C080E00E94C411219625
S11324D0C11584E6D807C4F3DF91CF910895E0E0F5
S11324E0F4E084818F778483E0E2F4E08481806186
S11324F08483E0E4F4E084818F7D84832FEF88EF8C
S113250095E1215080409040E1F700C000008481B3
S1132510806284832FEF8EE994E2215080409040C2
S1132520E1F700C0000088EB0E94D81180E10E940E
S1132530F51182EE0E94D8112FEF85EA9EE021501A
S113254080409040E1F700C000008BEE0E94D8115B
S113255081E80E94D8118BE40E94D8118BE20E947A
S1132560D81184EC0E94D81189E80E94D81184E221
S11325700E94D81182EA0E94D81181EF0E94D811DA
S11325808FE90E94F51184E80E94D81182EF0E941D
S1132590D81180E00E94F51183EF0E94D81182E3E4
S11325A00E94F51180E40E94D81180E50E94D811A0
S11325B081ED0E94D81186ED0E94D81188EC0E940A
S11325C0D81185E00E94D81188ED0E94D8110E948C
S11325D059128DEA0E94D81108952F923F924F927A
S11325E05F926F927F928F929F92AF92BF92CF929F
S11325F0DF92EF92FF920F931F93CF93DF93CDB7A8
S1132600DEB76197CDBFDEBF8F836C871A012B873E
S1132610902E2DB73EB72E873F878BEA089F812DDA
S1132620112486958A8790E0DC01AA0FBB1FAD8335
S1132630BE836D01BB0FEE08FF0800E010E0412CE3
S1132640512C320109831A839D864601570189C0A2
S1132650EDB7FEB7E887F9872DB73EB78D819E8128
S1132660281B390B2DBF3EBFADB7BEB71196AB8348
S1132670BC83AD0180E090E005C0FA01E80FF91FCA
S1132680108201968C01092E000C220B330B0815C5
S113269019052A053B058CF360E070E030E020E08A
S11326A0ED843DC0F101E40DF51DF490BFEF4B1A2C
S11326B05B0A6B0A7B0A87E090E02DC0EF2DF0E007
S11326C0082E02C0F595E7950A94E2F7E0FF1DC0D5
S11326D0E32FF0E0E88BF98B8F01040F151FD8016D
S11326E0CC90A22FB0E0AA0FBB1FA95EBF4BDC9019
S11326F0DC28F801D082E889F9893196E40FF51FC6
S113270010811196AC91A12BA0832F5F233010F080
S11327103E5F20E0019799238CF66F5F7F4F8E2DEB
S113272086958695869590E0681779070CF4BACF5C
S11327306C85F9816F0F262F4A853F81430F832FC4
S11327400E942F126D817E818B819C810E94B01129
S1132750888599858DBF9EBFA981BA811196A98369
S1132760BA83BB858B2F90E0E981FA81E817F907DA
S11327700CF46ECF2E853F852DBF3EBF6196CDBF35
S1132780DEBFDF91CF911F910F91FF90EF90DF900B
S1132790CF90BF90AF909F908F907F906F905F90FD
S11327A04F903F902F9008952F923F924F925F92B7
S11327B06F927F928F929F92AF92BF92CF92DF924D
S11327C0EF92FF920F931F93CF93DF93CDB7DEB7B2
S11327D06297CDBFDEBFA82E688B4A01322E2DB77B
S11327E03EB7298B3A8B202E269426942694222DAC
S11327F030E0A32DB0E00E944E2D9B01AC01AE2D24
S1132800B0E00E945D2D2B013C018BEA089F012D55
S1132810112406950D87802F90E0DC01AA0FBB1FC1
S1132820AE87BF87CD01092E000CAA0BBB0B8F838B
S11328309887A987BA8700E010E08FC0ADB7BEB70C
S1132840AB87BC87EDB7FEB72F813885E21BF30B4E
S1132850EDBFFEBF8DB79EB701968D839E83AC01FD
S113286080E090E049825A826B827C82322D232D53
S11328702F80388449845A8405C0FA01E80FF91F6F
S1132880108201966C01092E000CEE08FF08C21498
S1132890D304E404F50488F349805A806B807C8077
S11328A0232E322E60E070E030E020E03CC0F401E2
S11328B0E40DF51DD4909FEF491A590A690A790A63
S11328C087E090E02CC0ED2DF0E0082E02C0F595D5
S11328D0E7950A94E2F7E0FF1CC0A32FB0E0A983B8
S11328E0BA837D01E40EF51EF701B080A22FB0E09B
S11328F0AA0FBB1FA95EBF4BCC90CB28C082E98135
S1132900FA813196E40FF51FF0801196AC91AF294E
S1132910A0832F5F233010F03E5F20E001979923BE
S113292094F66F5F7F4F822D90E0681779070CF45F
S1132930BECF6889600F262F4D854A0D8A2D0E94CF
S11329402F126E857F858D819E810E94B0112B850B
S11329503C852DBF3EBF0F5F1F4F832D90E00817AE
S113296019070CF46BCF89899A898DBF9EBF629633
S1132970CDBFDEBFDF91CF911F910F91FF90EF90FC
S1132980DF90CF90BF90AF909F908F907F906F908B
S11329905F904F903F902F900895FF920F931F9355
S11329A0CF93DF93F62EC22F002381F0D42FD81BB0
S11329B00E942F12C0E007C08FEF0E94C4118FEF56
S11329C00E94C411CF5FCD17B8F313C00E942F1219
S11329D00C2F10E00F191109C0E0D0E007C08FEFF1
S11329E00E94C41180E00E94C4112196C017D1072F
S11329F0B0F3DF91CF911F910F91FF900895FF9253
S1132A000F931F93CF93DF93F62EC22F002381F0F1
S1132A10D42FD81B0E942F12C0E007C08FEF0E9452
S1132A20C4118FEF0E94C411CF5FCD17B8F313C048
S1132A300E942F120C2F10E00F191109C0E0D0E0F2
S1132A4007C088EF0E94C41180E00E94C41121963F
S1132A50C017D107B0F3DF91CF911F910F91FF9071
S1132A600895DF92EF92FF920F931F93CF93DF931A
S1132A70F82ED62EE42E022F061B842F90E08F19F9
S1132A80910963E070E00E94F92CD62F10E013C086
S1132A90612F6D0D262F4E2D8F2D0E942F12C0E019
S1132AA007C08FEF0E94C4118FEF0E94C411CF5F43
S1132AB0CD17B8F31F5F101758F3DF91CF911F9113
S1132AC00F91FF90EF90DF900895DF92EF92FF92C5
S1132AD00F931F93CF93DF93F82ED62EE42E022F5D
S1132AE0061BD42FD81B10E013C0612F6D0D262FA9
S1132AF04E2D8F2D0E942F12C0E007C080E00E944F
S1132B00C41180E00E94C411CF5FCD17B8F31F5FDA
S1132B10101758F3DF91CF911F910F91FF90EF9011
S1132B20DF900895CF93DF93A0E4B4E08C918F7B82
S1132B308C9356968C915697816056968C935697A3
S1132B40E0E8F4E080818D7F808381898260818BDD
S1132B5080818B7F808382898260828BC0EAD4E00B
S1132B6088818B7F88838A8982608A8B80818E7F2B
S1132B70808380898260808B8C9184608C93E0E276
S1132B80F4E0808180628083DF91CF910895809109
S1132B907D43882369F181E08093654380911640E9
S1132BA08F5F80931640843018F081E08093164044
S1132BB080911640823049F0833061F0813079F49D
S1132BC08FEA90E40E94071011C080ED90E40E9407
S1132BD007100CC083EF90E40E94071007C081E047
S1132BE08093164083E191E40E94071010927D4384
S1132BF00895882359F1E0E8F4E0848188608483AF
S1132C00E0E0FAE080818160808380913D4390918F
S1132C103E4380A791A781E08093434380919643EC
S1132C2090919743A0919843B091994380937F43A7
S1132C3090938043A0938143B09382438091524305
S1132C408823B1F081E0809314400895811110C06D
S1132C50E0E8F4E08481877F8483E0E0FAE0808127
S1132C608160808310A611A61092434310927B4387
S1132C70089580917A438823C9F184E491E40E9401
S1132C80071080917B4381110AC080913D4390914C
S1132C903E438093280A9093290A892B01F51092C8
S1132CA07B4310925543109259431092584310920B
S1132CB0494310924A4310924B4310924C43109252
S1132CC054431092534310924D4310924E4310922A
S1132CD04F431092504380E00E94F91505C081E0F3
S1132CE080937B430E94F91510927A430895CF9202
S1132CF0DF92EF92FF920E946A116B017C01609354
S1132D00B2437093B3438093B4439093B54320E0AC
S1132D1030E0A9010E94A32A88234CF41092B24304
S1132D201092B3431092B4431092B54316C020E0FE
S1132D3030E84BE354E4C701B6010E94022C181694
S1132D4064F480E090E8ABE3B4E48093B2439093FE
S1132D50B343A093B443B093B543809116408230FB
S1132D6049F1833009F478C0813009F0AAC080E0C9
S1132D7090E0AAE7B5E480939E4390939F43A09389
S1132D80A043B093A14320E030E048EC52E46091CA
S1132D90B2437091B3438091B4439091B5430E9480
S1132DA0572C6093A2437093A3438093A4439093BE
S1132DB0A543ACC06091B2437091B3438091B443D6
S1132DC09091B54329E134E04EEA5FE30E94572C29
S1132DD06093AE437093AF438093B0439093B143F9
S1132DE00F2EC12CF0E8DF2EFBE3EF2EF5E4FF2ECF
S1132DF0F02DC0929E43D0929F43E092A043F09264
S1132E00A14320E030E84BE354E40E94022C18165E
S1132E1064F480E090E8ABE3B4E48093AE43909331
S1132E20AF43A093B043B093B14320E030E048EC0B
S1132E3052E46091AE437091AF438091B04390915E
S1132E40B1430E94572C6093A2437093A343809391
S1132E50A4439093A5435AC06091B2437091B34385
S1132E608091B4439091B5432AE035E848E05EE3AD
S1132E700E94572C6093AA437093AB438093AC4356
S1132E809093AD430F2EC12CD12CF8E4EF2EF3E434
S1132E90FF2EF02DC0929E43D0929F43E092A04318
S1132EA0F092A14320E030E048EC52E40E94572C19
S1132EB06093A2437093A3438093A4439093A54348
S1132EC025C081E08093164080E090E0AAE7B5E455
S1132ED080939E4390939F43A093A043B093A143B8
S1132EE020E030E048EC52E46091B2437091B34387
S1132EF08091B4439091B5430E94572C6093A243B0
S1132F007093A3438093A4439093A543FF90EF90C1
S1132F10DF90CF9008958091480483FF03C081E03F
S1132F2080935A430895E0E4F4E0848180618483CB
S1132F302FEF8EE994E2215080409040E1F700C0E9
S1132F40000084818F7E84832FEF8EE994E22150E8
S1132F5080409040E1F700C000000E9437110895BE
S1132F60E0E4F4E080818F77808387898160878BB8
S1132F708081877F808383898160838B08950E9409
S1132F80B0178091480483FF04C081E080935A43C2
S1132F90089510925A430895809157438823B1F0BD
S1132FA08091480483FF09C081E080935A43E0E2A2
S1132FB0F4E084818160848307C010925A43E0E284
S1132FC0F4E084818E7F84831092574380915A4326
S1132FD0882329F0E0E2F4E09481916094830895D9
S1132FE00F931F9380915943882309F440C0909113
S1132FF0554391113CC090915643911138C0909122
S113300058439923A1F190915443923080F1409117
S113301096435091974360919843709199430091DE
S1133020494310914A4320914B4330914C43401BF8
S1133030510B620B730B483E534061057105B8F4A4
S113304081E00E94F91581E0809355431092594321
S1133050109258431092494310924A4310924B43A2
S113306010924C431092544380937B43C2C08823F4
S113307069F190915843992349F1909155439923CB
S113308029F180E00E94F91510925543109259439A
S1133090109258431092494310924A4310924B4362
S11330A010924C431092544310927B4380915343AB
S11330B0882309F49EC01092534310924D431092FA
S11330C04E4310924F431092504393C08823A1F172
S11330D090915543911130C09091564391112CC059
S11330E090915443911128C090915843911124C058
S11330F040919643509197436091984370919943BE
S11331000091494310914A4320914B4330914C43E1
S1133110401B510B620B730B493E53406105710513
S113312058F081E00E94F91581E080935643109293
S1133130514380937B435DC090915843992301F19F
S1133140209156432223E1F0209154432223C1F0DD
S11331508823B1F080E00E94F91510925643109232
S11331605843109259431092544310924943109279
S11331704A4310924B4310924C4310927B4339C004
S1133180811106C0911104C080915443882389F1B0
S11331908091554381112DC080915643811129C0DE
S11331A08091964390919743A0919843B09199430D
S11331B04091494350914A4360914B4370914C4331
S11331C0841B950BA60BB70B893E9340A105B10553
S11331D080F0109255431092494310924A43109242
S11331E04B4310924C4310925943109258431092FF
S11331F054431F910F9108954F925F926F927F9263
S11332008F929F92AF92BF92CF92DF92EF92FF92F2
S113321080915243882309F4D8C080915543811189
S113322004C080917B438823D1F080915343811162
S113323016C081E0809353438091964390919743C5
S1133240A0919843B091994380934D4390934E43FA
S1133250A0934F43B093504310925143B6C0809112
S113326053438823E1F140919643509197436091F1
S1133270984370919943C0904D43D0904E43E09051
S11332804F43F09050434C195D096E097F09413159
S113329057426105710518F180E00E94F9151092FA
S11332A0534310924D4310924E4310924F43109249
S11332B05043109255431092494310924A4310923E
S11332C04B4310924C43109259431092584310921E
S11332D0544381E08093514310927B4376C088230A
S11332E009F473C0C0909643D0909743E0909843FC
S11332F0F090994340904D4350904E4360904F431B
S113330070905043D701C60184199509A609B709DD
S113331080319742A105B10508F057C08090A243BF
S11333209090A343A090A443B090A543A501940119
S11333306091A6437091A7438091A8439091A943BB
S11333400E94362A0E941A2B9B01772324F42227F9
S11333503327261B370BB901330F880B990B0E94B7
S1133360522B20919E4330919F434091A043509112
S1133370A1430E94022C18166CF4C414D504E6046C
S1133380F70441F0C0924D43D0924E43E0924F4334
S1133390F092504380919A4390919B43A0919C4317
S11333A0B0919D43C81AD90AEA0AFB0A89EEC816E5
S11333B083E0D806E104F10440F08092A6439092A1
S11333C0A743A092A843B092A943FF90EF90DF9047
S11333D0CF90BF90AF909F908F907F906F905F90B1
S11333E04F90089580915943882359F081E00E94B9
S11333F0F915109259431092514381E080937B4315
S1133400089580915843882339F080E00E94F9158B
S11334101092584310927B4308950E94CC1788233E
S113342059F080917E43882319F00E94F017089583
S1133430811102C00E94F21908950E941B1108957F
S11334408F929F92AF92BF92CF92DF92EF92FF92B0
S1133450CF93C0E018C082E00E942A1140916643D5
S1133460509167436091684370916943480F591FB5
S1133470611D711D40936643509367436093684395
S113348070936943CF5FC43130F32C2F30E040E0B8
S113349050E06091664370916743809168439091D6
S11334A069430E940D2D20936643309367434093F4
S11334B0684350936943CA01B9010E94502B23E326
S11334C033E343E550E40E94572C20E030EF4FE70C
S11334D055E40E94A82A6B017C01609376437093A3
S11334E07743809378439093794320E030E44CE130
S11334F056E40E94A82A4B015C0160936A437093CE
S11335006B4380936C4390936D43A701960163E3EF
S113351073E383E590E40E94362AA50194010E9496
S1133520A82A60936E4370936F4380937043909383
S1133530714320E030E44CE156E40E94A82A0E9442
S11335400F2C23E931EA48E959E30E94572C2FE074
S11335503FEC4BE55BE30E94372A9B01AC0160E042
S113356070E080E89FE30E94A82A23E333E948E857
S113357053E40E94362A609372437093734380939A
S1133580744390937543CF91FF90EF90DF90CF9069
S1133590BF90AF909F908F9008958FEB9DE580939F
S11335A01C0B90931D0BE1E1FBE080818083E5E13E
S11335B0FBE0808181608083E0E1FBE080818160C9
S11335C0808308958FEB9DE580932C0B90932D0BB6
S11335D0E1E2FBE080818083E5E2FBE080818160C1
S11335E08083E0E2FBE080818160808308950E9413
S11335F0CD1A0E94E21A08951F920F920FB60F92ED
S113360011240BB60F928F939F93AF93BF93EF93B5
S1133610FF938091160B80FF18C080919643909180
S11336209743A0919843B09199430196A11DB11D70
S11336308093964390939743A0939843B093994370
S1133640E6E1FBE0808181608083FF91EF91BF918F
S1133650AF919F918F910F900BBE0F900FBE0F9063
S11336601F9018951F920F920FB60F9211240BB64C
S11336700F920F931F932F933F934F935F936F93E7
S11336807F938F939F93AF93BF93EF93FF93409157
S113369092435091934360919443709195434F5F4B
S11336A05F4F6F4F7F4F4093924350939343609388
S11336B094437093954380918E4390918F43A0914E
S11336C09043B09191430196A11DB11D80938E4307
S11336D090938F43A0939043B093914300918A4376
S11336E010918B4320918C4330918D430F5F1F4F7A
S11336F02F4F3F4F00938A4310938B4320938C4367
S113370030938D43493E53406105710558F021E0E3
S113371020938543109292431092934310929443C2
S113372010929543893C9105A105B10558F081E0BB
S11337308093844310928E4310928F43109290434F
S113374010929143E6E2FBE0808181608083FF91E7
S1133750EF91BF91AF919F918F917F916F915F9105
S11337604F913F912F911F910F910F900BBE0F908E
S11337700FBE0F901F90189510927D4310925243E4
S113378010927A4310927E4310927C4308951092D3
S113379038431092394310923A4310923B431092AB
S11337A03C4308950F9380917C43882309F4E7C137
S11337B0809108408F5F80930840863018F081E044
S11337C08093084080910840833009F4B6C030F4F7
S11337D0813059F0823009F45CC0ABC1843009F403
S11337E000C1853009F451C1A4C180917B4381118A
S11337F004C080914343882359F0E0E0FAE08081DB
S113380081608083809111409091124080A791A79C
S11338108EEA90E1809361439093624380911140DA
S11338209091124080933D4390933E438091134086
S1133830811113C0809147439091484380933D4345
S113384090933E43E0E0FAE0808181608083809140
S113385047439091484380A791A70E94C71B81E0EA
S113386080933C4308E221E34DE158E168E285E3BB
S11338700E94ED1221E342E159E168E282E40E94F0
S1133880ED122FE04FE65BE16FE582E40E94ED125A
S113389073C180917B43811104C080914343882389
S11338A059F0E0E0FAE080818160808380910F40EC
S11338B09091104080A791A78CEC90E18093614394
S11338C09093624380910F409091104080933D43C8
S11338D090933E4380911340811113C080914743DC
S11338E09091484380933D4390933E43E0E0FAE057
S11338F0808181608083809147439091484380A771
S113390091A70E94C71B81E080933B4308E221E317
S113391048E257E168E285E30E94ED1221E342E1C7
S113392059E168E282E40E94ED122FE04FE65BE188
S11339306FE582E40E94ED121FC180917B438111E7
S113394004C080914343882359F0E0E0FAE0808189
S11339508160808380910D4090910E4080A791A753
S11339608CEC90E1809361439093624380910D408D
S113397090910E4080933D4390933E438091134039
S1133980811113C0809147439091484380933D43F4
S113399090933E43E0E0FAE08081816080838091EF
S11339A047439091484380A791A70E94C71B81E099
S11339B080933A4308E221E343E356E168E285E376
S11339C00E94ED1221E342E159E168E282E40E949F
S11339D0ED122FE04FE65BE16FE582E40E94ED1209
S11339E0CBC080917B43811104C0809143438823E1
S11339F059F0E0E0FAE080818160808380910B409F
S1133A0090910C4080A791A783E091E1809361435A
S1133A109093624380910B4090910C4080933D437E
S1133A2090933E4380911340811113C0809147438A
S1133A309091484380933D4390933E43E0E0FAE005
S1133A40808181608083809147439091484380A71F
S1133A5091A70E94C71B81E08093394308E221E3C8
S1133A604EE355E168E285E30E94ED1221E342E171
S1133A7059E168E282E40E94ED122FE04FE65BE137
S1133A806FE582E40E94ED1277C080917B4381113F
S1133A9004C080914343882359F0E0E0FAE0808138
S1133AA0816080838091094090910A4080A791A70A
S1133AB086E291E18093614390936243809109404F
S1133AC090910A4080933D4390933E4380911340EC
S1133AD0811113C0809147439091484380933D43A3
S1133AE090933E43E0E0FAE080818160808380919E
S1133AF047439091484380A791A70E94C71B81E048
S1133B008093384308E221E349E454E168E285E321
S1133B100E94ED1221E342E159E168E282E40E944D
S1133B20ED122FE04FE65BE16FE582E40E94ED12B7
S1133B3023C0809111409091124080933D43909313
S1133B403E430E94C71B81E080933C4308E221E38B
S1133B504DE158E168E285E30E94ED1221E342E180
S1133B6059E168E282E40E94ED122FE04FE65BE146
S1133B706FE582E40E94ED1210927C43FDC088231D
S1133B8009F4FAC080917B4381110DC080914343B5
S1133B90811109C080915243811105C080917E43F7
S1133BA0882309F4E9C0809108408F5F809308401E
S1133BB0863018F081E0809308408091084083307B
S1133BC009F451C028F4813051F0823051F1B1C070
S1133BD0843009F46AC0853009F489C0AAC0E0E0E1
S1133BE0FAE080818160808380911140909112403D
S1133BF080A791A708E221E34DE158E168E285E35B
S1133C000E94ED1221E342E159E168E282E40E945C
S1133C10ED122FE04FE65BE16FE582E40E94ED12C6
S1133C20A9C0E0E0FAE080818160808380910F4048
S1133C309091104080A791A708E221E348E257E160
S1133C4068E285E30E94ED1221E342E159E168E272
S1133C5082E40E94ED122FE04FE65BE16FE582E41F
S1133C600E94ED1287C0E0E0FAE0808181608083E9
S1133C7080910D4090910E4080A791A708E221E326
S1133C8043E356E168E285E30E94ED1221E342E159
S1133C9059E168E282E40E94ED122FE04FE65BE115
S1133CA06FE582E40E94ED1265C0E0E0FAE08081F5
S1133CB08160808380910B4090910C4080A791A7F4
S1133CC008E221E34EE355E168E285E30E94ED1248
S1133CD021E342E159E168E282E40E94ED122FE01F
S1133CE04FE65BE16FE582E40E94ED1243C0E0E041
S1133CF0FAE08081816080838091094090910A403C
S1133D0080A791A708E221E349E454E168E285E34E
S1133D100E94ED1221E342E159E168E282E40E944B
S1133D20ED122FE04FE65BE16FE582E40E94ED12B5
S1133D3021C0809111409091124080933D43909313
S1133D403E4381E080933C4308E221E348E257E1AB
S1133D506AE285E30E94ED1221E342E159E168E25F
S1133D6082E40E94ED122FE04FE65BE16FE582E40E
S1133D700E94ED1210927C430F9108950E94C71582
S1133D800E9439160E94D21B089581E080936043FB
S1133D9080935F4308950E94C51E8091B643882393
S1133DA021F08091B743811104C00E94A0110E94A8
S1133DB06F1208958091154090911640891749F02B
S1133DC081E08093604380935E4380935F4390934C
S1133DD0154090915D4380915243981729F0809348
S1133DE05D4381E08093144080918543882381F072
S1133DF081E08093604380917E43811104C080916F
S1133E005B43811103C081E080935C43109285433E
S1133E1080918443882329F081E080935E4310924B
S1133E20844308950F932AE044E060E080E00E9418
S1133E30651508E32EE142E85DE162E38EE10E944C
S1133E40ED1200E328E042E55DE164E68FE10E94C3
S1133E50ED120F9108950F932EE146E060E080E0AB
S1133E600E94311501E02EE14FE46EE180E00E94F2
S1133E70FF142DE14FE46DE180E00E94FF1400E0A7
S1133E8022E743E36FE183E30E94FF1401E022E7AA
S1133E904FE462E780E00E94FF1423E74FE463E706
S1133EA080E00E94FF140F9108950F9300E02EE923
S1133EB040E060E080E00E94CD1401E020E04FE4A7
S1133EC060E080E00E94FF1421E04FE461E080E0C4
S1133ED00E94FF1400E02EE94FE460E08FE40E94AA
S1133EE0CD1401E02FE94FE46FE980E00E94FF1454
S1133EF02EE94FE46EE980E00E94FF140F910895CB
S1133F00EF92FF920F931F93CF93DF93C82FD62F77
S1133F106091B2437091B3438091B4439091B5439F
S1133F200E941A2B9B012F3E82E0380744F0109226
S1133F30B2431092B3431092B4431092B543EAE0F3
S1133F40F0E0C901BF010E94F92C182FCB01BF0179
S1133F500E94F92CF82EC90164E670E00E94F92C45
S1133F60E62E08E221E347EB5AE06D2F8C2F0E94E6
S1133F70D413EF2C21E347EB5AE06D2F8DE08C0F27
S1133F800E94D413E12E21E347EB5AE06D2F8AE11E
S1133F908C0F0E94D41380915F43882351F002E375
S1133FA02DE044E05DE16FE58FE10E94ED12109297
S1133FB05F43DF91CF911F910F91FF90EF90089590
S1133FC0EF92FF920F931F93CF93DF93C82FD62FB7
S1133FD06091AE437091AF438091B0439091B143EF
S1133FE00E941A2B9B012F3E82E0380744F0109266
S1133FF0AE431092AF431092B0431092B143EAE043
S1134000F0E0C901BF010E94F92C182FCB01BF01B8
S11340100E94F92CF82EC90164E670E00E94F92C84
S1134020E62E08E221E347EB5AE06D2F8C2F0E9425
S1134030D413EF2C21E347EB5AE06D2F8DE08C0F66
S11340400E94D413E12E21E347EB5AE06D2F8AE15D
S11340508C0F0E94D41380915F43882351F009E3AD
S11340602DE049EA5CE16FE58FE10E94ED121092C8
S11340705F43DF91CF911F910F91FF90EF900895CF
S1134080EF92FF920F931F93CF93DF93182FF62E87
S11340906091AA437091AB438091AC439091AD433E
S11340A00E941A2BEB01072E000C880B990B0E941F
S11340B0522B2AE037ED4FE151E40E94022C1816EE
S11340C044F41092AA431092AB431092AC43109262
S11340D0AD43CE016AE070E00E94F92CD62FC82FC0
S11340E0E12C08E221E347EB5AE06F2D812F0E9477
S11340F0D41309E026E041E45CE165E580E10E9437
S1134100ED12ED2E08E221E347EB5AE06F2D8DE02E
S1134110810F0E94D413EC2E21E347EB5AE06F2D5C
S11341208AE1810F0E94D41380915F43882351F068
S113413009E32EE047E45CE16FE58FE10E94ED12B4
S113414010925F43DF91CF911F910F91FF90EF90F9
S113415008950F931F93CF93DF93C0E0D0E009C07D
S11341602AE030E040E050E00E942F2DCA01B9015E
S113417021968B019C01075F1F4F2F4F3F4F033147
S113418011052105310560F7CE010196DF91CF912C
S11341901F910F9108952F923F924F925F926F92C9
S11341A07F928F929F92AF92BF92CF92DF92EF92C3
S11341B0FF920F931F93CF93DF93562EF22E132F5C
S11341C0442EE52E682E712C622F732F842F952F89
S11341D00E94A9205C011C0162E070E00E947C2D19
S11341E04C01C12CD12C18C0E601CC0FDD1FC80D29
S11341F0D91D6F2D712F842D9E2D2AE030E040E0D3
S113420050E00E942F2D68837983F22E132F442EC1
S1134210E52E4FEFC41AD40AE5012197CC16DD062A
S11342201CF3F101E150F048EE0FFF1FE80DF91DFA
S11342308F2D912F80839183E02EF12CAE14BF0437
S1134240B4F5B701660F771FC4010E94B92E4C0163
S11342500AC0F501EE0FFF1FE80DF91D108211824F
S11342605FEFA51AB50AAE14BF049CF3E7012197CA
S11342702AEFAE012403C001259F900D1124680E7E
S1134280791E12C0FE01EE0FFF1FE80DF91DE0803C
S113429008E128E144EE54E0652D862D0E94D413F4
S11342A056E0650E711C2197DD2364F71EC02AEFCA
S11342B0AE012403C001259F900D1124680E791EC0
S11342C012C0FE01EE0FFF1FE80DF91DE08008E1AA
S11342D028E144EE54E0652D862D0E94D41356E067
S11342E0650E711C2197DD2364F7C4010E94302EF2
S11342F0DF91CF911F910F91FF90EF90DF90CF90BE
S1134300BF90AF909F908F907F906F905F904F90F1
S11343103F902F900895DF92EF92FF920F931F9397
S1134320CF93DF93F82ED62EE42E022F061BD42F24
S1134330D81B10E013C0612F6D0D262F4E2D8F2D2D
S11343400E942F12C0E007C080E00E94C41180E0E8
S11343500E94C411CF5FCD17B8F31F5F101758F335
S1134360DF91CF911F910F91FF90EF90DF9008950F
S1134370DF92EF92FF920F931F93CF93DF93F82E68
S1134380D62EE42E022F061BD42FD81B10E013C008
S1134390612F6D0D262F4E2D8F2D0E942F12C0E000
S11343A007C08FEF0E94C4118FEF0E94C411CF5F2A
S11343B0CD17B8F31F5F101758F3DF91CF911F91FA
S11343C00F91FF90EF90DF9008952DE142E060E0BF
S11343D080E00E94B82108950F9326E946E460E046
S11343E080E00E9465150E94E5210E94551F0E94ED
S11343F02B1F1092B2431092B3431092B443109205
S1134400B5436AE286E00E94801F8091114090913A
S1134410124080933D4390933E4381E080933C431C
S113442008E221E34DE158E168E285E30E94ED12E0
S113443021E342E159E168E282E40E94ED122FE0B7
S11344404FE65BE16FE582E40E94ED122FEF82E517
S113445097E0215080409040E1F700C000000F91A8
S113446008950F931F93CF93DF9327EE32E442ED29
S11344705DE36091B2437091B3438091B4439091F2
S1134480B5430E94572C0E94212B162F072FC62FAD
S1134490D02F80910640909107408C179D0788F497
S11344A0CD34D10510F0CCE4D0E04C2F4E5F2DE19B
S11344B062E08E5F0E94B821C0930640D09307400B
S11344C011C0C817D90770F442E0480F2DE162E02B
S11344D082E0810F0E948B21812F902F80930640D0
S11344E090930740DF91CF911F910F9108950F93FF
S11344F00E94DA1E809160438823E9F0809116407F
S1134500823049F0833061F0813079F46AE286E0E8
S11345100E94801F0EC06AE286E00E94E01F09C06C
S11345206AE286E00E94402004C06AE286E00E94BB
S1134530801F1092604380915E43882321F00E9483
S1134540312210925E4380911440882339F1809186
S11345505243882391F082E691E40E940710E0E23E
S1134560F4E08481806284830AE22BE14AEB5BE11C
S11345706BE78CE30E94ED120FC08CE791E40E947C
S11345800710E0E2F4E084818F7D848326E94DE422
S113459068E78CE30E9465151092144080915243A1
S11345A0882309F449C080915143882309F444C005
S11345B0809186439091874320919643309197430D
S11345C0821B930B9C0122F422273327281B390BCF
S11345D0293E33408CF19091834381E08927809375
S11345E08343882361F0E0E2F4E084818F7D848357
S11345F026E94DE468E78CE30E9465150DC0E0E20E
S1134600F4E08481806284830AE22BE14AEB5BE17B
S11346106BE78CE30E94ED1280919643909197434F
S1134620A0919843B0919943809386439093874394
S1134630A0938843B093894380915C43882309F411
S113464057C080917E43882309F442C0E0E4F4E03B
S113465084818460848380913643909137430196AA
S11346608093364390933743039724F01092364354
S113467010923743809136439091374381309105AE
S113468071F082309105A1F0892BD9F408E228E178
S113469047EF5AE16EE787E00E94ED1216C008E288
S11346A028E14FE75AE16EE787E00E94ED120DC062
S11346B008E228E147E05AE16EE787E00E94ED1244
S11346C004C0109236431092374310925B430EC0DD
S11346D0E0E4F4E084818B7F848326E94EE168E79B
S11346E087E00E94651581E080935B4310925C43F0
S11346F080916443811104C080916343882341F015
S113470000E22AE144E55EE16CE784E10E94ED12F7
S11347100F910895E0E0F4E08081816080838081DE
S11347208260808380898860808BE0E0FAE080E8A2
S11347309CE086A397A310A611A610A211A28181C2
S113474080618183818183608183808181608083B2
S113475080818260808308959DE994BF80930010D6
S113476008951F93CF93DF93EC01162F80910210CD
S113477081FDFCCF83E190E00E94AC23DC5E1883D2
S113478080E090E00E94AC23DF91CF911F910895C7
S11347900F931F93CF93DF93EC018B018091021051
S11347A081FDFCCF83E190E00E94AC23DC5E0883B2
S11347B0198380E090E00E94AC23DF91CF911F9198
S11347C00F910895209102100E94AE2F0895AF9288
S11347D0BF92CF92DF92EF92FF920F931F93CF93EA
S11347E0DF9381E090E00E94E223A82E83E090E032
S11347F00E94E22391E0811101C090E09093B643BE
S113480000E0C12CD12C7601B12C6DC081E00E9456
S11348106A116093B2437093B3438093B44390930B
S1134820B5438091BA43882379F08091B84390913D
S1134830B94301968093B8439093B9431092BA4315
S113484087E991E40E9407102091B2433091B34369
S11348504091B4435091B543C701B6010E94A32AC5
S1134860811106C087EA91E40E9407101F5F05C00A
S113487082EC91E40E94071010E0C090B243D09003
S1134880B343E090B443F090B543219603C0C0E035
S1134890D0E010E0CA30D1050CF4B8CF8091B84311
S11348A09091B943049714F4163040F00E94931782
S11348B00F5F1092B8431092B94315C01092B843D9
S11348C01092B9431092B64360E081E090E00E94F8
S11348D0B1236091B64383E090E00E94B12300E0ED
S11348E0BB24B394A12CB11002C0033080F2033076
S11348F088F161E06A0D81E08093B64381E090E045
S11349000E94B1236091B64383E090E00E94B123FA
S11349108FE295E70197F1F700C0000060917E43B4
S113492082E090E00E94B1236091524386E090E0DF
S11349300E94B12361E085E090E00E94B1238FE200
S113494095E70197F1F700C0000061E081E490E091
S11349500E94C22FDF91CF911F910F91FF90EF9092
S1134960DF90CF90BF90AF90089580E00E94F9153A
S11349700E948B170E94121F0E9493170E94E72324
S11349800895209102100E94BD2F089589E190E0BE
S11349900E94C12480931140909312408BE190E0D7
S11349A00E94C12480930F40909310408DE190E0C9
S11349B00E94C12480930D4090930E408FE190E0BB
S11349C00E94C12480930B4090930C4081E290E0BC
S11349D00E94C1248093094090930A4008950E9444
S11349E0C62485E090E00E94E22391E0811101C099
S11349F090E09093B74360E085E090E00E94B1239B
S1134A0083E090E00E94E22391E0811101C090E0F4
S1134A109093B643992341F082E090E00E94E22310
S1134A2086E090E00E94E2230895209102100E9403
S1134A30B62F0895CF92DF92EF92FF920F9385E104
S1134A4090E00E941525603427E772072BE1820766
S1134A50910520F021E02093644302C01092644346
S1134A600F2EF0E8CF2EFEEEDF2EF6E3EF2EF12C24
S1134A70F02DA70196010E940D2D04E06BE286E45F
S1134A800E94CB2081E190E00E941525A7019601A8
S1134A900E940D2D67E686E40E94CB200F91FF90C3
S1134AA0EF90DF90CF900895AF92BF92CF92DF92B4
S1134AB0EF92FF920F931F93CF93DF93EC016A0160
S1134AC07B015C018FEFA81AB80A642FCE010E9403
S1134AD0B1236D2D8E010E5F1F4FC5010E94B123BE
S1134AE06E2D2396C8010E94B1236F2D7727882746
S1134AF09927CE010E94B123DF91CF911F910F918D
S1134B00FF90EF90DF90CF90BF90AF900895CF9239
S1134B10DF92EF92FF920F93C0909643D090974309
S1134B20E0909843F090994389C0E0E4F4E08085F4
S1134B3080748087882309F481C0E0E8F4E08085EC
S1134B4084708087882309F479C02FEF3DE389E4DA
S1134B50215030408040E1F700C0000026E940E5E4
S1134B6060E080E00E94651500E324E14CE654E037
S1134B7069E485E00E94ED1200E42EE14CE753E085
S1134B8069E486E10E94ED1208E12EE142E253E07D
S1134B9069E48AE20E94ED1200E42EE142E352E06D
S1134BA069E482E30E94ED122EE142E451E06DE5F6
S1134BB086E00E94ED120E94BC1B80917D4381110E
S1134BC010C09091524391110CC090917A4391116D
S1134BD008C090917E43911104C090917C43992325
S1134BE061F390917E43992349F110927E438111A0
S1134BF00CC090915243911108C090917A43911145
S1134C0004C090917C43992391F380917A43882343
S1134C10A9F010927A4340E050E0BA0185E190E0B7
S1134C200E9454251092644326E940E560E080E048
S1134C300E9465150E9436260E94BC1B80919643F3
S1134C40909197439601281B390BC901813630EFA7
S1134C50930724F0803A9F400CF467CF0E94BC1B5A
S1134C600F91FF90EF90DF90CF9008950F9326E976
S1134C7046E460E080E00E94651500E42EE144E92A
S1134C8059E06BE281E00E94ED1200E32EE140EE78
S1134C9058E06BE287E10E94ED122EE14CE258E00D
S1134CA067E681E00E94ED1200E22EE144EB57E05A
S1134CB067E681E10E94ED1200E32EE140EE58E048
S1134CC067E68CE10E94ED120E941A250E94872556
S1134CD026E940E560E080E00E9465150F910895A3
S1134CE0CF92DF92EF92FF928091964390919743F7
S1134CF0A0919843B091994340917F435091804350
S1134D006091814370918243841B950BA60BB70B72
S1134D10813C9742A940B10508F444C080914343C3
S1134D20882309F43FC081E190E00E941525AB017E
S1134D30BC014054584D664F7F4F81E190E00E9482
S1134D40542585E190E00E9415256B017C0120EC3F
S1134D50C20E27E2D21E29E0E21EF11CB701A60111
S1134D6085E190E00E94542580E4C81687E7D806C0
S1134D708BE1E806F10420F081E08093634302C0F4
S1134D80109263438091964390919743A0919843E6
S1134D90B091994380937F4390938043A093814340
S1134DA0B0938243FF90EF90DF90CF9008951F92CD
S1134DB00F920FB60F9211240BB60F928F93EF93AD
S1134DC0FF938091A90482FF12C080917E438823BF
S1134DD019F010927E4303C081E080937E4381E00A
S1134DE080934543E0EAF4E0818584608187FF9104
S1134DF0EF918F910F900BBE0F900FBE0F901F90ED
S1134E0018951F920F920FB60F9211240BB60F92A2
S1134E102F933F934F935F936F937F938F939F93BE
S1134E20AF93BF93EF93FF938091490486FF4FC0E4
S1134E3080917D4381111CC080919643909197434A
S1134E40A0919843B091994340913F43509140437E
S1134E506091414370914243841B950BA60BB70BA1
S1134E608B3F9105A105B10518F081E080937D4346
S1134E708091480486FF18C0809143438823A1F0A1
S1134E8081E0809344438091964390919743A0910D
S1134E909843B091994380933F4390934043A093A8
S1134EA04143B09342430EC08091480486FD0AC03A
S1134EB010923F4310924043109241431092424358
S1134EC010924443E0E4F4E081858064818780911A
S1134ED0490488230CF04DC080917E43882389F1D6
S1134EE08091594381111BC0909148049923BCF4CB
S1134EF081E00E94F9158091964390919743A09187
S1134F009843B09199438093494390934A43A09323
S1134F104B43B0934C4381E08093594325C088238D
S1134F2019F1809148048823FCF080E00E94F9156F
S1134F30809154438F5F8093544381E0809358431E
S1134F4013C080915943811108C08091480488237B
S1134F5024F481E08093594307C080914804882356
S1134F601CF081E080935843E0E4F4E0818580689C
S1134F7081878091490483FF08C081E0809357436F
S1134F80E0E4F4E0818588608187FF91EF91BF912F
S1134F90AF919F918F917F916F915F914F913F91CD
S1134FA02F910F900BBE0F900FBE0F901F9018956E
S1134FB01F920F920FB60F9211240BB60F922F93DC
S1134FC03F934F935F936F937F938F939F93AF938D
S1134FD0BF93EF93FF938091890481FF0AC081E01E
S1134FE080937A4380931340E0E8F4E08185826003
S1134FF081878091890482FF12C080915243882363
S113500019F01092524303C081E08093524381E02F
S113501080934643E0E8F4E0818584608187809151
S1135020890480FF0CC08FED91E40E94071081E099
S113503080937C43E0E8F4E0818581608187FF917F
S1135040EF91BF91AF919F918F917F916F915F91FC
S11350504F913F912F910F900BBE0F900FBE0F9069
S11350601F9018950F931F93CF93DF938B01EA0141
S11350704091880442FF0EC0280F391FC217D3077E
S11350800CF0E901BE010D2E000C880B990B0E9457
S1135090461015C04091A80442FF10C0AC01421B49
S11350A0530B461757070CF08A01B801012E000C68
S11350B0880B990B0E944610E80101C0EC015FE7E0
S11350C08FE492E1515080409040E1F700C000002D
S11350D0CE01DF91CF911F910F910895CF93DF936C
S11350E0109213408EEF91E40E94071084E392E43F
S11350F00E94281060913C4370E080E090E00E94A0
S1135100461084E492E40E94281060913B4370E0CE
S113511080E090E00E94461084E592E40E9428100A
S113512060913A4370E080E090E00E94461084E68B
S113513092E40E9428106091394370E080E090E08E
S11351400E94461084E792E40E942810609138433C
S113515070E080E090E00E94461020E030E0C6C09D
S113516090913C43992339F184E892E40E9407101A
S1135170C0E0DAE04EA15FA160911140709112404D
S113518080911140909112406456710925E030E0FD
S11351900E943228809311409093124088A799A7C7
S11351A080911140909112408093474390934843DB
S11351B029E130E09BC090913B43992319F1C0E071
S11351C0DAE04EA15FA160910F4070911040809190
S11351D00F40909110406456710925E030E00E9420
S11351E0322880930F409093104088A799A780910C
S11351F00F409091104080934743909348432BE194
S113520030E074C080913A43882319F1C0E0DAE0B9
S11352104EA15FA160910D4070910E4080910D40B0
S113522090910E406456710925E030E00E943228C6
S113523080930D4090930E4088A799A780910D40CC
S113524090910E4080934743909348432DE130E082
S11352504DC080913943882319F1C0E0DAE04EA1B2
S11352605FA160910B4070910C4080910B40909134
S11352700C406456710925E030E00E943228809386
S11352800B4090930C4088A799A780910B40909174
S11352900C4080934743909348432FE130E026C06D
S11352A080913843882311F1C0E0DAE04EA15FA178
S11352B06091094070910A408091094090910A40A0
S11352C06456710925E030E00E9432288093094039
S11352D090930A4088A799A78091094090910A4029
S11352E0809347439093484321E230E090911340E8
S11352F0992309F435CF6091474370914843C9011C
S11353000E94C8238AED92E40E9407101092134071
S113531023E94CE362E882E30E9465156091474308
S113532070914843072E000C880B990B0E9446107D
S11353301092444310923C4310923B4310923A43E0
S1135340109239431092384310927A438EE093E4DA
S11353500E9407108091474390914843DF91CF9179
S113536008950F9380914443882389F18091964353
S113537090919743A0919843B091994340913F43B2
S1135380509140436091414370914243841B950B7B
S1135390A60BB70B893B9B40A105B105C0F0109249
S11353A0444310923F431092404310924143109261
S11353B0424385E293E40E94071009E121E144E8B5
S11353C05AE062E882E30E94ED120E946E280F9177
S11353D00895F89495E288ED84BF909368000E9444
S11353E0F71A80E895E20E94D50FE0E4F4E08081AA
S11353F08061808384818F7E8483C0E2D4E088814D
S1135400816088830E948A230E9451108881816070
S113541088838C818E7F8C83E0E8F4E080818860CF
S113542080830E9437110E94EF240E941D1A0E945B
S113543092150E94CB1E0E94BF170E94B524789437
S11354400E9436260E94EC2182E30E9477160E9475
S1135450BE1E0E940D1A0E94201A0E9477220E94EA
S1135460FC180E94B1290E947026EECF5058BB2729
S1135470AA270E944E2A0C94C82B0E94BA2B38F0FB
S11354800E94C12B20F039F49F3F19F426F40C94A8
S1135490B72B0EF4E095E7FB0C94B12BE92F0E9497
S11354A0D92B58F3BA17620773078407950720F0BE
S11354B079F4A6F50C94FB2B0EF4E0950B2EBA2F81
S11354C0A02D0B01B90190010C01CA01A001112406
S11354D0FF27591B99F0593F50F4503E68F11A16B2
S11354E0F040A22F232F342F4427585FF3CF469543
S11354F037952795A795F0405395C9F77EF41F1665
S1135500BA0B620B730B840BBAF09150A1F0FF0F2E
S1135510BB1F661F771F881FC2F70EC0BA0F621F1A
S1135520731F841F48F4879577956795B795F7950A
S11355309E3F08F0B0CF9395880F08F09927EE0F9F
S11355409795879508950E948D2B08F481E008951E
S11355500E94BC2A0C94C82B0E94C12B58F00E94B4
S1135560BA2B40F029F45F3F29F00C94B12B511170
S11355700C94FC2B0C94B72B0E94D92B68F3992321
S1135580B1F3552391F3951B550BBB27AA2762173B
S11355907307840738F09F5F5F4F220F331F441F48
S11355A0AA1FA9F335D00E2E3AF0E0E832D091507C
S11355B05040E695001CCAF72BD0FE2F29D0660F69
S11355C0771F881FBB1F261737074807AB07B0E8AC
S11355D009F0BB0B802DBF01FF2793585F4F3AF0B2
S11355E09E3F510578F00C94B12B0C94FC2B5F3F3B
S11355F0E4F3983ED4F3869577956795B795F79538
S11356009F5FC9F7880F911D9695879597F908951F
S1135610E1E0660F771F881FBB1F621773078407BB
S1135620BA0720F0621B730B840BBA0BEE1F88F7CA
S1135630E09508950E94212B6894B1110C94FC2BE1
S113564008950E94E12B88F09F5798F0B92F99276D
S1135650B751B0F0E1F0660F771F881F991F1AF059
S1135660BA95C9F714C0B13091F00E94FB2BB1E098
S113567008950C94FB2B672F782F8827B85F39F097
S1135680B93FCCF3869577956795B395D9F73EF4F2
S113569090958095709561957F4F8F4F9F4F08959A
S11356A0E89409C097FB3EF49095809570956195B8
S11356B07F4F8F4F9F4F9923A9F0F92F96E9BB276E
S11356C09395F695879577956795B795F111F8CFEA
S11356D0FAF4BB0F11F460FF1BC06F5F7F4F8F4F55
S11356E09F4F16C0882311F096E911C0772321F04B
S11356F09EE8872F762F05C0662371F096E8862FE3
S113570070E060E02AF09A95660F771F881FDAF739
S1135710880F9695879597F90895990F0008550F66
S1135720AA0BE0E8FEEF16161706E807F907C0F023
S113573012161306E407F50798F0621B730B840B2B
S1135740950B39F40A2661F0232B242B252B21F405
S113575008950A2609F4A140A6958FEF811D811DA5
S1135760089597F99F6780E870E060E008959FEFDF
S113577080EC089500240A941616170618060906E4
S1135780089500240A9412161306140605060895B3
S1135790092E0394000C11F4882352F0BB0F40F43B
S11357A0BF2B11F460FF04C06F5F7F4F8F4F9F4F7B
S11357B0089557FD9058440F551F59F05F3F71F0FD
S11357C04795880F97FB991F61F09F3F79F0879564
S11357D00895121613061406551FF2CF4695F1DFED
S11357E008C0161617061806991FF1CF869571057D
S11357F0610508940895E894BB2766277727CB01B1
S113580097F908950E948D2B08F48FEF089516F0F0
S11358100C94C42C0C94B72B68940C94B12B0E9458
S1135820E12BA8F39923C1F3AEF3DF93CF931F9336
S11358300F93FF92C92FDD2788232AF02197660F43
S1135840771F881FDAF720E030E040E85FEB9FE342
S1135850883920F0803E38F021968F770E94372ACD
S1135860E8EEF0E004C00E94372AE5E1F1E00E948E
S1135870D22C8B01BE01EC01FB2E6F57710975957B
S1135880771F880B990B0E94522B28E132E741E3E2
S11358905FE30E946A2CAF2D9801AE01FF900F9137
S11358A01F91CF91DF910E944E2A0C94C82B0E9425
S11358B06A2C0C94C82B0E94BA2B38F00E94C12B7E
S11358C020F0952311F00C94B12B0C94B72B1124D8
S11358D00C94FC2B0E94D92B70F3959FC1F3950F68
S11358E050E0551F629FF001729FBB27F00DB11D60
S11358F0639FAA27F00DB11DAA1F649F6627B00DF0
S1135900A11D661F829F2227B00DA11D621F739FD8
S1135910B00DA11D621F839FA00D611D221F749FE6
S11359203327A00D611D231F849F600D211D822F2D
S1135930762F6A2F11249F5750409AF0F1F0882354
S11359404AF0EE0FFF1FBB1F661F771F881F915081
S11359505040A9F79E3F510580F00C94B12B0C9454
S1135960FC2B5F3FE4F3983ED4F3869577956795D7
S1135970B795F795E7959F5FC1F7FE2B880F911DAB
S11359809695879597F908959F3F31F0915020F4AB
S1135990879577956795B795880F911D9695879507
S11359A097F90895DF93CF931F930F93FF92EF928C
S11359B0DF927B018C01689406C0DA2EEF010E940D
S11359C06A2CFE01E894A591259135914591559154
S11359D0A6F3EF010E944E2AFE019701A801DA9472
S11359E069F7DF90EF90FF900F911F91CF91DF91B6
S11359F0089597FB072E16F4009407D077FD09D07D
S1135A000E94682D07FC05D03EF4909581959F4F28
S1135A100895709561957F4F0895A1E21A2EAA1BEF
S1135A20BB1BFD010DC0AA1FBB1FEE1FFF1FA2174A
S1135A30B307E407F50720F0A21BB30BE40BF50B47
S1135A40661F771F881F991F1A9469F760957095D0
S1135A50809590959B01AC01BD01CF010895052E61
S1135A6097FB1EF400940E94462D57FD07D00E9418
S1135A700D2D07FC03D04EF40C94462D5095409503
S1135A80309521953F4F4F4F5F4F089590958095E6
S1135A90709561957F4F8F4F9F4F0895A29FB001DE
S1135AA0B39FC001A39F700D811D1124911DB29F4E
S1135AB0700D811D1124911D08950E944E2DA59FE6
S1135AC0900DB49F900DA49F800D911D11240895F5
S1135AD0AA1BBB1B51E107C0AA1FBB1FA617B70710
S1135AE010F0A61BB70B881F991F5A95A9F780952C
S1135AF09095BC01CD0108950F931F93CF93DF932D
S1135B00869F8001879F100D969F100D1124C80158
S1135B100E94982DEC01009729F0A80160E070E044
S1135B200E94A72FCE01DF91CF911F910F9108956D
S1135B300F931F93CF93DF938230910510F482E08B
S1135B4090E0E091F043F091F14320E030E0A0E0F8
S1135B50B0E0309719F140815181028113814817D7
S1135B605907C8F08417950769F4109731F0129615
S1135B700C93129713961C9327C00093F043109331
S1135B80F14322C02115310519F04217530718F4C7
S1135B909A01BD01EF01DF01F801DBCF21153105C9
S1135BA0F9F0281B390B2430310580F48A819B815C
S1135BB06115710521F0FB018283938304C08093F6
S1135BC0F0439093F143FE01329644C0FE01E20F8C
S1135BD0F31F8193919322503109288339833AC06A
S1135BE02091EE433091EF43232B41F42091024066
S1135BF0309103402093EE433093EF4320910040D3
S1135C00309101402115310541F42DB73EB7409143
S1135C10044050910540241B350BE091EE43F09174
S1135C20EF43E217F307A0F42E1B3F0B28173907A5
S1135C3078F0AC014E5F5F4F2417350748F04E0FE4
S1135C405F1F4093EE435093EF438193919302C0BF
S1135C50E0E0F0E0CF01DF91CF911F910F91089523
S1135C60CF93DF93009709F481C0FC01329712822D
S1135C701382A091F043B091F143109781F42081F5
S1135C803181820F931F2091EE433091EF43281707
S1135C90390751F5E093EE43F093EF4367C0ED010C
S1135CA020E030E0CE17DF0740F44A815B819E019B
S1135CB041155105F1F0EA01F5CFC283D383408148
S1135CC05181840F951FC817D90759F48881998188
S1135CD0840F951F0296808391838A819B8182839E
S1135CE093832115310529F4E093F043F093F143B4
