:100000000C945E0F0C947D0F0C947D0F0C947D0F5F
:100010000C947D0F0C947D0F0C947D0F0C947D0F30
:100020000C947D0F0C947D0F0C947D0F0C947D0F20
:100030000C947D0F0C94AD1D0C947D0F0C947D0FD2
:100040000C947D0F0C947D0F0C947D0F0C947D0F00
:100050000C947D0F0C947D0F0C947D0F0C947D0FF0
:100060000C947D0F0C947D0F0C947D0F0C947D0FE0
:100070000C947D0F0C94A1260C94E31D0C947D0F21
:100080000C947D0F0C947D0F0C9477260C947D0FAF
:100090000C947D0F0C947D0F0C947D0F0C947D0FB0
:1000A0000C947D0F0C947D0F0C947D0F0C947D0FA0
:1000B0000C947D0F0C9474270C947D0F0C947D0F81
:1000C0000C947D0F0C947D0F0C947D0F0C947D0F80
:1000D0000C947D0F0C947D0F0C947D0F0C947D0F70
:1000E0000C947D0F0C947D0F08000000BE922449F3
:1000F000123EABAAAA2ABECDCCCC4C3E000000805A
:10010000BEABAAAAAA3E00000000BF000000803FCC
:100110000000000000084178D3BB4387D1133D198C
:100120000E3CC3BD4282AD2B3E68EC8276BED98FB9
:10013000E1A93E4C80EFFFBE01C4FF7F3F000000FD
:1001400000000000000000000000000000000000AF
:1001500000000000000000000000FE3F3FDFEFF75E
:10016000F306FF7FBFDFEFF7FB86C36186030C0654
:100170001BC6C36186030C061BC6C36186030C063F
:100180001BE6C36186030C061B66FF7F86030FC751
:10019000FB76FE7F86030FC7F336C06186030C072C
:1001A000833EC06186030C06C31EC06186030C0635
:1001B000631EC06186030C06330EC06186030FF612
:1001C0001B0EC06186030FF60B0600000000000046
:1001D000000000000000000000000000000000001F
:1001E000000000000000000000000000000000000F
:1001F00000000000000000000000000000000000FF
:1002000000000000000000000000000000000000EE
:1002100000000000000000000000000000000000DE
:1002200000000000000000000000000000000000CE
:1002300000000000000000000000000000000000BE
:10024000000000000000000000003F1F8FE7E7F9FA
:10025000F9807FBFDFEFF7FBFD8061B0D80C30C3C2
:100260000D806030D80C00C30D806030D80C00C306
:100270000D806030D80C00C30D807F3FDF8C00C341
:10028000FD803FBF9F8C00C3FD8001B0180C00C3F0
:100290000D8001B0180C00C30D8001B0180C00C314
:1002A0000D8061B0180C30C30D807FB01FEFF7FBDD
:1002B0000DFE3F300FE7E7FB0DFE000000000000E1
:1002C000000000000000000000000000000000002E
:1002D000000000000000000000000000000000001E
:1002E000000000000000000000000000000000000E
:1002F00000000000000000000000000000000000FE
:1003000000000000000000000000000000000000ED
:1003100000000000000000000000000000000000DD
:1003200000000000000000000000003FD8303FDC6B
:1003300030061E30061E30061F30061B30061BB06E
:100340000619B00619F00618F00618F00618703FE6
:10035000D8703FD83000000000000000000000000E
:10036000000000000000000000000000000000008D
:10037000000000000000000000000000000000007D
:10038000000000000000000000000000000000006D
:10039000000000003F9837FBFCFCC1803FD837FBD2
:1003A000FDFEE18030D830C06186F18030D830C0A9
:1003B0006186F18030D830C06186F98030D830C095
:1003C0006186D9803F9830C06186DD803F9830C01B
:1003D0006186CD8030D830C06186CF8030D830C0C3
:1003E0006186C78030D830C06186C78030D830C0C1
:1003F0006186C3803FDFF0C061FEC3803F8FE0C0F5
:1004000060FCC1800000000000000000000000004F
:1004100000000000000000000000000000000000DC
:1004200000000000000000000000000000000000CC
:1004300000000000000000000000000000000000BC
:1004400000000000000000000000000000000000AC
:10045000000000000000000000000000000000009C
:10046000000000000000000000000000000000008C
:1004700000000000000000000000000000007F3FBE
:100480009FE7E3F07FBFDFEFF7F861B0D80C3618D5
:1004900061B0D80C060061B0D80C060061B0D80C71
:1004A00006007FBFDF8FE7F07F3F9F87F7F8603C54
:1004B00018003018603618003018603318003018F3
:1004C0006031980C36186030DFEFF7F860305FEF7E
:1004D000E3F0000000000000000000000000000049
:1004E000000000003FFC007FFE00FFFF00FFFF0058
:1004F000F00F00F00F00F00F00F00F00F00F00F011
:100500000F00F00F00F00F00F00F00F00F00F00FE1
:1005100000F00F00F00F00F00F00F00F00F00F00E0
:10052000FFFF00FFFF007FFE003FFC0003F000071D
:10053000F0000FF0000FF0000FF0000FF0000FF0D0
:100540000001F00001F00001F00001F00001F000F6
:1005500001F00001F00001F00001F00001F00001E5
:10056000F00001F00001F0000FFE000FFE000FFE92
:10057000000FFE003FFC007FFE00FFFF00FFFF00BA
:10058000F00F00F00F00000F00000F00000F000040
:100590000F003FFF007FFF00FFFE00FFFC00F000A8
:1005A00000F00000F00000F00000F00000F000009B
:1005B000FFFF00FFFF007FFF003FFF003FFC007FC9
:1005C000FE00FFFF00FFFF00F00F00F00F00000F24
:1005D00000000F00000F00000F001FFF001FFF00B2
:1005E0001FFF001FFF00000F00000F00000F0000A2
:1005F0000F00F00F00F00F00FFFF00FFFF007FFE75
:10060000003FFC00007C0000FC0000FC0001FC003E
:1006100003FC0003FC0007FC000FFC000FBC001FE4
:100620003C003F3C003E3C007C3C00FC3C00F83C75
:1006300000FFFF00FFFF00FFFF00FFFF00003C0086
:10064000003C00003C00003C00003C00FFFF00FFBD
:10065000FF00FFFF00FFFF00F00000F00000F000CF
:1006600000F00000FFFC00FFFE007FFF003FFF00E6
:10067000000F00000F00000F00000F00000F00F03F
:100680000F00F00F00F00F00FFFF00FFFF007FFEE4
:10069000003FFC003FFC007FFE00FFFF00FFFF006B
:1006A000F00F00F00F00F00000F00000F00000F08C
:1006B0000000FFFC00FFFE00FFFF00FFFF00F00F47
:1006C00000F00F00F00F00F00F00F00F00F00F002F
:1006D000FFFF00FFFF007FFE003FFC00FFFF00FF69
:1006E000FF00FFFF00FFFF00F01F00F01F00F03FC2
:1006F00000003E00003E00007C00007C0000FC008A
:1007000000F80000F80001F00001F00003F0000321
:10071000E00003E00007C00007C0000FC0000F802A
:10072000000F80003FFC007FFE00FFFF00FFFF0086
:10073000F00F00F00F00F00F00F00F00F00F00F0CE
:100740000F007FFE003FFC003FFC007FFE00F00F2B
:1007500000F00F00F00F00F00F00F00F00F00F009E
:10076000FFFF00FFFF007FFE003FFC003FFC007F1B
:10077000FE00FFFF00FFFF00F00F00F00F00F00F82
:1007800000F00F00F00F00F00F00FFFF00FFFF0070
:100790007FFF003FFF00000F00000F00000F00F080
:1007A0000F00F00F00F00F00FFFF00FFFF007FFEC3
:1007B000003FFC00000000000000000000000000FE
:1007C0001F986C183FD86E1830D86F1830D86F1833
:1007D00030D86F9830D86D983FD86DD83F986CD886
:1007E0003C186CD836186C7833186C7831986C38A3
:1007F00030DFEC38304FCC38000000000000000043
:1008000000000000000000000000000000000000E8
:1008100000000000000000000000000000000000D8
:1008200000000000000000000000000000000000C8
:1008300000000000000000000000000000007F9F9A
:100840009FE7E6007FBFDFEFF6000C30C30C3600F9
:100850000C30C30C36000C30C30C36000C30C30C0B
:1008600036000C30C30FF6000C30C30FF6000C300E
:10087000C30C36000C30C30C36000C30C30C3600F1
:100880000C30C30C36000C3FC30C37F80C1F830C24
:1008900037F8000000000000000000000000000029
:1008A0000000000000000000000000000000000048
:1008B0000000000000000000000000000000000038
:1008C0000000000000000000000000000000000028
:1008D0000000000000000000000000000000000018
:1008E0000000000000000000000000000000000008
:1008F000000030CFCC33F1F830DFEC37FBFC30D8E0
:100900006C361B0C30D86C361B0030D86C361B0094
:1009100030D86C361B003FD86C37FBF83FD86C37AB
:10092000F1FC30D86C37800C30D86C36C00C30D825
:100930006C36600C30D86C36330C30DFEFF61BFCB5
:1009400030CFC7E609F800000000000000000000FA
:100950000000000000000000000000000000000097
:100960000000000000000000000000000000000087
:100970000000000000000000000000000000000077
:100980000000000000000000000000000000000067
:100990000000000000000000000000000000000057
:1009A0000000000000000000000000003F1FCFCC4E
:1009B00037F9F9FE7FBFDFEC37FBFDFE61B0186C45
:1009C00030C30D806030186C30C301806030186C0B
:1009D00030C301806030186C30C301807F3F1FEC52
:1009E00030C301F83FBF1FCE70C301F801B01E0E27
:1009F00070C3018001B01B07E0C3018001B01987FB
:100A0000E0C3018061B018C3C0C30D807FBFD8634D
:100A1000C7FBFDFE3F1FD82187F9F9FE000000004B
:100A200000000000000000000000000000000000C6
:100A300000000000000000000000000000000000B6
:100A400000000000000000000000000000000000A6
:100A50000000000000000000000000000000000096
:100A60000000000000000000000000000000000086
:100A70000000000000000000000000000000000076
:100A8000000000000000000FF8001FFC00180C0020
:100A9000180C001800001800001FF0000FF80000EC
:100AA0001C00000C00180C00180C001C1C001FFC83
:100AB000000FF80000000007FFFF80001FFFFFE0AD
:100AC000003FFFFFF0007FFFFFF8007FFFFFF8000F
:100AD000FFFFFFFC00FFFFFFFC00FFFFFFFC00FF2C
:100AE000E01FFC00FFC00FFC00FF8007FC00FF8040
:100AF00007FC00FF8007FC00FF8007FC00FF800769
:100B0000FC00FF8007FC00FF8007FC00FF8007FC63
:100B100000FF8007FC00FF8007FC00FF8007FC004F
:100B2000FF8007FC00FF8007FC00FF8007FC00FF40
:100B30008007FC00FF8007FC00FF8007FC00FF80AF
:100B400007FC00FF8007FC00FF8007FC00FF800718
:100B5000FC00FF8007FC00FF8007FC00FF8007FC13
:100B600000FF8007FC00FF8007FC00FF8007FC00FF
:100B7000FF8007FC00FF8007FC00FFC00FFC00FFA8
:100B8000E01FFC00FFFFFFFC00FFFFFFFC00FFFF7A
:100B9000FFFC007FFFFFF8007FFFFFF8003FFFFF33
:100BA000F0001FFFFFE00007FFFF80000003FE00D2
:100BB000000007FE0000000FFE0000000FFE000016
:100BC000001FFE0000003FFE0000007FFE0000004E
:100BD000FFFE000001FFFE000003FFFE000007FF14
:100BE000FE000007FFFE000007FFFE000007FFFEFB
:100BF000000007FBFE000007F3FE000007E3FE0015
:100C00000007C3FE00000783FE00000703FE00008C
:100C10000003FE00000003FE00000003FE000000D1
:100C200003FE00000003FE00000003FE00000003BE
:100C3000FE00000003FE00000003FE00000003FEB3
:100C400000000003FE00000003FE00000003FE00A1
:100C5000000003FE00000003FE00000003FE000091
:100C60000003FE00000003FE00000003FE00000081
:100C700003FE00000003FE00000FFFFFFF000FFF58
:100C8000FFFF000FFFFFFF000FFFFFFF000FFFFF41
:100C9000FF000FFFFFFF000FFFFFFF000FFFFFFF31
:100CA00000000FFF8000003FFFE000007FFFF80022
:100CB00000FFFFFC0001FFFFFE0003FFFFFF000736
:100CC000FFFFFF8007FFFFFFC00FFC03FFC00FF80F
:100CD00001FFE01FF000FFE01FF0007FE01FF000C9
:100CE0007FE01FF0007FE01FF0007FE01FF0007F3B
:100CF000E0000000FFE0000001FFC0000003FFC0B3
:100D0000000007FFC000000FFF8000001FFF000071
:100D1000003FFF0000007FFE000000FFFC0000011C
:100D2000FFF8000003FFF0000007FFE000000FFFE6
:100D3000C000001FFF8000003FFF0000007FFE009A
:100D40000000FFFC000001FFF8000003FFF00000BE
:100D500007FFE000000FFFC000001FFF8000001F22
:100D6000FF0000003FFE0000003FFC0000003FFFCE
:100D7000FFFFE03FFFFFFFE03FFFFFFFE03FFFFF20
:100D8000FFE03FFFFFFFE03FFFFFFFE03FFFFFFF10
:100D9000E03FFFFFFFE0003FFFC00000FFFFF0006B
:100DA00001FFFFF80003FFFFFE0007FFFFFF000F3A
:100DB000FFFFFF800FFFFFFFC00FF001FFC00FC05C
:100DC00000FFC00FC0007FC00FC0007FC00F8000B9
:100DD0003FC00000003FC00000003FC00000003FD7
:100DE000C00000003FC00000007FC00000007FC0C6
:100DF000000000FFC0000003FFC0003FFFFF8000B5
:100E00007FFFFF00007FFFFC00007FFFF000007FFE
:100E1000FFFF00007FFFFF80007FFFFFC0003FFF5C
:100E2000FFC0000003FFC0000001FFC00000007F02
:100E3000C00000007FC00000003FC00000003FC0B5
:100E40000000003FC00000003FC00000003FC00F96
:100E500080003FC00FC0007FC00FC0007FC00FC028
:100E600000FFC00FF001FFC00FFFFFFF800FFFFF6B
:100E7000FF0007FFFFFF0003FFFFFE0001FFFFFC75
:100E80000000FFFFF000003FFFC000000003FE0075
:100E9000000007FE0000000FFE0000001FFE000023
:100EA000003FFE0000007FFE000000FFFE0000018A
:100EB000FFFE000003FFFE000007FFFE00000FFF23
:100EC000FE00001FFDFE00003FF9FE00007FF1FE66
:100ED0000000FFE1FE0001FFC1FE0003FF81FE00F4
:100EE00007FF01FE000FFE01FE001FFC01FE003F98
:100EF000F801FE007FF001FE00FFE001FE00FFC0F0
:100F000001FE00FFFFFFFFE0FFFFFFFFE0FFFFFF2D
:100F1000FFE0FFFFFFFFE0FFFFFFFFE0FFFFFFFF3E
:100F2000E0FFFFFFFFE0000001FE00000001FE0007
:100F3000000001FE00000001FE00000001FE0000B4
:100F40000001FE00000001FE00000001FE000000A4
:100F500001FE00000001FE00000001FE0000000193
:100F6000FE00000001FE00000001FE00000001FE86
:100F700000000001FE00000001FE00000001FE0074
:100F80001FFFFFFFC03FFFFFFFC03FFFFFFFC03F4E
:100F9000FFFFFFC03FFFFFFFC03FFFFFFFC03FFF5E
:100FA000FFFFC03FFFFFFFC03FFFFFFFC03FE0006C
:100FB00000003FE00000003FE00000003FE00000D4
:100FC000003FE00000003FE00000003FE0000000C4
:100FD0003FE00000003FE3FFFC003FE7FFFE003F73
:100FE000EFFFFF003FFFFFFF803FFFFFFFC03FFF1E
:100FF000FFFFE03FFFFFFFE03FFFFFFFF03FFC0090
:101000007FF03FF0003FF83FE0001FF80000000FC6
:10101000F800000007F800000007F800000007F8DB
:1010200000000007F800000007F800000007F83F84
:10103000E00007F83FE00007F83FE0000FF83FF05E
:10104000001FF83FF0003FF83FF8007FF83FFFFF38
:10105000FFF03FFFFFFFF03FFFFFFFE01FFFFFFF3D
:10106000C00FFFFFFF8007FFFFFF0003FFFFFE0031
:1010700001FFFFFC0001FFFF800003FFFFE0000F06
:10108000FFFFF8001FFFFFFC003FFFFFFE003FFFD8
:10109000FFFF007FFFFFFF007FFFFFFF00FFF00368
:1010A000FF00FFE001FF00FFC001FF00FF8000FF25
:1010B00000FF80007F00FF80007F00FF80000000B5
:1010C000FF80000000FF80000000FF80000000FFA4
:1010D00080000000FF80000000FF9FFE0000FFBFB7
:1010E000FF8000FFFFFFE000FFFFFFF000FFFFFFBA
:1010F000F800FFFFFFFC00FFFFFFFE00FFFFFFFE09
:1011000000FFFFFFFF00FFE003FF00FFC001FF0043
:10111000FFC001FF00FF8000FF00FF8000FF00FF15
:101120008000FF00FF8000FF00FF8000FF00FF80C5
:1011300000FF00FF8001FF00FFC001FF00FFE00390
:10114000FF00FFFFFFFF00FFFFFFFF00FFFFFFFFAC
:10115000007FFFFFFE007FFFFFFE003FFFFFFC0060
:101160001FFFFFF8000FFFFFF0003FFFFFFF803F72
:10117000FFFFFF803FFFFFFF803FFFFFFF803FFF3C
:10118000FFFF803FFFFFFF803FFFFFFF803FFFFF2C
:10119000FF803FFFFFFF80000007FF80000007FF88
:1011A00080000007FF8000000FFF0000000FFF001D
:1011B00000001FFE0000001FFE0000001FFE0000D8
:1011C000003FFC0000003FFC0000007FF800000032
:1011D0007FF80000007FF8000000FFF0000000FF33
:1011E000F0000001FFE0000001FFE0000001FFE06F
:1011F000000003FFC0000003FFC0000007FF8000E5
:101200000007FF80000007FF8000000FFF000000C4
:101210000FFF0000001FFE0000001FFE0000001F67
:10122000FE0000003FFC0000003FFC0000007FF8D3
:101230000000007FF80000007FF8000000FFF000D1
:101240000000FFF0000001FFE0000001FFE00000EF
:1012500001FFE0000003FFC0000003FFC000000129
:10126000FFFFC00007FFFFF0000FFFFFF8001FFFA8
:10127000FFFC003FFFFFFE007FFFFFFF007FFFFF3F
:10128000FF007FFFFFFF00FFFFFFFF80FFE003FF86
:1012900080FFC001FF80FF8000FF80FF00007F8093
:1012A000FF00007F80FF00007F80FF00007F80FF45
:1012B00000007F80FF00007F80FF8000FF80FFC074
:1012C00001FF80FFE003FF807FFFFFFF007FFFFF44
:1012D000FF003FFFFFFE001FFFFFFC003FFFFFFE80
:1012E000007FFFFFFF007FFFFFFF00FFFFFFFF808A
:1012F000FFE003FF80FFC001FF80FF8000FF80FF51
:1013000000007F80FF00007F80FF00007F80FF00E3
:10131000007F80FF00007F80FF00007F80FF800053
:10132000FF80FFC001FF80FFE003FF807FFFFFFF22
:10133000007FFFFFFF007FFFFFFF003FFFFFFE007A
:101340001FFFFFFC000FFFFFF80007FFFFF0000189
:10135000FFFFC00007FFFF80001FFFFFE0003FFF0F
:10136000FFF0007FFFFFF8007FFFFFF800FFFFFFA7
:10137000FC00FFFFFFFC00FFFFFFFC00FFE01FFC85
:1013800000FFC00FFC00FF8007FC00FF8007FC008F
:10139000FF8007FC00FF8007FC00FF8007FC00FFC8
:1013A0008007FC00FF8007FC00FFC00FFC00FFE08F
:1013B0001FFC00FFFFFFFC00FFFFFFFC00FFFFFF23
:1013C000FC007FFFFFFC007FFFFFFC003FFFFFFCF6
:1013D000001FFFFFFC0007FFFFFC00000007FC00F0
:1013E000000007FC00000007FC00000007FC0000F4
:1013F0000007FC00000007FC00000007FC000000E4
:1014000007FC00FF8007FC00FF8007FC00FF80074F
:10141000FC00FF8007FC00FFC00FFC00FFE01FFC8A
:1014200000FFFFFFFC00FFFFFFFC00FFFFFFFC00D1
:101430007FFFFFF8007FFFFFF8003FFFFFF0001F76
:10144000FFFFE00007FFFF800001FFFF800003FFB8
:10145000FFE0000FFFFFF8001FFFFFFC003FFFFF52
:10146000FE003FFFFFFF007FFFFFFF007FFFFFFF4A
:1014700000FFF003FF00FFE001FF00FFC001FF00DD
:10148000FF8000FF00FF80007F00FF80007F00FFE3
:1014900080000000FF80000000FF80000000FF804F
:1014A000000000FF80000000FF80000000FF9FFEA2
:1014B0000000FFBFFF8000FFFFFFE000FFFFFFF025
:1014C00000FFFFFFF800FFFFFFFC00FFFFFFFE0033
:1014D000FFFFFFFE00FFFFFFFF00FFE003FF00FF35
:1014E000C001FF00FFC001FF00FF8000FF00FF8080
:1014F00000FF00FF8000FF00FF8000FF00FF800072
:10150000FF00FF8000FF00FF8001FF00FFC001FF20
:1015100000FFE003FF00FFFFFFFF00FFFFFFFF00F2
:10152000FFFFFFFF007FFFFFFE007FFFFFFE003F8A
:10153000FFFFFC001FFFFFF8000FFFFFF0001FFF81
:10154000FFFFC03FFFFFFFC03FFFFFFFC03FFFFFA8
:10155000FFC03FFFFFFFC03FFFFFFFC03FFFFFFF98
:10156000C03FFFFFFFC03FFFFFFFC03FE0000000A4
:101570003FE00000003FE00000003FE00000003FCF
:10158000E00000003FE00000003FE00000003FE01E
:101590000000003FE3FFFC003FE7FFFE003FEFFFDE
:1015A000FF003FFFFFFF803FFFFFFFC03FFFFFFF48
:1015B000E03FFFFFFFE03FFFFFFFF03FFC007FF059
:1015C0003FF0003FF83FE0001FF80000000FF80078
:1015D000000007F800000007F800000007F800000E
:1015E0000007F800000007F800000007F83FE000DF
:1015F00007F83FE00007F83FE0000FF83FF0001F5A
:10160000F83FF0003FF83FF8007FF83FFFFFFFF0A2
:101610003FFFFFFFF03FFFFFFFE01FFFFFFFC00F97
:10162000FFFFFF8007FFFFFF0003FFFFFE0001FF3A
:10163000FFFC00000003FE00000007FE0000000F9A
:10164000FE0000001FFE0000003FFE0000007FFEC5
:10165000000000FFFE000001FFFE000003FFFE008F
:101660000007FFFE00000FFFFE00001FFDFE000050
:101670003FF9FE00007FF1FE0000FFE1FE0001FFE8
:10168000C1FE0003FF81FE0007FF01FE000FFE0107
:10169000FE001FFC01FE003FF801FE007FF001FE8E
:1016A00000FFE001FE00FFC001FE00FFFFFFFFE0C2
:1016B000FFFFFFFFE0FFFFFFFFE0FFFFFFFFE0FF97
:1016C000FFFFFFE0FFFFFFFFE0FFFFFFFFE0000085
:1016D00001FE00000001FE00000001FE000000010C
:1016E000FE00000001FE00000001FE00000001FEFF
:1016F00000000001FE00000001FE00000001FE00ED
:10170000000001FE00000001FE00000001FE0000DC
:101710000001FE00000001FE00000001FE000000CC
:1017200001FE00000001FE00003FFFC00000FFFFBF
:10173000F00001FFFFF80003FFFFFE0007FFFFFFBF
:10174000000FFFFFFF800FFFFFFFC00FF001FFC082
:101750000FC000FFC00FC0007FC00FC0007FC00FD0
:1017600080003FC00000003FC00000003FC00000FC
:10177000003FC00000003FC00000007FC00000002C
:101780007FC0000000FFC0000003FFC0003FFFFF5C
:1017900080007FFFFF00007FFFFC00007FFFF00064
:1017A000007FFFFF00007FFFFF80007FFFFFC00082
:1017B0003FFFFFC0000003FFC0000001FFC00000AA
:1017C000007FC00000007FC00000003FC00000009C
:1017D0003FC00000003FC00000003FC00000003FCD
:1017E000C00F80003FC00FC0007FC00FC0007FC08F
:1017F0000FC000FFC00FF001FFC00FFFFFFF800F01
:10180000FFFFFF0007FFFFFF0003FFFFFE0001FFD8
:10181000FFFC0000FFFFF000003FFFC000000FFFD3
:101820008000003FFFE000007FFFF80000FFFFFCAA
:101830000001FFFFFE0003FFFFFF0007FFFFFF8027
:1018400007FFFFFFC00FFC03FFC00FF801FFE01F01
:10185000F000FFE01FF0007FE01FF0007FE01FF0CE
:10186000007FE01FF0007FE01FF0007FE00000003D
:10187000FFE0000001FFC0000003FFC0000007FF01
:10188000C000000FFF8000001FFF0000003FFF00AE
:1018900000007FFE000000FFFC000001FFF80000D8
:1018A00003FFF0000007FFE000000FFFC000001F73
:1018B000FF8000003FFF0000007FFE000000FFFCF3
:1018C000000001FFF8000003FFF0000007FFE00048
:1018D000000FFFC000001FFF8000001FFF0000007E
:1018E0003FFE0000003FFC0000003FFFFFFFE03F25
:1018F000FFFFFFE03FFFFFFFE03FFFFFFFE03FFF95
:10190000FFFFE03FFFFFFFE03FFFFFFFE03FFFFF84
:10191000FFE007FFFF80001FFFFFE0003FFFFFF039
:10192000007FFFFFF8007FFFFFF800FFFFFFFC00D4
:10193000FFFFFFFC00FFFFFFFC00FFE01FFC00FFBC
:10194000C00FFC00FF8007FC00FF8007FC00FF8049
:1019500007FC00FF8007FC00FF8007FC00FF8007FA
:10196000FC00FF8007FC00FF8007FC00FF8007FCF5
:1019700000FF8007FC00FF8007FC00FF8007FC00E1
:10198000FF8007FC00FF8007FC00FF8007FC00FFD2
:101990008007FC00FF8007FC00FF8007FC00FF8041
:1019A00007FC00FF8007FC00FF8007FC00FF8007AA
:1019B000FC00FF8007FC00FF8007FC00FF8007FCA5
:1019C00000FF8007FC00FF8007FC00FF8007FC0091
:1019D000FF8007FC00FFC00FFC00FFE01FFC00FFC2
:1019E000FFFFFC00FFFFFFFC00FFFFFFFC007FFF8D
:1019F000FFF8007FFFFFF8003FFFFFF0001FFFFF31
:101A0000E00007FFFF800000000000000000000071
:101A100000000000000006000000000F8000000031
:101A20000FC000000017F00000000BFC00000005D4
:101A3000F90000003AF38000003D7FBC00003EBF8B
:101A40003800001F5E7800000FAFFC000007C7FEE3
:101A5000000003E3FF100007F1FFF0000FFAFFE0C2
:101A6000000FFD7FC0000F3EBF80000F1E5F000013
:101A70000F0E2E00003FFFFFF0003FFFFFF00000C1
:101A800000000000018000000003E000000003F0FF
:101A900000000005FC00000002FF000000017E4085
:101AA00000000EBCE000000F5FEF00000FAFCE00A3
:101AB0000007D79E000003EBFF000001F1FF80004C
:101AC00000F8FFC40001FC7FFC0003FEBFF8000724
:101AD000FF5FF0000FCFAFE0000F8797C0000F034C
:101AE0008B80000F000500000F000200003FFFFF89
:101AF000F0003FFFFFF000006000000000F8000071
:101B00000000FC000000017F00000000BFC00000DA
:101B1000005F900000002F3800000E17FBC0000F80
:101B20000BF380000F85E7800007C2FFC00003E0D1
:101B30007FE00001F03FF10000F81FFF0001FC2FE3
:101B4000FE0003FE17FC0007FF0BF8000FCF85F027
:101B5000000F8782E0000F038140000F000080002B
:101B60000F000000003FFFFFF0003FFFFFF000C04C
:101B700000000000C000000000C000000000C00025
:101B8000000000C7E39C0000CFE7FE0000CC6666C3
:101B90000000CC66660000CFE6660000CFE6660077
:101BA00000CC06660000CC066600000C00000000B9
:101BB0000C000000000C000000000000000000000D
:101BC000000000000000F000000000E00000000144
:101BD000C0000000018000000003FC00000007F8C6
:101BE0000000000070000000006000000000C00065
:101BF0000000018000001C030000003E0000000007
:101C0000633FF00F00637FF81F8063C0183180636B
:101C100080186180630038C300631FFF8600631F64
:101C2000FF0C006300001800630000300063FFFF3A
:101C3000E00063FFFFC0003E000000001C00000049
:101C4000007E7E7E7E00001819FC000000001C391A
:101C5000FE000000001E7986000000001E7986004C
:101C60000000001BD9863D8000001999867F800006
:101C7000001999FE638000001819FC6180000018AB
:101C80001980618000001819806180000018198097
:101C9000638000001819807F8000001819803D8043
:101CA0000000000000000000000000030C00000025
:101CB0003E1CE30C7C3E007F3FF30CFE7F00C333F1
:101CC000330CC66300C033330C066300C03333FCEF
:101CD0000E6300C03333FC1C6300C033330C386325
:101CE00000C033330C706300C333330CE063007FF8
:101CF00033330CFE7F003E33330CFE3E0000000009
:101D000000000000000000C60000738738C6030012
:101D1000FFCFFCC63F00CCCCCCFE7F00CCCCCCFEB1
:101D20006300CCCCCCC66300CCCCCCC67F00CCCC82
:101D3000CCC63F00CCCCCCC60300000000000300A2
:101D4000000000006300000000007F0000000000B1
:101D50003E0071C92F7839888A29284845888A2900
:101D6000284845488A292F484548F2292878452897
:101D700082292860452882292850451881C6CF48E5
:101D800039183F8000781E00007FC000781E0000D8
:101D9000FFE000781E0000FFE000381C0000E0E0DB
:101DA000003C3C0000E0E0003C3C0000E0E0003C87
:101DB0003C0000E0E0003C3C0000E0E0001E787FDA
:101DC00000E0E1FE1E78FF80FFE3FF1E78FF80FF4A
:101DD000E3FF1E78E380FFE3FF0E70E380FFE387FD
:101DE0000FF0E380E0E3870FF0E380E0E3870FF09C
:101DF000E380E0E3FF07E0FFE0E0E3FE07E0FFE071
:101E0000E0E1C007E07EE00001C00000000000014A
:101E1000FF000000000003FF800000000003FF80BF
:101E200000000000038380000000000383800000A6
:101E300000000383800000000003FF80000000001A
:101E400003FF800000000001FF0000000000000010
:101E500000000000001E0000003F0000003F0000E6
:101E6000007380000061800000E1C00000C0C0007D
:101E700001C0E00001806000039C7000033E300060
:101E8000077F3800060718000E071C000C7F8C0027
:101E90001C3FCE00181FE6003801F7003000F300A9
:101EA00070007B8060003980E00019C0C00000C075
:101EB000C00000C0FFFFFFC07FFFFF8011241FBED6
:101EC000CFEFCDBFDFE7DEBF14E4A0E0B0E4E0E396
:101ED000F5E600E00BBF02C007900D92AE3FB107E0
:101EE000D9F725E4AEEFB4E401C01D92A93BB207D7
:101EF000E1F70E94AF2C0C9496320C9400006150D4
:101F0000710920E030E00EC0DC01A20FB31F4C913C
:101F1000FC01E60FF71F50815C9340832F5F3F4F1A
:101F200061507109261737077CF30895CF92DF922D
:101F3000EF92FF920F931F93CF93DF938A01690172
:101F4000C0E0D0E011C07801EC0EFD1E2AE030E0C8
:101F500040E050E00E940230605DF7016083622F34
:101F6000732F842F952F2196611571058105910599
:101F700051F706C0F801EC0FFD1F80E38083219626
:101F8000CC15DD05BCF3BE01C8010E947F0FF8012E
:101F9000EC0FFD1F1082CE01DF91CF911F910F91A9
:101FA000FF90EF90DF90CF900895E0E4F4E020817F
:101FB0002D7F2083208121602083BC0180E090E080
:101FC0000E94232E20E030E040E851E40E942A2FB6
:101FD0009B01AC0160E07BE187EB9EE40E947B2DDE
:101FE00020E030E040E05FE30E940A2D0E94F42DE3
:101FF000E0E2F8E0608771878681806C86830895CF
:102000009091240895FFFCCF8093220808950F93A8
:102010001F93CF93DF938C01C0E0D0E007C0F8019D
:10202000EC0FFD1F80810E9400102196F8010190A5
:102030000020E9F73197E01BF10BCE17DF0778F3AB
:102040008AE00E940010DF91CF911F910F910895B7
:102050000F931F93CF93DF938C01C0E0D0E007C0B4
:10206000F801EC0FFD1F80810E9400102196F801FD
:1020700001900020E9F73197E01BF10BCE17DF0745
:1020800078F3DF91CF911F910F91089520E030E018
:1020900042E855E40E94960F82E895E40E940710FA
:1020A0000895E0E0F4E0808180688083A4E0B4E0FB
:1020B0008C9180688C938081806180838081806432
:1020C0008083E0E4F9E080818063808380818160A7
:1020D00080838C9180688C930895809344098091CB
:1020E00043098823E4F70895DC0120E030E00CC0C8
:1020F000FD01E20FF31F90819093440990914309F1
:102100009923E4F72F5F3F4F462F50E02417350700
:102110007CF30895E0E0F9E081E0858383E0848347
:102120000895E0E0F9E080818F7E80838081837F65
:10213000808380818D7F80830895E0E0F9E087E6E9
:10214000868381E0858383818A6083838381816044
:1021500083830895CF93DF93C82FD62F80910509ED
:102160008370833089F482E590E40E94071020E6B2
:102170003AEE01C09C01809105098370833021F4FF
:10218000C9010197232BB1F785E080930509DD2371
:1021900041F08C2F90E0880F991F81608093070990
:1021A00004C08C2F880F8093070980E69AEE209157
:1021B000050924FF06C02091050926FD02C00197EC
:1021C000B1F7892B21F48CE590E40E9407108091EF
:1021D000050982FF04C084E690E40E940710DF91A5
:1021E000CF910895CF93DF93C0E6DAEE8091050991
:1021F000882314F02197D1F78091050983FD04C04D
:102200008091050982FF09C087E990E40E940710C8
:102210000E948A1081E080938145CD2B39F48CE5B2
:1022200090E40E94071081E0809381458091080925
:10223000DF91CF91089585E88093A000E0E0F6E07B
:1022400084E0818381E082838083089581E08093AC
:102250000A060895809308060E94261180910D06B3
:1022600080FFFCCF8091100690911106089580E8C0
:1022700095E20E94D50F0E9491100E949D1061E08E
:1022800088E70E94AA100895CF93DF930E94F2106E
:10229000C82FD0E0DC2FCC270E94F210C82B0E9460
:1022A000F2100E94F210BE0180E090E00E94232E06
:1022B000DF91CF9108950E94441120E030ED4CE46D
:1022C00055E40E94092D2CEE31E143E853E40E94CD
:1022D0007B2D0895CF92DF92EF92FF921F93CF93C1
:1022E000DF93182FC0E0D0E0C12CD12C760111C0B3
:1022F0000E945B119B01AC01C701B6010E940A2D2F
:1023000020E030E040E05FE30E942A2F6B017C0177
:102310002196812F90E0C817D90754F32FE03CEDA8
:102320004EE452E4C701B6010E942A2FDF91CF91FB
:102330001F91FF90EF90DF90CF900895E0E0F4E0E0
:10234000808180688083E0E2F4E080818061808326
:10235000E0E4F4E08081806280830895CF93DF938E
:10236000E0E2F4E0248120612483C0E0D4E02C8109
:102370002F772C830E9474108C8180688C83DF916E
:10238000CF910895CF93DF93E0E2F4E094819061E0
:102390009483C0E0D4E09C819F779C830E946D1061
:1023A0008C818F778C83DF91CF9108950F931F934A
:1023B000CF93DF93C0E2D4E09C819F7E9C8300E0BA
:1023C00014E0F80194819F7794830E946D10F801C6
:1023D0008481806884838C8180618C83DF91CF913C
:1023E0001F910F9108950F931F93CF93DF93C0E236
:1023F000D4E09C819F7E9C8300E014E0F8019481EE
:102400009F7794830E946D10F80184818068848393
:102410008C8180618C83DF91CF911F910F91089502
:10242000CF93982F9F70C82FC295CF70C067892F08
:1024300080660E94F3118C2F0E94F311CF910895B2
:10244000CF93C82FC295CF70C0618F700E94F311D7
:102450008C2F0E94F311CF9108950F931F93CF9368
:10246000DF93062F122FD8E1D80FC8E1C40F8D2FAC
:102470000E942012802F0E94101284EF0E94D61119
:102480008D2F0E94F31186EF0E94D6118C2F0E948F
:10249000F31187EF0E94D611812F0E94F31188EF6C
:1024A0000E94D611DF91CF911F910F910895CF9384
:1024B000DF932FE94FE460E080E00E942D12C0E03E
:1024C000D0E004C080E00E94C2112196C11584E6CC
:1024D000D807C4F3DF91CF910895E0E0F4E0848160
:1024E0008F778483E0E2F4E0848180618483E0E498
:1024F000F4E084818F7D84832FEF88EF95E1215074
:1025000080409040E1F700C00000848180628483B5
:102510002FEF8EE994E2215080409040E1F700C017
:10252000000088EB0E94D61180E10E94F31182EE38
:102530000E94D6112FEF85EA9EE021508040904006
:10254000E1F700C000008BEE0E94D61181E80E94E6
:10255000D6118BE40E94D6118BE20E94D61184EC36
:102560000E94D61189E80E94D61184E20E94D611F9
:1025700082EA0E94D61181EF0E94D6118FE90E9453
:10258000F31184E80E94D61182EF0E94D61180E0F8
:102590000E94F31183EF0E94D61182E30E94F3118F
:1025A00080E40E94D61180E50E94D61181ED0E9440
:1025B000D61186ED0E94D61188EC0E94D61185E0D6
:1025C0000E94D61188ED0E94D6110E9457128DEA02
:1025D0000E94D61108952F923F924F925F926F9270
:1025E0007F928F929F92AF92BF92CF92DF92EF92A3
:1025F000FF920F931F93CF93DF93CDB7DEB7619711
:10260000CDBFDEBF8F836C871A012B87902E2DB72D
:102610003EB72E873F878BEA089F812D1124869530
:102620008A8790E0DC01AA0FBB1FAD83BE836D01DA
:10263000BB0FEE08FF0800E010E0412C512C3201E6
:1026400009831A839D864601570189C0EDB7FEB7FD
:10265000E887F9872DB73EB78D819E81281B390BFE
:102660002DBF3EBFADB7BEB71196AB83BC83AD01E6
:1026700080E090E005C0FA01E80FF91F1082019692
:102680008C01092E000C220B330B081519052A05A5
:102690003B058CF360E070E030E020E0ED843DC06D
:1026A000F101E40DF51DF490BFEF4B1A5B0A6B0AC4
:1026B0007B0A87E090E02DC0EF2DF0E0082E02C0ED
:1026C000F595E7950A94E2F7E0FF1DC0E32FF0E0EF
:1026D000E88BF98B8F01040F151FD801CC90A22F26
:1026E000B0E0AA0FBB1FA95EBF4BDC90DC28F8014D
:1026F000D082E889F9893196E40FF51F108111968F
:10270000AC91A12BA0832F5F233010F03E5F20E01F
:10271000019799238CF66F5F7F4F8E2D8695869556
:10272000869590E0681779070CF4BACF6C85F9812B
:102730006F0F262F4A853F81430F832F0E942D1252
:102740006D817E818B819C810E94AE1188859985E7
:102750008DBF9EBFA981BA811196A983BA83BB851B
:102760008B2F90E0E981FA81E817F9070CF46ECF1E
:102770002E853F852DBF3EBF6196CDBFDEBFDF9169
:10278000CF911F910F91FF90EF90DF90CF90BF906E
:10279000AF909F908F907F906F905F904F903F9001
:1027A0002F9008952F923F924F925F926F927F9257
:1027B0008F929F92AF92BF92CF92DF92EF92FF9251
:1027C0000F931F93CF93DF93CDB7DEB76297CDBF43
:1027D000DEBFA82E688B4A01322E2DB73EB7298B5B
:1027E0003A8B202E269426942694222D30E0A32D79
:1027F000B0E00E9421309B01AC01AE2DB0E00E9400
:1028000030302B013C018BEA089F012D11240695E5
:102810000D87802F90E0DC01AA0FBB1FAE87BF871A
:10282000CD01092E000CAA0BBB0B8F839887A987BB
:10283000BA8700E010E08FC0ADB7BEB7AB87BC87EA
:10284000EDB7FEB72F813885E21BF30BEDBFFEBF5E
:102850008DB79EB701968D839E83AC0180E090E09A
:1028600049825A826B827C82322D232D2F803884BC
:1028700049845A8405C0FA01E80FF91F10820196B5
:102880006C01092E000CEE08FF08C214D304E40406
:10289000F50488F349805A806B807C80232E322E89
:1028A00060E070E030E020E03CC0F401E40DF51D94
:1028B000D4909FEF491A590A690A790A87E090E093
:1028C0002CC0ED2DF0E0082E02C0F595E7950A9496
:1028D000E2F7E0FF1CC0A32FB0E0A983BA837D011B
:1028E000E40EF51EF701B080A22FB0E0AA0FBB1FC7
:1028F000A95EBF4BCC90CB28C082E981FA8131968A
:10290000E40FF51FF0801196AC91AF29A0832F5FE3
:10291000233010F03E5F20E00197992394F66F5F1B
:102920007F4F822D90E0681779070CF4BECF68893D
:10293000600F262F4D854A0D8A2D0E942D126E851F
:102940007F858D819E810E94AE112B853C852DBF98
:102950003EBF0F5F1F4F832D90E0081719070CF43F
:102960006BCF89899A898DBF9EBF6296CDBFDEBF2E
:10297000DF91CF911F910F91FF90EF90DF90CF905B
:10298000BF90AF909F908F907F906F905F904F908F
:102990003F902F900895FF920F931F93CF93DF9353
:1029A000F62EC22F002381F0D42FD81B0E942D12A7
:1029B000C0E007C08FEF0E94C2118FEF0E94C211CA
:1029C000CF5FCD17B8F313C00E942D120C2F10E06B
:1029D0000F191109C0E0D0E007C08FEF0E94C211AB
:1029E00080E00E94C2112196C017D107B0F3DF9199
:1029F000CF911F910F91FF900895FF920F931F9316
:102A0000CF93DF93F62EC22F002381F0D42FD81B53
:102A10000E942D12C0E007C08FEF0E94C2118FEFFD
:102A20000E94C211CF5FCD17B8F313C00E942D12C0
:102A30000C2F10E00F191109C0E0D0E007C088EF9B
:102A40000E94C21180E00E94C2112196C017D107D6
:102A5000B0F3DF91CF911F910F91FF900895DF9216
:102A6000EF92FF920F931F93CF93DF93F82ED62E02
:102A7000E42E022F061B842F90E08F19910963E04A
:102A800070E00E94CC2FD62F10E013C0612F6D0D87
:102A9000262F4E2D8F2D0E942D12C0E007C08FEFE4
:102AA0000E94C2118FEF0E94C211CF5FCD17B8F301
:102AB0001F5F101758F3DF91CF911F910F91FF9077
:102AC000EF90DF900895DF92EF92FF920F931F93A4
:102AD000CF93DF93F82ED62EE42E022F061BD42F91
:102AE000D81B10E013C0612F6D0D262F4E2D8F2D9A
:102AF0000E942D12C0E007C080E00E94C21180E059
:102B00000E94C211CF5FCD17B8F31F5F101758F3A3
:102B1000DF91CF911F910F91FF90EF90DF9008957B
:102B2000CF93DF93A0E4B4E08C918F7B8C93569687
:102B30008C915697816056968C935697E0E8F4E016
:102B400080818D7F808381898260818B80818B7F72
:102B5000808382898260828BC0EAD4E088818B7F07
:102B600088838A8982608A8B80818E7F8083808936
:102B70008260808B8C9184608C93E0E2F4E08081B1
:102B800080628083DF91CF910895809144458823AE
:102B900069F181E080932C45809116408F5F80938E
:102BA0001640843018F081E08093164080911640E2
:102BB000823049F0833061F0813079F48FEA90E41B
:102BC0000E94071011C080ED90E40E9407100CC015
:102BD00083EF90E40E94071007C081E080931640C5
:102BE00083E191E40E9407101092444508950F93E9
:102BF00080914345882309F4A9C1809108408F5FE3
:102C000080930840863018F081E0809308408091DE
:102C10000840833009F49EC030F4813059F082308E
:102C200009F450C06FC1843009F4DCC0853009F468
:102C300021C168C180914245882359F0E0E0FAE063
:102C4000808181608083809111409091124080A7A3
:102C500091A78091114090911240809305459093E7
:102C6000064580911340811113C0809110459091C9
:102C700011458093054590930645E0E0FAE0808198
:102C800081608083809110459091114580A791A724
:102C900081E08093044508E221E34DE158E168E2D8
:102CA00085E30E94EB1221E342E159E168E282E40C
:102CB0000E94EB122FE04FE65BE16FE582E40E9499
:102CC000EB1241C180914245882359F0E0E0FAE0DF
:102CD00080818160808380910F409091104080A717
:102CE00091A780910F40909110408093054590935B
:102CF000064580911340811113C080911045909139
:102D000011458093054590930645E0E0FAE0808107
:102D100081608083809110459091114580A791A793
:102D200081E08093034508E221E348E257E168E24D
:102D300085E30E94EB1221E342E159E168E282E47B
:102D40000E94EB122FE04FE65BE16FE582E40E9408
:102D5000EB12F9C080914245882359F0E0E0FAE097
:102D600080818160808380910D4090910E4080A78A
:102D700091A780910D4090910E40809305459093CE
:102D8000064580911340811113C0809110459091A8
:102D900011458093054590930645E0E0FAE0808177
:102DA00081608083809110459091114580A791A703
:102DB00081E08093024508E221E343E356E168E2C3
:102DC00085E30E94EB1221E342E159E168E282E4EB
:102DD0000E94EB122FE04FE65BE16FE582E40E9478
:102DE000EB12B1C080914245882359F0E0E0FAE04F
:102DF00080818160808380910B4090910C4080A7FE
:102E000091A780910B4090910C4080930545909341
:102E1000064580911340811113C080911045909117
:102E200011458093054590930645E0E0FAE08081E6
:102E300081608083809110459091114580A791A772
:102E400081E08093014508E221E34EE355E168E229
:102E500085E30E94EB1221E342E159E168E282E45A
:102E60000E94EB122FE04FE65BE16FE582E40E94E7
:102E7000EB1269C080914245882359F0E0E0FAE006
:102E80008081816080838091094090910A4080A771
:102E900091A78091094090910A40809305459093B5
:102EA000064580911340811113C080911045909187
:102EB00011458093054590930645E0E0FAE0808156
:102EC00081608083809110459091114580A791A7E2
:102ED00081E08093004508E221E349E454E168E29F
:102EE00085E30E94EB1221E342E159E168E282E4CA
:102EF0000E94EB122FE04FE65BE16FE582E40E9457
:102F0000EB1221C0809111409091124080930545B1
:102F10009093064581E08093044508E221E34DE16A
:102F200058E168E285E30E94EB1221E342E159E1B6
:102F300068E282E40E94EB122FE04FE65BE16FE56E
:102F400082E40E94EB1210924345F9C0882309F4F1
:102F5000F6C080914245811109C080911B458111C5
:102F600005C080914545882309F4E9C08091084057
:102F70008F5F80930840863018F081E0809308408E
:102F800080910840833009F451C028F4813051F019
:102F9000823051F1B1C0843009F46AC0853009F43F
:102FA00089C0AAC0E0E0FAE08081816080838091DE
:102FB00011409091124080A791A708E221E34DE1D2
:102FC00058E168E285E30E94EB1221E342E159E116
:102FD00068E282E40E94EB122FE04FE65BE16FE5CE
:102FE00082E40E94EB12A9C0E0E0FAE080818160F7
:102FF000808380910F409091104080A791A708E2B4
:1030000021E348E257E168E285E30E94EB1221E305
:1030100042E159E168E282E40E94EB122FE04FE6C0
:103020005BE16FE582E40E94EB1287C0E0E0FAE02A
:1030300080818160808380910D4090910E4080A7B7
:1030400091A708E221E343E356E168E285E30E94A9
:10305000EB1221E342E159E168E282E40E94EB12C3
:103060002FE04FE65BE16FE582E40E94EB1265C062
:10307000E0E0FAE080818160808380910B40909154
:103080000C4080A791A708E221E34EE355E168E2F6
:1030900085E30E94EB1221E342E159E168E282E418
:1030A0000E94EB122FE04FE65BE16FE582E40E94A5
:1030B000EB1243C0E0E0FAE0808181608083809180
:1030C000094090910A4080A791A708E221E349E4D2
:1030D00054E168E285E30E94EB1221E342E159E109
:1030E00068E282E40E94EB122FE04FE65BE16FE5BD
:1030F00082E40E94EB1221C0809111409091124015
:10310000809305459093064581E08093044508E24D
:1031100021E348E257E16AE285E30E94EB1221E3F2
:1031200042E159E168E282E40E94EB122FE04FE6AF
:103130005BE16FE582E40E94EB12109243450F9130
:103140000895882351F1E0E8F4E084818860848365
:10315000A0E0BAE08C9181608C93809105459091BC
:10316000064598968D939C93999781E080930C45A2
:103170008089887F8460808B80915D4590915E45D9
:10318000A0915F45B0916045809346459093474537
:10319000A0934845B093494518C0811116C0E0E896
:1031A000F4E08481877F8483A0E0BAE08C91816021
:1031B0008C9398961D921C92999710920C45808939
:1031C000887F8260808B1092424580910C458823D5
:1031D00029F084E491E40E94071008958CEA91E4B8
:1031E0000E9407100895809141458823C9F181EE1E
:1031F00091E40E9407108091424581110AC080919C
:103200000545909106458093280A9093290A892BB9
:1032100001F51092424510921E45109222451092DF
:1032200021451092124510921345109214451092A8
:10323000154510921D4510921C451092164510928E
:103240001745109218451092194580E00E94A11868
:1032500005C081E0809342450E94A118109241452B
:1032600008950E94C5150E94F3180E94F71508954D
:10327000CF92DF92EF92FF920E946A116B017C0164
:103280006093794570937A4580937B4590937C4514
:1032900020E030E0A9010E94762D88234CF41092A2
:1032A000794510927A4510927B4510927C4516C064
:1032B00020E030E84BE354E4C701B6010E94D52E6C
:1032C000181664F480E090E8ABE3B4E480937945A9
:1032D00090937A45A0937B45B0937C4580911640AE
:1032E000823049F1833009F478C0813009F0AAC0F6
:1032F00080E090E0AAE7B5E4809365459093664549
:10330000A0936745B093684520E030E048EC52E474
:103310006091794570917A4580917B4590917C458B
:103320000E942A2F6093694570936A4580936B458C
:1033300090936C45ACC06091794570917A458091CD
:103340007B4590917C4529E134E04EEA5FE30E94A1
:103350002A2F6093754570937645809377459093B7
:1033600078450F2EC12CF0E8DF2EFBE3EF2EF5E4BD
:10337000FF2EF02DC0926545D0926645E0926745DC
:10338000F092684520E030E84BE354E40E94D52EEB
:10339000181664F480E090E8ABE3B4E480937545DC
:1033A00090937645A0937745B093784520E030E040
:1033B00048EC52E46091754570917645809177456F
:1033C000909178450E942A2F6093694570936A45D1
:1033D00080936B4590936C455AC06091794570918C
:1033E0007A4580917B4590917C452AE035E848E01C
:1033F0005EE30E942A2F609371457093724580931B
:103400007345909374450F2EC12CD12CF8E4EF2E08
:10341000F3E4FF2EF02DC0926545D0926645E09210
:103420006745F092684520E030E048EC52E40E94A5
:103430002A2F6093694570936A4580936B459093FA
:103440006C4525C081E08093164080E090E0AAE7BB
:10345000B5E48093654590936645A0936745B09326
:10346000684520E030E048EC52E460917945709185
:103470007A4580917B4590917C450E942A2F6093EC
:10348000694570936A4580936B4590936C45FF90B6
:10349000EF90DF90CF9008958091480483FF03C0A0
:1034A00081E0809323450895E0E4F4E08481806125
:1034B00084832FEF8EE994E2215080409040E1F721
:1034C00000C0000084818F7E84832FEF8EE994E218
:1034D000215080409040E1F700C000000E94371169
:1034E0000895E0E4F4E080818F77808387898160AC
:1034F000878B8081877F808383898160838B089518
:103500000E94711A8091480483FF04C081E0809377
:1035100023450895109223450895809120458823DE
:10352000B1F08091480483FF09C081E08093234576
:10353000E0E2F4E084818160848307C01092234537
:10354000E0E2F4E084818E7F8483109220458091B4
:103550002345882329F0E0E2F4E0848181608483BC
:1035600008950F931F93809122458823F1F1909144
:103570001E4591113AC090911F45911136C090910E
:103580002145992391F190911D45923070F1409120
:103590005D4550915E4560915F4570916045009139
:1035A0001245109113452091144530911545401B4B
:1035B000510B620B730B483E534061057105A8F433
:1035C00081E00E94A11881E080931E45109222455F
:1035D00010922145109212451092134510921445F5
:1035E0001092154510921D45BCC0882359F1909149
:1035F0002145992339F190911E45992319F180E0D5
:103600000E94A11810921E45109222451092214549
:1036100010921245109213451092144510921545C0
:1036200010921D4580911C45882309F49AC0109280
:103630001C4510921645109217451092184510928D
:1036400019458FC0882391F190911E4591112EC08C
:1036500090911F4591112AC090911D45911126C04E
:1036600090912145911122C040915D4550915E4558
:1036700060915F457091604500911245109113452E
:103680002091144530911545401B510B620B730B73
:10369000493E53406105710548F081E00E94A11840
:1036A00081E080931F4510921A455BC0909121459F
:1036B0009923F1F020911F452223D1F020911D453F
:1036C0002223B1F08823A1F080E00E94A11810927B
:1036D0001F45109221451092224510921D451092CF
:1036E000124510921345109214451092154539C099
:1036F000811106C0911104C080911D45882389F174
:1037000080911E4581112DC080911F45811129C0D6
:1037100080915D4590915E45A0915F45B091604577
:103720004091124550911345609114457091154593
:10373000841B950BA60BB70B893E9340A105B105E1
:1037400080F010921E45109212451092134510926F
:103750001445109215451092224510922145109261
:103760001D451F910F9108954F925F926F927F9226
:103770008F929F92AF92BF92CF92DF92EF92FF9281
:1037800080911B45882309F4D8C080911E45811182
:1037900004C0809142458823D1F080911C4581115D
:1037A00016C081E080931C4580915D4590915E45F7
:1037B000A0915F45B0916045809316459093174561
:1037C000A0931845B093194510921A45B6C0809140
:1037D0001C458823E1F140915D4550915E45609123
:1037E0005F4570916045C0901645D0901745E090B8
:1037F0001845F09019454C195D096E097F0941344F
:1038000057476B41710518F180E00E94A118109292
:103810001C451092164510921745109218451092AB
:10382000194510921E4510921245109213451092A0
:103830001445109215451092224510922145109280
:103840001D4581E080931A451092424576C0882339
:1038500009F473C0C0905D45D0905E45E0905F452F
:10386000F09060454090164550901745609018457F
:1038700070901945D701C60184199509A609B709A1
:1038800080349747AB41B10508F057C08090694537
:1038900090906A45A0906B45B0906C45A50194014D
:1038A00060916D4570916E4580916F459091704526
:1038B0000E94092D0E94ED2D9B01772324F42227DD
:1038C0003327261B370BB901330F880B990B0E9446
:1038D000252E209165453091664540916745509170
:1038E00068450E94D52E18166CF4C414D504E6045D
:1038F000F70441F0C0921645D0921745E092184562
:10390000F09219458091614590916245A09163457F
:10391000B0916445C81AD90AEA0AFB0A89EEC816AA
:1039200083E0D806E104F10440F080926D45909266
:103930006E45A0926F45B0927045FF90EF90DF907A
:10394000CF90BF90AF909F908F907F906F905F903F
:103950004F90089580912245882341F081E00E9494
:10396000A1181092224510921A4508958091214580
:10397000882329F080E00E94A11810922145089523
:1039800080914545882319F00E94B11A04C0811125
:1039900002C00E94AA1C0E948D1A08950E941B1149
:1039A00008958F929F92AF92BF92CF92DF92EF9243
:1039B000FF92CF93C0E018C082E00E942A1140918C
:1039C0002D4550912E4560912F4570913045480FFF
:1039D000591F611D711D40932D4550932E456093D5
:1039E0002F4570933045CF5FC43130F32C2F30E03A
:1039F00040E050E060912D4570912E4580912F451B
:103A0000909130450E94E02F20932D4530932E4514
:103A100040932F4550933045CA01B9010E94232E8F
:103A200023E333E343E550E40E942A2F20E030EF04
:103A30004FE755E40E947B2D6B017C0160933D456F
:103A400070933E4580933F459093404520E030E49D
:103A50004CE156E40E947B2D4B015C0160933145A3
:103A6000709332458093334590933445A701960176
:103A700063E373E383E590E40E94092DA5019401BB
:103A80000E947B2D60933545709336458093374572
:103A90009093384520E030E44CE156E40E947B2DC1
:103AA0000E94E22E23E931EA48E959E30E942A2FD5
:103AB0002FE03FEC4BE55BE30E940A2D9B01AC013C
:103AC00060E070E080E89FE30E947B2D23E333E910
:103AD00048E853E40E94092D6093394570933A45B4
:103AE00080933B4590933C45CF91FF90EF90DF90C2
:103AF000CF90BF90AF909F908F9008958FEB9DE5F2
:103B000080931C0B90931D0BE1E1FBE0808180838F
:103B1000E5E1FBE0808181608083E0E1FBE0808182
:103B20008160808308958FEB9DE580932C0B9093AB
:103B30002D0BE1E2FBE080818083E5E2FBE0808108
:103B400081608083E0E2FBE0808181608083089572
:103B50000E947E1D0E94931D08951F920F920FB622
:103B60000F9211240BB60F928F939F93AF93BF9335
:103B7000EF93FF938091160B80FF18C080915D45F5
:103B800090915E45A0915F45B09160450196A11D61
:103B9000B11D80935D4590935E45A0935F45B093C2
:103BA0006045E6E1FBE0808181608083FF91EF91D9
:103BB000BF91AF919F918F910F900BBE0F900FBE51
:103BC0000F901F9018951F920F920FB60F9211240D
:103BD0000BB60F920F931F932F933F934F935F93C7
:103BE0006F937F938F939F93AF93BF93EF93FF93C5
:103BF0004091594550915A4560915B4570915C45A3
:103C00004F5F5F4F6F4F7F4F4093594550935A45D9
:103C100060935B4570935C45809155459091564506
:103C2000A0915745B09158450196A11DB11D8093B3
:103C3000554590935645A0935745B09358450091EC
:103C400051451091524520915345309154450F5F95
:103C50001F4F2F4F3F4F00935145109352452093D4
:103C6000534530935445493E53406105710558F022
:103C700021E020934C451092594510925A451092DC
:103C80005B4510925C45893C9105A105B10558F052
:103C900081E080934B451092554510925645109205
:103CA000574510925845E6E2FBE0808181608083B1
:103CB000FF91EF91BF91AF919F918F917F916F9104
:103CC0005F914F913F912F911F910F910F900BBEDC
:103CD0000F900FBE0F901F901895109244451092B0
:103CE0001B45109241451092454510924345089559
:103CF00081E0809329458093284508950E94781E8D
:103D000080917D45882321F080917E45811104C0FA
:103D10000E949E110E946D1208958091154090910D
:103D20001640891749F081E0809329458093274503
:103D300080932845909315409091264580911B458E
:103D4000981729F08093264581E080931440809154
:103D50004C45882381F081E0809329458091454539
:103D6000811104C080912445811103C081E08093BA
:103D7000254510924C4580914B45882329F081E0E0
:103D80008093274510924B4508950F932AE044E015
:103D900060E080E00E94631508E32EE142E85DE107
:103DA00062E38EE10E94EB1200E328E042E55DE170
:103DB00064E68FE10E94EB120F9108950F932EE1BC
:103DC00046E060E080E00E942F1501E02EE14FE424
:103DD0006EE180E00E94FD142DE14FE46DE180E092
:103DE0000E94FD1400E022E743E36FE183E30E94B9
:103DF000FD1401E022E74FE462E780E00E94FD1439
:103E000023E74FE463E780E00E94FD140F910895DB
:103E10000F9300E02EE940E060E080E00E94CB14C8
:103E200001E020E04FE460E080E00E94FD1421E02A
:103E30004FE461E080E00E94FD1400E02EE94FE4D1
:103E400060E08FE40E94CB1401E02FE94FE46FE9BA
:103E500080E00E94FD142EE94FE46EE980E00E94AC
:103E6000FD140F910895EF92FF920F931F93CF933C
:103E7000DF93C82FD62F6091794570917A45809154
:103E80007B4590917C450E94ED2D9B012F3E82E069
:103E9000380744F01092794510927A4510927B458C
:103EA00010927C45EAE0F0E0C901BF010E94CC2FEE
:103EB000182FCB01BF010E94CC2FF82EC90164E658
:103EC00070E00E94CC2FE62E08E221E347EB5AE097
:103ED0006D2F8C2F0E94D213EF2C21E347EB5AE079
:103EE0006D2F8DE08C0F0E94D213E12E21E347EB62
:103EF0005AE06D2F8AE18C0F0E94D21380912845E1
:103F0000882351F002E32DE044E05DE16FE58FE1AD
:103F10000E94EB1210922845DF91CF911F910F91D3
:103F2000FF90EF900895EF92FF920F931F93CF931E
:103F3000DF93C82FD62F609175457091764580919B
:103F40007745909178450E94ED2D9B012F3E82E0B0
:103F5000380744F0109275451092764510927745D7
:103F600010927845EAE0F0E0C901BF010E94CC2F31
:103F7000182FCB01BF010E94CC2FF82EC90164E697
:103F800070E00E94CC2FE62E08E221E347EB5AE0D6
:103F90006D2F8C2F0E94D213EF2C21E347EB5AE0B8
:103FA0006D2F8DE08C0F0E94D213E12E21E347EBA1
:103FB0005AE06D2F8AE18C0F0E94D2138091284520
:103FC000882351F009E32DE049EA5CE16FE58FE1D8
:103FD0000E94EB1210922845DF91CF911F910F9113
:103FE000FF90EF900895EF92FF920F931F93CF935E
:103FF000DF93182FF62E6091714570917245809174
:104000007345909174450E94ED2DEB01072E000C35
:10401000880B990B0E94252E2AE037ED4FE151E4E1
:104020000E94D52E181644F41092714510927245D4
:104030001092734510927445CE016AE070E00E94C0
:10404000CC2FD62FC82FE12C08E221E347EB5AE012
:104050006F2D812F0E94D21309E026E041E45CE13C
:1040600065E580E10E94EB12ED2E08E221E347EBCB
:104070005AE06F2D8DE0810F0E94D213EC2E21E3C8
:1040800047EB5AE06F2D8AE1810F0E94D213809195
:104090002845882351F009E32EE047E45CE16FE511
:1040A0008FE10E94EB1210922845DF91CF911F9172
:1040B0000F91FF90EF9008950F931F93CF93DF938D
:1040C000C0E0D0E009C02AE030E040E050E00E94CB
:1040D0000230CA01B90121968B019C01075F1F4F75
:1040E0002F4F3F4F033111052105310560F7CE01F8
:1040F0000196DF91CF911F910F9108952F923F92DA
:104100004F925F926F927F928F929F92AF92BF92E7
:10411000CF92DF92EF92FF920F931F93CF93DF9393
:10412000562EF22E132F442EE52E682E712C622F60
:10413000732F842F952F0E945C205C011C0162E08C
:1041400070E00E944F304C01C12CD12C18C0E60108
:10415000CC0FDD1FC80DD91D6F2D712F842D9E2D05
:104160002AE030E040E050E00E940230688379832A
:10417000F22E132F442EE52E4FEFC41AD40AE50178
:104180002197CC16DD061CF3F101E150F048EE0F4B
:10419000FF1FE80DF91D8F2D912F80839183E02E55
:1041A000F12CAE14BF04B4F5B701660F771FC4013C
:1041B0000E948C314C010AC0F501EE0FFF1FE80D83
:1041C000F91D108211825FEFA51AB50AAE14BF0463
:1041D0009CF3E70121972AEFAE012403C001259F3C
:1041E000900D1124680E791E12C0FE01EE0FFF1F04
:1041F000E80DF91DE08008E128E144EE54E0652D6A
:10420000862D0E94D21356E0650E711C2197DD2386
:1042100064F71EC02AEFAE012403C001259F900D54
:104220001124680E791E12C0FE01EE0FFF1FE80D6B
:10423000F91DE08008E128E144EE54E0652D862D6B
:104240000E94D21356E0650E711C2197DD2364F79E
:10425000C4010E940331DF91CF911F910F91FF9014
:10426000EF90DF90CF90BF90AF909F908F907F9016
:104270006F905F904F903F902F900895DF92EF9254
:10428000FF920F931F93CF93DF93F82ED62EE42E39
:10429000022F061BD42FD81B10E013C0612F6D0D09
:1042A000262F4E2D8F2D0E942D12C0E007C080E0DA
:1042B0000E94C21180E00E94C211CF5FCD17B8F3F7
:1042C0001F5F101758F3DF91CF911F910F91FF904F
:1042D000EF90DF900895DF92EF92FF920F931F937C
:1042E000CF93DF93F82ED62EE42E022F061BD42F69
:1042F000D81B10E013C0612F6D0D262F4E2D8F2D72
:104300000E942D12C0E007C08FEF0E94C2118FEFF4
:104310000E94C211CF5FCD17B8F31F5F101758F37B
:10432000DF91CF911F910F91FF90EF90DF90089553
:104330002DE142E060E080E00E946B2108950F9340
:1043400026E946E460E080E00E9463150E9498211F
:104350000E94081F0E94DE1E1092794510927A4535
:1043600010927B4510927C456AE286E00E94331FE2
:10437000809111409091124080930545909306459D
:1043800081E08093044508E221E34DE158E168E2D1
:1043900085E30E94EB1221E342E159E168E282E405
:1043A0000E94EB122FE04FE65BE16FE582E40E9492
:1043B000EB122FEF82E597E0215080409040E1F72B
:1043C00000C000000F9108950F931F93CF93DF93C8
:1043D00027EE32E442ED5DE36091794570917A45D4
:1043E00080917B4590917C450E942A2F0E94F42D5C
:1043F000162F072FC62FD02F80910640909107408F
:104400008C179D0788F4CD34D10510F0CCE4D0E0B2
:104410004C2F4E5F2DE162E08E5F0E946B21C093B6
:104420000640D093074011C0C817D90770F442E086
:10443000480F2DE162E082E0810F0E943E21812F32
:10444000902F8093064090930740DF91CF911F916A
:104450000F9108950F930E948D1E80912945882306
:10446000E9F080911640823049F0833061F081306C
:1044700079F46AE286E00E94331F0EC06AE286E0A9
:104480000E94931F09C06AE286E00E94F31F04C0E5
:104490006AE286E00E94331F1092294580912745E9
:1044A000882321F00E94E421109227458091144036
:1044B000882339F180911B45882391F08FEF91E497
:1044C0000E940710E0E2F4E08481806284830AE2C3
:1044D0002BE14AEB5BE168E78CE30E94EB120FC033
:1044E00089E192E40E940710E0E2F4E084818F7D8C
:1044F000848326E94DE468E78CE30E9463151092FB
:10450000144080911B45882309F449C080911A45C5
:10451000882309F444C080914D4590914E452091E7
:104520005D4530915E45821B930B9C0122F422274E
:104530003327281B390B293E33408CF190914A4593
:1045400081E0892780934A45882361F0E0E2F4E026
:1045500084818F7D848326E94DE468E78CE30E94A3
:1045600063150DC0E0E2F4E08481806284830AE296
:104570002BE14AEB5BE168E78CE30E94EB12809150
:104580005D4590915E45A0915F45B09160458093F7
:104590004D4590934E45A0934F45B0935045809123
:1045A0002545882309F457C080914545882309F49F
:1045B00042C0E0E4F4E08481846084838091FE441E
:1045C0009091FF4401968093FE449093FF4403979B
:1045D00024F01092FE441092FF448091FE4490918A
:1045E000FF448130910571F082309105A1F0892B53
:1045F000D9F408E228E147EF5AE16AE787E00E9430
:10460000EB1216C008E228E14FE75AE16AE787E0BB
:104610000E94EB120DC008E228E147E05AE16AE788
:1046200087E00E94EB1204C01092FE441092FF44F7
:10463000109224450EC0E0E4F4E084818B7F8483F3
:1046400026E94EE168E787E00E94631581E08093E8
:1046500024451092254580912B45811104C08091FD
:104660002A45882341F000E22AE144E55EE16CE757
:1046700084E20E94EB120F910895E0E0F4E0808163
:104680008160808380818260808380898860808B64
:10469000E0E0FAE084EE9CE086A397A310A611A6C2
:1046A00010A211A2818180618183818183608183D5
:1046B00080818160808380818260808308959DE90C
:1046C00094BF8093001008951F93CF93DF93EC0164
:1046D000162F8091021081FDFCCF83E190E00E94B3
:1046E0005F23DC5E188380E090E00E945F23DF910F
:1046F000CF911F910895209102100E948132089558
:10470000AF92BF92CF92DF92EF92FF920F931F93DF
:10471000CF93DF9381E090E00E947B23A82E83E07B
:1047200090E00E947B2391E0811101C090E0909382
:104730007D4500E0C12CD12C7601B12C6DC081E00B
:104740000E946A116093794570937A4580937B4506
:1047500090937C4580918145882379F080917F45B5
:1047600090918045019680937F459093804510926B
:10477000814584E392E40E940710209179453091AD
:104780007A4540917B4550917C45C701B6010E9416
:10479000762D811106C084E492E40E9407101F5F09
:1047A00005C08FE592E40E94071010E0C0907945A3
:1047B000D0907A45E0907B45F0907C45219603C0EF
:1047C000C0E0D0E010E0CA30D1050CF4B8CF809141
:1047D0007F4590918045049714F4163040F00E9474
:1047E000541A0F5F10927F451092804515C01092A9
:1047F0007F451092804510927D4560E081E090E019
:104800000E94642360917D4583E090E00E946423D0
:1048100000E0BB24B394A12CB11002C0033080F29D
:10482000033088F161E06A0D81E080937D4581E08D
:1048300090E00E94642360917D4583E090E00E94B7
:1048400064238FE295E70197F1F700C000006091C3
:10485000454582E090E00E94642360911B4586E01C
:1048600090E00E94642361E085E090E00E94642370
:104870008FE295E70197F1F700C0000061E081E465
:1048800090E00E949032DF91CF911F910F91FF90A5
:10489000EF90DF90CF90BF90AF90089580E00E949E
:1048A000A1180E944C1A0E94C51E0E94541A0E9410
:1048B0008023089585E090E00E947B2391E08111A0
:1048C00001C090E090937E4560E085E090E00E941A
:1048D000642383E090E00E947B2391E0811101C07A
:1048E00090E090937D45992341F082E090E00E9412
:1048F0007B2386E090E00E947B23089520910210A4
:104900000E9489320895CF92DF92EF92FF920F9327
:1049100085E190E00E947E24611527E9720729E471
:10492000820721E0920720F021E020932B4502C06E
:1049300010922B450F2EF0E8CF2EFEEEDF2EF6E381
:10494000EF2EF12CF02DA70196010E94E02F04E03C
:104950006BE286E40E947E2081E190E00E947E244A
:10496000A70196010E94E02F67E686E40E947E2060
:104970000F91FF90EF90DF90CF900895AF92BF928C
:10498000CF92DF92EF92FF920F931F93CF93DF931B
:10499000EC016A017B015C018FEFA81AB80A642F51
:1049A000CE010E9464236D2D8E010E5F1F4FC50145
:1049B0000E9464236E2D2396C8010E9464236F2DEC
:1049C000772788279927CE010E946423DF91CF9112
:1049D0001F910F91FF90EF90DF90CF90BF90AF901D
:1049E0000895CF92DF92EF92FF920F93C0905D45B2
:1049F000D0905E45E0905F45F090604584C0E0E473
:104A0000F4E0808580748087882309F47CC0E0E826
:104A1000F4E0808584708087882309F474C026E9D7
:104A200040E560E080E00E94631500E324E14CE68D
:104A300054E069E485E00E94EB1200E42EE14CE7CB
:104A400053E069E486E10E94EB1208E12EE142E2C4
:104A500053E069E48AE20E94EB1200E42EE142E3B3
:104A600052E069E482E30E94EB122EE142E451E05D
:104A70006DE586E00E94EB120E946D1E8091444518
:104A8000811110C090911B4591110CC0909141452E
:104A9000911108C090914545911104C090914345F2
:104AA000992361F390914545992369F11092454509
:104AB00081110CC090911B45911108C09091414506
:104AC000911104C090914345992391F38091414500
:104AD0008823C9F01092414540E050E0BA0185E1D9
:104AE00090E00E94BE248CE792E40E94071010928E
:104AF0002B4526E940E560E080E00E9463150E94B6
:104B00009B250E946D1E80915D4590915E459601AA
:104B1000281B390BC901813630EF930724F0803A06
:104B20009F400CF46CCF0E946D1E0F91FF90EF9090
:104B3000DF90CF9008950F9326E946E460E080E08F
:104B40000E94631500E42EE144E959E06BE281E044
:104B50000E94EB1200E32EE140EE58E06BE287E1A9
:104B60000E94EB122EE14CE258E067E681E00E94E1
:104B7000EB1200E22EE144EB57E067E681E10E9490
:104B8000EB1200E32EE140EE58E067E68CE10E9474
:104B9000EB120E9483240E94F12426E940E560E0A4
:104BA00080E00E9463150F910895CF92DF92EF92FB
:104BB000FF920F931F9380915D4590915E45A09168
:104BC0005F45B09160450091464510914745209161
:104BD000484530914945BC01CD01601B710B820BEA
:104BE000930B0E94461080915D4590915E45A09187
:104BF0005F45B09160454091464550914745609171
:104C0000484570914945841B950BA60BB70B813C19
:104C10009742A940B10508F463C080910C458823F0
:104C200009F45EC084E992E40E94071081E190E0FB
:104C30000E947E246B017C0180ED92E40E940710AB
:104C4000C701B6010E94461080ECC80E87E2D81E4C
:104C500089E0E81EF11CC701B6010E944610B701A9
:104C6000A60181E190E00E94BE2481E190E00E94D3
:104C70007E240E94461085E190E00E947E246B0114
:104C80007C0120ECC20E27E2D21E29E0E21EF11CBC
:104C9000C701B6010E944610B701A60185E190E068
:104CA0000E94BE24C11487E9D80689E4E80681E0A1
:104CB000F80620F081E080932A4502C010922A4530
:104CC00080915D4590915E45A0915F45B0916045B2
:104CD0008093464590934745A0934845B0934945F6
:104CE0001F910F91FF90EF90DF90CF9008951F924A
:104CF0000F920FB60F9211240BB60F928F93EF9372
:104D0000FF938091A90482FF12C0809145458823BA
:104D100019F01092454503C081E08093454581E03C
:104D200080930E45E0EAF4E0818584608187FF91FD
:104D3000EF918F910F900BBE0F900FBE0F901F90B1
:104D400018951F920F920FB60F9211240BB60F9267
:104D50002F933F934F935F936F937F938F939F9383
:104D6000AF93BF93EF93FF938091490486FF4BC0AD
:104D70008091444581111CC080915D4590915E45B4
:104D8000A0915F45B091604540910745509108451D
:104D90006091094570910A45841B950BA60BB70BD2
:104DA0008B3F9105A105B10518F081E08093444542
:104DB0008091480486FF14C081E080930D45809166
:104DC0005D4590915E45A0915F45B09160458093AF
:104DD000074590930845A0930945B0930A450EC036
:104DE0008091480486FD0AC010920745109208453C
:104DF0001092094510920A4510920D45E0E4F4E046
:104E00008185806481878091490488230CF04DC09E
:104E100080914545882389F18091224581111BC0ED
:104E2000909148049923BCF481E00E94A1188091DC
:104E30005D4590915E45A0915F45B091604580933E
:104E4000124590931345A0931445B093154581E006
:104E50008093224525C0882319F180914804882336
:104E6000FCF080E00E94A11880911D458F5F809327
:104E70001D4581E08093214513C080912245811119
:104E800008C080914804882324F481E0809322455F
:104E900007C08091480488231CF081E0809321455D
:104EA000E0E4F4E08185806881878091490483FF94
:104EB00008C081E080932045E0E4F4E081858860CB
:104EC0008187FF91EF91BF91AF919F918F917F91DA
:104ED0006F915F914F913F912F910F900BBE0F906B
:104EE0000FBE0F901F9018951F920F920FB60F9242
:104EF00011240BB60F922F933F934F935F936F93B1
:104F00007F938F939F93AF93BF93EF93FF93809182
:104F1000890481FF0AC081E080934145809313405A
:104F2000E0E8F4E08185826081878091890482FFD6
:104F300012C080911B45882319F010921B4503C0B5
:104F400081E080931B4581E080930F45E0E8F4E029
:104F50008185846081878091890480FF0CC088EE00
:104F600092E40E94071081E080934345E0E8F4E07A
:104F7000818581608187FF91EF91BF91AF919F9172
:104F80008F917F916F915F914F913F912F910F90F2
:104F90000BBE0F900FBE0F901F90189510921340EC
:104FA00087E093E40E9407108DE393E40E942810A9
:104FB0006091034570E080E090E00E9446108DE42F
:104FC00093E40E9428106091024570E080E090E038
:104FD0000E9446108DE593E40E94281060910145DF
:104FE00070E080E090E00E9446108DE693E40E941D
:104FF00028106091004570E080E090E00E9446102B
:105000004AC480910F45882309F469C08091044502
:10501000882309F464C08DE793E40E94071080910F
:105020000B458F5F80930B45863018F081E08093AD
:105030000B4580910B458230B9F018F4813031F086
:105040003DC08330F9F0843059F138C0E0E0FAE037
:1050500080818160808380E996E080A791A780931A
:1050600011409093124030C0E0E0FAE0808181600E
:10507000808382EC96E080A791A780931140909363
:10508000124022C0E0E0FAE080818160808384EFFA
:1050900096E080A791A7809311409093124014C08E
:1050A000E0E0FAE080818160808386E297E080A77B
:1050B00091A7809311409093124006C080E996E03A
:1050C000809311409093124010920F4580911140AF
:1050D0009091124080931045909311456DC080913E
:1050E0000E45882309F468C080910445882309F49B
:1050F00063C088E993E40E94071080910B458F5F9D
:1051000080930B45863018F081E080930B458091A9
:105110000B458230B9F018F4813031F03DC0833056
:10512000F9F0843059F138C0E0E0FAE08081816024
:10513000808380E996E080A791A7809311409093A7
:10514000124030C0E0E0FAE08081816080838EE52B
:1051500096E080A791A7809311409093124022C0BF
:10516000E0E0FAE08081816080838CE296E080A7B5
:1051700091A7809311409093124014C0E0E0FAE0B0
:105180008081816080838AEF95E080A791A78093DA
:1051900011409093124006C080E996E08093114040
:1051A0009093124010920E458091114090911240C0
:1051B000809310459093114580910F45882309F401
:1051C00069C080910345882309F464C083EB93E4AC
:1051D0000E94071080910B458F5F80930B458630AE
:1051E00018F081E080930B4580910B458230B9F037
:1051F00018F4813031F03DC08330F9F0843059F13A
:1052000038C0E0E0FAE08081816080838EE997E039
:1052100080A791A780930F409093104030C0E0E0AA
:10522000FAE080818160808380ED97E080A791A77C
:1052300080930F409093104022C0E0E0FAE080811C
:105240008160808382E098E080A791A780930F40DF
:105250009093104014C0E0E0FAE080818160808388
:1052600084E398E080A791A780930F40909310402B
:1052700006C08EE997E080930F4090931040109203
:105280000F4580910F40909110408093104590936E
:10529000114501C380910E45882309F469C08091AE
:1052A0000345882309F464C08EEC93E40E94071040
:1052B00080910B458F5F80930B45863018F081E01D
:1052C00080930B4580910B458230B9F018F4813002
:1052D00031F03DC08330F9F0843059F138C0E0E05E
:1052E000FAE08081816080838EE997E080A791A7B2
:1052F00080930F409093104030C0E0E0FAE080814E
:10530000816080838CE697E080A791A780930F400F
:105310009093104022C0E0E0FAE0808181608083B9
:105320008AE397E080A791A780930F409093104065
:1053300014C0E0E0FAE080818160808388E097E03B
:1053400080A791A780930F409093104006C08EE9EC
:1053500097E080930F409093104010920E458091FB
:105360000F4090911040809310459093114593C247
:1053700080910F45882309F469C0809102458823F4
:1053800009F464C089EE93E40E94071080910B45F4
:105390008F5F80930B45863018F081E080930B453A
:1053A00080910B458230B9F018F4813031F03DC066
:1053B0008330F9F0843059F138C0E0E0FAE08081C0
:1053C000816080838CEF98E080A791A780930D4047
:1053D00090930E4030C0E0E0FAE0808181608083ED
:1053E0008EE299E080A791A780930D4090930E40A4
:1053F00022C0E0E0FAE080818160808380E699E06D
:1054000080A791A780930D4090930E4014C0E0E0D8
:10541000FAE080818160808382E999E080A791A78A
:1054200080930D4090930E4006C08CEF98E08093DF
:105430000D4090930E4010920F4580910D40909139
:105440000E40809310459093114525C280910E45E2
:10545000882309F469C080910245882309F464C057
:1054600085E094E40E94071080910B458F5F809344
:105470000B45863018F081E080930B4580910B45F9
:105480008230B9F018F4813031F03DC08330F9F04A
:10549000843059F138C0E0E0FAE080818160808397
:1054A0008CEF98E080A791A780930D4090930E40D9
:1054B00030C0E0E0FAE08081816080838AEC98E08F
:1054C00080A791A780930D4090930E4022C0E0E00A
:1054D000FAE080818160808388E998E080A791A7C5
:1054E00080930D4090930E4014C0E0E0FAE080817C
:1054F0008160808386E698E080A791A780930D4025
:1055000090930E4006C08CEF98E080930D409093EE
:105510000E4010920E4580910D4090910E40809368
:10552000104590931145B7C180910F45882309F428
:1055300069C080910145882309F464C081E294E444
:105540000E94071080910B458F5F80930B4586303A
:1055500018F081E080930B4580910B458230B9F0C3
:1055600018F4813031F03DC08330F9F0843059F1C6
:1055700038C0E0E0FAE08081816080838EEB9AE0C1
:1055800080A791A780930B4090930C4030C0E0E03F
:10559000FAE080818160808380EF9AE080A791A704
:1055A00080930B4090930C4022C0E0E0FAE08081B1
:1055B0008160808382E29BE080A791A780930B406B
:1055C00090930C4014C0E0E0FAE080818160808319
:1055D00084E59BE080A791A780930B4090930C40BB
:1055E00006C08EEB9AE080930B4090930C40109293
:1055F0000F4580910B4090910C4080931045909303
:10560000114549C180910E45882309F469C08091F4
:105610000145882309F464C08DE394E40E940710D7
:1056200080910B458F5F80930B45863018F081E0A9
:1056300080930B4580910B458230B9F018F481308E
:1056400031F03DC08330F9F0843059F138C0E0E0EA
:10565000FAE08081816080838EEB9AE080A791A739
:1056600080930B4090930C4030C0E0E0FAE08081E2
:10567000816080838CE89AE080A791A780930B409B
:1056800090930C4022C0E0E0FAE08081816080834A
:105690008AE59AE080A791A780930B4090930C40F5
:1056A00014C0E0E0FAE080818160808388E29AE0C3
:1056B00080A791A780930B4090930C4006C08EEB7F
:1056C0009AE080930B4090930C4010920E4580918D
:1056D0000B4090910C408093104590931145DBC096
:1056E00080910F45882309F469C080910045882383
:1056F00009F464C089E594E40E94071080910B4589
:105700008F5F80930B45863018F081E080930B45C6
:1057100080910B458230B9F018F4813031F03DC0F2
:105720008330F9F0843059F138C0E0E0FAE080814C
:105730008160808382EB9CE080A791A780930940E1
:1057400090930A4030C0E0E0FAE08081816080837D
:1057500084EE9CE080A791A78093094090930A4033
:1057600022C0E0E0FAE080818160808386E19DE0F4
:1057700080A791A78093094090930A4014C0E0E06D
:10578000FAE080818160808388E49DE080A791A712
:105790008093094090930A4006C082EB9CE080937E
:1057A000094090930A4010920F45809109409091D2
:1057B0000A4080931045909311456DC080910E452D
:1057C000882309F468C080910045882309F463C0E8
:1057D00085E794E40E94071080910B458F5F8093CA
:1057E0000B45863018F081E080930B4580910B4586
:1057F0008230B9F018F4813031F03DC08330F9F0D7
:10580000843059F138C0E0E0FAE080818160808323
:1058100082EB9CE080A791A78093094090930A4077
:1058200030C0E0E0FAE080818160808380E89CE025
:1058300080A791A78093094090930A4022C0E0E09E
:10584000FAE08081816080838EE49CE080A791A74C
:105850008093094090930A4014C0E0E0FAE0808110
:10586000816080838CE19CE080A791A780930940B0
:1058700090930A4006C082EB9CE08093094090938D
:105880000A4010920E458091094090910A40809301
:1058900010459093114580911340882309F4B1CBB2
:1058A000109213402BE94BE46AE787E30E946315EB
:1058B0006091104570911145072E000C880B990BD3
:1058C0000E94461010920D45109204451092034517
:1058D00010920245109201451092004581E994E42E
:1058E0000E940710809110459091114508950F93E3
:1058F00080910D45882389F180915D4590915E45A9
:10590000A0915F45B0916045409107455091084591
:105910006091094570910A45841B950BA60BB70B46
:10592000893B9B40A105B105C0F088EA94E40E9440
:10593000071009E121E144E85AE062E88CE30E94A3
:10594000EB120E94CE271092074510920845109244
:10595000094510920A4510920D450F910895F8944B
:1059600095E288ED84BF909368000E94A81D80E8AE
:1059700095E20E94D50FE0E4F4E0808180618083AD
:1059800084818F7E8483C0E2D4E0888181608883B3
:105990000E943D230E9451108881816088838C8100
:1059A0008E7F8C83E0E8F4E08081886080830E94B1
:1059B00037110E945A240E94CE1C0E9490150E940A
:1059C0007E1E0E94801A0E944E242FEF82E597E0EF
:1059D000215080409040E1F700C0000078940E9480
:1059E0009B250E949F2189EB94E40E94071082E38B
:1059F0000E9438190E9431190E94C01C0E94D11CBB
:105A00000E942A220E94B41B0E94772C0E94D52556
:105A1000EECF5058BB27AA270E94212D0C949B2E15
:105A20000E948D2E38F00E94942E20F039F49F3F72
:105A300019F426F40C948A2E0EF4E095E7FB0C94EE
:105A4000842EE92F0E94AC2E58F3BA176207730711
:105A50008407950720F079F4A6F50C94CE2E0EF469
:105A6000E0950B2EBA2FA02D0B01B90190010C016E
:105A7000CA01A0011124FF27591B99F0593F50F486
:105A8000503E68F11A16F040A22F232F342F4427DE
:105A9000585FF3CF469537952795A795F0405395D6
:105AA000C9F77EF41F16BA0B620B730B840BBAF0A6
:105AB0009150A1F0FF0FBB1F661F771F881FC2F711
:105AC0000EC0BA0F621F731F841F48F48795779525
:105AD0006795B795F7959E3F08F0B0CF9395880FDF
