:100000000C94310F0C94500F0C94500F0C94500F13
:100010000C94500F0C94500F0C94500F0C94500FE4
:100020000C94500F0C94500F0C94500F0C94500FD4
:100030000C94500F0C94571A0C94500F0C94500FB2
:100040000C94500F0C94500F0C94500F0C94500FB4
:100050000C94500F0C94500F0C94500F0C94500FA4
:100060000C94500F0C94500F0C94500F0C94500F94
:100070000C94500F0C947E260C948D1A0C94500FF7
:100080000C94500F0C94500F0C9454260C94500F59
:100090000C94500F0C94500F0C94500F0C94500F64
:1000A0000C94500F0C94500F0C94500F0C94500F54
:1000B0000C94500F0C9455270C94500F0C94500F27
:1000C0000C94500F0C94500F0C94500F0C94500F34
:1000D0000C94500F0C94500F0C94500F0C94500F24
:1000E0000C94500F0C94500F000000000000000012
:1000F0000000000000000000000000000000000000
:10010000FE3F3FDFEFF7F306FF7FBFDFEFF7FB8632
:10011000C36186030C061BC6C36186030C061BC69F
:10012000C36186030C061BE6C36186030C061B66CF
:10013000FF7F86030FC7FB76FE7F86030FC7F3366C
:10014000C06186030C07833EC06186030C06C31E94
:10015000C06186030C06631EC06186030C06330E65
:10016000C06186030FF61B0EC06186030FF60B06F7
:10017000000000000000000000000000000000007F
:10018000000000000000000000000000000000006F
:10019000000000000000000000000000000000005F
:1001A000000000000000000000000000000000004F
:1001B000000000000000000000000000000000003F
:1001C000000000000000000000000000000000002F
:1001D000000000000000000000000000000000001F
:1001E000000000000000000000000000000000000F
:1001F0003F1F8FE7E7F9F9807FBFDFEFF7FBFD8057
:1002000061B0D80C30C30D806030D80C00C30D80B5
:100210006030D80C00C30D806030D80C00C30D8056
:100220007F3FDF8C00C3FD803FBF9F8C00C3FD80FC
:1002300001B0180C00C30D8001B0180C00C30D8074
:1002400001B0180C00C30D8061B0180C30C30D80D4
:100250007FB01FEFF7FB0DFE3F300FE7E7FB0DFE12
:10026000000000000000000000000000000000008E
:10027000000000000000000000000000000000007E
:10028000000000000000000000000000000000006E
:10029000000000000000000000000000000000005E
:1002A000000000000000000000000000000000004E
:1002B000000000000000000000000000000000003E
:1002C000000000000000000000000000000000002E
:1002D000003FD8303FDC30061E30061E30061F308F
:1002E000061B30061BB00619B00619F00618F006FA
:1002F00018F00618703FD8703FD83000000000009A
:1003000000000000000000000000000000000000ED
:1003100000000000000000000000000000000000DD
:1003200000000000000000000000000000000000CD
:10033000000000000000000000003F9837FBFCFCBC
:10034000C1803FD837FBFDFEE18030D830C06186E8
:10035000F18030D830C06186F18030D830C06186FD
:10036000F98030D830C06186D9803F9830C061862E
:10037000DD803F9830C06186CD8030D830C0618646
:10038000CF8030D830C06186C78030D830C0618619
:10039000C78030D830C06186C3803FDFF0C061FEC7
:1003A000C3803F8FE0C060FCC180000000000000FF
:1003B000000000000000000000000000000000003D
:1003C000000000000000000000000000000000002D
:1003D000000000000000000000000000000000001D
:1003E000000000000000000000000000000000000D
:1003F00000000000000000000000000000000000FD
:1004000000000000000000000000000000000000EC
:1004100000000000000000000000000000000000DC
:10042000000000007F3F9FE7E3F07FBFDFEFF7F8BA
:1004300061B0D80C361861B0D80C060061B0D80C89
:10044000060061B0D80C06007FBFDF8FE7F07F3F6A
:100450009F87F7F8603C1800301860361800301895
:100460006033180030186031980C36186030DFEFB8
:10047000F7F860305FEFE3F00000000000000000DC
:10048000000000000000000000003FFC007FFE00B4
:10049000FFFF00FFFF00F00F00F00F00F00F00F073
:1004A0000F00F00F00F00F00F00F00F00F00F00F42
:1004B00000F00F00F00F00F00F00F00F00F00F0041
:1004C000F00F00F00F00FFFF00FFFF007FFE003F76
:1004D000FC0003F00007F0000FF0000FF0000FF039
:1004E000000FF0000FF00001F00001F00001F0003B
:1004F00001F00001F00001F00001F00001F0000146
:10050000F00001F00001F00001F00001F0000FFE2A
:10051000000FFE000FFE000FFE003FFC007FFE00FC
:10052000FFFF00FFFF00F00F00F00F00000F0000C2
:100530000F00000F00000F003FFF007FFF00FFFED5
:1005400000FFFC00F00000F00000F00000F00000F0
:10055000F00000F00000FFFF00FFFF007FFF003F02
:10056000FF003FFC007FFE00FFFF00FFFF00F00FD9
:1005700000F00F00000F00000F00000F00000F0040
:100580001FFF001FFF001FFF001FFF00000F0000E4
:100590000F00000F00000F00F00F00F00F00FFFF32
:1005A00000FFFF007FFE003FFC00007C0000FC001D
:1005B00000FC0001FC0003FC0003FC0007FC000F32
:1005C000FC000FBC001F3C003F3C003E3C007C3C5C
:1005D00000FC3C00F83C00FFFF00FFFF00FFFF00B5
:1005E000FFFF00003C00003C00003C00003C00001D
:1005F0003C00FFFF00FFFF00FFFF00FFFF00F000D7
:1006000000F00000F00000F00000FFFC00FFFE0022
:100610007FFF003FFF00000F00000F00000F0000F1
:100620000F00000F00F00F00F00F00F00F00FFFFB1
:1006300000FFFF007FFE003FFC003FFC007FFE004C
:10064000FFFF00FFFF00F00F00F00F00F00000F0D0
:100650000000F00000F00000FFFC00FFFE00FFFFC4
:1006600000FFFF00F00F00F00F00F00F00F00F0090
:10067000F00F00F00F00FFFF00FFFF007FFE003FC4
:10068000FC00FFFF00FFFF00FFFF00FFFF00F01F67
:1006900000F01F00F03F00003E00003E00007C0024
:1006A000007C0000FC0000F80000F80001F00001F0
:1006B000F00003F00003E00003E00007C00007C003
:1006C000000FC0000F80000F80003FFC007FFE0085
:1006D000FFFF00FFFF00F00F00F00F00F00F00F031
:1006E0000F00F00F00F00F007FFE003FFC003FFC0A
:1006F000007FFE00F00F00F00F00F00F00F00F0081
:10070000F00F00F00F00FFFF00FFFF007FFE003F33
:10071000FC003FFC007FFE00FFFF00FFFF00F00F2A
:1007200000F00F00F00F00F00F00F00F00F00F00CE
:10073000FFFF00FFFF007FFF003FFF00000F0000F2
:100740000F00000F00F00F00F00F00F00F00FFFF90
:1007500000FFFF007FFE003FFC00000000000000E3
:100760000000000000001F986C183FD86E1830D8A9
:100770006F1830D86F1830D86F9830D86D983FD830
:100780006DD83F986CD83C186CD836186C783318F4
:100790006C7831986C3830DFEC38304FCC38000052
:1007A0000000000000000000000000000000000049
:1007B0000000000000000000000000000000000039
:1007C0000000000000000000000000000000000029
:1007D0000000000000000000000000000000000019
:1007E000000000007F9F9FE7E6007FBFDFEFF6007D
:1007F0000C30C30C36000C30C30C36000C30C30C6C
:1008000036000C30C30C36000C30C30FF6000C3031
:10081000C30FF6000C30C30C36000C30C30C36008E
:100820000C30C30C36000C30C30C36000C3FC30C2C
:1008300037F80C1F830C37F80000000000000000A0
:1008400000000000000000000000000000000000A8
:100850000000000000000000000000000000000098
:100860000000000000000000000000000000000088
:100870000000000000000000000000000000000078
:100880000000000000000000000000000000000068
:10089000000000000000000030CFCC33F1F830DF62
:1008A000EC37FBFC30D86C361B0C30D86C361B0098
:1008B00030D86C361B0030D86C361B003FD86C37F4
:1008C000FBF83FD86C37F1FC30D86C37800C30D84F
:1008D0006C36C00C30D86C36600C30D86C36330CAB
:1008E00030DFEFF61BFC30CFC7E609F80000000050
:1008F00000000000000000000000000000000000F8
:1009000000000000000000000000000000000000E7
:1009100000000000000000000000000000000000D7
:1009200000000000000000000000000000000000C7
:1009300000000000000000000000000000000000B7
:1009400000000000000000000000000000000000A7
:1009500000003F1FCFCC37F9F9FE7FBFDFEC37FB3C
:10096000FDFE61B0186C30C30D806030186C30C370
:1009700001806030186C30C301806030186C30C367
:1009800001807F3F1FEC30C301F83FBF1FCE70C313
:1009900001F801B01E0E70C3018001B01B07E0C357
:1009A000018001B01987E0C3018061B018C3C0C3E2
:1009B0000D807FBFD863C7FBFDFE3F1FD82187F99D
:1009C000F9FE000000000000000000000000000030
:1009D0000000000000000000000000000000000017
:1009E0000000000000000000000000000000000007
:1009F00000000000000000000000000000000000F7
:100A000000000000000000000000000000000000E6
:100A100000000000000000000000000000000000D6
:100A2000000000000000000000000000000FF800BF
:100A30001FFC00180C00180C001800001800001F04
:100A4000F0000FF800001C00000C00180C00180C3F
:100A5000001C1C001FFC000FF80000000007FFFF37
:100A600080001FFFFFE0003FFFFFF0007FFFFFF867
:100A7000007FFFFFF800FFFFFFFC00FFFFFFFC000F
:100A8000FFFFFFFC00FFE01FFC00FFC00FFC00FFAA
:100A90008007FC00FF8007FC00FF8007FC00FF8050
:100AA00007FC00FF8007FC00FF8007FC00FF8007B9
:100AB000FC00FF8007FC00FF8007FC00FF8007FCB4
:100AC00000FF8007FC00FF8007FC00FF8007FC00A0
:100AD000FF8007FC00FF8007FC00FF8007FC00FF91
:100AE0008007FC00FF8007FC00FF8007FC00FF8000
:100AF00007FC00FF8007FC00FF8007FC00FF800769
:100B0000FC00FF8007FC00FF8007FC00FF8007FC63
:100B100000FF8007FC00FF8007FC00FF8007FC004F
:100B2000FFC00FFC00FFE01FFC00FFFFFFFC00FF09
:100B3000FFFFFC00FFFFFFFC007FFFFFF8007FFFCF
:100B4000FFF8003FFFFFF0001FFFFFE00007FFFF7F
:100B500080000003FE00000007FE0000000FFE0002
:100B600000000FFE0000001FFE0000003FFE00001E
:100B7000007FFE000000FFFE000001FFFE000003FA
:100B8000FFFE000007FFFE000007FFFE000007FF5A
:100B9000FE000007FFFE000007FBFE000007F3FE5B
:100BA000000007E3FE000007C3FE00000783FE000D
:100BB000000703FE00000003FE00000003FE00002B
:100BC0000003FE00000003FE00000003FE00000022
:100BD00003FE00000003FE00000003FE000000030F
:100BE000FE00000003FE00000003FE00000003FE04
:100BF00000000003FE00000003FE00000003FE00F2
:100C0000000003FE00000003FE00000003FE0000E1
:100C10000003FE00000003FE00000003FE00000FC2
:100C2000FFFFFF000FFFFFFF000FFFFFFF000FFFA1
:100C3000FFFF000FFFFFFF000FFFFFFF000FFFFF91
:100C4000FF000FFFFFFF00000FFF8000003FFFE0ED
:100C500000007FFFF80000FFFFFC0001FFFFFE0027
:100C600003FFFFFF0007FFFFFF8007FFFFFFC00F2D
:100C7000FC03FFC00FF801FFE01FF000FFE01FF0D2
:100C8000007FE01FF0007FE01FF0007FE01FF0001A
:100C90007FE01FF0007FE0000000FFE0000001FFA8
:100CA000C0000003FFC0000007FFC000000FFF806E
:100CB00000001FFF0000003FFF0000007FFE00005B
:100CC00000FFFC000001FFF8000003FFF000000738
:100CD000FFE000000FFFC000001FFF8000003FFF8B
:100CE0000000007FFE000000FFFC000001FFF80094
:100CF0000003FFF0000007FFE000000FFFC000004E
:100D00001FFF8000001FFF0000003FFE0000003FAB
:100D1000FC0000003FFFFFFFE03FFFFFFFE03FFF61
:100D2000FFFFE03FFFFFFFE03FFFFFFFE03FFFFF70
:100D3000FFE03FFFFFFFE03FFFFFFFE0003FFFC09E
:100D40000000FFFFF00001FFFFF80003FFFFFE00BF
:100D500007FFFFFF000FFFFFFF800FFFFFFFC00F28
:100D6000F001FFC00FC000FFC00FC0007FC00FC068
:100D7000007FC00F80003FC00000003FC0000000A7
:100D80003FC00000003FC00000003FC00000007FE7
:100D9000C00000007FC0000000FFC0000003FFC0D3
:100DA000003FFFFF80007FFFFF00007FFFFC00008F
:100DB0007FFFF000007FFFFF00007FFFFF80007FCC
:100DC000FFFFC0003FFFFFC0000003FFC0000001A5
:100DD000FFC00000007FC00000007FC00000003F97
:100DE000C00000003FC00000003FC00000003FC046
:100DF0000000003FC00F80003FC00FC0007FC00F49
:100E0000C0007FC00FC000FFC00FF001FFC00FFF88
:100E1000FFFF800FFFFFFF0007FFFFFF0003FFFF43
:100E2000FE0001FFFFFC0000FFFFF000003FFFC0DD
:100E300000000003FE00000007FE0000000FFE009F
:100E400000001FFE0000003FFE0000007FFE0000CB
:100E500000FFFE000001FFFE000003FFFE00000790
:100E6000FFFE00000FFFFE00001FFDFE00003FF927
:100E7000FE00007FF1FE0000FFE1FE0001FFC1FE69
:100E80000003FF81FE0007FF01FE000FFE01FE00D0
:100E90001FFC01FE003FF801FE007FF001FE00FF95
:100EA000E001FE00FFC001FE00FFFFFFFFE0FFFFCB
:100EB000FFFFE0FFFFFFFFE0FFFFFFFFE0FFFFFF9F
:100EC000FFE0FFFFFFFFE0FFFFFFFFE0000001FE8C
:100ED00000000001FE00000001FE00000001FE0015
:100EE000000001FE00000001FE00000001FE000005
:100EF0000001FE00000001FE00000001FE000000F5
:100F000001FE00000001FE00000001FE00000001E3
:100F1000FE00000001FE00000001FE00000001FED6
:100F200000000001FE001FFFFFFFC03FFFFFFFC0EA
:100F30003FFFFFFFC03FFFFFFFC03FFFFFFFC03F7E
:100F4000FFFFFFC03FFFFFFFC03FFFFFFFC03FFFAE
:100F5000FFFFC03FE00000003FE00000003FE00076
:100F600000003FE00000003FE00000003FE0000024
:100F7000003FE00000003FE00000003FE3FFFC0016
:100F80003FE7FFFE003FEFFFFF003FFFFFFF803F17
:100F9000FFFFFFC03FFFFFFFE03FFFFFFFE03FFF1E
:100FA000FFFFF03FFC007FF03FF0003FF83FE00024
:100FB0001FF80000000FF800000007F8000000070D
:100FC000F800000007F800000007F800000007F82C
:100FD00000000007F83FE00007F83FE00007F83F97
:100FE000E0000FF83FF0001FF83FF0003FF83FF837
:100FF000007FF83FFFFFFFF03FFFFFFFF03FFFFFE5
:10100000FFE01FFFFFFFC00FFFFFFF8007FFFFFF95
:101010000003FFFFFE0001FFFFFC0001FFFF800057
:1010200003FFFFE0000FFFFFF8001FFFFFFC003F82
:10103000FFFFFE003FFFFFFF007FFFFFFF007FFF7E
:10104000FFFF00FFF003FF00FFE001FF00FFC00112
:10105000FF00FF8000FF00FF80007F00FF80007F17
:1010600000FF80000000FF80000000FF8000000003
:10107000FF80000000FF80000000FF80000000FFF4
:101080009FFE0000FFBFFF8000FFFFFFE000FFFFAB
:10109000FFF000FFFFFFF800FFFFFFFC00FFFFFF76
:1010A000FE00FFFFFFFE00FFFFFFFF00FFE003FF6A
:1010B00000FFC001FF00FFC001FF00FF8000FF0034
:1010C000FF8000FF00FF8000FF00FF8000FF00FFA7
:1010D0008000FF00FF8000FF00FF8001FF00FFC0D5
:1010E00001FF00FFE003FF00FFFFFFFF00FFFFFF26
:1010F000FF00FFFFFFFF007FFFFFFE007FFFFFFEFF
:10110000003FFFFFFC001FFFFFF8000FFFFFF00094
:101110003FFFFFFF803FFFFFFF803FFFFFFF803F5C
:10112000FFFFFF803FFFFFFF803FFFFFFF803FFF8C
:10113000FFFF803FFFFFFF803FFFFFFF80000007B2
:10114000FF80000007FF80000007FF8000000FFF06
:101150000000000FFF0000001FFE0000001FFE0047
:1011600000001FFE0000003FFC0000003FFC0000EC
:10117000007FF80000007FF80000007FF80000000A
:10118000FFF0000000FFF0000001FFE0000001FFA1
:10119000E0000001FFE0000003FFC0000003FFC00B
:1011A000000007FF80000007FF80000007FF8000AD
:1011B000000FFF0000000FFF0000001FFE000000F6
:1011C0001FFE0000001FFE0000003FFC0000003F6B
:1011D000FC0000007FF80000007FF80000007FF8AE
:1011E000000000FFF0000000FFF0000001FFE00041
:1011F0000001FFE0000001FFE0000003FFC000006D
:1012000003FFC0000001FFFFC00007FFFFF0000F59
:10121000FFFFF8001FFFFFFC003FFFFFFE007FFF06
:10122000FFFF007FFFFFFF007FFFFFFF00FFFFFFCB
:10123000FF80FFE003FF80FFC001FF80FF8000FF11
:1012400080FF00007F80FF00007F80FF00007F8024
:10125000FF00007F80FF00007F80FF00007F80FF95
:101260008000FF80FFC001FF80FFE003FF807FFF61
:10127000FFFF007FFFFFFF003FFFFFFE001FFFFF9C
:10128000FC003FFFFFFE007FFFFFFF007FFFFFFF2F
:1012900000FFFFFFFF80FFE003FF80FFC001FF8032
:1012A000FF8000FF80FF00007F80FF00007F80FF45
:1012B00000007F80FF00007F80FF00007F80FF0034
:1012C000007F80FF8000FF80FFC001FF80FFE00300
:1012D000FF807FFFFFFF007FFFFFFF007FFFFFFF1B
:1012E000003FFFFFFE001FFFFFFC000FFFFFF800A5
:1012F00007FFFFF00001FFFFC00007FFFF80001F96
:10130000FFFFE0003FFFFFF0007FFFFFF8007FFFDF
:10131000FFF800FFFFFFFC00FFFFFFFC00FFFFFFE7
:10132000FC00FFE01FFC00FFC00FFC00FF8007FC7B
:1013300000FF8007FC00FF8007FC00FF8007FC0027
:10134000FF8007FC00FF8007FC00FF8007FC00FF18
:10135000C00FFC00FFE01FFC00FFFFFFFC00FFFFD1
:10136000FFFC00FFFFFFFC007FFFFFFC007FFFFF93
:10137000FC003FFFFFFC001FFFFFFC0007FFFFFC1E
:1013800000000007FC00000007FC00000007FC0054
:10139000000007FC00000007FC00000007FC000044
:1013A0000007FC00000007FC00FF8007FC00FF8036
:1013B00007FC00FF8007FC00FF8007FC00FFC00F58
:1013C000FC00FFE01FFC00FFFFFFFC00FFFFFFFC35
:1013D00000FFFFFFFC007FFFFFF8007FFFFFF8002A
:1013E0003FFFFFF0001FFFFFE00007FFFF8000014D
:1013F000FFFF800003FFFFE0000FFFFFF8001FFF6B
:10140000FFFC003FFFFFFE003FFFFFFF007FFFFFED
:10141000FF007FFFFFFF00FFF003FF00FFE001FF81
:1014200000FFC001FF00FF8000FF00FF80007F0081
:10143000FF80007F00FF80000000FF80000000FFB1
:1014400080000000FF80000000FF80000000FF809F
:10145000000000FF9FFE0000FFBFFF8000FFFFFFB6
:10146000E000FFFFFFF000FFFFFFF800FFFFFFFCC1
:1014700000FFFFFFFE00FFFFFFFE00FFFFFFFF007A
:10148000FFE003FF00FFC001FF00FFC001FF00FFFE
:101490008000FF00FF8000FF00FF8000FF00FF8052
:1014A00000FF00FF8000FF00FF8000FF00FF8001C1
:1014B000FF00FFC001FF00FFE003FF00FFFFFFFF91
:1014C00000FFFFFFFF00FFFFFFFF007FFFFFFE00A9
:1014D0007FFFFFFE003FFFFFFC001FFFFFF8000F34
:1014E000FFFFF0001FFFFFFFC03FFFFFFFC03FFFF8
:1014F000FFFFC03FFFFFFFC03FFFFFFFC03FFFFFF9
:10150000FFC03FFFFFFFC03FFFFFFFC03FFFFFFFE8
:10151000C03FE00000003FE00000003FE0000000AE
:101520003FE00000003FE00000003FE00000003F1F
:10153000E00000003FE00000003FE3FFFC003FE769
:10154000FFFE003FEFFFFF003FFFFFFF803FFFFF79
:10155000FFC03FFFFFFFE03FFFFFFFE03FFFFFFF58
:10156000F03FFC007FF03FF0003FF83FE0001FF845
:101570000000000FF800000007F800000007F80066
:10158000000007F800000007F800000007F800005E
:101590000007F83FE00007F83FE00007F83FE000F1
:1015A0000FF83FF0001FF83FF0003FF83FF8007FD2
:1015B000F83FFFFFFFF03FFFFFFFF03FFFFFFFE0BF
:1015C0001FFFFFFFC00FFFFFFF8007FFFFFF0003AC
:1015D000FFFFFE0001FFFFFC00000003FE00000013
:1015E00007FE0000000FFE0000001FFE0000003F8D
:1015F000FE0000007FFE000000FFFE000001FFFE75
:10160000000003FFFE000007FFFE00000FFFFE00CA
:10161000001FFDFE00003FF9FE00007FF1FE00000C
:10162000FFE1FE0001FFC1FE0003FF81FE0007FF96
:1016300001FE000FFE01FE001FFC01FE003FF8014D
:10164000FE007FF001FE00FFE001FE00FFC001FE92
:1016500000FFFFFFFFE0FFFFFFFFE0FFFFFFFFE0F6
:10166000FFFFFFFFE0FFFFFFFFE0FFFFFFFFE0FFE7
:10167000FFFFFFE0000001FE00000001FE0000008F
:1016800001FE00000001FE00000001FE000000015C
:10169000FE00000001FE00000001FE00000001FE4F
:1016A00000000001FE00000001FE00000001FE003D
:1016B000000001FE00000001FE00000001FE00002D
:1016C0000001FE00000001FE00000001FE00003FDE
:1016D000FFC00000FFFFF00001FFFFF80003FFFF65
:1016E000FE0007FFFFFF000FFFFFFF800FFFFFFF60
:1016F000C00FF001FFC00FC000FFC00FC0007FC0CF
:101700000FC0007FC00F80003FC00000003FC0003E
:1017100000003FC00000003FC00000003FC00000CC
:10172000007FC00000007FC0000000FFC000000379
:10173000FFC0003FFFFF80007FFFFF00007FFFFC36
:1017400000007FFFF000007FFFFF00007FFFFF80B1
:10175000007FFFFFC0003FFFFFC0000003FFC0008D
:101760000001FFC00000007FC00000007FC000003B
:10177000003FC00000003FC00000003FC00000006C
:101780003FC00000003FC00F80003FC00FC0007F7F
:10179000C00FC0007FC00FC000FFC00FF001FFC02E
:1017A0000FFFFFFF800FFFFFFF0007FFFFFF00039A
:1017B000FFFFFE0001FFFFFC0000FFFFF000003F05
:1017C000FFC000000FFF8000003FFFE000007FFF30
:1017D000F80000FFFFFC0001FFFFFE0003FFFFFF1A
:1017E0000007FFFFFF8007FFFFFFC00FFC03FFC0E4
:1017F0000FF801FFE01FF000FFE01FF0007FE01F87
:10180000F0007FE01FF0007FE01FF0007FE01FF09E
:10181000007FE0000000FFE0000001FFC0000003C7
:10182000FFC0000007FFC000000FFF8000001FFF87
:101830000000003FFF0000007FFE000000FFFC00F2
:101840000001FFF8000003FFF0000007FFE00000C8
:101850000FFFC000001FFF8000003FFF0000007F5F
:10186000FE000000FFFC000001FFF8000003FFF095
:10187000000007FFE000000FFFC000001FFF800016
:10188000001FFF0000003FFE0000003FFC000000C2
:101890003FFFFFFFE03FFFFFFFE03FFFFFFFE03FB5
:1018A000FFFFFFE03FFFFFFFE03FFFFFFFE03FFFE5
:1018B000FFFFE03FFFFFFFE007FFFF80001FFFFF8C
:1018C000E0003FFFFFF0007FFFFFF8007FFFFFF821
:1018D00000FFFFFFFC00FFFFFFFC00FFFFFFFC001D
:1018E000FFE01FFC00FFC00FFC00FF8007FC00FFB3
:1018F0008007FC00FF8007FC00FF8007FC00FF80E2
:1019000007FC00FF8007FC00FF8007FC00FF80074A
:10191000FC00FF8007FC00FF8007FC00FF8007FC45
:1019200000FF8007FC00FF8007FC00FF8007FC0031
:10193000FF8007FC00FF8007FC00FF8007FC00FF22
:101940008007FC00FF8007FC00FF8007FC00FF8091
:1019500007FC00FF8007FC00FF8007FC00FF8007FA
:10196000FC00FF8007FC00FF8007FC00FF8007FCF5
:1019700000FF8007FC00FF8007FC00FFC00FFC0099
:10198000FFE01FFC00FFFFFFFC00FFFFFFFC00FF6C
:10199000FFFFFC007FFFFFF8007FFFFFF8003FFF25
:1019A000FFF0001FFFFFE00007FFFF8000000000C6
:1019B0000000000000000000000000000600000021
:1019C000000F800000000FC000000017F0000000B2
:1019D0000BFC00000005F90000003AF38000003D18
:1019E0007FBC00003EBF3800001F5E7800000FAFD4
:1019F000FC000007C7FE000003E3FF100007F1FF33
:101A0000F0000FFAFFE0000FFD7FC0000F3EBF8027
:101A1000000F1E5F00000F0E2E00003FFFFFF000C2
:101A20003FFFFFF000000000000001800000000305
:101A3000E000000003F000000005FC00000002FFD1
:101A4000000000017E4000000EBCE000000F5FEFD0
:101A500000000FAFCE000007D79E000003EBFF0091
:101A60000001F1FF800000F8FFC40001FC7FFC00D2
:101A700003FEBFF80007FF5FF0000FCFAFE0000FDD
:101A80008797C0000F038B80000F000500000F0038
:101A90000200003FFFFFF0003FFFFFF0000060008A
:101AA000000000F800000000FC000000017F0000C2
:101AB0000000BFC00000005F900000002F38000051
:101AC0000E17FBC0000F0BF380000F85E7800007A7
:101AD000C2FFC00003E07FE00001F03FF10000F82A
:101AE0001FFF0001FC2FFE0003FE17FC0007FF0B89
:101AF000F8000FCF85F0000F8782E0000F038140D0
:101B0000000F000080000F000000003FFFFFF0000A
:101B10003FFFFFF000C000000000C000000000C058
:101B200000000000C000000000C7E39C0000CFE7F9
:101B3000FE0000CC66660000CC66660000CFE6665C
:101B40000000CFE6660000CC06660000CC0666000A
:101B5000000C000000000C000000000C0000000061
:101B6000000000000000000000000000F000000085
:101B700000E000000001C000000001800000000340
:101B8000FC00000007F8000000007000000000608A
:101B900000000000C0000000018000001C030000E5
:101BA000003E00000000633FF00F00637FF81F80DD
:101BB00063C01831806380186180630038C300639C
:101BC0001FFF8600631FFF0C006300001800630006
:101BD00000300063FFFFE00063FFFFC0003E000035
:101BE00000001C000000007E7E7E7E00001819FCB4
:101BF000000000001C39FE000000001E7986000075
:101C000000001E7986000000001BD9863D80000080
:101C10001999867F8000001999FE638000001819C9
:101C2000FC61800000181980618000001819806133
:101C3000800000181980638000001819807F8000E0
:101C4000001819803D800000000000000000000026
:101C500000030C0000003E1CE30C7C3E007F3FF3C1
:101C60000CFE7F00C333330CC66300C033330C0655
:101C70006300C03333FC0E6300C03333FC1C6300CD
:101C8000C033330C386300C033330C706300C3338C
:101C9000330CE063007F33330CFE7F003E33330CA4
:101CA000FE3E0000000000000000000000C6000032
:101CB000738738C60300FFCFFCC63F00CCCCCCFEF8
:101CC0007F00CCCCCCFE6300CCCCCCC66300CCCCAB
:101CD000CCC67F00CCCCCCC63F00CCCCCCC603005D
:101CE000000000000300000000006300000000008E
:101CF0007F00000000003E0071C92F7839888A29D2
:101D0000284845888A29284845488A292F4845482F
:101D1000F2292878452882292860452882292850D8
:101D2000451881C6CF4839183F8000781E00007FD3
:101D3000C000781E0000FFE000781E0000FFE000F9
:101D4000381C0000E0E0003C3C0000E0E0003C3CCF
:101D50000000E0E0003C3C0000E0E0003C3C000013
:101D6000E0E0001E787F00E0E1FE1E78FF80FFE3E8
:101D7000FF1E78FF80FFE3FF1E78E380FFE3FF0E86
:101D800070E380FFE3870FF0E380E0E3870FF0E389
:101D900080E0E3870FF0E380E0E3FF07E0FFE0E0AF
:101DA000E3FE07E0FFE0E0E1C007E07EE00001C005
:101DB000000000000001FF000000000003FF8000A1
:101DC00000000003FF80000000000383800000008B
:101DD00000038380000000000383800000000003F4
:101DE000FF800000000003FF800000000001FF00F2
:101DF00000000000000000000000001E0000003F86
:101E00000000003F0000007380000061800000E1DE
:101E1000C00000C0C00001C0E00001806000039C61
:101E20007000033E3000077F3800060718000E07D9
:101E30001C000C7F8C001C3FCE00181FE6003801F0
:101E4000F7003000F30070007B8060003980E00014
:101E500019C0C00000C0C00000C0FFFFFFC07FFF6E
:101E6000FF8011241FBECFEFCDBFDFE7DEBF12E43E
:101E7000A0E0B0E4E6E7FDE500E00BBF02C007909C
:101E80000D92AE34B107D9F722E4AEE4B2E401C05A
:101E90001D92AF3FB207E1F70E9450290C94B92E72
:101EA0000C9400006150710920E030E00EC0DC01AC
:101EB000A20FB31F4C91FC01E60FF71F50815C93FA
:101EC00040832F5F3F4F61507109261737077CF31E
:101ED0000895CF92DF92EF92FF920F931F93CF93CB
:101EE000DF938A016901C0E0D0E011C07801EC0EF7
:101EF000FD1E2AE030E040E050E00E94202C605DB2
:101F0000F7016083622F732F842F952F219661151F
:101F100071058105910551F706C0F801EC0FFD1F11
:101F200080E380832196CC15DD05BCF3BE01C8019A
:101F30000E94520FF801EC0FFD1F1082CE01DF91BD
:101F4000CF911F910F91FF90EF90DF90CF90089568
:101F5000E0E4F4E020812D7F208320812160208334
:101F6000BC0180E090E00E94C62A20E030E040E81A
:101F700051E40E947D2B9B01AC0160E07BE187EB8B
:101F80009EE40E941E2A20E030E040E05FE30E94D1
:101F9000AD290E94972AE0E2F8E060877187868188
:101FA000806C868308959091240895FFFCCF8093E0
:101FB000220808950F931F93CF93DF938C01C0E005
:101FC000D0E007C0F801EC0FFD1F80810E94D30F05
:101FD0002196F80101900020E9F73197E01BF10B01
:101FE000CE17DF0778F38AE00E94D30FDF91CF91FD
:101FF0001F910F9108950F931F93CF93DF938C013F
:10200000C0E0D0E007C0F801EC0FFD1F80810E9406
:10201000D30F2196F80101900020E9F73197E01BDA
:10202000F10BCE17DF0778F3DF91CF911F910F915E
:10203000089520E030E048EC52E40E94690F88ECFB
:1020400092E40E94DA0F0895E0E0F4E08081806875
:102050008083A4E0B4E08C9180688C93808180615F
:102060008083808180648083E0E4F9E08081806304
:1020700080838081816080838C9180688C930895B7
:1020800080934409809143098823E4F70895DC0193
:1020900020E030E00CC0FD01E20FF31F908190932F
:1020A0004409909143099923E4F72F5F3F4F462F4E
:1020B00050E0241735077CF30895E0E0F9E08081D3
:1020C0008F7E80838081837F808380818D7F8083EA
:1020D0000895E0E0F9E087E6868381E085838381E7
:1020E0008A6083838381816083830895CF93DF93A4
:1020F000C82FD62F809105098370833089F482E53B
:1021000090E40E94DA0F20E63AEE01C09C01809133
:1021100005098370833021F4C9010197232BB1F79E
:1021200085E080930509DD2341F08C2F90E0880F36
:10213000991F81608093070904C08C2F880F8093BA
:10214000070980E69AEE2091050924FF06C0209138
:10215000050926FD02C00197B1F7892B21F48CE512
:1021600090E40E94DA0F8091050982FF04C084E6A2
:1021700090E40E94DA0FDF91CF91089585E8809373
:10218000A000E0E0F6E081E082838083089581E0B2
:1021900080930A0608958093C642809308060E94A1
:1021A000C71080910D0680FFFCCF809110069091A2
:1021B0001106089580E895E20E94A80F0E945D1024
:1021C0000E94691061E088E70E9476100895CF921E
:1021D000DF92EF92FF92CF93DF9382E00E94CB10C9
:1021E0006C01E12CF12CC0E0D0E00CC082E00E9438
:1021F000CB10C80ED91EE11CF11CF694E794D794BD
:10220000C7942196C233D1058CF3C701B6010E9451
:10221000C62A23E333E343E550E40E947D2B20E00C
:1022200030E040E859E30E947D2B22E133E840E4AE
:102230005FE30E941E2A20E030E040E05FE30E945E
:10224000AC2929E838E848E85EE30E941E2A20E02D
:1022500030E0A9010E94AD29DF91CF91FF90EF906E
:10226000DF90CF9008950E94E7100895CF92DF92FB
:10227000EF92FF921F93CF93DF93182F0E94331199
:102280006B017C01C0E0D0E011C00E9433119B01C2
:10229000AC01C701B6010E94AD2920E030E040E06A
:1022A0005FE30E947D2B6B017C012196812F90E0E2
:1022B0000197C817D9074CF32FE03CED4EE452E4E8
:1022C000C701B6010E947D2BDF91CF911F91FF9036
:1022D000EF90DF90CF900895E0E0F4E08081806897
:1022E0008083E0E2F4E0808180618083E0E4F4E0D8
:1022F0008081806280830895CF93DF93E0E2F4E0F1
:10230000248120612483C0E0D4E02C812F772C83AA
:102310000E9447108C8180688C83DF91CF91089553
:10232000CF93DF93E0E2F4E0948190619483C0E086
:10233000D4E09C819F779C830E9440108C818F7792
:102340008C83DF91CF9108950F931F93CF93DF93E9
:10235000C0E2D4E09C819F7E9C8300E014E0F80101
:1023600094819F7794830E944010F8018481806853
:1023700084838C8180618C83DF91CF911F910F9139
:1023800008950F931F93CF93DF93C0E2D4E09C8115
:102390009F7E9C8300E014E0F80194819F779483F2
:1023A0000E944010F8018481806884838C81806160
:1023B0008C83DF91CF911F910F910895CF93982F28
:1023C0009F70C82FC295CF70C067892F80660E940A
:1023D000C1118C2F0E94C111CF910895CF93C82FA6
:1023E000C295CF70C0618F700E94C1118C2F0E9466
:1023F000C111CF9108950F931F93CF93DF93062FB1
:10240000122FD8E1D80FC8E1C40F8D2F0E94EE1112
:10241000802F0E94DE1184EF0E94A4118D2F0E9454
:10242000C11186EF0E94A4118C2F0E94C11187EF69
:102430000E94A411812F0E94C11188EF0E94A41153
:10244000DF91CF911F910F910895CF93DF932FE9E3
:102450004FE460E080E00E94FB11C0E0D0E004C0E7
:1024600080E00E9490112196C11584E6D807C4F33C
:10247000DF91CF910895E0E0F4E084818F77848349
:10248000E0E2F4E0848180618483E0E4F4E084812C
:102490008F7D84832FEF88EF95E12150804090401D
:1024A000E1F700C000008481806284832FEF8EE911
:1024B00094E2215080409040E1F700C0000088EB9A
:1024C0000E94A41180E10E94C11182EE0E94A41119
:1024D0002FEF85EA9EE0215080409040E1F700C058
:1024E00000008BEE0E94A41181E80E94A4118BE4ED
:1024F0000E94A4118BE20E94A41184EC0E94A411FA
:1025000089E80E94A41184E20E94A41182EA0E9438
:10251000A41181EF0E94A4118FE90E94C11184E8E7
:102520000E94A41182EF0E94A41180E00E94C111B8
:1025300083EF0E94A41182E30E94C11180E40E94F3
:10254000A41180E50E94A41181ED0E94A41186EDE2
:102550000E94A41188EC0E94A41185E00E94A4119D
:1025600088ED0E94A4110E9425128DEA0E94A411F8
:1025700008952F923F924F925F926F927F928F9227
:102580009F92AF92BF92CF92DF92EF92FF920F9302
:102590001F93CF93DF93CDB7DEB76197CDBFDEBF7B
:1025A0008F836C871A012B87902E2DB73EB72E870D
:1025B0003F878BEA089F812D112486958A8790E0BA
:1025C000DC01AA0FBB1FAD83BE836D01BB0FEE08FC
:1025D000FF0800E010E0412C512C320109831A83DE
:1025E0009D864601570189C0EDB7FEB7E887F98798
:1025F0002DB73EB78D819E81281B390B2DBF3EBF65
:10260000ADB7BEB71196AB83BC83AD0180E090E05F
:1026100005C0FA01E80FF91F108201968C01092EFE
:10262000000C220B330B081519052A053B058CF30A
:1026300060E070E030E020E0ED843DC0F101E40DA9
:10264000F51DF490BFEF4B1A5B0A6B0A7B0A87E01B
:1026500090E02DC0EF2DF0E0082E02C0F595E79533
:102660000A94E2F7E0FF1DC0E32FF0E0E88BF98B5E
:102670008F01040F151FD801CC90A22FB0E0AA0F34
:10268000BB1FA95EBF4BDC90DC28F801D082E88933
:10269000F9893196E40FF51F10811196AC91A12BA9
:1026A000A0832F5F233010F03E5F20E00197992335
:1026B0008CF66F5F7F4F8E2D86958695869590E080
:1026C000681779070CF4BACF6C85F9816F0F262F44
:1026D0004A853F81430F832F0E94FB116D817E81CC
:1026E0008B819C810E947C11888599858DBF9EBFBE
:1026F000A981BA811196A983BA83BB858B2F90E0FB
:10270000E981FA81E817F9070CF46ECF2E853F8531
:102710002DBF3EBF6196CDBFDEBFDF91CF911F9130
:102720000F91FF90EF90DF90CF90BF90AF909F9070
:102730008F907F906F905F904F903F902F90089573
:102740002F923F924F925F926F927F928F929F92C1
:10275000AF92BF92CF92DF92EF92FF920F931F93AF
:10276000CF93DF93CDB7DEB76297CDBFDEBFA82E84
:10277000688B4A01322E2DB73EB7298B3A8B202E1B
:10278000269426942694222D30E0A32DB0E00E94BA
:102790003F2C9B01AC01AE2DB0E00E944E2C2B01D2
:1027A0003C018BEA089F012D112406950D87802F8F
:1027B00090E0DC01AA0FBB1FAE87BF87CD01092EB9
:1027C000000CAA0BBB0B8F839887A987BA8700E000
:1027D00010E08FC0ADB7BEB7AB87BC87EDB7FEB713
:1027E0002F813885E21BF30BEDBFFEBF8DB79EB77F
:1027F00001968D839E83AC0180E090E049825A82ED
:102800006B827C82322D232D2F80388449845A8418
:1028100005C0FA01E80FF91F108201966C01092E1C
:10282000000CEE08FF08C214D304E404F50488F396
:1028300049805A806B807C80232E322E60E070E0CD
:1028400030E020E03CC0F401E40DF51DD4909FEF92
:10285000491A590A690A790A87E090E02CC0ED2DDF
:10286000F0E0082E02C0F595E7950A94E2F7E0FF44
:102870001CC0A32FB0E0A983BA837D01E40EF51E2E
:10288000F701B080A22FB0E0AA0FBB1FA95EBF4B1B
:10289000CC90CB28C082E981FA813196E40FF51FF4
:1028A000F0801196AC91AF29A0832F5F233010F0F8
:1028B0003E5F20E00197992394F66F5F7F4F822D52
:1028C00090E0681779070CF4BECF6889600F262F57
:1028D0004D854A0D8A2D0E94FB116E857F858D8165
:1028E0009E810E947C112B853C852DBF3EBF0F5FD2
:1028F0001F4F832D90E0081719070CF46BCF8989BF
:102900009A898DBF9EBF6296CDBFDEBFDF91CF910A
:102910001F910F91FF90EF90DF90CF90BF90AF90FD
:102920009F908F907F906F905F904F903F902F90EF
:102930000895FF920F931F93CF93DF93F62EC22F2C
:10294000002381F0D42FD81B0E94FB11C0E007C0E8
:102950008FEF0E9490118FEF0E949011CF5FCD17E3
:10296000B8F313C00E94FB110C2F10E00F191109CE
:10297000C0E0D0E007C08FEF0E94901180E00E947D
:1029800090112196C017D107B0F3DF91CF911F911D
:102990000F91FF900895FF920F931F93CF93DF93B2
:1029A000F62EC22F002381F0D42FD81B0E94FB11DA
:1029B000C0E007C08FEF0E9490118FEF0E9490112E
:1029C000CF5FCD17B8F313C00E94FB110C2F10E09E
:1029D0000F191109C0E0D0E007C088EF0E949011E4
:1029E00080E00E9490112196C017D107B0F3DF91CB
:1029F000CF911F910F91FF900895DF92EF92FF9278
:102A00000F931F93CF93DF93F82ED62EE42E022F31
:102A1000061B842F90E08F19910963E070E00E94FB
:102A2000EA2BD62F10E013C0612F6D0D262F4E2DEF
:102A30008F2D0E94FB11C0E007C08FEF0E94901104
:102A40008FEF0E949011CF5FCD17B8F31F5F101763
:102A500058F3DF91CF911F910F91FF90EF90DF908E
:102A60000895DF92EF92FF920F931F93CF93DF931E
:102A7000F82ED62EE42E022F061BD42FD81B10E0E2
:102A800013C0612F6D0D262F4E2D8F2D0E94FB112F
:102A9000C0E007C080E00E94901180E00E94901189
:102AA000CF5FCD17B8F31F5F101758F3DF91CF91A9
:102AB0001F910F91FF90EF90DF900895CF93DF93D8
:102AC000A0E4B4E08C918F7B8C9356968C915697B2
:102AD000816056968C935697E0E8F4E080818D7F74
:102AE000808381898260818B80818B7F80838289D2
:102AF0008260828BC0EAD4E088818B7F88838A8958
:102B000082608A8B80818E7F808380898260808BC7
:102B10008C9184608C93E0E2F4E080818062808319
:102B2000DF91CF910895809189428823B9F081E0A7
:102B300080937D42809116408F5F80931640843051
:102B400018F081E0809316408091164081508330C8
:102B500018F081E0809316401092894208958823EE
:102B600069F1E0E8F4E0848188608483E0E0FAE0E1
:102B7000808181608083809155429091564280A7E8
:102B800091A781E080935B428091A2429091A34201
:102B9000A091A442B091A54280938B4290938C4225
:102BA000A0938D42B0938E4280916A428823C1F0F7
:102BB00081E080931440109269420895811110C001
:102BC000E0E8F4E08481877F8483E0E0FAE08081BC
:102BD0008160808310A611A610925B4210928742FA
:102BE0000895809186428823C9F18FEA90E40E947B
:102BF000DA0F8091874281110AC0809155429091ED
:102C000056428093280A9093290A892B01F5109245
:102C1000874210926D42109271421092704210924F
:102C2000614210926242109263421092644210928A
:102C30006C4210926B421092654210926642109262
:102C400067421092684280E00E94AF1505C081E0A3
:102C5000809387420E94AF15109286420895CF92CA
:102C6000DF92EF92FF920E9436116B017C0160931C
:102C7000BE427093BF428093C0429093C14220E015
:102C800030E0A9010E94192A88234CF41092BE4218
:102C90001092BF421092C0421092C14216C020E072
:102CA00030E048E454E4C701B6010E94782B1816BE
:102CB00064F480E090E0A8E4B4E48093BE42909392
:102CC000BF42A093C042B093C1428091164082306F
:102CD00049F1833009F478C0813009F0AAC080E05E
:102CE00090E0AAE7B5E48093AA429093AB42A09308
:102CF000AC42B093AD4220E030E048EC52E4609149
:102D0000BE427091BF428091C0429091C1420E94E8
:102D10007D2B6093AE427093AF428093B04290930C
:102D2000B142ACC06091BE427091BF428091C0423E
:102D30009091C14229E134E04EEA5FE30E947D2B8D
:102D40006093BA427093BB428093BC429093BD4261
:102D50000F2EC12CF0E8DF2EFBE3EF2EF5E4FF2E63
:102D6000F02DC092AA42D092AB42E092AC42F092D7
:102D7000AD4224E333EF47E854E40E94782B181661
:102D800064F484E393EFA7E8B4E48093BA429093A9
:102D9000BB42A093BC42B093BD4220E030E048EC7F
:102DA00052E46091BA427091BB428091BC429091D2
:102DB000BD420E947D2B6093AE427093AF428093E0
:102DC000B0429093B1425AC06091BE427091BF42EE
:102DD0008091C0429091C14226E73EE64AE55CE31D
:102DE0000E947D2B6093B6427093B7428093B842A5
:102DF0009093B9420F2EC12CD12CF8E4EF2EF3E4BE
:102E0000FF2EF02DC092AA42D092AB42E092AC428B
:102E1000F092AD4220E030E048EC52E40E947D2B7D
:102E20006093AE427093AF428093B0429093B142B0
:102E300025C081E08093164080E090E0AAE7B5E4E9
:102E40008093AA429093AB42A093AC42B093AD4220
:102E500020E030E048EC52E46091BE427091BF4205
:102E60008091C0429091C1420E947D2B6093AE42FE
:102E70007093AF428093B0429093B142FF90EF9035
:102E8000DF90CF9008958091480483FF03C081E0D4
:102E9000809372420895E0E4F4E084818061848349
:102EA0002FEF8EE994E2215080409040E1F700C07E
:102EB000000084818F7E84832FEF8EE994E221507D
:102EC00080409040E1F700C000000E94DA100895B1
:102ED000E0E4F4E080818F77808387898160878B4D
:102EE0008081877F808383898160838B08950E949E
:102EF00068178091480483FF04C081E08093724288
:102F0000089510927242089580916F428823B1F023
:102F10008091480483FF09C081E080937242E0E021
:102F2000F4E084818062848307C010927242E0E002
:102F3000F4E084818F7D848310926F42809172428D
:102F4000882329F0E0E0F4E094819062948308956E
:102F50000F931F9380917142882309F440C0909190
:102F60006D4291113CC090916E42911138C0909188
:102F700070429923A1F190916C42923080F140917E
:102F8000A2425091A3426091A4427091A542009147
:102F90006142109162422091634230916442401B31
:102FA000510B620B730B483E534061057105B8F439
:102FB00081E00E94AF1581E080936D4210927142D2
:102FC00010927042109261421092624210926342DB
:102FD0001092644210926C4280938742C2C0882350
:102FE00069F190917042992349F190916D42992332
:102FF00029F180E00E94AF1510926D42109271424B
:10300000109270421092614210926242109263429A
:103010001092644210926C421092874280916B42EF
:10302000882309F49EC010926B4210926542109260
:103030006642109267421092684293C08823A1F1C1
:1030400090916D42911130C090916E4291112CC0BF
:1030500090916C42911128C090917042911124C0BE
:103060004091A2425091A3426091A4427091A54226
:10307000009161421091624220916342309164421A
:10308000401B510B620B730B493E534061057105A8
:1030900058F081E00E94AF1581E080936E4210925B
:1030A0006942809387425DC090917042992301F1FB
:1030B00020916E422223E1F020916C422223C1F044
:1030C0008823B1F080E00E94AF1510926E421092FA
:1030D00070421092714210926C42109261421092B2
:1030E000624210926342109264421092874239C049
:1030F000811106C0911104C080916C42882389F12E
:1031000080916D4281112DC080916E42811129C044
:103110008091A2429091A342A091A442B091A54275
:103120004091614250916242609163427091644269
:10313000841B950BA60BB70B893E9340A105B105E7
:1031400080F010926D421092614210926242109291
:103150006342109264421092714210927042109237
:103160006C421F910F9108954F925F926F927F92E0
:103170008F929F92AF92BF92CF92DF92EF92FF9287
:1031800080916A42882309F4D8C080916D428111F0
:1031900004C0809187428823D1F080916B428111D5
:1031A00016C081E080936B428091A2429091A3422D
:1031B000A091A442B091A54280936542909366424B
:1031C000A0936742B093684210926942B6C0809162
:1031D0006B428823E1F14091A2425091A342609159
:1031E000A4427091A542C0906542D0906642E090A2
:1031F0006742F09068424C195D096E097F094134BD
:1032000057476B41710518F180E00E94AF1510928D
:103210006B42109265421092664210926742109281
:10322000684210926D421092614210926242109276
:103230006342109264421092714210927042109256
:103240006C4281E0809369421092874276C0882365
:1032500009F473C0C090A242D090A342E090A4426F
:10326000F090A5424090654250906642609067425F
:1032700070906842D701C60184199509A609B7095B
:1032800080349747AB41B10508F057C08090AE42FB
:103290009090AF42A090B042B090B142A50194018D
:1032A0006091B2427091B3428091B4429091B54224
:1032B0000E94AC290E94902A9B01772324F42227A4
:1032C0003327261B370BB901330F880B990B0E944C
:1032D000C82A2091AA423091AB424091AC42509111
:1032E000AD420E94782B18166CF4C414D504E60481
:1032F000F70441F0C0926542D0926642E092674284
:10330000F09268428091A6429091A742A091A84273
:10331000B091A942C81AD90AEA0AFB0A89EEC8166E
:1033200083E0D806E104F10440F08092B24290922A
:10333000B342A092B442B092B542FF90EF90DF90BA
:10334000CF90BF90AF909F908F907F906F905F9045
:103350004F90089580917142882359F081E00E9436
:10336000AF15109271421092694281E080938742BA
:10337000089580917042882339F080E00E94AF1553
:10338000109270421092874208950E9484178823F9
:1033900059F080918A42882319F00E94A817089555
:1033A000811102C00E94AA1908950E94BE100895BA
:1033B000CF93C0E018C082E00E94CB1040917E42C3
:1033C00050917F426091804270918142480F591F15
:1033D000611D711D40937E4250937F4260938042F5
:1033E00070938142CF5FC43130F32C2F30E040E046
:1033F00050E060917E4270917F4280918042909136
:1034000081420E94FE2B20937E4230937F42409364
:10341000804250938142CA01B9010E94C62A23E327
:1034200033E343E550E40E947D2B20E036EF4FE18B
:1034300057E40E941E2A60938242709383428093D5
:1034400084429093854260E070E0CB01CF91089573
:103450008FEB9DE580931C0B90931D0BE1E1FBE04E
:1034600080818083E5E1FBE0808181608083E0E111
:10347000FBE080818160808308958FEB9DE58093E0
:103480002C0B90932D0BE1E2FBE080818083E5E241
:10349000FBE0808181608083E0E2FBE080818160ED
:1034A000808308950E94281A0E943D1A08951F9251
:1034B0000F920FB60F9211240BB60F928F939F931A
:1034C000AF93BF93EF93FF938091160B80FF18C0CB
:1034D0008091A2429091A342A091A442B091A542B2
:1034E0000196A11DB11D8093A2429093A342A09387
:1034F000A442B093A542E6E1FBE080818160808335
:10350000FF91EF91BF91AF919F918F910F900BBE63
:103510000F900FBE0F901F9018951F920F920FB62D
:103520000F9211240BB60F920F931F932F933F937B
:103530004F935F936F937F938F939F93AF93BF93BB
:10354000EF93FF9340919E4250919F426091A04221
:103550007091A1424F5F5F4F6F4F7F4F40939E42EC
:1035600050939F426093A0427093A14280919A42EF
:1035700090919B42A0919C42B0919D420196A11DC9
:10358000B11D80939A4290939B42A0939C42B0932A
:103590009D4200919642109197422091984230911D
:1035A00099420F5F1F4F2F4F3F4F0093964210934A
:1035B00097422093984230939942493E5340610587
:1035C000710558F021E02093914210929E42109292
:1035D0009F421092A0421092A142893C9105A10500
:1035E000B10558F081E08093904210929A42109277
:1035F0009B4210929C4210929D42E6E2FBE0808149
:1036000081608083FF91EF91BF91AF919F918F91E6
:103610007F916F915F914F913F912F911F910F91EA
:103620000F900BBE0F900FBE0F901F901895109229
:10363000894210926A421092864210928A421092F7
:103640008842089510925042109251421092524274
:10365000109253421092544208950F9380918842E1
:10366000882309F4E7C1809108408F5F8093084068
:10367000863018F081E080930840809108408330C4
:1036800009F4B6C030F4813059F0823009F45CC0DE
:10369000ABC1843009F400C1853009F451C1A4C123
:1036A00080918742811104C080915B42882359F048
:1036B000E0E0FAE080818160808380911140909108
:1036C000124080A791A78EEA90E18093794290936F
:1036D0007A4280911140909112408093554290938C
:1036E000564280911340811113C080915F429091A6
:1036F00060428093554290935642E0E0FAE0808128
:103700008160808380915F429091604280A791A701
:103710000E94221B81E08093544208E221E343ECA3
:1037200057E168E285E30E94B91221E348EB58E1D2
:1037300068E282E40E94B9122FE045E15BE16FE5A7
:1037400082E40E94B91273C180918742811104C042
:1037500080915B42882359F0E0E0FAE0808181604B
:10376000808380910F409091104080A791A78CECAE
:1037700090E18093794290937A4280910F409091AA
:10378000104080935542909356428091134081118E
:1037900013C080915F429091604280935542909314
:1037A0005642E0E0FAE080818160808380915F4250
:1037B0009091604280A791A70E94221B81E0809394
:1037C000534208E221E34EEC56E168E285E30E94B1
:1037D000B91221E348EB58E168E282E40E94B91291
:1037E0002FE045E15BE16FE582E40E94B9121FC161
:1037F00080918742811104C080915B42882359F0F7
:10380000E0E0FAE080818160808380910D409091BA
:103810000E4080A791A78CEC90E180937942909321
:103820007A4280910D4090910E4080935542909342
:10383000564280911340811113C080915F42909154
:1038400060428093554290935642E0E0FAE08081D6
:103850008160808380915F429091604280A791A7B0
:103860000E94221B81E08093524208E221E349ED4D
:1038700055E168E285E30E94B91221E348EB58E183
:1038800068E282E40E94B9122FE045E15BE16FE556
:1038900082E40E94B912CBC080918742811104C09A
:1038A00080915B42882359F0E0E0FAE080818160FA
:1038B000808380910B4090910C4080A791A783E07A
:1038C00091E18093794290937A4280910B4090915C
:1038D0000C40809355429093564280911340811141
:1038E00013C080915F4290916042809355429093C3
:1038F0005642E0E0FAE080818160808380915F42FF
:103900009091604280A791A70E94221B81E0809342
:10391000514208E221E344EE54E168E285E30E946B
:10392000B91221E348EB58E168E282E40E94B9123F
:103930002FE045E15BE16FE582E40E94B91277C0B8
:1039400080918742811104C080915B42882359F0A5
:10395000E0E0FAE08081816080838091094090916D
:103960000A4080A791A786E291E1809379429093E3
:103970007A428091094090910A40809355429093F9
:10398000564280911340811113C080915F42909103
:1039900060428093554290935642E0E0FAE0808185
:1039A0008160808380915F429091604280A791A75F
:1039B0000E94221B81E08093504208E221E34FEEF7
:1039C00053E168E285E30E94B91221E348EB58E134
:1039D00068E282E40E94B9122FE045E15BE16FE505
:1039E00082E40E94B91223C080911140909112404C
:1039F00080935542909356420E94221B81E080930F
:103A0000544208E221E343EC57E168E285E30E9477
:103A1000B91221E348EB58E168E282E40E94B9124E
:103A20002FE045E15BE16FE582E40E94B91210925C
:103A30008842FDC0882309F4FAC080918742811131
:103A40000DC080915B42811109C080916A42811151
:103A500005C080918A42882309F4E9C0809108401A
:103A60008F5F80930840863018F081E08093084093
:103A700080910840833009F451C028F4813051F01E
:103A8000823051F1B1C0843009F46AC0853009F444
:103A900089C0AAC0E0E0FAE08081816080838091E3
:103AA00011409091124080A791A708E221E343ECD6
:103AB00057E168E285E30E94B91221E348EB58E13F
:103AC00068E282E40E94B9122FE045E15BE16FE514
:103AD00082E40E94B912A9C0E0E0FAE0808181602E
:103AE000808380910F409091104080A791A708E2B9
:103AF00021E34EEC56E168E285E30E94B91221E32E
:103B000048EB58E168E282E40E94B9122FE045E1F7
:103B10005BE16FE582E40E94B91287C0E0E0FAE061
:103B200080818160808380910D4090910E4080A7BC
:103B300091A708E221E349ED55E168E285E30E949F
:103B4000B91221E348EB58E168E282E40E94B9121D
:103B50002FE045E15BE16FE582E40E94B91265C0A8
:103B6000E0E0FAE080818160808380910B40909159
:103B70000C4080A791A708E221E344EE54E168E2FB
:103B800085E30E94B91221E348EB58E168E282E440
:103B90000E94B9122FE045E15BE16FE582E40E94EB
:103BA000B91243C0E0E0FAE08081816080838091B7
:103BB000094090910A4080A791A708E221E34FEEC7
:103BC00053E168E285E30E94B91221E348EB58E132
:103BD00068E282E40E94B9122FE045E15BE16FE503
:103BE00082E40E94B91221C080911140909112404C
:103BF000809355429093564281E08093544208E26C
:103C000021E34EEC56E16AE285E30E94B91221E31A
:103C100048EB58E168E282E40E94B9122FE045E1E6
:103C20005BE16FE582E40E94B912109288420F9125
:103C300008950E9493150E94F1150E942D1B08956E
:103C400081E0809378428093774208950E94201EFD
:103C50008091C242882321F08091C342811104C027
:103C60000E946C110E943B12089580911540909122
:103C70001640891749F081E080937842809376421C
:103C800080937742909315409091754280916A425B
:103C9000981729F08093754281E0809314408091B9
:103CA0009142882381F081E08093784280918A421A
:103CB000811104C080917342811103C081E080931F
:103CC00074421092914280919042882329F081E0C1
:103CD000809376421092904208950F932AE044E038
:103CE00060E080E00E94311508E32EE148E25DE1EA
:103CF00062E38EE10E94B91200E328E048EF5CE144
:103D000064E68FE10E94B9120F9108950F932EE19E
:103D100046E060E080E00E94FD1401E02EE14FE407
:103D20006EE180E00E94CB142DE14FE46DE180E074
:103D30000E94CB1400E022E743E36FE183E30E949B
:103D4000CB1401E022E74FE462E780E00E94CB144D
:103D500023E74FE463E780E00E94CB140F910895BE
:103D60000F9300E02EE940E060E080E00E949914AB
:103D700001E020E04FE460E080E00E94CB1421E00D
:103D80004FE461E080E00E94CB1400E02EE94FE4B4
:103D900060E08FE40E94991401E02FE94FE46FE99D
:103DA00080E00E94CB142EE94FE46EE980E00E948F
:103DB000CB140F910895EF92FF920F931F93CF931F
:103DC000DF93C82FD62F6091BE427091BF42809181
:103DD000C0429091C1420E94902A9B012F3E82E0F6
:103DE000380744F01092BE421092BF421092C04277
:103DF0001092C142EAE0F0E0C901BF010E94EA2B43
:103E0000182FCB01BF010E94EA2BF82EC90164E6EE
:103E100070E00E94EA2BE62E08E221E34DE55AE02D
:103E20006D2F8C2F0E94A013EF2C21E34DE55AE05B
:103E30006D2F8DE08C0F0E94A013E12E21E34DE544
:103E40005AE06D2F8AE18C0F0E94A0138091774277
:103E5000882351F002E32DE04AEA5CE16FE58FE14F
:103E60000E94B91210927742DF91CF911F910F916A
:103E7000FF90EF900895DF92EF92FF920F931F93C0
:103E8000CF93DF93C82FD62F6091BA427091BB4277
:103E90008091BC429091BD420E94902A9B012F3E8E
:103EA00082E0380744F01092BA421092BB4210925E
:103EB000BC421092BD42EAE0F0E0C901BF010E949D
:103EC000EA2B182FCB01BF010E94EA2BF82EC90163
:103ED00064E670E00E94EA2BCB01BF010E94EA2B4E
:103EE000D82EC90168EE73E00E94EA2BE62E08E2A4
:103EF00021E34DE55AE06D2F8C2F0E94A013ED2C8D
:103F000021E34DE55AE06D2F8CE08C0F0E94A01349
:103F1000EF2C21E34DE55AE06D2F88E18C0F0E94D4
:103F2000A013E12E21E34DE55AE06D2F84E28C0FC2
:103F30000E94A01380917742882351F009E32DE07D
:103F40004FE45CE16FE58FE10E94B9121092774275
:103F5000DF91CF911F910F91FF90EF90DF90089527
:103F6000EF92FF920F931F93CF93DF93182FF62EAC
:103F70006091B6427091B7428091B8429091B94237
:103F80000E94902AEB01072E000C880B990B0E94CF
:103F9000C82A2AE037ED4FE151E40E94782B181629
:103FA00044F41092B6421092B7421092B842109266
:103FB000B942CE016AE070E00E94EA2BD62FC82FEA
:103FC000E12C08E221E34DE55AE06F2D812F0E949C
:103FD000A01309E026E047EE5BE165E580E10E9481
:103FE000B912ED2E08E221E34DE55AE06F2D8DE088
:103FF000810F0E94A013EC2E21E34DE55AE06F2DB6
:104000008AE1810F0E94A01380917742882351F0AA
:1040100009E32EE04DEE5BE16FE58FE10E94B912FE
:1040200010927742DF91CF911F910F91FF90EF9007
:1040300008950F931F93CF93DF93C0E0D0E009C0A2
:104040002AE030E040E050E00E94202CCA01B90193
:1040500021968B019C01075F1F4F2F4F3F4F03316C
:1040600011052105310560F7CE010196DF91CF9151
:104070001F910F9108952F923F924F925F926F92EE
:104080007F928F929F92AF92BF92CF92DF92EF92E8
:10409000FF920F931F93CF93DF93562EF22E132F81
:1040A000442EE52E682E712C622F732F842F952FAE
:1040B0000E9419205C011C0162E070E00E946D2CDE
:1040C0004C01C12CD12C18C0E601CC0FDD1FC80D4E
:1040D000D91D6F2D712F842D9E2D2AE030E040E0F8
:1040E00050E00E94202C68837983F22E132F442EF7
:1040F000E52E4FEFC41AD40AE5012197CC16DD0650
:104100001CF3F101E150F048EE0FFF1FE80DF91D1F
:104110008F2D912F80839183E02EF12CAE14BF045C
:10412000B4F5B701660F771FC4010E94AA2D4C0198
:104130000AC0F501EE0FFF1FE80DF91D1082118274
:104140005FEFA51AB50AAE14BF049CF3E7012197EF
:104150002AEFAE012403C001259F900D1124680EA3
:10416000791E12C0FE01EE0FFF1FE80DF91DE08061
:1041700008E128E14AE854E0652D862D0E94A0134D
:1041800056E0650E711C2197DD2364F71EC02AEFEF
:10419000AE012403C001259F900D1124680E791EE5
:1041A00012C0FE01EE0FFF1FE80DF91DE08008E1CF
:1041B00028E14AE854E0652D862D0E94A01356E0C0
:1041C000650E711C2197DD2364F7C4010E94212D27
:1041D000DF91CF911F910F91FF90EF90DF90CF90E3
:1041E000BF90AF909F908F907F906F905F904F9017
:1041F0003F902F900895DF92EF92FF920F931F93BD
:10420000CF93DF93F82ED62EE42E022F061BD42F49
:10421000D81B10E013C0612F6D0D262F4E2D8F2D52
:104220000E94FB11C0E007C080E00E94901180E076
:104230000E949011CF5FCD17B8F31F5F101758F38E
:10424000DF91CF911F910F91FF90EF90DF90089534
:10425000DF92EF92FF920F931F93CF93DF93F82E8D
:10426000D62EE42E022F061BD42FD81B10E013C02D
:10427000612F6D0D262F4E2D8F2D0E94FB11C0E05A
:1042800007C08FEF0E9490118FEF0E949011CF5FB7
:10429000CD17B8F31F5F101758F3DF91CF911F911F
:1042A0000F91FF90EF90DF9008952DE142E060E0E4
:1042B00080E00E94282108950F9326E946E460E0FB
:1042C00080E00E9431150E9455210E94B01E0E947C
:1042D000861E1092BE421092BF421092C0421092AF
:1042E000C1426AE286E00E94DB1E809111409091FB
:1042F0001240809355429093564281E080935442FD
:1043000008E221E343EC57E168E285E30E94B91239
:1043100021E348EB58E168E282E40E94B9122FE001
:1043200045E15BE16FE582E40E94B9122FEF82E57F
:1043300097E0215080409040E1F700C000000F91CD
:1043400008950F931F93CF93DF9328EB3EE145EC45
:104350005DE36091BE427091BF428091C0429091F6
:10436000C1420E947D2B0E94972A162F072FC62F2D
:10437000D02F80910640909107408C179D0788F4BC
:10438000CD34D10510F0CCE4D0E04C2F4E5F2DE1C0
:1043900062E08E5F0E942821C0930640D0930740C0
:1043A00011C0C817D90770F442E0480F2DE162E050
:1043B00082E0810F0E94FB20812F902F8093064086
:1043C00090930740DF91CF911F910F9108950F9324
:1043D0000E94351E80917842882389F18091164091
:1043E000823099F08330B1F0813019F580917742B5
:1043F000882331F02FE542E36AE282E00E94311522
:104400006AE286E00E94DB1E18C06AE282E00E9437
:104410003B1F13C080917742882331F02FE542E3A0
:104420006AE282E00E9431156AE286E00E94B01FD3
:1044300004C06AE286E00E94DB1E109278428091FE
:104440007642882321F00E94A12110927642809129
:1044500014408823F9F080916A42882371F0E0E2E9
:10446000F4E08481806284830AE22BE140E65BE130
:104470006BE78CE30E94B9120BC0E0E2F4E08481A8
:104480008F7D848326E94DE468E78CE30E94311533
:104490001092144080916A42882309F449C08091A7
:1044A0006942882309F444C08091924290919342DA
:1044B0002091A2423091A342821B930B9C0122F4D3
:1044C00022273327281B390B293E33408CF190914A
:1044D0008F4281E0892780938F42882361F0E0E258
:1044E000F4E084818F7D848326E94DE468E78CE3E2
:1044F0000E9431150DC0E0E2F4E084818062848383
:104500000AE22BE140E65BE16BE78CE30E94B91223
:104510008091A2429091A342A091A442B091A54261
:104520008093924290939342A0939442B093954289
:1045300080917442882309F457C080918A4288236D
:1045400009F442C0E0E4F4E08481846084838091D3
:104550004E4290914F42019680934E4290934F422B
:10456000039724F010924E4210924F4280914E4297
:1045700090914F428130910571F082309105A1F008
:10458000892BD9F408E228E14DE95AE16EE787E08A
:104590000E94B91216C008E228E145E25AE16EE72E
:1045A00087E00E94B9120DC008E228E14DEA59E106
:1045B0006EE787E00E94B91204C010924E4210923A
:1045C0004F42109273420EC0E0E4F4E084818B7F8E
:1045D000848326E94EE168E787E00E94311581E097
:1045E000809373421092744280917C42811104C086
:1045F00080917B42882341F000E22AE14AEF5DE1AD
:104600006CE784E10E94B9120F910895E0E0F4E0B4
:1046100080818160808380818260808380898860DE
:10462000808BE0E0FAE080E89CE086A397A310A6E8
:1046300011A610A211A28181806181838181836092
:1046400081838081816080838081826080830895FE
:104650009DE994BF8093001008951F93CF93DF933B
:10466000EC01162F8091021081FDFCCF83E190E0D8
:104670000E942823DC5E188380E090E00E942823BB
:10468000DF91CF911F9108950F931F93CF93DF93E5
:10469000EC018B018091021081FDFCCF83E190E061
:1046A0000E942823DC5E0883198380E090E00E944A
:1046B0002823DF91CF911F910F910895209102102F
:1046C0000E949F2E0895AF92BF92CF92DF92EF92F9
:1046D000FF920F931F93CF93DF9381E090E00E94AE
:1046E0005E23A82E83E090E00E945E2391E081117A
:1046F00001C090E09093C24200E0C12CD12C760121
:10470000B12C6DC081E00E9436116093BE4270935F
:10471000BF428093C0429093C1428091C742882398
:1047200079F08091C4429091C54201968093C44231
:104730009093C5421092C7428DEC90E40E94DA0F2C
:104740002091BE423091BF424091C0425091C1423F
:10475000C701B6010E94192A811106C08DED90E4AF
:104760000E94DA0F1F5F05C088EF90E40E94DA0F05
:1047700010E0C090BE42D090BF42E090C042F090A6
:10478000C142219603C0C0E0D0E010E0CA30D1059C
:104790000CF4B8CF8091C4429091C542049714F4B0
:1047A000163040F00E944B170F5F1092C4421092D7
:1047B000C54215C01092C4421092C5421092C24226
:1047C00060E081E090E00E942D236091C24283E08E
:1047D00090E00E942D2300E0BB24B394A12CB110E3
:1047E00002C0033080F2033088F161E06A0D81E09D
:1047F0008093C24281E090E00E942D236091C242EA
:1048000083E090E00E942D238FE295E70197F1F776
:1048100000C0000060918A4282E090E00E942D2357
:1048200060916A4286E090E00E942D2361E085E07D
:1048300090E00E942D238FE295E70197F1F700C0E9
:10484000000061E081E490E00E94B32EDF91CF91FF
:104850001F910F91FF90EF90DF90CF90BF90AF909E
:10486000089580E00E94AF150E9443170E946D1EBC
:104870000E944B170E9463230895209102100E940A
:10488000AE2E089589E190E00E943D24809311406E
:10489000909312408BE190E00E943D2480930F4062
:1048A000909310408DE190E00E943D2480930D4054
:1048B00090930E408FE190E00E943D2480930B4046
:1048C00090930C4081E290E00E943D248093094047
:1048D00090930A4008950E94422485E090E00E944F
:1048E0005E2391E0811101C090E09093C34260E0AB
:1048F00085E090E00E942D2383E090E00E945E23FB
:1049000091E0811101C090E09093C242992341F05F
:1049100082E090E00E945E2386E090E00E945E23A9
:104920000895209102100E94A72E0895CF92DF9241
:10493000EF92FF920F9385E190E00E949124611520
:1049400024E572072AEE82072AE2920720F021E08E
:1049500020937C4202C010927C420F2EF0E8CF2EB2
:10496000FEEEDF2EF6E3EF2EF12CF02DA7019601DF
:104970000E94FE2B04E06BE286E40E943B2081E172
:1049800090E00E949124A70196010E94FE2B67E609
:1049900086E40E943B200F91FF90EF90DF90CF9034
:1049A0000895AF92BF92CF92DF92EF92FF920F9352
:1049B0001F93CF93DF93EC016A017B015C018FEFC2
:1049C000A81AB80A642FCE010E942D236D2D8E01E6
:1049D0000E5F1F4FC5010E942D236E2D2396C80127
:1049E0000E942D236F2D772788279927CE010E94BB
:1049F0002D23DF91CF911F910F91FF90EF90DF90CA
:104A0000CF90BF90AF900895CF92DF92EF92FF9238
:104A10000F93C090A242D090A342E090A442F090A5
:104A2000A54289C0E0E4F4E0808580748087882313
:104A300009F481C0E0E8F4E08085847080878823F1
:104A400009F479C02FEF3DE389E4215030408040E4
:104A5000E1F700C0000026E940E560E080E00E9448
:104A6000311500E324E142E154E069E485E00E946D
:104A7000B91200E42EE142E253E069E486E10E94CB
:104A8000B91208E12EE148EC52E069E48AE20E94A2
:104A9000B91200E42EE148ED51E069E482E30E949E
:104AA000B9122EE148EE50E06DE586E00E94B912A1
:104AB0000E94171B80918942811110C090916A4217
:104AC00091110CC090918642911108C090918A4238
:104AD000911104C090918842992361F390918A4288
:104AE000992349F110928A4281110CC090916A4237
:104AF000911108C090918642911104C09091884212
:104B0000992391F3809186428823A9F010928642DE
:104B100040E050E0BA0185E190E00E94D12410927B
:104B20007C4226E940E560E080E00E9431150E9469
:104B3000B3250E94171B8091A2429091A342960137
:104B4000281B390BC901813630EF930724F0803AD6
:104B50009F400CF467CF0E94171B0F91FF90EF90BE
:104B6000DF90CF9008950F9326E946E460E080E05F
:104B70000E94311500E42EE14AE359E06BE281E046
:104B80000E94B91200E32EE146E858E06BE287E1AB
:104B90000E94B9122EE142ED57E067E681E00E94E3
:104BA000B91200E22EE14AE557E067E681E10E9492
:104BB000B91200E32EE146E858E067E68CE10E9476
:104BC000B9120E9496240E94042526E940E560E07F
:104BD00080E00E9431150F910895CF92DF92EF92FD
:104BE000FF928091A2429091A342A091A442B091E1
:104BF000A54240918B4250918C4260918D427091C0
:104C00008E42841B950BA60BB70B813C9742A940A3
:104C1000B10508F444C080915B42882309F43FC089
:104C200081E190E00E949124AB01BC014054584DB9
:104C3000664F7F4F81E190E00E94D12485E190E0B2
:104C40000E9491246B017C0120ECC20E27E2D21E4F
:104C500029E0E21EF11CB701A60185E190E00E9467
:104C6000D124C11484E5D8068AEEE8068AE2F80663
:104C700020F081E080937B4202C010927B428091C1
:104C8000A2429091A342A091A442B091A5428093E8
:104C90008B4290938C42A0938D42B0938E42FF90B2
:104CA000EF90DF90CF9008951F920F920FB60F9262
:104CB00011240BB60F928F93EF93FF938091A90469
:104CC00082FF12C080918A42882319F010928A4292
:104CD00003C081E080938A4281E080935D42E0EAF4
:104CE000F4E0818584608187FF91EF918F910F902F
:104CF0000BBE0F900FBE0F901F9018951F920F9232
:104D00000FB60F9211240BB60F922F933F934F9330
:104D10005F936F937F938F939F93AF93BF93EF9323
:104D2000FF938091490486FF4FC080918942811191
:104D30001CC08091A2429091A342A091A442B09144
:104D4000A54240915742509158426091594270910A
:104D50005A42841B950BA60BB70B8B3F9105A105FF
:104D6000B10518F081E0809389428091480486FF64
:104D700018C080915B428823A1F081E080935C425F
:104D80008091A2429091A342A091A442B091A542E9
:104D90008093574290935842A0935942B0935A42FD
:104DA0000EC08091480486FD0AC0109257421092AE
:104DB00058421092594210925A4210925C42E0E4DA
:104DC000F4E08185806481878091490488230CF018
:104DD0004DC080918A42882389F18091714281116E
:104DE0001BC0909148049923BCF481E00E94AF1548
:104DF0008091A2429091A342A091A442B091A54279
:104E00008093614290936242A0936342B093644264
:104E100081E08093714225C0882319F18091480474
:104E20008823FCF080E00E94AF1580916C428F5F78
:104E300080936C4281E08093704213C080917142F4
:104E4000811108C080914804882324F481E0809374
:104E5000714207C08091480488231CF081E0809350
:104E60007042E0E4F4E081858068818780914904A4
:104E700083FF08C081E080936F42E0E4F4E0818525
:104E800088608187FF91EF91BF91AF919F918F9142
:104E90007F916F915F914F913F912F910F900BBE3A
:104EA0000F900FBE0F901F9018951F920F920FB684
:104EB0000F9211240BB60F928F93EF93FF93809173
:104EC000890481FF0AC081E0809386428093134069
:104ED000E0E8F4E08185826081878091890482FF27
:104EE00012C080916A42882319F010926A4203C06E
:104EF00081E080936A4281E080935E42E0E8F4E0E2
:104F00008185846081878091890480FF08C081E069
:104F100080938842E0E8F4E0818581608187FF9199
:104F2000EF918F910F900BBE0F900FBE0F901F90BF
:104F300018950F931F93CF93DF938B01EA01409154
:104F4000880442FF0EC0280F391FC217D3070CF088
:104F5000E901BE010D2E000C880B990B0E9419105F
:104F600015C04091A80442FF10C0AC01421B530B76
:104F7000461757070CF08A01B801012E000C880B68
:104F8000990B0E941910E80101C0EC015FE78FE462
:104F900092E1515080409040E1F700C00000CE0106
:104FA000DF91CF911F910F910895CF93DF931092CE
:104FB000134085E191E40E94DA0F8BE491E40E94B2
:104FC000FB0F6091544270E080E090E00E94191065
:104FD0008BE591E40E94FB0F6091534270E080E00A
:104FE00090E00E9419108BE691E40E94FB0F609103
:104FF000524270E080E090E00E9419108BE791E44B
:105000000E94FB0F6091514270E080E090E00E94AE
:1050100019108BE891E40E94FB0F6091504270E000
:1050200080E090E00E94191020E030E0C6C090912E
:105030005442992339F18BE991E40E94DA0FC0E0E0
:10504000DAE04EA15FA16091114070911240809111
:105050001140909112406456710925E030E00E94A1
:105060009927809311409093124088A799A7809127
:1050700011409091124080935F429093604229E1E9
:1050800030E09BC090915342992319F1C0E0DAE0DF
:105090004EA15FA160910F407091104080910F4030
:1050A000909110406456710925E030E00E949927E4
:1050B00080930F409093104088A799A780910F404C
:1050C0009091104080935F42909360422BE130E0DA
:1050D00074C080915242882319F1C0E0DAE04EA1F9
:1050E0005FA160910D4070910E4080910D409091B4
:1050F0000E406456710925E030E00E9499278093A4
:105100000D4090930E4088A799A780910D409091F3
:105110000E4080935F42909360422DE130E04DC09D
:1051200080915142882319F1C0E0DAE04EA15FA1DD
:1051300060910B4070910C4080910B4090910C401D
:105140006456710925E030E00E94992780930B4056
:1051500090930C4088A799A780910B4090910C40A8
:1051600080935F42909360422FE130E026C08091AF
:105170005042882311F1C0E0DAE04EA15FA16091B6
:10518000094070910A408091094090910A4064560C
:10519000710925E030E00E9499278093094090939F
:1051A0000A4088A799A78091094090910A4080936E
:1051B0005F429093604221E230E090911340992346
:1051C00009F435CF60915F4270916042C9010E943D
:1051D000442381EF91E40E94DA0F1092134023E9F7
:1051E0004CE362E882E30E94311560915F42709166
:1051F0006042072E000C880B990B0E941910109228
:105200005C421092544210925342109252421092B9
:105210005142109250421092864285E292E40E94DE
:10522000DA0F80915F4290916042DF91CF910895B3
:105230000F9380915C42882389F18091A2429091E2
:10524000A342A091A442B091A542409157425091EF
:1052500058426091594270915A42841B950BA60B9B
:10526000B70B893B9B40A105B105C0F010925C4291
:1052700010925742109258421092594210925A423C
:105280008CE392E40E94DA0F09E121E14AE25AE05C
:1052900062E882E30E94B9120E94D5270F91089517
:1052A000F89495E288ED84BF909368000E94521AAA
:1052B00080E895E20E94A80FE0E4F4E0808180613C
:1052C000808384818F7E8483E0E2F4E0808181604A
:1052D00080830E9406230E942410E0E0F4E0808195
:1052E0008062808384818F7D8483E0E8F4E0808124
:1052F000886080830E94DA100E946B240E94D51976
:105300000E945E150E94261E0E947717E0E6F4E0D8
:10531000808180830E9431242FEF82E597E0215025
:1053200080409040E1F700C0000078940E94B325CF
:105330000E945C2182E30E942F160E94191E0E9487
:10534000C5190E94D8190E94E7210E94B4180E9432
:1053500018290E94ED25EECF5058BB27AA270E949E
:10536000C4290C943E2B0E94302B38F00E94372B1E
:1053700020F039F49F3F19F426F40C942D2B0EF4F1
:10538000E095E7FB0C94272BE92F0E944F2B58F355
:10539000BA17620773078407950720F079F4A6F51A
:1053A0000C94712B0EF4E0950B2EBA2FA02D0B014F
:1053B000B90190010C01CA01A0011124FF27591B5A
:1053C00099F0593F50F4503E68F11A16F040A22F60
:1053D000232F342F4427585FF3CF469537952795D1
:1053E000A795F0405395C9F77EF41F16BA0B620BD0
:1053F000730B840BBAF09150A1F0FF0FBB1F661F17
:10540000771F881FC2F70EC0BA0F621F731F841F59
:1054100048F4879577956795B795F7959E3F08F07F
:10542000B0CF9395880F08F09927EE0F9795879541
:1054300008950E94032B08F481E008950E94322A07
:105440000C943E2B0E94372B58F00E94302B40F0DA
:1054500029F45F3F29F00C94272B51110C94722BE7
:105460000C942D2B0E944F2B68F39923B1F35523F5
:1054700091F3951B550BBB27AA2762177307840767
:1054800038F09F5F5F4F220F331F441FAA1FA9F3FD
:1054900035D00E2E3AF0E0E832D091505040E695EB
:1054A000001CCAF72BD0FE2F29D0660F771F881F4C
:1054B000BB1F261737074807AB07B0E809F0BB0B3F
:1054C000802DBF01FF2793585F4F3AF09E3F510553
:1054D00078F00C94272B0C94722B5F3FE4F3983EEA
:1054E000D4F3869577956795B795F7959F5FC9F73C
:1054F000880F911D9695879597F90895E1E0660FBD
:10550000771F881FBB1F621773078407BA0720F035
:10551000621B730B840BBA0BEE1F88F7E09508959E
:105520000E94972A6894B1110C94722B08950E94DE
:10553000572B88F09F5798F0B92F9927B751B0F0A3
:10554000E1F0660F771F881F991F1AF0BA95C9F707
:1055500014C0B13091F00E94712BB1E008950C9409
:10556000712B672F782F8827B85F39F0B93FCCF3BC
:10557000869577956795B395D9F73EF49095809584
:10558000709561957F4F8F4F9F4F0895E89409C0A4
:1055900097FB3EF490958095709561957F4F8F4F66
:1055A0009F4F9923A9F0F92F96E9BB279395F6957C
:1055B000879577956795B795F111F8CFFAF4BB0FFA
:1055C00011F460FF1BC06F5F7F4F8F4F9F4F16C05E
:1055D000882311F096E911C0772321F09EE8872FE8
:1055E000762F05C0662371F096E8862F70E060E0A4
:1055F0002AF09A95660F771F881FDAF7880F96951D
:10560000879597F90895990F0008550FAA0BE0E8C0
:10561000FEEF16161706E807F907C0F01216130674
:10562000E407F50798F0621B730B840B950B39F4B4
:105630000A2661F0232B242B252B21F408950A261A
:1056400009F4A140A6958FEF811D811D089597F95A
:105650009F6780E870E060E008959FEF80EC089518
:1056600000240A9416161706180609060895002441
:105670000A9412161306140605060895092E0394BB
:10568000000C11F4882352F0BB0F40F4BF2B11F42F
:1056900060FF04C06F5F7F4F8F4F9F4F089557FD8E
:1056A0009058440F551F59F05F3F71F04795880F90
:1056B00097FB991F61F09F3F79F087950895121627
:1056C00013061406551FF2CF4695F1DF08C01616D3
:1056D00017061806991FF1CF869571056105089484
:1056E0000895E894BB2766277727CB0197F908959B
:1056F0000E94032B08F48FEF08950E94902B0C94C6
:105700003E2B0E94302B38F00E94372B20F095233F
:1057100011F00C94272B0C942D2B11240C94722B2C
:105720000E944F2B70F3959FC1F3950F50E0551FCA
:10573000629FF001729FBB27F00DB11D639FAA27E6
:10574000F00DB11DAA1F649F6627B00DA11D661F35
:10575000829F2227B00DA11D621F739FB00DA11D56
:10576000621F839FA00D611D221F749F3327A00D10
:10577000611D231F849F600D211D822F762F6A2FAC
:1057800011249F5750409AF0F1F088234AF0EE0F11
:10579000FF1FBB1F661F771F881F91505040A9F73E
:1057A0009E3F510580F00C94272B0C94722B5F3F89
:1057B000E4F3983ED4F3869577956795B795F7957A
:1057C000E7959F5FC1F7FE2B880F911D96958795F2
:1057D00097F9089597FB072E16F4009407D077FDEC
:1057E00009D00E94592C07FC05D03EF49095819574
:1057F0009F4F0895709561957F4F0895A1E21A2EED
:10580000AA1BBB1BFD010DC0AA1FBB1FEE1FFF1F64
:10581000A217B307E407F50720F0A21BB30BE40BB4
:10582000F50B661F771F881F991F1A9469F76095FB
:105830007095809590959B01AC01BD01CF010895B5
:10584000052E97FB1EF400940E94372C57FD07D0BD
:105850000E94FE2B07FC03D04EF40C94372C50957D
:105860004095309521953F4F4F4F5F4F089590954C
:105870008095709561957F4F8F4F9F4F0895A29FA0
:10588000B001B39FC001A39F700D811D1124911D14
:10589000B29F700D811D1124911D08950E943F2C0F
:1058A000A59F900DB49F900DA49F800D911D112474
:1058B0000895AA1BBB1B51E107C0AA1FBB1FA61757
:1058C000B70710F0A61BB70B881F991F5A95A9F7A9
:1058D00080959095BC01CD0108950F931F93CF93B0
:1058E000DF93869F8001879F100D969F100D1124D6
:1058F000C8010E94892CEC01009729F0A80160E002
:1059000070E00E94982ECE01DF91CF911F910F91F0
:1059100008950F931F93CF93DF938230910510F476
:1059200082E090E0E091FD42F091FE4220E030E024
:10593000A0E0B0E0309719F14081518102811381DC
:1059400048175907C8F08417950769F4109731F084
:1059500012960C93129713961C9327C00093FD4246
:105960001093FE4222C02115310519F0421753074A
:1059700018F49A01BD01EF01DF01F801DBCF211519
:105980003105F9F0281B390B2430310580F48A8168
:105990009B816115710521F0FB018283938304C013
:1059A0008093FD429093FE42FE01329644C0FE0178
:1059B000E20FF31F81939193225031092883398399
:1059C0003AC02091FB423091FC42232B41F42091BC
:1059D0000240309103402093FB423093FC422091DF
:1059E0000040309101402115310541F42DB73EB7FB
:1059F0004091044050910540241B350BE091FB423F
:105A0000F091FC42E217F307A0F42E1B3F0B28177E
:105A1000390778F0AC014E5F5F4F2417350748F027
:105A20004E0F5F1F4093FB425093FC428193919332
:105A300002C0E0E0F0E0CF01DF91CF911F910F9124
:105A40000895CF93DF93009709F481C0FC0132974A
:105A500012821382A091FD42B091FE42109781F410
:105A600020813181820F931F2091FB423091FC42B3
:105A70002817390751F5E093FB42F093FC4267C0C9
:105A8000ED0120E030E0CE17DF0740F44A815B8172
:105A90009E0141155105F1F0EA01F5CFC283D38390
:105AA00040815181840F951FC817D90759F4888107
:105AB0009981840F951F0296808391838A819B81AF
:105AC000828393832115310529F4E093FD42F093FD
:105AD000FE423DC0E901EA83FB8349915991C40F1D
